{
  "_format": "hh-sol-artifact-1",
  "contractName": "Fractionalizer",
  "sourceName": "contracts/Fractionalizer.sol",
  "abi": [
    {
      "inputs": [
        {
          "internalType": "address",
          "name": "initialOwner",
          "type": "address"
        },
        {
          "internalType": "string",
          "name": "name",
          "type": "string"
        },
        {
          "internalType": "string",
          "name": "symbol",
          "type": "string"
        },
        {
          "internalType": "address",
          "name": "_nftAddress",
          "type": "address"
        },
        {
          "internalType": "uint256",
          "name": "_nftId",
          "type": "uint256"
        },
        {
          "internalType": "uint256",
          "name": "_totalSupply",
          "type": "uint256"
        }
      ],
      "stateMutability": "nonpayable",
      "type": "constructor"
    },
    {
      "inputs": [
        {
          "internalType": "address",
          "name": "spender",
          "type": "address"
        },
        {
          "internalType": "uint256",
          "name": "allowance",
          "type": "uint256"
        },
        {
          "internalType": "uint256",
          "name": "needed",
          "type": "uint256"
        }
      ],
      "name": "ERC20InsufficientAllowance",
      "type": "error"
    },
    {
      "inputs": [
        {
          "internalType": "address",
          "name": "sender",
          "type": "address"
        },
        {
          "internalType": "uint256",
          "name": "balance",
          "type": "uint256"
        },
        {
          "internalType": "uint256",
          "name": "needed",
          "type": "uint256"
        }
      ],
      "name": "ERC20InsufficientBalance",
      "type": "error"
    },
    {
      "inputs": [
        {
          "internalType": "address",
          "name": "approver",
          "type": "address"
        }
      ],
      "name": "ERC20InvalidApprover",
      "type": "error"
    },
    {
      "inputs": [
        {
          "internalType": "address",
          "name": "receiver",
          "type": "address"
        }
      ],
      "name": "ERC20InvalidReceiver",
      "type": "error"
    },
    {
      "inputs": [
        {
          "internalType": "address",
          "name": "sender",
          "type": "address"
        }
      ],
      "name": "ERC20InvalidSender",
      "type": "error"
    },
    {
      "inputs": [
        {
          "internalType": "address",
          "name": "spender",
          "type": "address"
        }
      ],
      "name": "ERC20InvalidSpender",
      "type": "error"
    },
    {
      "inputs": [
        {
          "internalType": "address",
          "name": "owner",
          "type": "address"
        }
      ],
      "name": "OwnableInvalidOwner",
      "type": "error"
    },
    {
      "inputs": [
        {
          "internalType": "address",
          "name": "account",
          "type": "address"
        }
      ],
      "name": "OwnableUnauthorizedAccount",
      "type": "error"
    },
    {
      "inputs": [],
      "name": "ReentrancyGuardReentrantCall",
      "type": "error"
    },
    {
      "anonymous": false,
      "inputs": [
        {
          "indexed": true,
          "internalType": "address",
          "name": "owner",
          "type": "address"
        },
        {
          "indexed": true,
          "internalType": "address",
          "name": "spender",
          "type": "address"
        },
        {
          "indexed": false,
          "internalType": "uint256",
          "name": "value",
          "type": "uint256"
        }
      ],
      "name": "Approval",
      "type": "event"
    },
    {
      "anonymous": false,
      "inputs": [
        {
          "indexed": true,
          "internalType": "address",
          "name": "previousOwner",
          "type": "address"
        },
        {
          "indexed": true,
          "internalType": "address",
          "name": "newOwner",
          "type": "address"
        }
      ],
      "name": "OwnershipTransferred",
      "type": "event"
    },
    {
      "anonymous": false,
      "inputs": [
        {
          "indexed": true,
          "internalType": "address",
          "name": "from",
          "type": "address"
        },
        {
          "indexed": true,
          "internalType": "address",
          "name": "to",
          "type": "address"
        },
        {
          "indexed": false,
          "internalType": "uint256",
          "name": "value",
          "type": "uint256"
        }
      ],
      "name": "Transfer",
      "type": "event"
    },
    {
      "inputs": [
        {
          "internalType": "address",
          "name": "owner",
          "type": "address"
        },
        {
          "internalType": "address",
          "name": "spender",
          "type": "address"
        }
      ],
      "name": "allowance",
      "outputs": [
        {
          "internalType": "uint256",
          "name": "",
          "type": "uint256"
        }
      ],
      "stateMutability": "view",
      "type": "function"
    },
    {
      "inputs": [
        {
          "internalType": "address",
          "name": "spender",
          "type": "address"
        },
        {
          "internalType": "uint256",
          "name": "value",
          "type": "uint256"
        }
      ],
      "name": "approve",
      "outputs": [
        {
          "internalType": "bool",
          "name": "",
          "type": "bool"
        }
      ],
      "stateMutability": "nonpayable",
      "type": "function"
    },
    {
      "inputs": [
        {
          "internalType": "address",
          "name": "account",
          "type": "address"
        }
      ],
      "name": "balanceOf",
      "outputs": [
        {
          "internalType": "uint256",
          "name": "",
          "type": "uint256"
        }
      ],
      "stateMutability": "view",
      "type": "function"
    },
    {
      "inputs": [],
      "name": "decimals",
      "outputs": [
        {
          "internalType": "uint8",
          "name": "",
          "type": "uint8"
        }
      ],
      "stateMutability": "view",
      "type": "function"
    },
    {
      "inputs": [],
      "name": "name",
      "outputs": [
        {
          "internalType": "string",
          "name": "",
          "type": "string"
        }
      ],
      "stateMutability": "view",
      "type": "function"
    },
    {
      "inputs": [],
      "name": "nft",
      "outputs": [
        {
          "internalType": "contract IERC721",
          "name": "",
          "type": "address"
        }
      ],
      "stateMutability": "view",
      "type": "function"
    },
    {
      "inputs": [],
      "name": "nftId",
      "outputs": [
        {
          "internalType": "uint256",
          "name": "",
          "type": "uint256"
        }
      ],
      "stateMutability": "view",
      "type": "function"
    },
    {
      "inputs": [],
      "name": "owner",
      "outputs": [
        {
          "internalType": "address",
          "name": "",
          "type": "address"
        }
      ],
      "stateMutability": "view",
      "type": "function"
    },
    {
      "inputs": [],
      "name": "redeem",
      "outputs": [],
      "stateMutability": "nonpayable",
      "type": "function"
    },
    {
      "inputs": [],
      "name": "renounceOwnership",
      "outputs": [],
      "stateMutability": "nonpayable",
      "type": "function"
    },
    {
      "inputs": [],
      "name": "symbol",
      "outputs": [
        {
          "internalType": "string",
          "name": "",
          "type": "string"
        }
      ],
      "stateMutability": "view",
      "type": "function"
    },
    {
      "inputs": [],
      "name": "totalSupply",
      "outputs": [
        {
          "internalType": "uint256",
          "name": "",
          "type": "uint256"
        }
      ],
      "stateMutability": "view",
      "type": "function"
    },
    {
      "inputs": [
        {
          "internalType": "address",
          "name": "to",
          "type": "address"
        },
        {
          "internalType": "uint256",
          "name": "value",
          "type": "uint256"
        }
      ],
      "name": "transfer",
      "outputs": [
        {
          "internalType": "bool",
          "name": "",
          "type": "bool"
        }
      ],
      "stateMutability": "nonpayable",
      "type": "function"
    },
    {
      "inputs": [
        {
          "internalType": "address",
          "name": "from",
          "type": "address"
        },
        {
          "internalType": "address",
          "name": "to",
          "type": "address"
        },
        {
          "internalType": "uint256",
          "name": "value",
          "type": "uint256"
        }
      ],
      "name": "transferFrom",
      "outputs": [
        {
          "internalType": "bool",
          "name": "",
          "type": "bool"
        }
      ],
      "stateMutability": "nonpayable",
      "type": "function"
    },
    {
      "inputs": [
        {
          "internalType": "address",
          "name": "newOwner",
          "type": "address"
        }
      ],
      "name": "transferOwnership",
      "outputs": [],
      "stateMutability": "nonpayable",
      "type": "function"
    }
  ],
  "bytecode": "0x608060405234801561000f575f80fd5b50604051610f5e380380610f5e83398101604081905261002e91610390565b858585600361003d83826104a5565b50600461004a82826104a5565b5050506001600160a01b03811661007f575f604051631e4fbdf760e01b81526004016100769190610564565b60405180910390fd5b6100888161012a565b506001600655600780546001600160a01b0319166001600160a01b03851617905560088290556100b8868261017b565b6007546040516323b872dd60e01b81526001600160a01b03888116600483015230602483015260448201859052909116906323b872dd906064015f604051808303815f87803b158015610109575f80fd5b505af115801561011b573d5f803e3d5ffd5b5050505050505050505061059d565b600580546001600160a01b038381166001600160a01b0319831681179093556040519116919082907f8be0079c531659141344cd1fd0a4f28419497f9722a3daafe3b4186f6b6457e0905f90a35050565b6001600160a01b0382166101a4575f60405163ec442f0560e01b81526004016100769190610564565b6101af5f83836101b3565b5050565b6001600160a01b0383166101dd578060025f8282546101d29190610578565b9091555061024d9050565b6001600160a01b0383165f908152602081905260409020548181101561022f5760405163391434e360e21b81526001600160a01b03851660048201526024810182905260448101839052606401610076565b6001600160a01b0384165f9081526020819052604090209082900390555b6001600160a01b03821661026957600280548290039055610287565b6001600160a01b0382165f9081526020819052604090208054820190555b816001600160a01b0316836001600160a01b03167fddf252ad1be2c89b69c2b068fc378daa952ba7f163c4a11628f55a4df523b3ef836040516102cc91815260200190565b60405180910390a3505050565b80516001600160a01b03811681146102ef575f80fd5b919050565b634e487b7160e01b5f52604160045260245ffd5b5f82601f830112610317575f80fd5b81516001600160401b0380821115610331576103316102f4565b604051601f8301601f19908116603f01168101908282118183101715610359576103596102f4565b81604052838152866020858801011115610371575f80fd5b8360208701602083015e5f602085830101528094505050505092915050565b5f805f805f8060c087890312156103a5575f80fd5b6103ae876102d9565b60208801519096506001600160401b03808211156103ca575f80fd5b6103d68a838b01610308565b965060408901519150808211156103eb575f80fd5b506103f889828a01610308565b945050610407606088016102d9565b92506080870151915060a087015190509295509295509295565b600181811c9082168061043557607f821691505b60208210810361045357634e487b7160e01b5f52602260045260245ffd5b50919050565b601f8211156104a057805f5260205f20601f840160051c8101602085101561047e5750805b601f840160051c820191505b8181101561049d575f815560010161048a565b50505b505050565b81516001600160401b038111156104be576104be6102f4565b6104d2816104cc8454610421565b84610459565b602080601f831160018114610505575f84156104ee5750858301515b5f19600386901b1c1916600185901b17855561055c565b5f85815260208120601f198616915b8281101561053357888601518255948401946001909101908401610514565b508582101561055057878501515f19600388901b60f8161c191681555b505060018460011b0185555b505050505050565b6001600160a01b0391909116815260200190565b8082018082111561059757634e487b7160e01b5f52601160045260245ffd5b92915050565b6109b4806105aa5f395ff3fe608060405234801561000f575f80fd5b50600436106100c3575f3560e01c806306fdde03146100c7578063095ea7b3146100e557806318160ddd1461010857806323b872dd1461011a578063313ce5671461012d57806347ccca021461013c57806370a082311461015c578063715018a61461016f5780638da5cb5b1461017957806395d89b4114610181578063a9059cbb14610189578063be040fb01461019c578063c6bc5182146101a4578063dd62ed3e146101ad578063f2fde38b146101c0575b5f80fd5b6100cf6101d3565b6040516100dc91906107f0565b60405180910390f35b6100f86100f3366004610840565b610263565b60405190151581526020016100dc565b6002545b6040519081526020016100dc565b6100f8610128366004610868565b61027c565b604051601281526020016100dc565b60075461014f906001600160a01b031681565b6040516100dc91906108a1565b61010c61016a3660046108b5565b61029f565b6101776102b9565b005b61014f6102cc565b6100cf6102db565b6100f8610197366004610840565b6102ea565b6101776102f7565b61010c60085481565b61010c6101bb3660046108d5565b6103ff565b6101776101ce3660046108b5565b610429565b6060600380546101e290610906565b80601f016020809104026020016040519081016040528092919081815260200182805461020e90610906565b80156102595780601f1061023057610100808354040283529160200191610259565b820191905f5260205f20905b81548152906001019060200180831161023c57829003601f168201915b5050505050905090565b5f33610270818585610466565b60019150505b92915050565b5f33610289858285610478565b6102948585856104c9565b506001949350505050565b6001600160a01b03165f9081526020819052604090205490565b6102c1610526565b6102ca5f610558565b565b6005546001600160a01b031690565b6060600480546101e290610906565b5f336102708185856104c9565b6102ff6105a9565b60025461030b3361029f565b1461037a5760405162461bcd60e51b815260206004820152603460248201527f596f75206d757374206f776e20616c6c206672616374696f6e616c2073686172604482015273195cc81d1bc81c995919595b481d1a194813919560621b60648201526084015b60405180910390fd5b61038c3361038760025490565b6105d3565b6007546008546040516323b872dd60e01b815230600482015233602482015260448101919091526001600160a01b03909116906323b872dd906064015f604051808303815f87803b1580156103df575f80fd5b505af11580156103f1573d5f803e3d5ffd5b505050506102ca6001600655565b6001600160a01b039182165f90815260016020908152604080832093909416825291909152205490565b610431610526565b6001600160a01b03811661045a575f604051631e4fbdf760e01b815260040161037191906108a1565b61046381610558565b50565b610473838383600161060b565b505050565b5f61048384846103ff565b90505f198110156104c357818110156104b557828183604051637dc7a0d960e11b81526004016103719392919061093e565b6104c384848484035f61060b565b50505050565b6001600160a01b0383166104f2575f604051634b637e8f60e11b815260040161037191906108a1565b6001600160a01b03821661051b575f60405163ec442f0560e01b815260040161037191906108a1565b6104738383836106dd565b3361052f6102cc565b6001600160a01b0316146102ca573360405163118cdaa760e01b815260040161037191906108a1565b600580546001600160a01b038381166001600160a01b0319831681179093556040519116919082907f8be0079c531659141344cd1fd0a4f28419497f9722a3daafe3b4186f6b6457e0905f90a35050565b6002600654036105cc57604051633ee5aeb560e01b815260040160405180910390fd5b6002600655565b6001600160a01b0382166105fc575f604051634b637e8f60e11b815260040161037191906108a1565b610607825f836106dd565b5050565b6001600160a01b038416610634575f60405163e602df0560e01b815260040161037191906108a1565b6001600160a01b03831661065d575f604051634a1406b160e11b815260040161037191906108a1565b6001600160a01b038085165f90815260016020908152604080832093871683529290522082905580156104c357826001600160a01b0316846001600160a01b03167f8c5be1e5ebec7d5bd14f71427d1e84f3dd0314c0f7b2291e5b200ac8c7c3b925846040516106cf91815260200190565b60405180910390a350505050565b6001600160a01b038316610707578060025f8282546106fc919061095f565b909155506107649050565b6001600160a01b0383165f90815260208190526040902054818110156107465783818360405163391434e360e21b81526004016103719392919061093e565b6001600160a01b0384165f9081526020819052604090209082900390555b6001600160a01b0382166107805760028054829003905561079e565b6001600160a01b0382165f9081526020819052604090208054820190555b816001600160a01b0316836001600160a01b03167fddf252ad1be2c89b69c2b068fc378daa952ba7f163c4a11628f55a4df523b3ef836040516107e391815260200190565b60405180910390a3505050565b602081525f82518060208401528060208501604085015e5f604082850101526040601f19601f83011684010191505092915050565b80356001600160a01b038116811461083b575f80fd5b919050565b5f8060408385031215610851575f80fd5b61085a83610825565b946020939093013593505050565b5f805f6060848603121561087a575f80fd5b61088384610825565b925061089160208501610825565b9150604084013590509250925092565b6001600160a01b0391909116815260200190565b5f602082840312156108c5575f80fd5b6108ce82610825565b9392505050565b5f80604083850312156108e6575f80fd5b6108ef83610825565b91506108fd60208401610825565b90509250929050565b600181811c9082168061091a57607f821691505b60208210810361093857634e487b7160e01b5f52602260045260245ffd5b50919050565b6001600160a01b039390931683526020830191909152604082015260600190565b8082018082111561027657634e487b7160e01b5f52601160045260245ffdfea26469706673582212209a290c597a672795dedbd93333fe4b9adda0ca1c93f351f3a0e38ffde5cc79fd64736f6c63430008190033",
  "linkReferences": {},
  "deployedLinkReferences": {}
}