{
  "_format": "hh-sol-artifact-1",
  "contractName": "Fractionalizer",
  "sourceName": "contracts/Fractionalizer.sol",
  "abi": [
    {
      "inputs": [
        {
          "internalType": "address",
          "name": "initialOwner",
          "type": "address"
        },
        {
          "internalType": "string",
          "name": "name",
          "type": "string"
        },
        {
          "internalType": "string",
          "name": "symbol",
          "type": "string"
        },
        {
          "internalType": "address",
          "name": "_nftAddress",
          "type": "address"
        },
        {
          "internalType": "uint256",
          "name": "_nftId",
          "type": "uint256"
        },
        {
          "internalType": "uint256",
          "name": "_totalSupply",
          "type": "uint256"
        }
      ],
      "stateMutability": "nonpayable",
      "type": "constructor"
    },
    {
      "inputs": [
        {
          "internalType": "address",
          "name": "spender",
          "type": "address"
        },
        {
          "internalType": "uint256",
          "name": "allowance",
          "type": "uint256"
        },
        {
          "internalType": "uint256",
          "name": "needed",
          "type": "uint256"
        }
      ],
      "name": "ERC20InsufficientAllowance",
      "type": "error"
    },
    {
      "inputs": [
        {
          "internalType": "address",
          "name": "sender",
          "type": "address"
        },
        {
          "internalType": "uint256",
          "name": "balance",
          "type": "uint256"
        },
        {
          "internalType": "uint256",
          "name": "needed",
          "type": "uint256"
        }
      ],
      "name": "ERC20InsufficientBalance",
      "type": "error"
    },
    {
      "inputs": [
        {
          "internalType": "address",
          "name": "approver",
          "type": "address"
        }
      ],
      "name": "ERC20InvalidApprover",
      "type": "error"
    },
    {
      "inputs": [
        {
          "internalType": "address",
          "name": "receiver",
          "type": "address"
        }
      ],
      "name": "ERC20InvalidReceiver",
      "type": "error"
    },
    {
      "inputs": [
        {
          "internalType": "address",
          "name": "sender",
          "type": "address"
        }
      ],
      "name": "ERC20InvalidSender",
      "type": "error"
    },
    {
      "inputs": [
        {
          "internalType": "address",
          "name": "spender",
          "type": "address"
        }
      ],
      "name": "ERC20InvalidSpender",
      "type": "error"
    },
    {
      "inputs": [
        {
          "internalType": "address",
          "name": "owner",
          "type": "address"
        }
      ],
      "name": "OwnableInvalidOwner",
      "type": "error"
    },
    {
      "inputs": [
        {
          "internalType": "address",
          "name": "account",
          "type": "address"
        }
      ],
      "name": "OwnableUnauthorizedAccount",
      "type": "error"
    },
    {
      "inputs": [],
      "name": "ReentrancyGuardReentrantCall",
      "type": "error"
    },
    {
      "anonymous": false,
      "inputs": [
        {
          "indexed": true,
          "internalType": "address",
          "name": "owner",
          "type": "address"
        },
        {
          "indexed": true,
          "internalType": "address",
          "name": "spender",
          "type": "address"
        },
        {
          "indexed": false,
          "internalType": "uint256",
          "name": "value",
          "type": "uint256"
        }
      ],
      "name": "Approval",
      "type": "event"
    },
    {
      "anonymous": false,
      "inputs": [
        {
          "indexed": true,
          "internalType": "address",
          "name": "previousOwner",
          "type": "address"
        },
        {
          "indexed": true,
          "internalType": "address",
          "name": "newOwner",
          "type": "address"
        }
      ],
      "name": "OwnershipTransferred",
      "type": "event"
    },
    {
      "anonymous": false,
      "inputs": [
        {
          "indexed": true,
          "internalType": "address",
          "name": "from",
          "type": "address"
        },
        {
          "indexed": true,
          "internalType": "address",
          "name": "to",
          "type": "address"
        },
        {
          "indexed": false,
          "internalType": "uint256",
          "name": "value",
          "type": "uint256"
        }
      ],
      "name": "Transfer",
      "type": "event"
    },
    {
      "inputs": [
        {
          "internalType": "address",
          "name": "owner",
          "type": "address"
        },
        {
          "internalType": "address",
          "name": "spender",
          "type": "address"
        }
      ],
      "name": "allowance",
      "outputs": [
        {
          "internalType": "uint256",
          "name": "",
          "type": "uint256"
        }
      ],
      "stateMutability": "view",
      "type": "function"
    },
    {
      "inputs": [
        {
          "internalType": "address",
          "name": "spender",
          "type": "address"
        },
        {
          "internalType": "uint256",
          "name": "value",
          "type": "uint256"
        }
      ],
      "name": "approve",
      "outputs": [
        {
          "internalType": "bool",
          "name": "",
          "type": "bool"
        }
      ],
      "stateMutability": "nonpayable",
      "type": "function"
    },
    {
      "inputs": [
        {
          "internalType": "address",
          "name": "account",
          "type": "address"
        }
      ],
      "name": "balanceOf",
      "outputs": [
        {
          "internalType": "uint256",
          "name": "",
          "type": "uint256"
        }
      ],
      "stateMutability": "view",
      "type": "function"
    },
    {
      "inputs": [],
      "name": "decimals",
      "outputs": [
        {
          "internalType": "uint8",
          "name": "",
          "type": "uint8"
        }
      ],
      "stateMutability": "view",
      "type": "function"
    },
    {
      "inputs": [],
      "name": "name",
      "outputs": [
        {
          "internalType": "string",
          "name": "",
          "type": "string"
        }
      ],
      "stateMutability": "view",
      "type": "function"
    },
    {
      "inputs": [],
      "name": "nft",
      "outputs": [
        {
          "internalType": "contract IERC721",
          "name": "",
          "type": "address"
        }
      ],
      "stateMutability": "view",
      "type": "function"
    },
    {
      "inputs": [],
      "name": "nftId",
      "outputs": [
        {
          "internalType": "uint256",
          "name": "",
          "type": "uint256"
        }
      ],
      "stateMutability": "view",
      "type": "function"
    },
    {
      "inputs": [],
      "name": "owner",
      "outputs": [
        {
          "internalType": "address",
          "name": "",
          "type": "address"
        }
      ],
      "stateMutability": "view",
      "type": "function"
    },
    {
      "inputs": [],
      "name": "redeem",
      "outputs": [],
      "stateMutability": "nonpayable",
      "type": "function"
    },
    {
      "inputs": [],
      "name": "renounceOwnership",
      "outputs": [],
      "stateMutability": "nonpayable",
      "type": "function"
    },
    {
      "inputs": [],
      "name": "symbol",
      "outputs": [
        {
          "internalType": "string",
          "name": "",
          "type": "string"
        }
      ],
      "stateMutability": "view",
      "type": "function"
    },
    {
      "inputs": [],
      "name": "totalSupply",
      "outputs": [
        {
          "internalType": "uint256",
          "name": "",
          "type": "uint256"
        }
      ],
      "stateMutability": "view",
      "type": "function"
    },
    {
      "inputs": [
        {
          "internalType": "address",
          "name": "to",
          "type": "address"
        },
        {
          "internalType": "uint256",
          "name": "value",
          "type": "uint256"
        }
      ],
      "name": "transfer",
      "outputs": [
        {
          "internalType": "bool",
          "name": "",
          "type": "bool"
        }
      ],
      "stateMutability": "nonpayable",
      "type": "function"
    },
    {
      "inputs": [
        {
          "internalType": "address",
          "name": "from",
          "type": "address"
        },
        {
          "internalType": "address",
          "name": "to",
          "type": "address"
        },
        {
          "internalType": "uint256",
          "name": "value",
          "type": "uint256"
        }
      ],
      "name": "transferFrom",
      "outputs": [
        {
          "internalType": "bool",
          "name": "",
          "type": "bool"
        }
      ],
      "stateMutability": "nonpayable",
      "type": "function"
    },
    {
      "inputs": [
        {
          "internalType": "address",
          "name": "newOwner",
          "type": "address"
        }
      ],
      "name": "transferOwnership",
      "outputs": [],
      "stateMutability": "nonpayable",
      "type": "function"
    }
  ],
  "bytecode": "0x608060409080825234620002905762000fdf8038038091620000228285620004b2565b8339810160c08282031262000290576200003c82620004d6565b60208381015190926001600160401b0392909183811162000290578262000065918701620004eb565b918686015190848211620002905762000080918701620004eb565b936200008f60608701620004d6565b9260a06080880151970151908051868111620003b25760038054916001938484811c94168015620004a7575b8785101462000491578190601f948581116200043b575b508790858311600114620003d457600092620003c8575b505060001982841b1c191690841b1781555b885191888311620003b2576004998a548581811c91168015620003a7575b888210146200039257908183869594931162000338575b5087918411600114620002cd57600093620002c1575b505082841b92600019911b1c19161787555b6001600160a01b03938416948515620002aa57600580546001600160a01b031980821689179092559092869291889084167f8be0079c531659141344cd1fd0a4f28419497f9722a3daafe3b4186f6b6457e0600080a36006551690600754161760075586600855600254818101809111620002955784926000927fddf252ad1be2c89b69c2b068fc378daa952ba7f163c4a11628f55a4df523b3ef926002558484528382528a84208181540190558a51908152a36007541693843b156200029057606460009283885197889485936323b872dd60e01b85528985015230602485015260448401525af1801562000285576200025d575b8351610a7d9081620005628239f35b821162000270575081523880806200024e565b604190634e487b7160e01b6000525260246000fd5b84513d6000823e3d90fd5b600080fd5b601187634e487b7160e01b6000525260246000fd5b8951631e4fbdf760e01b81526000818a0152602490fd5b01519150388062000146565b9190859450601f198416928c600052886000209360005b8a82821062000321575050851162000306575b50505050811b01875562000158565b01519060f884600019921b161c1916905538808080620002f7565b8385015187558998909601959384019301620002e4565b90919293508b600052876000208380870160051c8201928a881062000388575b9188918897969594930160051c01915b8281106200037857505062000130565b6000815587965088910162000368565b9250819262000358565b60228c634e487b7160e01b6000525260246000fd5b90607f169062000119565b634e487b7160e01b600052604160045260246000fd5b015190503880620000e9565b90869350601f1983169185600052896000209260005b8b8282106200042457505084116200040b575b505050811b018155620000fb565b015160001983861b60f8161c19169055388080620003fd565b8385015186558a97909501949384019301620003ea565b90915083600052876000208580850160051c8201928a861062000487575b918891869594930160051c01915b82811062000477575050620000d2565b6000815585945088910162000467565b9250819262000459565b634e487b7160e01b600052602260045260246000fd5b93607f1693620000bb565b601f909101601f19168101906001600160401b03821190821017620003b257604052565b51906001600160a01b03821682036200029057565b919080601f84011215620002905782516001600160401b038111620003b257602090604051926200052683601f19601f8501160185620004b2565b818452828287010111620002905760005b8181106200054d57508260009394955001015290565b85810183015184820184015282016200053756fe6080604081815260048036101561001557600080fd5b600092833560e01c90816306fdde031461079557508063095ea7b3146106ec57806318160ddd146106cd57806323b872dd146105da578063313ce567146105be57806347ccca021461059557806370a082311461055e578063715018a6146104fe5780638da5cb5b146104d557806395d89b41146103cf578063a9059cbb1461039e578063be040fb0146101cc578063c6bc5182146101ad578063dd62ed3e1461015b5763f2fde38b146100c857600080fd5b34610157576020366003190112610157576100e16108d4565b906100ea610a1b565b6001600160a01b03918216928315610141575050600554826bffffffffffffffffffffffff60a01b821617600555167f8be0079c531659141344cd1fd0a4f28419497f9722a3daafe3b4186f6b6457e0600080a380f35b51631e4fbdf760e01b8152908101849052602490fd5b8280fd5b5050346101a957806003193601126101a9576020916101786108d4565b826101816108ef565b6001600160a01b03928316845260018652922091166000908152908352819020549051908152f35b5080fd5b5050346101a957816003193601126101a9576020906008549051908152f35b509190346101a957816003193601126101a95760026006541461038f576002600655338252816020528082205460025480910361032f5733156103185733835282602052818320548181106102ec57818495928592338452836020520384832055806002540360025583519081527fddf252ad1be2c89b69c2b068fc378daa952ba7f163c4a11628f55a4df523b3ef60203392a3600754600854906001600160a01b0316803b156102e85760648592855196879384926323b872dd60e01b8452308885015233602485015260448401525af180156102de576102b2575b83600160065580f35b67ffffffffffffffff83116102cb5750523880806102a9565b634e487b7160e01b845260419052602483fd5b82513d86823e3d90fd5b8480fd5b825163391434e360e21b8152338187019081526020810192909252604082018390529081906060010390fd5b8151634b637e8f60e11b8152808501849052602490fd5b815162461bcd60e51b8152602081860152603460248201527f596f75206d757374206f776e20616c6c206672616374696f6e616c2073686172604482015273195cc81d1bc81c995919595b481d1a194813919560621b6064820152608490fd5b51633ee5aeb560e01b81529050fd5b5050346101a957806003193601126101a9576020906103c86103be6108d4565b602435903361093d565b5160018152f35b509190346101a957816003193601126101a95780519180938054916001908360011c92600185169485156104cb575b60209586861081146104b857858952908115610494575060011461043c575b610438878761042e828c0383610905565b519182918261088b565b0390f35b81529295507f8a35acfbc15ff81a39ae7d344fd709f28e8600b4aa8c65c6b64bfe7fe36bd19b5b82841061048157505050826104389461042e9282010194388061041d565b8054868501880152928601928101610463565b60ff19168887015250505050151560051b830101925061042e82610438388061041d565b634e487b7160e01b845260228352602484fd5b93607f16936103fe565b5050346101a957816003193601126101a95760055490516001600160a01b039091168152602090f35b833461055b578060031936011261055b57610517610a1b565b600580546001600160a01b0319811690915581906001600160a01b03167f8be0079c531659141344cd1fd0a4f28419497f9722a3daafe3b4186f6b6457e08280a380f35b80fd5b5050346101a95760203660031901126101a95760209181906001600160a01b036105866108d4565b16815280845220549051908152f35b5050346101a957816003193601126101a95760075490516001600160a01b039091168152602090f35b5050346101a957816003193601126101a9576020905160128152f35b50823461055b57606036600319011261055b576105f56108d4565b6105fd6108ef565b916044359360018060a01b038316808352600160205286832033845260205286832054916000198303610639575b6020886103c889898961093d565b8683106106a157811561068a573315610673575082526001602090815286832033845281529186902090859003905582906103c88761062b565b8751634a1406b160e11b8152908101849052602490fd5b875163e602df0560e01b8152908101849052602490fd5b8751637dc7a0d960e11b8152339181019182526020820193909352604081018790528291506060010390fd5b5050346101a957816003193601126101a9576020906002549051908152f35b50346101575781600319360112610157576107056108d4565b60243590331561077e576001600160a01b031691821561076757508083602095338152600187528181208582528752205582519081527f8c5be1e5ebec7d5bd14f71427d1e84f3dd0314c0f7b2291e5b200ac8c7c3b925843392a35160018152f35b8351634a1406b160e11b8152908101859052602490fd5b835163e602df0560e01b8152808401869052602490fd5b9291905034610887578360031936011261088757600354600181811c918690828116801561087d575b602095868610821461086a575084885290811561084857506001146107ef575b610438868661042e828b0383610905565b929550600383527fc2575a0e9e593c00f959f8c92f12db2869c3395a3b0502d05e2516446f71f85b5b82841061083557505050826104389461042e9282010194386107de565b8054868501880152928601928101610818565b60ff191687860152505050151560051b830101925061042e82610438386107de565b634e487b7160e01b845260229052602483fd5b93607f16936107be565b8380fd5b6020808252825181830181905290939260005b8281106108c057505060409293506000838284010152601f8019910116010190565b81810186015184820160400152850161089e565b600435906001600160a01b03821682036108ea57565b600080fd5b602435906001600160a01b03821682036108ea57565b90601f8019910116810190811067ffffffffffffffff82111761092757604052565b634e487b7160e01b600052604160045260246000fd5b916001600160a01b03808416928315610a0257169283156109e957600090838252816020526040822054908382106109b7575091604082827fddf252ad1be2c89b69c2b068fc378daa952ba7f163c4a11628f55a4df523b3ef958760209652828652038282205586815220818154019055604051908152a3565b60405163391434e360e21b81526001600160a01b03919091166004820152602481019190915260448101839052606490fd5b60405163ec442f0560e01b815260006004820152602490fd5b604051634b637e8f60e11b815260006004820152602490fd5b6005546001600160a01b03163303610a2f57565b60405163118cdaa760e01b8152336004820152602490fdfea26469706673582212207dfe5c3ffa4a8258daab82e88371abfd7422d144d2c3a405ea463df7fcdea9e364736f6c63430008180033",
  "linkReferences": {},
  "deployedLinkReferences": {}
}