{
  "_format": "hh-sol-artifact-1",
  "contractName": "EventTicket",
  "sourceName": "contracts/EventTicket.sol",
  "abi": [
    {
      "inputs": [
        {
          "internalType": "address",
          "name": "initialOwner",
          "type": "address"
        },
        {
          "internalType": "string",
          "name": "uri",
          "type": "string"
        }
      ],
      "stateMutability": "nonpayable",
      "type": "constructor"
    },
    {
      "anonymous": false,
      "inputs": [
        {
          "indexed": true,
          "internalType": "address",
          "name": "account",
          "type": "address"
        },
        {
          "indexed": true,
          "internalType": "address",
          "name": "operator",
          "type": "address"
        },
        {
          "indexed": false,
          "internalType": "bool",
          "name": "approved",
          "type": "bool"
        }
      ],
      "name": "ApprovalForAll",
      "type": "event"
    },
    {
      "anonymous": false,
      "inputs": [
        {
          "indexed": true,
          "internalType": "address",
          "name": "previousOwner",
          "type": "address"
        },
        {
          "indexed": true,
          "internalType": "address",
          "name": "newOwner",
          "type": "address"
        }
      ],
      "name": "OwnershipTransferred",
      "type": "event"
    },
    {
      "anonymous": false,
      "inputs": [
        {
          "indexed": false,
          "internalType": "address",
          "name": "account",
          "type": "address"
        }
      ],
      "name": "Paused",
      "type": "event"
    },
    {
      "anonymous": false,
      "inputs": [
        {
          "indexed": true,
          "internalType": "address",
          "name": "operator",
          "type": "address"
        },
        {
          "indexed": true,
          "internalType": "address",
          "name": "from",
          "type": "address"
        },
        {
          "indexed": true,
          "internalType": "address",
          "name": "to",
          "type": "address"
        },
        {
          "indexed": false,
          "internalType": "uint256[]",
          "name": "ids",
          "type": "uint256[]"
        },
        {
          "indexed": false,
          "internalType": "uint256[]",
          "name": "values",
          "type": "uint256[]"
        }
      ],
      "name": "TransferBatch",
      "type": "event"
    },
    {
      "anonymous": false,
      "inputs": [
        {
          "indexed": true,
          "internalType": "address",
          "name": "operator",
          "type": "address"
        },
        {
          "indexed": true,
          "internalType": "address",
          "name": "from",
          "type": "address"
        },
        {
          "indexed": true,
          "internalType": "address",
          "name": "to",
          "type": "address"
        },
        {
          "indexed": false,
          "internalType": "uint256",
          "name": "id",
          "type": "uint256"
        },
        {
          "indexed": false,
          "internalType": "uint256",
          "name": "value",
          "type": "uint256"
        }
      ],
      "name": "TransferSingle",
      "type": "event"
    },
    {
      "anonymous": false,
      "inputs": [
        {
          "indexed": false,
          "internalType": "string",
          "name": "value",
          "type": "string"
        },
        {
          "indexed": true,
          "internalType": "uint256",
          "name": "id",
          "type": "uint256"
        }
      ],
      "name": "URI",
      "type": "event"
    },
    {
      "anonymous": false,
      "inputs": [
        {
          "indexed": false,
          "internalType": "address",
          "name": "account",
          "type": "address"
        }
      ],
      "name": "Unpaused",
      "type": "event"
    },
    {
      "inputs": [
        {
          "internalType": "address",
          "name": "account",
          "type": "address"
        },
        {
          "internalType": "uint256",
          "name": "id",
          "type": "uint256"
        }
      ],
      "name": "balanceOf",
      "outputs": [
        {
          "internalType": "uint256",
          "name": "",
          "type": "uint256"
        }
      ],
      "stateMutability": "view",
      "type": "function"
    },
    {
      "inputs": [
        {
          "internalType": "address[]",
          "name": "accounts",
          "type": "address[]"
        },
        {
          "internalType": "uint256[]",
          "name": "ids",
          "type": "uint256[]"
        }
      ],
      "name": "balanceOfBatch",
      "outputs": [
        {
          "internalType": "uint256[]",
          "name": "",
          "type": "uint256[]"
        }
      ],
      "stateMutability": "view",
      "type": "function"
    },
    {
      "inputs": [
        {
          "internalType": "address",
          "name": "account",
          "type": "address"
        },
        {
          "internalType": "uint256",
          "name": "id",
          "type": "uint256"
        },
        {
          "internalType": "uint256",
          "name": "value",
          "type": "uint256"
        }
      ],
      "name": "burn",
      "outputs": [],
      "stateMutability": "nonpayable",
      "type": "function"
    },
    {
      "inputs": [
        {
          "internalType": "address",
          "name": "account",
          "type": "address"
        },
        {
          "internalType": "uint256[]",
          "name": "ids",
          "type": "uint256[]"
        },
        {
          "internalType": "uint256[]",
          "name": "values",
          "type": "uint256[]"
        }
      ],
      "name": "burnBatch",
      "outputs": [],
      "stateMutability": "nonpayable",
      "type": "function"
    },
    {
      "inputs": [
        {
          "internalType": "address",
          "name": "holder",
          "type": "address"
        },
        {
          "internalType": "uint256",
          "name": "id",
          "type": "uint256"
        }
      ],
      "name": "checkInTicket",
      "outputs": [],
      "stateMutability": "nonpayable",
      "type": "function"
    },
    {
      "inputs": [
        {
          "internalType": "uint256",
          "name": "",
          "type": "uint256"
        },
        {
          "internalType": "address",
          "name": "",
          "type": "address"
        }
      ],
      "name": "checkedIn",
      "outputs": [
        {
          "internalType": "bool",
          "name": "",
          "type": "bool"
        }
      ],
      "stateMutability": "view",
      "type": "function"
    },
    {
      "inputs": [
        {
          "internalType": "address",
          "name": "account",
          "type": "address"
        },
        {
          "internalType": "address",
          "name": "operator",
          "type": "address"
        }
      ],
      "name": "isApprovedForAll",
      "outputs": [
        {
          "internalType": "bool",
          "name": "",
          "type": "bool"
        }
      ],
      "stateMutability": "view",
      "type": "function"
    },
    {
      "inputs": [
        {
          "internalType": "address",
          "name": "to",
          "type": "address"
        },
        {
          "internalType": "uint256",
          "name": "id",
          "type": "uint256"
        },
        {
          "internalType": "uint256",
          "name": "amount",
          "type": "uint256"
        }
      ],
      "name": "mint",
      "outputs": [],
      "stateMutability": "nonpayable",
      "type": "function"
    },
    {
      "inputs": [
        {
          "internalType": "address",
          "name": "to",
          "type": "address"
        },
        {
          "internalType": "uint256[]",
          "name": "ids",
          "type": "uint256[]"
        },
        {
          "internalType": "uint256[]",
          "name": "amounts",
          "type": "uint256[]"
        }
      ],
      "name": "mintBatch",
      "outputs": [],
      "stateMutability": "nonpayable",
      "type": "function"
    },
    {
      "inputs": [],
      "name": "owner",
      "outputs": [
        {
          "internalType": "address",
          "name": "",
          "type": "address"
        }
      ],
      "stateMutability": "view",
      "type": "function"
    },
    {
      "inputs": [],
      "name": "pause",
      "outputs": [],
      "stateMutability": "nonpayable",
      "type": "function"
    },
    {
      "inputs": [],
      "name": "paused",
      "outputs": [
        {
          "internalType": "bool",
          "name": "",
          "type": "bool"
        }
      ],
      "stateMutability": "view",
      "type": "function"
    },
    {
      "inputs": [],
      "name": "renounceOwnership",
      "outputs": [],
      "stateMutability": "nonpayable",
      "type": "function"
    },
    {
      "inputs": [
        {
          "internalType": "address",
          "name": "from",
          "type": "address"
        },
        {
          "internalType": "address",
          "name": "to",
          "type": "address"
        },
        {
          "internalType": "uint256[]",
          "name": "ids",
          "type": "uint256[]"
        },
        {
          "internalType": "uint256[]",
          "name": "amounts",
          "type": "uint256[]"
        },
        {
          "internalType": "bytes",
          "name": "data",
          "type": "bytes"
        }
      ],
      "name": "safeBatchTransferFrom",
      "outputs": [],
      "stateMutability": "nonpayable",
      "type": "function"
    },
    {
      "inputs": [
        {
          "internalType": "address",
          "name": "from",
          "type": "address"
        },
        {
          "internalType": "address",
          "name": "to",
          "type": "address"
        },
        {
          "internalType": "uint256",
          "name": "id",
          "type": "uint256"
        },
        {
          "internalType": "uint256",
          "name": "amount",
          "type": "uint256"
        },
        {
          "internalType": "bytes",
          "name": "data",
          "type": "bytes"
        }
      ],
      "name": "safeTransferFrom",
      "outputs": [],
      "stateMutability": "nonpayable",
      "type": "function"
    },
    {
      "inputs": [
        {
          "internalType": "address",
          "name": "operator",
          "type": "address"
        },
        {
          "internalType": "bool",
          "name": "approved",
          "type": "bool"
        }
      ],
      "name": "setApprovalForAll",
      "outputs": [],
      "stateMutability": "nonpayable",
      "type": "function"
    },
    {
      "inputs": [
        {
          "internalType": "string",
          "name": "newuri",
          "type": "string"
        }
      ],
      "name": "setURI",
      "outputs": [],
      "stateMutability": "nonpayable",
      "type": "function"
    },
    {
      "inputs": [
        {
          "internalType": "bytes4",
          "name": "interfaceId",
          "type": "bytes4"
        }
      ],
      "name": "supportsInterface",
      "outputs": [
        {
          "internalType": "bool",
          "name": "",
          "type": "bool"
        }
      ],
      "stateMutability": "view",
      "type": "function"
    },
    {
      "inputs": [
        {
          "internalType": "uint256",
          "name": "",
          "type": "uint256"
        }
      ],
      "name": "tierSupply",
      "outputs": [
        {
          "internalType": "uint256",
          "name": "",
          "type": "uint256"
        }
      ],
      "stateMutability": "view",
      "type": "function"
    },
    {
      "inputs": [
        {
          "internalType": "address",
          "name": "newOwner",
          "type": "address"
        }
      ],
      "name": "transferOwnership",
      "outputs": [],
      "stateMutability": "nonpayable",
      "type": "function"
    },
    {
      "inputs": [],
      "name": "unpause",
      "outputs": [],
      "stateMutability": "nonpayable",
      "type": "function"
    },
    {
      "inputs": [
        {
          "internalType": "uint256",
          "name": "",
          "type": "uint256"
        }
      ],
      "name": "uri",
      "outputs": [
        {
          "internalType": "string",
          "name": "",
          "type": "string"
        }
      ],
      "stateMutability": "view",
      "type": "function"
    }
  ],
  "bytecode": "0x60806040523480156200001157600080fd5b5060405162002aa538038062002aa58339810160408190526200003491620001c7565b8062000040816200006c565b506200004c336200007e565b6003805460ff60a01b191690556200006482620000d0565b50506200041a565b60026200007a82826200034e565b5050565b600380546001600160a01b038381166001600160a01b0319831681179093556040519116919082907f8be0079c531659141344cd1fd0a4f28419497f9722a3daafe3b4186f6b6457e090600090a35050565b620000da62000153565b6001600160a01b038116620001455760405162461bcd60e51b815260206004820152602660248201527f4f776e61626c653a206e6577206f776e657220697320746865207a65726f206160448201526564647265737360d01b60648201526084015b60405180910390fd5b62000150816200007e565b50565b6003546001600160a01b03163314620001af5760405162461bcd60e51b815260206004820181905260248201527f4f776e61626c653a2063616c6c6572206973206e6f7420746865206f776e657260448201526064016200013c565b565b634e487b7160e01b600052604160045260246000fd5b60008060408385031215620001db57600080fd5b82516001600160a01b0381168114620001f357600080fd5b602084810151919350906001600160401b03808211156200021357600080fd5b818601915086601f8301126200022857600080fd5b8151818111156200023d576200023d620001b1565b604051601f8201601f19908116603f01168101908382118183101715620002685762000268620001b1565b8160405282815289868487010111156200028157600080fd5b600093505b82841015620002a5578484018601518185018701529285019262000286565b60008684830101528096505050505050509250929050565b600181811c90821680620002d257607f821691505b602082108103620002f357634e487b7160e01b600052602260045260246000fd5b50919050565b601f82111562000349576000816000526020600020601f850160051c81016020861015620003245750805b601f850160051c820191505b81811015620003455782815560010162000330565b5050505b505050565b81516001600160401b038111156200036a576200036a620001b1565b62000382816200037b8454620002bd565b84620002f9565b602080601f831160018114620003ba5760008415620003a15750858301515b600019600386901b1c1916600185901b17855562000345565b600085815260208120601f198616915b82811015620003eb57888601518255948401946001909101908401620003ca565b50858210156200040a5787850151600019600388901b60f8161c191681555b5050505050600190811b01905550565b61267b806200042a6000396000f3fe608060405234801561001057600080fd5b50600436106101815760003560e01c8063715018a6116100d8578063d81d0a151161008c578063f2fde38b11610066578063f2fde38b14610358578063f5298aca1461036b578063f60f206c1461037e57600080fd5b8063d81d0a15146102f6578063e985e9c514610309578063f242432a1461034557600080fd5b80638da5cb5b116100bd5780638da5cb5b146102b5578063a22cb465146102d0578063c19d981c146102e357600080fd5b8063715018a6146102a55780638456cb59146102ad57600080fd5b8063156e29f61161013a5780634e1273f4116101145780634e1273f4146102605780635c975abb146102805780636b20c4541461029257600080fd5b8063156e29f6146102325780632eb2c2d6146102455780633f4ba83a1461025857600080fd5b806302fe53051161016b57806302fe5305146101cf578063088bcc30146101e45780630e89341c1461021257600080fd5b8062fdd58e1461018657806301ffc9a7146101ac575b600080fd5b610199610194366004611d3b565b61039e565b6040519081526020015b60405180910390f35b6101bf6101ba366004611d7b565b61044a565b60405190151581526020016101a3565b6101e26101dd366004611e40565b6104e5565b005b6101bf6101f2366004611e91565b600560209081526000928352604080842090915290825290205460ff1681565b610225610220366004611ebd565b6104f9565b6040516101a39190611f1c565b6101e2610240366004611f2f565b61058d565b6101e261025336600461201c565b6105d8565b6101e261066b565b61027361026e3660046120c6565b61067d565b6040516101a391906121cd565b600354600160a01b900460ff166101bf565b6101e26102a03660046121e0565b6107b3565b6101e2610842565b6101e2610854565b6003546040516001600160a01b0390911681526020016101a3565b6101e26102de366004612254565b610864565b6101e26102f1366004611d3b565b610873565b6101e26103043660046121e0565b610976565b6101bf610317366004612290565b6001600160a01b03918216600090815260016020908152604080832093909416825291909152205460ff1690565b6101e26103533660046122ba565b610a0d565b6101e261036636600461231f565b610a99565b6101e2610379366004611f2f565b610b26565b61019961038c366004611ebd565b60046020526000908152604090205481565b60006001600160a01b0383166104215760405162461bcd60e51b815260206004820152602a60248201527f455243313135353a2061646472657373207a65726f206973206e6f742061207660448201527f616c6964206f776e65720000000000000000000000000000000000000000000060648201526084015b60405180910390fd5b506000818152602081815260408083206001600160a01b03861684529091529020545b92915050565b60006001600160e01b031982167fd9b67a260000000000000000000000000000000000000000000000000000000014806104ad57506001600160e01b031982167f0e89341c00000000000000000000000000000000000000000000000000000000145b8061044457507f01ffc9a7000000000000000000000000000000000000000000000000000000006001600160e01b0319831614610444565b6104ed610bb0565b6104f681610c0a565b50565b6060600280546105089061233a565b80601f01602080910402602001604051908101604052809291908181526020018280546105349061233a565b80156105815780601f1061055657610100808354040283529160200191610581565b820191906000526020600020905b81548152906001019060200180831161056457829003601f168201915b50505050509050919050565b610595610bb0565b6105b083838360405180602001604052806000815250610c16565b600082815260046020526040812080548392906105ce908490612374565b9091555050505050565b6001600160a01b0385163314806105f457506105f48533610317565b6106575760405162461bcd60e51b815260206004820152602e60248201527f455243313135353a2063616c6c6572206973206e6f7420746f6b656e206f776e60448201526d195c881bdc88185c1c1c9bdd995960921b6064820152608401610418565b6106648585858585610d39565b5050505050565b610673610bb0565b61067b610f9e565b565b606081518351146106f65760405162461bcd60e51b815260206004820152602960248201527f455243313135353a206163636f756e747320616e6420696473206c656e67746860448201527f206d69736d6174636800000000000000000000000000000000000000000000006064820152608401610418565b6000835167ffffffffffffffff81111561071257610712611d9f565b60405190808252806020026020018201604052801561073b578160200160208202803683370190505b50905060005b84518110156107ab5761078685828151811061075f5761075f612395565b602002602001015185838151811061077957610779612395565b602002602001015161039e565b82828151811061079857610798612395565b6020908102919091010152600101610741565b509392505050565b6001600160a01b0383163314806107cf57506107cf8333610317565b6108325760405162461bcd60e51b815260206004820152602e60248201527f455243313135353a2063616c6c6572206973206e6f7420746f6b656e206f776e60448201526d195c881bdc88185c1c1c9bdd995960921b6064820152608401610418565b61083d838383610ff3565b505050565b61084a610bb0565b61067b600061123e565b61085c610bb0565b61067b6112a8565b61086f3383836112eb565b5050565b61087b610bb0565b6000610887838361039e565b116108d45760405162461bcd60e51b815260206004820152601f60248201527f486f6c64657220646f6573206e6f74206f776e2074686973207469636b6574006044820152606401610418565b60008181526005602090815260408083206001600160a01b038616845290915290205460ff16156109475760405162461bcd60e51b815260206004820152601960248201527f5469636b657420616c726561647920636865636b656420696e000000000000006044820152606401610418565b60009081526005602090815260408083206001600160a01b03909416835292905220805460ff19166001179055565b61097e610bb0565b610999838383604051806020016040528060008152506113df565b60005b8251811015610a07578181815181106109b7576109b7612395565b6020026020010151600460008584815181106109d5576109d5612395565b6020026020010151815260200190815260200160002060008282546109fa9190612374565b909155505060010161099c565b50505050565b6001600160a01b038516331480610a295750610a298533610317565b610a8c5760405162461bcd60e51b815260206004820152602e60248201527f455243313135353a2063616c6c6572206973206e6f7420746f6b656e206f776e60448201526d195c881bdc88185c1c1c9bdd995960921b6064820152608401610418565b61066485858585856115a9565b610aa1610bb0565b6001600160a01b038116610b1d5760405162461bcd60e51b815260206004820152602660248201527f4f776e61626c653a206e6577206f776e657220697320746865207a65726f206160448201527f64647265737300000000000000000000000000000000000000000000000000006064820152608401610418565b6104f68161123e565b6001600160a01b038316331480610b425750610b428333610317565b610ba55760405162461bcd60e51b815260206004820152602e60248201527f455243313135353a2063616c6c6572206973206e6f7420746f6b656e206f776e60448201526d195c881bdc88185c1c1c9bdd995960921b6064820152608401610418565b61083d838383611762565b6003546001600160a01b0316331461067b5760405162461bcd60e51b815260206004820181905260248201527f4f776e61626c653a2063616c6c6572206973206e6f7420746865206f776e65726044820152606401610418565b600261086f82826123f3565b6001600160a01b038416610c765760405162461bcd60e51b815260206004820152602160248201527f455243313135353a206d696e7420746f20746865207a65726f206164647265736044820152607360f81b6064820152608401610418565b336000610c82856118f2565b90506000610c8f856118f2565b9050610ca08360008985858961193d565b6000868152602081815260408083206001600160a01b038b16845290915281208054879290610cd0908490612374565b909155505060408051878152602081018790526001600160a01b03808a1692600092918716917fc3d58168c5ae7397731d063d5bbf3d657854427343f4c083240f7aacaa2d0f62910160405180910390a4610d308360008989898961194b565b50505050505050565b8151835114610d9b5760405162461bcd60e51b815260206004820152602860248201527f455243313135353a2069647320616e6420616d6f756e7473206c656e677468206044820152670dad2e6dac2e8c6d60c31b6064820152608401610418565b6001600160a01b038416610dff5760405162461bcd60e51b815260206004820152602560248201527f455243313135353a207472616e7366657220746f20746865207a65726f206164604482015264647265737360d81b6064820152608401610418565b33610e0e81878787878761193d565b60005b8451811015610f30576000858281518110610e2e57610e2e612395565b602002602001015190506000858381518110610e4c57610e4c612395565b602090810291909101810151600084815280835260408082206001600160a01b038e168352909352919091205490915081811015610edf5760405162461bcd60e51b815260206004820152602a60248201527f455243313135353a20696e73756666696369656e742062616c616e636520666f60448201526939103a3930b739b332b960b11b6064820152608401610418565b6000838152602081815260408083206001600160a01b038e8116855292528083208585039055908b16825281208054849290610f1c908490612374565b909155505060019093019250610e11915050565b50846001600160a01b0316866001600160a01b0316826001600160a01b03167f4a39dc06d4c0dbc64b70af90fd698a233a518aa5d07e595d983b8c0526c8f7fb8787604051610f809291906124b3565b60405180910390a4610f96818787878787611af0565b505050505050565b610fa6611bec565b6003805460ff60a01b191690557f5db9ee0a495bf2e6ff9c91a7834c1ba4fdd244a5e8aa4e537bd38aeae4b073aa335b6040516001600160a01b03909116815260200160405180910390a1565b6001600160a01b0383166110555760405162461bcd60e51b815260206004820152602360248201527f455243313135353a206275726e2066726f6d20746865207a65726f206164647260448201526265737360e81b6064820152608401610418565b80518251146110b75760405162461bcd60e51b815260206004820152602860248201527f455243313135353a2069647320616e6420616d6f756e7473206c656e677468206044820152670dad2e6dac2e8c6d60c31b6064820152608401610418565b60003390506110da8185600086866040518060200160405280600081525061193d565b60005b83518110156111d15760008482815181106110fa576110fa612395565b60200260200101519050600084838151811061111857611118612395565b602090810291909101810151600084815280835260408082206001600160a01b038c1683529093529190912054909150818110156111a45760405162461bcd60e51b8152602060048201526024808201527f455243313135353a206275726e20616d6f756e7420657863656564732062616c604482015263616e636560e01b6064820152608401610418565b6000928352602083815260408085206001600160a01b038b168652909152909220910390556001016110dd565b5060006001600160a01b0316846001600160a01b0316826001600160a01b03167f4a39dc06d4c0dbc64b70af90fd698a233a518aa5d07e595d983b8c0526c8f7fb86866040516112229291906124b3565b60405180910390a4604080516020810190915260009052610a07565b600380546001600160a01b038381167fffffffffffffffffffffffff0000000000000000000000000000000000000000831681179093556040519116919082907f8be0079c531659141344cd1fd0a4f28419497f9722a3daafe3b4186f6b6457e090600090a35050565b6112b0611c45565b6003805460ff60a01b1916600160a01b1790557f62e78cea01bee320cd4e420270b5ea74000d11b0c9f74754ebdbfc544b05a258610fd63390565b816001600160a01b0316836001600160a01b0316036113725760405162461bcd60e51b815260206004820152602960248201527f455243313135353a2073657474696e6720617070726f76616c2073746174757360448201527f20666f722073656c6600000000000000000000000000000000000000000000006064820152608401610418565b6001600160a01b03838116600081815260016020908152604080832094871680845294825291829020805460ff191686151590811790915591519182527f17307eab39ab6107e8899845ad3d59bd9653f200f220920489ca2b5937696c31910160405180910390a3505050565b6001600160a01b03841661143f5760405162461bcd60e51b815260206004820152602160248201527f455243313135353a206d696e7420746f20746865207a65726f206164647265736044820152607360f81b6064820152608401610418565b81518351146114a15760405162461bcd60e51b815260206004820152602860248201527f455243313135353a2069647320616e6420616d6f756e7473206c656e677468206044820152670dad2e6dac2e8c6d60c31b6064820152608401610418565b336114b18160008787878761193d565b60005b8451811015611541578381815181106114cf576114cf612395565b60200260200101516000808784815181106114ec576114ec612395565b602002602001015181526020019081526020016000206000886001600160a01b03166001600160a01b0316815260200190815260200160002060008282546115349190612374565b90915550506001016114b4565b50846001600160a01b031660006001600160a01b0316826001600160a01b03167f4a39dc06d4c0dbc64b70af90fd698a233a518aa5d07e595d983b8c0526c8f7fb87876040516115929291906124b3565b60405180910390a461066481600087878787611af0565b6001600160a01b03841661160d5760405162461bcd60e51b815260206004820152602560248201527f455243313135353a207472616e7366657220746f20746865207a65726f206164604482015264647265737360d81b6064820152608401610418565b336000611619856118f2565b90506000611626856118f2565b905061163683898985858961193d565b6000868152602081815260408083206001600160a01b038c168452909152902054858110156116ba5760405162461bcd60e51b815260206004820152602a60248201527f455243313135353a20696e73756666696369656e742062616c616e636520666f60448201526939103a3930b739b332b960b11b6064820152608401610418565b6000878152602081815260408083206001600160a01b038d8116855292528083208985039055908a168252812080548892906116f7908490612374565b909155505060408051888152602081018890526001600160a01b03808b16928c821692918816917fc3d58168c5ae7397731d063d5bbf3d657854427343f4c083240f7aacaa2d0f62910160405180910390a4611757848a8a8a8a8a61194b565b505050505050505050565b6001600160a01b0383166117c45760405162461bcd60e51b815260206004820152602360248201527f455243313135353a206275726e2066726f6d20746865207a65726f206164647260448201526265737360e81b6064820152608401610418565b3360006117d0846118f2565b905060006117dd846118f2565b90506117fd8387600085856040518060200160405280600081525061193d565b6000858152602081815260408083206001600160a01b038a1684529091529020548481101561187a5760405162461bcd60e51b8152602060048201526024808201527f455243313135353a206275726e20616d6f756e7420657863656564732062616c604482015263616e636560e01b6064820152608401610418565b6000868152602081815260408083206001600160a01b038b81168086529184528285208a8703905582518b81529384018a90529092908816917fc3d58168c5ae7397731d063d5bbf3d657854427343f4c083240f7aacaa2d0f62910160405180910390a4604080516020810190915260009052610d30565b6040805160018082528183019092526060916000919060208083019080368337019050509050828160008151811061192c5761192c612395565b602090810291909101015292915050565b610f96868686868686611c9f565b6001600160a01b0384163b15610f965760405163f23a6e6160e01b81526001600160a01b0385169063f23a6e619061198f90899089908890889088906004016124e1565b6020604051808303816000875af19250505080156119ca575060408051601f3d908101601f191682019092526119c791810190612524565b60015b611a7f576119d6612541565b806308c379a003611a0f57506119ea61255d565b806119f55750611a11565b8060405162461bcd60e51b81526004016104189190611f1c565b505b60405162461bcd60e51b815260206004820152603460248201527f455243313135353a207472616e7366657220746f206e6f6e2d4552433131353560448201527f526563656976657220696d706c656d656e7465720000000000000000000000006064820152608401610418565b6001600160e01b0319811663f23a6e6160e01b14610d305760405162461bcd60e51b815260206004820152602860248201527f455243313135353a204552433131353552656365697665722072656a656374656044820152676420746f6b656e7360c01b6064820152608401610418565b6001600160a01b0384163b15610f965760405163bc197c8160e01b81526001600160a01b0385169063bc197c8190611b3490899089908890889088906004016125e7565b6020604051808303816000875af1925050508015611b6f575060408051601f3d908101601f19168201909252611b6c91810190612524565b60015b611b7b576119d6612541565b6001600160e01b0319811663bc197c8160e01b14610d305760405162461bcd60e51b815260206004820152602860248201527f455243313135353a204552433131353552656365697665722072656a656374656044820152676420746f6b656e7360c01b6064820152608401610418565b600354600160a01b900460ff1661067b5760405162461bcd60e51b815260206004820152601460248201527f5061757361626c653a206e6f74207061757365640000000000000000000000006044820152606401610418565b600354600160a01b900460ff161561067b5760405162461bcd60e51b815260206004820152601060248201527f5061757361626c653a20706175736564000000000000000000000000000000006044820152606401610418565b600354600160a01b900460ff1615610f965760405162461bcd60e51b815260206004820152602c60248201527f455243313135355061757361626c653a20746f6b656e207472616e736665722060448201527f7768696c652070617573656400000000000000000000000000000000000000006064820152608401610418565b80356001600160a01b0381168114611d3657600080fd5b919050565b60008060408385031215611d4e57600080fd5b611d5783611d1f565b946020939093013593505050565b6001600160e01b0319811681146104f657600080fd5b600060208284031215611d8d57600080fd5b8135611d9881611d65565b9392505050565b634e487b7160e01b600052604160045260246000fd5b601f8201601f1916810167ffffffffffffffff81118282101715611ddb57611ddb611d9f565b6040525050565b600067ffffffffffffffff831115611dfc57611dfc611d9f565b604051611e13601f8501601f191660200182611db5565b809150838152848484011115611e2857600080fd5b83836020830137600060208583010152509392505050565b600060208284031215611e5257600080fd5b813567ffffffffffffffff811115611e6957600080fd5b8201601f81018413611e7a57600080fd5b611e8984823560208401611de2565b949350505050565b60008060408385031215611ea457600080fd5b82359150611eb460208401611d1f565b90509250929050565b600060208284031215611ecf57600080fd5b5035919050565b6000815180845260005b81811015611efc57602081850181015186830182015201611ee0565b506000602082860101526020601f19601f83011685010191505092915050565b602081526000611d986020830184611ed6565b600080600060608486031215611f4457600080fd5b611f4d84611d1f565b95602085013595506040909401359392505050565b600067ffffffffffffffff821115611f7c57611f7c611d9f565b5060051b60200190565b600082601f830112611f9757600080fd5b81356020611fa482611f62565b604051611fb18282611db5565b80915083815260208101915060208460051b870101935086841115611fd557600080fd5b602086015b84811015611ff15780358352918301918301611fda565b509695505050505050565b600082601f83011261200d57600080fd5b611d9883833560208501611de2565b600080600080600060a0868803121561203457600080fd5b61203d86611d1f565b945061204b60208701611d1f565b9350604086013567ffffffffffffffff8082111561206857600080fd5b61207489838a01611f86565b9450606088013591508082111561208a57600080fd5b61209689838a01611f86565b935060808801359150808211156120ac57600080fd5b506120b988828901611ffc565b9150509295509295909350565b600080604083850312156120d957600080fd5b823567ffffffffffffffff808211156120f157600080fd5b818501915085601f83011261210557600080fd5b8135602061211282611f62565b60405161211f8282611db5565b83815260059390931b850182019282810191508984111561213f57600080fd5b948201945b838610156121645761215586611d1f565b82529482019490820190612144565b9650508601359250508082111561217a57600080fd5b5061218785828601611f86565b9150509250929050565b60008151808452602080850194506020840160005b838110156121c2578151875295820195908201906001016121a6565b509495945050505050565b602081526000611d986020830184612191565b6000806000606084860312156121f557600080fd5b6121fe84611d1f565b9250602084013567ffffffffffffffff8082111561221b57600080fd5b61222787838801611f86565b9350604086013591508082111561223d57600080fd5b5061224a86828701611f86565b9150509250925092565b6000806040838503121561226757600080fd5b61227083611d1f565b91506020830135801515811461228557600080fd5b809150509250929050565b600080604083850312156122a357600080fd5b6122ac83611d1f565b9150611eb460208401611d1f565b600080600080600060a086880312156122d257600080fd5b6122db86611d1f565b94506122e960208701611d1f565b93506040860135925060608601359150608086013567ffffffffffffffff81111561231357600080fd5b6120b988828901611ffc565b60006020828403121561233157600080fd5b611d9882611d1f565b600181811c9082168061234e57607f821691505b60208210810361236e57634e487b7160e01b600052602260045260246000fd5b50919050565b8082018082111561044457634e487b7160e01b600052601160045260246000fd5b634e487b7160e01b600052603260045260246000fd5b601f82111561083d576000816000526020600020601f850160051c810160208610156123d45750805b601f850160051c820191505b81811015610f96578281556001016123e0565b815167ffffffffffffffff81111561240d5761240d611d9f565b6124218161241b845461233a565b846123ab565b602080601f831160018114612456576000841561243e5750858301515b600019600386901b1c1916600185901b178555610f96565b600085815260208120601f198616915b8281101561248557888601518255948401946001909101908401612466565b50858210156124a35787850151600019600388901b60f8161c191681555b5050505050600190811b01905550565b6040815260006124c66040830185612191565b82810360208401526124d88185612191565b95945050505050565b60006001600160a01b03808816835280871660208401525084604083015283606083015260a0608083015261251960a0830184611ed6565b979650505050505050565b60006020828403121561253657600080fd5b8151611d9881611d65565b600060033d111561255a5760046000803e5060005160e01c5b90565b600060443d101561256b5790565b6040516003193d81016004833e81513d67ffffffffffffffff816024840111818411171561259b57505050505090565b82850191508151818111156125b35750505050505090565b843d87010160208285010111156125cd5750505050505090565b6125dc60208286010187611db5565b509095945050505050565b60006001600160a01b03808816835280871660208401525060a0604083015261261360a0830186612191565b82810360608401526126258186612191565b905082810360808401526126398185611ed6565b9897505050505050505056fea2646970667358221220e54c4a24490fe31783ae1af9807c8f542ba853ec566d47505c00f297b9c2236764736f6c63430008180033",
  "linkReferences": {},
  "deployedLinkReferences": {}
}