{
  "_format": "hh-sol-artifact-1",
  "contractName": "Fractionalizer",
  "sourceName": "contracts/Fractionalizer.sol",
  "abi": [
    {
      "inputs": [
        {
          "internalType": "address",
          "name": "initialOwner",
          "type": "address"
        },
        {
          "internalType": "string",
          "name": "name",
          "type": "string"
        },
        {
          "internalType": "string",
          "name": "symbol",
          "type": "string"
        },
        {
          "internalType": "address",
          "name": "_nftAddress",
          "type": "address"
        },
        {
          "internalType": "uint256",
          "name": "_tokenId",
          "type": "uint256"
        },
        {
          "internalType": "uint256",
          "name": "_fractions",
          "type": "uint256"
        }
      ],
      "stateMutability": "nonpayable",
      "type": "constructor"
    },
    {
      "anonymous": false,
      "inputs": [
        {
          "indexed": true,
          "internalType": "address",
          "name": "owner",
          "type": "address"
        },
        {
          "indexed": true,
          "internalType": "address",
          "name": "spender",
          "type": "address"
        },
        {
          "indexed": false,
          "internalType": "uint256",
          "name": "value",
          "type": "uint256"
        }
      ],
      "name": "Approval",
      "type": "event"
    },
    {
      "anonymous": false,
      "inputs": [
        {
          "indexed": true,
          "internalType": "address",
          "name": "previousOwner",
          "type": "address"
        },
        {
          "indexed": true,
          "internalType": "address",
          "name": "newOwner",
          "type": "address"
        }
      ],
      "name": "OwnershipTransferred",
      "type": "event"
    },
    {
      "anonymous": false,
      "inputs": [
        {
          "indexed": true,
          "internalType": "address",
          "name": "from",
          "type": "address"
        },
        {
          "indexed": true,
          "internalType": "address",
          "name": "to",
          "type": "address"
        },
        {
          "indexed": false,
          "internalType": "uint256",
          "name": "value",
          "type": "uint256"
        }
      ],
      "name": "Transfer",
      "type": "event"
    },
    {
      "inputs": [
        {
          "internalType": "address",
          "name": "owner",
          "type": "address"
        },
        {
          "internalType": "address",
          "name": "spender",
          "type": "address"
        }
      ],
      "name": "allowance",
      "outputs": [
        {
          "internalType": "uint256",
          "name": "",
          "type": "uint256"
        }
      ],
      "stateMutability": "view",
      "type": "function"
    },
    {
      "inputs": [
        {
          "internalType": "address",
          "name": "spender",
          "type": "address"
        },
        {
          "internalType": "uint256",
          "name": "amount",
          "type": "uint256"
        }
      ],
      "name": "approve",
      "outputs": [
        {
          "internalType": "bool",
          "name": "",
          "type": "bool"
        }
      ],
      "stateMutability": "nonpayable",
      "type": "function"
    },
    {
      "inputs": [
        {
          "internalType": "address",
          "name": "account",
          "type": "address"
        }
      ],
      "name": "balanceOf",
      "outputs": [
        {
          "internalType": "uint256",
          "name": "",
          "type": "uint256"
        }
      ],
      "stateMutability": "view",
      "type": "function"
    },
    {
      "inputs": [],
      "name": "decimals",
      "outputs": [
        {
          "internalType": "uint8",
          "name": "",
          "type": "uint8"
        }
      ],
      "stateMutability": "view",
      "type": "function"
    },
    {
      "inputs": [
        {
          "internalType": "address",
          "name": "spender",
          "type": "address"
        },
        {
          "internalType": "uint256",
          "name": "subtractedValue",
          "type": "uint256"
        }
      ],
      "name": "decreaseAllowance",
      "outputs": [
        {
          "internalType": "bool",
          "name": "",
          "type": "bool"
        }
      ],
      "stateMutability": "nonpayable",
      "type": "function"
    },
    {
      "inputs": [],
      "name": "depositNFT",
      "outputs": [],
      "stateMutability": "nonpayable",
      "type": "function"
    },
    {
      "inputs": [
        {
          "internalType": "address",
          "name": "spender",
          "type": "address"
        },
        {
          "internalType": "uint256",
          "name": "addedValue",
          "type": "uint256"
        }
      ],
      "name": "increaseAllowance",
      "outputs": [
        {
          "internalType": "bool",
          "name": "",
          "type": "bool"
        }
      ],
      "stateMutability": "nonpayable",
      "type": "function"
    },
    {
      "inputs": [],
      "name": "isDeposited",
      "outputs": [
        {
          "internalType": "bool",
          "name": "",
          "type": "bool"
        }
      ],
      "stateMutability": "view",
      "type": "function"
    },
    {
      "inputs": [],
      "name": "name",
      "outputs": [
        {
          "internalType": "string",
          "name": "",
          "type": "string"
        }
      ],
      "stateMutability": "view",
      "type": "function"
    },
    {
      "inputs": [],
      "name": "nft",
      "outputs": [
        {
          "internalType": "contract IERC721",
          "name": "",
          "type": "address"
        }
      ],
      "stateMutability": "view",
      "type": "function"
    },
    {
      "inputs": [],
      "name": "owner",
      "outputs": [
        {
          "internalType": "address",
          "name": "",
          "type": "address"
        }
      ],
      "stateMutability": "view",
      "type": "function"
    },
    {
      "inputs": [],
      "name": "renounceOwnership",
      "outputs": [],
      "stateMutability": "nonpayable",
      "type": "function"
    },
    {
      "inputs": [],
      "name": "symbol",
      "outputs": [
        {
          "internalType": "string",
          "name": "",
          "type": "string"
        }
      ],
      "stateMutability": "view",
      "type": "function"
    },
    {
      "inputs": [],
      "name": "tokenId",
      "outputs": [
        {
          "internalType": "uint256",
          "name": "",
          "type": "uint256"
        }
      ],
      "stateMutability": "view",
      "type": "function"
    },
    {
      "inputs": [],
      "name": "totalSupply",
      "outputs": [
        {
          "internalType": "uint256",
          "name": "",
          "type": "uint256"
        }
      ],
      "stateMutability": "view",
      "type": "function"
    },
    {
      "inputs": [
        {
          "internalType": "address",
          "name": "to",
          "type": "address"
        },
        {
          "internalType": "uint256",
          "name": "amount",
          "type": "uint256"
        }
      ],
      "name": "transfer",
      "outputs": [
        {
          "internalType": "bool",
          "name": "",
          "type": "bool"
        }
      ],
      "stateMutability": "nonpayable",
      "type": "function"
    },
    {
      "inputs": [
        {
          "internalType": "address",
          "name": "from",
          "type": "address"
        },
        {
          "internalType": "address",
          "name": "to",
          "type": "address"
        },
        {
          "internalType": "uint256",
          "name": "amount",
          "type": "uint256"
        }
      ],
      "name": "transferFrom",
      "outputs": [
        {
          "internalType": "bool",
          "name": "",
          "type": "bool"
        }
      ],
      "stateMutability": "nonpayable",
      "type": "function"
    },
    {
      "inputs": [
        {
          "internalType": "address",
          "name": "newOwner",
          "type": "address"
        }
      ],
      "name": "transferOwnership",
      "outputs": [],
      "stateMutability": "nonpayable",
      "type": "function"
    },
    {
      "inputs": [],
      "name": "withdrawNFT",
      "outputs": [],
      "stateMutability": "nonpayable",
      "type": "function"
    }
  ],
  "bytecode": "0x60c06040523480156200001157600080fd5b506040516200173a3803806200173a833981016040819052620000349162000389565b84846003620000448382620004bb565b506004620000538282620004bb565b505050620000706200006a620000a560201b60201c565b620000a9565b6200007b86620000fb565b6001600160a01b03831660805260a08290526200009986826200017e565b505050505050620005af565b3390565b600580546001600160a01b038381166001600160a01b0319831681179093556040519116919082907f8be0079c531659141344cd1fd0a4f28419497f9722a3daafe3b4186f6b6457e090600090a35050565b6200010562000241565b6001600160a01b038116620001705760405162461bcd60e51b815260206004820152602660248201527f4f776e61626c653a206e6577206f776e657220697320746865207a65726f206160448201526564647265737360d01b60648201526084015b60405180910390fd5b6200017b81620000a9565b50565b6001600160a01b038216620001d65760405162461bcd60e51b815260206004820152601f60248201527f45524332303a206d696e7420746f20746865207a65726f206164647265737300604482015260640162000167565b8060026000828254620001ea919062000587565b90915550506001600160a01b038216600081815260208181526040808320805486019055518481527fddf252ad1be2c89b69c2b068fc378daa952ba7f163c4a11628f55a4df523b3ef910160405180910390a35050565b6005546001600160a01b031633146200029d5760405162461bcd60e51b815260206004820181905260248201527f4f776e61626c653a2063616c6c6572206973206e6f7420746865206f776e6572604482015260640162000167565b565b505050565b80516001600160a01b0381168114620002bc57600080fd5b919050565b634e487b7160e01b600052604160045260246000fd5b600082601f830112620002e957600080fd5b81516001600160401b0380821115620003065762000306620002c1565b604051601f8301601f19908116603f01168101908282118183101715620003315762000331620002c1565b81604052838152602092508660208588010111156200034f57600080fd5b600091505b8382101562000373578582018301518183018401529082019062000354565b6000602085830101528094505050505092915050565b60008060008060008060c08789031215620003a357600080fd5b620003ae87620002a4565b60208801519096506001600160401b0380821115620003cc57600080fd5b620003da8a838b01620002d7565b96506040890151915080821115620003f157600080fd5b506200040089828a01620002d7565b9450506200041160608801620002a4565b92506080870151915060a087015190509295509295509295565b600181811c908216806200044057607f821691505b6020821081036200046157634e487b7160e01b600052602260045260246000fd5b50919050565b601f8211156200029f576000816000526020600020601f850160051c81016020861015620004925750805b601f850160051c820191505b81811015620004b3578281556001016200049e565b505050505050565b81516001600160401b03811115620004d757620004d7620002c1565b620004ef81620004e884546200042b565b8462000467565b602080601f8311600181146200052757600084156200050e5750858301515b600019600386901b1c1916600185901b178555620004b3565b600085815260208120601f198616915b82811015620005585788860151825594840194600190910190840162000537565b5085821015620005775787850151600019600388901b60f8161c191681555b5050505050600190811b01905550565b80820180821115620005a957634e487b7160e01b600052601160045260246000fd5b92915050565b60805160a05161113b620005ff6000396000818161019c015281816105300152818161064c015261075801526000818161020e015281816105560152818161067c015261077e015261113b6000f3fe608060405234801561001057600080fd5b50600436106101515760003560e01c806367e3c4d4116100cd578063a457c2d711610081578063c52f2e0811610066578063c52f2e08146102ca578063dd62ed3e146102de578063f2fde38b1461031757600080fd5b8063a457c2d7146102a4578063a9059cbb146102b757600080fd5b8063715018a6116100b2578063715018a6146102835780638da5cb5b1461028b57806395d89b411461029c57600080fd5b806367e3c4d41461025257806370a082311461025a57600080fd5b806323b872dd11610124578063395093511161010957806339509351146101f657806347ccca02146102095780635e38c9541461024857600080fd5b806323b872dd146101d4578063313ce567146101e757600080fd5b806306fdde0314610156578063095ea7b31461017457806317d70f7c1461019757806318160ddd146101cc575b600080fd5b61015e61032a565b60405161016b9190610f5f565b60405180910390f35b610187610182366004610fc3565b6103bc565b604051901515815260200161016b565b6101be7f000000000000000000000000000000000000000000000000000000000000000081565b60405190815260200161016b565b6002546101be565b6101876101e2366004610fef565b6103d6565b6040516012815260200161016b565b610187610204366004610fc3565b6103fa565b6102307f000000000000000000000000000000000000000000000000000000000000000081565b6040516001600160a01b03909116815260200161016b565b610250610439565b005b6102506105ca565b6101be610268366004611030565b6001600160a01b031660009081526020819052604090205490565b6102506107f7565b6005546001600160a01b0316610230565b61015e61080b565b6101876102b2366004610fc3565b61081a565b6101876102c5366004610fc3565b6108c4565b60055461018790600160a01b900460ff1681565b6101be6102ec366004611054565b6001600160a01b03918216600090815260016020908152604080832093909416825291909152205490565b610250610325366004611030565b6108d2565b6060600380546103399061108d565b80601f01602080910402602001604051908101604052809291908181526020018280546103659061108d565b80156103b25780601f10610387576101008083540402835291602001916103b2565b820191906000526020600020905b81548152906001019060200180831161039557829003601f168201915b5050505050905090565b6000336103ca818585610962565b60019150505b92915050565b6000336103e4858285610abb565b6103ef858585610b4d565b506001949350505050565b3360008181526001602090815260408083206001600160a01b03871684529091528120549091906103ca90829086906104349087906110c7565b610962565b610441610d3a565b600554600160a01b900460ff1661049f5760405162461bcd60e51b815260206004820152601160248201527f4e4654206e6f74206465706f736974656400000000000000000000000000000060448201526064015b60405180910390fd5b60006104aa60025490565b33600090815260208190526040902054909150811461050b5760405162461bcd60e51b815260206004820152601b60248201527f596f7520646f6e2774206f776e20616c6c206672616374696f6e7300000000006044820152606401610496565b6105153382610d94565b6040516323b872dd60e01b81523060048201523360248201527f000000000000000000000000000000000000000000000000000000000000000060448201527f00000000000000000000000000000000000000000000000000000000000000006001600160a01b0316906323b872dd90606401600060405180830381600087803b1580156105a257600080fd5b505af11580156105b6573d6000803e3d6000fd5b50506005805460ff60a01b19169055505050565b600554600160a01b900460ff16156106245760405162461bcd60e51b815260206004820152601560248201527f4e465420616c7265616479206465706f736974656400000000000000000000006044820152606401610496565b6040517f6352211e0000000000000000000000000000000000000000000000000000000081527f0000000000000000000000000000000000000000000000000000000000000000600482015233906001600160a01b037f00000000000000000000000000000000000000000000000000000000000000001690636352211e90602401602060405180830381865afa1580156106c3573d6000803e3d6000fd5b505050506040513d601f19601f820116820180604052508101906106e791906110e8565b6001600160a01b03161461073d5760405162461bcd60e51b815260206004820152601a60248201527f4f6e6c79204e4654206f776e65722063616e206465706f7369740000000000006044820152606401610496565b6040516323b872dd60e01b81523360048201523060248201527f000000000000000000000000000000000000000000000000000000000000000060448201527f00000000000000000000000000000000000000000000000000000000000000006001600160a01b0316906323b872dd90606401600060405180830381600087803b1580156107ca57600080fd5b505af11580156107de573d6000803e3d6000fd5b50506005805460ff60a01b1916600160a01b1790555050565b6107ff610d3a565b6108096000610ef5565b565b6060600480546103399061108d565b3360008181526001602090815260408083206001600160a01b0387168452909152812054909190838110156108b75760405162461bcd60e51b815260206004820152602560248201527f45524332303a2064656372656173656420616c6c6f77616e63652062656c6f7760448201527f207a65726f0000000000000000000000000000000000000000000000000000006064820152608401610496565b6103ef8286868403610962565b6000336103ca818585610b4d565b6108da610d3a565b6001600160a01b0381166109565760405162461bcd60e51b815260206004820152602660248201527f4f776e61626c653a206e6577206f776e657220697320746865207a65726f206160448201527f64647265737300000000000000000000000000000000000000000000000000006064820152608401610496565b61095f81610ef5565b50565b6001600160a01b0383166109dd5760405162461bcd60e51b8152602060048201526024808201527f45524332303a20617070726f76652066726f6d20746865207a65726f2061646460448201527f72657373000000000000000000000000000000000000000000000000000000006064820152608401610496565b6001600160a01b038216610a595760405162461bcd60e51b815260206004820152602260248201527f45524332303a20617070726f766520746f20746865207a65726f20616464726560448201527f73730000000000000000000000000000000000000000000000000000000000006064820152608401610496565b6001600160a01b0383811660008181526001602090815260408083209487168084529482529182902085905590518481527f8c5be1e5ebec7d5bd14f71427d1e84f3dd0314c0f7b2291e5b200ac8c7c3b92591015b60405180910390a3505050565b6001600160a01b038381166000908152600160209081526040808320938616835292905220546000198114610b475781811015610b3a5760405162461bcd60e51b815260206004820152601d60248201527f45524332303a20696e73756666696369656e7420616c6c6f77616e63650000006044820152606401610496565b610b478484848403610962565b50505050565b6001600160a01b038316610bc95760405162461bcd60e51b815260206004820152602560248201527f45524332303a207472616e736665722066726f6d20746865207a65726f20616460448201527f64726573730000000000000000000000000000000000000000000000000000006064820152608401610496565b6001600160a01b038216610c455760405162461bcd60e51b815260206004820152602360248201527f45524332303a207472616e7366657220746f20746865207a65726f206164647260448201527f65737300000000000000000000000000000000000000000000000000000000006064820152608401610496565b6001600160a01b03831660009081526020819052604090205481811015610cd45760405162461bcd60e51b815260206004820152602660248201527f45524332303a207472616e7366657220616d6f756e742065786365656473206260448201527f616c616e636500000000000000000000000000000000000000000000000000006064820152608401610496565b6001600160a01b03848116600081815260208181526040808320878703905593871680835291849020805487019055925185815290927fddf252ad1be2c89b69c2b068fc378daa952ba7f163c4a11628f55a4df523b3ef910160405180910390a3610b47565b6005546001600160a01b031633146108095760405162461bcd60e51b815260206004820181905260248201527f4f776e61626c653a2063616c6c6572206973206e6f7420746865206f776e65726044820152606401610496565b6001600160a01b038216610e105760405162461bcd60e51b815260206004820152602160248201527f45524332303a206275726e2066726f6d20746865207a65726f2061646472657360448201527f73000000000000000000000000000000000000000000000000000000000000006064820152608401610496565b6001600160a01b03821660009081526020819052604090205481811015610e9f5760405162461bcd60e51b815260206004820152602260248201527f45524332303a206275726e20616d6f756e7420657863656564732062616c616e60448201527f63650000000000000000000000000000000000000000000000000000000000006064820152608401610496565b6001600160a01b0383166000818152602081815260408083208686039055600280548790039055518581529192917fddf252ad1be2c89b69c2b068fc378daa952ba7f163c4a11628f55a4df523b3ef9101610aae565b600580546001600160a01b038381167fffffffffffffffffffffffff0000000000000000000000000000000000000000831681179093556040519116919082907f8be0079c531659141344cd1fd0a4f28419497f9722a3daafe3b4186f6b6457e090600090a35050565b60006020808352835180602085015260005b81811015610f8d57858101830151858201604001528201610f71565b506000604082860101526040601f19601f8301168501019250505092915050565b6001600160a01b038116811461095f57600080fd5b60008060408385031215610fd657600080fd5b8235610fe181610fae565b946020939093013593505050565b60008060006060848603121561100457600080fd5b833561100f81610fae565b9250602084013561101f81610fae565b929592945050506040919091013590565b60006020828403121561104257600080fd5b813561104d81610fae565b9392505050565b6000806040838503121561106757600080fd5b823561107281610fae565b9150602083013561108281610fae565b809150509250929050565b600181811c908216806110a157607f821691505b6020821081036110c157634e487b7160e01b600052602260045260246000fd5b50919050565b808201808211156103d057634e487b7160e01b600052601160045260246000fd5b6000602082840312156110fa57600080fd5b815161104d81610fae56fea26469706673582212207ad7407b4d4c19e164b33c16040fb638073d75df675e20330f349a732d6efeee64736f6c63430008180033",
  "linkReferences": {},
  "deployedLinkReferences": {}
}