{
  "_format": "hh-sol-artifact-1",
  "contractName": "KalaKrutToken",
  "sourceName": "contracts/KalaKrutToken.sol",
  "abi": [
    {
      "inputs": [
        {
          "internalType": "address",
          "name": "initialOwner",
          "type": "address"
        }
      ],
      "stateMutability": "nonpayable",
      "type": "constructor"
    },
    {
      "inputs": [],
      "name": "InvalidShortString",
      "type": "error"
    },
    {
      "inputs": [
        {
          "internalType": "string",
          "name": "str",
          "type": "string"
        }
      ],
      "name": "StringTooLong",
      "type": "error"
    },
    {
      "anonymous": false,
      "inputs": [
        {
          "indexed": true,
          "internalType": "address",
          "name": "owner",
          "type": "address"
        },
        {
          "indexed": true,
          "internalType": "address",
          "name": "spender",
          "type": "address"
        },
        {
          "indexed": false,
          "internalType": "uint256",
          "name": "value",
          "type": "uint256"
        }
      ],
      "name": "Approval",
      "type": "event"
    },
    {
      "anonymous": false,
      "inputs": [
        {
          "indexed": true,
          "internalType": "address",
          "name": "delegator",
          "type": "address"
        },
        {
          "indexed": true,
          "internalType": "address",
          "name": "fromDelegate",
          "type": "address"
        },
        {
          "indexed": true,
          "internalType": "address",
          "name": "toDelegate",
          "type": "address"
        }
      ],
      "name": "DelegateChanged",
      "type": "event"
    },
    {
      "anonymous": false,
      "inputs": [
        {
          "indexed": true,
          "internalType": "address",
          "name": "delegate",
          "type": "address"
        },
        {
          "indexed": false,
          "internalType": "uint256",
          "name": "previousBalance",
          "type": "uint256"
        },
        {
          "indexed": false,
          "internalType": "uint256",
          "name": "newBalance",
          "type": "uint256"
        }
      ],
      "name": "DelegateVotesChanged",
      "type": "event"
    },
    {
      "anonymous": false,
      "inputs": [],
      "name": "EIP712DomainChanged",
      "type": "event"
    },
    {
      "anonymous": false,
      "inputs": [
        {
          "indexed": true,
          "internalType": "address",
          "name": "previousOwner",
          "type": "address"
        },
        {
          "indexed": true,
          "internalType": "address",
          "name": "newOwner",
          "type": "address"
        }
      ],
      "name": "OwnershipTransferred",
      "type": "event"
    },
    {
      "anonymous": false,
      "inputs": [
        {
          "indexed": true,
          "internalType": "address",
          "name": "from",
          "type": "address"
        },
        {
          "indexed": true,
          "internalType": "address",
          "name": "to",
          "type": "address"
        },
        {
          "indexed": false,
          "internalType": "uint256",
          "name": "value",
          "type": "uint256"
        }
      ],
      "name": "Transfer",
      "type": "event"
    },
    {
      "inputs": [],
      "name": "CLOCK_MODE",
      "outputs": [
        {
          "internalType": "string",
          "name": "",
          "type": "string"
        }
      ],
      "stateMutability": "view",
      "type": "function"
    },
    {
      "inputs": [],
      "name": "DOMAIN_SEPARATOR",
      "outputs": [
        {
          "internalType": "bytes32",
          "name": "",
          "type": "bytes32"
        }
      ],
      "stateMutability": "view",
      "type": "function"
    },
    {
      "inputs": [
        {
          "internalType": "address",
          "name": "owner",
          "type": "address"
        },
        {
          "internalType": "address",
          "name": "spender",
          "type": "address"
        }
      ],
      "name": "allowance",
      "outputs": [
        {
          "internalType": "uint256",
          "name": "",
          "type": "uint256"
        }
      ],
      "stateMutability": "view",
      "type": "function"
    },
    {
      "inputs": [
        {
          "internalType": "address",
          "name": "spender",
          "type": "address"
        },
        {
          "internalType": "uint256",
          "name": "amount",
          "type": "uint256"
        }
      ],
      "name": "approve",
      "outputs": [
        {
          "internalType": "bool",
          "name": "",
          "type": "bool"
        }
      ],
      "stateMutability": "nonpayable",
      "type": "function"
    },
    {
      "inputs": [
        {
          "internalType": "address",
          "name": "account",
          "type": "address"
        }
      ],
      "name": "balanceOf",
      "outputs": [
        {
          "internalType": "uint256",
          "name": "",
          "type": "uint256"
        }
      ],
      "stateMutability": "view",
      "type": "function"
    },
    {
      "inputs": [
        {
          "internalType": "address",
          "name": "account",
          "type": "address"
        },
        {
          "internalType": "uint32",
          "name": "pos",
          "type": "uint32"
        }
      ],
      "name": "checkpoints",
      "outputs": [
        {
          "components": [
            {
              "internalType": "uint32",
              "name": "fromBlock",
              "type": "uint32"
            },
            {
              "internalType": "uint224",
              "name": "votes",
              "type": "uint224"
            }
          ],
          "internalType": "struct ERC20Votes.Checkpoint",
          "name": "",
          "type": "tuple"
        }
      ],
      "stateMutability": "view",
      "type": "function"
    },
    {
      "inputs": [],
      "name": "clock",
      "outputs": [
        {
          "internalType": "uint48",
          "name": "",
          "type": "uint48"
        }
      ],
      "stateMutability": "view",
      "type": "function"
    },
    {
      "inputs": [],
      "name": "decimals",
      "outputs": [
        {
          "internalType": "uint8",
          "name": "",
          "type": "uint8"
        }
      ],
      "stateMutability": "view",
      "type": "function"
    },
    {
      "inputs": [
        {
          "internalType": "address",
          "name": "spender",
          "type": "address"
        },
        {
          "internalType": "uint256",
          "name": "subtractedValue",
          "type": "uint256"
        }
      ],
      "name": "decreaseAllowance",
      "outputs": [
        {
          "internalType": "bool",
          "name": "",
          "type": "bool"
        }
      ],
      "stateMutability": "nonpayable",
      "type": "function"
    },
    {
      "inputs": [
        {
          "internalType": "address",
          "name": "delegatee",
          "type": "address"
        }
      ],
      "name": "delegate",
      "outputs": [],
      "stateMutability": "nonpayable",
      "type": "function"
    },
    {
      "inputs": [
        {
          "internalType": "address",
          "name": "delegatee",
          "type": "address"
        },
        {
          "internalType": "uint256",
          "name": "nonce",
          "type": "uint256"
        },
        {
          "internalType": "uint256",
          "name": "expiry",
          "type": "uint256"
        },
        {
          "internalType": "uint8",
          "name": "v",
          "type": "uint8"
        },
        {
          "internalType": "bytes32",
          "name": "r",
          "type": "bytes32"
        },
        {
          "internalType": "bytes32",
          "name": "s",
          "type": "bytes32"
        }
      ],
      "name": "delegateBySig",
      "outputs": [],
      "stateMutability": "nonpayable",
      "type": "function"
    },
    {
      "inputs": [
        {
          "internalType": "address",
          "name": "account",
          "type": "address"
        }
      ],
      "name": "delegates",
      "outputs": [
        {
          "internalType": "address",
          "name": "",
          "type": "address"
        }
      ],
      "stateMutability": "view",
      "type": "function"
    },
    {
      "inputs": [],
      "name": "eip712Domain",
      "outputs": [
        {
          "internalType": "bytes1",
          "name": "fields",
          "type": "bytes1"
        },
        {
          "internalType": "string",
          "name": "name",
          "type": "string"
        },
        {
          "internalType": "string",
          "name": "version",
          "type": "string"
        },
        {
          "internalType": "uint256",
          "name": "chainId",
          "type": "uint256"
        },
        {
          "internalType": "address",
          "name": "verifyingContract",
          "type": "address"
        },
        {
          "internalType": "bytes32",
          "name": "salt",
          "type": "bytes32"
        },
        {
          "internalType": "uint256[]",
          "name": "extensions",
          "type": "uint256[]"
        }
      ],
      "stateMutability": "view",
      "type": "function"
    },
    {
      "inputs": [
        {
          "internalType": "uint256",
          "name": "timepoint",
          "type": "uint256"
        }
      ],
      "name": "getPastTotalSupply",
      "outputs": [
        {
          "internalType": "uint256",
          "name": "",
          "type": "uint256"
        }
      ],
      "stateMutability": "view",
      "type": "function"
    },
    {
      "inputs": [
        {
          "internalType": "address",
          "name": "account",
          "type": "address"
        },
        {
          "internalType": "uint256",
          "name": "timepoint",
          "type": "uint256"
        }
      ],
      "name": "getPastVotes",
      "outputs": [
        {
          "internalType": "uint256",
          "name": "",
          "type": "uint256"
        }
      ],
      "stateMutability": "view",
      "type": "function"
    },
    {
      "inputs": [
        {
          "internalType": "address",
          "name": "account",
          "type": "address"
        }
      ],
      "name": "getVotes",
      "outputs": [
        {
          "internalType": "uint256",
          "name": "",
          "type": "uint256"
        }
      ],
      "stateMutability": "view",
      "type": "function"
    },
    {
      "inputs": [
        {
          "internalType": "address",
          "name": "spender",
          "type": "address"
        },
        {
          "internalType": "uint256",
          "name": "addedValue",
          "type": "uint256"
        }
      ],
      "name": "increaseAllowance",
      "outputs": [
        {
          "internalType": "bool",
          "name": "",
          "type": "bool"
        }
      ],
      "stateMutability": "nonpayable",
      "type": "function"
    },
    {
      "inputs": [
        {
          "internalType": "address",
          "name": "to",
          "type": "address"
        },
        {
          "internalType": "uint256",
          "name": "amount",
          "type": "uint256"
        }
      ],
      "name": "mint",
      "outputs": [],
      "stateMutability": "nonpayable",
      "type": "function"
    },
    {
      "inputs": [],
      "name": "name",
      "outputs": [
        {
          "internalType": "string",
          "name": "",
          "type": "string"
        }
      ],
      "stateMutability": "view",
      "type": "function"
    },
    {
      "inputs": [
        {
          "internalType": "address",
          "name": "owner",
          "type": "address"
        }
      ],
      "name": "nonces",
      "outputs": [
        {
          "internalType": "uint256",
          "name": "",
          "type": "uint256"
        }
      ],
      "stateMutability": "view",
      "type": "function"
    },
    {
      "inputs": [
        {
          "internalType": "address",
          "name": "account",
          "type": "address"
        }
      ],
      "name": "numCheckpoints",
      "outputs": [
        {
          "internalType": "uint32",
          "name": "",
          "type": "uint32"
        }
      ],
      "stateMutability": "view",
      "type": "function"
    },
    {
      "inputs": [],
      "name": "owner",
      "outputs": [
        {
          "internalType": "address",
          "name": "",
          "type": "address"
        }
      ],
      "stateMutability": "view",
      "type": "function"
    },
    {
      "inputs": [
        {
          "internalType": "address",
          "name": "owner",
          "type": "address"
        },
        {
          "internalType": "address",
          "name": "spender",
          "type": "address"
        },
        {
          "internalType": "uint256",
          "name": "value",
          "type": "uint256"
        },
        {
          "internalType": "uint256",
          "name": "deadline",
          "type": "uint256"
        },
        {
          "internalType": "uint8",
          "name": "v",
          "type": "uint8"
        },
        {
          "internalType": "bytes32",
          "name": "r",
          "type": "bytes32"
        },
        {
          "internalType": "bytes32",
          "name": "s",
          "type": "bytes32"
        }
      ],
      "name": "permit",
      "outputs": [],
      "stateMutability": "nonpayable",
      "type": "function"
    },
    {
      "inputs": [],
      "name": "renounceOwnership",
      "outputs": [],
      "stateMutability": "nonpayable",
      "type": "function"
    },
    {
      "inputs": [],
      "name": "symbol",
      "outputs": [
        {
          "internalType": "string",
          "name": "",
          "type": "string"
        }
      ],
      "stateMutability": "view",
      "type": "function"
    },
    {
      "inputs": [],
      "name": "totalSupply",
      "outputs": [
        {
          "internalType": "uint256",
          "name": "",
          "type": "uint256"
        }
      ],
      "stateMutability": "view",
      "type": "function"
    },
    {
      "inputs": [
        {
          "internalType": "address",
          "name": "to",
          "type": "address"
        },
        {
          "internalType": "uint256",
          "name": "amount",
          "type": "uint256"
        }
      ],
      "name": "transfer",
      "outputs": [
        {
          "internalType": "bool",
          "name": "",
          "type": "bool"
        }
      ],
      "stateMutability": "nonpayable",
      "type": "function"
    },
    {
      "inputs": [
        {
          "internalType": "address",
          "name": "from",
          "type": "address"
        },
        {
          "internalType": "address",
          "name": "to",
          "type": "address"
        },
        {
          "internalType": "uint256",
          "name": "amount",
          "type": "uint256"
        }
      ],
      "name": "transferFrom",
      "outputs": [
        {
          "internalType": "bool",
          "name": "",
          "type": "bool"
        }
      ],
      "stateMutability": "nonpayable",
      "type": "function"
    },
    {
      "inputs": [
        {
          "internalType": "address",
          "name": "newOwner",
          "type": "address"
        }
      ],
      "name": "transferOwnership",
      "outputs": [],
      "stateMutability": "nonpayable",
      "type": "function"
    }
  ],
  "bytecode": "0x6101606040523480156200001257600080fd5b506040516200294d3803806200294d83398101604081905262000035916200029a565b6040518060400160405280600e81526020016d25b0b630a5b93aba102a37b5b2b760911b81525080604051806040016040528060018152602001603160f81b8152506040518060400160405280600e81526020016d25b0b630a5b93aba102a37b5b2b760911b8152506040518060400160405280600381526020016212d2d560ea1b8152508160039081620000cb919062000373565b506004620000da828262000373565b505050620000f7620000f1620001bf60201b60201c565b620001c3565b6200010482600662000215565b610120526200011581600762000215565b61014052815160208084019190912060e052815190820120610100524660a052620001a360e05161010051604080517f8b73c3c69bb8fe3d512ecc4cf759cc79239f7b179b0ffacaa9a75d522b39400f60208201529081019290925260608201524660808201523060a082015260009060c00160405160208183030381529060405280519060200120905090565b60805250503060c05250620001b881620001c3565b50620004b5565b3390565b600580546001600160a01b038381166001600160a01b0319831681179093556040519116919082907f8be0079c531659141344cd1fd0a4f28419497f9722a3daafe3b4186f6b6457e090600090a35050565b600060208351101562000235576200022d836200024e565b905062000248565b8162000242848262000373565b5060ff90505b92915050565b600080829050601f8151111562000285578260405163305a27a960e01b81526004016200027c91906200043f565b60405180910390fd5b8051620002928262000490565b179392505050565b600060208284031215620002ad57600080fd5b81516001600160a01b0381168114620002c557600080fd5b9392505050565b634e487b7160e01b600052604160045260246000fd5b600181811c90821680620002f757607f821691505b6020821081036200031857634e487b7160e01b600052602260045260246000fd5b50919050565b601f8211156200036e576000816000526020600020601f850160051c81016020861015620003495750805b601f850160051c820191505b818110156200036a5782815560010162000355565b5050505b505050565b81516001600160401b038111156200038f576200038f620002cc565b620003a781620003a08454620002e2565b846200031e565b602080601f831160018114620003df5760008415620003c65750858301515b600019600386901b1c1916600185901b1785556200036a565b600085815260208120601f198616915b828110156200041057888601518255948401946001909101908401620003ef565b50858210156200042f5787850151600019600388901b60f8161c191681555b5050505050600190811b01905550565b60006020808352835180602085015260005b818110156200046f5785810183015185820160400152820162000451565b506000604082860101526040601f19601f8301168501019250505092915050565b80516020808301519190811015620003185760001960209190910360031b1b16919050565b60805160a05160c05160e05161010051610120516101405161243d6200051060003960006107990152600061076e01526000611226015260006111fe0152600061115901526000611183015260006111ad015261243d6000f3fe608060405234801561001057600080fd5b50600436106101cf5760003560e01c8063715018a6116101045780639ab24eb0116100a2578063d505accf11610071578063d505accf14610409578063dd62ed3e1461041c578063f1127ed814610455578063f2fde38b1461049257600080fd5b80639ab24eb0146103bd578063a457c2d7146103d0578063a9059cbb146103e3578063c3cda520146103f657600080fd5b80638da5cb5b116100de5780638da5cb5b146103725780638e539e8c1461038357806391ddadf41461039657806395d89b41146103b557600080fd5b8063715018a61461033c5780637ecebe001461034457806384b0196e1461035757600080fd5b80633a46b1a811610171578063587cde1e1161014b578063587cde1e146102945780635c19a95c146102d85780636fcfff45146102eb57806370a082311461031357600080fd5b80633a46b1a81461026457806340c10f19146102775780634bf5d7e91461028c57600080fd5b806323b872dd116101ad57806323b872dd14610227578063313ce5671461023a5780633644e51514610249578063395093511461025157600080fd5b806306fdde03146101d4578063095ea7b3146101f257806318160ddd14610215575b600080fd5b6101dc6104a5565b6040516101e9919061206f565b60405180910390f35b61020561020036600461209e565b610537565b60405190151581526020016101e9565b6002545b6040519081526020016101e9565b6102056102353660046120c8565b610551565b604051601281526020016101e9565b610219610575565b61020561025f36600461209e565b610584565b61021961027236600461209e565b6105c3565b61028a61028536600461209e565b610651565b005b6101dc610667565b6102c06102a2366004612104565b6001600160a01b039081166000908152600a60205260409020541690565b6040516001600160a01b0390911681526020016101e9565b61028a6102e6366004612104565b6106ff565b6102fe6102f9366004612104565b61070c565b60405163ffffffff90911681526020016101e9565b610219610321366004612104565b6001600160a01b031660009081526020819052604090205490565b61028a61072e565b610219610352366004612104565b610742565b61035f610760565b6040516101e9979695949392919061211f565b6005546001600160a01b03166102c0565b6102196103913660046121d4565b610805565b61039e610870565b60405165ffffffffffff90911681526020016101e9565b6101dc61087b565b6102196103cb366004612104565b61088a565b6102056103de36600461209e565b61090c565b6102056103f136600461209e565b6109b6565b61028a6104043660046121fe565b6109c4565b61028a610417366004612256565b610afa565b61021961042a3660046122c0565b6001600160a01b03918216600090815260016020908152604080832093909416825291909152205490565b6104686104633660046122f3565b610c5e565b60408051825163ffffffff1681526020928301516001600160e01b031692810192909252016101e9565b61028a6104a0366004612104565b610ce2565b6060600380546104b490612333565b80601f01602080910402602001604051908101604052809291908181526020018280546104e090612333565b801561052d5780601f106105025761010080835404028352916020019161052d565b820191906000526020600020905b81548152906001019060200180831161051057829003601f168201915b5050505050905090565b600033610545818585610d6f565b60019150505b92915050565b60003361055f858285610ec7565b61056a858585610f59565b506001949350505050565b600061057f61114c565b905090565b3360008181526001602090815260408083206001600160a01b038716845290915281205490919061054590829086906105be90879061237d565b610d6f565b60006105cd610870565b65ffffffffffff1682106106285760405162461bcd60e51b815260206004820152601960248201527f4552433230566f7465733a20667574757265206c6f6f6b75700000000000000060448201526064015b60405180910390fd5b6001600160a01b0383166000908152600b6020526040902061064a9083611277565b9392505050565b610659611360565b61066382826113ba565b5050565b606043610672610870565b65ffffffffffff16146106c75760405162461bcd60e51b815260206004820152601d60248201527f4552433230566f7465733a2062726f6b656e20636c6f636b206d6f6465000000604482015260640161061f565b5060408051808201909152601d81527f6d6f64653d626c6f636b6e756d6265722666726f6d3d64656661756c74000000602082015290565b61070933826113c4565b50565b6001600160a01b0381166000908152600b602052604081205461054b9061144a565b610736611360565b61074060006114ca565b565b6001600160a01b03811660009081526008602052604081205461054b565b6000606080828080836107947f00000000000000000000000000000000000000000000000000000000000000006006611529565b6107bf7f00000000000000000000000000000000000000000000000000000000000000006007611529565b604080516000808252602082019092527f0f000000000000000000000000000000000000000000000000000000000000009b939a50919850469750309650945092509050565b600061080f610870565b65ffffffffffff1682106108655760405162461bcd60e51b815260206004820152601960248201527f4552433230566f7465733a20667574757265206c6f6f6b757000000000000000604482015260640161061f565b61054b600c83611277565b600061057f436115d4565b6060600480546104b490612333565b6001600160a01b0381166000908152600b602052604081205480156108f9576001600160a01b0383166000908152600b60205260409020805460001983019081106108d7576108d7612390565b60009182526020909120015464010000000090046001600160e01b03166108fc565b60005b6001600160e01b03169392505050565b3360008181526001602090815260408083206001600160a01b0387168452909152812054909190838110156109a95760405162461bcd60e51b815260206004820152602560248201527f45524332303a2064656372656173656420616c6c6f77616e63652062656c6f7760448201527f207a65726f000000000000000000000000000000000000000000000000000000606482015260840161061f565b61056a8286868403610d6f565b600033610545818585610f59565b83421115610a145760405162461bcd60e51b815260206004820152601d60248201527f4552433230566f7465733a207369676e61747572652065787069726564000000604482015260640161061f565b604080517fe48329057bfd03d55e49b547132e39cffd9c1820ad7b9d4c5307691425d15adf60208201526001600160a01b038816918101919091526060810186905260808101859052600090610a8e90610a869060a00160405160208183030381529060405280519060200120611652565b85858561169a565b9050610a99816116c2565b8614610ae75760405162461bcd60e51b815260206004820152601960248201527f4552433230566f7465733a20696e76616c6964206e6f6e636500000000000000604482015260640161061f565b610af181886113c4565b50505050505050565b83421115610b4a5760405162461bcd60e51b815260206004820152601d60248201527f45524332305065726d69743a206578706972656420646561646c696e65000000604482015260640161061f565b60007f6e71edae12b1b97f4d1f60370fef10105fa2faae0126114a169c64845d6126c9888888610b798c6116c2565b6040805160208101969096526001600160a01b0394851690860152929091166060840152608083015260a082015260c0810186905260e0016040516020818303038152906040528051906020012090506000610bd482611652565b90506000610be48287878761169a565b9050896001600160a01b0316816001600160a01b031614610c475760405162461bcd60e51b815260206004820152601e60248201527f45524332305065726d69743a20696e76616c6964207369676e61747572650000604482015260640161061f565b610c528a8a8a610d6f565b50505050505050505050565b60408051808201909152600080825260208201526001600160a01b0383166000908152600b60205260409020805463ffffffff8416908110610ca257610ca2612390565b60009182526020918290206040805180820190915291015463ffffffff8116825264010000000090046001600160e01b0316918101919091529392505050565b610cea611360565b6001600160a01b038116610d665760405162461bcd60e51b815260206004820152602660248201527f4f776e61626c653a206e6577206f776e657220697320746865207a65726f206160448201527f6464726573730000000000000000000000000000000000000000000000000000606482015260840161061f565b610709816114ca565b6001600160a01b038316610dea5760405162461bcd60e51b8152602060048201526024808201527f45524332303a20617070726f76652066726f6d20746865207a65726f2061646460448201527f7265737300000000000000000000000000000000000000000000000000000000606482015260840161061f565b6001600160a01b038216610e665760405162461bcd60e51b815260206004820152602260248201527f45524332303a20617070726f766520746f20746865207a65726f20616464726560448201527f7373000000000000000000000000000000000000000000000000000000000000606482015260840161061f565b6001600160a01b0383811660008181526001602090815260408083209487168084529482529182902085905590518481527f8c5be1e5ebec7d5bd14f71427d1e84f3dd0314c0f7b2291e5b200ac8c7c3b925910160405180910390a3505050565b6001600160a01b038381166000908152600160209081526040808320938616835292905220546000198114610f535781811015610f465760405162461bcd60e51b815260206004820152601d60248201527f45524332303a20696e73756666696369656e7420616c6c6f77616e6365000000604482015260640161061f565b610f538484848403610d6f565b50505050565b6001600160a01b038316610fd55760405162461bcd60e51b815260206004820152602560248201527f45524332303a207472616e736665722066726f6d20746865207a65726f20616460448201527f6472657373000000000000000000000000000000000000000000000000000000606482015260840161061f565b6001600160a01b0382166110515760405162461bcd60e51b815260206004820152602360248201527f45524332303a207472616e7366657220746f20746865207a65726f206164647260448201527f6573730000000000000000000000000000000000000000000000000000000000606482015260840161061f565b6001600160a01b038316600090815260208190526040902054818110156110e05760405162461bcd60e51b815260206004820152602660248201527f45524332303a207472616e7366657220616d6f756e742065786365656473206260448201527f616c616e63650000000000000000000000000000000000000000000000000000606482015260840161061f565b6001600160a01b03848116600081815260208181526040808320878703905593871680835291849020805487019055925185815290927fddf252ad1be2c89b69c2b068fc378daa952ba7f163c4a11628f55a4df523b3ef910160405180910390a3610f538484846116ef565b6000306001600160a01b037f0000000000000000000000000000000000000000000000000000000000000000161480156111a557507f000000000000000000000000000000000000000000000000000000000000000046145b156111cf57507f000000000000000000000000000000000000000000000000000000000000000090565b61057f604080517f8b73c3c69bb8fe3d512ecc4cf759cc79239f7b179b0ffacaa9a75d522b39400f60208201527f0000000000000000000000000000000000000000000000000000000000000000918101919091527f000000000000000000000000000000000000000000000000000000000000000060608201524660808201523060a082015260009060c00160405160208183030381529060405280519060200120905090565b8154600090818160058111156112d1576000611292846116fa565b61129c90856123a6565b600088815260209020909150869082015463ffffffff1611156112c1578091506112cf565b6112cc81600161237d565b92505b505b8082101561131e5760006112e583836117e2565b600088815260209020909150869082015463ffffffff16111561130a57809150611318565b61131581600161237d565b92505b506112d1565b801561134a576000868152602090208101600019015464010000000090046001600160e01b031661134d565b60005b6001600160e01b03169695505050505050565b6005546001600160a01b031633146107405760405162461bcd60e51b815260206004820181905260248201527f4f776e61626c653a2063616c6c6572206973206e6f7420746865206f776e6572604482015260640161061f565b61066382826117fd565b6001600160a01b038281166000818152600a602081815260408084208054858452828620549490935287871673ffffffffffffffffffffffffffffffffffffffff198416811790915590519190951694919391928592917f3134e8a2e6d97e929a7e54011ea5485d7d196dd5f0ba4d4ef95803e8e3fc257f9190a4610f53828483611894565b600063ffffffff8211156114c65760405162461bcd60e51b815260206004820152602660248201527f53616665436173743a2076616c756520646f65736e27742066697420696e203360448201527f3220626974730000000000000000000000000000000000000000000000000000606482015260840161061f565b5090565b600580546001600160a01b0383811673ffffffffffffffffffffffffffffffffffffffff19831681179093556040519116919082907f8be0079c531659141344cd1fd0a4f28419497f9722a3daafe3b4186f6b6457e090600090a35050565b606060ff83146115435761153c836119d1565b905061054b565b81805461154f90612333565b80601f016020809104026020016040519081016040528092919081815260200182805461157b90612333565b80156115c85780601f1061159d576101008083540402835291602001916115c8565b820191906000526020600020905b8154815290600101906020018083116115ab57829003601f168201915b5050505050905061054b565b600065ffffffffffff8211156114c65760405162461bcd60e51b815260206004820152602660248201527f53616665436173743a2076616c756520646f65736e27742066697420696e203460448201527f3820626974730000000000000000000000000000000000000000000000000000606482015260840161061f565b600061054b61165f61114c565b836040517f19010000000000000000000000000000000000000000000000000000000000008152600281019290925260228201526042902090565b60008060006116ab87878787611a10565b915091506116b881611ad4565b5095945050505050565b6001600160a01b03811660009081526008602052604090208054600181018255905b50919050565b505050565b6116ea838383611c39565b60008160000361170c57506000919050565b6000600161171984611c6b565b901c6001901b90506001818481611732576117326123b9565b048201901c9050600181848161174a5761174a6123b9565b048201901c90506001818481611762576117626123b9565b048201901c9050600181848161177a5761177a6123b9565b048201901c90506001818481611792576117926123b9565b048201901c905060018184816117aa576117aa6123b9565b048201901c905060018184816117c2576117c26123b9565b048201901c905061064a818285816117dc576117dc6123b9565b04611cff565b60006117f160028484186123cf565b61064a9084841661237d565b6118078282611d15565b6002546001600160e01b0310156118865760405162461bcd60e51b815260206004820152603060248201527f4552433230566f7465733a20746f74616c20737570706c79207269736b73206f60448201527f766572666c6f77696e6720766f74657300000000000000000000000000000000606482015260840161061f565b610f53600c611ddc83611de8565b816001600160a01b0316836001600160a01b0316141580156118b65750600081115b156116ea576001600160a01b03831615611944576001600160a01b0383166000908152600b6020526040812081906118f190611f5d85611de8565b91509150846001600160a01b03167fdec2bacdd2f05b59de34da9b523dff8be42e5e38e818c82fdb0bae774387a7248383604051611939929190918252602082015260400190565b60405180910390a250505b6001600160a01b038216156116ea576001600160a01b0382166000908152600b60205260408120819061197a90611ddc85611de8565b91509150836001600160a01b03167fdec2bacdd2f05b59de34da9b523dff8be42e5e38e818c82fdb0bae774387a72483836040516119c2929190918252602082015260400190565b60405180910390a25050505050565b606060006119de83611f69565b604080516020808252818301909252919250600091906020820181803683375050509182525060208101929092525090565b6000807f7fffffffffffffffffffffffffffffff5d576e7357a4501ddfe92f46681b20a0831115611a475750600090506003611acb565b6040805160008082526020820180845289905260ff881692820192909252606081018690526080810185905260019060a0016020604051602081039080840390855afa158015611a9b573d6000803e3d6000fd5b5050604051601f1901519150506001600160a01b038116611ac457600060019250925050611acb565b9150600090505b94509492505050565b6000816004811115611ae857611ae86123f1565b03611af05750565b6001816004811115611b0457611b046123f1565b03611b515760405162461bcd60e51b815260206004820152601860248201527f45434453413a20696e76616c6964207369676e61747572650000000000000000604482015260640161061f565b6002816004811115611b6557611b656123f1565b03611bb25760405162461bcd60e51b815260206004820152601f60248201527f45434453413a20696e76616c6964207369676e6174757265206c656e67746800604482015260640161061f565b6003816004811115611bc657611bc66123f1565b036107095760405162461bcd60e51b815260206004820152602260248201527f45434453413a20696e76616c6964207369676e6174757265202773272076616c60448201527f7565000000000000000000000000000000000000000000000000000000000000606482015260840161061f565b6001600160a01b038381166000908152600a60205260408082205485841683529120546116ea92918216911683611894565b600080608083901c15611c8057608092831c92015b604083901c15611c9257604092831c92015b602083901c15611ca457602092831c92015b601083901c15611cb657601092831c92015b600883901c15611cc857600892831c92015b600483901c15611cda57600492831c92015b600283901c15611cec57600292831c92015b600183901c1561054b5760010192915050565b6000818310611d0e578161064a565b5090919050565b6001600160a01b038216611d6b5760405162461bcd60e51b815260206004820152601f60248201527f45524332303a206d696e7420746f20746865207a65726f206164647265737300604482015260640161061f565b8060026000828254611d7d919061237d565b90915550506001600160a01b038216600081815260208181526040808320805486019055518481527fddf252ad1be2c89b69c2b068fc378daa952ba7f163c4a11628f55a4df523b3ef910160405180910390a3610663600083836116ef565b600061064a828461237d565b82546000908190818115611e355760008781526020902082016000190160408051808201909152905463ffffffff8116825264010000000090046001600160e01b03166020820152611e4a565b60408051808201909152600080825260208201525b905080602001516001600160e01b03169350611e6a84868863ffffffff16565b9250600082118015611e945750611e7f610870565b65ffffffffffff16816000015163ffffffff16145b15611ed957611ea283611faa565b60008881526020902083016000190180546001600160e01b03929092166401000000000263ffffffff909216919091179055611f53565b866040518060400160405280611efd611ef0610870565b65ffffffffffff1661144a565b63ffffffff168152602001611f1186611faa565b6001600160e01b0390811690915282546001810184556000938452602093849020835194909301519091166401000000000263ffffffff909316929092179101555b5050935093915050565b600061064a82846123a6565b600060ff8216601f81111561054b576040517fb3512b0c00000000000000000000000000000000000000000000000000000000815260040160405180910390fd5b60006001600160e01b038211156114c65760405162461bcd60e51b815260206004820152602760248201527f53616665436173743a2076616c756520646f65736e27742066697420696e203260448201527f3234206269747300000000000000000000000000000000000000000000000000606482015260840161061f565b6000815180845260005b8181101561204f57602081850181015186830182015201612033565b506000602082860101526020601f19601f83011685010191505092915050565b60208152600061064a6020830184612029565b80356001600160a01b038116811461209957600080fd5b919050565b600080604083850312156120b157600080fd5b6120ba83612082565b946020939093013593505050565b6000806000606084860312156120dd57600080fd5b6120e684612082565b92506120f460208501612082565b9150604084013590509250925092565b60006020828403121561211657600080fd5b61064a82612082565b7fff00000000000000000000000000000000000000000000000000000000000000881681526000602060e0602084015261215c60e084018a612029565b838103604085015261216e818a612029565b606085018990526001600160a01b038816608086015260a0850187905284810360c08601528551808252602080880193509091019060005b818110156121c2578351835292840192918401916001016121a6565b50909c9b505050505050505050505050565b6000602082840312156121e657600080fd5b5035919050565b803560ff8116811461209957600080fd5b60008060008060008060c0878903121561221757600080fd5b61222087612082565b9550602087013594506040870135935061223c606088016121ed565b92506080870135915060a087013590509295509295509295565b600080600080600080600060e0888a03121561227157600080fd5b61227a88612082565b965061228860208901612082565b955060408801359450606088013593506122a4608089016121ed565b925060a0880135915060c0880135905092959891949750929550565b600080604083850312156122d357600080fd5b6122dc83612082565b91506122ea60208401612082565b90509250929050565b6000806040838503121561230657600080fd5b61230f83612082565b9150602083013563ffffffff8116811461232857600080fd5b809150509250929050565b600181811c9082168061234757607f821691505b6020821081036116e457634e487b7160e01b600052602260045260246000fd5b634e487b7160e01b600052601160045260246000fd5b8082018082111561054b5761054b612367565b634e487b7160e01b600052603260045260246000fd5b8181038181111561054b5761054b612367565b634e487b7160e01b600052601260045260246000fd5b6000826123ec57634e487b7160e01b600052601260045260246000fd5b500490565b634e487b7160e01b600052602160045260246000fdfea2646970667358221220482a1850c4e8098c4e0bf575f3ee0c53aeaf4f938d20214e9d141a0a0973d48664736f6c63430008180033",
  "linkReferences": {},
  "deployedLinkReferences": {}
}