{
  "_format": "hh-sol-artifact-1",
  "contractName": "KalaKrutGovernor",
  "sourceName": "contracts/KalaKrutGovernor.sol",
  "abi": [
    {
      "inputs": [
        {
          "internalType": "contract IVotes",
          "name": "_token",
          "type": "address"
        },
        {
          "internalType": "contract TimelockController",
          "name": "_timelock",
          "type": "address"
        }
      ],
      "stateMutability": "nonpayable",
      "type": "constructor"
    },
    {
      "inputs": [],
      "name": "Empty",
      "type": "error"
    },
    {
      "inputs": [],
      "name": "InvalidShortString",
      "type": "error"
    },
    {
      "inputs": [
        {
          "internalType": "string",
          "name": "str",
          "type": "string"
        }
      ],
      "name": "StringTooLong",
      "type": "error"
    },
    {
      "anonymous": false,
      "inputs": [],
      "name": "EIP712DomainChanged",
      "type": "event"
    },
    {
      "anonymous": false,
      "inputs": [
        {
          "indexed": false,
          "internalType": "uint256",
          "name": "proposalId",
          "type": "uint256"
        }
      ],
      "name": "ProposalCanceled",
      "type": "event"
    },
    {
      "anonymous": false,
      "inputs": [
        {
          "indexed": false,
          "internalType": "uint256",
          "name": "proposalId",
          "type": "uint256"
        },
        {
          "indexed": false,
          "internalType": "address",
          "name": "proposer",
          "type": "address"
        },
        {
          "indexed": false,
          "internalType": "address[]",
          "name": "targets",
          "type": "address[]"
        },
        {
          "indexed": false,
          "internalType": "uint256[]",
          "name": "values",
          "type": "uint256[]"
        },
        {
          "indexed": false,
          "internalType": "string[]",
          "name": "signatures",
          "type": "string[]"
        },
        {
          "indexed": false,
          "internalType": "bytes[]",
          "name": "calldatas",
          "type": "bytes[]"
        },
        {
          "indexed": false,
          "internalType": "uint256",
          "name": "voteStart",
          "type": "uint256"
        },
        {
          "indexed": false,
          "internalType": "uint256",
          "name": "voteEnd",
          "type": "uint256"
        },
        {
          "indexed": false,
          "internalType": "string",
          "name": "description",
          "type": "string"
        }
      ],
      "name": "ProposalCreated",
      "type": "event"
    },
    {
      "anonymous": false,
      "inputs": [
        {
          "indexed": false,
          "internalType": "uint256",
          "name": "proposalId",
          "type": "uint256"
        }
      ],
      "name": "ProposalExecuted",
      "type": "event"
    },
    {
      "anonymous": false,
      "inputs": [
        {
          "indexed": false,
          "internalType": "uint256",
          "name": "proposalId",
          "type": "uint256"
        },
        {
          "indexed": false,
          "internalType": "uint256",
          "name": "eta",
          "type": "uint256"
        }
      ],
      "name": "ProposalQueued",
      "type": "event"
    },
    {
      "anonymous": false,
      "inputs": [
        {
          "indexed": false,
          "internalType": "uint256",
          "name": "oldProposalThreshold",
          "type": "uint256"
        },
        {
          "indexed": false,
          "internalType": "uint256",
          "name": "newProposalThreshold",
          "type": "uint256"
        }
      ],
      "name": "ProposalThresholdSet",
      "type": "event"
    },
    {
      "anonymous": false,
      "inputs": [
        {
          "indexed": false,
          "internalType": "uint256",
          "name": "oldQuorumNumerator",
          "type": "uint256"
        },
        {
          "indexed": false,
          "internalType": "uint256",
          "name": "newQuorumNumerator",
          "type": "uint256"
        }
      ],
      "name": "QuorumNumeratorUpdated",
      "type": "event"
    },
    {
      "anonymous": false,
      "inputs": [
        {
          "indexed": false,
          "internalType": "address",
          "name": "oldTimelock",
          "type": "address"
        },
        {
          "indexed": false,
          "internalType": "address",
          "name": "newTimelock",
          "type": "address"
        }
      ],
      "name": "TimelockChange",
      "type": "event"
    },
    {
      "anonymous": false,
      "inputs": [
        {
          "indexed": true,
          "internalType": "address",
          "name": "voter",
          "type": "address"
        },
        {
          "indexed": false,
          "internalType": "uint256",
          "name": "proposalId",
          "type": "uint256"
        },
        {
          "indexed": false,
          "internalType": "uint8",
          "name": "support",
          "type": "uint8"
        },
        {
          "indexed": false,
          "internalType": "uint256",
          "name": "weight",
          "type": "uint256"
        },
        {
          "indexed": false,
          "internalType": "string",
          "name": "reason",
          "type": "string"
        }
      ],
      "name": "VoteCast",
      "type": "event"
    },
    {
      "anonymous": false,
      "inputs": [
        {
          "indexed": true,
          "internalType": "address",
          "name": "voter",
          "type": "address"
        },
        {
          "indexed": false,
          "internalType": "uint256",
          "name": "proposalId",
          "type": "uint256"
        },
        {
          "indexed": false,
          "internalType": "uint8",
          "name": "support",
          "type": "uint8"
        },
        {
          "indexed": false,
          "internalType": "uint256",
          "name": "weight",
          "type": "uint256"
        },
        {
          "indexed": false,
          "internalType": "string",
          "name": "reason",
          "type": "string"
        },
        {
          "indexed": false,
          "internalType": "bytes",
          "name": "params",
          "type": "bytes"
        }
      ],
      "name": "VoteCastWithParams",
      "type": "event"
    },
    {
      "anonymous": false,
      "inputs": [
        {
          "indexed": false,
          "internalType": "uint256",
          "name": "oldVotingDelay",
          "type": "uint256"
        },
        {
          "indexed": false,
          "internalType": "uint256",
          "name": "newVotingDelay",
          "type": "uint256"
        }
      ],
      "name": "VotingDelaySet",
      "type": "event"
    },
    {
      "anonymous": false,
      "inputs": [
        {
          "indexed": false,
          "internalType": "uint256",
          "name": "oldVotingPeriod",
          "type": "uint256"
        },
        {
          "indexed": false,
          "internalType": "uint256",
          "name": "newVotingPeriod",
          "type": "uint256"
        }
      ],
      "name": "VotingPeriodSet",
      "type": "event"
    },
    {
      "inputs": [],
      "name": "BALLOT_TYPEHASH",
      "outputs": [
        {
          "internalType": "bytes32",
          "name": "",
          "type": "bytes32"
        }
      ],
      "stateMutability": "view",
      "type": "function"
    },
    {
      "inputs": [],
      "name": "CLOCK_MODE",
      "outputs": [
        {
          "internalType": "string",
          "name": "",
          "type": "string"
        }
      ],
      "stateMutability": "view",
      "type": "function"
    },
    {
      "inputs": [],
      "name": "COUNTING_MODE",
      "outputs": [
        {
          "internalType": "string",
          "name": "",
          "type": "string"
        }
      ],
      "stateMutability": "pure",
      "type": "function"
    },
    {
      "inputs": [],
      "name": "EXTENDED_BALLOT_TYPEHASH",
      "outputs": [
        {
          "internalType": "bytes32",
          "name": "",
          "type": "bytes32"
        }
      ],
      "stateMutability": "view",
      "type": "function"
    },
    {
      "inputs": [
        {
          "internalType": "address[]",
          "name": "targets",
          "type": "address[]"
        },
        {
          "internalType": "uint256[]",
          "name": "values",
          "type": "uint256[]"
        },
        {
          "internalType": "bytes[]",
          "name": "calldatas",
          "type": "bytes[]"
        },
        {
          "internalType": "bytes32",
          "name": "descriptionHash",
          "type": "bytes32"
        }
      ],
      "name": "cancel",
      "outputs": [
        {
          "internalType": "uint256",
          "name": "",
          "type": "uint256"
        }
      ],
      "stateMutability": "nonpayable",
      "type": "function"
    },
    {
      "inputs": [
        {
          "internalType": "uint256",
          "name": "proposalId",
          "type": "uint256"
        },
        {
          "internalType": "uint8",
          "name": "support",
          "type": "uint8"
        }
      ],
      "name": "castVote",
      "outputs": [
        {
          "internalType": "uint256",
          "name": "",
          "type": "uint256"
        }
      ],
      "stateMutability": "nonpayable",
      "type": "function"
    },
    {
      "inputs": [
        {
          "internalType": "uint256",
          "name": "proposalId",
          "type": "uint256"
        },
        {
          "internalType": "uint8",
          "name": "support",
          "type": "uint8"
        },
        {
          "internalType": "uint8",
          "name": "v",
          "type": "uint8"
        },
        {
          "internalType": "bytes32",
          "name": "r",
          "type": "bytes32"
        },
        {
          "internalType": "bytes32",
          "name": "s",
          "type": "bytes32"
        }
      ],
      "name": "castVoteBySig",
      "outputs": [
        {
          "internalType": "uint256",
          "name": "",
          "type": "uint256"
        }
      ],
      "stateMutability": "nonpayable",
      "type": "function"
    },
    {
      "inputs": [
        {
          "internalType": "uint256",
          "name": "proposalId",
          "type": "uint256"
        },
        {
          "internalType": "uint8",
          "name": "support",
          "type": "uint8"
        },
        {
          "internalType": "string",
          "name": "reason",
          "type": "string"
        }
      ],
      "name": "castVoteWithReason",
      "outputs": [
        {
          "internalType": "uint256",
          "name": "",
          "type": "uint256"
        }
      ],
      "stateMutability": "nonpayable",
      "type": "function"
    },
    {
      "inputs": [
        {
          "internalType": "uint256",
          "name": "proposalId",
          "type": "uint256"
        },
        {
          "internalType": "uint8",
          "name": "support",
          "type": "uint8"
        },
        {
          "internalType": "string",
          "name": "reason",
          "type": "string"
        },
        {
          "internalType": "bytes",
          "name": "params",
          "type": "bytes"
        }
      ],
      "name": "castVoteWithReasonAndParams",
      "outputs": [
        {
          "internalType": "uint256",
          "name": "",
          "type": "uint256"
        }
      ],
      "stateMutability": "nonpayable",
      "type": "function"
    },
    {
      "inputs": [
        {
          "internalType": "uint256",
          "name": "proposalId",
          "type": "uint256"
        },
        {
          "internalType": "uint8",
          "name": "support",
          "type": "uint8"
        },
        {
          "internalType": "string",
          "name": "reason",
          "type": "string"
        },
        {
          "internalType": "bytes",
          "name": "params",
          "type": "bytes"
        },
        {
          "internalType": "uint8",
          "name": "v",
          "type": "uint8"
        },
        {
          "internalType": "bytes32",
          "name": "r",
          "type": "bytes32"
        },
        {
          "internalType": "bytes32",
          "name": "s",
          "type": "bytes32"
        }
      ],
      "name": "castVoteWithReasonAndParamsBySig",
      "outputs": [
        {
          "internalType": "uint256",
          "name": "",
          "type": "uint256"
        }
      ],
      "stateMutability": "nonpayable",
      "type": "function"
    },
    {
      "inputs": [],
      "name": "clock",
      "outputs": [
        {
          "internalType": "uint48",
          "name": "",
          "type": "uint48"
        }
      ],
      "stateMutability": "view",
      "type": "function"
    },
    {
      "inputs": [],
      "name": "eip712Domain",
      "outputs": [
        {
          "internalType": "bytes1",
          "name": "fields",
          "type": "bytes1"
        },
        {
          "internalType": "string",
          "name": "name",
          "type": "string"
        },
        {
          "internalType": "string",
          "name": "version",
          "type": "string"
        },
        {
          "internalType": "uint256",
          "name": "chainId",
          "type": "uint256"
        },
        {
          "internalType": "address",
          "name": "verifyingContract",
          "type": "address"
        },
        {
          "internalType": "bytes32",
          "name": "salt",
          "type": "bytes32"
        },
        {
          "internalType": "uint256[]",
          "name": "extensions",
          "type": "uint256[]"
        }
      ],
      "stateMutability": "view",
      "type": "function"
    },
    {
      "inputs": [
        {
          "internalType": "address[]",
          "name": "targets",
          "type": "address[]"
        },
        {
          "internalType": "uint256[]",
          "name": "values",
          "type": "uint256[]"
        },
        {
          "internalType": "bytes[]",
          "name": "calldatas",
          "type": "bytes[]"
        },
        {
          "internalType": "bytes32",
          "name": "descriptionHash",
          "type": "bytes32"
        }
      ],
      "name": "execute",
      "outputs": [
        {
          "internalType": "uint256",
          "name": "",
          "type": "uint256"
        }
      ],
      "stateMutability": "payable",
      "type": "function"
    },
    {
      "inputs": [
        {
          "internalType": "address",
          "name": "account",
          "type": "address"
        },
        {
          "internalType": "uint256",
          "name": "timepoint",
          "type": "uint256"
        }
      ],
      "name": "getVotes",
      "outputs": [
        {
          "internalType": "uint256",
          "name": "",
          "type": "uint256"
        }
      ],
      "stateMutability": "view",
      "type": "function"
    },
    {
      "inputs": [
        {
          "internalType": "address",
          "name": "account",
          "type": "address"
        },
        {
          "internalType": "uint256",
          "name": "timepoint",
          "type": "uint256"
        },
        {
          "internalType": "bytes",
          "name": "params",
          "type": "bytes"
        }
      ],
      "name": "getVotesWithParams",
      "outputs": [
        {
          "internalType": "uint256",
          "name": "",
          "type": "uint256"
        }
      ],
      "stateMutability": "view",
      "type": "function"
    },
    {
      "inputs": [
        {
          "internalType": "uint256",
          "name": "proposalId",
          "type": "uint256"
        },
        {
          "internalType": "address",
          "name": "account",
          "type": "address"
        }
      ],
      "name": "hasVoted",
      "outputs": [
        {
          "internalType": "bool",
          "name": "",
          "type": "bool"
        }
      ],
      "stateMutability": "view",
      "type": "function"
    },
    {
      "inputs": [
        {
          "internalType": "address[]",
          "name": "targets",
          "type": "address[]"
        },
        {
          "internalType": "uint256[]",
          "name": "values",
          "type": "uint256[]"
        },
        {
          "internalType": "bytes[]",
          "name": "calldatas",
          "type": "bytes[]"
        },
        {
          "internalType": "bytes32",
          "name": "descriptionHash",
          "type": "bytes32"
        }
      ],
      "name": "hashProposal",
      "outputs": [
        {
          "internalType": "uint256",
          "name": "",
          "type": "uint256"
        }
      ],
      "stateMutability": "pure",
      "type": "function"
    },
    {
      "inputs": [],
      "name": "name",
      "outputs": [
        {
          "internalType": "string",
          "name": "",
          "type": "string"
        }
      ],
      "stateMutability": "view",
      "type": "function"
    },
    {
      "inputs": [
        {
          "internalType": "address",
          "name": "",
          "type": "address"
        },
        {
          "internalType": "address",
          "name": "",
          "type": "address"
        },
        {
          "internalType": "uint256[]",
          "name": "",
          "type": "uint256[]"
        },
        {
          "internalType": "uint256[]",
          "name": "",
          "type": "uint256[]"
        },
        {
          "internalType": "bytes",
          "name": "",
          "type": "bytes"
        }
      ],
      "name": "onERC1155BatchReceived",
      "outputs": [
        {
          "internalType": "bytes4",
          "name": "",
          "type": "bytes4"
        }
      ],
      "stateMutability": "nonpayable",
      "type": "function"
    },
    {
      "inputs": [
        {
          "internalType": "address",
          "name": "",
          "type": "address"
        },
        {
          "internalType": "address",
          "name": "",
          "type": "address"
        },
        {
          "internalType": "uint256",
          "name": "",
          "type": "uint256"
        },
        {
          "internalType": "uint256",
          "name": "",
          "type": "uint256"
        },
        {
          "internalType": "bytes",
          "name": "",
          "type": "bytes"
        }
      ],
      "name": "onERC1155Received",
      "outputs": [
        {
          "internalType": "bytes4",
          "name": "",
          "type": "bytes4"
        }
      ],
      "stateMutability": "nonpayable",
      "type": "function"
    },
    {
      "inputs": [
        {
          "internalType": "address",
          "name": "",
          "type": "address"
        },
        {
          "internalType": "address",
          "name": "",
          "type": "address"
        },
        {
          "internalType": "uint256",
          "name": "",
          "type": "uint256"
        },
        {
          "internalType": "bytes",
          "name": "",
          "type": "bytes"
        }
      ],
      "name": "onERC721Received",
      "outputs": [
        {
          "internalType": "bytes4",
          "name": "",
          "type": "bytes4"
        }
      ],
      "stateMutability": "nonpayable",
      "type": "function"
    },
    {
      "inputs": [
        {
          "internalType": "uint256",
          "name": "proposalId",
          "type": "uint256"
        }
      ],
      "name": "proposalDeadline",
      "outputs": [
        {
          "internalType": "uint256",
          "name": "",
          "type": "uint256"
        }
      ],
      "stateMutability": "view",
      "type": "function"
    },
    {
      "inputs": [
        {
          "internalType": "uint256",
          "name": "proposalId",
          "type": "uint256"
        }
      ],
      "name": "proposalEta",
      "outputs": [
        {
          "internalType": "uint256",
          "name": "",
          "type": "uint256"
        }
      ],
      "stateMutability": "view",
      "type": "function"
    },
    {
      "inputs": [
        {
          "internalType": "uint256",
          "name": "proposalId",
          "type": "uint256"
        }
      ],
      "name": "proposalProposer",
      "outputs": [
        {
          "internalType": "address",
          "name": "",
          "type": "address"
        }
      ],
      "stateMutability": "view",
      "type": "function"
    },
    {
      "inputs": [
        {
          "internalType": "uint256",
          "name": "proposalId",
          "type": "uint256"
        }
      ],
      "name": "proposalSnapshot",
      "outputs": [
        {
          "internalType": "uint256",
          "name": "",
          "type": "uint256"
        }
      ],
      "stateMutability": "view",
      "type": "function"
    },
    {
      "inputs": [],
      "name": "proposalThreshold",
      "outputs": [
        {
          "internalType": "uint256",
          "name": "",
          "type": "uint256"
        }
      ],
      "stateMutability": "view",
      "type": "function"
    },
    {
      "inputs": [
        {
          "internalType": "uint256",
          "name": "proposalId",
          "type": "uint256"
        }
      ],
      "name": "proposalVotes",
      "outputs": [
        {
          "internalType": "uint256",
          "name": "againstVotes",
          "type": "uint256"
        },
        {
          "internalType": "uint256",
          "name": "forVotes",
          "type": "uint256"
        },
        {
          "internalType": "uint256",
          "name": "abstainVotes",
          "type": "uint256"
        }
      ],
      "stateMutability": "view",
      "type": "function"
    },
    {
      "inputs": [
        {
          "internalType": "address[]",
          "name": "targets",
          "type": "address[]"
        },
        {
          "internalType": "uint256[]",
          "name": "values",
          "type": "uint256[]"
        },
        {
          "internalType": "bytes[]",
          "name": "calldatas",
          "type": "bytes[]"
        },
        {
          "internalType": "string",
          "name": "description",
          "type": "string"
        }
      ],
      "name": "propose",
      "outputs": [
        {
          "internalType": "uint256",
          "name": "",
          "type": "uint256"
        }
      ],
      "stateMutability": "nonpayable",
      "type": "function"
    },
    {
      "inputs": [
        {
          "internalType": "address[]",
          "name": "targets",
          "type": "address[]"
        },
        {
          "internalType": "uint256[]",
          "name": "values",
          "type": "uint256[]"
        },
        {
          "internalType": "bytes[]",
          "name": "calldatas",
          "type": "bytes[]"
        },
        {
          "internalType": "bytes32",
          "name": "descriptionHash",
          "type": "bytes32"
        }
      ],
      "name": "queue",
      "outputs": [
        {
          "internalType": "uint256",
          "name": "",
          "type": "uint256"
        }
      ],
      "stateMutability": "nonpayable",
      "type": "function"
    },
    {
      "inputs": [
        {
          "internalType": "uint256",
          "name": "timepoint",
          "type": "uint256"
        }
      ],
      "name": "quorum",
      "outputs": [
        {
          "internalType": "uint256",
          "name": "",
          "type": "uint256"
        }
      ],
      "stateMutability": "view",
      "type": "function"
    },
    {
      "inputs": [],
      "name": "quorumDenominator",
      "outputs": [
        {
          "internalType": "uint256",
          "name": "",
          "type": "uint256"
        }
      ],
      "stateMutability": "view",
      "type": "function"
    },
    {
      "inputs": [
        {
          "internalType": "uint256",
          "name": "timepoint",
          "type": "uint256"
        }
      ],
      "name": "quorumNumerator",
      "outputs": [
        {
          "internalType": "uint256",
          "name": "",
          "type": "uint256"
        }
      ],
      "stateMutability": "view",
      "type": "function"
    },
    {
      "inputs": [],
      "name": "quorumNumerator",
      "outputs": [
        {
          "internalType": "uint256",
          "name": "",
          "type": "uint256"
        }
      ],
      "stateMutability": "view",
      "type": "function"
    },
    {
      "inputs": [
        {
          "internalType": "address",
          "name": "target",
          "type": "address"
        },
        {
          "internalType": "uint256",
          "name": "value",
          "type": "uint256"
        },
        {
          "internalType": "bytes",
          "name": "data",
          "type": "bytes"
        }
      ],
      "name": "relay",
      "outputs": [],
      "stateMutability": "payable",
      "type": "function"
    },
    {
      "inputs": [
        {
          "internalType": "uint256",
          "name": "newProposalThreshold",
          "type": "uint256"
        }
      ],
      "name": "setProposalThreshold",
      "outputs": [],
      "stateMutability": "nonpayable",
      "type": "function"
    },
    {
      "inputs": [
        {
          "internalType": "uint256",
          "name": "newVotingDelay",
          "type": "uint256"
        }
      ],
      "name": "setVotingDelay",
      "outputs": [],
      "stateMutability": "nonpayable",
      "type": "function"
    },
    {
      "inputs": [
        {
          "internalType": "uint256",
          "name": "newVotingPeriod",
          "type": "uint256"
        }
      ],
      "name": "setVotingPeriod",
      "outputs": [],
      "stateMutability": "nonpayable",
      "type": "function"
    },
    {
      "inputs": [
        {
          "internalType": "uint256",
          "name": "proposalId",
          "type": "uint256"
        }
      ],
      "name": "state",
      "outputs": [
        {
          "internalType": "enum IGovernor.ProposalState",
          "name": "",
          "type": "uint8"
        }
      ],
      "stateMutability": "view",
      "type": "function"
    },
    {
      "inputs": [
        {
          "internalType": "bytes4",
          "name": "interfaceId",
          "type": "bytes4"
        }
      ],
      "name": "supportsInterface",
      "outputs": [
        {
          "internalType": "bool",
          "name": "",
          "type": "bool"
        }
      ],
      "stateMutability": "view",
      "type": "function"
    },
    {
      "inputs": [],
      "name": "timelock",
      "outputs": [
        {
          "internalType": "address",
          "name": "",
          "type": "address"
        }
      ],
      "stateMutability": "view",
      "type": "function"
    },
    {
      "inputs": [],
      "name": "token",
      "outputs": [
        {
          "internalType": "contract IERC5805",
          "name": "",
          "type": "address"
        }
      ],
      "stateMutability": "view",
      "type": "function"
    },
    {
      "inputs": [
        {
          "internalType": "uint256",
          "name": "newQuorumNumerator",
          "type": "uint256"
        }
      ],
      "name": "updateQuorumNumerator",
      "outputs": [],
      "stateMutability": "nonpayable",
      "type": "function"
    },
    {
      "inputs": [
        {
          "internalType": "contract TimelockController",
          "name": "newTimelock",
          "type": "address"
        }
      ],
      "name": "updateTimelock",
      "outputs": [],
      "stateMutability": "nonpayable",
      "type": "function"
    },
    {
      "inputs": [],
      "name": "version",
      "outputs": [
        {
          "internalType": "string",
          "name": "",
          "type": "string"
        }
      ],
      "stateMutability": "view",
      "type": "function"
    },
    {
      "inputs": [],
      "name": "votingDelay",
      "outputs": [
        {
          "internalType": "uint256",
          "name": "",
          "type": "uint256"
        }
      ],
      "stateMutability": "view",
      "type": "function"
    },
    {
      "inputs": [],
      "name": "votingPeriod",
      "outputs": [
        {
          "internalType": "uint256",
          "name": "",
          "type": "uint256"
        }
      ],
      "stateMutability": "view",
      "type": "function"
    },
    {
      "stateMutability": "payable",
      "type": "receive"
    }
  ],
  "bytecode": "0x6101806040523480156200001257600080fd5b506040516200599238038062005992833981016040819052620000359162000958565b600482826000619d8060646040518060400160405280601081526020016f25b0b630a5b93aba23b7bb32b93737b960811b815250806200007a6200019760201b60201c565b62000087826000620001b2565b6101205262000098816001620001b2565b61014052815160208084019190912060e052815190820120610100524660a0526200012660e05161010051604080517f8b73c3c69bb8fe3d512ecc4cf759cc79239f7b179b0ffacaa9a75d522b39400f60208201529081019290925260608201524660808201523060a082015260009060c00160405160208183030381529060405280519060200120905090565b60805250503060c05260026200013d828262000a3e565b506200014b905083620001eb565b62000156826200022c565b6200016181620002d3565b50505062000175816200031460201b60201c565b506001600160a01b0316610160526200018e816200037d565b50505062000bcc565b6040805180820190915260018152603160f81b602082015290565b6000602083511015620001d257620001ca83620004fc565b9050620001e5565b81620001df848262000a3e565b5060ff90505b92915050565b60065460408051918252602082018390527fc565b045403dc03c2eea82b81a0465edad9e2e7fc4d97e11421c209da93d7a93910160405180910390a1600655565b60008111620002925760405162461bcd60e51b815260206004820152602760248201527f476f7665726e6f7253657474696e67733a20766f74696e6720706572696f6420604482015266746f6f206c6f7760c81b60648201526084015b60405180910390fd5b60075460408051918252602082018390527f7e3f7f0708a84de9203036abaa450dccc85ad5ff52f78c170f3edb55cf5e8828910160405180910390a1600755565b60085460408051918252602082018390527fccb45da8d5717e6c4544694297c4ba5cf151d455c9bb0ed4fc7a38411bc05461910160405180910390a1600855565b600954604080516001600160a01b03928316815291831660208301527f08f74ea46ef7894f65eabfb5e6e695de773a000b47c529ab559178069b226401910160405180910390a1600980546001600160a01b0319166001600160a01b0392909216919091179055565b6064811115620004025760405162461bcd60e51b815260206004820152604360248201527f476f7665726e6f72566f74657351756f72756d4672616374696f6e3a2071756f60448201527f72756d4e756d657261746f72206f7665722071756f72756d44656e6f6d696e616064820152623a37b960e91b608482015260a40162000289565b60006200040e6200053f565b90508015801590620004205750600c54155b1562000488576040805180820190915260008152600c906020810162000446846200056e565b6001600160e01b0390811690915282546001810184556000938452602093849020835194909301519091166401000000000263ffffffff909316929092179101555b620004bd620004a86200049a620005dd565b65ffffffffffff1662000654565b620004b3846200056e565b600c9190620006bb565b505060408051828152602081018490527f0553476bf02ef2726e8ce5ced78d63e26e602e4a2257b1f559418e24b4633997910160405180910390a15050565b600080829050601f815111156200052a578260405163305a27a960e01b815260040162000289919062000b0a565b8051620005378262000b5b565b179392505050565b600c5460009015620005655762000557600c620006d8565b6001600160e01b0316905090565b600b545b905090565b60006001600160e01b03821115620005d95760405162461bcd60e51b815260206004820152602760248201527f53616665436173743a2076616c756520646f65736e27742066697420696e20326044820152663234206269747360c81b606482015260840162000289565b5090565b6000610160516001600160a01b03166391ddadf46040518163ffffffff1660e01b8152600401602060405180830381865afa9250505080156200063f575060408051601f3d908101601f191682019092526200063c9181019062000b80565b60015b6200064f57620005694362000726565b919050565b600063ffffffff821115620005d95760405162461bcd60e51b815260206004820152602660248201527f53616665436173743a2076616c756520646f65736e27742066697420696e203360448201526532206269747360d01b606482015260840162000289565b600080620006cb8585856200078f565b915091505b935093915050565b805460009080156200071c576200070483620006f660018462000baa565b600091825260209091200190565b5464010000000090046001600160e01b03166200071f565b60005b9392505050565b600065ffffffffffff821115620005d95760405162461bcd60e51b815260206004820152602660248201527f53616665436173743a2076616c756520646f65736e27742066697420696e203460448201526538206269747360d01b606482015260840162000289565b825460009081908015620008e4576000620007b187620006f660018562000baa565b60408051808201909152905463ffffffff8082168084526401000000009092046001600160e01b031660208401529192509087161015620008355760405162461bcd60e51b815260206004820152601b60248201527f436865636b706f696e743a2064656372656173696e67206b6579730000000000604482015260640162000289565b805163ffffffff8088169116036200088357846200085a88620006f660018662000baa565b80546001600160e01b03929092166401000000000263ffffffff909216919091179055620008d3565b6040805180820190915263ffffffff80881682526001600160e01b0380881660208085019182528b54600181018d5560008d81529190912094519151909216640100000000029216919091179101555b602001519250839150620006d09050565b50506040805180820190915263ffffffff80851682526001600160e01b0380851660208085019182528854600181018a5560008a815291822095519251909316640100000000029190931617920191909155905081620006d0565b6001600160a01b03811681146200095557600080fd5b50565b600080604083850312156200096c57600080fd5b825162000979816200093f565b60208401519092506200098c816200093f565b809150509250929050565b634e487b7160e01b600052604160045260246000fd5b600181811c90821680620009c257607f821691505b602082108103620009e357634e487b7160e01b600052602260045260246000fd5b50919050565b601f82111562000a39576000816000526020600020601f850160051c8101602086101562000a145750805b601f850160051c820191505b8181101562000a355782815560010162000a20565b5050505b505050565b81516001600160401b0381111562000a5a5762000a5a62000997565b62000a728162000a6b8454620009ad565b84620009e9565b602080601f83116001811462000aaa576000841562000a915750858301515b600019600386901b1c1916600185901b17855562000a35565b600085815260208120601f198616915b8281101562000adb5788860151825594840194600190910190840162000aba565b508582101562000afa5787850151600019600388901b60f8161c191681555b5050505050600190811b01905550565b60006020808352835180602085015260005b8181101562000b3a5785810183015185820160400152820162000b1c565b506000604082860101526040601f19601f8301168501019250505092915050565b80516020808301519190811015620009e35760001960209190910360031b1b16919050565b60006020828403121562000b9357600080fd5b815165ffffffffffff811681146200071f57600080fd5b81810381811115620001e557634e487b7160e01b600052601160045260246000fd5b60805160a05160c05160e05161010051610120516101405161016051614d4462000c4e60003960008181610acb015281816112c301528181611ae5015281816120640152612c4f01526000611a7501526000611a4b015260006130800152600061305801526000612fb301526000612fdd015260006130070152614d446000f3fe6080604052600436106103015760003560e01c80637b3c71d31161018f578063c01f9e37116100e1578063ea0217cf1161008a578063f23a6e6111610064578063f23a6e6114610a54578063f8ce560a14610a99578063fc0c546a14610ab957600080fd5b8063ea0217cf146109f4578063eb9019d414610a14578063ece40cc114610a3457600080fd5b8063d33219b4116100bb578063d33219b41461095c578063dd4e2ba51461097a578063deaaa7cc146109c057600080fd5b8063c01f9e37146108ef578063c28bc2fa14610929578063c59057e41461093c57600080fd5b80639a802a6d11610143578063ab58fb8e1161011d578063ab58fb8e14610875578063b58131b014610895578063bc197c81146108aa57600080fd5b80639a802a6d14610820578063a7713a7014610840578063a890c9101461085557600080fd5b806384b0196e1161017457806384b0196e146107b857806391ddadf4146107e057806397c3d3341461080c57600080fd5b80637b3c71d3146107785780637d5e81e21461079857600080fd5b80633932abb111610253578063544ffc9c116101fc5780635f398a14116101d65780635f398a141461071857806360c4247f1461073857806370b0f6601461075857600080fd5b8063544ffc9c1461065d57806354fd4d50146106b257806356781388146106f857600080fd5b8063438596321161022d57806343859632146105de578063452115d6146106285780634bf5d7e91461064857600080fd5b80633932abb11461057c5780633bccf4fd146105915780633e4f49e6146105b157600080fd5b8063143489d0116102b55780632656227d1161028f5780632656227d146104fe5780632d63f693146105115780632fe3e2611461054857600080fd5b8063143489d014610427578063150b7a0214610481578063160cbed7146104de57600080fd5b806303420181116102e657806303420181146103c557806306f3f9e6146103e557806306fdde031461040557600080fd5b806301ffc9a71461037157806302a251a3146103a657600080fd5b3661036c573061030f610aed565b6001600160a01b03161461036a5760405162461bcd60e51b815260206004820152601f60248201527f476f7665726e6f723a206d7573742073656e6420746f206578656375746f720060448201526064015b60405180910390fd5b005b600080fd5b34801561037d57600080fd5b5061039161038c366004613e4e565b610b06565b60405190151581526020015b60405180910390f35b3480156103b257600080fd5b506007545b60405190815260200161039d565b3480156103d157600080fd5b506103b76103e0366004613f9f565b610b17565b3480156103f157600080fd5b5061036a610400366004614046565b610c0f565b34801561041157600080fd5b5061041a610cc9565b60405161039d91906140af565b34801561043357600080fd5b50610469610442366004614046565b6000908152600360205260409020546801000000000000000090046001600160a01b031690565b6040516001600160a01b03909116815260200161039d565b34801561048d57600080fd5b506104c561049c3660046140d7565b7f150b7a0200000000000000000000000000000000000000000000000000000000949350505050565b6040516001600160e01b0319909116815260200161039d565b3480156104ea57600080fd5b506103b76104f93660046142b9565b610d5b565b6103b761050c3660046142b9565b610fe1565b34801561051d57600080fd5b506103b761052c366004614046565b60009081526003602052604090205467ffffffffffffffff1690565b34801561055457600080fd5b506103b77fb3b3f3b703cd84ce352197dcff232b1b5d3cfb2025ce47cf04742d0651f1af8881565b34801561058857600080fd5b506006546103b7565b34801561059d57600080fd5b506103b76105ac366004614349565b61110d565b3480156105bd57600080fd5b506105d16105cc366004614046565b611183565b60405161039d91906143ad565b3480156105ea57600080fd5b506103916105f93660046143d5565b6000828152600d602090815260408083206001600160a01b038516845260030190915290205460ff1692915050565b34801561063457600080fd5b506103b76106433660046142b9565b61118e565b34801561065457600080fd5b5061041a6112bf565b34801561066957600080fd5b50610697610678366004614046565b6000908152600d60205260409020805460018201546002909201549092565b6040805193845260208401929092529082015260600161039d565b3480156106be57600080fd5b5060408051808201909152600181527f3100000000000000000000000000000000000000000000000000000000000000602082015261041a565b34801561070457600080fd5b506103b7610713366004614405565b611381565b34801561072457600080fd5b506103b7610733366004614431565b6113aa565b34801561074457600080fd5b506103b7610753366004614046565b6113f4565b34801561076457600080fd5b5061036a610773366004614046565b6114a6565b34801561078457600080fd5b506103b76107933660046144b5565b61155d565b3480156107a457600080fd5b506103b76107b336600461450f565b6115a5565b3480156107c457600080fd5b506107cd611a3d565b60405161039d9796959493929190614600565b3480156107ec57600080fd5b506107f5611ae1565b60405165ffffffffffff909116815260200161039d565b34801561081857600080fd5b5060646103b7565b34801561082c57600080fd5b506103b761083b36600461467c565b611b6a565b34801561084c57600080fd5b506103b7611b81565b34801561086157600080fd5b5061036a6108703660046146d5565b611bab565b34801561088157600080fd5b506103b7610890366004614046565b611c62565b3480156108a157600080fd5b506103b7611d15565b3480156108b657600080fd5b506104c56108c53660046146f2565b7fbc197c810000000000000000000000000000000000000000000000000000000095945050505050565b3480156108fb57600080fd5b506103b761090a366004614046565b60009081526003602052604090206001015467ffffffffffffffff1690565b61036a610937366004614786565b611d20565b34801561094857600080fd5b506103b76109573660046142b9565b611e5f565b34801561096857600080fd5b506009546001600160a01b0316610469565b34801561098657600080fd5b506040805180820190915260208082527f737570706f72743d627261766f2671756f72756d3d666f722c6162737461696e9082015261041a565b3480156109cc57600080fd5b506103b77f150214d74d59b7d1e90c73fc22ef3d991dd0a76b046543d4d80ab92d2a50328f81565b348015610a0057600080fd5b5061036a610a0f366004614046565b611e99565b348015610a2057600080fd5b506103b7610a2f3660046147ca565b611f50565b348015610a4057600080fd5b5061036a610a4f366004614046565b611f71565b348015610a6057600080fd5b506104c5610a6f3660046147f6565b7ff23a6e610000000000000000000000000000000000000000000000000000000095945050505050565b348015610aa557600080fd5b506103b7610ab4366004614046565b612028565b348015610ac557600080fd5b506104697f000000000000000000000000000000000000000000000000000000000000000081565b6000610b016009546001600160a01b031690565b905090565b6000610b11826120eb565b92915050565b600080610bbb610bb37fb3b3f3b703cd84ce352197dcff232b1b5d3cfb2025ce47cf04742d0651f1af888c8c8c8c604051610b5392919061485f565b60405180910390208b80519060200120604051602001610b98959493929190948552602085019390935260ff9190911660408401526060830152608082015260a00190565b60405160208183030381529060405280519060200120612129565b868686612171565b9050610c018a828b8b8b8080601f0160208091040260200160405190810160405280939291908181526020018383808284376000920191909152508d925061218f915050565b9a9950505050505050505050565b610c17610aed565b6001600160a01b0316336001600160a01b031614610c775760405162461bcd60e51b815260206004820152601860248201527f476f7665726e6f723a206f6e6c79476f7665726e616e636500000000000000006044820152606401610361565b30610c80610aed565b6001600160a01b031614610cbd5760008036604051610ca092919061485f565b604051809103902090505b80610cb660046122ff565b03610cab57505b610cc6816123af565b50565b606060028054610cd89061486f565b80601f0160208091040260200160405190810160405280929190818152602001828054610d049061486f565b8015610d515780601f10610d2657610100808354040283529160200191610d51565b820191906000526020600020905b815481529060010190602001808311610d3457829003601f168201915b5050505050905090565b600080610d6a86868686611e5f565b90506004610d7782611183565b6007811115610d8857610d88614397565b14610ddf5760405162461bcd60e51b815260206004820152602160248201527f476f7665726e6f723a2070726f706f73616c206e6f74207375636365737366756044820152601b60fa1b6064820152608401610361565b600954604080517ff27a0c9200000000000000000000000000000000000000000000000000000000815290516000926001600160a01b03169163f27a0c929160048083019260209291908290030181865afa158015610e42573d6000803e3d6000fd5b505050506040513d601f19601f82011682018060405250810190610e6691906148a9565b6009546040517fb1c5f4270000000000000000000000000000000000000000000000000000000081529192506001600160a01b03169063b1c5f42790610eb9908a908a908a906000908b90600401614956565b602060405180830381865afa158015610ed6573d6000803e3d6000fd5b505050506040513d601f19601f82011682018060405250810190610efa91906148a9565b6000838152600a60205260408082209290925560095491517f8f2a0bb00000000000000000000000000000000000000000000000000000000081526001600160a01b0390921691638f2a0bb091610f5e918b918b918b91908b9089906004016149a4565b600060405180830381600087803b158015610f7857600080fd5b505af1158015610f8c573d6000803e3d6000fd5b505050507f9a2e42fd6722813d69113e7d0079d3d940171428df7373df9c7f7617cfda2892828242610fbe9190614a12565b604080519283526020830191909152015b60405180910390a15095945050505050565b600080610ff086868686611e5f565b90506000610ffd82611183565b9050600481600781111561101357611013614397565b14806110305750600581600781111561102e5761102e614397565b145b6110865760405162461bcd60e51b815260206004820152602160248201527f476f7665726e6f723a2070726f706f73616c206e6f74207375636365737366756044820152601b60fa1b6064820152608401610361565b60008281526003602052604090819020600201805460ff19166001179055517f712ae1383f79ac853f8d882153778e0260ef8f03b504e2866e0593e04d2b291f906110d49084815260200190565b60405180910390a16110e98288888888612538565b6110f682888888886125d2565b61110382888888886125df565b5095945050505050565b604080517f150214d74d59b7d1e90c73fc22ef3d991dd0a76b046543d4d80ab92d2a50328f602082015290810186905260ff85166060820152600090819061115b90610bb390608001610b98565b905061117887828860405180602001604052806000815250612618565b979650505050505050565b6000610b1182612644565b60008061119d86868686611e5f565b905060006111aa82611183565b60078111156111bb576111bb614397565b146112085760405162461bcd60e51b815260206004820152601c60248201527f476f7665726e6f723a20746f6f206c61746520746f2063616e63656c000000006044820152606401610361565b6000818152600360205260409020546801000000000000000090046001600160a01b0316336001600160a01b0316146112a95760405162461bcd60e51b815260206004820152602260248201527f476f7665726e6f723a206f6e6c792070726f706f7365722063616e2063616e6360448201527f656c0000000000000000000000000000000000000000000000000000000000006064820152608401610361565b6112b5868686866127c0565b9695505050505050565b60607f00000000000000000000000000000000000000000000000000000000000000006001600160a01b0316634bf5d7e96040518163ffffffff1660e01b8152600401600060405180830381865afa92505050801561134057506040513d6000823e601f3d908101601f1916820160405261133d9190810190614a25565b60015b61137c575060408051808201909152601d81527f6d6f64653d626c6f636b6e756d6265722666726f6d3d64656661756c74000000602082015290565b919050565b6000803390506113a284828560405180602001604052806000815250612618565b949350505050565b60008033905061117887828888888080601f0160208091040260200160405190810160405280939291908181526020018383808284376000920191909152508a925061218f915050565b600c5460009080820361140b575050600b54919050565b6000600c61141a600184614a93565b8154811061142a5761142a614aa6565b60009182526020918290206040805180820190915291015463ffffffff81168083526401000000009091046001600160e01b0316928201929092529150841061148157602001516001600160e01b03169392505050565b61149561148d856127ce565b600c9061284e565b6001600160e01b0316949350505050565b6114ae610aed565b6001600160a01b0316336001600160a01b03161461150e5760405162461bcd60e51b815260206004820152601860248201527f476f7665726e6f723a206f6e6c79476f7665726e616e636500000000000000006044820152606401610361565b30611517610aed565b6001600160a01b031614611554576000803660405161153792919061485f565b604051809103902090505b8061154d60046122ff565b0361154257505b610cc681612902565b6000803390506112b586828787878080601f01602080910402602001604051908101604052809392919081815260200183838082843760009201919091525061261892505050565b6000336115b28184612943565b6115fe5760405162461bcd60e51b815260206004820152601d60248201527f476f7665726e6f723a2070726f706f73657220726573747269637465640000006044820152606401610361565b6000611608611ae1565b65ffffffffffff16905061161a611d15565b61162983610a2f600185614a93565b101561169d5760405162461bcd60e51b815260206004820152603160248201527f476f7665726e6f723a2070726f706f73657220766f7465732062656c6f77207060448201527f726f706f73616c207468726573686f6c640000000000000000000000000000006064820152608401610361565b60006116b28888888880519060200120611e5f565b9050865188511461170f5760405162461bcd60e51b815260206004820152602160248201527f476f7665726e6f723a20696e76616c69642070726f706f73616c206c656e67746044820152600d60fb1b6064820152608401610361565b855188511461176a5760405162461bcd60e51b815260206004820152602160248201527f476f7665726e6f723a20696e76616c69642070726f706f73616c206c656e67746044820152600d60fb1b6064820152608401610361565b60008851116117bb5760405162461bcd60e51b815260206004820152601860248201527f476f7665726e6f723a20656d7074792070726f706f73616c00000000000000006044820152606401610361565b60008181526003602052604090205467ffffffffffffffff16156118475760405162461bcd60e51b815260206004820152602160248201527f476f7665726e6f723a2070726f706f73616c20616c726561647920657869737460448201527f73000000000000000000000000000000000000000000000000000000000000006064820152608401610361565b600061185260065490565b61185c9084614a12565b9050600061186960075490565b6118739083614a12565b90506040518060e0016040528061188984612a64565b67ffffffffffffffff1681526001600160a01b0387166020820152600060408201526060016118b783612a64565b67ffffffffffffffff9081168252600060208084018290526040808501839052606094850183905288835260038252918290208551815492870151878501519186166001600160e01b031990941693909317680100000000000000006001600160a01b039094168402176001600160e01b03167c010000000000000000000000000000000000000000000000000000000060e09290921c91909102178155938501516080860151908416921c0217600183015560a08301516002909201805460c09094015161ffff1990941692151561ff00191692909217610100931515939093029290921790558a517f7d84a6263ae0d98d3329bd7b46bb4e8d6f98cd35a7adb45c274c8b7fd5ebd5e091859188918e918e918111156119da576119da613ed2565b604051908082528060200260200182016040528015611a0d57816020015b60608152602001906001900390816119f85790505b508d88888f604051611a2799989796959493929190614abc565b60405180910390a1509098975050505050505050565b600060608082808083611a707f000000000000000000000000000000000000000000000000000000000000000083612ae4565b611a9b7f00000000000000000000000000000000000000000000000000000000000000006001612ae4565b604080516000808252602082019092527f0f000000000000000000000000000000000000000000000000000000000000009b939a50919850469750309650945092509050565b60007f00000000000000000000000000000000000000000000000000000000000000006001600160a01b03166391ddadf46040518163ffffffff1660e01b8152600401602060405180830381865afa925050508015611b5d575060408051601f3d908101601f19168201909252611b5a91810190614b94565b60015b61137c57610b0143612b8f565b6000611b77848484612c0d565b90505b9392505050565b600c5460009015611ba457611b96600c612cbc565b6001600160e01b0316905090565b50600b5490565b611bb3610aed565b6001600160a01b0316336001600160a01b031614611c135760405162461bcd60e51b815260206004820152601860248201527f476f7665726e6f723a206f6e6c79476f7665726e616e636500000000000000006044820152606401610361565b30611c1c610aed565b6001600160a01b031614611c595760008036604051611c3c92919061485f565b604051809103902090505b80611c5260046122ff565b03611c4757505b610cc681612ced565b6009546000828152600a60205260408082205490517fd45c44350000000000000000000000000000000000000000000000000000000081526004810191909152909182916001600160a01b039091169063d45c443590602401602060405180830381865afa158015611cd8573d6000803e3d6000fd5b505050506040513d601f19601f82011682018060405250810190611cfc91906148a9565b905080600114611d0c5780611b7a565b60009392505050565b6000610b0160085490565b611d28610aed565b6001600160a01b0316336001600160a01b031614611d885760405162461bcd60e51b815260206004820152601860248201527f476f7665726e6f723a206f6e6c79476f7665726e616e636500000000000000006044820152606401610361565b30611d91610aed565b6001600160a01b031614611dce5760008036604051611db192919061485f565b604051809103902090505b80611dc760046122ff565b03611dbc57505b600080856001600160a01b0316858585604051611dec92919061485f565b60006040518083038185875af1925050503d8060008114611e29576040519150601f19603f3d011682016040523d82523d6000602084013e611e2e565b606091505b5091509150611e568282604051806060016040528060288152602001614ce760289139612d63565b50505050505050565b600084848484604051602001611e789493929190614bbc565b60408051601f19818403018152919052805160209091012095945050505050565b611ea1610aed565b6001600160a01b0316336001600160a01b031614611f015760405162461bcd60e51b815260206004820152601860248201527f476f7665726e6f723a206f6e6c79476f7665726e616e636500000000000000006044820152606401610361565b30611f0a610aed565b6001600160a01b031614611f475760008036604051611f2a92919061485f565b604051809103902090505b80611f4060046122ff565b03611f3557505b610cc681612d7c565b6000611b7a8383611f6c60408051602081019091526000815290565b612c0d565b611f79610aed565b6001600160a01b0316336001600160a01b031614611fd95760405162461bcd60e51b815260206004820152601860248201527f476f7665726e6f723a206f6e6c79476f7665726e616e636500000000000000006044820152606401610361565b30611fe2610aed565b6001600160a01b03161461201f576000803660405161200292919061485f565b604051809103902090505b8061201860046122ff565b0361200d57505b610cc681612e33565b60006064612035836113f4565b6040517f8e539e8c000000000000000000000000000000000000000000000000000000008152600481018590527f00000000000000000000000000000000000000000000000000000000000000006001600160a01b031690638e539e8c90602401602060405180830381865afa1580156120b3573d6000803e3d6000fd5b505050506040513d601f19601f820116820180604052508101906120d791906148a9565b6120e19190614c07565b610b119190614c34565b60006001600160e01b031982167f6e665ced000000000000000000000000000000000000000000000000000000001480610b115750610b1182612e74565b6000610b11612136612fa6565b836040517f19010000000000000000000000000000000000000000000000000000000000008152600281019290925260228201526042902090565b6000806000612182878787876130d1565b9150915061110381613195565b600085815260036020526040812060016121a888611183565b60078111156121b9576121b9614397565b1461222c5760405162461bcd60e51b815260206004820152602360248201527f476f7665726e6f723a20766f7465206e6f742063757272656e746c792061637460448201527f69766500000000000000000000000000000000000000000000000000000000006064820152608401610361565b805460009061224790889067ffffffffffffffff1686612c0d565b905061225688888884886132fa565b83516000036122ab57866001600160a01b03167fb8e138887d0aa13bab447e82de9d5c1777041ecd21ca36ba824ff1e6c07ddda48988848960405161229e9493929190614c56565b60405180910390a2611178565b866001600160a01b03167fe2babfbac5889a709b63bb7f598b324e08bc5a4fb9ec647fb3cbc9ec07eb871289888489896040516122ec959493929190614c7e565b60405180910390a2979650505050505050565b600061231a8254600f81810b600160801b909204900b131590565b15612351576040517f3db2a12a00000000000000000000000000000000000000000000000000000000815260040160405180910390fd5b508054600f0b6000818152600180840160205260408220805492905583547fffffffffffffffffffffffffffffffff000000000000000000000000000000001692016fffffffffffffffffffffffffffffffff169190911790915590565b606481111561244c5760405162461bcd60e51b815260206004820152604360248201527f476f7665726e6f72566f74657351756f72756d4672616374696f6e3a2071756f60448201527f72756d4e756d657261746f72206f7665722071756f72756d44656e6f6d696e6160648201527f746f720000000000000000000000000000000000000000000000000000000000608482015260a401610361565b6000612456611b81565b905080158015906124675750600c54155b156124cc576040805180820190915260008152600c906020810161248a84613492565b6001600160e01b0390811690915282546001810184556000938452602093849020835194909301519091166401000000000263ffffffff909316929092179101555b6124f96124e76124da611ae1565b65ffffffffffff166127ce565b6124f084613492565b600c9190613511565b505060408051828152602081018490527f0553476bf02ef2726e8ce5ced78d63e26e602e4a2257b1f559418e24b4633997910160405180910390a15050565b30612541610aed565b6001600160a01b0316146125cb5760005b84518110156125c957306001600160a01b031685828151811061257757612577614aa6565b60200260200101516001600160a01b0316036125c1576125c18382815181106125a2576125a2614aa6565b602002602001015180519060200120600461352c90919063ffffffff16565b600101612552565b505b5050505050565b6125cb8585858585613571565b306125e8610aed565b6001600160a01b0316146125cb57600454600f81810b600160801b909204900b13156125cb5760006004556125cb565b600061263b8585858561263660408051602081019091526000815290565b61218f565b95945050505050565b600080612650836135fe565b9050600481600781111561266657612666614397565b146126715792915050565b6000838152600a60205260409020548061268c575092915050565b6009546040517f2ab0f529000000000000000000000000000000000000000000000000000000008152600481018390526001600160a01b0390911690632ab0f52990602401602060405180830381865afa1580156126ee573d6000803e3d6000fd5b505050506040513d601f19601f820116820180604052508101906127129190614cc4565b15612721575060079392505050565b6009546040517f584b153e000000000000000000000000000000000000000000000000000000008152600481018390526001600160a01b039091169063584b153e90602401602060405180830381865afa158015612783573d6000803e3d6000fd5b505050506040513d601f19601f820116820180604052508101906127a79190614cc4565b156127b6575060059392505050565b5060029392505050565b600061263b85858585613740565b600063ffffffff82111561284a5760405162461bcd60e51b815260206004820152602660248201527f53616665436173743a2076616c756520646f65736e27742066697420696e203360448201527f32206269747300000000000000000000000000000000000000000000000000006064820152608401610361565b5090565b8154600090818160058111156128ab5760006128698461380b565b6128739085614a93565b60008881526020902090915081015463ffffffff908116908716101561289b578091506128a9565b6128a6816001614a12565b92505b505b60006128b9878785856138f3565b905080156128f5576128de876128d0600184614a93565b600091825260209091200190565b5464010000000090046001600160e01b0316611178565b6000979650505050505050565b60065460408051918252602082018390527fc565b045403dc03c2eea82b81a0465edad9e2e7fc4d97e11421c209da93d7a93910160405180910390a1600655565b8051600090603481101561295b576001915050610b11565b828101601319015173ffffffffffffffffffffffffffffffffffffffff1981167f2370726f706f7365723d30780000000000000000000000000000000000000000146129ac57600192505050610b11565b6000806129ba602885614a93565b90505b83811015612a4357600080612a098884815181106129dd576129dd614aa6565b01602001517fff0000000000000000000000000000000000000000000000000000000000000016613951565b9150915081612a215760019650505050505050610b11565b8060ff166004856001600160a01b0316901b17935050508060010190506129bd565b50856001600160a01b0316816001600160a01b031614935050505092915050565b600067ffffffffffffffff82111561284a5760405162461bcd60e51b815260206004820152602660248201527f53616665436173743a2076616c756520646f65736e27742066697420696e203660448201527f34206269747300000000000000000000000000000000000000000000000000006064820152608401610361565b606060ff8314612afe57612af7836139e3565b9050610b11565b818054612b0a9061486f565b80601f0160208091040260200160405190810160405280929190818152602001828054612b369061486f565b8015612b835780601f10612b5857610100808354040283529160200191612b83565b820191906000526020600020905b815481529060010190602001808311612b6657829003601f168201915b50505050509050610b11565b600065ffffffffffff82111561284a5760405162461bcd60e51b815260206004820152602660248201527f53616665436173743a2076616c756520646f65736e27742066697420696e203460448201527f38206269747300000000000000000000000000000000000000000000000000006064820152608401610361565b6040517f3a46b1a80000000000000000000000000000000000000000000000000000000081526001600160a01b038481166004830152602482018490526000917f000000000000000000000000000000000000000000000000000000000000000090911690633a46b1a890604401602060405180830381865afa158015612c98573d6000803e3d6000fd5b505050506040513d601f19601f82011682018060405250810190611b7791906148a9565b80546000908015611d0c57612cd6836128d0600184614a93565b5464010000000090046001600160e01b0316611b7a565b600954604080516001600160a01b03928316815291831660208301527f08f74ea46ef7894f65eabfb5e6e695de773a000b47c529ab559178069b226401910160405180910390a16009805473ffffffffffffffffffffffffffffffffffffffff19166001600160a01b0392909216919091179055565b60608315612d72575081611b7a565b611b7a8383613a22565b60008111612df25760405162461bcd60e51b815260206004820152602760248201527f476f7665726e6f7253657474696e67733a20766f74696e6720706572696f642060448201527f746f6f206c6f77000000000000000000000000000000000000000000000000006064820152608401610361565b60075460408051918252602082018390527f7e3f7f0708a84de9203036abaa450dccc85ad5ff52f78c170f3edb55cf5e8828910160405180910390a1600755565b60085460408051918252602082018390527fccb45da8d5717e6c4544694297c4ba5cf151d455c9bb0ed4fc7a38411bc05461910160405180910390a1600855565b60007f51159c06000000000000000000000000000000000000000000000000000000007fc6fba1f8000000000000000000000000000000000000000000000000000000007fbf26d897000000000000000000000000000000000000000000000000000000007f79dd796f000000000000000000000000000000000000000000000000000000006001600160e01b03198616821480612f1e57506001600160e01b0319868116908216145b80612f3557506001600160e01b0319868116908516145b80612f6957506001600160e01b031986167f4e2312e000000000000000000000000000000000000000000000000000000000145b806112b557507f01ffc9a7000000000000000000000000000000000000000000000000000000006001600160e01b03198716149695505050505050565b6000306001600160a01b037f000000000000000000000000000000000000000000000000000000000000000016148015612fff57507f000000000000000000000000000000000000000000000000000000000000000046145b1561302957507f000000000000000000000000000000000000000000000000000000000000000090565b610b01604080517f8b73c3c69bb8fe3d512ecc4cf759cc79239f7b179b0ffacaa9a75d522b39400f60208201527f0000000000000000000000000000000000000000000000000000000000000000918101919091527f000000000000000000000000000000000000000000000000000000000000000060608201524660808201523060a082015260009060c00160405160208183030381529060405280519060200120905090565b6000807f7fffffffffffffffffffffffffffffff5d576e7357a4501ddfe92f46681b20a0831115613108575060009050600361318c565b6040805160008082526020820180845289905260ff881692820192909252606081018690526080810185905260019060a0016020604051602081039080840390855afa15801561315c573d6000803e3d6000fd5b5050604051601f1901519150506001600160a01b0381166131855760006001925092505061318c565b9150600090505b94509492505050565b60008160048111156131a9576131a9614397565b036131b15750565b60018160048111156131c5576131c5614397565b036132125760405162461bcd60e51b815260206004820152601860248201527f45434453413a20696e76616c6964207369676e617475726500000000000000006044820152606401610361565b600281600481111561322657613226614397565b036132735760405162461bcd60e51b815260206004820152601f60248201527f45434453413a20696e76616c6964207369676e6174757265206c656e677468006044820152606401610361565b600381600481111561328757613287614397565b03610cc65760405162461bcd60e51b815260206004820152602260248201527f45434453413a20696e76616c6964207369676e6174757265202773272076616c60448201527f75650000000000000000000000000000000000000000000000000000000000006064820152608401610361565b6000858152600d602090815260408083206001600160a01b0388168452600381019092529091205460ff16156133985760405162461bcd60e51b815260206004820152602760248201527f476f7665726e6f72566f74696e6753696d706c653a20766f746520616c72656160448201527f64792063617374000000000000000000000000000000000000000000000000006064820152608401610361565b6001600160a01b03851660009081526003820160205260409020805460ff1916600117905560ff84166133e457828160000160008282546133d99190614a12565b909155506125c99050565b60001960ff85160161340457828160010160008282546133d99190614a12565b60011960ff85160161342457828160020160008282546133d99190614a12565b60405162461bcd60e51b815260206004820152603560248201527f476f7665726e6f72566f74696e6753696d706c653a20696e76616c696420766160448201527f6c756520666f7220656e756d20566f74655479706500000000000000000000006064820152608401610361565b60006001600160e01b0382111561284a5760405162461bcd60e51b815260206004820152602760248201527f53616665436173743a2076616c756520646f65736e27742066697420696e203260448201527f32342062697473000000000000000000000000000000000000000000000000006064820152608401610361565b60008061351f858585613a4c565b915091505b935093915050565b8154600160801b90819004600f0b6000818152600180860160205260409091209390935583546fffffffffffffffffffffffffffffffff908116939091011602179055565b6009546040517fe38335e50000000000000000000000000000000000000000000000000000000081526001600160a01b039091169063e38335e59034906135c5908890889088906000908990600401614956565b6000604051808303818588803b1580156135de57600080fd5b505af11580156135f2573d6000803e3d6000fd5b50505050505050505050565b6000818152600360205260408120600281015460ff16156136225750600792915050565b6002810154610100900460ff161561363d5750600292915050565b60008381526003602052604081205467ffffffffffffffff16908190036136a65760405162461bcd60e51b815260206004820152601d60248201527f476f7665726e6f723a20756e6b6e6f776e2070726f706f73616c2069640000006044820152606401610361565b60006136b0611ae1565b65ffffffffffff1690508082106136cc57506000949350505050565b60008581526003602052604090206001015467ffffffffffffffff168181106136fb5750600195945050505050565b61370486613bef565b801561372357506000868152600d602052604090208054600190910154115b156137345750600495945050505050565b50600395945050505050565b60008061374f86868686613c3c565b6000818152600a60205260409020549091501561263b576009546000828152600a6020526040908190205490517fc4d252f50000000000000000000000000000000000000000000000000000000081526001600160a01b039092169163c4d252f5916137c19160040190815260200190565b600060405180830381600087803b1580156137db57600080fd5b505af11580156137ef573d6000803e3d6000fd5b5050506000828152600a60205260408120555095945050505050565b60008160000361381d57506000919050565b6000600161382a84613d48565b901c6001901b9050600181848161384357613843614c1e565b048201901c9050600181848161385b5761385b614c1e565b048201901c9050600181848161387357613873614c1e565b048201901c9050600181848161388b5761388b614c1e565b048201901c905060018184816138a3576138a3614c1e565b048201901c905060018184816138bb576138bb614c1e565b048201901c905060018184816138d3576138d3614c1e565b048201901c9050611b7a818285816138ed576138ed614c1e565b04613ddc565b60005b8183101561394957600061390a8484613df2565b60008781526020902090915063ffffffff86169082015463ffffffff16111561393557809250613943565b613940816001614a12565b93505b506138f6565b509392505050565b60008060f883901c602f8111801561396c5750603a8160ff16105b1561398157600194602f199091019350915050565b8060ff166040108015613997575060478160ff16105b156139ac576001946036199091019350915050565b8060ff1660601080156139c2575060678160ff16105b156139d7576001946056199091019350915050565b50600093849350915050565b606060006139f083613e0d565b604080516020808252818301909252919250600091906020820181803683375050509182525060208101929092525090565b815115613a325781518083602001fd5b8060405162461bcd60e51b815260040161036191906140af565b825460009081908015613b95576000613a6a876128d0600185614a93565b60408051808201909152905463ffffffff8082168084526401000000009092046001600160e01b031660208401529192509087161015613aec5760405162461bcd60e51b815260206004820152601b60248201527f436865636b706f696e743a2064656372656173696e67206b65797300000000006044820152606401610361565b805163ffffffff808816911603613b355784613b0d886128d0600186614a93565b80546001600160e01b03929092166401000000000263ffffffff909216919091179055613b85565b6040805180820190915263ffffffff80881682526001600160e01b0380881660208085019182528b54600181018d5560008d81529190912094519151909216640100000000029216919091179101555b6020015192508391506135249050565b50506040805180820190915263ffffffff80851682526001600160e01b0380851660208085019182528854600181018a5560008a815291822095519251909316640100000000029190931617920191909155905081613524565b6000818152600d6020526040812060028101546001820154613c119190614a12565b600084815260036020526040902054613c339067ffffffffffffffff16612028565b11159392505050565b600080613c4b86868686611e5f565b90506000613c5882611183565b90506002816007811115613c6e57613c6e614397565b14158015613c8e57506006816007811115613c8b57613c8b614397565b14155b8015613cac57506007816007811115613ca957613ca9614397565b14155b613cf85760405162461bcd60e51b815260206004820152601d60248201527f476f7665726e6f723a2070726f706f73616c206e6f74206163746976650000006044820152606401610361565b60008281526003602052604090819020600201805461ff001916610100179055517f789cf55be980739dad1d0699b93b58e806b51c9d96619bfa8fe0a28abaa7b30c90610fcf9084815260200190565b600080608083901c15613d5d57608092831c92015b604083901c15613d6f57604092831c92015b602083901c15613d8157602092831c92015b601083901c15613d9357601092831c92015b600883901c15613da557600892831c92015b600483901c15613db757600492831c92015b600283901c15613dc957600292831c92015b600183901c15610b115760010192915050565b6000818310613deb5781611b7a565b5090919050565b6000613e016002848418614c34565b611b7a90848416614a12565b600060ff8216601f811115610b11576040517fb3512b0c00000000000000000000000000000000000000000000000000000000815260040160405180910390fd5b600060208284031215613e6057600080fd5b81356001600160e01b031981168114611b7a57600080fd5b803560ff8116811461137c57600080fd5b60008083601f840112613e9b57600080fd5b50813567ffffffffffffffff811115613eb357600080fd5b602083019150836020828501011115613ecb57600080fd5b9250929050565b634e487b7160e01b600052604160045260246000fd5b604051601f8201601f1916810167ffffffffffffffff81118282101715613f1157613f11613ed2565b604052919050565b600067ffffffffffffffff821115613f3357613f33613ed2565b50601f01601f191660200190565b6000613f54613f4f84613f19565b613ee8565b9050828152838383011115613f6857600080fd5b828260208301376000602084830101529392505050565b600082601f830112613f9057600080fd5b611b7a83833560208501613f41565b60008060008060008060008060e0898b031215613fbb57600080fd5b88359750613fcb60208a01613e78565b9650604089013567ffffffffffffffff80821115613fe857600080fd5b613ff48c838d01613e89565b909850965060608b013591508082111561400d57600080fd5b5061401a8b828c01613f7f565b94505061402960808a01613e78565b925060a0890135915060c089013590509295985092959890939650565b60006020828403121561405857600080fd5b5035919050565b60005b8381101561407a578181015183820152602001614062565b50506000910152565b6000815180845261409b81602086016020860161405f565b601f01601f19169290920160200192915050565b602081526000611b7a6020830184614083565b6001600160a01b0381168114610cc657600080fd5b600080600080608085870312156140ed57600080fd5b84356140f8816140c2565b93506020850135614108816140c2565b925060408501359150606085013567ffffffffffffffff81111561412b57600080fd5b61413787828801613f7f565b91505092959194509250565b600067ffffffffffffffff82111561415d5761415d613ed2565b5060051b60200190565b600082601f83011261417857600080fd5b81356020614188613f4f83614143565b8083825260208201915060208460051b8701019350868411156141aa57600080fd5b602086015b848110156141cf5780356141c2816140c2565b83529183019183016141af565b509695505050505050565b600082601f8301126141eb57600080fd5b813560206141fb613f4f83614143565b8083825260208201915060208460051b87010193508684111561421d57600080fd5b602086015b848110156141cf5780358352918301918301614222565b600082601f83011261424a57600080fd5b8135602061425a613f4f83614143565b82815260059290921b8401810191818101908684111561427957600080fd5b8286015b848110156141cf57803567ffffffffffffffff81111561429d5760008081fd5b6142ab8986838b0101613f7f565b84525091830191830161427d565b600080600080608085870312156142cf57600080fd5b843567ffffffffffffffff808211156142e757600080fd5b6142f388838901614167565b9550602087013591508082111561430957600080fd5b614315888389016141da565b9450604087013591508082111561432b57600080fd5b5061433887828801614239565b949793965093946060013593505050565b600080600080600060a0868803121561436157600080fd5b8535945061437160208701613e78565b935061437f60408701613e78565b94979396509394606081013594506080013592915050565b634e487b7160e01b600052602160045260246000fd5b60208101600883106143cf57634e487b7160e01b600052602160045260246000fd5b91905290565b600080604083850312156143e857600080fd5b8235915060208301356143fa816140c2565b809150509250929050565b6000806040838503121561441857600080fd5b8235915061442860208401613e78565b90509250929050565b60008060008060006080868803121561444957600080fd5b8535945061445960208701613e78565b9350604086013567ffffffffffffffff8082111561447657600080fd5b61448289838a01613e89565b9095509350606088013591508082111561449b57600080fd5b506144a888828901613f7f565b9150509295509295909350565b600080600080606085870312156144cb57600080fd5b843593506144db60208601613e78565b9250604085013567ffffffffffffffff8111156144f757600080fd5b61450387828801613e89565b95989497509550505050565b6000806000806080858703121561452557600080fd5b843567ffffffffffffffff8082111561453d57600080fd5b61454988838901614167565b9550602087013591508082111561455f57600080fd5b61456b888389016141da565b9450604087013591508082111561458157600080fd5b61458d88838901614239565b935060608701359150808211156145a357600080fd5b508501601f810187136145b557600080fd5b61413787823560208401613f41565b60008151808452602080850194506020840160005b838110156145f5578151875295820195908201906001016145d9565b509495945050505050565b7fff000000000000000000000000000000000000000000000000000000000000008816815260e06020820152600061463b60e0830189614083565b828103604084015261464d8189614083565b90508660608401526001600160a01b03861660808401528460a084015282810360c0840152610c0181856145c4565b60008060006060848603121561469157600080fd5b833561469c816140c2565b925060208401359150604084013567ffffffffffffffff8111156146bf57600080fd5b6146cb86828701613f7f565b9150509250925092565b6000602082840312156146e757600080fd5b8135611b7a816140c2565b600080600080600060a0868803121561470a57600080fd5b8535614715816140c2565b94506020860135614725816140c2565b9350604086013567ffffffffffffffff8082111561474257600080fd5b61474e89838a016141da565b9450606088013591508082111561476457600080fd5b61477089838a016141da565b9350608088013591508082111561449b57600080fd5b6000806000806060858703121561479c57600080fd5b84356147a7816140c2565b935060208501359250604085013567ffffffffffffffff8111156144f757600080fd5b600080604083850312156147dd57600080fd5b82356147e8816140c2565b946020939093013593505050565b600080600080600060a0868803121561480e57600080fd5b8535614819816140c2565b94506020860135614829816140c2565b93506040860135925060608601359150608086013567ffffffffffffffff81111561485357600080fd5b6144a888828901613f7f565b8183823760009101908152919050565b600181811c9082168061488357607f821691505b6020821081036148a357634e487b7160e01b600052602260045260246000fd5b50919050565b6000602082840312156148bb57600080fd5b5051919050565b60008151808452602080850194506020840160005b838110156145f55781516001600160a01b0316875295820195908201906001016148d7565b60008282518085526020808601955060208260051b8401016020860160005b8481101561494957601f19868403018952614937838351614083565b9884019892509083019060010161491b565b5090979650505050505050565b60a08152600061496960a08301886148c2565b828103602084015261497b81886145c4565b9050828103604084015261498f81876148fc565b60608401959095525050608001529392505050565b60c0815260006149b760c08301896148c2565b82810360208401526149c981896145c4565b905082810360408401526149dd81886148fc565b60608401969096525050608081019290925260a0909101529392505050565b634e487b7160e01b600052601160045260246000fd5b80820180821115610b1157610b116149fc565b600060208284031215614a3757600080fd5b815167ffffffffffffffff811115614a4e57600080fd5b8201601f81018413614a5f57600080fd5b8051614a6d613f4f82613f19565b818152856020838501011115614a8257600080fd5b61263b82602083016020860161405f565b81810381811115610b1157610b116149fc565b634e487b7160e01b600052603260045260246000fd5b60006101208b835260206001600160a01b038c1681850152816040850152614ae68285018c6148c2565b91508382036060850152614afa828b6145c4565b915083820360808501528189518084528284019150828160051b850101838c0160005b83811015614b4b57601f19878403018552614b39838351614083565b94860194925090850190600101614b1d565b505086810360a0880152614b5f818c6148fc565b9450505050508560c08401528460e0840152828103610100840152614b848185614083565b9c9b505050505050505050505050565b600060208284031215614ba657600080fd5b815165ffffffffffff81168114611b7a57600080fd5b608081526000614bcf60808301876148c2565b8281036020840152614be181876145c4565b90508281036040840152614bf581866148fc565b91505082606083015295945050505050565b8082028115828204841417610b1157610b116149fc565b634e487b7160e01b600052601260045260246000fd5b600082614c5157634e487b7160e01b600052601260045260246000fd5b500490565b84815260ff841660208201528260408201526080606082015260006112b56080830184614083565b85815260ff8516602082015283604082015260a060608201526000614ca660a0830185614083565b8281036080840152614cb88185614083565b98975050505050505050565b600060208284031215614cd657600080fd5b81518015158114611b7a57600080fdfe476f7665726e6f723a2072656c617920726576657274656420776974686f7574206d657373616765a26469706673582212202ca5d609ee56cc98b90f391842942769fbeba3ef04cb708c231fcf7b50252cda64736f6c63430008180033",
  "linkReferences": {},
  "deployedLinkReferences": {}
}