{
  "_format": "hh-sol-artifact-1",
  "contractName": "KalaKrutNFT",
  "sourceName": "contracts/KalaKrutNFT.sol",
  "abi": [
    {
      "inputs": [
        {
          "internalType": "address",
          "name": "initialOwner",
          "type": "address"
        },
        {
          "internalType": "string",
          "name": "name",
          "type": "string"
        },
        {
          "internalType": "string",
          "name": "symbol",
          "type": "string"
        }
      ],
      "stateMutability": "nonpayable",
      "type": "constructor"
    },
    {
      "anonymous": false,
      "inputs": [
        {
          "indexed": true,
          "internalType": "address",
          "name": "owner",
          "type": "address"
        },
        {
          "indexed": true,
          "internalType": "address",
          "name": "approved",
          "type": "address"
        },
        {
          "indexed": true,
          "internalType": "uint256",
          "name": "tokenId",
          "type": "uint256"
        }
      ],
      "name": "Approval",
      "type": "event"
    },
    {
      "anonymous": false,
      "inputs": [
        {
          "indexed": true,
          "internalType": "address",
          "name": "owner",
          "type": "address"
        },
        {
          "indexed": true,
          "internalType": "address",
          "name": "operator",
          "type": "address"
        },
        {
          "indexed": false,
          "internalType": "bool",
          "name": "approved",
          "type": "bool"
        }
      ],
      "name": "ApprovalForAll",
      "type": "event"
    },
    {
      "anonymous": false,
      "inputs": [
        {
          "indexed": false,
          "internalType": "uint256",
          "name": "_fromTokenId",
          "type": "uint256"
        },
        {
          "indexed": false,
          "internalType": "uint256",
          "name": "_toTokenId",
          "type": "uint256"
        }
      ],
      "name": "BatchMetadataUpdate",
      "type": "event"
    },
    {
      "anonymous": false,
      "inputs": [
        {
          "indexed": false,
          "internalType": "uint256",
          "name": "_tokenId",
          "type": "uint256"
        }
      ],
      "name": "MetadataUpdate",
      "type": "event"
    },
    {
      "anonymous": false,
      "inputs": [
        {
          "indexed": true,
          "internalType": "address",
          "name": "previousOwner",
          "type": "address"
        },
        {
          "indexed": true,
          "internalType": "address",
          "name": "newOwner",
          "type": "address"
        }
      ],
      "name": "OwnershipTransferred",
      "type": "event"
    },
    {
      "anonymous": false,
      "inputs": [
        {
          "indexed": false,
          "internalType": "address",
          "name": "account",
          "type": "address"
        }
      ],
      "name": "Paused",
      "type": "event"
    },
    {
      "anonymous": false,
      "inputs": [
        {
          "indexed": true,
          "internalType": "address",
          "name": "from",
          "type": "address"
        },
        {
          "indexed": true,
          "internalType": "address",
          "name": "to",
          "type": "address"
        },
        {
          "indexed": true,
          "internalType": "uint256",
          "name": "tokenId",
          "type": "uint256"
        }
      ],
      "name": "Transfer",
      "type": "event"
    },
    {
      "anonymous": false,
      "inputs": [
        {
          "indexed": false,
          "internalType": "address",
          "name": "account",
          "type": "address"
        }
      ],
      "name": "Unpaused",
      "type": "event"
    },
    {
      "inputs": [
        {
          "internalType": "address",
          "name": "to",
          "type": "address"
        },
        {
          "internalType": "uint256",
          "name": "tokenId",
          "type": "uint256"
        }
      ],
      "name": "approve",
      "outputs": [],
      "stateMutability": "nonpayable",
      "type": "function"
    },
    {
      "inputs": [
        {
          "internalType": "address",
          "name": "owner",
          "type": "address"
        }
      ],
      "name": "balanceOf",
      "outputs": [
        {
          "internalType": "uint256",
          "name": "",
          "type": "uint256"
        }
      ],
      "stateMutability": "view",
      "type": "function"
    },
    {
      "inputs": [
        {
          "internalType": "uint256",
          "name": "tokenId",
          "type": "uint256"
        }
      ],
      "name": "burn",
      "outputs": [],
      "stateMutability": "nonpayable",
      "type": "function"
    },
    {
      "inputs": [
        {
          "internalType": "uint256",
          "name": "tokenId",
          "type": "uint256"
        }
      ],
      "name": "getApproved",
      "outputs": [
        {
          "internalType": "address",
          "name": "",
          "type": "address"
        }
      ],
      "stateMutability": "view",
      "type": "function"
    },
    {
      "inputs": [
        {
          "internalType": "address",
          "name": "owner",
          "type": "address"
        },
        {
          "internalType": "address",
          "name": "operator",
          "type": "address"
        }
      ],
      "name": "isApprovedForAll",
      "outputs": [
        {
          "internalType": "bool",
          "name": "",
          "type": "bool"
        }
      ],
      "stateMutability": "view",
      "type": "function"
    },
    {
      "inputs": [],
      "name": "name",
      "outputs": [
        {
          "internalType": "string",
          "name": "",
          "type": "string"
        }
      ],
      "stateMutability": "view",
      "type": "function"
    },
    {
      "inputs": [],
      "name": "owner",
      "outputs": [
        {
          "internalType": "address",
          "name": "",
          "type": "address"
        }
      ],
      "stateMutability": "view",
      "type": "function"
    },
    {
      "inputs": [
        {
          "internalType": "uint256",
          "name": "tokenId",
          "type": "uint256"
        }
      ],
      "name": "ownerOf",
      "outputs": [
        {
          "internalType": "address",
          "name": "",
          "type": "address"
        }
      ],
      "stateMutability": "view",
      "type": "function"
    },
    {
      "inputs": [],
      "name": "pause",
      "outputs": [],
      "stateMutability": "nonpayable",
      "type": "function"
    },
    {
      "inputs": [],
      "name": "paused",
      "outputs": [
        {
          "internalType": "bool",
          "name": "",
          "type": "bool"
        }
      ],
      "stateMutability": "view",
      "type": "function"
    },
    {
      "inputs": [],
      "name": "renounceOwnership",
      "outputs": [],
      "stateMutability": "nonpayable",
      "type": "function"
    },
    {
      "inputs": [
        {
          "internalType": "address",
          "name": "to",
          "type": "address"
        },
        {
          "internalType": "string",
          "name": "uri",
          "type": "string"
        }
      ],
      "name": "safeMint",
      "outputs": [],
      "stateMutability": "nonpayable",
      "type": "function"
    },
    {
      "inputs": [
        {
          "internalType": "address",
          "name": "from",
          "type": "address"
        },
        {
          "internalType": "address",
          "name": "to",
          "type": "address"
        },
        {
          "internalType": "uint256",
          "name": "tokenId",
          "type": "uint256"
        }
      ],
      "name": "safeTransferFrom",
      "outputs": [],
      "stateMutability": "nonpayable",
      "type": "function"
    },
    {
      "inputs": [
        {
          "internalType": "address",
          "name": "from",
          "type": "address"
        },
        {
          "internalType": "address",
          "name": "to",
          "type": "address"
        },
        {
          "internalType": "uint256",
          "name": "tokenId",
          "type": "uint256"
        },
        {
          "internalType": "bytes",
          "name": "data",
          "type": "bytes"
        }
      ],
      "name": "safeTransferFrom",
      "outputs": [],
      "stateMutability": "nonpayable",
      "type": "function"
    },
    {
      "inputs": [
        {
          "internalType": "address",
          "name": "operator",
          "type": "address"
        },
        {
          "internalType": "bool",
          "name": "approved",
          "type": "bool"
        }
      ],
      "name": "setApprovalForAll",
      "outputs": [],
      "stateMutability": "nonpayable",
      "type": "function"
    },
    {
      "inputs": [
        {
          "internalType": "bytes4",
          "name": "interfaceId",
          "type": "bytes4"
        }
      ],
      "name": "supportsInterface",
      "outputs": [
        {
          "internalType": "bool",
          "name": "",
          "type": "bool"
        }
      ],
      "stateMutability": "view",
      "type": "function"
    },
    {
      "inputs": [],
      "name": "symbol",
      "outputs": [
        {
          "internalType": "string",
          "name": "",
          "type": "string"
        }
      ],
      "stateMutability": "view",
      "type": "function"
    },
    {
      "inputs": [
        {
          "internalType": "uint256",
          "name": "tokenId",
          "type": "uint256"
        }
      ],
      "name": "tokenURI",
      "outputs": [
        {
          "internalType": "string",
          "name": "",
          "type": "string"
        }
      ],
      "stateMutability": "view",
      "type": "function"
    },
    {
      "inputs": [
        {
          "internalType": "address",
          "name": "from",
          "type": "address"
        },
        {
          "internalType": "address",
          "name": "to",
          "type": "address"
        },
        {
          "internalType": "uint256",
          "name": "tokenId",
          "type": "uint256"
        }
      ],
      "name": "transferFrom",
      "outputs": [],
      "stateMutability": "nonpayable",
      "type": "function"
    },
    {
      "inputs": [
        {
          "internalType": "address",
          "name": "newOwner",
          "type": "address"
        }
      ],
      "name": "transferOwnership",
      "outputs": [],
      "stateMutability": "nonpayable",
      "type": "function"
    },
    {
      "inputs": [],
      "name": "unpause",
      "outputs": [],
      "stateMutability": "nonpayable",
      "type": "function"
    }
  ],
  "bytecode": "0x60806040523480156200001157600080fd5b506040516200235138038062002351833981016040819052620000349162000290565b81816000620000448382620003ab565b506001620000538282620003ab565b505050620000706200006a6200009160201b60201c565b62000095565b6006805460ff60a01b191690556200008883620000e7565b50505062000477565b3390565b600680546001600160a01b038381166001600160a01b0319831681179093556040519116919082907f8be0079c531659141344cd1fd0a4f28419497f9722a3daafe3b4186f6b6457e090600090a35050565b620000f16200016a565b6001600160a01b0381166200015c5760405162461bcd60e51b815260206004820152602660248201527f4f776e61626c653a206e6577206f776e657220697320746865207a65726f206160448201526564647265737360d01b60648201526084015b60405180910390fd5b620001678162000095565b50565b6006546001600160a01b03163314620001c65760405162461bcd60e51b815260206004820181905260248201527f4f776e61626c653a2063616c6c6572206973206e6f7420746865206f776e6572604482015260640162000153565b565b634e487b7160e01b600052604160045260246000fd5b600082601f830112620001f057600080fd5b81516001600160401b03808211156200020d576200020d620001c8565b604051601f8301601f19908116603f01168101908282118183101715620002385762000238620001c8565b81604052838152602092508660208588010111156200025657600080fd5b600091505b838210156200027a57858201830151818301840152908201906200025b565b6000602085830101528094505050505092915050565b600080600060608486031215620002a657600080fd5b83516001600160a01b0381168114620002be57600080fd5b60208501519093506001600160401b0380821115620002dc57600080fd5b620002ea87838801620001de565b935060408601519150808211156200030157600080fd5b506200031086828701620001de565b9150509250925092565b600181811c908216806200032f57607f821691505b6020821081036200035057634e487b7160e01b600052602260045260246000fd5b50919050565b601f821115620003a6576000816000526020600020601f850160051c81016020861015620003815750805b601f850160051c820191505b81811015620003a2578281556001016200038d565b5050505b505050565b81516001600160401b03811115620003c757620003c7620001c8565b620003df81620003d884546200031a565b8462000356565b602080601f831160018114620004175760008415620003fe5750858301515b600019600386901b1c1916600185901b178555620003a2565b600085815260208120601f198616915b82811015620004485788860151825594840194600190910190840162000427565b5085821015620004675787850151600019600388901b60f8161c191681555b5050505050600190811b01905550565b611eca80620004876000396000f3fe608060405234801561001057600080fd5b50600436106101775760003560e01c806370a08231116100d8578063a22cb4651161008c578063d204c45e11610066578063d204c45e146102e2578063e985e9c5146102f5578063f2fde38b1461033157600080fd5b8063a22cb465146102a9578063b88d4fde146102bc578063c87b56dd146102cf57600080fd5b80638456cb59116100bd5780638456cb59146102885780638da5cb5b1461029057806395d89b41146102a157600080fd5b806370a082311461025f578063715018a61461028057600080fd5b80633f4ba83a1161012f57806342966c681161011457806342966c68146102275780635c975abb1461023a5780636352211e1461024c57600080fd5b80633f4ba83a1461020c57806342842e0e1461021457600080fd5b8063081812fc11610160578063081812fc146101b9578063095ea7b3146101e457806323b872dd146101f957600080fd5b806301ffc9a71461017c57806306fdde03146101a4575b600080fd5b61018f61018a36600461198c565b610344565b60405190151581526020015b60405180910390f35b6101ac610355565b60405161019b91906119f9565b6101cc6101c7366004611a0c565b6103e7565b6040516001600160a01b03909116815260200161019b565b6101f76101f2366004611a41565b61040e565b005b6101f7610207366004611a6b565b610544565b6101f76105bc565b6101f7610222366004611a6b565b6105ce565b6101f7610235366004611a0c565b6105e9565b600654600160a01b900460ff1661018f565b6101cc61025a366004611a0c565b610660565b61027261026d366004611aa7565b6106c5565b60405190815260200161019b565b6101f761075f565b6101f7610771565b6006546001600160a01b03166101cc565b6101ac610781565b6101f76102b7366004611ac2565b610790565b6101f76102ca366004611b8a565b61079f565b6101ac6102dd366004611a0c565b61081d565b6101f76102f0366004611c06565b610828565b61018f610303366004611c68565b6001600160a01b03918216600090815260056020908152604080832093909416825291909152205460ff1690565b6101f761033f366004611aa7565b61085b565b600061034f826108e8565b92915050565b60606000805461036490611c9b565b80601f016020809104026020016040519081016040528092919081815260200182805461039090611c9b565b80156103dd5780601f106103b2576101008083540402835291602001916103dd565b820191906000526020600020905b8154815290600101906020018083116103c057829003601f168201915b5050505050905090565b60006103f282610926565b506000908152600460205260409020546001600160a01b031690565b600061041982610660565b9050806001600160a01b0316836001600160a01b0316036104a75760405162461bcd60e51b815260206004820152602160248201527f4552433732313a20617070726f76616c20746f2063757272656e74206f776e6560448201527f720000000000000000000000000000000000000000000000000000000000000060648201526084015b60405180910390fd5b336001600160a01b03821614806104c357506104c38133610303565b6105355760405162461bcd60e51b815260206004820152603d60248201527f4552433732313a20617070726f76652063616c6c6572206973206e6f7420746f60448201527f6b656e206f776e6572206f7220617070726f76656420666f7220616c6c000000606482015260840161049e565b61053f838361098a565b505050565b61054f335b826109f8565b6105b15760405162461bcd60e51b815260206004820152602d60248201527f4552433732313a2063616c6c6572206973206e6f7420746f6b656e206f776e6560448201526c1c881bdc88185c1c1c9bdd9959609a1b606482015260840161049e565b61053f838383610a77565b6105c4610c7d565b6105cc610cd7565b565b61053f8383836040518060200160405280600081525061079f565b6105f233610549565b6106545760405162461bcd60e51b815260206004820152602d60248201527f4552433732313a2063616c6c6572206973206e6f7420746f6b656e206f776e6560448201526c1c881bdc88185c1c1c9bdd9959609a1b606482015260840161049e565b61065d81610d2c565b50565b6000818152600260205260408120546001600160a01b03168061034f5760405162461bcd60e51b815260206004820152601860248201527f4552433732313a20696e76616c696420746f6b656e2049440000000000000000604482015260640161049e565b60006001600160a01b0382166107435760405162461bcd60e51b815260206004820152602960248201527f4552433732313a2061646472657373207a65726f206973206e6f74206120766160448201527f6c6964206f776e65720000000000000000000000000000000000000000000000606482015260840161049e565b506001600160a01b031660009081526003602052604090205490565b610767610c7d565b6105cc6000610d35565b610779610c7d565b6105cc610d87565b60606001805461036490611c9b565b61079b338383610dca565b5050565b6107a933836109f8565b61080b5760405162461bcd60e51b815260206004820152602d60248201527f4552433732313a2063616c6c6572206973206e6f7420746f6b656e206f776e6560448201526c1c881bdc88185c1c1c9bdd9959609a1b606482015260840161049e565b61081784848484610e98565b50505050565b606061034f82610f16565b610830610c7d565b600880546000918261084183611cd5565b919050559050610851838261101e565b61053f8183611038565b610863610c7d565b6001600160a01b0381166108df5760405162461bcd60e51b815260206004820152602660248201527f4f776e61626c653a206e6577206f776e657220697320746865207a65726f206160448201527f6464726573730000000000000000000000000000000000000000000000000000606482015260840161049e565b61065d81610d35565b60006001600160e01b031982167f4906490600000000000000000000000000000000000000000000000000000000148061034f575061034f82611112565b6000818152600260205260409020546001600160a01b031661065d5760405162461bcd60e51b815260206004820152601860248201527f4552433732313a20696e76616c696420746f6b656e2049440000000000000000604482015260640161049e565b600081815260046020526040902080546001600160a01b0319166001600160a01b03841690811790915581906109bf82610660565b6001600160a01b03167f8c5be1e5ebec7d5bd14f71427d1e84f3dd0314c0f7b2291e5b200ac8c7c3b92560405160405180910390a45050565b600080610a0483610660565b9050806001600160a01b0316846001600160a01b03161480610a4b57506001600160a01b0380821660009081526005602090815260408083209388168352929052205460ff165b80610a6f5750836001600160a01b0316610a64846103e7565b6001600160a01b0316145b949350505050565b826001600160a01b0316610a8a82610660565b6001600160a01b031614610aee5760405162461bcd60e51b815260206004820152602560248201527f4552433732313a207472616e736665722066726f6d20696e636f72726563742060448201526437bbb732b960d91b606482015260840161049e565b6001600160a01b038216610b695760405162461bcd60e51b8152602060048201526024808201527f4552433732313a207472616e7366657220746f20746865207a65726f2061646460448201527f7265737300000000000000000000000000000000000000000000000000000000606482015260840161049e565b610b7683838360016111ad565b826001600160a01b0316610b8982610660565b6001600160a01b031614610bed5760405162461bcd60e51b815260206004820152602560248201527f4552433732313a207472616e736665722066726f6d20696e636f72726563742060448201526437bbb732b960d91b606482015260840161049e565b600081815260046020908152604080832080546001600160a01b03199081169091556001600160a01b0387811680865260038552838620805460001901905590871680865283862080546001019055868652600290945282852080549092168417909155905184937fddf252ad1be2c89b69c2b068fc378daa952ba7f163c4a11628f55a4df523b3ef91a4505050565b6006546001600160a01b031633146105cc5760405162461bcd60e51b815260206004820181905260248201527f4f776e61626c653a2063616c6c6572206973206e6f7420746865206f776e6572604482015260640161049e565b610cdf6111b9565b6006805460ff60a01b191690557f5db9ee0a495bf2e6ff9c91a7834c1ba4fdd244a5e8aa4e537bd38aeae4b073aa335b6040516001600160a01b03909116815260200160405180910390a1565b61065d81611212565b600680546001600160a01b038381166001600160a01b0319831681179093556040519116919082907f8be0079c531659141344cd1fd0a4f28419497f9722a3daafe3b4186f6b6457e090600090a35050565b610d8f611252565b6006805460ff60a01b1916600160a01b1790557f62e78cea01bee320cd4e420270b5ea74000d11b0c9f74754ebdbfc544b05a258610d0f3390565b816001600160a01b0316836001600160a01b031603610e2b5760405162461bcd60e51b815260206004820152601960248201527f4552433732313a20617070726f766520746f2063616c6c657200000000000000604482015260640161049e565b6001600160a01b03838116600081815260056020908152604080832094871680845294825291829020805460ff191686151590811790915591519182527f17307eab39ab6107e8899845ad3d59bd9653f200f220920489ca2b5937696c31910160405180910390a3505050565b610ea3848484610a77565b610eaf848484846112ac565b6108175760405162461bcd60e51b815260206004820152603260248201527f4552433732313a207472616e7366657220746f206e6f6e20455243373231526560448201527131b2b4bb32b91034b6b83632b6b2b73a32b960711b606482015260840161049e565b6060610f2182610926565b60008281526007602052604081208054610f3a90611c9b565b80601f0160208091040260200160405190810160405280929190818152602001828054610f6690611c9b565b8015610fb35780601f10610f8857610100808354040283529160200191610fb3565b820191906000526020600020905b815481529060010190602001808311610f9657829003601f168201915b505050505090506000610fd160408051602081019091526000815290565b90508051600003610fe3575092915050565b815115611015578082604051602001610ffd929190611cfc565b60405160208183030381529060405292505050919050565b610a6f846113f8565b61079b82826040518060200160405280600081525061146c565b6000828152600260205260409020546001600160a01b03166110c25760405162461bcd60e51b815260206004820152602e60248201527f45524337323155524953746f726167653a2055524920736574206f66206e6f6e60448201527f6578697374656e7420746f6b656e000000000000000000000000000000000000606482015260840161049e565b60008281526007602052604090206110da8282611d7b565b506040518281527ff8e1a15aba9398e019f0b49df1a4fde98ee17ae345cb5f6b5e2c27f5033e8ce79060200160405180910390a15050565b60006001600160e01b031982167f80ac58cd00000000000000000000000000000000000000000000000000000000148061117557506001600160e01b031982167f5b5e139f00000000000000000000000000000000000000000000000000000000145b8061034f57507f01ffc9a7000000000000000000000000000000000000000000000000000000006001600160e01b031983161461034f565b610817848484846114ea565b600654600160a01b900460ff166105cc5760405162461bcd60e51b815260206004820152601460248201527f5061757361626c653a206e6f7420706175736564000000000000000000000000604482015260640161049e565b61121b8161156a565b6000818152600760205260409020805461123490611c9b565b15905061065d57600081815260076020526040812061065d91611928565b600654600160a01b900460ff16156105cc5760405162461bcd60e51b815260206004820152601060248201527f5061757361626c653a2070617573656400000000000000000000000000000000604482015260640161049e565b60006001600160a01b0384163b156113ed57604051630a85bd0160e11b81526001600160a01b0385169063150b7a02906112f0903390899088908890600401611e3b565b6020604051808303816000875af192505050801561132b575060408051601f3d908101601f1916820190925261132891810190611e77565b60015b6113d3573d808015611359576040519150601f19603f3d011682016040523d82523d6000602084013e61135e565b606091505b5080516000036113cb5760405162461bcd60e51b815260206004820152603260248201527f4552433732313a207472616e7366657220746f206e6f6e20455243373231526560448201527131b2b4bb32b91034b6b83632b6b2b73a32b960711b606482015260840161049e565b805181602001fd5b6001600160e01b031916630a85bd0160e11b149050610a6f565b506001949350505050565b606061140382610926565b600061141a60408051602081019091526000815290565b9050600081511161143a5760405180602001604052806000815250611465565b806114448461160d565b604051602001611455929190611cfc565b6040516020818303038152906040525b9392505050565b61147683836116ad565b61148360008484846112ac565b61053f5760405162461bcd60e51b815260206004820152603260248201527f4552433732313a207472616e7366657220746f206e6f6e20455243373231526560448201527131b2b4bb32b91034b6b83632b6b2b73a32b960711b606482015260840161049e565b600654600160a01b900460ff16156108175760405162461bcd60e51b815260206004820152602b60248201527f4552433732315061757361626c653a20746f6b656e207472616e73666572207760448201527f68696c6520706175736564000000000000000000000000000000000000000000606482015260840161049e565b600061157582610660565b90506115858160008460016111ad565b61158e82610660565b600083815260046020908152604080832080546001600160a01b03199081169091556001600160a01b0385168085526003845282852080546000190190558785526002909352818420805490911690555192935084927fddf252ad1be2c89b69c2b068fc378daa952ba7f163c4a11628f55a4df523b3ef908390a45050565b6060600061161a83611846565b600101905060008167ffffffffffffffff81111561163a5761163a611afe565b6040519080825280601f01601f191660200182016040528015611664576020820181803683370190505b5090508181016020015b600019017f3031323334353637383961626364656600000000000000000000000000000000600a86061a8153600a850494508461166e57509392505050565b6001600160a01b0382166117035760405162461bcd60e51b815260206004820181905260248201527f4552433732313a206d696e7420746f20746865207a65726f2061646472657373604482015260640161049e565b6000818152600260205260409020546001600160a01b0316156117685760405162461bcd60e51b815260206004820152601c60248201527f4552433732313a20746f6b656e20616c7265616479206d696e74656400000000604482015260640161049e565b6117766000838360016111ad565b6000818152600260205260409020546001600160a01b0316156117db5760405162461bcd60e51b815260206004820152601c60248201527f4552433732313a20746f6b656e20616c7265616479206d696e74656400000000604482015260640161049e565b6001600160a01b038216600081815260036020908152604080832080546001019055848352600290915280822080546001600160a01b0319168417905551839291907fddf252ad1be2c89b69c2b068fc378daa952ba7f163c4a11628f55a4df523b3ef908290a45050565b6000807a184f03e93ff9f4daa797ed6e38ed64bf6a1f010000000000000000831061188f577a184f03e93ff9f4daa797ed6e38ed64bf6a1f010000000000000000830492506040015b6d04ee2d6d415b85acef810000000083106118bb576d04ee2d6d415b85acef8100000000830492506020015b662386f26fc1000083106118d957662386f26fc10000830492506010015b6305f5e10083106118f1576305f5e100830492506008015b612710831061190557612710830492506004015b60648310611917576064830492506002015b600a831061034f5760010192915050565b50805461193490611c9b565b6000825580601f10611944575050565b601f01602090049060005260206000209081019061065d91905b80821115611972576000815560010161195e565b5090565b6001600160e01b03198116811461065d57600080fd5b60006020828403121561199e57600080fd5b813561146581611976565b60005b838110156119c45781810151838201526020016119ac565b50506000910152565b600081518084526119e58160208601602086016119a9565b601f01601f19169290920160200192915050565b60208152600061146560208301846119cd565b600060208284031215611a1e57600080fd5b5035919050565b80356001600160a01b0381168114611a3c57600080fd5b919050565b60008060408385031215611a5457600080fd5b611a5d83611a25565b946020939093013593505050565b600080600060608486031215611a8057600080fd5b611a8984611a25565b9250611a9760208501611a25565b9150604084013590509250925092565b600060208284031215611ab957600080fd5b61146582611a25565b60008060408385031215611ad557600080fd5b611ade83611a25565b915060208301358015158114611af357600080fd5b809150509250929050565b634e487b7160e01b600052604160045260246000fd5b600067ffffffffffffffff80841115611b2f57611b2f611afe565b604051601f8501601f19908116603f01168101908282118183101715611b5757611b57611afe565b81604052809350858152868686011115611b7057600080fd5b858560208301376000602087830101525050509392505050565b60008060008060808587031215611ba057600080fd5b611ba985611a25565b9350611bb760208601611a25565b925060408501359150606085013567ffffffffffffffff811115611bda57600080fd5b8501601f81018713611beb57600080fd5b611bfa87823560208401611b14565b91505092959194509250565b60008060408385031215611c1957600080fd5b611c2283611a25565b9150602083013567ffffffffffffffff811115611c3e57600080fd5b8301601f81018513611c4f57600080fd5b611c5e85823560208401611b14565b9150509250929050565b60008060408385031215611c7b57600080fd5b611c8483611a25565b9150611c9260208401611a25565b90509250929050565b600181811c90821680611caf57607f821691505b602082108103611ccf57634e487b7160e01b600052602260045260246000fd5b50919050565b600060018201611cf557634e487b7160e01b600052601160045260246000fd5b5060010190565b60008351611d0e8184602088016119a9565b835190830190611d228183602088016119a9565b01949350505050565b601f82111561053f576000816000526020600020601f850160051c81016020861015611d545750805b601f850160051c820191505b81811015611d7357828155600101611d60565b505050505050565b815167ffffffffffffffff811115611d9557611d95611afe565b611da981611da38454611c9b565b84611d2b565b602080601f831160018114611dde5760008415611dc65750858301515b600019600386901b1c1916600185901b178555611d73565b600085815260208120601f198616915b82811015611e0d57888601518255948401946001909101908401611dee565b5085821015611e2b5787850151600019600388901b60f8161c191681555b5050505050600190811b01905550565b60006001600160a01b03808716835280861660208401525083604083015260806060830152611e6d60808301846119cd565b9695505050505050565b600060208284031215611e8957600080fd5b81516114658161197656fea2646970667358221220011645e33bda2d058bffe2023ce89378712cd87dfb8bce8a266dec193e4c118364736f6c63430008180033",
  "linkReferences": {},
  "deployedLinkReferences": {}
}