{
  "_format": "hh-sol-artifact-1",
  "contractName": "ServiceAgreement",
  "sourceName": "contracts/ServiceAgreement.sol",
  "abi": [
    {
      "inputs": [
        {
          "internalType": "address",
          "name": "_provider",
          "type": "address"
        },
        {
          "internalType": "address",
          "name": "_client",
          "type": "address"
        },
        {
          "internalType": "address",
          "name": "_arbiter",
          "type": "address"
        },
        {
          "internalType": "string",
          "name": "_terms",
          "type": "string"
        }
      ],
      "stateMutability": "payable",
      "type": "constructor"
    },
    {
      "anonymous": false,
      "inputs": [],
      "name": "AgreementCancelled",
      "type": "event"
    },
    {
      "anonymous": false,
      "inputs": [
        {
          "indexed": true,
          "internalType": "address",
          "name": "provider",
          "type": "address"
        },
        {
          "indexed": false,
          "internalType": "uint256",
          "name": "amount",
          "type": "uint256"
        }
      ],
      "name": "AgreementCompleted",
      "type": "event"
    },
    {
      "anonymous": false,
      "inputs": [
        {
          "indexed": false,
          "internalType": "uint256",
          "name": "amount",
          "type": "uint256"
        }
      ],
      "name": "AgreementFunded",
      "type": "event"
    },
    {
      "anonymous": false,
      "inputs": [
        {
          "indexed": true,
          "internalType": "address",
          "name": "by",
          "type": "address"
        }
      ],
      "name": "DisputeRaised",
      "type": "event"
    },
    {
      "anonymous": false,
      "inputs": [
        {
          "indexed": true,
          "internalType": "address",
          "name": "by",
          "type": "address"
        },
        {
          "indexed": false,
          "internalType": "bool",
          "name": "releasePayment",
          "type": "bool"
        }
      ],
      "name": "DisputeResolved",
      "type": "event"
    },
    {
      "inputs": [],
      "name": "arbiter",
      "outputs": [
        {
          "internalType": "address",
          "name": "",
          "type": "address"
        }
      ],
      "stateMutability": "view",
      "type": "function"
    },
    {
      "inputs": [],
      "name": "cancelAgreement",
      "outputs": [],
      "stateMutability": "nonpayable",
      "type": "function"
    },
    {
      "inputs": [],
      "name": "client",
      "outputs": [
        {
          "internalType": "address",
          "name": "",
          "type": "address"
        }
      ],
      "stateMutability": "view",
      "type": "function"
    },
    {
      "inputs": [],
      "name": "confirmCompletion",
      "outputs": [],
      "stateMutability": "nonpayable",
      "type": "function"
    },
    {
      "inputs": [],
      "name": "currentState",
      "outputs": [
        {
          "internalType": "enum ServiceAgreement.State",
          "name": "",
          "type": "uint8"
        }
      ],
      "stateMutability": "view",
      "type": "function"
    },
    {
      "inputs": [],
      "name": "fundAgreement",
      "outputs": [],
      "stateMutability": "payable",
      "type": "function"
    },
    {
      "inputs": [],
      "name": "paymentAmount",
      "outputs": [
        {
          "internalType": "uint256",
          "name": "",
          "type": "uint256"
        }
      ],
      "stateMutability": "view",
      "type": "function"
    },
    {
      "inputs": [],
      "name": "provider",
      "outputs": [
        {
          "internalType": "address",
          "name": "",
          "type": "address"
        }
      ],
      "stateMutability": "view",
      "type": "function"
    },
    {
      "inputs": [],
      "name": "raiseDispute",
      "outputs": [],
      "stateMutability": "nonpayable",
      "type": "function"
    },
    {
      "inputs": [
        {
          "internalType": "bool",
          "name": "releasePayment",
          "type": "bool"
        }
      ],
      "name": "resolveDispute",
      "outputs": [],
      "stateMutability": "nonpayable",
      "type": "function"
    },
    {
      "inputs": [],
      "name": "terms",
      "outputs": [
        {
          "internalType": "string",
          "name": "",
          "type": "string"
        }
      ],
      "stateMutability": "view",
      "type": "function"
    },
    {
      "stateMutability": "payable",
      "type": "receive"
    }
  ],
  "bytecode": "0x6080604052604051620011bb380380620011bb83398101604081905262000026916200010e565b6001600081905580546001600160a01b038087166001600160a01b0319928316179092556002805486841690831617905560038054928516929091169190911790556005620000768282620002ac565b503460048190556006805460ff1916905515620000d1576006805460ff191660011790556004546040519081527fdedbe31fcfd8842a2ccb1ab927ec0ccbd3ea30eda90fa7bc43b1d3a511963cb29060200160405180910390a15b5050505062000378565b80516001600160a01b0381168114620000f357600080fd5b919050565b634e487b7160e01b600052604160045260246000fd5b600080600080608085870312156200012557600080fd5b6200013085620000db565b9350602062000141818701620000db565b93506200015160408701620000db565b60608701519093506001600160401b03808211156200016f57600080fd5b818801915088601f8301126200018457600080fd5b815181811115620001995762000199620000f8565b604051601f8201601f19908116603f01168101908382118183101715620001c457620001c4620000f8565b816040528281528b86848701011115620001dd57600080fd5b600093505b82841015620002015784840186015181850187015292850192620001e2565b600086848301015280965050505050505092959194509250565b600181811c908216806200023057607f821691505b6020821081036200025157634e487b7160e01b600052602260045260246000fd5b50919050565b601f821115620002a7576000816000526020600020601f850160051c81016020861015620002825750805b601f850160051c820191505b81811015620002a3578281556001016200028e565b5050505b505050565b81516001600160401b03811115620002c857620002c8620000f8565b620002e081620002d984546200021b565b8462000257565b602080601f831160018114620003185760008415620002ff5750858301515b600019600386901b1c1916600185901b178555620002a3565b600085815260208120601f198616915b82811015620003495788860151825594840194600190910190840162000328565b5085821015620003685787850151600019600388901b60f8161c191681555b5050505050600190811b01905550565b610e3380620003886000396000f3fe6080604052600436106100c05760003560e01c806389e1e82a11610074578063cf6ad8761161004e578063cf6ad876146101c8578063d5025625146101dd578063fe25e00a146101ff57600080fd5b806389e1e82a1461016f578063a06aa1ab1461018f578063c35905c6146101a457600080fd5b8063109e94cf116100a5578063109e94cf14610130578063135f85a6146101505780636daa2d441461015a57600080fd5b8063085d4883146100cc5780630c3f6acf1461010957600080fd5b366100c757005b600080fd5b3480156100d857600080fd5b506001546100ec906001600160a01b031681565b6040516001600160a01b0390911681526020015b60405180910390f35b34801561011557600080fd5b506006546101239060ff1681565b6040516101009190610d23565b34801561013c57600080fd5b506002546100ec906001600160a01b031681565b61015861021f565b005b34801561016657600080fd5b506101586103c4565b34801561017b57600080fd5b5061015861018a366004610d4b565b6104f8565b34801561019b57600080fd5b5061015861080d565b3480156101b057600080fd5b506101ba60045481565b604051908152602001610100565b3480156101d457600080fd5b50610158610a18565b3480156101e957600080fd5b506101f2610c26565b6040516101009190610d74565b34801561020b57600080fd5b506003546100ec906001600160a01b031681565b6002546001600160a01b0316331461028e5760405162461bcd60e51b815260206004820152602760248201527f4f6e6c792074686520636c69656e742063616e20706572666f726d20746869736044820152661030b1ba34b7b760c91b60648201526084015b60405180910390fd5b610296610cb4565b600060065460ff1660048111156102af576102af610d0d565b146103225760405162461bcd60e51b815260206004820152602d60248201527f41677265656d656e7420697320616c72656164792066756e646564206f72206860448201527f61732070726f67726573736564000000000000000000000000000000000000006064820152608401610285565b600034116103725760405162461bcd60e51b815260206004820152601560248201527f4d7573742073656e642045544820746f2066756e6400000000000000000000006044820152606401610285565b3460048190556006805460ff191660011790556040519081527fdedbe31fcfd8842a2ccb1ab927ec0ccbd3ea30eda90fa7bc43b1d3a511963cb29060200160405180910390a16103c26001600055565b565b6002546001600160a01b03163314806103e757506001546001600160a01b031633145b6104335760405162461bcd60e51b815260206004820181905260248201527f4f6e6c7920706172746965732063616e207261697365206120646973707574656044820152606401610285565b600160065460ff16600481111561044c5761044c610d0d565b146104be5760405162461bcd60e51b8152602060048201526024808201527f43616e206f6e6c7920726169736520612064697370757465207768656e20667560448201527f6e646564000000000000000000000000000000000000000000000000000000006064820152608401610285565b6006805460ff1916600417905560405133907f0b3cd97b16a08a5c77357c276d248827ad32dfd56060f7c55d6255537ba3d96290600090a2565b6003546001600160a01b031633146105785760405162461bcd60e51b815260206004820152602860248201527f4f6e6c792074686520617262697465722063616e20706572666f726d2074686960448201527f7320616374696f6e0000000000000000000000000000000000000000000000006064820152608401610285565b610580610cb4565b600460065460ff16600481111561059957610599610d0d565b146105e65760405162461bcd60e51b815260206004820152601560248201527f4e6f206469737075746520746f207265736f6c766500000000000000000000006044820152606401610285565b80156106ef576006805460ff191660021790556001546040516000916001600160a01b03169047908381818185875af1925050503d8060008114610646576040519150601f19603f3d011682016040523d82523d6000602084013e61064b565b606091505b50509050806106a75760405162461bcd60e51b815260206004820152602260248201527f4661696c656420746f2073656e64207061796d656e7420746f2070726f76696460448201526132b960f11b6064820152608401610285565b6001546040514781526001600160a01b03909116907fcef18548c703cafca45ac8a5a4f701d242e688abd402fa54b3e8fdac943f242c9060200160405180910390a2506107c9565b6006805460ff191660031790556002546040516000916001600160a01b03169047908381818185875af1925050503d8060008114610749576040519150601f19603f3d011682016040523d82523d6000602084013e61074e565b606091505b505090508061079f5760405162461bcd60e51b815260206004820181905260248201527f4661696c656420746f2072657475726e2066756e647320746f20636c69656e746044820152606401610285565b6040517e9e14b4e6c0626affef44c92ec47bc57df5dd6fc94b5abc5f6b9e8ada44edde90600090a1505b604051811515815233907fcea2bc33eef9c2bacf266c2b7b17f8f2db3c22582cb56c00467843e85d98021e9060200160405180910390a261080a6001600055565b50565b6002546001600160a01b031633146108775760405162461bcd60e51b815260206004820152602760248201527f4f6e6c792074686520636c69656e742063616e20706572666f726d20746869736044820152661030b1ba34b7b760c91b6064820152608401610285565b61087f610cb4565b600160065460ff16600481111561089857610898610d0d565b1461090b5760405162461bcd60e51b815260206004820152602160248201527f41677265656d656e74206e6f7420696e20612066756e6461626c65207374617460448201527f65000000000000000000000000000000000000000000000000000000000000006064820152608401610285565b6006805460ff191660021790556001546004546040516000926001600160a01b031691908381818185875af1925050503d8060008114610967576040519150601f19603f3d011682016040523d82523d6000602084013e61096c565b606091505b50509050806109c85760405162461bcd60e51b815260206004820152602260248201527f4661696c656420746f2073656e64207061796d656e7420746f2070726f76696460448201526132b960f11b6064820152608401610285565b6001546004546040519081526001600160a01b03909116907fcef18548c703cafca45ac8a5a4f701d242e688abd402fa54b3e8fdac943f242c9060200160405180910390a2506103c26001600055565b610a20610cb4565b6002546001600160a01b0316331480610a4357506001546001600160a01b031633145b610a8f5760405162461bcd60e51b815260206004820152601760248201527f4f6e6c7920706172746965732063616e2063616e63656c0000000000000000006044820152606401610285565b600060065460ff166004811115610aa857610aa8610d0d565b1480610aca5750600160065460ff166004811115610ac857610ac8610d0d565b145b610b3c5760405162461bcd60e51b815260206004820152602f60248201527f43616e6e6f742063616e63656c206120636f6d706c65746564206f722064697360448201527f70757465642061677265656d656e7400000000000000000000000000000000006064820152608401610285565b6006805460ff191660031790554715610bf4576002546040516000916001600160a01b03169047908381818185875af1925050503d8060008114610b9c576040519150601f19603f3d011682016040523d82523d6000602084013e610ba1565b606091505b5050905080610bf25760405162461bcd60e51b815260206004820181905260248201527f4661696c656420746f2072657475726e2066756e647320746f20636c69656e746044820152606401610285565b505b6040517e9e14b4e6c0626affef44c92ec47bc57df5dd6fc94b5abc5f6b9e8ada44edde90600090a16103c26001600055565b60058054610c3390610dc3565b80601f0160208091040260200160405190810160405280929190818152602001828054610c5f90610dc3565b8015610cac5780601f10610c8157610100808354040283529160200191610cac565b820191906000526020600020905b815481529060010190602001808311610c8f57829003601f168201915b505050505081565b600260005403610d065760405162461bcd60e51b815260206004820152601f60248201527f5265656e7472616e637947756172643a207265656e7472616e742063616c6c006044820152606401610285565b6002600055565b634e487b7160e01b600052602160045260246000fd5b6020810160058310610d4557634e487b7160e01b600052602160045260246000fd5b91905290565b600060208284031215610d5d57600080fd5b81358015158114610d6d57600080fd5b9392505050565b60006020808352835180602085015260005b81811015610da257858101830151858201604001528201610d86565b506000604082860101526040601f19601f8301168501019250505092915050565b600181811c90821680610dd757607f821691505b602082108103610df757634e487b7160e01b600052602260045260246000fd5b5091905056fea2646970667358221220f7ea1ae6148b06f700f826db0bedc112157408cbf15335a7c67b388f8d254b5864736f6c63430008180033",
  "linkReferences": {},
  "deployedLinkReferences": {}
}