{
  "_format": "hh-sol-artifact-1",
  "contractName": "KalaKrutNFT",
  "sourceName": "contracts/KalaKrutNFT.sol",
  "abi": [
    {
      "inputs": [
        {
          "internalType": "address",
          "name": "initialOwner",
          "type": "address"
        },
        {
          "internalType": "string",
          "name": "name",
          "type": "string"
        },
        {
          "internalType": "string",
          "name": "symbol",
          "type": "string"
        }
      ],
      "stateMutability": "nonpayable",
      "type": "constructor"
    },
    {
      "inputs": [
        {
          "internalType": "address",
          "name": "sender",
          "type": "address"
        },
        {
          "internalType": "uint256",
          "name": "tokenId",
          "type": "uint256"
        },
        {
          "internalType": "address",
          "name": "owner",
          "type": "address"
        }
      ],
      "name": "ERC721IncorrectOwner",
      "type": "error"
    },
    {
      "inputs": [
        {
          "internalType": "address",
          "name": "operator",
          "type": "address"
        },
        {
          "internalType": "uint256",
          "name": "tokenId",
          "type": "uint256"
        }
      ],
      "name": "ERC721InsufficientApproval",
      "type": "error"
    },
    {
      "inputs": [
        {
          "internalType": "address",
          "name": "approver",
          "type": "address"
        }
      ],
      "name": "ERC721InvalidApprover",
      "type": "error"
    },
    {
      "inputs": [
        {
          "internalType": "address",
          "name": "operator",
          "type": "address"
        }
      ],
      "name": "ERC721InvalidOperator",
      "type": "error"
    },
    {
      "inputs": [
        {
          "internalType": "address",
          "name": "owner",
          "type": "address"
        }
      ],
      "name": "ERC721InvalidOwner",
      "type": "error"
    },
    {
      "inputs": [
        {
          "internalType": "address",
          "name": "receiver",
          "type": "address"
        }
      ],
      "name": "ERC721InvalidReceiver",
      "type": "error"
    },
    {
      "inputs": [
        {
          "internalType": "address",
          "name": "sender",
          "type": "address"
        }
      ],
      "name": "ERC721InvalidSender",
      "type": "error"
    },
    {
      "inputs": [
        {
          "internalType": "uint256",
          "name": "tokenId",
          "type": "uint256"
        }
      ],
      "name": "ERC721NonexistentToken",
      "type": "error"
    },
    {
      "inputs": [
        {
          "internalType": "address",
          "name": "owner",
          "type": "address"
        }
      ],
      "name": "OwnableInvalidOwner",
      "type": "error"
    },
    {
      "inputs": [
        {
          "internalType": "address",
          "name": "account",
          "type": "address"
        }
      ],
      "name": "OwnableUnauthorizedAccount",
      "type": "error"
    },
    {
      "anonymous": false,
      "inputs": [
        {
          "indexed": true,
          "internalType": "address",
          "name": "owner",
          "type": "address"
        },
        {
          "indexed": true,
          "internalType": "address",
          "name": "approved",
          "type": "address"
        },
        {
          "indexed": true,
          "internalType": "uint256",
          "name": "tokenId",
          "type": "uint256"
        }
      ],
      "name": "Approval",
      "type": "event"
    },
    {
      "anonymous": false,
      "inputs": [
        {
          "indexed": true,
          "internalType": "address",
          "name": "owner",
          "type": "address"
        },
        {
          "indexed": true,
          "internalType": "address",
          "name": "operator",
          "type": "address"
        },
        {
          "indexed": false,
          "internalType": "bool",
          "name": "approved",
          "type": "bool"
        }
      ],
      "name": "ApprovalForAll",
      "type": "event"
    },
    {
      "anonymous": false,
      "inputs": [
        {
          "indexed": false,
          "internalType": "uint256",
          "name": "_fromTokenId",
          "type": "uint256"
        },
        {
          "indexed": false,
          "internalType": "uint256",
          "name": "_toTokenId",
          "type": "uint256"
        }
      ],
      "name": "BatchMetadataUpdate",
      "type": "event"
    },
    {
      "anonymous": false,
      "inputs": [
        {
          "indexed": false,
          "internalType": "uint256",
          "name": "_tokenId",
          "type": "uint256"
        }
      ],
      "name": "MetadataUpdate",
      "type": "event"
    },
    {
      "anonymous": false,
      "inputs": [
        {
          "indexed": true,
          "internalType": "address",
          "name": "previousOwner",
          "type": "address"
        },
        {
          "indexed": true,
          "internalType": "address",
          "name": "newOwner",
          "type": "address"
        }
      ],
      "name": "OwnershipTransferred",
      "type": "event"
    },
    {
      "anonymous": false,
      "inputs": [
        {
          "indexed": true,
          "internalType": "address",
          "name": "from",
          "type": "address"
        },
        {
          "indexed": true,
          "internalType": "address",
          "name": "to",
          "type": "address"
        },
        {
          "indexed": true,
          "internalType": "uint256",
          "name": "tokenId",
          "type": "uint256"
        }
      ],
      "name": "Transfer",
      "type": "event"
    },
    {
      "inputs": [
        {
          "internalType": "address",
          "name": "to",
          "type": "address"
        },
        {
          "internalType": "uint256",
          "name": "tokenId",
          "type": "uint256"
        }
      ],
      "name": "approve",
      "outputs": [],
      "stateMutability": "nonpayable",
      "type": "function"
    },
    {
      "inputs": [
        {
          "internalType": "address",
          "name": "owner",
          "type": "address"
        }
      ],
      "name": "balanceOf",
      "outputs": [
        {
          "internalType": "uint256",
          "name": "",
          "type": "uint256"
        }
      ],
      "stateMutability": "view",
      "type": "function"
    },
    {
      "inputs": [
        {
          "internalType": "uint256",
          "name": "tokenId",
          "type": "uint256"
        }
      ],
      "name": "getApproved",
      "outputs": [
        {
          "internalType": "address",
          "name": "",
          "type": "address"
        }
      ],
      "stateMutability": "view",
      "type": "function"
    },
    {
      "inputs": [
        {
          "internalType": "address",
          "name": "owner",
          "type": "address"
        },
        {
          "internalType": "address",
          "name": "operator",
          "type": "address"
        }
      ],
      "name": "isApprovedForAll",
      "outputs": [
        {
          "internalType": "bool",
          "name": "",
          "type": "bool"
        }
      ],
      "stateMutability": "view",
      "type": "function"
    },
    {
      "inputs": [],
      "name": "name",
      "outputs": [
        {
          "internalType": "string",
          "name": "",
          "type": "string"
        }
      ],
      "stateMutability": "view",
      "type": "function"
    },
    {
      "inputs": [],
      "name": "owner",
      "outputs": [
        {
          "internalType": "address",
          "name": "",
          "type": "address"
        }
      ],
      "stateMutability": "view",
      "type": "function"
    },
    {
      "inputs": [
        {
          "internalType": "uint256",
          "name": "tokenId",
          "type": "uint256"
        }
      ],
      "name": "ownerOf",
      "outputs": [
        {
          "internalType": "address",
          "name": "",
          "type": "address"
        }
      ],
      "stateMutability": "view",
      "type": "function"
    },
    {
      "inputs": [],
      "name": "renounceOwnership",
      "outputs": [],
      "stateMutability": "nonpayable",
      "type": "function"
    },
    {
      "inputs": [
        {
          "internalType": "address",
          "name": "to",
          "type": "address"
        },
        {
          "internalType": "string",
          "name": "uri",
          "type": "string"
        }
      ],
      "name": "safeMint",
      "outputs": [],
      "stateMutability": "nonpayable",
      "type": "function"
    },
    {
      "inputs": [
        {
          "internalType": "address",
          "name": "from",
          "type": "address"
        },
        {
          "internalType": "address",
          "name": "to",
          "type": "address"
        },
        {
          "internalType": "uint256",
          "name": "tokenId",
          "type": "uint256"
        }
      ],
      "name": "safeTransferFrom",
      "outputs": [],
      "stateMutability": "nonpayable",
      "type": "function"
    },
    {
      "inputs": [
        {
          "internalType": "address",
          "name": "from",
          "type": "address"
        },
        {
          "internalType": "address",
          "name": "to",
          "type": "address"
        },
        {
          "internalType": "uint256",
          "name": "tokenId",
          "type": "uint256"
        },
        {
          "internalType": "bytes",
          "name": "data",
          "type": "bytes"
        }
      ],
      "name": "safeTransferFrom",
      "outputs": [],
      "stateMutability": "nonpayable",
      "type": "function"
    },
    {
      "inputs": [
        {
          "internalType": "address",
          "name": "operator",
          "type": "address"
        },
        {
          "internalType": "bool",
          "name": "approved",
          "type": "bool"
        }
      ],
      "name": "setApprovalForAll",
      "outputs": [],
      "stateMutability": "nonpayable",
      "type": "function"
    },
    {
      "inputs": [
        {
          "internalType": "bytes4",
          "name": "interfaceId",
          "type": "bytes4"
        }
      ],
      "name": "supportsInterface",
      "outputs": [
        {
          "internalType": "bool",
          "name": "",
          "type": "bool"
        }
      ],
      "stateMutability": "view",
      "type": "function"
    },
    {
      "inputs": [],
      "name": "symbol",
      "outputs": [
        {
          "internalType": "string",
          "name": "",
          "type": "string"
        }
      ],
      "stateMutability": "view",
      "type": "function"
    },
    {
      "inputs": [
        {
          "internalType": "uint256",
          "name": "tokenId",
          "type": "uint256"
        }
      ],
      "name": "tokenURI",
      "outputs": [
        {
          "internalType": "string",
          "name": "",
          "type": "string"
        }
      ],
      "stateMutability": "view",
      "type": "function"
    },
    {
      "inputs": [
        {
          "internalType": "address",
          "name": "from",
          "type": "address"
        },
        {
          "internalType": "address",
          "name": "to",
          "type": "address"
        },
        {
          "internalType": "uint256",
          "name": "tokenId",
          "type": "uint256"
        }
      ],
      "name": "transferFrom",
      "outputs": [],
      "stateMutability": "nonpayable",
      "type": "function"
    },
    {
      "inputs": [
        {
          "internalType": "address",
          "name": "newOwner",
          "type": "address"
        }
      ],
      "name": "transferOwnership",
      "outputs": [],
      "stateMutability": "nonpayable",
      "type": "function"
    }
  ],
  "bytecode": "0x608060405234801561000f575f80fd5b506040516116ae3803806116ae83398101604081905261002e91610178565b8282825f61003c8382610278565b5060016100498282610278565b5050506001600160a01b03811661007957604051631e4fbdf760e01b81525f600482015260240160405180910390fd5b6100828161008b565b50505050610337565b600780546001600160a01b038381166001600160a01b0319831681179093556040519116919082907f8be0079c531659141344cd1fd0a4f28419497f9722a3daafe3b4186f6b6457e0905f90a35050565b634e487b7160e01b5f52604160045260245ffd5b5f82601f8301126100ff575f80fd5b81516001600160401b0380821115610119576101196100dc565b604051601f8301601f19908116603f01168101908282118183101715610141576101416100dc565b81604052838152866020858801011115610159575f80fd5b8360208701602083015e5f602085830101528094505050505092915050565b5f805f6060848603121561018a575f80fd5b83516001600160a01b03811681146101a0575f80fd5b60208501519093506001600160401b03808211156101bc575f80fd5b6101c8878388016100f0565b935060408601519150808211156101dd575f80fd5b506101ea868287016100f0565b9150509250925092565b600181811c9082168061020857607f821691505b60208210810361022657634e487b7160e01b5f52602260045260245ffd5b50919050565b601f82111561027357805f5260205f20601f840160051c810160208510156102515750805b601f840160051c820191505b81811015610270575f815560010161025d565b50505b505050565b81516001600160401b03811115610291576102916100dc565b6102a58161029f84546101f4565b8461022c565b602080601f8311600181146102d8575f84156102c15750858301515b5f19600386901b1c1916600185901b17855561032f565b5f85815260208120601f198616915b82811015610306578886015182559484019460019091019084016102e7565b508582101561032357878501515f19600388901b60f8161c191681555b505060018460011b0185555b505050505050565b61136a806103445f395ff3fe608060405234801561000f575f80fd5b50600436106100d9575f3560e01c806301ffc9a7146100dd57806306fdde0314610105578063081812fc1461011a578063095ea7b31461013a57806323b872dd1461014f57806342842e0e146101625780636352211e1461017557806370a0823114610188578063715018a6146101a95780638da5cb5b146101b157806395d89b41146101b9578063a22cb465146101c1578063b88d4fde146101d4578063c87b56dd146101e7578063d204c45e146101fa578063e985e9c51461020d578063f2fde38b14610220575b5f80fd5b6100f06100eb366004610e79565b610233565b60405190151581526020015b60405180910390f35b61010d61025d565b6040516100fc9190610ec2565b61012d610128366004610ed4565b6102ec565b6040516100fc9190610eeb565b61014d610148366004610f1a565b610300565b005b61014d61015d366004610f42565b61030f565b61014d610170366004610f42565b6103a1565b61012d610183366004610ed4565b6103c0565b61019b610196366004610f7b565b6103ca565b6040519081526020016100fc565b61014d61040f565b61012d610422565b61010d610431565b61014d6101cf366004610f94565b610440565b61014d6101e2366004611053565b61044b565b61010d6101f5366004610ed4565b610463565b61014d6102083660046110c9565b61056e565b6100f061021b366004611126565b6105a0565b61014d61022e366004610f7b565b6105cd565b5f6001600160e01b03198216632483248360e11b148061025757506102578261060a565b92915050565b60605f805461026b90611157565b80601f016020809104026020016040519081016040528092919081815260200182805461029790611157565b80156102e25780601f106102b9576101008083540402835291602001916102e2565b820191905f5260205f20905b8154815290600101906020018083116102c557829003601f168201915b5050505050905090565b5f6102f682610659565b5061025782610690565b61030b8282336106aa565b5050565b6001600160a01b038216610341575f604051633250574960e11b81526004016103389190610eeb565b60405180910390fd5b5f61034d8383336106b7565b9050836001600160a01b0316816001600160a01b03161461039b576040516364283d7b60e01b81526001600160a01b0380861660048301526024820184905282166044820152606401610338565b50505050565b6103bb83838360405180602001604052805f81525061044b565b505050565b5f61025782610659565b5f6001600160a01b0382166103f4575f6040516322718ad960e21b81526004016103389190610eeb565b506001600160a01b03165f9081526003602052604090205490565b6104176107a4565b6104205f6107d6565b565b6007546001600160a01b031690565b60606001805461026b90611157565b61030b338383610827565b61045684848461030f565b61039b33858585856108bc565b606061046e82610659565b505f828152600660205260408120805461048790611157565b80601f01602080910402602001604051908101604052809291908181526020018280546104b390611157565b80156104fe5780601f106104d5576101008083540402835291602001916104fe565b820191905f5260205f20905b8154815290600101906020018083116104e157829003601f168201915b505050505090505f61051a60408051602081019091525f815290565b905080515f0361052b575092915050565b81511561055d5780826040516020016105459291906111a6565b60405160208183030381529060405292505050919050565b610566846109d2565b949350505050565b6105766107a4565b600880545f9182610586836111ba565b9190505590506105968382610a43565b6103bb8183610a5c565b6001600160a01b039182165f90815260056020908152604080832093909416825291909152205460ff1690565b6105d56107a4565b6001600160a01b0381166105fe575f604051631e4fbdf760e01b81526004016103389190610eeb565b610607816107d6565b50565b5f6001600160e01b031982166380ac58cd60e01b148061063a57506001600160e01b03198216635b5e139f60e01b145b8061025757506301ffc9a760e01b6001600160e01b0319831614610257565b5f8061066483610aab565b90506001600160a01b03811661025757604051637e27328960e01b815260048101849052602401610338565b5f908152600460205260409020546001600160a01b031690565b6103bb8383836001610ac5565b5f806106c284610aab565b90506001600160a01b038316156106de576106de818486610bc0565b6001600160a01b03811615610718576106f95f855f80610ac5565b6001600160a01b0381165f90815260036020526040902080545f190190555b6001600160a01b03851615610746576001600160a01b0385165f908152600360205260409020805460010190555b5f8481526002602052604080822080546001600160a01b0319166001600160a01b0389811691821790925591518793918516917fddf252ad1be2c89b69c2b068fc378daa952ba7f163c4a11628f55a4df523b3ef91a4949350505050565b336107ad610422565b6001600160a01b031614610420573360405163118cdaa760e01b81526004016103389190610eeb565b600780546001600160a01b038381166001600160a01b0319831681179093556040519116919082907f8be0079c531659141344cd1fd0a4f28419497f9722a3daafe3b4186f6b6457e0905f90a35050565b6001600160a01b0382166108505781604051630b61174360e31b81526004016103389190610eeb565b6001600160a01b038381165f81815260056020908152604080832094871680845294825291829020805460ff191686151590811790915591519182527f17307eab39ab6107e8899845ad3d59bd9653f200f220920489ca2b5937696c31910160405180910390a3505050565b6001600160a01b0383163b156109cb57604051630a85bd0160e11b81526001600160a01b0384169063150b7a02906108fe9088908890879087906004016111de565b6020604051808303815f875af1925050508015610938575060408051601f3d908101601f191682019092526109359181019061121a565b60015b610996573d808015610965576040519150601f19603f3d011682016040523d82523d5f602084013e61096a565b606091505b5080515f0361098e5783604051633250574960e11b81526004016103389190610eeb565b805160208201fd5b6001600160e01b03198116630a85bd0160e11b146109c95783604051633250574960e11b81526004016103389190610eeb565b505b5050505050565b60606109dd82610659565b505f6109f360408051602081019091525f815290565b90505f815111610a115760405180602001604052805f815250610a3c565b80610a1b84610c24565b604051602001610a2c9291906111a6565b6040516020818303038152906040525b9392505050565b61030b828260405180602001604052805f815250610cb3565b5f828152600660205260409020610a738282611279565b506040518281527ff8e1a15aba9398e019f0b49df1a4fde98ee17ae345cb5f6b5e2c27f5033e8ce79060200160405180910390a15050565b5f908152600260205260409020546001600160a01b031690565b8080610ad957506001600160a01b03821615155b15610b91575f610ae884610659565b90506001600160a01b03831615801590610b145750826001600160a01b0316816001600160a01b031614155b8015610b275750610b2581846105a0565b155b15610b47578260405163a9fbf51f60e01b81526004016103389190610eeb565b8115610b8f5783856001600160a01b0316826001600160a01b03167f8c5be1e5ebec7d5bd14f71427d1e84f3dd0314c0f7b2291e5b200ac8c7c3b92560405160405180910390a45b505b50505f90815260046020526040902080546001600160a01b0319166001600160a01b0392909216919091179055565b610bcb838383610cca565b6103bb576001600160a01b038316610bf957604051637e27328960e01b815260048101829052602401610338565b60405163177e802f60e01b81526001600160a01b038316600482015260248101829052604401610338565b60605f610c3083610d2e565b60010190505f816001600160401b03811115610c4e57610c4e610fcd565b6040519080825280601f01601f191660200182016040528015610c78576020820181803683370190505b5090508181016020015b5f19016f181899199a1a9b1b9c1cb0b131b232b360811b600a86061a8153600a8504945084610c8257509392505050565b610cbd8383610e03565b6103bb335f8585856108bc565b5f6001600160a01b038316158015906105665750826001600160a01b0316846001600160a01b03161480610d035750610d0384846105a0565b806105665750826001600160a01b0316610d1c83610690565b6001600160a01b031614949350505050565b5f8072184f03e93ff9f4daa797ed6e38ed64bf6a1f0160401b8310610d6c5772184f03e93ff9f4daa797ed6e38ed64bf6a1f0160401b830492506040015b6904ee2d6d415b85acef8160201b8310610d96576904ee2d6d415b85acef8160201b830492506020015b662386f26fc100008310610db457662386f26fc10000830492506010015b6305f5e1008310610dcc576305f5e100830492506008015b6127108310610de057612710830492506004015b60648310610df2576064830492506002015b600a83106102575760010192915050565b6001600160a01b038216610e2c575f604051633250574960e11b81526004016103389190610eeb565b5f610e3883835f6106b7565b90506001600160a01b038116156103bb575f6040516339e3563760e11b81526004016103389190610eeb565b6001600160e01b031981168114610607575f80fd5b5f60208284031215610e89575f80fd5b8135610a3c81610e64565b5f81518084528060208401602086015e5f602082860101526020601f19601f83011685010191505092915050565b602081525f610a3c6020830184610e94565b5f60208284031215610ee4575f80fd5b5035919050565b6001600160a01b0391909116815260200190565b80356001600160a01b0381168114610f15575f80fd5b919050565b5f8060408385031215610f2b575f80fd5b610f3483610eff565b946020939093013593505050565b5f805f60608486031215610f54575f80fd5b610f5d84610eff565b9250610f6b60208501610eff565b9150604084013590509250925092565b5f60208284031215610f8b575f80fd5b610a3c82610eff565b5f8060408385031215610fa5575f80fd5b610fae83610eff565b915060208301358015158114610fc2575f80fd5b809150509250929050565b634e487b7160e01b5f52604160045260245ffd5b5f6001600160401b0380841115610ffa57610ffa610fcd565b604051601f8501601f19908116603f0116810190828211818310171561102257611022610fcd565b8160405280935085815286868601111561103a575f80fd5b858560208301375f602087830101525050509392505050565b5f805f8060808587031215611066575f80fd5b61106f85610eff565b935061107d60208601610eff565b92506040850135915060608501356001600160401b0381111561109e575f80fd5b8501601f810187136110ae575f80fd5b6110bd87823560208401610fe1565b91505092959194509250565b5f80604083850312156110da575f80fd5b6110e383610eff565b915060208301356001600160401b038111156110fd575f80fd5b8301601f8101851361110d575f80fd5b61111c85823560208401610fe1565b9150509250929050565b5f8060408385031215611137575f80fd5b61114083610eff565b915061114e60208401610eff565b90509250929050565b600181811c9082168061116b57607f821691505b60208210810361118957634e487b7160e01b5f52602260045260245ffd5b50919050565b5f81518060208401855e5f93019283525090919050565b5f6105666111b4838661118f565b8461118f565b5f600182016111d757634e487b7160e01b5f52601160045260245ffd5b5060010190565b6001600160a01b03858116825284166020820152604081018390526080606082018190525f9061121090830184610e94565b9695505050505050565b5f6020828403121561122a575f80fd5b8151610a3c81610e64565b601f8211156103bb57805f5260205f20601f840160051c8101602085101561125a5750805b601f840160051c820191505b818110156109cb575f8155600101611266565b81516001600160401b0381111561129257611292610fcd565b6112a6816112a08454611157565b84611235565b602080601f8311600181146112d9575f84156112c25750858301515b5f19600386901b1c1916600185901b1785556109c9565b5f85815260208120601f198616915b82811015611307578886015182559484019460019091019084016112e8565b508582101561132457878501515f19600388901b60f8161c191681555b5050505050600190811b0190555056fea264697066735822122077beba2bbdb539cffa85478fa34dad961a26078ff4e4be9c6a4d52b3eac891d864736f6c63430008190033",
  "linkReferences": {},
  "deployedLinkReferences": {}
}