{
  "_format": "hh-sol-artifact-1",
  "contractName": "Treasury",
  "sourceName": "contracts/Treasury.sol",
  "abi": [
    {
      "inputs": [
        {
          "internalType": "address",
          "name": "_owner",
          "type": "address"
        }
      ],
      "stateMutability": "nonpayable",
      "type": "constructor"
    },
    {
      "anonymous": false,
      "inputs": [
        {
          "indexed": false,
          "internalType": "address",
          "name": "from",
          "type": "address"
        },
        {
          "indexed": false,
          "internalType": "uint256",
          "name": "amount",
          "type": "uint256"
        }
      ],
      "name": "FundsDeposited",
      "type": "event"
    },
    {
      "anonymous": false,
      "inputs": [
        {
          "indexed": false,
          "internalType": "address",
          "name": "to",
          "type": "address"
        },
        {
          "indexed": false,
          "internalType": "uint256",
          "name": "amount",
          "type": "uint256"
        }
      ],
      "name": "FundsWithdrawn",
      "type": "event"
    },
    {
      "inputs": [],
      "name": "owner",
      "outputs": [
        {
          "internalType": "address",
          "name": "",
          "type": "address"
        }
      ],
      "stateMutability": "view",
      "type": "function"
    },
    {
      "inputs": [
        {
          "internalType": "address payable",
          "name": "to",
          "type": "address"
        },
        {
          "internalType": "uint256",
          "name": "amount",
          "type": "uint256"
        }
      ],
      "name": "withdraw",
      "outputs": [],
      "stateMutability": "nonpayable",
      "type": "function"
    },
    {
      "stateMutability": "payable",
      "type": "receive"
    }
  ],
  "bytecode": "0x60803461007457601f61030338819003918201601f19168301916001600160401b038311848410176100795780849260209460405283398101031261007457516001600160a01b0381169081900361007457600080546001600160a01b03191691909117905560405161027390816100908239f35b600080fd5b634e487b7160e01b600052604160045260246000fdfe608060409080825260049081361015610050575b5050361561002057600080fd5b807f543ba50a5eec5e6178218e364b1d0f396157b3c8fa278522c2cb7fd99407d4749151338152346020820152a1005b600090813560e01c9081638da5cb5b14610219575063f3fef3a30361001357823461021557806003193601126102155782356001600160a01b03818116918290036102115760249485359185541633036101c15747821161018a578480808085875af13d156101855767ffffffffffffffff3d81811161017357865191601f8201601f19908116603f011683019081118382101761016157875281528660203d92013e5b1561012c57507feaff4b37086828766ad3268786972c0cd24259d4c87a80f9d3963a3c3d999b0d93945082519182526020820152a180f35b606490601087602087519362461bcd60e51b85528401528201526f2a3930b739b332b9103330b4b632b21760811b6044820152fd5b634e487b7160e01b8952604185528989fd5b634e487b7160e01b8852604184528888fd5b6100f4565b606490601287602087519362461bcd60e51b855284015282015271496e73756666696369656e742066756e647360701b6044820152fd5b608490602587602087519362461bcd60e51b85528401528201527f4f6e6c7920746865206f776e65722063616e2063616c6c20746869732066756e60448201526431ba34b7b760d91b6064820152fd5b8380fd5b5080fd5b90503461021557816003193601126102155790546001600160a01b03168152602090f3fea264697066735822122015856968d1072154680b9ab6b60ac5d4e2dba3b51b52a7b99d45fc6a2c4c5eac64736f6c63430008180033",
  "linkReferences": {},
  "deployedLinkReferences": {}
}