{
  "_format": "hh-sol-artifact-1",
  "contractName": "EventTicket",
  "sourceName": "contracts/EventTicket.sol",
  "abi": [
    {
      "inputs": [
        {
          "internalType": "address",
          "name": "initialOwner",
          "type": "address"
        },
        {
          "internalType": "string",
          "name": "uri",
          "type": "string"
        }
      ],
      "stateMutability": "nonpayable",
      "type": "constructor"
    },
    {
      "inputs": [
        {
          "internalType": "address",
          "name": "sender",
          "type": "address"
        },
        {
          "internalType": "uint256",
          "name": "balance",
          "type": "uint256"
        },
        {
          "internalType": "uint256",
          "name": "needed",
          "type": "uint256"
        },
        {
          "internalType": "uint256",
          "name": "tokenId",
          "type": "uint256"
        }
      ],
      "name": "ERC1155InsufficientBalance",
      "type": "error"
    },
    {
      "inputs": [
        {
          "internalType": "address",
          "name": "approver",
          "type": "address"
        }
      ],
      "name": "ERC1155InvalidApprover",
      "type": "error"
    },
    {
      "inputs": [
        {
          "internalType": "uint256",
          "name": "idsLength",
          "type": "uint256"
        },
        {
          "internalType": "uint256",
          "name": "valuesLength",
          "type": "uint256"
        }
      ],
      "name": "ERC1155InvalidArrayLength",
      "type": "error"
    },
    {
      "inputs": [
        {
          "internalType": "address",
          "name": "operator",
          "type": "address"
        }
      ],
      "name": "ERC1155InvalidOperator",
      "type": "error"
    },
    {
      "inputs": [
        {
          "internalType": "address",
          "name": "receiver",
          "type": "address"
        }
      ],
      "name": "ERC1155InvalidReceiver",
      "type": "error"
    },
    {
      "inputs": [
        {
          "internalType": "address",
          "name": "sender",
          "type": "address"
        }
      ],
      "name": "ERC1155InvalidSender",
      "type": "error"
    },
    {
      "inputs": [
        {
          "internalType": "address",
          "name": "operator",
          "type": "address"
        },
        {
          "internalType": "address",
          "name": "owner",
          "type": "address"
        }
      ],
      "name": "ERC1155MissingApprovalForAll",
      "type": "error"
    },
    {
      "inputs": [
        {
          "internalType": "address",
          "name": "owner",
          "type": "address"
        }
      ],
      "name": "OwnableInvalidOwner",
      "type": "error"
    },
    {
      "inputs": [
        {
          "internalType": "address",
          "name": "account",
          "type": "address"
        }
      ],
      "name": "OwnableUnauthorizedAccount",
      "type": "error"
    },
    {
      "anonymous": false,
      "inputs": [
        {
          "indexed": true,
          "internalType": "address",
          "name": "account",
          "type": "address"
        },
        {
          "indexed": true,
          "internalType": "address",
          "name": "operator",
          "type": "address"
        },
        {
          "indexed": false,
          "internalType": "bool",
          "name": "approved",
          "type": "bool"
        }
      ],
      "name": "ApprovalForAll",
      "type": "event"
    },
    {
      "anonymous": false,
      "inputs": [
        {
          "indexed": true,
          "internalType": "address",
          "name": "previousOwner",
          "type": "address"
        },
        {
          "indexed": true,
          "internalType": "address",
          "name": "newOwner",
          "type": "address"
        }
      ],
      "name": "OwnershipTransferred",
      "type": "event"
    },
    {
      "anonymous": false,
      "inputs": [
        {
          "indexed": true,
          "internalType": "address",
          "name": "operator",
          "type": "address"
        },
        {
          "indexed": true,
          "internalType": "address",
          "name": "from",
          "type": "address"
        },
        {
          "indexed": true,
          "internalType": "address",
          "name": "to",
          "type": "address"
        },
        {
          "indexed": false,
          "internalType": "uint256[]",
          "name": "ids",
          "type": "uint256[]"
        },
        {
          "indexed": false,
          "internalType": "uint256[]",
          "name": "values",
          "type": "uint256[]"
        }
      ],
      "name": "TransferBatch",
      "type": "event"
    },
    {
      "anonymous": false,
      "inputs": [
        {
          "indexed": true,
          "internalType": "address",
          "name": "operator",
          "type": "address"
        },
        {
          "indexed": true,
          "internalType": "address",
          "name": "from",
          "type": "address"
        },
        {
          "indexed": true,
          "internalType": "address",
          "name": "to",
          "type": "address"
        },
        {
          "indexed": false,
          "internalType": "uint256",
          "name": "id",
          "type": "uint256"
        },
        {
          "indexed": false,
          "internalType": "uint256",
          "name": "value",
          "type": "uint256"
        }
      ],
      "name": "TransferSingle",
      "type": "event"
    },
    {
      "anonymous": false,
      "inputs": [
        {
          "indexed": false,
          "internalType": "string",
          "name": "value",
          "type": "string"
        },
        {
          "indexed": true,
          "internalType": "uint256",
          "name": "id",
          "type": "uint256"
        }
      ],
      "name": "URI",
      "type": "event"
    },
    {
      "inputs": [
        {
          "internalType": "address",
          "name": "account",
          "type": "address"
        },
        {
          "internalType": "uint256",
          "name": "id",
          "type": "uint256"
        }
      ],
      "name": "balanceOf",
      "outputs": [
        {
          "internalType": "uint256",
          "name": "",
          "type": "uint256"
        }
      ],
      "stateMutability": "view",
      "type": "function"
    },
    {
      "inputs": [
        {
          "internalType": "address[]",
          "name": "accounts",
          "type": "address[]"
        },
        {
          "internalType": "uint256[]",
          "name": "ids",
          "type": "uint256[]"
        }
      ],
      "name": "balanceOfBatch",
      "outputs": [
        {
          "internalType": "uint256[]",
          "name": "",
          "type": "uint256[]"
        }
      ],
      "stateMutability": "view",
      "type": "function"
    },
    {
      "inputs": [
        {
          "internalType": "address",
          "name": "holder",
          "type": "address"
        },
        {
          "internalType": "uint256",
          "name": "id",
          "type": "uint256"
        }
      ],
      "name": "checkInTicket",
      "outputs": [],
      "stateMutability": "nonpayable",
      "type": "function"
    },
    {
      "inputs": [
        {
          "internalType": "uint256",
          "name": "",
          "type": "uint256"
        },
        {
          "internalType": "address",
          "name": "",
          "type": "address"
        }
      ],
      "name": "checkedIn",
      "outputs": [
        {
          "internalType": "bool",
          "name": "",
          "type": "bool"
        }
      ],
      "stateMutability": "view",
      "type": "function"
    },
    {
      "inputs": [
        {
          "internalType": "address",
          "name": "account",
          "type": "address"
        },
        {
          "internalType": "address",
          "name": "operator",
          "type": "address"
        }
      ],
      "name": "isApprovedForAll",
      "outputs": [
        {
          "internalType": "bool",
          "name": "",
          "type": "bool"
        }
      ],
      "stateMutability": "view",
      "type": "function"
    },
    {
      "inputs": [
        {
          "internalType": "address",
          "name": "to",
          "type": "address"
        },
        {
          "internalType": "uint256",
          "name": "id",
          "type": "uint256"
        },
        {
          "internalType": "uint256",
          "name": "amount",
          "type": "uint256"
        }
      ],
      "name": "mint",
      "outputs": [],
      "stateMutability": "nonpayable",
      "type": "function"
    },
    {
      "inputs": [
        {
          "internalType": "address",
          "name": "to",
          "type": "address"
        },
        {
          "internalType": "uint256[]",
          "name": "ids",
          "type": "uint256[]"
        },
        {
          "internalType": "uint256[]",
          "name": "amounts",
          "type": "uint256[]"
        }
      ],
      "name": "mintBatch",
      "outputs": [],
      "stateMutability": "nonpayable",
      "type": "function"
    },
    {
      "inputs": [],
      "name": "owner",
      "outputs": [
        {
          "internalType": "address",
          "name": "",
          "type": "address"
        }
      ],
      "stateMutability": "view",
      "type": "function"
    },
    {
      "inputs": [],
      "name": "renounceOwnership",
      "outputs": [],
      "stateMutability": "nonpayable",
      "type": "function"
    },
    {
      "inputs": [
        {
          "internalType": "address",
          "name": "from",
          "type": "address"
        },
        {
          "internalType": "address",
          "name": "to",
          "type": "address"
        },
        {
          "internalType": "uint256[]",
          "name": "ids",
          "type": "uint256[]"
        },
        {
          "internalType": "uint256[]",
          "name": "values",
          "type": "uint256[]"
        },
        {
          "internalType": "bytes",
          "name": "data",
          "type": "bytes"
        }
      ],
      "name": "safeBatchTransferFrom",
      "outputs": [],
      "stateMutability": "nonpayable",
      "type": "function"
    },
    {
      "inputs": [
        {
          "internalType": "address",
          "name": "from",
          "type": "address"
        },
        {
          "internalType": "address",
          "name": "to",
          "type": "address"
        },
        {
          "internalType": "uint256",
          "name": "id",
          "type": "uint256"
        },
        {
          "internalType": "uint256",
          "name": "value",
          "type": "uint256"
        },
        {
          "internalType": "bytes",
          "name": "data",
          "type": "bytes"
        }
      ],
      "name": "safeTransferFrom",
      "outputs": [],
      "stateMutability": "nonpayable",
      "type": "function"
    },
    {
      "inputs": [
        {
          "internalType": "address",
          "name": "operator",
          "type": "address"
        },
        {
          "internalType": "bool",
          "name": "approved",
          "type": "bool"
        }
      ],
      "name": "setApprovalForAll",
      "outputs": [],
      "stateMutability": "nonpayable",
      "type": "function"
    },
    {
      "inputs": [
        {
          "internalType": "string",
          "name": "newuri",
          "type": "string"
        }
      ],
      "name": "setURI",
      "outputs": [],
      "stateMutability": "nonpayable",
      "type": "function"
    },
    {
      "inputs": [
        {
          "internalType": "bytes4",
          "name": "interfaceId",
          "type": "bytes4"
        }
      ],
      "name": "supportsInterface",
      "outputs": [
        {
          "internalType": "bool",
          "name": "",
          "type": "bool"
        }
      ],
      "stateMutability": "view",
      "type": "function"
    },
    {
      "inputs": [
        {
          "internalType": "uint256",
          "name": "",
          "type": "uint256"
        }
      ],
      "name": "tierSupply",
      "outputs": [
        {
          "internalType": "uint256",
          "name": "",
          "type": "uint256"
        }
      ],
      "stateMutability": "view",
      "type": "function"
    },
    {
      "inputs": [
        {
          "internalType": "address",
          "name": "newOwner",
          "type": "address"
        }
      ],
      "name": "transferOwnership",
      "outputs": [],
      "stateMutability": "nonpayable",
      "type": "function"
    },
    {
      "inputs": [
        {
          "internalType": "uint256",
          "name": "",
          "type": "uint256"
        }
      ],
      "name": "uri",
      "outputs": [
        {
          "internalType": "string",
          "name": "",
          "type": "string"
        }
      ],
      "stateMutability": "view",
      "type": "function"
    }
  ],
  "bytecode": "0x6080604052346200028c5762001a1d803803806200001d8162000291565b92833981016040828203126200028c5781516001600160a01b039283821692918390036200028c576020818101516001600160401b03928382116200028c570192601f908082860112156200028c5784518481116200026157601f19956200008b8285018816860162000291565b928284528583830101116200028c57849060005b838110620002775750506000918301015280519384116200026157600254926001938481811c9116801562000256575b828210146200024057838111620001f4575b5080928511600114620001895750839450908392916000946200017d575b50501b916000199060031b1c1916176002555b80156200016457600380546001600160a01b03198116831790915560405192167f8be0079c531659141344cd1fd0a4f28419497f9722a3daafe3b4186f6b6457e0600080a36117659081620002b88239f35b604051631e4fbdf760e01b815260006004820152602490fd5b015192503880620000ff565b929484908116600260005284600020946000905b88838310620001d95750505010620001bf575b505050811b0160025562000112565b015160001960f88460031b161c19169055388080620001b0565b8587015188559096019594850194879350908101906200019d565b6002600052816000208480880160051c82019284891062000236575b0160051c019085905b82811062000229575050620000e1565b6000815501859062000219565b9250819262000210565b634e487b7160e01b600052602260045260246000fd5b90607f1690620000cf565b634e487b7160e01b600052604160045260246000fd5b8181018301518582018401528692016200009f565b600080fd5b6040519190601f01601f191682016001600160401b03811183821017620002615760405256fe6080604052600436101561001257600080fd5b60003560e01c8062fdd58e1461012657806301ffc9a71461012157806302fe53051461011c578063088bcc30146101175780630e89341c14610112578063156e29f61461010d5780632eb2c2d6146101085780634e1273f414610103578063715018a6146100fe5780638da5cb5b146100f9578063a22cb465146100f4578063c19d981c146100ef578063d81d0a15146100ea578063e985e9c5146100e5578063f242432a146100e0578063f2fde38b146100db5763f60f206c146100d657600080fd5b610e31565b610da3565b610c9e565b610c4d565b610b63565b610a4e565b610992565b610969565b610908565b61084d565b6106df565b61059b565b6104c2565b61041c565b6102e9565b6101cf565b610170565b600435906001600160a01b038216820361014157565b600080fd5b602435906001600160a01b038216820361014157565b35906001600160a01b038216820361014157565b346101415760403660031901126101415760206101b461018e61012b565b6024356000526000835260406000209060018060a01b0316600052602052604060002090565b54604051908152f35b6001600160e01b031981160361014157565b346101415760203660031901126101415760206004356101ee816101bd565b63ffffffff60e01b16636cdb3d1360e11b811490811561022c575b811561021b575b506040519015158152f35b6301ffc9a760e01b14905038610210565b6303a24d0760e21b81149150610209565b634e487b7160e01b600052604160045260246000fd5b6020810190811067ffffffffffffffff82111761026f57604052565b61023d565b90601f8019910116810190811067ffffffffffffffff82111761026f57604052565b67ffffffffffffffff811161026f57601f01601f191660200190565b9291926102be82610296565b916102cc6040519384610274565b829481845281830111610141578281602093846000960137010152565b34610141576020806003193601126101415767ffffffffffffffff60043581811161014157366023820112156101415761032d9036906024816004013591016102b2565b91610336610fef565b825191821161026f576103538261034e600254610e5d565b61101b565b602090601f8311600114610395575081906103859360009261038a575b50508160011b916000199060031b1c19161790565b600255005b015190503880610370565b90601f198316936103c860026000527f405787fa12a823e0f2b7631cc41b3ba8828b3321ca811111fa75cd3aa3bb5ace90565b926000905b86821061040457505083600195106103eb575b505050811b01600255005b015160001960f88460031b161c191690553880806103e0565b806001859682949686015181550195019301906103cd565b3461014157604036600319011261014157602060ff61046261043c610146565b6004356000526005845260406000209060018060a01b0316600052602052604060002090565b54166040519015158152f35b919082519283825260005b84811061049a575050826000602080949584010152601f8019910116010190565b602081830181015184830182015201610479565b9060206104bf92818152019061046e565b90565b3461014157602080600319360112610141576040516000916002546104e681610e5d565b8084529060019081811690811561057b5750600114610520575b61051c8461051081880382610274565b604051918291826104ae565b0390f35b600260009081529294507f405787fa12a823e0f2b7631cc41b3ba8828b3321ca811111fa75cd3aa3bb5ace5b828410610568575050508161051c936105109282010193610500565b805485850187015292850192810161054c565b60ff1916858501525050151560051b82010191506105108161051c610500565b34610141576060366003190112610141576105b461012b565b6044356024356105c2610fef565b6040516105ce81610253565b6000808252936001600160a01b0381161561063357906106189161061285859160405192600184526020840152604083019160018352606084015260808301604052565b9161108d565b8252600460205261062e60408320918254610e97565b905580f35b604051632bfa23e760e11b815260048101869052602490fd5b67ffffffffffffffff811161026f5760051b60200190565b9080601f8301121561014157602090823561067e8161064c565b9361068c6040519586610274565b81855260208086019260051b82010192831161014157602001905b8282106106b5575050505090565b813581529083019083016106a7565b9080601f83011215610141578160206104bf933591016102b2565b346101415760a0366003190112610141576106f861012b565b610700610146565b906044359167ffffffffffffffff908184116101415761072560049436908601610664565b906064358381116101415761073d9036908701610664565b926084359081116101415761075590369087016106c4565b936001600160a01b038082169033821415806107e4575b6107b75783161561079f57156107885761078695506111e9565b005b604051626a0d4560e21b8152600081880152602490fd5b604051632bfa23e760e11b8152600081890152602490fd5b6040805163711bec9160e11b815233818b019081526001600160a01b038616602082015290918291010390fd5b50600082815260016020908152604080832033845290915290205460ff161561076c565b90815180825260208080930193019160005b828110610828575050505090565b83518552938101939281019260010161081a565b9060206104bf928181520190610808565b346101415760403660031901126101415760043567ffffffffffffffff808211610141573660238301121561014157816004013561088a8161064c565b926108986040519485610274565b8184526020916024602086019160051b8301019136831161014157602401905b8282106108f157856024358681116101415761051c916108df6108e5923690600401610664565b90610ee4565b6040519182918261083c565b8380916108fd8461015c565b8152019101906108b8565b346101415760008060031936011261096657610922610fef565b600380546001600160a01b0319811690915581906001600160a01b03167f8be0079c531659141344cd1fd0a4f28419497f9722a3daafe3b4186f6b6457e08280a380f35b80fd5b34610141576000366003190112610141576003546040516001600160a01b039091168152602090f35b34610141576040366003190112610141576109ab61012b565b6024359081151590818303610141576001600160a01b038116928315610a36576109f7610a089233600052600160205260406000209060018060a01b0316600052602052604060002090565b9060ff801983541691151516179055565b6040519081527f17307eab39ab6107e8899845ad3d59bd9653f200f220920489ca2b5937696c3160203392a3005b60405162ced3e160e81b815260006004820152602490fd5b3461014157604036600319011261014157610a6761012b565b60243590610a73610fef565b6000828152602081815260408083206001600160a01b038516845290915281209092905415610b1e57610b1b91610af782610b0e9386526005602052610ae7610ae2610ade610ad78660408b209060018060a01b0316600052602052604060002090565b5460ff1690565b1590565b610fa3565b6000526005602052604060002090565b9060018060a01b0316600052602052604060002090565b805460ff19166001179055565b80f35b60405162461bcd60e51b815260206004820152601f60248201527f486f6c64657220646f6573206e6f74206f776e2074686973207469636b6574006044820152606490fd5b3461014157606036600319011261014157610b7c61012b565b67ffffffffffffffff60243581811161014157610b9d903690600401610664565b9060443590811161014157610bb6903690600401610664565b91610bbf610fef565b604051610bcb81610253565b600081526001600160a01b03821615610c34578383610be99361108d565b60005b81518110156107865780610c0260019285610eba565b51610c2c610c24610c138487610eba565b516000526004602052604060002090565b918254610e97565b905501610bec565b604051632bfa23e760e11b815260006004820152602490fd5b3461014157604036600319011261014157602060ff610462610c6d61012b565b610c75610146565b6001600160a01b0391821660009081526001865260408082209290931681526020919091522090565b346101415760a036600319011261014157610cb761012b565b610cbf610146565b60843567ffffffffffffffff811161014157610cdf9036906004016106c4565b906001600160a01b03838116903382141580610d7f575b610d5857821615610c345715610d405761078692610d386064356044359160405192600184526020840152604083019160018352606084015260808301604052565b9290916111e9565b604051626a0d4560e21b815260006004820152602490fd5b60405163711bec9160e11b81523360048201526001600160a01b0386166024820152604490fd5b50600082815260016020908152604080832033845290915290205460ff1615610cf6565b3461014157602036600319011261014157610dbc61012b565b610dc4610fef565b6001600160a01b03908116908115610e1857600354826bffffffffffffffffffffffff60a01b821617600355167f8be0079c531659141344cd1fd0a4f28419497f9722a3daafe3b4186f6b6457e0600080a3005b604051631e4fbdf760e01b815260006004820152602490fd5b346101415760203660031901126101415760043560005260046020526020604060002054604051908152f35b90600182811c92168015610e8d575b6020831014610e7757565b634e487b7160e01b600052602260045260246000fd5b91607f1691610e6c565b91908201809211610ea457565b634e487b7160e01b600052601160045260246000fd5b8051821015610ece5760209160051b010190565b634e487b7160e01b600052603260045260246000fd5b91909180518351808203610f81575050805190610f19610f038361064c565b92610f116040519485610274565b80845261064c565b60209190601f1901368484013760005b8151811015610f7957600581901b8281018401519087018401516000908152602081815260408083206001600160a01b039094168352929052205460019190610f728287610eba565b5201610f29565b509193505050565b604051635b05999160e01b815260048101919091526024810191909152604490fd5b15610faa57565b60405162461bcd60e51b815260206004820152601960248201527f5469636b657420616c726561647920636865636b656420696e000000000000006044820152606490fd5b6003546001600160a01b0316330361100357565b60405163118cdaa760e01b8152336004820152602490fd5b601f8111611027575050565b60009060026000527f405787fa12a823e0f2b7631cc41b3ba8828b3321ca811111fa75cd3aa3bb5ace906020601f850160051c83019410611083575b601f0160051c01915b82811061107857505050565b81815560010161106c565b9092508290611063565b908051835190818103610f8157505060005b81518110156110fe57600581901b82810160209081015191860101516001929185906001600160a01b0382166110d9575b5050500161109f565b6110f491610af7610c24926000526000602052604060002090565b90553884816110d0565b508051919392916001036111a0576020818101518382015160408051928352928201526001600160a01b0386169160009133917fc3d58168c5ae7397731d063d5bbf3d657854427343f4c083240f7aacaa2d0f6291a45b6001600160a01b03841661116a575b50505050565b805160010361119157906020806111889593015191015191336116c3565b38808080611164565b61119b93336114c9565b611188565b6040516001600160a01b0385169060009033907f4a39dc06d4c0dbc64b70af90fd698a233a518aa5d07e595d983b8c0526c8f7fb90806111e18888836113e2565b0390a4611155565b949190918151845190818103610f8157505060005b82518110156112ec57600581901b83810160209081015191870101516001600160a01b03929186908a8516611266575b6001948216611241575b505050016111fe565b61125c91610af7610c24926000526000602052604060002090565b9055388581611238565b91929390506112838a610af7846000526000602052604060002090565b548381106112b557918791846001969594036112ad8d610af7856000526000602052604060002090565b55945061122e565b6040516303dee4c560e01b81526001600160a01b038c16600482015260248101919091526044810184905260648101839052608490fd5b509491939290936001855114600014611397576020858101518382015160408051928352928201526001600160a01b03838116929086169133917fc3d58168c5ae7397731d063d5bbf3d657854427343f4c083240f7aacaa2d0f6291a45b6001600160a01b038116611360575b5050505050565b84516001036113865760208061137c96015192015192336116f8565b3880808080611359565b611392949192336115c4565b61137c565b6040516001600160a01b03828116919085169033907f4a39dc06d4c0dbc64b70af90fd698a233a518aa5d07e595d983b8c0526c8f7fb90806113da888c836113e2565b0390a461134a565b90916113f96104bf93604084526040840190610808565b916020818403910152610808565b9081602091031261014157516104bf816101bd565b9261144b6104bf95936114599360018060a01b031686526000602087015260a0604087015260a0860190610808565b908482036060860152610808565b91608081840391015261046e565b93906104bf959361144b916114599460018060a01b03809216885216602087015260a0604087015260a0860190610808565b3d156114c4573d906114aa82610296565b916114b86040519384610274565b82523d6000602084013e565b606090565b9293919093843b6114db575050505050565b6020916114fe604051948593849363bc197c8160e01b988986526004860161141c565b038160006001600160a01b0388165af160009181611593575b506115565782611525611499565b805191908261154f57604051632bfa23e760e11b81526001600160a01b0383166004820152602490fd5b9050602001fd5b6001600160e01b0319160361157057503880808080611359565b604051632bfa23e760e11b81526001600160a01b03919091166004820152602490fd5b6115b691925060203d6020116115bd575b6115ae8183610274565b810190611407565b9038611517565b503d6115a4565b939290949194853b6115d9575b505050505050565b6115fc602093604051958694859463bc197c8160e01b998a875260048701611467565b038160006001600160a01b0388165af16000918161163e575b506116235782611525611499565b6001600160e01b0319160361157057503880808080806115d1565b61165891925060203d6020116115bd576115ae8183610274565b9038611615565b909260a0926104bf9594600180861b031683526000602084015260408301526060820152816080820152019061046e565b91926104bf95949160a094600180871b03809216855216602084015260408301526060820152816080820152019061046e565b9293919093843b6116d5575050505050565b6020916114fe604051948593849363f23a6e6160e01b988986526004860161165f565b939290949194853b61170c57505050505050565b6115fc602093604051958694859463f23a6e6160e01b998a87526004870161169056fea264697066735822122026a7e018d465551a0c2b9ce53be6710d0b135dd38baa00473cf7c186fc6a29ed64736f6c63430008180033",
  "linkReferences": {},
  "deployedLinkReferences": {}
}