{
  "_format": "hh-sol-artifact-1",
  "contractName": "EventTicket",
  "sourceName": "contracts/EventTicket.sol",
  "abi": [
    {
      "inputs": [
        {
          "internalType": "address",
          "name": "initialOwner",
          "type": "address"
        },
        {
          "internalType": "string",
          "name": "uri",
          "type": "string"
        }
      ],
      "stateMutability": "nonpayable",
      "type": "constructor"
    },
    {
      "inputs": [
        {
          "internalType": "address",
          "name": "sender",
          "type": "address"
        },
        {
          "internalType": "uint256",
          "name": "balance",
          "type": "uint256"
        },
        {
          "internalType": "uint256",
          "name": "needed",
          "type": "uint256"
        },
        {
          "internalType": "uint256",
          "name": "tokenId",
          "type": "uint256"
        }
      ],
      "name": "ERC1155InsufficientBalance",
      "type": "error"
    },
    {
      "inputs": [
        {
          "internalType": "address",
          "name": "approver",
          "type": "address"
        }
      ],
      "name": "ERC1155InvalidApprover",
      "type": "error"
    },
    {
      "inputs": [
        {
          "internalType": "uint256",
          "name": "idsLength",
          "type": "uint256"
        },
        {
          "internalType": "uint256",
          "name": "valuesLength",
          "type": "uint256"
        }
      ],
      "name": "ERC1155InvalidArrayLength",
      "type": "error"
    },
    {
      "inputs": [
        {
          "internalType": "address",
          "name": "operator",
          "type": "address"
        }
      ],
      "name": "ERC1155InvalidOperator",
      "type": "error"
    },
    {
      "inputs": [
        {
          "internalType": "address",
          "name": "receiver",
          "type": "address"
        }
      ],
      "name": "ERC1155InvalidReceiver",
      "type": "error"
    },
    {
      "inputs": [
        {
          "internalType": "address",
          "name": "sender",
          "type": "address"
        }
      ],
      "name": "ERC1155InvalidSender",
      "type": "error"
    },
    {
      "inputs": [
        {
          "internalType": "address",
          "name": "operator",
          "type": "address"
        },
        {
          "internalType": "address",
          "name": "owner",
          "type": "address"
        }
      ],
      "name": "ERC1155MissingApprovalForAll",
      "type": "error"
    },
    {
      "inputs": [
        {
          "internalType": "address",
          "name": "owner",
          "type": "address"
        }
      ],
      "name": "OwnableInvalidOwner",
      "type": "error"
    },
    {
      "inputs": [
        {
          "internalType": "address",
          "name": "account",
          "type": "address"
        }
      ],
      "name": "OwnableUnauthorizedAccount",
      "type": "error"
    },
    {
      "anonymous": false,
      "inputs": [
        {
          "indexed": true,
          "internalType": "address",
          "name": "account",
          "type": "address"
        },
        {
          "indexed": true,
          "internalType": "address",
          "name": "operator",
          "type": "address"
        },
        {
          "indexed": false,
          "internalType": "bool",
          "name": "approved",
          "type": "bool"
        }
      ],
      "name": "ApprovalForAll",
      "type": "event"
    },
    {
      "anonymous": false,
      "inputs": [
        {
          "indexed": true,
          "internalType": "address",
          "name": "previousOwner",
          "type": "address"
        },
        {
          "indexed": true,
          "internalType": "address",
          "name": "newOwner",
          "type": "address"
        }
      ],
      "name": "OwnershipTransferred",
      "type": "event"
    },
    {
      "anonymous": false,
      "inputs": [
        {
          "indexed": true,
          "internalType": "address",
          "name": "operator",
          "type": "address"
        },
        {
          "indexed": true,
          "internalType": "address",
          "name": "from",
          "type": "address"
        },
        {
          "indexed": true,
          "internalType": "address",
          "name": "to",
          "type": "address"
        },
        {
          "indexed": false,
          "internalType": "uint256[]",
          "name": "ids",
          "type": "uint256[]"
        },
        {
          "indexed": false,
          "internalType": "uint256[]",
          "name": "values",
          "type": "uint256[]"
        }
      ],
      "name": "TransferBatch",
      "type": "event"
    },
    {
      "anonymous": false,
      "inputs": [
        {
          "indexed": true,
          "internalType": "address",
          "name": "operator",
          "type": "address"
        },
        {
          "indexed": true,
          "internalType": "address",
          "name": "from",
          "type": "address"
        },
        {
          "indexed": true,
          "internalType": "address",
          "name": "to",
          "type": "address"
        },
        {
          "indexed": false,
          "internalType": "uint256",
          "name": "id",
          "type": "uint256"
        },
        {
          "indexed": false,
          "internalType": "uint256",
          "name": "value",
          "type": "uint256"
        }
      ],
      "name": "TransferSingle",
      "type": "event"
    },
    {
      "anonymous": false,
      "inputs": [
        {
          "indexed": false,
          "internalType": "string",
          "name": "value",
          "type": "string"
        },
        {
          "indexed": true,
          "internalType": "uint256",
          "name": "id",
          "type": "uint256"
        }
      ],
      "name": "URI",
      "type": "event"
    },
    {
      "inputs": [
        {
          "internalType": "address",
          "name": "account",
          "type": "address"
        },
        {
          "internalType": "uint256",
          "name": "id",
          "type": "uint256"
        }
      ],
      "name": "balanceOf",
      "outputs": [
        {
          "internalType": "uint256",
          "name": "",
          "type": "uint256"
        }
      ],
      "stateMutability": "view",
      "type": "function"
    },
    {
      "inputs": [
        {
          "internalType": "address[]",
          "name": "accounts",
          "type": "address[]"
        },
        {
          "internalType": "uint256[]",
          "name": "ids",
          "type": "uint256[]"
        }
      ],
      "name": "balanceOfBatch",
      "outputs": [
        {
          "internalType": "uint256[]",
          "name": "",
          "type": "uint256[]"
        }
      ],
      "stateMutability": "view",
      "type": "function"
    },
    {
      "inputs": [
        {
          "internalType": "address",
          "name": "holder",
          "type": "address"
        },
        {
          "internalType": "uint256",
          "name": "id",
          "type": "uint256"
        }
      ],
      "name": "checkInTicket",
      "outputs": [],
      "stateMutability": "nonpayable",
      "type": "function"
    },
    {
      "inputs": [
        {
          "internalType": "uint256",
          "name": "",
          "type": "uint256"
        },
        {
          "internalType": "address",
          "name": "",
          "type": "address"
        }
      ],
      "name": "checkedIn",
      "outputs": [
        {
          "internalType": "bool",
          "name": "",
          "type": "bool"
        }
      ],
      "stateMutability": "view",
      "type": "function"
    },
    {
      "inputs": [
        {
          "internalType": "address",
          "name": "account",
          "type": "address"
        },
        {
          "internalType": "address",
          "name": "operator",
          "type": "address"
        }
      ],
      "name": "isApprovedForAll",
      "outputs": [
        {
          "internalType": "bool",
          "name": "",
          "type": "bool"
        }
      ],
      "stateMutability": "view",
      "type": "function"
    },
    {
      "inputs": [
        {
          "internalType": "address",
          "name": "to",
          "type": "address"
        },
        {
          "internalType": "uint256",
          "name": "id",
          "type": "uint256"
        },
        {
          "internalType": "uint256",
          "name": "amount",
          "type": "uint256"
        }
      ],
      "name": "mint",
      "outputs": [],
      "stateMutability": "nonpayable",
      "type": "function"
    },
    {
      "inputs": [
        {
          "internalType": "address",
          "name": "to",
          "type": "address"
        },
        {
          "internalType": "uint256[]",
          "name": "ids",
          "type": "uint256[]"
        },
        {
          "internalType": "uint256[]",
          "name": "amounts",
          "type": "uint256[]"
        }
      ],
      "name": "mintBatch",
      "outputs": [],
      "stateMutability": "nonpayable",
      "type": "function"
    },
    {
      "inputs": [],
      "name": "owner",
      "outputs": [
        {
          "internalType": "address",
          "name": "",
          "type": "address"
        }
      ],
      "stateMutability": "view",
      "type": "function"
    },
    {
      "inputs": [],
      "name": "renounceOwnership",
      "outputs": [],
      "stateMutability": "nonpayable",
      "type": "function"
    },
    {
      "inputs": [
        {
          "internalType": "address",
          "name": "from",
          "type": "address"
        },
        {
          "internalType": "address",
          "name": "to",
          "type": "address"
        },
        {
          "internalType": "uint256[]",
          "name": "ids",
          "type": "uint256[]"
        },
        {
          "internalType": "uint256[]",
          "name": "values",
          "type": "uint256[]"
        },
        {
          "internalType": "bytes",
          "name": "data",
          "type": "bytes"
        }
      ],
      "name": "safeBatchTransferFrom",
      "outputs": [],
      "stateMutability": "nonpayable",
      "type": "function"
    },
    {
      "inputs": [
        {
          "internalType": "address",
          "name": "from",
          "type": "address"
        },
        {
          "internalType": "address",
          "name": "to",
          "type": "address"
        },
        {
          "internalType": "uint256",
          "name": "id",
          "type": "uint256"
        },
        {
          "internalType": "uint256",
          "name": "value",
          "type": "uint256"
        },
        {
          "internalType": "bytes",
          "name": "data",
          "type": "bytes"
        }
      ],
      "name": "safeTransferFrom",
      "outputs": [],
      "stateMutability": "nonpayable",
      "type": "function"
    },
    {
      "inputs": [
        {
          "internalType": "address",
          "name": "operator",
          "type": "address"
        },
        {
          "internalType": "bool",
          "name": "approved",
          "type": "bool"
        }
      ],
      "name": "setApprovalForAll",
      "outputs": [],
      "stateMutability": "nonpayable",
      "type": "function"
    },
    {
      "inputs": [
        {
          "internalType": "string",
          "name": "newuri",
          "type": "string"
        }
      ],
      "name": "setURI",
      "outputs": [],
      "stateMutability": "nonpayable",
      "type": "function"
    },
    {
      "inputs": [
        {
          "internalType": "bytes4",
          "name": "interfaceId",
          "type": "bytes4"
        }
      ],
      "name": "supportsInterface",
      "outputs": [
        {
          "internalType": "bool",
          "name": "",
          "type": "bool"
        }
      ],
      "stateMutability": "view",
      "type": "function"
    },
    {
      "inputs": [
        {
          "internalType": "uint256",
          "name": "",
          "type": "uint256"
        }
      ],
      "name": "tierSupply",
      "outputs": [
        {
          "internalType": "uint256",
          "name": "",
          "type": "uint256"
        }
      ],
      "stateMutability": "view",
      "type": "function"
    },
    {
      "inputs": [
        {
          "internalType": "address",
          "name": "newOwner",
          "type": "address"
        }
      ],
      "name": "transferOwnership",
      "outputs": [],
      "stateMutability": "nonpayable",
      "type": "function"
    },
    {
      "inputs": [
        {
          "internalType": "uint256",
          "name": "",
          "type": "uint256"
        }
      ],
      "name": "uri",
      "outputs": [
        {
          "internalType": "string",
          "name": "",
          "type": "string"
        }
      ],
      "stateMutability": "view",
      "type": "function"
    }
  ],
  "bytecode": "0x608060405234801561000f575f80fd5b50604051611a0b380380611a0b83398101604081905261002e916100ed565b818161003981610078565b506001600160a01b03811661006757604051631e4fbdf760e01b81525f600482015260240160405180910390fd5b61007081610088565b5050506102f9565b6002610084828261023a565b5050565b600380546001600160a01b038381166001600160a01b0319831681179093556040519116919082907f8be0079c531659141344cd1fd0a4f28419497f9722a3daafe3b4186f6b6457e0905f90a35050565b634e487b7160e01b5f52604160045260245ffd5b5f80604083850312156100fe575f80fd5b82516001600160a01b0381168114610114575f80fd5b60208401519092506001600160401b0380821115610130575f80fd5b818501915085601f830112610143575f80fd5b815181811115610155576101556100d9565b604051601f8201601f19908116603f0116810190838211818310171561017d5761017d6100d9565b81604052828152886020848701011115610195575f80fd5b8260208601602083015e5f6020848301015280955050505050509250929050565b600181811c908216806101ca57607f821691505b6020821081036101e857634e487b7160e01b5f52602260045260245ffd5b50919050565b601f82111561023557805f5260205f20601f840160051c810160208510156102135750805b601f840160051c820191505b81811015610232575f815560010161021f565b50505b505050565b81516001600160401b03811115610253576102536100d9565b6102678161026184546101b6565b846101ee565b602080601f83116001811461029a575f84156102835750858301515b5f19600386901b1c1916600185901b1785556102f1565b5f85815260208120601f198616915b828110156102c8578886015182559484019460019091019084016102a9565b50858210156102e557878501515f19600388901b60f8161c191681555b505060018460011b0185555b505050505050565b611705806103065f395ff3fe608060405234801561000f575f80fd5b50600436106100d8575f3560e01c8062fdd58e146100dc57806301ffc9a71461010257806302fe530514610125578063088bcc301461013a5780630e89341c14610167578063156e29f6146101875780632eb2c2d61461019a5780634e1273f4146101ad578063715018a6146101cd5780638da5cb5b146101d5578063a22cb465146101ea578063c19d981c146101fd578063d81d0a1514610210578063e985e9c514610223578063f242432a14610236578063f2fde38b14610249578063f60f206c1461025c575b5f80fd5b6100ef6100ea366004610ebb565b61027b565b6040519081526020015b60405180910390f35b610115610110366004610ef8565b6102a2565b60405190151581526020016100f9565b610138610133366004610fb2565b6102f1565b005b610115610148366004610ffe565b600560209081525f928352604080842090915290825290205460ff1681565b61017a610175366004611028565b610305565b6040516100f9919061106d565b61013861019536600461107f565b610397565b6101386101a836600461115b565b6103e0565b6101c06101bb3660046111fd565b610441565b6040516100f991906112f0565b610138610507565b6101dd61051a565b6040516100f99190611302565b6101386101f8366004611316565b610529565b61013861020b366004610ebb565b610538565b61013861021e36600461134f565b610634565b6101156102313660046113bd565b6106c6565b6101386102443660046113e5565b6106f3565b610138610257366004611444565b610743565b6100ef61026a366004611028565b60046020525f908152604090205481565b5f818152602081815260408083206001600160a01b03861684529091529020545b92915050565b5f6001600160e01b03198216636cdb3d1360e11b14806102d257506001600160e01b031982166303a24d0760e21b145b8061029c57506301ffc9a760e01b6001600160e01b031983161461029c565b6102f961077d565b610302816107af565b50565b6060600280546103149061145d565b80601f01602080910402602001604051908101604052809291908181526020018280546103409061145d565b801561038b5780601f106103625761010080835404028352916020019161038b565b820191905f5260205f20905b81548152906001019060200180831161036e57829003601f168201915b50505050509050919050565b61039f61077d565b6103b983838360405180602001604052805f8152506107bb565b5f82815260046020526040812080548392906103d6908490611495565b9091555050505050565b336001600160a01b038616811480159061040157506103ff86826106c6565b155b1561042c57808660405163711bec9160e11b81526004016104239291906114b4565b60405180910390fd5b6104398686868686610801565b505050505050565b606081518351146104725781518351604051635b05999160e01b815260048101929092526024820152604401610423565b5f83516001600160401b0381111561048c5761048c610f1a565b6040519080825280602002602001820160405280156104b5578160200160208202803683370190505b5090505f5b84518110156104ff576104da6104d08683610866565b6100ea8684610866565b8282815181106104ec576104ec6114ce565b60209081029190910101526001016104ba565b509392505050565b61050f61077d565b6105185f610874565b565b6003546001600160a01b031690565b6105343383836108c5565b5050565b61054061077d565b5f61054b838361027b565b116105985760405162461bcd60e51b815260206004820152601f60248201527f486f6c64657220646f6573206e6f74206f776e2074686973207469636b6574006044820152606401610423565b5f8181526005602090815260408083206001600160a01b038616845290915290205460ff16156106065760405162461bcd60e51b81526020600482015260196024820152782a34b1b5b2ba1030b63932b0b23c9031b432b1b5b2b21034b760391b6044820152606401610423565b5f9081526005602090815260408083206001600160a01b03909416835292905220805460ff19166001179055565b61063c61077d565b61065683838360405180602001604052805f815250610959565b5f5b82518110156106c057818181518110610673576106736114ce565b602002602001015160045f858481518110610690576106906114ce565b602002602001015181526020019081526020015f205f8282546106b39190611495565b9091555050600101610658565b50505050565b6001600160a01b039182165f90815260016020908152604080832093909416825291909152205460ff1690565b336001600160a01b0386168114801590610714575061071286826106c6565b155b1561073657808660405163711bec9160e11b81526004016104239291906114b4565b610439868686868661098f565b61074b61077d565b6001600160a01b038116610774575f604051631e4fbdf760e01b81526004016104239190611302565b61030281610874565b3361078661051a565b6001600160a01b031614610518573360405163118cdaa760e01b81526004016104239190611302565b6002610534828261152b565b6001600160a01b0384166107e4575f604051632bfa23e760e11b81526004016104239190611302565b5f806107f08585610a06565b915091506104395f87848487610a2e565b6001600160a01b03841661082a575f604051632bfa23e760e11b81526004016104239190611302565b6001600160a01b038516610852575f604051626a0d4560e21b81526004016104239190611302565b61085f8585858585610a2e565b5050505050565b602090810291909101015190565b600380546001600160a01b038381166001600160a01b0319831681179093556040519116919082907f8be0079c531659141344cd1fd0a4f28419497f9722a3daafe3b4186f6b6457e0905f90a35050565b6001600160a01b0382166108ed575f60405162ced3e160e81b81526004016104239190611302565b6001600160a01b038381165f81815260016020908152604080832094871680845294825291829020805460ff191686151590811790915591519182527f17307eab39ab6107e8899845ad3d59bd9653f200f220920489ca2b5937696c31910160405180910390a3505050565b6001600160a01b038416610982575f604051632bfa23e760e11b81526004016104239190611302565b6106c05f85858585610a2e565b6001600160a01b0384166109b8575f604051632bfa23e760e11b81526004016104239190611302565b6001600160a01b0385166109e0575f604051626a0d4560e21b81526004016104239190611302565b5f806109ec8585610a06565b915091506109fd8787848487610a2e565b50505050505050565b6040805160018082526020820194909452808201938452606081019290925260808201905291565b610a3a85858585610a91565b6001600160a01b0384161561085f5782513390600103610a83575f610a5f8582610866565b90505f610a6c8582610866565b9050610a7c838989858589610cb3565b5050610439565b610439818787878787610dc2565b8051825114610ac05781518151604051635b05999160e01b815260048101929092526024820152604401610423565b335f5b8351811015610bca575f610ad78583610866565b90505f610ae48584610866565b90506001600160a01b03881615610b7c575f828152602081815260408083206001600160a01b038c16845290915290205481811015610b56576040516303dee4c560e01b81526001600160a01b038a166004820152602481018290526044810183905260648101849052608401610423565b5f838152602081815260408083206001600160a01b038d16845290915290209082900390555b6001600160a01b03871615610bc0575f828152602081815260408083206001600160a01b038b16845290915281208054839290610bba908490611495565b90915550505b5050600101610ac3565b508251600103610c55575f610bdf8482610866565b90505f610bec8482610866565b9050856001600160a01b0316876001600160a01b0316846001600160a01b03167fc3d58168c5ae7397731d063d5bbf3d657854427343f4c083240f7aacaa2d0f628585604051610c46929190918252602082015260400190565b60405180910390a4505061085f565b836001600160a01b0316856001600160a01b0316826001600160a01b03167f4a39dc06d4c0dbc64b70af90fd698a233a518aa5d07e595d983b8c0526c8f7fb8686604051610ca49291906115e6565b60405180910390a45050505050565b6001600160a01b0384163b156104395760405163f23a6e6160e01b81526001600160a01b0385169063f23a6e6190610cf79089908990889088908890600401611613565b6020604051808303815f875af1925050508015610d31575060408051601f3d908101601f19168201909252610d2e91810190611657565b60015b610d8f573d808015610d5e576040519150601f19603f3d011682016040523d82523d5f602084013e610d63565b606091505b5080515f03610d875784604051632bfa23e760e11b81526004016104239190611302565b805160208201fd5b6001600160e01b0319811663f23a6e6160e01b146109fd5784604051632bfa23e760e11b81526004016104239190611302565b6001600160a01b0384163b156104395760405163bc197c8160e01b81526001600160a01b0385169063bc197c8190610e069089908990889088908890600401611672565b6020604051808303815f875af1925050508015610e40575060408051601f3d908101601f19168201909252610e3d91810190611657565b60015b610e6d573d808015610d5e576040519150601f19603f3d011682016040523d82523d5f602084013e610d63565b6001600160e01b0319811663bc197c8160e01b146109fd5784604051632bfa23e760e11b81526004016104239190611302565b80356001600160a01b0381168114610eb6575f80fd5b919050565b5f8060408385031215610ecc575f80fd5b610ed583610ea0565b946020939093013593505050565b6001600160e01b031981168114610302575f80fd5b5f60208284031215610f08575f80fd5b8135610f1381610ee3565b9392505050565b634e487b7160e01b5f52604160045260245ffd5b604051601f8201601f191681016001600160401b0381118282101715610f5657610f56610f1a565b604052919050565b5f6001600160401b03831115610f7657610f76610f1a565b610f89601f8401601f1916602001610f2e565b9050828152838383011115610f9c575f80fd5b828260208301375f602084830101529392505050565b5f60208284031215610fc2575f80fd5b81356001600160401b03811115610fd7575f80fd5b8201601f81018413610fe7575f80fd5b610ff684823560208401610f5e565b949350505050565b5f806040838503121561100f575f80fd5b8235915061101f60208401610ea0565b90509250929050565b5f60208284031215611038575f80fd5b5035919050565b5f81518084528060208401602086015e5f602082860101526020601f19601f83011685010191505092915050565b602081525f610f13602083018461103f565b5f805f60608486031215611091575f80fd5b61109a84610ea0565b95602085013595506040909401359392505050565b5f6001600160401b038211156110c7576110c7610f1a565b5060051b60200190565b5f82601f8301126110e0575f80fd5b813560206110f56110f0836110af565b610f2e565b8083825260208201915060208460051b870101935086841115611116575f80fd5b602086015b84811015611132578035835291830191830161111b565b509695505050505050565b5f82601f83011261114c575f80fd5b610f1383833560208501610f5e565b5f805f805f60a0868803121561116f575f80fd5b61117886610ea0565b945061118660208701610ea0565b935060408601356001600160401b03808211156111a1575f80fd5b6111ad89838a016110d1565b945060608801359150808211156111c2575f80fd5b6111ce89838a016110d1565b935060808801359150808211156111e3575f80fd5b506111f08882890161113d565b9150509295509295909350565b5f806040838503121561120e575f80fd5b82356001600160401b0380821115611224575f80fd5b818501915085601f830112611237575f80fd5b813560206112476110f0836110af565b82815260059290921b84018101918181019089841115611265575f80fd5b948201945b8386101561128a5761127b86610ea0565b8252948201949082019061126a565b9650508601359250508082111561129f575f80fd5b506112ac858286016110d1565b9150509250929050565b5f815180845260208085019450602084015f5b838110156112e5578151875295820195908201906001016112c9565b509495945050505050565b602081525f610f1360208301846112b6565b6001600160a01b0391909116815260200190565b5f8060408385031215611327575f80fd5b61133083610ea0565b915060208301358015158114611344575f80fd5b809150509250929050565b5f805f60608486031215611361575f80fd5b61136a84610ea0565b925060208401356001600160401b0380821115611385575f80fd5b611391878388016110d1565b935060408601359150808211156113a6575f80fd5b506113b3868287016110d1565b9150509250925092565b5f80604083850312156113ce575f80fd5b6113d783610ea0565b915061101f60208401610ea0565b5f805f805f60a086880312156113f9575f80fd5b61140286610ea0565b945061141060208701610ea0565b9350604086013592506060860135915060808601356001600160401b03811115611438575f80fd5b6111f08882890161113d565b5f60208284031215611454575f80fd5b610f1382610ea0565b600181811c9082168061147157607f821691505b60208210810361148f57634e487b7160e01b5f52602260045260245ffd5b50919050565b8082018082111561029c57634e487b7160e01b5f52601160045260245ffd5b6001600160a01b0392831681529116602082015260400190565b634e487b7160e01b5f52603260045260245ffd5b601f82111561152657805f5260205f20601f840160051c810160208510156115075750805b601f840160051c820191505b8181101561085f575f8155600101611513565b505050565b81516001600160401b0381111561154457611544610f1a565b61155881611552845461145d565b846114e2565b602080601f83116001811461158b575f84156115745750858301515b5f19600386901b1c1916600185901b178555610439565b5f85815260208120601f198616915b828110156115b95788860151825594840194600190910190840161159a565b50858210156115d657878501515f19600388901b60f8161c191681555b5050505050600190811b01905550565b604081525f6115f860408301856112b6565b828103602084015261160a81856112b6565b95945050505050565b6001600160a01b03868116825285166020820152604081018490526060810183905260a0608082018190525f9061164c9083018461103f565b979650505050505050565b5f60208284031215611667575f80fd5b8151610f1381610ee3565b6001600160a01b0386811682528516602082015260a0604082018190525f9061169d908301866112b6565b82810360608401526116af81866112b6565b905082810360808401526116c3818561103f565b9897505050505050505056fea26469706673582212209bdfd0e3d5d0de8a23d64f75cd32ae728058984347b27ebe6286990433237a4c64736f6c63430008190033",
  "linkReferences": {},
  "deployedLinkReferences": {}
}