{
  "_format": "hh-sol-artifact-1",
  "contractName": "Escrow",
  "sourceName": "contracts/Escrow.sol",
  "abi": [
    {
      "inputs": [
        {
          "internalType": "address",
          "name": "_payer",
          "type": "address"
        },
        {
          "internalType": "address",
          "name": "_payee",
          "type": "address"
        },
        {
          "internalType": "address",
          "name": "_initialOwner",
          "type": "address"
        }
      ],
      "stateMutability": "nonpayable",
      "type": "constructor"
    },
    {
      "inputs": [
        {
          "internalType": "address",
          "name": "owner",
          "type": "address"
        }
      ],
      "name": "OwnableInvalidOwner",
      "type": "error"
    },
    {
      "inputs": [
        {
          "internalType": "address",
          "name": "account",
          "type": "address"
        }
      ],
      "name": "OwnableUnauthorizedAccount",
      "type": "error"
    },
    {
      "inputs": [],
      "name": "ReentrancyGuardReentrantCall",
      "type": "error"
    },
    {
      "anonymous": false,
      "inputs": [],
      "name": "Cancelled",
      "type": "event"
    },
    {
      "anonymous": false,
      "inputs": [
        {
          "indexed": false,
          "internalType": "uint256",
          "name": "amount",
          "type": "uint256"
        }
      ],
      "name": "Deposited",
      "type": "event"
    },
    {
      "anonymous": false,
      "inputs": [
        {
          "indexed": true,
          "internalType": "address",
          "name": "previousOwner",
          "type": "address"
        },
        {
          "indexed": true,
          "internalType": "address",
          "name": "newOwner",
          "type": "address"
        }
      ],
      "name": "OwnershipTransferred",
      "type": "event"
    },
    {
      "anonymous": false,
      "inputs": [
        {
          "indexed": false,
          "internalType": "uint256",
          "name": "amount",
          "type": "uint256"
        }
      ],
      "name": "Released",
      "type": "event"
    },
    {
      "inputs": [],
      "name": "amount",
      "outputs": [
        {
          "internalType": "uint256",
          "name": "",
          "type": "uint256"
        }
      ],
      "stateMutability": "view",
      "type": "function"
    },
    {
      "inputs": [],
      "name": "cancel",
      "outputs": [],
      "stateMutability": "nonpayable",
      "type": "function"
    },
    {
      "inputs": [],
      "name": "currentState",
      "outputs": [
        {
          "internalType": "enum Escrow.State",
          "name": "",
          "type": "uint8"
        }
      ],
      "stateMutability": "view",
      "type": "function"
    },
    {
      "inputs": [],
      "name": "deposit",
      "outputs": [],
      "stateMutability": "payable",
      "type": "function"
    },
    {
      "inputs": [],
      "name": "owner",
      "outputs": [
        {
          "internalType": "address",
          "name": "",
          "type": "address"
        }
      ],
      "stateMutability": "view",
      "type": "function"
    },
    {
      "inputs": [],
      "name": "payee",
      "outputs": [
        {
          "internalType": "address",
          "name": "",
          "type": "address"
        }
      ],
      "stateMutability": "view",
      "type": "function"
    },
    {
      "inputs": [],
      "name": "payer",
      "outputs": [
        {
          "internalType": "address",
          "name": "",
          "type": "address"
        }
      ],
      "stateMutability": "view",
      "type": "function"
    },
    {
      "inputs": [],
      "name": "release",
      "outputs": [],
      "stateMutability": "nonpayable",
      "type": "function"
    },
    {
      "inputs": [],
      "name": "renounceOwnership",
      "outputs": [],
      "stateMutability": "nonpayable",
      "type": "function"
    },
    {
      "inputs": [
        {
          "internalType": "address",
          "name": "newOwner",
          "type": "address"
        }
      ],
      "name": "transferOwnership",
      "outputs": [],
      "stateMutability": "nonpayable",
      "type": "function"
    }
  ],
  "bytecode": "0x608060405234801561000f575f80fd5b506040516108be3803806108be83398101604081905261002e91610110565b806001600160a01b03811661005c57604051631e4fbdf760e01b81525f600482015260240160405180910390fd5b610065816100a6565b505060018055600280546001600160a01b039384166001600160a01b031991821617909155600380549290931691161790556005805460ff19169055610150565b5f80546001600160a01b038381166001600160a01b0319831681178455604051919092169283917f8be0079c531659141344cd1fd0a4f28419497f9722a3daafe3b4186f6b6457e09190a35050565b80516001600160a01b038116811461010b575f80fd5b919050565b5f805f60608486031215610122575f80fd5b61012b846100f5565b9250610139602085016100f5565b9150610147604085016100f5565b90509250925092565b6107618061015d5f395ff3fe60806040526004361061008f575f3560e01c8063aa8c217c11610057578063aa8c217c1461013f578063ae90b21314610162578063d0e30db014610181578063ea8a1af014610189578063f2fde38b1461019d575f80fd5b80630c3f6acf14610093578063123119cd146100c2578063715018a6146100f957806386d1a69f1461010f5780638da5cb5b14610123575b5f80fd5b34801561009e575f80fd5b506005546100ac9060ff1681565b6040516100b99190610693565b60405180910390f35b3480156100cd575f80fd5b506002546100e1906001600160a01b031681565b6040516001600160a01b0390911681526020016100b9565b348015610104575f80fd5b5061010d6101bc565b005b34801561011a575f80fd5b5061010d6101cf565b34801561012e575f80fd5b505f546001600160a01b03166100e1565b34801561014a575f80fd5b5061015460045481565b6040519081526020016100b9565b34801561016d575f80fd5b506003546100e1906001600160a01b031681565b61010d610365565b348015610194575f80fd5b5061010d610433565b3480156101a8575f80fd5b5061010d6101b73660046106b9565b61059d565b6101c46105da565b6101cd5f610606565b565b6002546001600160a01b031633146102025760405162461bcd60e51b81526004016101f9906106e6565b60405180910390fd5b61020a610655565b600160055460ff1660038111156102235761022361067f565b1461027e5760405162461bcd60e51b815260206004820152602560248201527f43616e6e6f742072656c656173652066756e647320696e2063757272656e7420604482015264737461746560d81b60648201526084016101f9565b6005805460ff191660021790556003546004546040515f926001600160a01b031691908381818185875af1925050503d805f81146102d7576040519150601f19603f3d011682016040523d82523d5f602084013e6102dc565b606091505b50509050806103205760405162461bcd60e51b815260206004820152601060248201526f2a3930b739b332b9103330b4b632b21760811b60448201526064016101f9565b7ffb81f9b30d73d830c3544b34d827c08142579ee75710b490bab0b3995468c56560045460405161035391815260200190565b60405180910390a1506101cd60018055565b6002546001600160a01b0316331461038f5760405162461bcd60e51b81526004016101f9906106e6565b5f60055460ff1660038111156103a7576103a761067f565b146103eb5760405162461bcd60e51b81526020600482015260146024820152734465706f73697420616c7265616479206d61646560601b60448201526064016101f9565b3460048190556005805460ff191660011790556040519081527f2a89b2e3d580398d6dc2db5e0f336b52602bbaa51afa9bb5cdf59239cf0d2bea9060200160405180910390a1565b6002546001600160a01b0316331461045d5760405162461bcd60e51b81526004016101f9906106e6565b610465610655565b600160055460ff16600381111561047e5761047e61067f565b146104cb5760405162461bcd60e51b815260206004820152601e60248201527f43616e6e6f742063616e63656c20696e2063757272656e74207374617465000060448201526064016101f9565b6005805460ff191660031790556002546004546040515f926001600160a01b031691908381818185875af1925050503d805f8114610524576040519150601f19603f3d011682016040523d82523d5f602084013e610529565b606091505b505090508061056b5760405162461bcd60e51b815260206004820152600e60248201526d2932b33ab732103330b4b632b21760911b60448201526064016101f9565b6040517f63b958841f79ab97cb5456da181454b9932c0e15a3b17f1cbd27e2a8bc610437905f90a1506101cd60018055565b6105a56105da565b6001600160a01b0381166105ce57604051631e4fbdf760e01b81525f60048201526024016101f9565b6105d781610606565b50565b5f546001600160a01b031633146101cd5760405163118cdaa760e01b81523360048201526024016101f9565b5f80546001600160a01b038381166001600160a01b0319831681178455604051919092169283917f8be0079c531659141344cd1fd0a4f28419497f9722a3daafe3b4186f6b6457e09190a35050565b60026001540361067857604051633ee5aeb560e01b815260040160405180910390fd5b6002600155565b634e487b7160e01b5f52602160045260245ffd5b60208101600483106106b357634e487b7160e01b5f52602160045260245ffd5b91905290565b5f602082840312156106c9575f80fd5b81356001600160a01b03811681146106df575f80fd5b9392505050565b60208082526025908201527f4f6e6c79207468652070617965722063616e2063616c6c20746869732066756e60408201526431ba34b7b760d91b60608201526080019056fea2646970667358221220af0ea40baeafa85330f1aed8def63b808c335bc3cf7e79ab924bb3d9f92f7ebd64736f6c63430008180033",
  "linkReferences": {},
  "deployedLinkReferences": {}
}