{
  "_format": "hh-sol-artifact-1",
  "contractName": "Escrow",
  "sourceName": "contracts/Escrow.sol",
  "abi": [
    {
      "inputs": [
        {
          "internalType": "address",
          "name": "_payer",
          "type": "address"
        },
        {
          "internalType": "address",
          "name": "_payee",
          "type": "address"
        },
        {
          "internalType": "address",
          "name": "_initialOwner",
          "type": "address"
        }
      ],
      "stateMutability": "nonpayable",
      "type": "constructor"
    },
    {
      "inputs": [
        {
          "internalType": "address",
          "name": "owner",
          "type": "address"
        }
      ],
      "name": "OwnableInvalidOwner",
      "type": "error"
    },
    {
      "inputs": [
        {
          "internalType": "address",
          "name": "account",
          "type": "address"
        }
      ],
      "name": "OwnableUnauthorizedAccount",
      "type": "error"
    },
    {
      "inputs": [],
      "name": "ReentrancyGuardReentrantCall",
      "type": "error"
    },
    {
      "anonymous": false,
      "inputs": [],
      "name": "Cancelled",
      "type": "event"
    },
    {
      "anonymous": false,
      "inputs": [
        {
          "indexed": false,
          "internalType": "uint256",
          "name": "amount",
          "type": "uint256"
        }
      ],
      "name": "Deposited",
      "type": "event"
    },
    {
      "anonymous": false,
      "inputs": [
        {
          "indexed": true,
          "internalType": "address",
          "name": "previousOwner",
          "type": "address"
        },
        {
          "indexed": true,
          "internalType": "address",
          "name": "newOwner",
          "type": "address"
        }
      ],
      "name": "OwnershipTransferred",
      "type": "event"
    },
    {
      "anonymous": false,
      "inputs": [
        {
          "indexed": false,
          "internalType": "uint256",
          "name": "amount",
          "type": "uint256"
        }
      ],
      "name": "Released",
      "type": "event"
    },
    {
      "inputs": [],
      "name": "amount",
      "outputs": [
        {
          "internalType": "uint256",
          "name": "",
          "type": "uint256"
        }
      ],
      "stateMutability": "view",
      "type": "function"
    },
    {
      "inputs": [],
      "name": "cancel",
      "outputs": [],
      "stateMutability": "nonpayable",
      "type": "function"
    },
    {
      "inputs": [],
      "name": "currentState",
      "outputs": [
        {
          "internalType": "enum Escrow.State",
          "name": "",
          "type": "uint8"
        }
      ],
      "stateMutability": "view",
      "type": "function"
    },
    {
      "inputs": [],
      "name": "deposit",
      "outputs": [],
      "stateMutability": "payable",
      "type": "function"
    },
    {
      "inputs": [],
      "name": "owner",
      "outputs": [
        {
          "internalType": "address",
          "name": "",
          "type": "address"
        }
      ],
      "stateMutability": "view",
      "type": "function"
    },
    {
      "inputs": [],
      "name": "payee",
      "outputs": [
        {
          "internalType": "address",
          "name": "",
          "type": "address"
        }
      ],
      "stateMutability": "view",
      "type": "function"
    },
    {
      "inputs": [],
      "name": "payer",
      "outputs": [
        {
          "internalType": "address",
          "name": "",
          "type": "address"
        }
      ],
      "stateMutability": "view",
      "type": "function"
    },
    {
      "inputs": [],
      "name": "release",
      "outputs": [],
      "stateMutability": "nonpayable",
      "type": "function"
    },
    {
      "inputs": [],
      "name": "renounceOwnership",
      "outputs": [],
      "stateMutability": "nonpayable",
      "type": "function"
    },
    {
      "inputs": [
        {
          "internalType": "address",
          "name": "newOwner",
          "type": "address"
        }
      ],
      "name": "transferOwnership",
      "outputs": [],
      "stateMutability": "nonpayable",
      "type": "function"
    }
  ],
  "bytecode": "0x6080346100fc57601f6107e338819003918201601f19168301916001600160401b03831184841017610101578084926060946040528339810103126100fc5761004781610117565b90604061005660208301610117565b916001600160a01b0391829161006c9101610117565b169182156100e357816000549460018060a01b03199480868816176000558260405197167f8be0079c531659141344cd1fd0a4f28419497f9722a3daafe3b4186f6b6457e0600080a360018055168360025416176002551690600354161760035560ff19600554166005556106b7908161012c8239f35b604051631e4fbdf760e01b815260006004820152602490fd5b600080fd5b634e487b7160e01b600052604160045260246000fd5b51906001600160a01b03821682036100fc5756fe608060408181526004908136101561001657600080fd5b600092833560e01c9081630c3f6acf1461053a57508063123119cd14610511578063715018a6146104b457806386d1a69f146103785780638da5cb5b14610350578063aa8c217c14610332578063ae90b21314610305578063d0e30db014610247578063ea8a1af0146101225763f2fde38b1461009257600080fd5b3461011e57602036600319011261011e576001600160a01b0382358181169391929084900361011a576100c3610632565b831561010457505082546001600160a01b0319811683178455167f8be0079c531659141344cd1fd0a4f28419497f9722a3daafe3b4186f6b6457e08380a380f35b51631e4fbdf760e01b8152908101849052602490fd5b8480fd5b8280fd5b503461011e578260031936011261011e576002546001600160a01b039061014c9082163314610577565b61015461065e565b60055460ff811684811015610234576001036101f157848080936003829460ff191617600555600254168654905af161018b6105d1565b50156101bd57827f63b958841f79ab97cb5456da181454b9932c0e15a3b17f1cbd27e2a8bc6104378180a16001805580f35b906020606492519162461bcd60e51b8352820152600e60248201526d2932b33ab732103330b4b632b21760911b6044820152fd5b825162461bcd60e51b8152602081860152601e60248201527f43616e6e6f742063616e63656c20696e2063757272656e7420737461746500006044820152606490fd5b634e487b7160e01b865260218552602486fd5b50908260031936011261011e5761026960018060a01b03600254163314610577565b6005549060ff8216818110156102f2576102b8579160016020927f2a89b2e3d580398d6dc2db5e0f336b52602bbaa51afa9bb5cdf59239cf0d2bea9434905560ff19161760055551348152a180f35b606490602084519162461bcd60e51b835282015260146024820152734465706f73697420616c7265616479206d61646560601b6044820152fd5b634e487b7160e01b855260218252602485fd5b83823461032e578160031936011261032e5760035490516001600160a01b039091168152602090f35b5080fd5b50903461011e578260031936011261011e5760209250549051908152f35b83823461032e578160031936011261032e57905490516001600160a01b039091168152602090f35b50903461011e578260031936011261011e576002546001600160a01b03906103a39082163314610577565b6103ab61065e565b60055460ff8116838110156104a15760010361045057848080936002829460ff191617600555600354168554905af16103e26105d1565b501561041b577ffb81f9b30d73d830c3544b34d827c08142579ee75710b490bab0b3995468c56591602091549051908152a16001805580f35b6020606492519162461bcd60e51b8352820152601060248201526f2a3930b739b332b9103330b4b632b21760811b6044820152fd5b835162461bcd60e51b8152602081850152602560248201527f43616e6e6f742072656c656173652066756e647320696e2063757272656e7420604482015264737461746560d81b6064820152608490fd5b634e487b7160e01b865260218452602486fd5b833461050e578060031936011261050e576104cd610632565b80546001600160a01b03198116825581906001600160a01b03167f8be0079c531659141344cd1fd0a4f28419497f9722a3daafe3b4186f6b6457e08280a380f35b80fd5b83823461032e578160031936011261032e5760025490516001600160a01b039091168152602090f35b8390853461050e578060031936011261050e5760ff60055416908382101561056457602083838152f35b634e487b7160e01b815260218452602490fd5b1561057e57565b60405162461bcd60e51b815260206004820152602560248201527f4f6e6c79207468652070617965722063616e2063616c6c20746869732066756e60448201526431ba34b7b760d91b6064820152608490fd5b3d1561062d5767ffffffffffffffff903d8281116106175760405192601f8201601f19908116603f01168401908111848210176106175760405282523d6000602084013e565b634e487b7160e01b600052604160045260246000fd5b606090565b6000546001600160a01b0316330361064657565b60405163118cdaa760e01b8152336004820152602490fd5b60026001541461066f576002600155565b604051633ee5aeb560e01b8152600490fdfea2646970667358221220e45fe3907bcd98c14a6a186d531f961be7311efe5f909ee37318f229aa35bb8864736f6c63430008180033",
  "linkReferences": {},
  "deployedLinkReferences": {}
}