{
  "_format": "hh-sol-artifact-1",
  "contractName": "KalaKrutGovernor",
  "sourceName": "contracts/KalaKrutGovernor.sol",
  "abi": [
    {
      "inputs": [
        {
          "internalType": "contract IVotes",
          "name": "_token",
          "type": "address"
        },
        {
          "internalType": "contract TimelockController",
          "name": "_timelock",
          "type": "address"
        }
      ],
      "stateMutability": "nonpayable",
      "type": "constructor"
    },
    {
      "inputs": [],
      "name": "CheckpointUnorderedInsertion",
      "type": "error"
    },
    {
      "inputs": [],
      "name": "FailedCall",
      "type": "error"
    },
    {
      "inputs": [
        {
          "internalType": "address",
          "name": "voter",
          "type": "address"
        }
      ],
      "name": "GovernorAlreadyCastVote",
      "type": "error"
    },
    {
      "inputs": [
        {
          "internalType": "uint256",
          "name": "proposalId",
          "type": "uint256"
        }
      ],
      "name": "GovernorAlreadyQueuedProposal",
      "type": "error"
    },
    {
      "inputs": [],
      "name": "GovernorDisabledDeposit",
      "type": "error"
    },
    {
      "inputs": [
        {
          "internalType": "address",
          "name": "proposer",
          "type": "address"
        },
        {
          "internalType": "uint256",
          "name": "votes",
          "type": "uint256"
        },
        {
          "internalType": "uint256",
          "name": "threshold",
          "type": "uint256"
        }
      ],
      "name": "GovernorInsufficientProposerVotes",
      "type": "error"
    },
    {
      "inputs": [
        {
          "internalType": "uint256",
          "name": "targets",
          "type": "uint256"
        },
        {
          "internalType": "uint256",
          "name": "calldatas",
          "type": "uint256"
        },
        {
          "internalType": "uint256",
          "name": "values",
          "type": "uint256"
        }
      ],
      "name": "GovernorInvalidProposalLength",
      "type": "error"
    },
    {
      "inputs": [
        {
          "internalType": "uint256",
          "name": "quorumNumerator",
          "type": "uint256"
        },
        {
          "internalType": "uint256",
          "name": "quorumDenominator",
          "type": "uint256"
        }
      ],
      "name": "GovernorInvalidQuorumFraction",
      "type": "error"
    },
    {
      "inputs": [
        {
          "internalType": "address",
          "name": "voter",
          "type": "address"
        }
      ],
      "name": "GovernorInvalidSignature",
      "type": "error"
    },
    {
      "inputs": [],
      "name": "GovernorInvalidVoteParams",
      "type": "error"
    },
    {
      "inputs": [],
      "name": "GovernorInvalidVoteType",
      "type": "error"
    },
    {
      "inputs": [
        {
          "internalType": "uint256",
          "name": "votingPeriod",
          "type": "uint256"
        }
      ],
      "name": "GovernorInvalidVotingPeriod",
      "type": "error"
    },
    {
      "inputs": [
        {
          "internalType": "uint256",
          "name": "proposalId",
          "type": "uint256"
        }
      ],
      "name": "GovernorNonexistentProposal",
      "type": "error"
    },
    {
      "inputs": [
        {
          "internalType": "uint256",
          "name": "proposalId",
          "type": "uint256"
        }
      ],
      "name": "GovernorNotQueuedProposal",
      "type": "error"
    },
    {
      "inputs": [
        {
          "internalType": "address",
          "name": "account",
          "type": "address"
        }
      ],
      "name": "GovernorOnlyExecutor",
      "type": "error"
    },
    {
      "inputs": [],
      "name": "GovernorQueueNotImplemented",
      "type": "error"
    },
    {
      "inputs": [
        {
          "internalType": "address",
          "name": "proposer",
          "type": "address"
        }
      ],
      "name": "GovernorRestrictedProposer",
      "type": "error"
    },
    {
      "inputs": [
        {
          "internalType": "uint256",
          "name": "proposalId",
          "type": "uint256"
        },
        {
          "internalType": "address",
          "name": "account",
          "type": "address"
        }
      ],
      "name": "GovernorUnableToCancel",
      "type": "error"
    },
    {
      "inputs": [
        {
          "internalType": "uint256",
          "name": "proposalId",
          "type": "uint256"
        },
        {
          "internalType": "enum IGovernor.ProposalState",
          "name": "current",
          "type": "uint8"
        },
        {
          "internalType": "bytes32",
          "name": "expectedStates",
          "type": "bytes32"
        }
      ],
      "name": "GovernorUnexpectedProposalState",
      "type": "error"
    },
    {
      "inputs": [
        {
          "internalType": "address",
          "name": "account",
          "type": "address"
        },
        {
          "internalType": "uint256",
          "name": "currentNonce",
          "type": "uint256"
        }
      ],
      "name": "InvalidAccountNonce",
      "type": "error"
    },
    {
      "inputs": [],
      "name": "InvalidShortString",
      "type": "error"
    },
    {
      "inputs": [
        {
          "internalType": "uint8",
          "name": "bits",
          "type": "uint8"
        },
        {
          "internalType": "uint256",
          "name": "value",
          "type": "uint256"
        }
      ],
      "name": "SafeCastOverflowedUintDowncast",
      "type": "error"
    },
    {
      "inputs": [
        {
          "internalType": "string",
          "name": "str",
          "type": "string"
        }
      ],
      "name": "StringTooLong",
      "type": "error"
    },
    {
      "anonymous": false,
      "inputs": [],
      "name": "EIP712DomainChanged",
      "type": "event"
    },
    {
      "anonymous": false,
      "inputs": [
        {
          "indexed": false,
          "internalType": "uint256",
          "name": "proposalId",
          "type": "uint256"
        }
      ],
      "name": "ProposalCanceled",
      "type": "event"
    },
    {
      "anonymous": false,
      "inputs": [
        {
          "indexed": false,
          "internalType": "uint256",
          "name": "proposalId",
          "type": "uint256"
        },
        {
          "indexed": false,
          "internalType": "address",
          "name": "proposer",
          "type": "address"
        },
        {
          "indexed": false,
          "internalType": "address[]",
          "name": "targets",
          "type": "address[]"
        },
        {
          "indexed": false,
          "internalType": "uint256[]",
          "name": "values",
          "type": "uint256[]"
        },
        {
          "indexed": false,
          "internalType": "string[]",
          "name": "signatures",
          "type": "string[]"
        },
        {
          "indexed": false,
          "internalType": "bytes[]",
          "name": "calldatas",
          "type": "bytes[]"
        },
        {
          "indexed": false,
          "internalType": "uint256",
          "name": "voteStart",
          "type": "uint256"
        },
        {
          "indexed": false,
          "internalType": "uint256",
          "name": "voteEnd",
          "type": "uint256"
        },
        {
          "indexed": false,
          "internalType": "string",
          "name": "description",
          "type": "string"
        }
      ],
      "name": "ProposalCreated",
      "type": "event"
    },
    {
      "anonymous": false,
      "inputs": [
        {
          "indexed": false,
          "internalType": "uint256",
          "name": "proposalId",
          "type": "uint256"
        }
      ],
      "name": "ProposalExecuted",
      "type": "event"
    },
    {
      "anonymous": false,
      "inputs": [
        {
          "indexed": false,
          "internalType": "uint256",
          "name": "proposalId",
          "type": "uint256"
        },
        {
          "indexed": false,
          "internalType": "uint256",
          "name": "etaSeconds",
          "type": "uint256"
        }
      ],
      "name": "ProposalQueued",
      "type": "event"
    },
    {
      "anonymous": false,
      "inputs": [
        {
          "indexed": false,
          "internalType": "uint256",
          "name": "oldProposalThreshold",
          "type": "uint256"
        },
        {
          "indexed": false,
          "internalType": "uint256",
          "name": "newProposalThreshold",
          "type": "uint256"
        }
      ],
      "name": "ProposalThresholdSet",
      "type": "event"
    },
    {
      "anonymous": false,
      "inputs": [
        {
          "indexed": false,
          "internalType": "uint256",
          "name": "oldQuorumNumerator",
          "type": "uint256"
        },
        {
          "indexed": false,
          "internalType": "uint256",
          "name": "newQuorumNumerator",
          "type": "uint256"
        }
      ],
      "name": "QuorumNumeratorUpdated",
      "type": "event"
    },
    {
      "anonymous": false,
      "inputs": [
        {
          "indexed": false,
          "internalType": "address",
          "name": "oldTimelock",
          "type": "address"
        },
        {
          "indexed": false,
          "internalType": "address",
          "name": "newTimelock",
          "type": "address"
        }
      ],
      "name": "TimelockChange",
      "type": "event"
    },
    {
      "anonymous": false,
      "inputs": [
        {
          "indexed": true,
          "internalType": "address",
          "name": "voter",
          "type": "address"
        },
        {
          "indexed": false,
          "internalType": "uint256",
          "name": "proposalId",
          "type": "uint256"
        },
        {
          "indexed": false,
          "internalType": "uint8",
          "name": "support",
          "type": "uint8"
        },
        {
          "indexed": false,
          "internalType": "uint256",
          "name": "weight",
          "type": "uint256"
        },
        {
          "indexed": false,
          "internalType": "string",
          "name": "reason",
          "type": "string"
        }
      ],
      "name": "VoteCast",
      "type": "event"
    },
    {
      "anonymous": false,
      "inputs": [
        {
          "indexed": true,
          "internalType": "address",
          "name": "voter",
          "type": "address"
        },
        {
          "indexed": false,
          "internalType": "uint256",
          "name": "proposalId",
          "type": "uint256"
        },
        {
          "indexed": false,
          "internalType": "uint8",
          "name": "support",
          "type": "uint8"
        },
        {
          "indexed": false,
          "internalType": "uint256",
          "name": "weight",
          "type": "uint256"
        },
        {
          "indexed": false,
          "internalType": "string",
          "name": "reason",
          "type": "string"
        },
        {
          "indexed": false,
          "internalType": "bytes",
          "name": "params",
          "type": "bytes"
        }
      ],
      "name": "VoteCastWithParams",
      "type": "event"
    },
    {
      "anonymous": false,
      "inputs": [
        {
          "indexed": false,
          "internalType": "uint256",
          "name": "oldVotingDelay",
          "type": "uint256"
        },
        {
          "indexed": false,
          "internalType": "uint256",
          "name": "newVotingDelay",
          "type": "uint256"
        }
      ],
      "name": "VotingDelaySet",
      "type": "event"
    },
    {
      "anonymous": false,
      "inputs": [
        {
          "indexed": false,
          "internalType": "uint256",
          "name": "oldVotingPeriod",
          "type": "uint256"
        },
        {
          "indexed": false,
          "internalType": "uint256",
          "name": "newVotingPeriod",
          "type": "uint256"
        }
      ],
      "name": "VotingPeriodSet",
      "type": "event"
    },
    {
      "inputs": [],
      "name": "BALLOT_TYPEHASH",
      "outputs": [
        {
          "internalType": "bytes32",
          "name": "",
          "type": "bytes32"
        }
      ],
      "stateMutability": "view",
      "type": "function"
    },
    {
      "inputs": [],
      "name": "CLOCK_MODE",
      "outputs": [
        {
          "internalType": "string",
          "name": "",
          "type": "string"
        }
      ],
      "stateMutability": "view",
      "type": "function"
    },
    {
      "inputs": [],
      "name": "COUNTING_MODE",
      "outputs": [
        {
          "internalType": "string",
          "name": "",
          "type": "string"
        }
      ],
      "stateMutability": "pure",
      "type": "function"
    },
    {
      "inputs": [],
      "name": "EXTENDED_BALLOT_TYPEHASH",
      "outputs": [
        {
          "internalType": "bytes32",
          "name": "",
          "type": "bytes32"
        }
      ],
      "stateMutability": "view",
      "type": "function"
    },
    {
      "inputs": [
        {
          "internalType": "address[]",
          "name": "targets",
          "type": "address[]"
        },
        {
          "internalType": "uint256[]",
          "name": "values",
          "type": "uint256[]"
        },
        {
          "internalType": "bytes[]",
          "name": "calldatas",
          "type": "bytes[]"
        },
        {
          "internalType": "bytes32",
          "name": "descriptionHash",
          "type": "bytes32"
        }
      ],
      "name": "cancel",
      "outputs": [
        {
          "internalType": "uint256",
          "name": "",
          "type": "uint256"
        }
      ],
      "stateMutability": "nonpayable",
      "type": "function"
    },
    {
      "inputs": [
        {
          "internalType": "uint256",
          "name": "proposalId",
          "type": "uint256"
        },
        {
          "internalType": "uint8",
          "name": "support",
          "type": "uint8"
        }
      ],
      "name": "castVote",
      "outputs": [
        {
          "internalType": "uint256",
          "name": "",
          "type": "uint256"
        }
      ],
      "stateMutability": "nonpayable",
      "type": "function"
    },
    {
      "inputs": [
        {
          "internalType": "uint256",
          "name": "proposalId",
          "type": "uint256"
        },
        {
          "internalType": "uint8",
          "name": "support",
          "type": "uint8"
        },
        {
          "internalType": "address",
          "name": "voter",
          "type": "address"
        },
        {
          "internalType": "bytes",
          "name": "signature",
          "type": "bytes"
        }
      ],
      "name": "castVoteBySig",
      "outputs": [
        {
          "internalType": "uint256",
          "name": "",
          "type": "uint256"
        }
      ],
      "stateMutability": "nonpayable",
      "type": "function"
    },
    {
      "inputs": [
        {
          "internalType": "uint256",
          "name": "proposalId",
          "type": "uint256"
        },
        {
          "internalType": "uint8",
          "name": "support",
          "type": "uint8"
        },
        {
          "internalType": "string",
          "name": "reason",
          "type": "string"
        }
      ],
      "name": "castVoteWithReason",
      "outputs": [
        {
          "internalType": "uint256",
          "name": "",
          "type": "uint256"
        }
      ],
      "stateMutability": "nonpayable",
      "type": "function"
    },
    {
      "inputs": [
        {
          "internalType": "uint256",
          "name": "proposalId",
          "type": "uint256"
        },
        {
          "internalType": "uint8",
          "name": "support",
          "type": "uint8"
        },
        {
          "internalType": "string",
          "name": "reason",
          "type": "string"
        },
        {
          "internalType": "bytes",
          "name": "params",
          "type": "bytes"
        }
      ],
      "name": "castVoteWithReasonAndParams",
      "outputs": [
        {
          "internalType": "uint256",
          "name": "",
          "type": "uint256"
        }
      ],
      "stateMutability": "nonpayable",
      "type": "function"
    },
    {
      "inputs": [
        {
          "internalType": "uint256",
          "name": "proposalId",
          "type": "uint256"
        },
        {
          "internalType": "uint8",
          "name": "support",
          "type": "uint8"
        },
        {
          "internalType": "address",
          "name": "voter",
          "type": "address"
        },
        {
          "internalType": "string",
          "name": "reason",
          "type": "string"
        },
        {
          "internalType": "bytes",
          "name": "params",
          "type": "bytes"
        },
        {
          "internalType": "bytes",
          "name": "signature",
          "type": "bytes"
        }
      ],
      "name": "castVoteWithReasonAndParamsBySig",
      "outputs": [
        {
          "internalType": "uint256",
          "name": "",
          "type": "uint256"
        }
      ],
      "stateMutability": "nonpayable",
      "type": "function"
    },
    {
      "inputs": [],
      "name": "clock",
      "outputs": [
        {
          "internalType": "uint48",
          "name": "",
          "type": "uint48"
        }
      ],
      "stateMutability": "view",
      "type": "function"
    },
    {
      "inputs": [],
      "name": "eip712Domain",
      "outputs": [
        {
          "internalType": "bytes1",
          "name": "fields",
          "type": "bytes1"
        },
        {
          "internalType": "string",
          "name": "name",
          "type": "string"
        },
        {
          "internalType": "string",
          "name": "version",
          "type": "string"
        },
        {
          "internalType": "uint256",
          "name": "chainId",
          "type": "uint256"
        },
        {
          "internalType": "address",
          "name": "verifyingContract",
          "type": "address"
        },
        {
          "internalType": "bytes32",
          "name": "salt",
          "type": "bytes32"
        },
        {
          "internalType": "uint256[]",
          "name": "extensions",
          "type": "uint256[]"
        }
      ],
      "stateMutability": "view",
      "type": "function"
    },
    {
      "inputs": [
        {
          "internalType": "address[]",
          "name": "targets",
          "type": "address[]"
        },
        {
          "internalType": "uint256[]",
          "name": "values",
          "type": "uint256[]"
        },
        {
          "internalType": "bytes[]",
          "name": "calldatas",
          "type": "bytes[]"
        },
        {
          "internalType": "bytes32",
          "name": "descriptionHash",
          "type": "bytes32"
        }
      ],
      "name": "execute",
      "outputs": [
        {
          "internalType": "uint256",
          "name": "",
          "type": "uint256"
        }
      ],
      "stateMutability": "payable",
      "type": "function"
    },
    {
      "inputs": [
        {
          "internalType": "address[]",
          "name": "targets",
          "type": "address[]"
        },
        {
          "internalType": "uint256[]",
          "name": "values",
          "type": "uint256[]"
        },
        {
          "internalType": "bytes[]",
          "name": "calldatas",
          "type": "bytes[]"
        },
        {
          "internalType": "bytes32",
          "name": "descriptionHash",
          "type": "bytes32"
        }
      ],
      "name": "getProposalId",
      "outputs": [
        {
          "internalType": "uint256",
          "name": "",
          "type": "uint256"
        }
      ],
      "stateMutability": "view",
      "type": "function"
    },
    {
      "inputs": [
        {
          "internalType": "address",
          "name": "account",
          "type": "address"
        },
        {
          "internalType": "uint256",
          "name": "timepoint",
          "type": "uint256"
        }
      ],
      "name": "getVotes",
      "outputs": [
        {
          "internalType": "uint256",
          "name": "",
          "type": "uint256"
        }
      ],
      "stateMutability": "view",
      "type": "function"
    },
    {
      "inputs": [
        {
          "internalType": "address",
          "name": "account",
          "type": "address"
        },
        {
          "internalType": "uint256",
          "name": "timepoint",
          "type": "uint256"
        },
        {
          "internalType": "bytes",
          "name": "params",
          "type": "bytes"
        }
      ],
      "name": "getVotesWithParams",
      "outputs": [
        {
          "internalType": "uint256",
          "name": "",
          "type": "uint256"
        }
      ],
      "stateMutability": "view",
      "type": "function"
    },
    {
      "inputs": [
        {
          "internalType": "uint256",
          "name": "proposalId",
          "type": "uint256"
        },
        {
          "internalType": "address",
          "name": "account",
          "type": "address"
        }
      ],
      "name": "hasVoted",
      "outputs": [
        {
          "internalType": "bool",
          "name": "",
          "type": "bool"
        }
      ],
      "stateMutability": "view",
      "type": "function"
    },
    {
      "inputs": [
        {
          "internalType": "address[]",
          "name": "targets",
          "type": "address[]"
        },
        {
          "internalType": "uint256[]",
          "name": "values",
          "type": "uint256[]"
        },
        {
          "internalType": "bytes[]",
          "name": "calldatas",
          "type": "bytes[]"
        },
        {
          "internalType": "bytes32",
          "name": "descriptionHash",
          "type": "bytes32"
        }
      ],
      "name": "hashProposal",
      "outputs": [
        {
          "internalType": "uint256",
          "name": "",
          "type": "uint256"
        }
      ],
      "stateMutability": "pure",
      "type": "function"
    },
    {
      "inputs": [],
      "name": "name",
      "outputs": [
        {
          "internalType": "string",
          "name": "",
          "type": "string"
        }
      ],
      "stateMutability": "view",
      "type": "function"
    },
    {
      "inputs": [
        {
          "internalType": "address",
          "name": "owner",
          "type": "address"
        }
      ],
      "name": "nonces",
      "outputs": [
        {
          "internalType": "uint256",
          "name": "",
          "type": "uint256"
        }
      ],
      "stateMutability": "view",
      "type": "function"
    },
    {
      "inputs": [
        {
          "internalType": "address",
          "name": "",
          "type": "address"
        },
        {
          "internalType": "address",
          "name": "",
          "type": "address"
        },
        {
          "internalType": "uint256[]",
          "name": "",
          "type": "uint256[]"
        },
        {
          "internalType": "uint256[]",
          "name": "",
          "type": "uint256[]"
        },
        {
          "internalType": "bytes",
          "name": "",
          "type": "bytes"
        }
      ],
      "name": "onERC1155BatchReceived",
      "outputs": [
        {
          "internalType": "bytes4",
          "name": "",
          "type": "bytes4"
        }
      ],
      "stateMutability": "nonpayable",
      "type": "function"
    },
    {
      "inputs": [
        {
          "internalType": "address",
          "name": "",
          "type": "address"
        },
        {
          "internalType": "address",
          "name": "",
          "type": "address"
        },
        {
          "internalType": "uint256",
          "name": "",
          "type": "uint256"
        },
        {
          "internalType": "uint256",
          "name": "",
          "type": "uint256"
        },
        {
          "internalType": "bytes",
          "name": "",
          "type": "bytes"
        }
      ],
      "name": "onERC1155Received",
      "outputs": [
        {
          "internalType": "bytes4",
          "name": "",
          "type": "bytes4"
        }
      ],
      "stateMutability": "nonpayable",
      "type": "function"
    },
    {
      "inputs": [
        {
          "internalType": "address",
          "name": "",
          "type": "address"
        },
        {
          "internalType": "address",
          "name": "",
          "type": "address"
        },
        {
          "internalType": "uint256",
          "name": "",
          "type": "uint256"
        },
        {
          "internalType": "bytes",
          "name": "",
          "type": "bytes"
        }
      ],
      "name": "onERC721Received",
      "outputs": [
        {
          "internalType": "bytes4",
          "name": "",
          "type": "bytes4"
        }
      ],
      "stateMutability": "nonpayable",
      "type": "function"
    },
    {
      "inputs": [
        {
          "internalType": "uint256",
          "name": "proposalId",
          "type": "uint256"
        }
      ],
      "name": "proposalDeadline",
      "outputs": [
        {
          "internalType": "uint256",
          "name": "",
          "type": "uint256"
        }
      ],
      "stateMutability": "view",
      "type": "function"
    },
    {
      "inputs": [
        {
          "internalType": "uint256",
          "name": "proposalId",
          "type": "uint256"
        }
      ],
      "name": "proposalEta",
      "outputs": [
        {
          "internalType": "uint256",
          "name": "",
          "type": "uint256"
        }
      ],
      "stateMutability": "view",
      "type": "function"
    },
    {
      "inputs": [
        {
          "internalType": "uint256",
          "name": "proposalId",
          "type": "uint256"
        }
      ],
      "name": "proposalNeedsQueuing",
      "outputs": [
        {
          "internalType": "bool",
          "name": "",
          "type": "bool"
        }
      ],
      "stateMutability": "view",
      "type": "function"
    },
    {
      "inputs": [
        {
          "internalType": "uint256",
          "name": "proposalId",
          "type": "uint256"
        }
      ],
      "name": "proposalProposer",
      "outputs": [
        {
          "internalType": "address",
          "name": "",
          "type": "address"
        }
      ],
      "stateMutability": "view",
      "type": "function"
    },
    {
      "inputs": [
        {
          "internalType": "uint256",
          "name": "proposalId",
          "type": "uint256"
        }
      ],
      "name": "proposalSnapshot",
      "outputs": [
        {
          "internalType": "uint256",
          "name": "",
          "type": "uint256"
        }
      ],
      "stateMutability": "view",
      "type": "function"
    },
    {
      "inputs": [],
      "name": "proposalThreshold",
      "outputs": [
        {
          "internalType": "uint256",
          "name": "",
          "type": "uint256"
        }
      ],
      "stateMutability": "view",
      "type": "function"
    },
    {
      "inputs": [
        {
          "internalType": "uint256",
          "name": "proposalId",
          "type": "uint256"
        }
      ],
      "name": "proposalVotes",
      "outputs": [
        {
          "internalType": "uint256",
          "name": "againstVotes",
          "type": "uint256"
        },
        {
          "internalType": "uint256",
          "name": "forVotes",
          "type": "uint256"
        },
        {
          "internalType": "uint256",
          "name": "abstainVotes",
          "type": "uint256"
        }
      ],
      "stateMutability": "view",
      "type": "function"
    },
    {
      "inputs": [
        {
          "internalType": "address[]",
          "name": "targets",
          "type": "address[]"
        },
        {
          "internalType": "uint256[]",
          "name": "values",
          "type": "uint256[]"
        },
        {
          "internalType": "bytes[]",
          "name": "calldatas",
          "type": "bytes[]"
        },
        {
          "internalType": "string",
          "name": "description",
          "type": "string"
        }
      ],
      "name": "propose",
      "outputs": [
        {
          "internalType": "uint256",
          "name": "",
          "type": "uint256"
        }
      ],
      "stateMutability": "nonpayable",
      "type": "function"
    },
    {
      "inputs": [
        {
          "internalType": "address[]",
          "name": "targets",
          "type": "address[]"
        },
        {
          "internalType": "uint256[]",
          "name": "values",
          "type": "uint256[]"
        },
        {
          "internalType": "bytes[]",
          "name": "calldatas",
          "type": "bytes[]"
        },
        {
          "internalType": "bytes32",
          "name": "descriptionHash",
          "type": "bytes32"
        }
      ],
      "name": "queue",
      "outputs": [
        {
          "internalType": "uint256",
          "name": "",
          "type": "uint256"
        }
      ],
      "stateMutability": "nonpayable",
      "type": "function"
    },
    {
      "inputs": [
        {
          "internalType": "uint256",
          "name": "blockNumber",
          "type": "uint256"
        }
      ],
      "name": "quorum",
      "outputs": [
        {
          "internalType": "uint256",
          "name": "",
          "type": "uint256"
        }
      ],
      "stateMutability": "view",
      "type": "function"
    },
    {
      "inputs": [],
      "name": "quorumDenominator",
      "outputs": [
        {
          "internalType": "uint256",
          "name": "",
          "type": "uint256"
        }
      ],
      "stateMutability": "view",
      "type": "function"
    },
    {
      "inputs": [
        {
          "internalType": "uint256",
          "name": "timepoint",
          "type": "uint256"
        }
      ],
      "name": "quorumNumerator",
      "outputs": [
        {
          "internalType": "uint256",
          "name": "",
          "type": "uint256"
        }
      ],
      "stateMutability": "view",
      "type": "function"
    },
    {
      "inputs": [],
      "name": "quorumNumerator",
      "outputs": [
        {
          "internalType": "uint256",
          "name": "",
          "type": "uint256"
        }
      ],
      "stateMutability": "view",
      "type": "function"
    },
    {
      "inputs": [
        {
          "internalType": "address",
          "name": "target",
          "type": "address"
        },
        {
          "internalType": "uint256",
          "name": "value",
          "type": "uint256"
        },
        {
          "internalType": "bytes",
          "name": "data",
          "type": "bytes"
        }
      ],
      "name": "relay",
      "outputs": [],
      "stateMutability": "payable",
      "type": "function"
    },
    {
      "inputs": [
        {
          "internalType": "uint256",
          "name": "newProposalThreshold",
          "type": "uint256"
        }
      ],
      "name": "setProposalThreshold",
      "outputs": [],
      "stateMutability": "nonpayable",
      "type": "function"
    },
    {
      "inputs": [
        {
          "internalType": "uint48",
          "name": "newVotingDelay",
          "type": "uint48"
        }
      ],
      "name": "setVotingDelay",
      "outputs": [],
      "stateMutability": "nonpayable",
      "type": "function"
    },
    {
      "inputs": [
        {
          "internalType": "uint32",
          "name": "newVotingPeriod",
          "type": "uint32"
        }
      ],
      "name": "setVotingPeriod",
      "outputs": [],
      "stateMutability": "nonpayable",
      "type": "function"
    },
    {
      "inputs": [
        {
          "internalType": "uint256",
          "name": "proposalId",
          "type": "uint256"
        }
      ],
      "name": "state",
      "outputs": [
        {
          "internalType": "enum IGovernor.ProposalState",
          "name": "",
          "type": "uint8"
        }
      ],
      "stateMutability": "view",
      "type": "function"
    },
    {
      "inputs": [
        {
          "internalType": "bytes4",
          "name": "interfaceId",
          "type": "bytes4"
        }
      ],
      "name": "supportsInterface",
      "outputs": [
        {
          "internalType": "bool",
          "name": "",
          "type": "bool"
        }
      ],
      "stateMutability": "view",
      "type": "function"
    },
    {
      "inputs": [],
      "name": "timelock",
      "outputs": [
        {
          "internalType": "address",
          "name": "",
          "type": "address"
        }
      ],
      "stateMutability": "view",
      "type": "function"
    },
    {
      "inputs": [],
      "name": "token",
      "outputs": [
        {
          "internalType": "contract IERC5805",
          "name": "",
          "type": "address"
        }
      ],
      "stateMutability": "view",
      "type": "function"
    },
    {
      "inputs": [
        {
          "internalType": "uint256",
          "name": "newQuorumNumerator",
          "type": "uint256"
        }
      ],
      "name": "updateQuorumNumerator",
      "outputs": [],
      "stateMutability": "nonpayable",
      "type": "function"
    },
    {
      "inputs": [
        {
          "internalType": "contract TimelockController",
          "name": "newTimelock",
          "type": "address"
        }
      ],
      "name": "updateTimelock",
      "outputs": [],
      "stateMutability": "nonpayable",
      "type": "function"
    },
    {
      "inputs": [],
      "name": "version",
      "outputs": [
        {
          "internalType": "string",
          "name": "",
          "type": "string"
        }
      ],
      "stateMutability": "view",
      "type": "function"
    },
    {
      "inputs": [],
      "name": "votingDelay",
      "outputs": [
        {
          "internalType": "uint256",
          "name": "",
          "type": "uint256"
        }
      ],
      "stateMutability": "view",
      "type": "function"
    },
    {
      "inputs": [],
      "name": "votingPeriod",
      "outputs": [
        {
          "internalType": "uint256",
          "name": "",
          "type": "uint256"
        }
      ],
      "stateMutability": "view",
      "type": "function"
    },
    {
      "stateMutability": "payable",
      "type": "receive"
    }
  ],
  "bytecode": "0x610180604052348015610010575f80fd5b50604051614c8c380380614c8c83398101604081905261002f91610746565b600482825f600460646040518060400160405280601081526020016f25b0b630a5b93aba23b7bb32b93737b960811b8152508061007061017960201b60201c565b61007a825f610194565b61012052610089816001610194565b61014052815160208084019190912060e052815190820120610100524660a05261011560e05161010051604080517f8b73c3c69bb8fe3d512ecc4cf759cc79239f7b179b0ffacaa9a75d522b39400f60208201529081019290925260608201524660808201523060a08201525f9060c00160405160208183030381529060405280519060200120905090565b60805250503060c052600361012a8282610816565b506101369050836101c6565b61013f8261022c565b610148816102d0565b50505061015a8161031160201b60201c565b506001600160a01b03166101605261017181610399565b505050610971565b6040805180820190915260018152603160f81b602082015290565b5f6020835110156101af576101a88361042e565b90506101c0565b816101ba8482610816565b5060ff90505b92915050565b6008546040805165ffffffffffff928316815291831660208301527fc565b045403dc03c2eea82b81a0465edad9e2e7fc4d97e11421c209da93d7a93910160405180910390a16008805465ffffffffffff191665ffffffffffff92909216919091179055565b8063ffffffff165f036102595760405163f1cfbf0560e01b81525f60048201526024015b60405180910390fd5b6008546040805163ffffffff66010000000000009093048316815291831660208301527f7e3f7f0708a84de9203036abaa450dccc85ad5ff52f78c170f3edb55cf5e8828910160405180910390a16008805463ffffffff90921666010000000000000263ffffffff60301b19909216919091179055565b60075460408051918252602082018390527fccb45da8d5717e6c4544694297c4ba5cf151d455c9bb0ed4fc7a38411bc05461910160405180910390a1600755565b600854604080516001600160a01b036a01000000000000000000009093048316815291831660208301527f08f74ea46ef7894f65eabfb5e6e695de773a000b47c529ab559178069b226401910160405180910390a1600880546001600160a01b039092166a010000000000000000000002600160501b600160f01b0319909216919091179055565b6064808211156103c65760405163243e544560e01b81526004810183905260248101829052604401610250565b5f6103cf61046b565b90506103ee6103dc610484565b6103e5856104fe565b600a9190610535565b505060408051828152602081018590527f0553476bf02ef2726e8ce5ced78d63e26e602e4a2257b1f559418e24b4633997910160405180910390a1505050565b5f80829050601f81511115610458578260405163305a27a960e01b815260040161025091906108d5565b80516104638261090a565b179392505050565b5f610476600a61054f565b6001600160d01b0316905090565b5f61048f6101605190565b6001600160a01b03166391ddadf46040518163ffffffff1660e01b8152600401602060405180830381865afa9250505080156104e8575060408051601f3d908101601f191682019092526104e59181019061092d565b60015b6104f9576104f4610597565b905090565b919050565b5f6001600160d01b03821115610531576040516306dfcc6560e41b815260d0600482015260248101839052604401610250565b5090565b5f806105428585856105a1565b915091505b935093915050565b80545f90801561058e5761057583610568600184610952565b5f91825260209091200190565b54660100000000000090046001600160d01b0316610590565b5f5b9392505050565b5f6104f4436106fd565b82545f90819080156106a0575f6105bd87610568600185610952565b805490915065ffffffffffff80821691660100000000000090046001600160d01b031690881682111561060357604051632520601d60e01b815260040160405180910390fd5b8765ffffffffffff168265ffffffffffff160361063f57825465ffffffffffff1666010000000000006001600160d01b03891602178355610692565b6040805180820190915265ffffffffffff808a1682526001600160d01b03808a1660208085019182528d54600181018f555f8f815291909120945191519092166601000000000000029216919091179101555b945085935061054792505050565b50506040805180820190915265ffffffffffff80851682526001600160d01b0380851660208085019182528854600181018a555f8a8152918220955192519093166601000000000000029190931617920191909155905081610547565b5f65ffffffffffff821115610531576040516306dfcc6560e41b81526030600482015260248101839052604401610250565b6001600160a01b0381168114610743575f80fd5b50565b5f8060408385031215610757575f80fd5b82516107628161072f565b60208401519092506107738161072f565b809150509250929050565b634e487b7160e01b5f52604160045260245ffd5b600181811c908216806107a657607f821691505b6020821081036107c457634e487b7160e01b5f52602260045260245ffd5b50919050565b601f82111561081157805f5260205f20601f840160051c810160208510156107ef5750805b601f840160051c820191505b8181101561080e575f81556001016107fb565b50505b505050565b81516001600160401b0381111561082f5761082f61077e565b6108438161083d8454610792565b846107ca565b602080601f831160018114610876575f841561085f5750858301515b5f19600386901b1c1916600185901b1785556108cd565b5f85815260208120601f198616915b828110156108a457888601518255948401946001909101908401610885565b50858210156108c157878501515f19600388901b60f8161c191681555b505060018460011b0185555b505050505050565b602081525f82518060208401528060208501604085015e5f604082850101526040601f19601f83011684010191505092915050565b805160208083015191908110156107c4575f1960209190910360031b1b16919050565b5f6020828403121561093d575f80fd5b815165ffffffffffff81168114610590575f80fd5b818103818111156101c057634e487b7160e01b5f52601160045260245ffd5b60805160a05160c05160e051610100516101205161014051610160516142c06109cc5f395f6112fa01525f6119d701525f6119ab01525f612bbc01525f612b9401525f612aef01525f612b1901525f612b4301526142c05ff3fe608060405260043610610230575f3560e01c806301ffc9a71461026b57806302a251a31461029f57806306f3f9e6146102c157806306fdde03146102e0578063143489d014610301578063150b7a021461032d578063160cbed7146103655780632656227d146103845780632d63f693146103975780632fe3e261146103b65780633932abb1146103d65780633e4f49e6146103ea5780634385963214610416578063452115d61461045e5780634bf5d7e91461047d578063544ffc9c1461049157806354fd4d50146104bf57806356781388146104e85780635b8d0e0d146105075780635f398a141461052657806360c4247f1461054557806379051887146105645780637b3c71d3146105835780637d5e81e2146105a25780637ecebe00146105c157806384b0196e146105f55780638ff262e31461061c57806391ddadf41461063b57806397c3d334146106665780639a802a6d14610679578063a7713a7014610698578063a890c910146106ac578063a8f8a668146106cb578063a9a95294146106ea578063ab58fb8e14610709578063b58131b014610728578063bc197c811461073c578063c01f9e371461075b578063c28bc2fa1461077a578063c59057e41461078d578063d33219b4146107ac578063dd4e2ba5146107c0578063deaaa7cc14610805578063e540d01d14610825578063eb9019d414610844578063ece40cc114610863578063f23a6e6114610882578063f8ce560a146108a1578063fc0c546a146108c0575f80fd5b36610267573061023e6108d4565b6001600160a01b03161461026557604051637485328f60e11b815260040160405180910390fd5b005b5f80fd5b348015610276575f80fd5b5061028a610285366004613241565b6108e2565b60405190151581526020015b60405180910390f35b3480156102aa575f80fd5b506102b361094e565b604051908152602001610296565b3480156102cc575f80fd5b506102656102db366004613268565b610961565b3480156102eb575f80fd5b506102f4610975565b60405161029691906132ad565b34801561030c575f80fd5b5061032061031b366004613268565b610a05565b60405161029691906132bf565b348015610338575f80fd5b5061034c6103473660046133aa565b610a1f565b6040516001600160e01b03199091168152602001610296565b348015610370575f80fd5b506102b361037f366004613579565b610a61565b6102b3610392366004613579565b610b2d565b3480156103a2575f80fd5b506102b36103b1366004613268565b610c95565b3480156103c1575f80fd5b506102b35f8051602061426b83398151915281565b3480156103e1575f80fd5b506102b3610cb5565b3480156103f5575f80fd5b50610409610404366004613268565b610cc7565b6040516102969190613636565b348015610421575f80fd5b5061028a610430366004613644565b5f828152600b602090815260408083206001600160a01b038516845260030190915290205460ff1692915050565b348015610469575f80fd5b506102b3610478366004613579565b610cd1565b348015610488575f80fd5b506102f4610d37565b34801561049c575f80fd5b506104b06104ab366004613268565b610dde565b60405161029693929190613672565b3480156104ca575f80fd5b506040805180820190915260018152603160f81b60208201526102f4565b3480156104f3575f80fd5b506102b3610502366004613698565b610e03565b348015610512575f80fd5b506102b3610521366004613706565b610e2a565b348015610531575f80fd5b506102b36105403660046137b8565b610ede565b348015610550575f80fd5b506102b361055f366004613268565b610f26565b34801561056f575f80fd5b5061026561057e366004613848565b610f32565b34801561058e575f80fd5b506102b361059d366004613863565b610f43565b3480156105ad575f80fd5b506102b36105bc3660046138b8565b610f93565b3480156105cc575f80fd5b506102b36105db366004613964565b6001600160a01b03165f9081526002602052604090205490565b348015610600575f80fd5b50610609610fa9565b60405161029697969594939291906139b9565b348015610627575f80fd5b506102b3610636366004613a28565b610feb565b348015610646575f80fd5b5061064f611031565b60405165ffffffffffff9091168152602001610296565b348015610671575f80fd5b5060646102b3565b348015610684575f80fd5b506102b3610693366004613a75565b61109f565b3480156106a3575f80fd5b506102b36110b5565b3480156106b7575f80fd5b506102656106c6366004613964565b6110ce565b3480156106d6575f80fd5b506102b36106e5366004613579565b6110df565b3480156106f5575f80fd5b5061028a610704366004613268565b6110ec565b348015610714575f80fd5b506102b3610723366004613268565b6110f4565b348015610733575f80fd5b506102b3611110565b348015610747575f80fd5b5061034c610756366004613ac9565b61111a565b348015610766575f80fd5b506102b3610775366004613268565b61115d565b610265610788366004613b55565b61119f565b348015610798575f80fd5b506102b36107a7366004613579565b61121b565b3480156107b7575f80fd5b50610320611254565b3480156107cb575f80fd5b506040805180820190915260208082527f737570706f72743d627261766f2671756f72756d3d666f722c6162737461696e908201526102f4565b348015610810575f80fd5b506102b35f8051602061424b83398151915281565b348015610830575f80fd5b5061026561083f366004613b94565b61126a565b34801561084f575f80fd5b506102b361085e366004613bb7565b61127b565b34801561086e575f80fd5b5061026561087d366004613268565b61129a565b34801561088d575f80fd5b5061034c61089c366004613be1565b6112ab565b3480156108ac575f80fd5b506102b36108bb366004613268565b6112ee565b3480156108cb575f80fd5b506103206112f8565b5f6108dd611254565b905090565b5f6001600160e01b031982166366defe7760e11b148061091257506001600160e01b031982166332a2ad4360e11b145b8061092d57506001600160e01b03198216630271189760e51b145b8061094857506301ffc9a760e01b6001600160e01b03198316145b92915050565b600854600160301b900463ffffffff1690565b61096961131c565b61097281611395565b50565b60606003805461098490613c44565b80601f01602080910402602001604051908101604052809291908181526020018280546109b090613c44565b80156109fb5780601f106109d2576101008083540402835291602001916109fb565b820191905f5260205f20905b8154815290600101906020018083116109de57829003601f168201915b5050505050905090565b5f908152600460205260409020546001600160a01b031690565b5f30610a296108d4565b6001600160a01b031614610a5057604051637485328f60e11b815260040160405180910390fd5b50630a85bd0160e11b949350505050565b5f80610a6f868686866110df565b9050610a8481610a7f600461142a565b61144c565b505f610a938288888888611489565b905065ffffffffffff811615610b0a575f82815260046020908152604091829020600101805465ffffffffffff191665ffffffffffff85169081179091558251858152918201527f9a2e42fd6722813d69113e7d0079d3d940171428df7373df9c7f7617cfda2892910160405180910390a1610b23565b604051634844252360e11b815260040160405180910390fd5b5095945050505050565b5f80610b3b868686866110df565b9050610b5b81610b4b600561142a565b610b55600461142a565b1761144c565b505f818152600460205260409020805460ff60f01b1916600160f01b17905530610b836108d4565b6001600160a01b031614610c0c575f5b8651811015610c0a57306001600160a01b0316878281518110610bb857610bb8613c7c565b60200260200101516001600160a01b031603610c0257610c02858281518110610be357610be3613c7c565b602002602001015180519060200120600561149790919063ffffffff16565b600101610b93565b505b610c1981878787876114f8565b30610c226108d4565b6001600160a01b031614158015610c4e57506005546001600160801b03808216600160801b9092041614155b15610c58575f6005555b6040518181527f712ae1383f79ac853f8d882153778e0260ef8f03b504e2866e0593e04d2b291f906020015b60405180910390a195945050505050565b5f90815260046020526040902054600160a01b900465ffffffffffff1690565b5f6108dd60085465ffffffffffff1690565b5f6109488261150c565b5f80610cdf868686866110df565b905033610cec8282611652565b610d2057604051638fe5d8a960e01b8152600481018390526001600160a01b03821660248201526044015b60405180910390fd5b610d2c8787878761169b565b979650505050505050565b6060610d416112f8565b6001600160a01b0316634bf5d7e96040518163ffffffff1660e01b81526004015f60405180830381865afa925050508015610d9d57506040513d5f823e601f3d908101601f19168201604052610d9a9190810190613c90565b60015b610dd9575060408051808201909152601d81527f6d6f64653d626c6f636b6e756d6265722666726f6d3d64656661756c74000000602082015290565b919050565b5f818152600b60205260409020805460018201546002909201549091905b9193909250565b5f80339050610e2284828560405180602001604052805f8152506116a8565b949350505050565b5f610e7088888888888080601f0160208091040260200160405190810160405280939291908181526020018383808284375f920191909152508a92508991506116c99050565b610e8f57856040516394ab6c0760e01b8152600401610d1791906132bf565b610ed288878988888080601f0160208091040260200160405190810160405280939291908181526020018383808284375f920191909152508a9250611766915050565b98975050505050505050565b5f80339050610d2c87828888888080601f0160208091040260200160405190810160405280939291908181526020018383808284375f920191909152508a9250611766915050565b5f610948600a83611844565b610f3a61131c565b61097281611891565b5f80339050610f8986828787878080601f0160208091040260200160405190810160405280939291908181526020018383808284375f920191909152506116a892505050565b9695505050505050565b5f610fa0858585856118f7565b95945050505050565b5f6060805f805f6060610fba6119a4565b610fc26119d0565b604080515f80825260208201909252600f60f81b9b939a50919850469750309650945092509050565b5f610ff8858585856119fd565b61101757826040516394ab6c0760e01b8152600401610d1791906132bf565b610fa085848660405180602001604052805f8152506116a8565b5f61103a6112f8565b6001600160a01b03166391ddadf46040518163ffffffff1660e01b8152600401602060405180830381865afa925050508015611093575060408051601f3d908101601f1916820190925261109091810190613d04565b60015b610dd9576108dd611a56565b5f6110ab848484611a60565b90505b9392505050565b5f6110c0600a611ada565b6001600160d01b0316905090565b6110d661131c565b61097281611b1e565b5f610fa08585858561121b565b5f6001610948565b5f9081526004602052604090206001015465ffffffffffff1690565b5f6108dd60075490565b5f306111246108d4565b6001600160a01b03161461114b57604051637485328f60e11b815260040160405180910390fd5b5063bc197c8160e01b95945050505050565b5f8181526004602052604081205461119190600160d01b810463ffffffff1690600160a01b900465ffffffffffff16613d33565b65ffffffffffff1692915050565b6111a761131c565b5f80856001600160a01b03168585856040516111c4929190613d59565b5f6040518083038185875af1925050503d805f81146111fe576040519150601f19603f3d011682016040523d82523d5f602084013e611203565b606091505b50915091506112128282611b98565b50505050505050565b5f848484846040516020016112339493929190613df8565b60408051601f19818403018152919052805160209091012095945050505050565b600854600160501b90046001600160a01b031690565b61127261131c565b61097281611bb4565b5f6110ae838361129560408051602081019091525f815290565b611a60565b6112a261131c565b61097281611c4d565b5f306112b56108d4565b6001600160a01b0316146112dc57604051637485328f60e11b815260040160405180910390fd5b5063f23a6e6160e01b95945050505050565b5f61094882611c8e565b7f000000000000000000000000000000000000000000000000000000000000000090565b336113256108d4565b6001600160a01b03161461134e57336040516347096e4760e01b8152600401610d1791906132bf565b306113576108d4565b6001600160a01b031614611393575f8036604051611376929190613d59565b604051809103902090505b8061138c6005611d16565b0361138157505b565b6064808211156113c25760405163243e544560e01b81526004810183905260248101829052604401610d17565b5f6113cb6110b5565b90506113ea6113d8611031565b6113e185611d7a565b600a9190611dac565b505060408051828152602081018590527f0553476bf02ef2726e8ce5ced78d63e26e602e4a2257b1f559418e24b4633997910160405180910390a1505050565b5f81600781111561143d5761143d613602565b600160ff919091161b92915050565b5f8061145784610cc7565b90505f836114648361142a565b16036110ae578381846040516331b75e4d60e01b8152600401610d1793929190613e42565b5f610f898686868686611dc6565b81546001600160801b03600160801b8204811691811660018301909116036114c3576114c36041611f59565b6001600160801b038082165f90815260018086016020526040909120939093558354919092018216600160801b029116179055565b6115058585858585611f6a565b5050505050565b5f8061151783611ff5565b9050600581600781111561152d5761152d613602565b146115385792915050565b5f8381526009602052604090819020546008549151632c258a9f60e11b8152600481018290529091600160501b90046001600160a01b03169063584b153e90602401602060405180830381865afa158015611595573d5f803e3d5ffd5b505050506040513d601f19601f820116820180604052508101906115b99190613e64565b156115c8575060059392505050565b600854604051632ab0f52960e01b815260048101839052600160501b9091046001600160a01b031690632ab0f52990602401602060405180830381865afa158015611615573d5f803e3d5ffd5b505050506040513d601f19601f820116820180604052508101906116399190613e64565b15611648575060079392505050565b5060029392505050565b5f8061165d84610cc7565b600781111561166e5761166e613602565b1480156110ae575061167f83610a05565b6001600160a01b0316826001600160a01b031614905092915050565b5f610fa085858585612109565b5f610fa0858585856116c460408051602081019091525f815290565b611766565b5f610d2c856117605f8051602061426b8339815191528a8a8a6116eb8c6121a6565b8b516020808e01919091208c518d83012060405161174598979695949301968752602087019590955260ff9390931660408601526001600160a01b03919091166060850152608084015260a083015260c082015260e00190565b604051602081830303815290604052805190602001206121c8565b846121f4565b5f61177586610a7f600161142a565b505f61178a8661178489610c95565b85611a60565b90505f61179a8888888588612264565b905083515f036117f057866001600160a01b03167fb8e138887d0aa13bab447e82de9d5c1777041ecd21ca36ba824ff1e6c07ddda4898884896040516117e39493929190613e83565b60405180910390a2610d2c565b866001600160a01b03167fe2babfbac5889a709b63bb7f598b324e08bc5a4fb9ec647fb3cbc9ec07eb87128988848989604051611831959493929190613eaa565b60405180910390a2979650505050505050565b5f805f61185085612357565b9250925050838265ffffffffffff16111561187d57611878611871856123af565b86906123dc565b61187f565b805b6001600160d01b031695945050505050565b6008546040805165ffffffffffff928316815291831660208301527fc565b045403dc03c2eea82b81a0465edad9e2e7fc4d97e11421c209da93d7a93910160405180910390a16008805465ffffffffffff191665ffffffffffff92909216919091179055565b5f33611903818461247e565b611922578060405163d9b3955760e01b8152600401610d1791906132bf565b5f61192b611110565b90508015611997575f611959836001611942611031565b61194c9190613ee3565b65ffffffffffff1661127b565b90508181101561199557604051636121770b60e11b81526001600160a01b03841660048201526024810182905260448101839052606401610d17565b505b610d2c8787878786612503565b60606108dd7f00000000000000000000000000000000000000000000000000000000000000005f612700565b60606108dd7f00000000000000000000000000000000000000000000000000000000000000006001612700565b5f610fa0836117605f8051602061424b833981519152888888611a1f8a6121a6565b60408051602081019690965285019390935260ff90911660608401526001600160a01b0316608083015260a082015260c001611745565b5f6108dd436123af565b5f611a696112f8565b604051630748d63560e31b81526001600160a01b038681166004830152602482018690529190911690633a46b1a890604401602060405180830381865afa158015611ab6573d5f803e3d5ffd5b505050506040513d601f19601f820116820180604052508101906110ab9190613f02565b80545f908015611b1657611b0083611af3600184613f19565b5f91825260209091200190565b54600160301b90046001600160d01b03166110ae565b5f9392505050565b600854604080516001600160a01b03600160501b9093048316815291831660208301527f08f74ea46ef7894f65eabfb5e6e695de773a000b47c529ab559178069b226401910160405180910390a1600880546001600160a01b03909216600160501b02600160501b600160f01b0319909216919091179055565b606082611bad57611ba8826127a9565b610948565b5080610948565b8063ffffffff165f03611bdc5760405163f1cfbf0560e01b81525f6004820152602401610d17565b6008546040805163ffffffff600160301b9093048316815291831660208301527f7e3f7f0708a84de9203036abaa450dccc85ad5ff52f78c170f3edb55cf5e8828910160405180910390a16008805463ffffffff909216600160301b0263ffffffff60301b19909216919091179055565b60075460408051918252602082018390527fccb45da8d5717e6c4544694297c4ba5cf151d455c9bb0ed4fc7a38411bc05461910160405180910390a1600755565b5f610948611c9a6112f8565b6001600160a01b0316638e539e8c846040518263ffffffff1660e01b8152600401611cc791815260200190565b602060405180830381865afa158015611ce2573d5f803e3d5ffd5b505050506040513d601f19601f82011682018060405250810190611d069190613f02565b611d0f84610f26565b60646127d1565b80545f906001600160801b0380821691600160801b9004168103611d3e57611d3e6031611f59565b6001600160801b038181165f908152600185810160205260408220805492905585546001600160801b0319169301909116919091179092555090565b5f6001600160d01b03821115611da85760d0826040516306dfcc6560e41b8152600401610d17929190613f2c565b5090565b5f80611db9858585612881565b915091505b935093915050565b5f806008600a9054906101000a90046001600160a01b03166001600160a01b031663f27a0c926040518163ffffffff1660e01b8152600401602060405180830381865afa158015611e19573d5f803e3d5ffd5b505050506040513d601f19601f82011682018060405250810190611e3d9190613f02565b90505f611e49846129d1565b60085460405163b1c5f42760e01b8152919250600160501b90046001600160a01b03169063b1c5f42790611e89908a908a908a905f908890600401613f3f565b602060405180830381865afa158015611ea4573d5f803e3d5ffd5b505050506040513d601f19601f82011682018060405250810190611ec89190613f02565b5f898152600960205260408082209290925560085491516308f2a0bb60e41b8152600160501b9092046001600160a01b031691638f2a0bb091611f18918b918b918b919088908a90600401613f8c565b5f604051808303815f87803b158015611f2f575f80fd5b505af1158015611f41573d5f803e3d5ffd5b50505050610ed28242611f549190613fe3565b6123af565b634e487b715f52806020526024601cfd5b600854600160501b90046001600160a01b031663e38335e5348686865f611f90886129d1565b6040518763ffffffff1660e01b8152600401611fb0959493929190613f3f565b5f604051808303818588803b158015611fc7575f80fd5b505af1158015611fd9573d5f803e3d5ffd5b5050505f96875250506009602052505060408320929092555050565b5f818152600460205260408120805460ff600160f01b8204811691600160f81b900416811561202957506007949350505050565b801561203a57506002949350505050565b5f61204486610c95565b9050805f0361206957604051636ad0607560e01b815260048101879052602401610d17565b5f612072611031565b65ffffffffffff16905080821061208f57505f9695505050505050565b5f6120998861115d565b90508181106120b057506001979650505050505050565b6120b9886129e3565b15806120cb57506120c988612a19565b155b156120de57506003979650505050505050565b6120e7886110f4565b5f036120fb57506004979650505050505050565b506005979650505050505050565b5f8061211786868686612a34565b5f818152600960205260409020549091508015610b235760085460405163c4d252f560e01b815260048101839052600160501b9091046001600160a01b03169063c4d252f5906024015f604051808303815f87803b158015612177575f80fd5b505af1158015612189573d5f803e3d5ffd5b5050505f8381526009602052604081205550509050949350505050565b6001600160a01b03165f90815260026020526040902080546001810190915590565b5f6109486121d4612ae3565b8360405161190160f01b8152600281019290925260228201526042902090565b5f836001600160a01b03163b5f03612252575f806122128585612c0c565b5090925090505f81600381111561222b5761222b613602565b1480156122495750856001600160a01b0316826001600160a01b0316145b925050506110ae565b61225d848484612c55565b90506110ae565b5f858152600b602090815260408083206001600160a01b03881684526003810190925282205460ff16156122ad57856040516371c6af4960e01b8152600401610d1791906132bf565b6001600160a01b0386165f9081526003820160205260409020805460ff1916600117905560ff85166122f65783815f015f8282546122eb9190613fe3565b9091555061234c9050565b5f1960ff8616016123145783816001015f8282546122eb9190613fe3565b60011960ff8616016123335783816002015f8282546122eb9190613fe3565b6040516303599be160e11b815260040160405180910390fd5b509195945050505050565b80545f9081908190808203612375575f805f93509350935050610dfc565b5f61238586611af3600185613f19565b546001955065ffffffffffff81169450600160301b90046001600160d01b03169250610dfc915050565b5f65ffffffffffff821115611da8576030826040516306dfcc6560e41b8152600401610d17929190613f2c565b81545f9081816005811115612438575f6123f584612d2b565b6123ff9085613f19565b5f8881526020902090915081015465ffffffffffff908116908716101561242857809150612436565b612433816001613fe3565b92505b505b5f61244587878585612e7d565b905080156124725761245c87611af3600184613f19565b54600160301b90046001600160d01b0316610d2c565b5f979650505050505050565b80515f906034811015612495576001915050610948565b60131981840101516001600160b01b03198116692370726f706f7365723d60b01b146124c657600192505050610948565b5f806124d686602a860386612edc565b91509150811580610d2c5750866001600160a01b0316816001600160a01b03161494505050505092915050565b5f61251786868686805190602001206110df565b90508451865114158061252c57508351865114155b8061253657508551155b1561255d57855184518651604051630447b05d60e41b8152600401610d1793929190613672565b5f81815260046020526040902054600160a01b900465ffffffffffff16156125a6578061258982610cc7565b6040516331b75e4d60e01b8152610d179291905f90600401613e42565b5f6125af610cb5565b6125b7611031565b65ffffffffffff166125c99190613fe3565b90505f6125d461094e565b5f84815260046020526040902080546001600160a01b0319166001600160a01b038716178155909150612606836123af565b815465ffffffffffff91909116600160a01b0265ffffffffffff60a01b1990911617815561263382612f85565b815463ffffffff91909116600160d01b0263ffffffff60d01b1990911617815588517f7d84a6263ae0d98d3329bd7b46bb4e8d6f98cd35a7adb45c274c8b7fd5ebd5e090859087908c908c906001600160401b03811115612696576126966132e7565b6040519080825280602002602001820160405280156126c957816020015b60608152602001906001900390816126b45790505b508c896126d68a82613fe3565b8e6040516126ec99989796959493929190613ff6565b60405180910390a150505095945050505050565b606060ff831461271a5761271383612fb0565b9050610948565b81805461272690613c44565b80601f016020809104026020016040519081016040528092919081815260200182805461275290613c44565b801561279d5780601f106127745761010080835404028352916020019161279d565b820191905f5260205f20905b81548152906001019060200180831161278057829003601f168201915b50505050509050610948565b8051156127b857805160208201fd5b60405163d6bda27560e01b815260040160405180910390fd5b5f805f6127de8686612fed565b91509150815f03612802578381816127f8576127f86140cb565b04925050506110ae565b818411612819576128196003851502601118611f59565b5f848688095f868103871696879004966002600389028118808a02820302808a02820302808a02820302808a02820302808a02820302808a02909103029181900381900460010185841190960395909502919093039390930492909217029150509392505050565b82545f9081908015612977575f61289d87611af3600185613f19565b805490915065ffffffffffff80821691600160301b90046001600160d01b03169088168211156128e057604051632520601d60e01b815260040160405180910390fd5b8765ffffffffffff168265ffffffffffff160361291957825465ffffffffffff16600160301b6001600160d01b03891602178355612969565b6040805180820190915265ffffffffffff808a1682526001600160d01b03808a1660208085019182528d54600181018f555f8f81529190912094519151909216600160301b029216919091179101555b9450859350611dbe92505050565b50506040805180820190915265ffffffffffff80851682526001600160d01b0380851660208085019182528854600181018a555f8a815291822095519251909316600160301b029190931617920191909155905081611dbe565b6001600160601b03193060601b161890565b5f818152600b6020526040812060028101546001820154612a049190613fe3565b612a106108bb85610c95565b11159392505050565b5f818152600b60205260408120805460019091015411610948565b5f80612a42868686866110df565b9050612a9081612a52600761142a565b612a5c600661142a565b612a66600261142a565b6001612a736007826140df565b612a7e9060026141d8565b612a889190613f19565b18181861144c565b505f818152600460205260409081902080546001600160f81b0316600160f81b179055517f789cf55be980739dad1d0699b93b58e806b51c9d96619bfa8fe0a28abaa7b30c90610c849083815260200190565b5f306001600160a01b037f000000000000000000000000000000000000000000000000000000000000000016148015612b3b57507f000000000000000000000000000000000000000000000000000000000000000046145b15612b6557507f000000000000000000000000000000000000000000000000000000000000000090565b6108dd604080517f8b73c3c69bb8fe3d512ecc4cf759cc79239f7b179b0ffacaa9a75d522b39400f60208201527f0000000000000000000000000000000000000000000000000000000000000000918101919091527f000000000000000000000000000000000000000000000000000000000000000060608201524660808201523060a08201525f9060c00160405160208183030381529060405280519060200120905090565b5f805f8351604103612c43576020840151604085015160608601515f1a612c3588828585613009565b955095509550505050612c4e565b505081515f91506002905b9250925092565b5f805f856001600160a01b03168585604051602401612c759291906141e6565b60408051601f198184030181529181526020820180516001600160e01b0316630b135d3f60e11b17905251612caa91906141fe565b5f60405180830381855afa9150503d805f8114612ce2576040519150601f19603f3d011682016040523d82523d5f602084013e612ce7565b606091505b5091509150818015612cfb57506020815110155b8015610f8957508051630b135d3f60e11b90612d209083016020908101908401613f02565b149695505050505050565b5f60018211612d38575090565b816001600160801b8210612d515760809190911c9060401b5b600160401b8210612d675760409190911c9060201b5b600160201b8210612d7d5760209190911c9060101b5b620100008210612d925760109190911c9060081b5b6101008210612da65760089190911c9060041b5b60108210612db95760049190911c9060021b5b60048210612dc55760011b5b600302600190811c90818581612ddd57612ddd6140cb565b048201901c90506001818581612df557612df56140cb565b048201901c90506001818581612e0d57612e0d6140cb565b048201901c90506001818581612e2557612e256140cb565b048201901c90506001818581612e3d57612e3d6140cb565b048201901c90506001818581612e5557612e556140cb565b048201901c9050612e74818581612e6e57612e6e6140cb565b04821190565b90039392505050565b5f5b81831015612ed4575f612e9284846130c7565b5f8781526020902090915065ffffffffffff86169082015465ffffffffffff161115612ec057809250612ece565b612ecb816001613fe3565b93505b50612e7f565b509392505050565b5f808451831180612eec57508284115b15612efb57505f905080611dbe565b5f612f07856001613fe3565b84118015612f2f575061060f60f31b612f238787016020015190565b6001600160f01b031916145b90505f612f3f8215156002614214565b612f4a906028613fe3565b905080612f578787613f19565b03612f78575f80612f698989896130e1565b9096509450611dbe9350505050565b5f80935093505050611dbe565b5f63ffffffff821115611da8576020826040516306dfcc6560e41b8152600401610d17929190613f2c565b60605f612fbc836131a2565b6040805160208082528183019092529192505f91906020820181803683375050509182525060208101929092525090565b5f805f1983850993909202808410938190039390930393915050565b5f80806fa2a8918ca85bafe22016d0b997e4df60600160ff1b0384111561303857505f915060039050826130bd565b604080515f808252602082018084528a905260ff891692820192909252606081018790526080810186905260019060a0016020604051602081039080840390855afa158015613089573d5f803e3d5ffd5b5050604051601f1901519150506001600160a01b0381166130b457505f9250600191508290506130bd565b92505f91508190505b9450945094915050565b5f6130d5600284841861422b565b6110ae90848416613fe3565b5f8084816130f0866001613fe3565b85118015613118575061060f60f31b61310c8388016020015190565b6001600160f01b031916145b90505f6131288215156002614214565b90505f80613136838a613fe3565b90505b87811015613191575f6131576131528784016020015190565b6131c9565b9050600f8160ff161115613176575f8097509750505050505050611dbe565b613181601084614214565b60ff909116019150600101613139565b506001999098509650505050505050565b5f60ff8216601f81111561094857604051632cd44ac360e21b815260040160405180910390fd5b5f60f882901c602f811180156131e25750603a8160ff16105b156131f057602f1901610948565b60608160ff16118015613206575060678160ff16105b156132145760561901610948565b60408160ff1611801561322a575060478160ff16105b156132385760361901610948565b5060ff92915050565b5f60208284031215613251575f80fd5b81356001600160e01b0319811681146110ae575f80fd5b5f60208284031215613278575f80fd5b5035919050565b5f81518084528060208401602086015e5f602082860101526020601f19601f83011685010191505092915050565b602081525f6110ae602083018461327f565b6001600160a01b0391909116815260200190565b6001600160a01b0381168114610972575f80fd5b634e487b7160e01b5f52604160045260245ffd5b604051601f8201601f191681016001600160401b0381118282101715613323576133236132e7565b604052919050565b5f6001600160401b03821115613343576133436132e7565b50601f01601f191660200190565b5f61336361335e8461332b565b6132fb565b9050828152838383011115613376575f80fd5b828260208301375f602084830101529392505050565b5f82601f83011261339b575f80fd5b6110ae83833560208501613351565b5f805f80608085870312156133bd575f80fd5b84356133c8816132d3565b935060208501356133d8816132d3565b92506040850135915060608501356001600160401b038111156133f9575f80fd5b6134058782880161338c565b91505092959194509250565b5f6001600160401b03821115613429576134296132e7565b5060051b60200190565b5f82601f830112613442575f80fd5b8135602061345261335e83613411565b8083825260208201915060208460051b870101935086841115613473575f80fd5b602086015b8481101561349857803561348b816132d3565b8352918301918301613478565b509695505050505050565b5f82601f8301126134b2575f80fd5b813560206134c261335e83613411565b8083825260208201915060208460051b8701019350868411156134e3575f80fd5b602086015b8481101561349857803583529183019183016134e8565b5f82601f83011261350e575f80fd5b8135602061351e61335e83613411565b82815260059290921b8401810191818101908684111561353c575f80fd5b8286015b848110156134985780356001600160401b0381111561355d575f80fd5b61356b8986838b010161338c565b845250918301918301613540565b5f805f806080858703121561358c575f80fd5b84356001600160401b03808211156135a2575f80fd5b6135ae88838901613433565b955060208701359150808211156135c3575f80fd5b6135cf888389016134a3565b945060408701359150808211156135e4575f80fd5b506135f1878288016134ff565b949793965093946060013593505050565b634e487b7160e01b5f52602160045260245ffd5b6008811061363257634e487b7160e01b5f52602160045260245ffd5b9052565b602081016109488284613616565b5f8060408385031215613655575f80fd5b823591506020830135613667816132d3565b809150509250929050565b9283526020830191909152604082015260600190565b803560ff81168114610dd9575f80fd5b5f80604083850312156136a9575f80fd5b823591506136b960208401613688565b90509250929050565b5f8083601f8401126136d2575f80fd5b5081356001600160401b038111156136e8575f80fd5b6020830191508360208285010111156136ff575f80fd5b9250929050565b5f805f805f805f60c0888a03121561371c575f80fd5b8735965061372c60208901613688565b9550604088013561373c816132d3565b945060608801356001600160401b0380821115613757575f80fd5b6137638b838c016136c2565b909650945060808a013591508082111561377b575f80fd5b6137878b838c0161338c565b935060a08a013591508082111561379c575f80fd5b506137a98a828b0161338c565b91505092959891949750929550565b5f805f805f608086880312156137cc575f80fd5b853594506137dc60208701613688565b935060408601356001600160401b03808211156137f7575f80fd5b61380389838a016136c2565b9095509350606088013591508082111561381b575f80fd5b506138288882890161338c565b9150509295509295909350565b65ffffffffffff81168114610972575f80fd5b5f60208284031215613858575f80fd5b81356110ae81613835565b5f805f8060608587031215613876575f80fd5b8435935061388660208601613688565b925060408501356001600160401b038111156138a0575f80fd5b6138ac878288016136c2565b95989497509550505050565b5f805f80608085870312156138cb575f80fd5b84356001600160401b03808211156138e1575f80fd5b6138ed88838901613433565b95506020870135915080821115613902575f80fd5b61390e888389016134a3565b94506040870135915080821115613923575f80fd5b61392f888389016134ff565b93506060870135915080821115613944575f80fd5b508501601f81018713613955575f80fd5b61340587823560208401613351565b5f60208284031215613974575f80fd5b81356110ae816132d3565b5f815180845260208085019450602084015f5b838110156139ae57815187529582019590820190600101613992565b509495945050505050565b60ff60f81b8816815260e060208201525f6139d760e083018961327f565b82810360408401526139e9818961327f565b606084018890526001600160a01b038716608085015260a0840186905283810360c08501529050613a1a818561397f565b9a9950505050505050505050565b5f805f8060808587031215613a3b575f80fd5b84359350613a4b60208601613688565b92506040850135613a5b816132d3565b915060608501356001600160401b038111156133f9575f80fd5b5f805f60608486031215613a87575f80fd5b8335613a92816132d3565b92506020840135915060408401356001600160401b03811115613ab3575f80fd5b613abf8682870161338c565b9150509250925092565b5f805f805f60a08688031215613add575f80fd5b8535613ae8816132d3565b94506020860135613af8816132d3565b935060408601356001600160401b0380821115613b13575f80fd5b613b1f89838a016134a3565b94506060880135915080821115613b34575f80fd5b613b4089838a016134a3565b9350608088013591508082111561381b575f80fd5b5f805f8060608587031215613b68575f80fd5b8435613b73816132d3565b93506020850135925060408501356001600160401b038111156138a0575f80fd5b5f60208284031215613ba4575f80fd5b813563ffffffff811681146110ae575f80fd5b5f8060408385031215613bc8575f80fd5b8235613bd3816132d3565b946020939093013593505050565b5f805f805f60a08688031215613bf5575f80fd5b8535613c00816132d3565b94506020860135613c10816132d3565b9350604086013592506060860135915060808601356001600160401b03811115613c38575f80fd5b6138288882890161338c565b600181811c90821680613c5857607f821691505b602082108103613c7657634e487b7160e01b5f52602260045260245ffd5b50919050565b634e487b7160e01b5f52603260045260245ffd5b5f60208284031215613ca0575f80fd5b81516001600160401b03811115613cb5575f80fd5b8201601f81018413613cc5575f80fd5b8051613cd361335e8261332b565b818152856020838501011115613ce7575f80fd5b8160208401602083015e5f91810160200191909152949350505050565b5f60208284031215613d14575f80fd5b81516110ae81613835565b634e487b7160e01b5f52601160045260245ffd5b65ffffffffffff818116838216019080821115613d5257613d52613d1f565b5092915050565b818382375f9101908152919050565b5f815180845260208085019450602084015f5b838110156139ae5781516001600160a01b031687529582019590820190600101613d7b565b5f8282518085526020808601955060208260051b840101602086015f5b84811015613deb57601f19868403018952613dd983835161327f565b98840198925090830190600101613dbd565b5090979650505050505050565b608081525f613e0a6080830187613d68565b8281036020840152613e1c818761397f565b90508281036040840152613e308186613da0565b91505082606083015295945050505050565b83815260608101613e566020830185613616565b826040830152949350505050565b5f60208284031215613e74575f80fd5b815180151581146110ae575f80fd5b84815260ff84166020820152826040820152608060608201525f610f89608083018461327f565b85815260ff8516602082015283604082015260a060608201525f613ed160a083018561327f565b8281036080840152610ed2818561327f565b65ffffffffffff828116828216039080821115613d5257613d52613d1f565b5f60208284031215613f12575f80fd5b5051919050565b8181038181111561094857610948613d1f565b60ff929092168252602082015260400190565b60a081525f613f5160a0830188613d68565b8281036020840152613f63818861397f565b90508281036040840152613f778187613da0565b60608401959095525050608001529392505050565b60c081525f613f9e60c0830189613d68565b8281036020840152613fb0818961397f565b90508281036040840152613fc48188613da0565b60608401969096525050608081019290925260a0909101529392505050565b8082018082111561094857610948613d1f565b5f6101208b8352602060018060a01b038c168185015281604085015261401e8285018c613d68565b91508382036060850152614032828b61397f565b915083820360808501528189518084528284019150828160051b850101838c015f5b8381101561408257601f1987840301855261407083835161327f565b94860194925090850190600101614054565b505086810360a0880152614096818c613da0565b9450505050508560c08401528460e08401528281036101008401526140bb818561327f565b9c9b505050505050505050505050565b634e487b7160e01b5f52601260045260245ffd5b60ff818116838216019081111561094857610948613d1f565b600181815b8085111561413257815f190482111561411857614118613d1f565b8085161561412557918102915b93841c93908002906140fd565b509250929050565b5f8261414857506001610948565b8161415457505f610948565b816001811461416a576002811461417457614190565b6001915050610948565b60ff84111561418557614185613d1f565b50506001821b610948565b5060208310610133831016604e8410600b84101617156141b3575081810a610948565b6141bd83836140f8565b805f19048211156141d0576141d0613d1f565b029392505050565b5f6110ae60ff84168361413a565b828152604060208201525f6110ab604083018461327f565b5f82518060208501845e5f920191825250919050565b808202811582820484141761094857610948613d1f565b5f8261424557634e487b7160e01b5f52601260045260245ffd5b50049056fef2aad550cf55f045cb27e9c559f9889fdfb6e6cdaa032301d6ea397784ae51d73e83946653575f9a39005e1545185629e92736b7528ab20ca3816f315424a811a26469706673582212201a361af12b4ba10c236228f96c66faab568e966e89ea31335eb3abede5e5a2a864736f6c63430008190033",
  "linkReferences": {},
  "deployedLinkReferences": {}
}