{
  "_format": "hh-sol-artifact-1",
  "contractName": "KalaKrutGovernor",
  "sourceName": "contracts/KalaKrutGovernor.sol",
  "abi": [
    {
      "inputs": [
        {
          "internalType": "contract IVotes",
          "name": "_token",
          "type": "address"
        },
        {
          "internalType": "contract TimelockController",
          "name": "_timelock",
          "type": "address"
        }
      ],
      "stateMutability": "nonpayable",
      "type": "constructor"
    },
    {
      "inputs": [],
      "name": "CheckpointUnorderedInsertion",
      "type": "error"
    },
    {
      "inputs": [],
      "name": "FailedCall",
      "type": "error"
    },
    {
      "inputs": [
        {
          "internalType": "address",
          "name": "voter",
          "type": "address"
        }
      ],
      "name": "GovernorAlreadyCastVote",
      "type": "error"
    },
    {
      "inputs": [
        {
          "internalType": "uint256",
          "name": "proposalId",
          "type": "uint256"
        }
      ],
      "name": "GovernorAlreadyQueuedProposal",
      "type": "error"
    },
    {
      "inputs": [],
      "name": "GovernorDisabledDeposit",
      "type": "error"
    },
    {
      "inputs": [
        {
          "internalType": "address",
          "name": "proposer",
          "type": "address"
        },
        {
          "internalType": "uint256",
          "name": "votes",
          "type": "uint256"
        },
        {
          "internalType": "uint256",
          "name": "threshold",
          "type": "uint256"
        }
      ],
      "name": "GovernorInsufficientProposerVotes",
      "type": "error"
    },
    {
      "inputs": [
        {
          "internalType": "uint256",
          "name": "targets",
          "type": "uint256"
        },
        {
          "internalType": "uint256",
          "name": "calldatas",
          "type": "uint256"
        },
        {
          "internalType": "uint256",
          "name": "values",
          "type": "uint256"
        }
      ],
      "name": "GovernorInvalidProposalLength",
      "type": "error"
    },
    {
      "inputs": [
        {
          "internalType": "uint256",
          "name": "quorumNumerator",
          "type": "uint256"
        },
        {
          "internalType": "uint256",
          "name": "quorumDenominator",
          "type": "uint256"
        }
      ],
      "name": "GovernorInvalidQuorumFraction",
      "type": "error"
    },
    {
      "inputs": [
        {
          "internalType": "address",
          "name": "voter",
          "type": "address"
        }
      ],
      "name": "GovernorInvalidSignature",
      "type": "error"
    },
    {
      "inputs": [],
      "name": "GovernorInvalidVoteParams",
      "type": "error"
    },
    {
      "inputs": [],
      "name": "GovernorInvalidVoteType",
      "type": "error"
    },
    {
      "inputs": [
        {
          "internalType": "uint256",
          "name": "votingPeriod",
          "type": "uint256"
        }
      ],
      "name": "GovernorInvalidVotingPeriod",
      "type": "error"
    },
    {
      "inputs": [
        {
          "internalType": "uint256",
          "name": "proposalId",
          "type": "uint256"
        }
      ],
      "name": "GovernorNonexistentProposal",
      "type": "error"
    },
    {
      "inputs": [
        {
          "internalType": "uint256",
          "name": "proposalId",
          "type": "uint256"
        }
      ],
      "name": "GovernorNotQueuedProposal",
      "type": "error"
    },
    {
      "inputs": [
        {
          "internalType": "address",
          "name": "account",
          "type": "address"
        }
      ],
      "name": "GovernorOnlyExecutor",
      "type": "error"
    },
    {
      "inputs": [],
      "name": "GovernorQueueNotImplemented",
      "type": "error"
    },
    {
      "inputs": [
        {
          "internalType": "address",
          "name": "proposer",
          "type": "address"
        }
      ],
      "name": "GovernorRestrictedProposer",
      "type": "error"
    },
    {
      "inputs": [
        {
          "internalType": "uint256",
          "name": "proposalId",
          "type": "uint256"
        },
        {
          "internalType": "address",
          "name": "account",
          "type": "address"
        }
      ],
      "name": "GovernorUnableToCancel",
      "type": "error"
    },
    {
      "inputs": [
        {
          "internalType": "uint256",
          "name": "proposalId",
          "type": "uint256"
        },
        {
          "internalType": "enum IGovernor.ProposalState",
          "name": "current",
          "type": "uint8"
        },
        {
          "internalType": "bytes32",
          "name": "expectedStates",
          "type": "bytes32"
        }
      ],
      "name": "GovernorUnexpectedProposalState",
      "type": "error"
    },
    {
      "inputs": [
        {
          "internalType": "address",
          "name": "account",
          "type": "address"
        },
        {
          "internalType": "uint256",
          "name": "currentNonce",
          "type": "uint256"
        }
      ],
      "name": "InvalidAccountNonce",
      "type": "error"
    },
    {
      "inputs": [],
      "name": "InvalidShortString",
      "type": "error"
    },
    {
      "inputs": [
        {
          "internalType": "uint8",
          "name": "bits",
          "type": "uint8"
        },
        {
          "internalType": "uint256",
          "name": "value",
          "type": "uint256"
        }
      ],
      "name": "SafeCastOverflowedUintDowncast",
      "type": "error"
    },
    {
      "inputs": [
        {
          "internalType": "string",
          "name": "str",
          "type": "string"
        }
      ],
      "name": "StringTooLong",
      "type": "error"
    },
    {
      "anonymous": false,
      "inputs": [],
      "name": "EIP712DomainChanged",
      "type": "event"
    },
    {
      "anonymous": false,
      "inputs": [
        {
          "indexed": false,
          "internalType": "uint256",
          "name": "proposalId",
          "type": "uint256"
        }
      ],
      "name": "ProposalCanceled",
      "type": "event"
    },
    {
      "anonymous": false,
      "inputs": [
        {
          "indexed": false,
          "internalType": "uint256",
          "name": "proposalId",
          "type": "uint256"
        },
        {
          "indexed": false,
          "internalType": "address",
          "name": "proposer",
          "type": "address"
        },
        {
          "indexed": false,
          "internalType": "address[]",
          "name": "targets",
          "type": "address[]"
        },
        {
          "indexed": false,
          "internalType": "uint256[]",
          "name": "values",
          "type": "uint256[]"
        },
        {
          "indexed": false,
          "internalType": "string[]",
          "name": "signatures",
          "type": "string[]"
        },
        {
          "indexed": false,
          "internalType": "bytes[]",
          "name": "calldatas",
          "type": "bytes[]"
        },
        {
          "indexed": false,
          "internalType": "uint256",
          "name": "voteStart",
          "type": "uint256"
        },
        {
          "indexed": false,
          "internalType": "uint256",
          "name": "voteEnd",
          "type": "uint256"
        },
        {
          "indexed": false,
          "internalType": "string",
          "name": "description",
          "type": "string"
        }
      ],
      "name": "ProposalCreated",
      "type": "event"
    },
    {
      "anonymous": false,
      "inputs": [
        {
          "indexed": false,
          "internalType": "uint256",
          "name": "proposalId",
          "type": "uint256"
        }
      ],
      "name": "ProposalExecuted",
      "type": "event"
    },
    {
      "anonymous": false,
      "inputs": [
        {
          "indexed": false,
          "internalType": "uint256",
          "name": "proposalId",
          "type": "uint256"
        },
        {
          "indexed": false,
          "internalType": "uint256",
          "name": "etaSeconds",
          "type": "uint256"
        }
      ],
      "name": "ProposalQueued",
      "type": "event"
    },
    {
      "anonymous": false,
      "inputs": [
        {
          "indexed": false,
          "internalType": "uint256",
          "name": "oldProposalThreshold",
          "type": "uint256"
        },
        {
          "indexed": false,
          "internalType": "uint256",
          "name": "newProposalThreshold",
          "type": "uint256"
        }
      ],
      "name": "ProposalThresholdSet",
      "type": "event"
    },
    {
      "anonymous": false,
      "inputs": [
        {
          "indexed": false,
          "internalType": "uint256",
          "name": "oldQuorumNumerator",
          "type": "uint256"
        },
        {
          "indexed": false,
          "internalType": "uint256",
          "name": "newQuorumNumerator",
          "type": "uint256"
        }
      ],
      "name": "QuorumNumeratorUpdated",
      "type": "event"
    },
    {
      "anonymous": false,
      "inputs": [
        {
          "indexed": false,
          "internalType": "address",
          "name": "oldTimelock",
          "type": "address"
        },
        {
          "indexed": false,
          "internalType": "address",
          "name": "newTimelock",
          "type": "address"
        }
      ],
      "name": "TimelockChange",
      "type": "event"
    },
    {
      "anonymous": false,
      "inputs": [
        {
          "indexed": true,
          "internalType": "address",
          "name": "voter",
          "type": "address"
        },
        {
          "indexed": false,
          "internalType": "uint256",
          "name": "proposalId",
          "type": "uint256"
        },
        {
          "indexed": false,
          "internalType": "uint8",
          "name": "support",
          "type": "uint8"
        },
        {
          "indexed": false,
          "internalType": "uint256",
          "name": "weight",
          "type": "uint256"
        },
        {
          "indexed": false,
          "internalType": "string",
          "name": "reason",
          "type": "string"
        }
      ],
      "name": "VoteCast",
      "type": "event"
    },
    {
      "anonymous": false,
      "inputs": [
        {
          "indexed": true,
          "internalType": "address",
          "name": "voter",
          "type": "address"
        },
        {
          "indexed": false,
          "internalType": "uint256",
          "name": "proposalId",
          "type": "uint256"
        },
        {
          "indexed": false,
          "internalType": "uint8",
          "name": "support",
          "type": "uint8"
        },
        {
          "indexed": false,
          "internalType": "uint256",
          "name": "weight",
          "type": "uint256"
        },
        {
          "indexed": false,
          "internalType": "string",
          "name": "reason",
          "type": "string"
        },
        {
          "indexed": false,
          "internalType": "bytes",
          "name": "params",
          "type": "bytes"
        }
      ],
      "name": "VoteCastWithParams",
      "type": "event"
    },
    {
      "anonymous": false,
      "inputs": [
        {
          "indexed": false,
          "internalType": "uint256",
          "name": "oldVotingDelay",
          "type": "uint256"
        },
        {
          "indexed": false,
          "internalType": "uint256",
          "name": "newVotingDelay",
          "type": "uint256"
        }
      ],
      "name": "VotingDelaySet",
      "type": "event"
    },
    {
      "anonymous": false,
      "inputs": [
        {
          "indexed": false,
          "internalType": "uint256",
          "name": "oldVotingPeriod",
          "type": "uint256"
        },
        {
          "indexed": false,
          "internalType": "uint256",
          "name": "newVotingPeriod",
          "type": "uint256"
        }
      ],
      "name": "VotingPeriodSet",
      "type": "event"
    },
    {
      "inputs": [],
      "name": "BALLOT_TYPEHASH",
      "outputs": [
        {
          "internalType": "bytes32",
          "name": "",
          "type": "bytes32"
        }
      ],
      "stateMutability": "view",
      "type": "function"
    },
    {
      "inputs": [],
      "name": "CLOCK_MODE",
      "outputs": [
        {
          "internalType": "string",
          "name": "",
          "type": "string"
        }
      ],
      "stateMutability": "view",
      "type": "function"
    },
    {
      "inputs": [],
      "name": "COUNTING_MODE",
      "outputs": [
        {
          "internalType": "string",
          "name": "",
          "type": "string"
        }
      ],
      "stateMutability": "pure",
      "type": "function"
    },
    {
      "inputs": [],
      "name": "EXTENDED_BALLOT_TYPEHASH",
      "outputs": [
        {
          "internalType": "bytes32",
          "name": "",
          "type": "bytes32"
        }
      ],
      "stateMutability": "view",
      "type": "function"
    },
    {
      "inputs": [
        {
          "internalType": "address[]",
          "name": "targets",
          "type": "address[]"
        },
        {
          "internalType": "uint256[]",
          "name": "values",
          "type": "uint256[]"
        },
        {
          "internalType": "bytes[]",
          "name": "calldatas",
          "type": "bytes[]"
        },
        {
          "internalType": "bytes32",
          "name": "descriptionHash",
          "type": "bytes32"
        }
      ],
      "name": "cancel",
      "outputs": [
        {
          "internalType": "uint256",
          "name": "",
          "type": "uint256"
        }
      ],
      "stateMutability": "nonpayable",
      "type": "function"
    },
    {
      "inputs": [
        {
          "internalType": "uint256",
          "name": "proposalId",
          "type": "uint256"
        },
        {
          "internalType": "uint8",
          "name": "support",
          "type": "uint8"
        }
      ],
      "name": "castVote",
      "outputs": [
        {
          "internalType": "uint256",
          "name": "",
          "type": "uint256"
        }
      ],
      "stateMutability": "nonpayable",
      "type": "function"
    },
    {
      "inputs": [
        {
          "internalType": "uint256",
          "name": "proposalId",
          "type": "uint256"
        },
        {
          "internalType": "uint8",
          "name": "support",
          "type": "uint8"
        },
        {
          "internalType": "address",
          "name": "voter",
          "type": "address"
        },
        {
          "internalType": "bytes",
          "name": "signature",
          "type": "bytes"
        }
      ],
      "name": "castVoteBySig",
      "outputs": [
        {
          "internalType": "uint256",
          "name": "",
          "type": "uint256"
        }
      ],
      "stateMutability": "nonpayable",
      "type": "function"
    },
    {
      "inputs": [
        {
          "internalType": "uint256",
          "name": "proposalId",
          "type": "uint256"
        },
        {
          "internalType": "uint8",
          "name": "support",
          "type": "uint8"
        },
        {
          "internalType": "string",
          "name": "reason",
          "type": "string"
        }
      ],
      "name": "castVoteWithReason",
      "outputs": [
        {
          "internalType": "uint256",
          "name": "",
          "type": "uint256"
        }
      ],
      "stateMutability": "nonpayable",
      "type": "function"
    },
    {
      "inputs": [
        {
          "internalType": "uint256",
          "name": "proposalId",
          "type": "uint256"
        },
        {
          "internalType": "uint8",
          "name": "support",
          "type": "uint8"
        },
        {
          "internalType": "string",
          "name": "reason",
          "type": "string"
        },
        {
          "internalType": "bytes",
          "name": "params",
          "type": "bytes"
        }
      ],
      "name": "castVoteWithReasonAndParams",
      "outputs": [
        {
          "internalType": "uint256",
          "name": "",
          "type": "uint256"
        }
      ],
      "stateMutability": "nonpayable",
      "type": "function"
    },
    {
      "inputs": [
        {
          "internalType": "uint256",
          "name": "proposalId",
          "type": "uint256"
        },
        {
          "internalType": "uint8",
          "name": "support",
          "type": "uint8"
        },
        {
          "internalType": "address",
          "name": "voter",
          "type": "address"
        },
        {
          "internalType": "string",
          "name": "reason",
          "type": "string"
        },
        {
          "internalType": "bytes",
          "name": "params",
          "type": "bytes"
        },
        {
          "internalType": "bytes",
          "name": "signature",
          "type": "bytes"
        }
      ],
      "name": "castVoteWithReasonAndParamsBySig",
      "outputs": [
        {
          "internalType": "uint256",
          "name": "",
          "type": "uint256"
        }
      ],
      "stateMutability": "nonpayable",
      "type": "function"
    },
    {
      "inputs": [],
      "name": "clock",
      "outputs": [
        {
          "internalType": "uint48",
          "name": "",
          "type": "uint48"
        }
      ],
      "stateMutability": "view",
      "type": "function"
    },
    {
      "inputs": [],
      "name": "eip712Domain",
      "outputs": [
        {
          "internalType": "bytes1",
          "name": "fields",
          "type": "bytes1"
        },
        {
          "internalType": "string",
          "name": "name",
          "type": "string"
        },
        {
          "internalType": "string",
          "name": "version",
          "type": "string"
        },
        {
          "internalType": "uint256",
          "name": "chainId",
          "type": "uint256"
        },
        {
          "internalType": "address",
          "name": "verifyingContract",
          "type": "address"
        },
        {
          "internalType": "bytes32",
          "name": "salt",
          "type": "bytes32"
        },
        {
          "internalType": "uint256[]",
          "name": "extensions",
          "type": "uint256[]"
        }
      ],
      "stateMutability": "view",
      "type": "function"
    },
    {
      "inputs": [
        {
          "internalType": "address[]",
          "name": "targets",
          "type": "address[]"
        },
        {
          "internalType": "uint256[]",
          "name": "values",
          "type": "uint256[]"
        },
        {
          "internalType": "bytes[]",
          "name": "calldatas",
          "type": "bytes[]"
        },
        {
          "internalType": "bytes32",
          "name": "descriptionHash",
          "type": "bytes32"
        }
      ],
      "name": "execute",
      "outputs": [
        {
          "internalType": "uint256",
          "name": "",
          "type": "uint256"
        }
      ],
      "stateMutability": "payable",
      "type": "function"
    },
    {
      "inputs": [
        {
          "internalType": "address[]",
          "name": "targets",
          "type": "address[]"
        },
        {
          "internalType": "uint256[]",
          "name": "values",
          "type": "uint256[]"
        },
        {
          "internalType": "bytes[]",
          "name": "calldatas",
          "type": "bytes[]"
        },
        {
          "internalType": "bytes32",
          "name": "descriptionHash",
          "type": "bytes32"
        }
      ],
      "name": "getProposalId",
      "outputs": [
        {
          "internalType": "uint256",
          "name": "",
          "type": "uint256"
        }
      ],
      "stateMutability": "view",
      "type": "function"
    },
    {
      "inputs": [
        {
          "internalType": "address",
          "name": "account",
          "type": "address"
        },
        {
          "internalType": "uint256",
          "name": "timepoint",
          "type": "uint256"
        }
      ],
      "name": "getVotes",
      "outputs": [
        {
          "internalType": "uint256",
          "name": "",
          "type": "uint256"
        }
      ],
      "stateMutability": "view",
      "type": "function"
    },
    {
      "inputs": [
        {
          "internalType": "address",
          "name": "account",
          "type": "address"
        },
        {
          "internalType": "uint256",
          "name": "timepoint",
          "type": "uint256"
        },
        {
          "internalType": "bytes",
          "name": "params",
          "type": "bytes"
        }
      ],
      "name": "getVotesWithParams",
      "outputs": [
        {
          "internalType": "uint256",
          "name": "",
          "type": "uint256"
        }
      ],
      "stateMutability": "view",
      "type": "function"
    },
    {
      "inputs": [
        {
          "internalType": "uint256",
          "name": "proposalId",
          "type": "uint256"
        },
        {
          "internalType": "address",
          "name": "account",
          "type": "address"
        }
      ],
      "name": "hasVoted",
      "outputs": [
        {
          "internalType": "bool",
          "name": "",
          "type": "bool"
        }
      ],
      "stateMutability": "view",
      "type": "function"
    },
    {
      "inputs": [
        {
          "internalType": "address[]",
          "name": "targets",
          "type": "address[]"
        },
        {
          "internalType": "uint256[]",
          "name": "values",
          "type": "uint256[]"
        },
        {
          "internalType": "bytes[]",
          "name": "calldatas",
          "type": "bytes[]"
        },
        {
          "internalType": "bytes32",
          "name": "descriptionHash",
          "type": "bytes32"
        }
      ],
      "name": "hashProposal",
      "outputs": [
        {
          "internalType": "uint256",
          "name": "",
          "type": "uint256"
        }
      ],
      "stateMutability": "pure",
      "type": "function"
    },
    {
      "inputs": [],
      "name": "name",
      "outputs": [
        {
          "internalType": "string",
          "name": "",
          "type": "string"
        }
      ],
      "stateMutability": "view",
      "type": "function"
    },
    {
      "inputs": [
        {
          "internalType": "address",
          "name": "owner",
          "type": "address"
        }
      ],
      "name": "nonces",
      "outputs": [
        {
          "internalType": "uint256",
          "name": "",
          "type": "uint256"
        }
      ],
      "stateMutability": "view",
      "type": "function"
    },
    {
      "inputs": [
        {
          "internalType": "address",
          "name": "",
          "type": "address"
        },
        {
          "internalType": "address",
          "name": "",
          "type": "address"
        },
        {
          "internalType": "uint256[]",
          "name": "",
          "type": "uint256[]"
        },
        {
          "internalType": "uint256[]",
          "name": "",
          "type": "uint256[]"
        },
        {
          "internalType": "bytes",
          "name": "",
          "type": "bytes"
        }
      ],
      "name": "onERC1155BatchReceived",
      "outputs": [
        {
          "internalType": "bytes4",
          "name": "",
          "type": "bytes4"
        }
      ],
      "stateMutability": "nonpayable",
      "type": "function"
    },
    {
      "inputs": [
        {
          "internalType": "address",
          "name": "",
          "type": "address"
        },
        {
          "internalType": "address",
          "name": "",
          "type": "address"
        },
        {
          "internalType": "uint256",
          "name": "",
          "type": "uint256"
        },
        {
          "internalType": "uint256",
          "name": "",
          "type": "uint256"
        },
        {
          "internalType": "bytes",
          "name": "",
          "type": "bytes"
        }
      ],
      "name": "onERC1155Received",
      "outputs": [
        {
          "internalType": "bytes4",
          "name": "",
          "type": "bytes4"
        }
      ],
      "stateMutability": "nonpayable",
      "type": "function"
    },
    {
      "inputs": [
        {
          "internalType": "address",
          "name": "",
          "type": "address"
        },
        {
          "internalType": "address",
          "name": "",
          "type": "address"
        },
        {
          "internalType": "uint256",
          "name": "",
          "type": "uint256"
        },
        {
          "internalType": "bytes",
          "name": "",
          "type": "bytes"
        }
      ],
      "name": "onERC721Received",
      "outputs": [
        {
          "internalType": "bytes4",
          "name": "",
          "type": "bytes4"
        }
      ],
      "stateMutability": "nonpayable",
      "type": "function"
    },
    {
      "inputs": [
        {
          "internalType": "uint256",
          "name": "proposalId",
          "type": "uint256"
        }
      ],
      "name": "proposalDeadline",
      "outputs": [
        {
          "internalType": "uint256",
          "name": "",
          "type": "uint256"
        }
      ],
      "stateMutability": "view",
      "type": "function"
    },
    {
      "inputs": [
        {
          "internalType": "uint256",
          "name": "proposalId",
          "type": "uint256"
        }
      ],
      "name": "proposalEta",
      "outputs": [
        {
          "internalType": "uint256",
          "name": "",
          "type": "uint256"
        }
      ],
      "stateMutability": "view",
      "type": "function"
    },
    {
      "inputs": [
        {
          "internalType": "uint256",
          "name": "proposalId",
          "type": "uint256"
        }
      ],
      "name": "proposalNeedsQueuing",
      "outputs": [
        {
          "internalType": "bool",
          "name": "",
          "type": "bool"
        }
      ],
      "stateMutability": "view",
      "type": "function"
    },
    {
      "inputs": [
        {
          "internalType": "uint256",
          "name": "proposalId",
          "type": "uint256"
        }
      ],
      "name": "proposalProposer",
      "outputs": [
        {
          "internalType": "address",
          "name": "",
          "type": "address"
        }
      ],
      "stateMutability": "view",
      "type": "function"
    },
    {
      "inputs": [
        {
          "internalType": "uint256",
          "name": "proposalId",
          "type": "uint256"
        }
      ],
      "name": "proposalSnapshot",
      "outputs": [
        {
          "internalType": "uint256",
          "name": "",
          "type": "uint256"
        }
      ],
      "stateMutability": "view",
      "type": "function"
    },
    {
      "inputs": [],
      "name": "proposalThreshold",
      "outputs": [
        {
          "internalType": "uint256",
          "name": "",
          "type": "uint256"
        }
      ],
      "stateMutability": "view",
      "type": "function"
    },
    {
      "inputs": [
        {
          "internalType": "uint256",
          "name": "proposalId",
          "type": "uint256"
        }
      ],
      "name": "proposalVotes",
      "outputs": [
        {
          "internalType": "uint256",
          "name": "againstVotes",
          "type": "uint256"
        },
        {
          "internalType": "uint256",
          "name": "forVotes",
          "type": "uint256"
        },
        {
          "internalType": "uint256",
          "name": "abstainVotes",
          "type": "uint256"
        }
      ],
      "stateMutability": "view",
      "type": "function"
    },
    {
      "inputs": [
        {
          "internalType": "address[]",
          "name": "targets",
          "type": "address[]"
        },
        {
          "internalType": "uint256[]",
          "name": "values",
          "type": "uint256[]"
        },
        {
          "internalType": "bytes[]",
          "name": "calldatas",
          "type": "bytes[]"
        },
        {
          "internalType": "string",
          "name": "description",
          "type": "string"
        }
      ],
      "name": "propose",
      "outputs": [
        {
          "internalType": "uint256",
          "name": "",
          "type": "uint256"
        }
      ],
      "stateMutability": "nonpayable",
      "type": "function"
    },
    {
      "inputs": [
        {
          "internalType": "address[]",
          "name": "targets",
          "type": "address[]"
        },
        {
          "internalType": "uint256[]",
          "name": "values",
          "type": "uint256[]"
        },
        {
          "internalType": "bytes[]",
          "name": "calldatas",
          "type": "bytes[]"
        },
        {
          "internalType": "bytes32",
          "name": "descriptionHash",
          "type": "bytes32"
        }
      ],
      "name": "queue",
      "outputs": [
        {
          "internalType": "uint256",
          "name": "",
          "type": "uint256"
        }
      ],
      "stateMutability": "nonpayable",
      "type": "function"
    },
    {
      "inputs": [
        {
          "internalType": "uint256",
          "name": "blockNumber",
          "type": "uint256"
        }
      ],
      "name": "quorum",
      "outputs": [
        {
          "internalType": "uint256",
          "name": "",
          "type": "uint256"
        }
      ],
      "stateMutability": "view",
      "type": "function"
    },
    {
      "inputs": [],
      "name": "quorumDenominator",
      "outputs": [
        {
          "internalType": "uint256",
          "name": "",
          "type": "uint256"
        }
      ],
      "stateMutability": "view",
      "type": "function"
    },
    {
      "inputs": [
        {
          "internalType": "uint256",
          "name": "timepoint",
          "type": "uint256"
        }
      ],
      "name": "quorumNumerator",
      "outputs": [
        {
          "internalType": "uint256",
          "name": "",
          "type": "uint256"
        }
      ],
      "stateMutability": "view",
      "type": "function"
    },
    {
      "inputs": [],
      "name": "quorumNumerator",
      "outputs": [
        {
          "internalType": "uint256",
          "name": "",
          "type": "uint256"
        }
      ],
      "stateMutability": "view",
      "type": "function"
    },
    {
      "inputs": [
        {
          "internalType": "address",
          "name": "target",
          "type": "address"
        },
        {
          "internalType": "uint256",
          "name": "value",
          "type": "uint256"
        },
        {
          "internalType": "bytes",
          "name": "data",
          "type": "bytes"
        }
      ],
      "name": "relay",
      "outputs": [],
      "stateMutability": "payable",
      "type": "function"
    },
    {
      "inputs": [
        {
          "internalType": "uint256",
          "name": "newProposalThreshold",
          "type": "uint256"
        }
      ],
      "name": "setProposalThreshold",
      "outputs": [],
      "stateMutability": "nonpayable",
      "type": "function"
    },
    {
      "inputs": [
        {
          "internalType": "uint48",
          "name": "newVotingDelay",
          "type": "uint48"
        }
      ],
      "name": "setVotingDelay",
      "outputs": [],
      "stateMutability": "nonpayable",
      "type": "function"
    },
    {
      "inputs": [
        {
          "internalType": "uint32",
          "name": "newVotingPeriod",
          "type": "uint32"
        }
      ],
      "name": "setVotingPeriod",
      "outputs": [],
      "stateMutability": "nonpayable",
      "type": "function"
    },
    {
      "inputs": [
        {
          "internalType": "uint256",
          "name": "proposalId",
          "type": "uint256"
        }
      ],
      "name": "state",
      "outputs": [
        {
          "internalType": "enum IGovernor.ProposalState",
          "name": "",
          "type": "uint8"
        }
      ],
      "stateMutability": "view",
      "type": "function"
    },
    {
      "inputs": [
        {
          "internalType": "bytes4",
          "name": "interfaceId",
          "type": "bytes4"
        }
      ],
      "name": "supportsInterface",
      "outputs": [
        {
          "internalType": "bool",
          "name": "",
          "type": "bool"
        }
      ],
      "stateMutability": "view",
      "type": "function"
    },
    {
      "inputs": [],
      "name": "timelock",
      "outputs": [
        {
          "internalType": "address",
          "name": "",
          "type": "address"
        }
      ],
      "stateMutability": "view",
      "type": "function"
    },
    {
      "inputs": [],
      "name": "token",
      "outputs": [
        {
          "internalType": "contract IERC5805",
          "name": "",
          "type": "address"
        }
      ],
      "stateMutability": "view",
      "type": "function"
    },
    {
      "inputs": [
        {
          "internalType": "uint256",
          "name": "newQuorumNumerator",
          "type": "uint256"
        }
      ],
      "name": "updateQuorumNumerator",
      "outputs": [],
      "stateMutability": "nonpayable",
      "type": "function"
    },
    {
      "inputs": [
        {
          "internalType": "contract TimelockController",
          "name": "newTimelock",
          "type": "address"
        }
      ],
      "name": "updateTimelock",
      "outputs": [],
      "stateMutability": "nonpayable",
      "type": "function"
    },
    {
      "inputs": [],
      "name": "version",
      "outputs": [
        {
          "internalType": "string",
          "name": "",
          "type": "string"
        }
      ],
      "stateMutability": "view",
      "type": "function"
    },
    {
      "inputs": [],
      "name": "votingDelay",
      "outputs": [
        {
          "internalType": "uint256",
          "name": "",
          "type": "uint256"
        }
      ],
      "stateMutability": "view",
      "type": "function"
    },
    {
      "inputs": [],
      "name": "votingPeriod",
      "outputs": [
        {
          "internalType": "uint256",
          "name": "",
          "type": "uint256"
        }
      ],
      "stateMutability": "view",
      "type": "function"
    },
    {
      "stateMutability": "payable",
      "type": "receive"
    }
  ],
  "bytecode": "0x61018060405234801562000011575f80fd5b5060405162004e9c38038062004e9c833981016040819052620000349162000796565b600482825f619d8060646040518060400160405280601081526020016f25b0b630a5b93aba23b7bb32b93737b960811b81525080620000786200019360201b60201c565b62000084825f620001ae565b6101205262000095816001620001ae565b61014052815160208084019190912060e052815190820120610100524660a0526200012260e05161010051604080517f8b73c3c69bb8fe3d512ecc4cf759cc79239f7b179b0ffacaa9a75d522b39400f60208201529081019290925260608201524660808201523060a08201525f9060c00160405160208183030381529060405280519060200120905090565b60805250503060c052600362000139828262000871565b5062000147905083620001e6565b62000152826200024c565b6200015d81620002f1565b50505062000171816200033260201b60201c565b506001600160a01b0316610160526200018a81620003ba565b505050620009f6565b6040805180820190915260018152603160f81b602082015290565b5f602083511015620001cd57620001c58362000459565b9050620001e0565b81620001da848262000871565b5060ff90505b92915050565b6008546040805165ffffffffffff928316815291831660208301527fc565b045403dc03c2eea82b81a0465edad9e2e7fc4d97e11421c209da93d7a93910160405180910390a16008805465ffffffffffff191665ffffffffffff92909216919091179055565b8063ffffffff165f036200027a5760405163f1cfbf0560e01b81525f60048201526024015b60405180910390fd5b6008546040805163ffffffff66010000000000009093048316815291831660208301527f7e3f7f0708a84de9203036abaa450dccc85ad5ff52f78c170f3edb55cf5e8828910160405180910390a16008805463ffffffff90921666010000000000000263ffffffff60301b19909216919091179055565b60075460408051918252602082018390527fccb45da8d5717e6c4544694297c4ba5cf151d455c9bb0ed4fc7a38411bc05461910160405180910390a1600755565b600854604080516001600160a01b036a01000000000000000000009093048316815291831660208301527f08f74ea46ef7894f65eabfb5e6e695de773a000b47c529ab559178069b226401910160405180910390a1600880546001600160a01b039092166a010000000000000000000002600160501b600160f01b0319909216919091179055565b606480821115620003e95760405163243e544560e01b8152600481018390526024810182905260440162000271565b5f620003f46200049b565b90506200041962000404620004b6565b6200040f8562000537565b600a919062000570565b505060408051828152602081018590527f0553476bf02ef2726e8ce5ced78d63e26e602e4a2257b1f559418e24b4633997910160405180910390a1505050565b5f80829050601f8151111562000486578260405163305a27a960e01b81526004016200027191906200093d565b805162000493826200098b565b179392505050565b5f620004a8600a6200058c565b6001600160d01b0316905090565b5f620004c26101605190565b6001600160a01b03166391ddadf46040518163ffffffff1660e01b8152600401602060405180830381865afa9250505080156200051e575060408051601f3d908101601f191682019092526200051b91810190620009af565b60015b62000532576200052d620005d9565b905090565b919050565b5f6001600160d01b038211156200056c576040516306dfcc6560e41b815260d060048201526024810183905260440162000271565b5090565b5f806200057f858585620005e5565b915091505b935093915050565b80545f908015620005d057620005b683620005a9600184620009d6565b5f91825260209091200190565b54660100000000000090046001600160d01b0316620005d2565b5f5b9392505050565b5f6200052d436200074a565b82545f9081908015620006ec575f6200060587620005a9600185620009d6565b805490915065ffffffffffff80821691660100000000000090046001600160d01b03169088168211156200064c57604051632520601d60e01b815260040160405180910390fd5b8765ffffffffffff168265ffffffffffff16036200068a57825465ffffffffffff1666010000000000006001600160d01b03891602178355620006dd565b6040805180820190915265ffffffffffff808a1682526001600160d01b03808a1660208085019182528d54600181018f555f8f815291909120945191519092166601000000000000029216919091179101555b94508593506200058492505050565b50506040805180820190915265ffffffffffff80851682526001600160d01b0380851660208085019182528854600181018a555f8a815291822095519251909316660100000000000002919093161792019190915590508162000584565b5f65ffffffffffff8211156200056c576040516306dfcc6560e41b8152603060048201526024810183905260440162000271565b6001600160a01b038116811462000793575f80fd5b50565b5f8060408385031215620007a8575f80fd5b8251620007b5816200077e565b6020840151909250620007c8816200077e565b809150509250929050565b634e487b7160e01b5f52604160045260245ffd5b600181811c90821680620007fc57607f821691505b6020821081036200081b57634e487b7160e01b5f52602260045260245ffd5b50919050565b601f8211156200086c57805f5260205f20601f840160051c81016020851015620008485750805b601f840160051c820191505b8181101562000869575f815560010162000854565b50505b505050565b81516001600160401b038111156200088d576200088d620007d3565b620008a5816200089e8454620007e7565b8462000821565b602080601f831160018114620008db575f8415620008c35750858301515b5f19600386901b1c1916600185901b17855562000935565b5f85815260208120601f198616915b828110156200090b57888601518255948401946001909101908401620008ea565b50858210156200092957878501515f19600388901b60f8161c191681555b505060018460011b0185555b505050505050565b5f602080835283518060208501525f5b818110156200096b578581018301518582016040015282016200094d565b505f604082860101526040601f19601f8301168501019250505092915050565b805160208083015191908110156200081b575f1960209190910360031b1b16919050565b5f60208284031215620009c0575f80fd5b815165ffffffffffff81168114620005d2575f80fd5b81810381811115620001e057634e487b7160e01b5f52601160045260245ffd5b60805160a05160c05160e0516101005161012051610140516101605161442e62000a6e5f395f81816109c801528181610e330152818161115701528181611bae0152611e2e01525f611af201525f611ac601525f612d7a01525f612d5201525f612cad01525f612cd701525f612d01015261442e5ff3fe6080604052600436106102a8575f3560e01c80637ecebe001161016f578063bc197c81116100d8578063deaaa7cc11610092578063ece40cc11161006d578063ece40cc11461095d578063f23a6e611461097c578063f8ce560a1461099b578063fc0c546a146109ba575f80fd5b8063deaaa7cc146108ec578063e540d01d1461091f578063eb9019d41461093e575f80fd5b8063bc197c8114610813578063c01f9e3714610832578063c28bc2fa14610851578063c59057e414610864578063d33219b414610883578063dd4e2ba5146108a7575f80fd5b8063a7713a7011610129578063a7713a7014610758578063a890c9101461076c578063a8f8a6681461078b578063a9a95294146107aa578063ab58fb8e146107c9578063b58131b0146107ff575f80fd5b80637ecebe001461068157806384b0196e146106b55780638ff262e3146106dc57806391ddadf4146106fb57806397c3d334146107265780639a802a6d14610739575f80fd5b806343859632116102115780635b8d0e0d116101cb5780635b8d0e0d146105c75780635f398a14146105e657806360c4247f1461060557806379051887146106245780637b3c71d3146106435780637d5e81e214610662575f80fd5b806343859632146104ca578063452115d6146105125780634bf5d7e914610531578063544ffc9c1461054557806354fd4d501461057f57806356781388146105a8575f80fd5b8063160cbed711610262578063160cbed7146104065780632656227d146104255780632d63f693146104385780632fe3e261146104575780633932abb11461048a5780633e4f49e61461049e575f80fd5b806301ffc9a7146102e357806302a251a31461031757806306f3f9e61461034257806306fdde0314610361578063143489d014610382578063150b7a02146103ce575f80fd5b366102df57306102b66109ec565b6001600160a01b0316146102dd57604051637485328f60e11b815260040160405180910390fd5b005b5f80fd5b3480156102ee575f80fd5b506103026102fd366004613414565b610a07565b60405190151581526020015b60405180910390f35b348015610322575f80fd5b50600854600160301b900463ffffffff165b60405190815260200161030e565b34801561034d575f80fd5b506102dd61035c36600461343b565b610a73565b34801561036c575f80fd5b50610375610a87565b60405161030e919061349f565b34801561038d575f80fd5b506103b661039c36600461343b565b5f908152600460205260409020546001600160a01b031690565b6040516001600160a01b03909116815260200161030e565b3480156103d9575f80fd5b506103ed6103e8366004613588565b610b17565b6040516001600160e01b0319909116815260200161030e565b348015610411575f80fd5b50610334610420366004613757565b610b59565b610334610433366004613757565b610c25565b348015610443575f80fd5b5061033461045236600461343b565b610d8d565b348015610462575f80fd5b506103347f3e83946653575f9a39005e1545185629e92736b7528ab20ca3816f315424a81181565b348015610495575f80fd5b50610334610dad565b3480156104a9575f80fd5b506104bd6104b836600461343b565b610dbf565b60405161030e9190613814565b3480156104d5575f80fd5b506103026104e4366004613822565b5f828152600b602090815260408083206001600160a01b038516845260030190915290205460ff1692915050565b34801561051d575f80fd5b5061033461052c366004613757565b610dc9565b34801561053c575f80fd5b50610375610e2f565b348015610550575f80fd5b5061056461055f36600461343b565b610eef565b6040805193845260208401929092529082015260600161030e565b34801561058a575f80fd5b506040805180820190915260018152603160f81b6020820152610375565b3480156105b3575f80fd5b506103346105c2366004613860565b610f14565b3480156105d2575f80fd5b506103346105e13660046138ce565b610f3b565b3480156105f1575f80fd5b50610334610600366004613980565b610ff8565b348015610610575f80fd5b5061033461061f36600461343b565b611040565b34801561062f575f80fd5b506102dd61063e366004613a10565b61104c565b34801561064e575f80fd5b5061033461065d366004613a2b565b61105d565b34801561066d575f80fd5b5061033461067c366004613a80565b6110ad565b34801561068c575f80fd5b5061033461069b366004613b2c565b6001600160a01b03165f9081526002602052604090205490565b3480156106c0575f80fd5b506106c96110c3565b60405161030e9796959493929190613b81565b3480156106e7575f80fd5b506103346106f6366004613bf0565b611105565b348015610706575f80fd5b5061070f611154565b60405165ffffffffffff909116815260200161030e565b348015610731575f80fd5b506064610334565b348015610744575f80fd5b50610334610753366004613c3d565b6111db565b348015610763575f80fd5b506103346111f1565b348015610777575f80fd5b506102dd610786366004613b2c565b61120a565b348015610796575f80fd5b506103346107a5366004613757565b61121b565b3480156107b5575f80fd5b506103026107c436600461343b565b611228565b3480156107d4575f80fd5b506103346107e336600461343b565b5f9081526004602052604090206001015465ffffffffffff1690565b34801561080a575f80fd5b50610334611230565b34801561081e575f80fd5b506103ed61082d366004613c91565b61123a565b34801561083d575f80fd5b5061033461084c36600461343b565b61127d565b6102dd61085f366004613d1d565b6112bf565b34801561086f575f80fd5b5061033461087e366004613757565b61133b565b34801561088e575f80fd5b50600854600160501b90046001600160a01b03166103b6565b3480156108b2575f80fd5b506040805180820190915260208082527f737570706f72743d627261766f2671756f72756d3d666f722c6162737461696e90820152610375565b3480156108f7575f80fd5b506103347ff2aad550cf55f045cb27e9c559f9889fdfb6e6cdaa032301d6ea397784ae51d781565b34801561092a575f80fd5b506102dd610939366004613d5c565b611374565b348015610949575f80fd5b50610334610958366004613d7f565b611385565b348015610968575f80fd5b506102dd61097736600461343b565b6113a4565b348015610987575f80fd5b506103ed610996366004613da9565b6113b5565b3480156109a6575f80fd5b506103346109b536600461343b565b6113f8565b3480156109c5575f80fd5b507f00000000000000000000000000000000000000000000000000000000000000006103b6565b600854600160501b90046001600160a01b031690565b905090565b5f6001600160e01b031982166366defe7760e11b1480610a3757506001600160e01b031982166332a2ad4360e11b145b80610a5257506001600160e01b03198216630271189760e51b145b80610a6d57506301ffc9a760e01b6001600160e01b03198316145b92915050565b610a7b611402565b610a848161147b565b50565b606060038054610a9690613e0c565b80601f0160208091040260200160405190810160405280929190818152602001828054610ac290613e0c565b8015610b0d5780601f10610ae457610100808354040283529160200191610b0d565b820191905f5260205f20905b815481529060010190602001808311610af057829003601f168201915b5050505050905090565b5f30610b216109ec565b6001600160a01b031614610b4857604051637485328f60e11b815260040160405180910390fd5b50630a85bd0160e11b949350505050565b5f80610b678686868661121b565b9050610b7c81610b776004611510565b611532565b505f610b8b828888888861156f565b905065ffffffffffff811615610c02575f82815260046020908152604091829020600101805465ffffffffffff191665ffffffffffff85169081179091558251858152918201527f9a2e42fd6722813d69113e7d0079d3d940171428df7373df9c7f7617cfda2892910160405180910390a1610c1b565b604051634844252360e11b815260040160405180910390fd5b5095945050505050565b5f80610c338686868661121b565b9050610c5381610c436005611510565b610c4d6004611510565b17611532565b505f818152600460205260409020805460ff60f01b1916600160f01b17905530610c7b6109ec565b6001600160a01b031614610d04575f5b8651811015610d0257306001600160a01b0316878281518110610cb057610cb0613e44565b60200260200101516001600160a01b031603610cfa57610cfa858281518110610cdb57610cdb613e44565b602002602001015180519060200120600561157d90919063ffffffff16565b600101610c8b565b505b610d1181878787876115de565b30610d1a6109ec565b6001600160a01b031614158015610d4657506005546001600160801b03808216600160801b9092041614155b15610d50575f6005555b6040518181527f712ae1383f79ac853f8d882153778e0260ef8f03b504e2866e0593e04d2b291f906020015b60405180910390a195945050505050565b5f90815260046020526040902054600160a01b900465ffffffffffff1690565b5f610a0260085465ffffffffffff1690565b5f610a6d826115f2565b5f80610dd78686868661121b565b905033610de48282611738565b610e1857604051638fe5d8a960e01b8152600481018390526001600160a01b03821660248201526044015b60405180910390fd5b610e248787878761177d565b979650505050505050565b60607f00000000000000000000000000000000000000000000000000000000000000006001600160a01b0316634bf5d7e96040518163ffffffff1660e01b81526004015f60405180830381865afa925050508015610eae57506040513d5f823e601f3d908101601f19168201604052610eab9190810190613e58565b60015b610eea575060408051808201909152601d81527f6d6f64653d626c6f636b6e756d6265722666726f6d3d64656661756c74000000602082015290565b919050565b5f818152600b60205260409020805460018201546002909201549091905b9193909250565b5f80339050610f3384828560405180602001604052805f81525061178a565b949350505050565b5f610f8188888888888080601f0160208091040260200160405190810160405280939291908181526020018383808284375f920191909152508a92508991506117ab9050565b610fa9576040516394ab6c0760e01b81526001600160a01b0387166004820152602401610e0f565b610fec88878988888080601f0160208091040260200160405190810160405280939291908181526020018383808284375f920191909152508a9250611878915050565b98975050505050505050565b5f80339050610e2487828888888080601f0160208091040260200160405190810160405280939291908181526020018383808284375f920191909152508a9250611878915050565b5f610a6d600a83611956565b611054611402565b610a84816119a3565b5f803390506110a386828787878080601f0160208091040260200160405190810160405280939291908181526020018383808284375f9201919091525061178a92505050565b9695505050505050565b5f6110ba85858585611a09565b95945050505050565b5f6060805f805f60606110d4611abf565b6110dc611aeb565b604080515f80825260208201909252600f60f81b9b939a50919850469750309650945092509050565b5f61111285858585611b18565b61113a576040516394ab6c0760e01b81526001600160a01b0384166004820152602401610e0f565b6110ba85848660405180602001604052805f81525061178a565b5f7f00000000000000000000000000000000000000000000000000000000000000006001600160a01b03166391ddadf46040518163ffffffff1660e01b8152600401602060405180830381865afa9250505080156111cf575060408051601f3d908101601f191682019092526111cc91810190613ec0565b60015b610eea57610a02611ba1565b5f6111e7848484611bab565b90505b9392505050565b5f6111fc600a611c3e565b6001600160d01b0316905090565b611212611402565b610a8481611c82565b5f6110ba8585858561133b565b5f6001610a6d565b5f610a0260075490565b5f306112446109ec565b6001600160a01b03161461126b57604051637485328f60e11b815260040160405180910390fd5b5063bc197c8160e01b95945050505050565b5f818152600460205260408120546112b190600160d01b810463ffffffff1690600160a01b900465ffffffffffff16613eef565b65ffffffffffff1692915050565b6112c7611402565b5f80856001600160a01b03168585856040516112e4929190613f15565b5f6040518083038185875af1925050503d805f811461131e576040519150601f19603f3d011682016040523d82523d5f602084013e611323565b606091505b50915091506113328282611d11565b50505050505050565b5f848484846040516020016113539493929190613fb4565b60408051601f19818403018152919052805160209091012095945050505050565b61137c611402565b610a8481611d2d565b5f6111ea838361139f60408051602081019091525f815290565b611bab565b6113ac611402565b610a8481611dc9565b5f306113bf6109ec565b6001600160a01b0316146113e657604051637485328f60e11b815260040160405180910390fd5b5063f23a6e6160e01b95945050505050565b5f610a6d82611e0a565b3361140b6109ec565b6001600160a01b031614611434576040516347096e4760e01b8152336004820152602401610e0f565b3061143d6109ec565b6001600160a01b031614611479575f803660405161145c929190613f15565b604051809103902090505b806114726005611ea7565b0361146757505b565b6064808211156114a85760405163243e544560e01b81526004810183905260248101829052604401610e0f565b5f6114b16111f1565b90506114d06114be611154565b6114c785611f14565b600a9190611f4b565b505060408051828152602081018590527f0553476bf02ef2726e8ce5ced78d63e26e602e4a2257b1f559418e24b4633997910160405180910390a1505050565b5f816007811115611523576115236137e0565b600160ff919091161b92915050565b5f8061153d84610dbf565b90505f8361154a83611510565b16036111ea578381846040516331b75e4d60e01b8152600401610e0f93929190613ffe565b5f6110a38686868686611f65565b81546001600160801b03600160801b8204811691811660018301909116036115a9576115a96041612104565b6001600160801b038082165f90815260018086016020526040909120939093558354919092018216600160801b029116179055565b6115eb8585858585612115565b5050505050565b5f806115fd836121ac565b90506005816007811115611613576116136137e0565b1461161e5792915050565b5f8381526009602052604090819020546008549151632c258a9f60e11b8152600481018290529091600160501b90046001600160a01b03169063584b153e90602401602060405180830381865afa15801561167b573d5f803e3d5ffd5b505050506040513d601f19601f8201168201806040525081019061169f9190614020565b156116ae575060059392505050565b600854604051632ab0f52960e01b815260048101839052600160501b9091046001600160a01b031690632ab0f52990602401602060405180830381865afa1580156116fb573d5f803e3d5ffd5b505050506040513d601f19601f8201168201806040525081019061171f9190614020565b1561172e575060079392505050565b5060029392505050565b5f8061174384610dbf565b6007811115611754576117546137e0565b1480156111ea5750505f91825260046020526040909120546001600160a01b0391821691161490565b5f6110ba858585856122d0565b5f6110ba858585856117a660408051602081019091525f815290565b611878565b5f610e24856118727f3e83946653575f9a39005e1545185629e92736b7528ab20ca3816f315424a8118a8a8a6117fd8c6001600160a01b03165f90815260026020526040902080546001810190915590565b8b516020808e01919091208c518d83012060405161185798979695949301968752602087019590955260ff9390931660408601526001600160a01b03919091166060850152608084015260a083015260c082015260e00190565b6040516020818303038152906040528051906020012061236d565b84612399565b5f61188786610b776001611510565b505f61189c8661189689610d8d565b85611bab565b90505f6118ac8888888588612409565b905083515f0361190257866001600160a01b03167fb8e138887d0aa13bab447e82de9d5c1777041ecd21ca36ba824ff1e6c07ddda4898884896040516118f5949392919061403f565b60405180910390a2610e24565b866001600160a01b03167fe2babfbac5889a709b63bb7f598b324e08bc5a4fb9ec647fb3cbc9ec07eb87128988848989604051611943959493929190614066565b60405180910390a2979650505050505050565b5f805f61196285612505565b9250925050838265ffffffffffff16111561198f5761198a6119838561255d565b869061258f565b611991565b805b6001600160d01b031695945050505050565b6008546040805165ffffffffffff928316815291831660208301527fc565b045403dc03c2eea82b81a0465edad9e2e7fc4d97e11421c209da93d7a93910160405180910390a16008805465ffffffffffff191665ffffffffffff92909216919091179055565b5f33611a158184612631565b611a3d5760405163d9b3955760e01b81526001600160a01b0382166004820152602401610e0f565b5f611a46611230565b90508015611ab2575f611a74836001611a5d611154565b611a67919061409f565b65ffffffffffff16611385565b905081811015611ab057604051636121770b60e11b81526001600160a01b03841660048201526024810182905260448101839052606401610e0f565b505b610e2487878787866126b6565b6060610a027f00000000000000000000000000000000000000000000000000000000000000005f6128d0565b6060610a027f000000000000000000000000000000000000000000000000000000000000000060016128d0565b5f6110ba836118727ff2aad550cf55f045cb27e9c559f9889fdfb6e6cdaa032301d6ea397784ae51d7888888611b6a8a6001600160a01b03165f90815260026020526040902080546001810190915590565b60408051602081019690965285019390935260ff90911660608401526001600160a01b0316608083015260a082015260c001611857565b5f610a024361255d565b5f7f0000000000000000000000000000000000000000000000000000000000000000604051630748d63560e31b81526001600160a01b038681166004830152602482018690529190911690633a46b1a890604401602060405180830381865afa158015611c1a573d5f803e3d5ffd5b505050506040513d601f19601f820116820180604052508101906111e791906140be565b80545f908015611c7a57611c6483611c576001846140d5565b5f91825260209091200190565b54600160301b90046001600160d01b03166111ea565b5f9392505050565b600854604080516001600160a01b03600160501b9093048316815291831660208301527f08f74ea46ef7894f65eabfb5e6e695de773a000b47c529ab559178069b226401910160405180910390a1600880546001600160a01b03909216600160501b027fffff0000000000000000000000000000000000000000ffffffffffffffffffff909216919091179055565b606082611d2657611d2182612979565b610a6d565b5080610a6d565b8063ffffffff165f03611d555760405163f1cfbf0560e01b81525f6004820152602401610e0f565b6008546040805163ffffffff600160301b9093048316815291831660208301527f7e3f7f0708a84de9203036abaa450dccc85ad5ff52f78c170f3edb55cf5e8828910160405180910390a16008805463ffffffff909216600160301b0269ffffffff00000000000019909216919091179055565b60075460408051918252602082018390527fccb45da8d5717e6c4544694297c4ba5cf151d455c9bb0ed4fc7a38411bc05461910160405180910390a1600755565b604051632394e7a360e21b8152600481018290525f90610a6d906001600160a01b037f00000000000000000000000000000000000000000000000000000000000000001690638e539e8c90602401602060405180830381865afa158015611e73573d5f803e3d5ffd5b505050506040513d601f19601f82011682018060405250810190611e9791906140be565b611ea084611040565b60646129a1565b80545f906001600160801b0380821691600160801b9004168103611ecf57611ecf6031612104565b6001600160801b038181165f908152600185810160205260408220805492905585546fffffffffffffffffffffffffffffffff19169301909116919091179092555090565b5f6001600160d01b03821115611f47576040516306dfcc6560e41b815260d0600482015260248101839052604401610e0f565b5090565b5f80611f58858585612a51565b915091505b935093915050565b5f806008600a9054906101000a90046001600160a01b03166001600160a01b031663f27a0c926040518163ffffffff1660e01b8152600401602060405180830381865afa158015611fb8573d5f803e3d5ffd5b505050506040513d601f19601f82011682018060405250810190611fdc91906140be565b90505f3060601b6bffffffffffffffffffffffff1916841860085460405163b1c5f42760e01b8152919250600160501b90046001600160a01b03169063b1c5f42790612034908a908a908a905f9088906004016140e8565b602060405180830381865afa15801561204f573d5f803e3d5ffd5b505050506040513d601f19601f8201168201806040525081019061207391906140be565b5f898152600960205260408082209290925560085491516308f2a0bb60e41b8152600160501b9092046001600160a01b031691638f2a0bb0916120c3918b918b918b919088908a90600401614135565b5f604051808303815f87803b1580156120da575f80fd5b505af11580156120ec573d5f803e3d5ffd5b50505050610fec82426120ff919061418c565b61255d565b634e487b715f52806020526024601cfd5b600854600160501b90046001600160a01b031663e38335e5348686865f3060601b6bffffffffffffffffffffffff191688186040518763ffffffff1660e01b81526004016121679594939291906140e8565b5f604051808303818588803b15801561217e575f80fd5b505af1158015612190573d5f803e3d5ffd5b5050505f96875250506009602052505060408320929092555050565b5f818152600460205260408120805460ff600160f01b8204811691600160f81b90041681156121e057506007949350505050565b80156121f157506002949350505050565b5f6121fb86610d8d565b9050805f0361222057604051636ad0607560e01b815260048101879052602401610e0f565b5f612229611154565b65ffffffffffff16905080821061224657505f9695505050505050565b5f6122508861127d565b905081811061226757506001979650505050505050565b61227088612ba1565b1580612282575061228088612bd7565b155b1561229557506003979650505050505050565b5f8881526004602052604090206001015465ffffffffffff165f036122c257506004979650505050505050565b506005979650505050505050565b5f806122de86868686612bf2565b5f818152600960205260409020549091508015610c1b5760085460405163c4d252f560e01b815260048101839052600160501b9091046001600160a01b03169063c4d252f5906024015f604051808303815f87803b15801561233e575f80fd5b505af1158015612350573d5f803e3d5ffd5b5050505f8381526009602052604081205550509050949350505050565b5f610a6d612379612ca1565b8360405161190160f01b8152600281019290925260228201526042902090565b5f836001600160a01b03163b5f036123f7575f806123b78585612dca565b5090925090505f8160038111156123d0576123d06137e0565b1480156123ee5750856001600160a01b0316826001600160a01b0316145b925050506111ea565b612402848484612e13565b90506111ea565b5f858152600b602090815260408083206001600160a01b03881684526003810190925282205460ff161561245b576040516371c6af4960e01b81526001600160a01b0387166004820152602401610e0f565b6001600160a01b0386165f9081526003820160205260409020805460ff1916600117905560ff85166124a45783815f015f828254612499919061418c565b909155506124fa9050565b5f1960ff8616016124c25783816001015f828254612499919061418c565b60011960ff8616016124e15783816002015f828254612499919061418c565b6040516303599be160e11b815260040160405180910390fd5b509195945050505050565b80545f9081908190808203612523575f805f93509350935050610f0d565b5f61253386611c576001856140d5565b546001955065ffffffffffff81169450600160301b90046001600160d01b03169250610f0d915050565b5f65ffffffffffff821115611f47576040516306dfcc6560e41b81526030600482015260248101839052604401610e0f565b81545f90818160058111156125eb575f6125a884612ee9565b6125b290856140d5565b5f8881526020902090915081015465ffffffffffff90811690871610156125db578091506125e9565b6125e681600161418c565b92505b505b5f6125f887878585613041565b905080156126255761260f87611c576001846140d5565b54600160301b90046001600160d01b0316610e24565b5f979650505050505050565b80515f906034811015612648576001915050610a6d565b60131981840101516001600160b01b03198116692370726f706f7365723d60b01b1461267957600192505050610a6d565b5f8061268986602a8603866130a0565b91509150811580610e245750866001600160a01b0316816001600160a01b03161494505050505092915050565b5f6126ca868686868051906020012061121b565b9050845186511415806126df57508351865114155b806126e957508551155b1561271e57855184518651604051630447b05d60e41b8152600481019390935260248301919091526044820152606401610e0f565b5f81815260046020526040902054600160a01b900465ffffffffffff1615612767578061274a82610dbf565b6040516331b75e4d60e01b8152610e0f9291905f90600401613ffe565b5f612770610dad565b612778611154565b65ffffffffffff1661278a919061418c565b90505f6127a460085463ffffffff600160301b9091041690565b5f84815260046020526040902080546001600160a01b0319166001600160a01b0387161781559091506127d68361255d565b815465ffffffffffff91909116600160a01b0265ffffffffffff60a01b1990911617815561280382613149565b815463ffffffff91909116600160d01b0263ffffffff60d01b1990911617815588517f7d84a6263ae0d98d3329bd7b46bb4e8d6f98cd35a7adb45c274c8b7fd5ebd5e090859087908c908c906001600160401b03811115612866576128666134c5565b60405190808252806020026020018201604052801561289957816020015b60608152602001906001900390816128845790505b508c896128a68a8261418c565b8e6040516128bc9998979695949392919061419f565b60405180910390a150505095945050505050565b606060ff83146128ea576128e383613179565b9050610a6d565b8180546128f690613e0c565b80601f016020809104026020016040519081016040528092919081815260200182805461292290613e0c565b801561296d5780601f106129445761010080835404028352916020019161296d565b820191905f5260205f20905b81548152906001019060200180831161295057829003601f168201915b50505050509050610a6d565b80511561298857805160208201fd5b60405163d6bda27560e01b815260040160405180910390fd5b5f805f6129ae86866131b6565b91509150815f036129d2578381816129c8576129c8614274565b04925050506111ea565b8184116129e9576129e96003851502601118612104565b5f848688095f868103871696879004966002600389028118808a02820302808a02820302808a02820302808a02820302808a02820302808a02909103029181900381900460010185841190960395909502919093039390930492909217029150509392505050565b82545f9081908015612b47575f612a6d87611c576001856140d5565b805490915065ffffffffffff80821691600160301b90046001600160d01b0316908816821115612ab057604051632520601d60e01b815260040160405180910390fd5b8765ffffffffffff168265ffffffffffff1603612ae957825465ffffffffffff16600160301b6001600160d01b03891602178355612b39565b6040805180820190915265ffffffffffff808a1682526001600160d01b03808a1660208085019182528d54600181018f555f8f81529190912094519151909216600160301b029216919091179101555b9450859350611f5d92505050565b50506040805180820190915265ffffffffffff80851682526001600160d01b0380851660208085019182528854600181018a555f8a815291822095519251909316600160301b029190931617920191909155905081611f5d565b5f818152600b6020526040812060028101546001820154612bc2919061418c565b612bce6109b585610d8d565b11159392505050565b5f818152600b60205260408120805460019091015411610a6d565b5f80612c008686868661121b565b9050612c4e81612c106007611510565b612c1a6006611510565b612c246002611510565b6001612c31600782614288565b612c3c906002614381565b612c4691906140d5565b181818611532565b505f818152600460205260409081902080546001600160f81b0316600160f81b179055517f789cf55be980739dad1d0699b93b58e806b51c9d96619bfa8fe0a28abaa7b30c90610d7c9083815260200190565b5f306001600160a01b037f000000000000000000000000000000000000000000000000000000000000000016148015612cf957507f000000000000000000000000000000000000000000000000000000000000000046145b15612d2357507f000000000000000000000000000000000000000000000000000000000000000090565b610a02604080517f8b73c3c69bb8fe3d512ecc4cf759cc79239f7b179b0ffacaa9a75d522b39400f60208201527f0000000000000000000000000000000000000000000000000000000000000000918101919091527f000000000000000000000000000000000000000000000000000000000000000060608201524660808201523060a08201525f9060c00160405160208183030381529060405280519060200120905090565b5f805f8351604103612e01576020840151604085015160608601515f1a612df3888285856131d2565b955095509550505050612e0c565b505081515f91506002905b9250925092565b5f805f856001600160a01b03168585604051602401612e3392919061438f565b60408051601f198184030181529181526020820180516001600160e01b0316630b135d3f60e11b17905251612e6891906143a7565b5f60405180830381855afa9150503d805f8114612ea0576040519150601f19603f3d011682016040523d82523d5f602084013e612ea5565b606091505b5091509150818015612eb957506020815110155b80156110a357508051630b135d3f60e11b90612ede90830160209081019084016140be565b149695505050505050565b5f60018211612ef6575090565b816001600160801b8210612f0f5760809190911c9060401b5b680100000000000000008210612f2a5760409190911c9060201b5b6401000000008210612f415760209190911c9060101b5b620100008210612f565760109190911c9060081b5b6101008210612f6a5760089190911c9060041b5b60108210612f7d5760049190911c9060021b5b60048210612f895760011b5b600302600190811c90818581612fa157612fa1614274565b048201901c90506001818581612fb957612fb9614274565b048201901c90506001818581612fd157612fd1614274565b048201901c90506001818581612fe957612fe9614274565b048201901c9050600181858161300157613001614274565b048201901c9050600181858161301957613019614274565b048201901c905061303881858161303257613032614274565b04821190565b90039392505050565b5f5b81831015613098575f613056848461329a565b5f8781526020902090915065ffffffffffff86169082015465ffffffffffff16111561308457809250613092565b61308f81600161418c565b93505b50613043565b509392505050565b5f8084518311806130b057508284115b156130bf57505f905080611f5d565b5f6130cb85600161418c565b841180156130f3575061060f60f31b6130e78787016020015190565b6001600160f01b031916145b90505f61310382151560026143c2565b61310e90602861418c565b90508061311b87876140d5565b0361313c575f8061312d8989896132b4565b9096509450611f5d9350505050565b5f80935093505050611f5d565b5f63ffffffff821115611f47576040516306dfcc6560e41b81526020600482015260248101839052604401610e0f565b60605f61318583613375565b6040805160208082528183019092529192505f91906020820181803683375050509182525060208101929092525090565b5f805f1983850993909202808410938190039390930393915050565b5f80807f7fffffffffffffffffffffffffffffff5d576e7357a4501ddfe92f46681b20a084111561320b57505f91506003905082613290565b604080515f808252602082018084528a905260ff891692820192909252606081018790526080810186905260019060a0016020604051602081039080840390855afa15801561325c573d5f803e3d5ffd5b5050604051601f1901519150506001600160a01b03811661328757505f925060019150829050613290565b92505f91508190505b9450945094915050565b5f6132a860028484186143d9565b6111ea9084841661418c565b5f8084816132c386600161418c565b851180156132eb575061060f60f31b6132df8388016020015190565b6001600160f01b031916145b90505f6132fb82151560026143c2565b90505f80613309838a61418c565b90505b87811015613364575f61332a6133258784016020015190565b61339c565b9050600f8160ff161115613349575f8097509750505050505050611f5d565b6133546010846143c2565b60ff90911601915060010161330c565b506001999098509650505050505050565b5f60ff8216601f811115610a6d57604051632cd44ac360e21b815260040160405180910390fd5b5f60f882901c602f811180156133b55750603a8160ff16105b156133c357602f1901610a6d565b60608160ff161180156133d9575060678160ff16105b156133e75760561901610a6d565b60408160ff161180156133fd575060478160ff16105b1561340b5760361901610a6d565b5060ff92915050565b5f60208284031215613424575f80fd5b81356001600160e01b0319811681146111ea575f80fd5b5f6020828403121561344b575f80fd5b5035919050565b5f5b8381101561346c578181015183820152602001613454565b50505f910152565b5f815180845261348b816020860160208601613452565b601f01601f19169290920160200192915050565b602081525f6111ea6020830184613474565b6001600160a01b0381168114610a84575f80fd5b634e487b7160e01b5f52604160045260245ffd5b604051601f8201601f191681016001600160401b0381118282101715613501576135016134c5565b604052919050565b5f6001600160401b03821115613521576135216134c5565b50601f01601f191660200190565b5f61354161353c84613509565b6134d9565b9050828152838383011115613554575f80fd5b828260208301375f602084830101529392505050565b5f82601f830112613579575f80fd5b6111ea8383356020850161352f565b5f805f806080858703121561359b575f80fd5b84356135a6816134b1565b935060208501356135b6816134b1565b92506040850135915060608501356001600160401b038111156135d7575f80fd5b6135e38782880161356a565b91505092959194509250565b5f6001600160401b03821115613607576136076134c5565b5060051b60200190565b5f82601f830112613620575f80fd5b8135602061363061353c836135ef565b8083825260208201915060208460051b870101935086841115613651575f80fd5b602086015b84811015613676578035613669816134b1565b8352918301918301613656565b509695505050505050565b5f82601f830112613690575f80fd5b813560206136a061353c836135ef565b8083825260208201915060208460051b8701019350868411156136c1575f80fd5b602086015b8481101561367657803583529183019183016136c6565b5f82601f8301126136ec575f80fd5b813560206136fc61353c836135ef565b82815260059290921b8401810191818101908684111561371a575f80fd5b8286015b848110156136765780356001600160401b0381111561373b575f80fd5b6137498986838b010161356a565b84525091830191830161371e565b5f805f806080858703121561376a575f80fd5b84356001600160401b0380821115613780575f80fd5b61378c88838901613611565b955060208701359150808211156137a1575f80fd5b6137ad88838901613681565b945060408701359150808211156137c2575f80fd5b506137cf878288016136dd565b949793965093946060013593505050565b634e487b7160e01b5f52602160045260245ffd5b6008811061381057634e487b7160e01b5f52602160045260245ffd5b9052565b60208101610a6d82846137f4565b5f8060408385031215613833575f80fd5b823591506020830135613845816134b1565b809150509250929050565b803560ff81168114610eea575f80fd5b5f8060408385031215613871575f80fd5b8235915061388160208401613850565b90509250929050565b5f8083601f84011261389a575f80fd5b5081356001600160401b038111156138b0575f80fd5b6020830191508360208285010111156138c7575f80fd5b9250929050565b5f805f805f805f60c0888a0312156138e4575f80fd5b873596506138f460208901613850565b95506040880135613904816134b1565b945060608801356001600160401b038082111561391f575f80fd5b61392b8b838c0161388a565b909650945060808a0135915080821115613943575f80fd5b61394f8b838c0161356a565b935060a08a0135915080821115613964575f80fd5b506139718a828b0161356a565b91505092959891949750929550565b5f805f805f60808688031215613994575f80fd5b853594506139a460208701613850565b935060408601356001600160401b03808211156139bf575f80fd5b6139cb89838a0161388a565b909550935060608801359150808211156139e3575f80fd5b506139f08882890161356a565b9150509295509295909350565b65ffffffffffff81168114610a84575f80fd5b5f60208284031215613a20575f80fd5b81356111ea816139fd565b5f805f8060608587031215613a3e575f80fd5b84359350613a4e60208601613850565b925060408501356001600160401b03811115613a68575f80fd5b613a748782880161388a565b95989497509550505050565b5f805f8060808587031215613a93575f80fd5b84356001600160401b0380821115613aa9575f80fd5b613ab588838901613611565b95506020870135915080821115613aca575f80fd5b613ad688838901613681565b94506040870135915080821115613aeb575f80fd5b613af7888389016136dd565b93506060870135915080821115613b0c575f80fd5b508501601f81018713613b1d575f80fd5b6135e38782356020840161352f565b5f60208284031215613b3c575f80fd5b81356111ea816134b1565b5f815180845260208085019450602084015f5b83811015613b7657815187529582019590820190600101613b5a565b509495945050505050565b60ff60f81b8816815260e060208201525f613b9f60e0830189613474565b8281036040840152613bb18189613474565b606084018890526001600160a01b038716608085015260a0840186905283810360c08501529050613be28185613b47565b9a9950505050505050505050565b5f805f8060808587031215613c03575f80fd5b84359350613c1360208601613850565b92506040850135613c23816134b1565b915060608501356001600160401b038111156135d7575f80fd5b5f805f60608486031215613c4f575f80fd5b8335613c5a816134b1565b92506020840135915060408401356001600160401b03811115613c7b575f80fd5b613c878682870161356a565b9150509250925092565b5f805f805f60a08688031215613ca5575f80fd5b8535613cb0816134b1565b94506020860135613cc0816134b1565b935060408601356001600160401b0380821115613cdb575f80fd5b613ce789838a01613681565b94506060880135915080821115613cfc575f80fd5b613d0889838a01613681565b935060808801359150808211156139e3575f80fd5b5f805f8060608587031215613d30575f80fd5b8435613d3b816134b1565b93506020850135925060408501356001600160401b03811115613a68575f80fd5b5f60208284031215613d6c575f80fd5b813563ffffffff811681146111ea575f80fd5b5f8060408385031215613d90575f80fd5b8235613d9b816134b1565b946020939093013593505050565b5f805f805f60a08688031215613dbd575f80fd5b8535613dc8816134b1565b94506020860135613dd8816134b1565b9350604086013592506060860135915060808601356001600160401b03811115613e00575f80fd5b6139f08882890161356a565b600181811c90821680613e2057607f821691505b602082108103613e3e57634e487b7160e01b5f52602260045260245ffd5b50919050565b634e487b7160e01b5f52603260045260245ffd5b5f60208284031215613e68575f80fd5b81516001600160401b03811115613e7d575f80fd5b8201601f81018413613e8d575f80fd5b8051613e9b61353c82613509565b818152856020838501011115613eaf575f80fd5b6110ba826020830160208601613452565b5f60208284031215613ed0575f80fd5b81516111ea816139fd565b634e487b7160e01b5f52601160045260245ffd5b65ffffffffffff818116838216019080821115613f0e57613f0e613edb565b5092915050565b818382375f9101908152919050565b5f815180845260208085019450602084015f5b83811015613b765781516001600160a01b031687529582019590820190600101613f37565b5f8282518085526020808601955060208260051b840101602086015f5b84811015613fa757601f19868403018952613f95838351613474565b98840198925090830190600101613f79565b5090979650505050505050565b608081525f613fc66080830187613f24565b8281036020840152613fd88187613b47565b90508281036040840152613fec8186613f5c565b91505082606083015295945050505050565b8381526060810161401260208301856137f4565b826040830152949350505050565b5f60208284031215614030575f80fd5b815180151581146111ea575f80fd5b84815260ff84166020820152826040820152608060608201525f6110a36080830184613474565b85815260ff8516602082015283604082015260a060608201525f61408d60a0830185613474565b8281036080840152610fec8185613474565b65ffffffffffff828116828216039080821115613f0e57613f0e613edb565b5f602082840312156140ce575f80fd5b5051919050565b81810381811115610a6d57610a6d613edb565b60a081525f6140fa60a0830188613f24565b828103602084015261410c8188613b47565b905082810360408401526141208187613f5c565b60608401959095525050608001529392505050565b60c081525f61414760c0830189613f24565b82810360208401526141598189613b47565b9050828103604084015261416d8188613f5c565b60608401969096525050608081019290925260a0909101529392505050565b80820180821115610a6d57610a6d613edb565b5f6101208b8352602060018060a01b038c16818501528160408501526141c78285018c613f24565b915083820360608501526141db828b613b47565b915083820360808501528189518084528284019150828160051b850101838c015f5b8381101561422b57601f19878403018552614219838351613474565b948601949250908501906001016141fd565b505086810360a088015261423f818c613f5c565b9450505050508560c08401528460e08401528281036101008401526142648185613474565b9c9b505050505050505050505050565b634e487b7160e01b5f52601260045260245ffd5b60ff8181168382160190811115610a6d57610a6d613edb565b600181815b808511156142db57815f19048211156142c1576142c1613edb565b808516156142ce57918102915b93841c93908002906142a6565b509250929050565b5f826142f157506001610a6d565b816142fd57505f610a6d565b8160018114614313576002811461431d57614339565b6001915050610a6d565b60ff84111561432e5761432e613edb565b50506001821b610a6d565b5060208310610133831016604e8410600b841016171561435c575081810a610a6d565b61436683836142a1565b805f190482111561437957614379613edb565b029392505050565b5f6111ea60ff8416836142e3565b828152604060208201525f6111e76040830184613474565b5f82516143b8818460208701613452565b9190910192915050565b8082028115828204841417610a6d57610a6d613edb565b5f826143f357634e487b7160e01b5f52601260045260245ffd5b50049056fea264697066735822122067856450b15508ebfffc09d8f06da920a384ae97f6c90697330ea61a3c882b8264736f6c63430008180033",
  "linkReferences": {},
  "deployedLinkReferences": {}
}