{
  "_format": "hh-sol-artifact-1",
  "contractName": "KalaKrutGovernor",
  "sourceName": "contracts/KalaKrutGovernor.sol",
  "abi": [
    {
      "inputs": [
        {
          "internalType": "contract IVotes",
          "name": "_token",
          "type": "address"
        },
        {
          "internalType": "contract TimelockController",
          "name": "_timelock",
          "type": "address"
        }
      ],
      "stateMutability": "nonpayable",
      "type": "constructor"
    },
    {
      "inputs": [],
      "name": "CheckpointUnorderedInsertion",
      "type": "error"
    },
    {
      "inputs": [],
      "name": "FailedInnerCall",
      "type": "error"
    },
    {
      "inputs": [
        {
          "internalType": "address",
          "name": "voter",
          "type": "address"
        }
      ],
      "name": "GovernorAlreadyCastVote",
      "type": "error"
    },
    {
      "inputs": [
        {
          "internalType": "uint256",
          "name": "proposalId",
          "type": "uint256"
        }
      ],
      "name": "GovernorAlreadyQueuedProposal",
      "type": "error"
    },
    {
      "inputs": [],
      "name": "GovernorDisabledDeposit",
      "type": "error"
    },
    {
      "inputs": [
        {
          "internalType": "address",
          "name": "proposer",
          "type": "address"
        },
        {
          "internalType": "uint256",
          "name": "votes",
          "type": "uint256"
        },
        {
          "internalType": "uint256",
          "name": "threshold",
          "type": "uint256"
        }
      ],
      "name": "GovernorInsufficientProposerVotes",
      "type": "error"
    },
    {
      "inputs": [
        {
          "internalType": "uint256",
          "name": "targets",
          "type": "uint256"
        },
        {
          "internalType": "uint256",
          "name": "calldatas",
          "type": "uint256"
        },
        {
          "internalType": "uint256",
          "name": "values",
          "type": "uint256"
        }
      ],
      "name": "GovernorInvalidProposalLength",
      "type": "error"
    },
    {
      "inputs": [
        {
          "internalType": "uint256",
          "name": "quorumNumerator",
          "type": "uint256"
        },
        {
          "internalType": "uint256",
          "name": "quorumDenominator",
          "type": "uint256"
        }
      ],
      "name": "GovernorInvalidQuorumFraction",
      "type": "error"
    },
    {
      "inputs": [
        {
          "internalType": "address",
          "name": "voter",
          "type": "address"
        }
      ],
      "name": "GovernorInvalidSignature",
      "type": "error"
    },
    {
      "inputs": [],
      "name": "GovernorInvalidVoteType",
      "type": "error"
    },
    {
      "inputs": [
        {
          "internalType": "uint256",
          "name": "votingPeriod",
          "type": "uint256"
        }
      ],
      "name": "GovernorInvalidVotingPeriod",
      "type": "error"
    },
    {
      "inputs": [
        {
          "internalType": "uint256",
          "name": "proposalId",
          "type": "uint256"
        }
      ],
      "name": "GovernorNonexistentProposal",
      "type": "error"
    },
    {
      "inputs": [
        {
          "internalType": "uint256",
          "name": "proposalId",
          "type": "uint256"
        }
      ],
      "name": "GovernorNotQueuedProposal",
      "type": "error"
    },
    {
      "inputs": [
        {
          "internalType": "address",
          "name": "account",
          "type": "address"
        }
      ],
      "name": "GovernorOnlyExecutor",
      "type": "error"
    },
    {
      "inputs": [
        {
          "internalType": "address",
          "name": "account",
          "type": "address"
        }
      ],
      "name": "GovernorOnlyProposer",
      "type": "error"
    },
    {
      "inputs": [],
      "name": "GovernorQueueNotImplemented",
      "type": "error"
    },
    {
      "inputs": [
        {
          "internalType": "address",
          "name": "proposer",
          "type": "address"
        }
      ],
      "name": "GovernorRestrictedProposer",
      "type": "error"
    },
    {
      "inputs": [
        {
          "internalType": "uint256",
          "name": "proposalId",
          "type": "uint256"
        },
        {
          "internalType": "enum IGovernor.ProposalState",
          "name": "current",
          "type": "uint8"
        },
        {
          "internalType": "bytes32",
          "name": "expectedStates",
          "type": "bytes32"
        }
      ],
      "name": "GovernorUnexpectedProposalState",
      "type": "error"
    },
    {
      "inputs": [
        {
          "internalType": "address",
          "name": "account",
          "type": "address"
        },
        {
          "internalType": "uint256",
          "name": "currentNonce",
          "type": "uint256"
        }
      ],
      "name": "InvalidAccountNonce",
      "type": "error"
    },
    {
      "inputs": [],
      "name": "InvalidShortString",
      "type": "error"
    },
    {
      "inputs": [],
      "name": "QueueEmpty",
      "type": "error"
    },
    {
      "inputs": [],
      "name": "QueueFull",
      "type": "error"
    },
    {
      "inputs": [
        {
          "internalType": "uint8",
          "name": "bits",
          "type": "uint8"
        },
        {
          "internalType": "uint256",
          "name": "value",
          "type": "uint256"
        }
      ],
      "name": "SafeCastOverflowedUintDowncast",
      "type": "error"
    },
    {
      "inputs": [
        {
          "internalType": "string",
          "name": "str",
          "type": "string"
        }
      ],
      "name": "StringTooLong",
      "type": "error"
    },
    {
      "anonymous": false,
      "inputs": [],
      "name": "EIP712DomainChanged",
      "type": "event"
    },
    {
      "anonymous": false,
      "inputs": [
        {
          "indexed": false,
          "internalType": "uint256",
          "name": "proposalId",
          "type": "uint256"
        }
      ],
      "name": "ProposalCanceled",
      "type": "event"
    },
    {
      "anonymous": false,
      "inputs": [
        {
          "indexed": false,
          "internalType": "uint256",
          "name": "proposalId",
          "type": "uint256"
        },
        {
          "indexed": false,
          "internalType": "address",
          "name": "proposer",
          "type": "address"
        },
        {
          "indexed": false,
          "internalType": "address[]",
          "name": "targets",
          "type": "address[]"
        },
        {
          "indexed": false,
          "internalType": "uint256[]",
          "name": "values",
          "type": "uint256[]"
        },
        {
          "indexed": false,
          "internalType": "string[]",
          "name": "signatures",
          "type": "string[]"
        },
        {
          "indexed": false,
          "internalType": "bytes[]",
          "name": "calldatas",
          "type": "bytes[]"
        },
        {
          "indexed": false,
          "internalType": "uint256",
          "name": "voteStart",
          "type": "uint256"
        },
        {
          "indexed": false,
          "internalType": "uint256",
          "name": "voteEnd",
          "type": "uint256"
        },
        {
          "indexed": false,
          "internalType": "string",
          "name": "description",
          "type": "string"
        }
      ],
      "name": "ProposalCreated",
      "type": "event"
    },
    {
      "anonymous": false,
      "inputs": [
        {
          "indexed": false,
          "internalType": "uint256",
          "name": "proposalId",
          "type": "uint256"
        }
      ],
      "name": "ProposalExecuted",
      "type": "event"
    },
    {
      "anonymous": false,
      "inputs": [
        {
          "indexed": false,
          "internalType": "uint256",
          "name": "proposalId",
          "type": "uint256"
        },
        {
          "indexed": false,
          "internalType": "uint256",
          "name": "etaSeconds",
          "type": "uint256"
        }
      ],
      "name": "ProposalQueued",
      "type": "event"
    },
    {
      "anonymous": false,
      "inputs": [
        {
          "indexed": false,
          "internalType": "uint256",
          "name": "oldProposalThreshold",
          "type": "uint256"
        },
        {
          "indexed": false,
          "internalType": "uint256",
          "name": "newProposalThreshold",
          "type": "uint256"
        }
      ],
      "name": "ProposalThresholdSet",
      "type": "event"
    },
    {
      "anonymous": false,
      "inputs": [
        {
          "indexed": false,
          "internalType": "uint256",
          "name": "oldQuorumNumerator",
          "type": "uint256"
        },
        {
          "indexed": false,
          "internalType": "uint256",
          "name": "newQuorumNumerator",
          "type": "uint256"
        }
      ],
      "name": "QuorumNumeratorUpdated",
      "type": "event"
    },
    {
      "anonymous": false,
      "inputs": [
        {
          "indexed": false,
          "internalType": "address",
          "name": "oldTimelock",
          "type": "address"
        },
        {
          "indexed": false,
          "internalType": "address",
          "name": "newTimelock",
          "type": "address"
        }
      ],
      "name": "TimelockChange",
      "type": "event"
    },
    {
      "anonymous": false,
      "inputs": [
        {
          "indexed": true,
          "internalType": "address",
          "name": "voter",
          "type": "address"
        },
        {
          "indexed": false,
          "internalType": "uint256",
          "name": "proposalId",
          "type": "uint256"
        },
        {
          "indexed": false,
          "internalType": "uint8",
          "name": "support",
          "type": "uint8"
        },
        {
          "indexed": false,
          "internalType": "uint256",
          "name": "weight",
          "type": "uint256"
        },
        {
          "indexed": false,
          "internalType": "string",
          "name": "reason",
          "type": "string"
        }
      ],
      "name": "VoteCast",
      "type": "event"
    },
    {
      "anonymous": false,
      "inputs": [
        {
          "indexed": true,
          "internalType": "address",
          "name": "voter",
          "type": "address"
        },
        {
          "indexed": false,
          "internalType": "uint256",
          "name": "proposalId",
          "type": "uint256"
        },
        {
          "indexed": false,
          "internalType": "uint8",
          "name": "support",
          "type": "uint8"
        },
        {
          "indexed": false,
          "internalType": "uint256",
          "name": "weight",
          "type": "uint256"
        },
        {
          "indexed": false,
          "internalType": "string",
          "name": "reason",
          "type": "string"
        },
        {
          "indexed": false,
          "internalType": "bytes",
          "name": "params",
          "type": "bytes"
        }
      ],
      "name": "VoteCastWithParams",
      "type": "event"
    },
    {
      "anonymous": false,
      "inputs": [
        {
          "indexed": false,
          "internalType": "uint256",
          "name": "oldVotingDelay",
          "type": "uint256"
        },
        {
          "indexed": false,
          "internalType": "uint256",
          "name": "newVotingDelay",
          "type": "uint256"
        }
      ],
      "name": "VotingDelaySet",
      "type": "event"
    },
    {
      "anonymous": false,
      "inputs": [
        {
          "indexed": false,
          "internalType": "uint256",
          "name": "oldVotingPeriod",
          "type": "uint256"
        },
        {
          "indexed": false,
          "internalType": "uint256",
          "name": "newVotingPeriod",
          "type": "uint256"
        }
      ],
      "name": "VotingPeriodSet",
      "type": "event"
    },
    {
      "inputs": [],
      "name": "BALLOT_TYPEHASH",
      "outputs": [
        {
          "internalType": "bytes32",
          "name": "",
          "type": "bytes32"
        }
      ],
      "stateMutability": "view",
      "type": "function"
    },
    {
      "inputs": [],
      "name": "CLOCK_MODE",
      "outputs": [
        {
          "internalType": "string",
          "name": "",
          "type": "string"
        }
      ],
      "stateMutability": "view",
      "type": "function"
    },
    {
      "inputs": [],
      "name": "COUNTING_MODE",
      "outputs": [
        {
          "internalType": "string",
          "name": "",
          "type": "string"
        }
      ],
      "stateMutability": "pure",
      "type": "function"
    },
    {
      "inputs": [],
      "name": "EXTENDED_BALLOT_TYPEHASH",
      "outputs": [
        {
          "internalType": "bytes32",
          "name": "",
          "type": "bytes32"
        }
      ],
      "stateMutability": "view",
      "type": "function"
    },
    {
      "inputs": [
        {
          "internalType": "address[]",
          "name": "targets",
          "type": "address[]"
        },
        {
          "internalType": "uint256[]",
          "name": "values",
          "type": "uint256[]"
        },
        {
          "internalType": "bytes[]",
          "name": "calldatas",
          "type": "bytes[]"
        },
        {
          "internalType": "bytes32",
          "name": "descriptionHash",
          "type": "bytes32"
        }
      ],
      "name": "cancel",
      "outputs": [
        {
          "internalType": "uint256",
          "name": "",
          "type": "uint256"
        }
      ],
      "stateMutability": "nonpayable",
      "type": "function"
    },
    {
      "inputs": [
        {
          "internalType": "uint256",
          "name": "proposalId",
          "type": "uint256"
        },
        {
          "internalType": "uint8",
          "name": "support",
          "type": "uint8"
        }
      ],
      "name": "castVote",
      "outputs": [
        {
          "internalType": "uint256",
          "name": "",
          "type": "uint256"
        }
      ],
      "stateMutability": "nonpayable",
      "type": "function"
    },
    {
      "inputs": [
        {
          "internalType": "uint256",
          "name": "proposalId",
          "type": "uint256"
        },
        {
          "internalType": "uint8",
          "name": "support",
          "type": "uint8"
        },
        {
          "internalType": "address",
          "name": "voter",
          "type": "address"
        },
        {
          "internalType": "bytes",
          "name": "signature",
          "type": "bytes"
        }
      ],
      "name": "castVoteBySig",
      "outputs": [
        {
          "internalType": "uint256",
          "name": "",
          "type": "uint256"
        }
      ],
      "stateMutability": "nonpayable",
      "type": "function"
    },
    {
      "inputs": [
        {
          "internalType": "uint256",
          "name": "proposalId",
          "type": "uint256"
        },
        {
          "internalType": "uint8",
          "name": "support",
          "type": "uint8"
        },
        {
          "internalType": "string",
          "name": "reason",
          "type": "string"
        }
      ],
      "name": "castVoteWithReason",
      "outputs": [
        {
          "internalType": "uint256",
          "name": "",
          "type": "uint256"
        }
      ],
      "stateMutability": "nonpayable",
      "type": "function"
    },
    {
      "inputs": [
        {
          "internalType": "uint256",
          "name": "proposalId",
          "type": "uint256"
        },
        {
          "internalType": "uint8",
          "name": "support",
          "type": "uint8"
        },
        {
          "internalType": "string",
          "name": "reason",
          "type": "string"
        },
        {
          "internalType": "bytes",
          "name": "params",
          "type": "bytes"
        }
      ],
      "name": "castVoteWithReasonAndParams",
      "outputs": [
        {
          "internalType": "uint256",
          "name": "",
          "type": "uint256"
        }
      ],
      "stateMutability": "nonpayable",
      "type": "function"
    },
    {
      "inputs": [
        {
          "internalType": "uint256",
          "name": "proposalId",
          "type": "uint256"
        },
        {
          "internalType": "uint8",
          "name": "support",
          "type": "uint8"
        },
        {
          "internalType": "address",
          "name": "voter",
          "type": "address"
        },
        {
          "internalType": "string",
          "name": "reason",
          "type": "string"
        },
        {
          "internalType": "bytes",
          "name": "params",
          "type": "bytes"
        },
        {
          "internalType": "bytes",
          "name": "signature",
          "type": "bytes"
        }
      ],
      "name": "castVoteWithReasonAndParamsBySig",
      "outputs": [
        {
          "internalType": "uint256",
          "name": "",
          "type": "uint256"
        }
      ],
      "stateMutability": "nonpayable",
      "type": "function"
    },
    {
      "inputs": [],
      "name": "clock",
      "outputs": [
        {
          "internalType": "uint48",
          "name": "",
          "type": "uint48"
        }
      ],
      "stateMutability": "view",
      "type": "function"
    },
    {
      "inputs": [],
      "name": "eip712Domain",
      "outputs": [
        {
          "internalType": "bytes1",
          "name": "fields",
          "type": "bytes1"
        },
        {
          "internalType": "string",
          "name": "name",
          "type": "string"
        },
        {
          "internalType": "string",
          "name": "version",
          "type": "string"
        },
        {
          "internalType": "uint256",
          "name": "chainId",
          "type": "uint256"
        },
        {
          "internalType": "address",
          "name": "verifyingContract",
          "type": "address"
        },
        {
          "internalType": "bytes32",
          "name": "salt",
          "type": "bytes32"
        },
        {
          "internalType": "uint256[]",
          "name": "extensions",
          "type": "uint256[]"
        }
      ],
      "stateMutability": "view",
      "type": "function"
    },
    {
      "inputs": [
        {
          "internalType": "address[]",
          "name": "targets",
          "type": "address[]"
        },
        {
          "internalType": "uint256[]",
          "name": "values",
          "type": "uint256[]"
        },
        {
          "internalType": "bytes[]",
          "name": "calldatas",
          "type": "bytes[]"
        },
        {
          "internalType": "bytes32",
          "name": "descriptionHash",
          "type": "bytes32"
        }
      ],
      "name": "execute",
      "outputs": [
        {
          "internalType": "uint256",
          "name": "",
          "type": "uint256"
        }
      ],
      "stateMutability": "payable",
      "type": "function"
    },
    {
      "inputs": [
        {
          "internalType": "address",
          "name": "account",
          "type": "address"
        },
        {
          "internalType": "uint256",
          "name": "timepoint",
          "type": "uint256"
        }
      ],
      "name": "getVotes",
      "outputs": [
        {
          "internalType": "uint256",
          "name": "",
          "type": "uint256"
        }
      ],
      "stateMutability": "view",
      "type": "function"
    },
    {
      "inputs": [
        {
          "internalType": "address",
          "name": "account",
          "type": "address"
        },
        {
          "internalType": "uint256",
          "name": "timepoint",
          "type": "uint256"
        },
        {
          "internalType": "bytes",
          "name": "params",
          "type": "bytes"
        }
      ],
      "name": "getVotesWithParams",
      "outputs": [
        {
          "internalType": "uint256",
          "name": "",
          "type": "uint256"
        }
      ],
      "stateMutability": "view",
      "type": "function"
    },
    {
      "inputs": [
        {
          "internalType": "uint256",
          "name": "proposalId",
          "type": "uint256"
        },
        {
          "internalType": "address",
          "name": "account",
          "type": "address"
        }
      ],
      "name": "hasVoted",
      "outputs": [
        {
          "internalType": "bool",
          "name": "",
          "type": "bool"
        }
      ],
      "stateMutability": "view",
      "type": "function"
    },
    {
      "inputs": [
        {
          "internalType": "address[]",
          "name": "targets",
          "type": "address[]"
        },
        {
          "internalType": "uint256[]",
          "name": "values",
          "type": "uint256[]"
        },
        {
          "internalType": "bytes[]",
          "name": "calldatas",
          "type": "bytes[]"
        },
        {
          "internalType": "bytes32",
          "name": "descriptionHash",
          "type": "bytes32"
        }
      ],
      "name": "hashProposal",
      "outputs": [
        {
          "internalType": "uint256",
          "name": "",
          "type": "uint256"
        }
      ],
      "stateMutability": "pure",
      "type": "function"
    },
    {
      "inputs": [],
      "name": "name",
      "outputs": [
        {
          "internalType": "string",
          "name": "",
          "type": "string"
        }
      ],
      "stateMutability": "view",
      "type": "function"
    },
    {
      "inputs": [
        {
          "internalType": "address",
          "name": "owner",
          "type": "address"
        }
      ],
      "name": "nonces",
      "outputs": [
        {
          "internalType": "uint256",
          "name": "",
          "type": "uint256"
        }
      ],
      "stateMutability": "view",
      "type": "function"
    },
    {
      "inputs": [
        {
          "internalType": "address",
          "name": "",
          "type": "address"
        },
        {
          "internalType": "address",
          "name": "",
          "type": "address"
        },
        {
          "internalType": "uint256[]",
          "name": "",
          "type": "uint256[]"
        },
        {
          "internalType": "uint256[]",
          "name": "",
          "type": "uint256[]"
        },
        {
          "internalType": "bytes",
          "name": "",
          "type": "bytes"
        }
      ],
      "name": "onERC1155BatchReceived",
      "outputs": [
        {
          "internalType": "bytes4",
          "name": "",
          "type": "bytes4"
        }
      ],
      "stateMutability": "nonpayable",
      "type": "function"
    },
    {
      "inputs": [
        {
          "internalType": "address",
          "name": "",
          "type": "address"
        },
        {
          "internalType": "address",
          "name": "",
          "type": "address"
        },
        {
          "internalType": "uint256",
          "name": "",
          "type": "uint256"
        },
        {
          "internalType": "uint256",
          "name": "",
          "type": "uint256"
        },
        {
          "internalType": "bytes",
          "name": "",
          "type": "bytes"
        }
      ],
      "name": "onERC1155Received",
      "outputs": [
        {
          "internalType": "bytes4",
          "name": "",
          "type": "bytes4"
        }
      ],
      "stateMutability": "nonpayable",
      "type": "function"
    },
    {
      "inputs": [
        {
          "internalType": "address",
          "name": "",
          "type": "address"
        },
        {
          "internalType": "address",
          "name": "",
          "type": "address"
        },
        {
          "internalType": "uint256",
          "name": "",
          "type": "uint256"
        },
        {
          "internalType": "bytes",
          "name": "",
          "type": "bytes"
        }
      ],
      "name": "onERC721Received",
      "outputs": [
        {
          "internalType": "bytes4",
          "name": "",
          "type": "bytes4"
        }
      ],
      "stateMutability": "nonpayable",
      "type": "function"
    },
    {
      "inputs": [
        {
          "internalType": "uint256",
          "name": "proposalId",
          "type": "uint256"
        }
      ],
      "name": "proposalDeadline",
      "outputs": [
        {
          "internalType": "uint256",
          "name": "",
          "type": "uint256"
        }
      ],
      "stateMutability": "view",
      "type": "function"
    },
    {
      "inputs": [
        {
          "internalType": "uint256",
          "name": "proposalId",
          "type": "uint256"
        }
      ],
      "name": "proposalEta",
      "outputs": [
        {
          "internalType": "uint256",
          "name": "",
          "type": "uint256"
        }
      ],
      "stateMutability": "view",
      "type": "function"
    },
    {
      "inputs": [
        {
          "internalType": "uint256",
          "name": "proposalId",
          "type": "uint256"
        }
      ],
      "name": "proposalNeedsQueuing",
      "outputs": [
        {
          "internalType": "bool",
          "name": "",
          "type": "bool"
        }
      ],
      "stateMutability": "view",
      "type": "function"
    },
    {
      "inputs": [
        {
          "internalType": "uint256",
          "name": "proposalId",
          "type": "uint256"
        }
      ],
      "name": "proposalProposer",
      "outputs": [
        {
          "internalType": "address",
          "name": "",
          "type": "address"
        }
      ],
      "stateMutability": "view",
      "type": "function"
    },
    {
      "inputs": [
        {
          "internalType": "uint256",
          "name": "proposalId",
          "type": "uint256"
        }
      ],
      "name": "proposalSnapshot",
      "outputs": [
        {
          "internalType": "uint256",
          "name": "",
          "type": "uint256"
        }
      ],
      "stateMutability": "view",
      "type": "function"
    },
    {
      "inputs": [],
      "name": "proposalThreshold",
      "outputs": [
        {
          "internalType": "uint256",
          "name": "",
          "type": "uint256"
        }
      ],
      "stateMutability": "view",
      "type": "function"
    },
    {
      "inputs": [
        {
          "internalType": "uint256",
          "name": "proposalId",
          "type": "uint256"
        }
      ],
      "name": "proposalVotes",
      "outputs": [
        {
          "internalType": "uint256",
          "name": "againstVotes",
          "type": "uint256"
        },
        {
          "internalType": "uint256",
          "name": "forVotes",
          "type": "uint256"
        },
        {
          "internalType": "uint256",
          "name": "abstainVotes",
          "type": "uint256"
        }
      ],
      "stateMutability": "view",
      "type": "function"
    },
    {
      "inputs": [
        {
          "internalType": "address[]",
          "name": "targets",
          "type": "address[]"
        },
        {
          "internalType": "uint256[]",
          "name": "values",
          "type": "uint256[]"
        },
        {
          "internalType": "bytes[]",
          "name": "calldatas",
          "type": "bytes[]"
        },
        {
          "internalType": "string",
          "name": "description",
          "type": "string"
        }
      ],
      "name": "propose",
      "outputs": [
        {
          "internalType": "uint256",
          "name": "",
          "type": "uint256"
        }
      ],
      "stateMutability": "nonpayable",
      "type": "function"
    },
    {
      "inputs": [
        {
          "internalType": "address[]",
          "name": "targets",
          "type": "address[]"
        },
        {
          "internalType": "uint256[]",
          "name": "values",
          "type": "uint256[]"
        },
        {
          "internalType": "bytes[]",
          "name": "calldatas",
          "type": "bytes[]"
        },
        {
          "internalType": "bytes32",
          "name": "descriptionHash",
          "type": "bytes32"
        }
      ],
      "name": "queue",
      "outputs": [
        {
          "internalType": "uint256",
          "name": "",
          "type": "uint256"
        }
      ],
      "stateMutability": "nonpayable",
      "type": "function"
    },
    {
      "inputs": [
        {
          "internalType": "uint256",
          "name": "blockNumber",
          "type": "uint256"
        }
      ],
      "name": "quorum",
      "outputs": [
        {
          "internalType": "uint256",
          "name": "",
          "type": "uint256"
        }
      ],
      "stateMutability": "view",
      "type": "function"
    },
    {
      "inputs": [],
      "name": "quorumDenominator",
      "outputs": [
        {
          "internalType": "uint256",
          "name": "",
          "type": "uint256"
        }
      ],
      "stateMutability": "view",
      "type": "function"
    },
    {
      "inputs": [
        {
          "internalType": "uint256",
          "name": "timepoint",
          "type": "uint256"
        }
      ],
      "name": "quorumNumerator",
      "outputs": [
        {
          "internalType": "uint256",
          "name": "",
          "type": "uint256"
        }
      ],
      "stateMutability": "view",
      "type": "function"
    },
    {
      "inputs": [],
      "name": "quorumNumerator",
      "outputs": [
        {
          "internalType": "uint256",
          "name": "",
          "type": "uint256"
        }
      ],
      "stateMutability": "view",
      "type": "function"
    },
    {
      "inputs": [
        {
          "internalType": "address",
          "name": "target",
          "type": "address"
        },
        {
          "internalType": "uint256",
          "name": "value",
          "type": "uint256"
        },
        {
          "internalType": "bytes",
          "name": "data",
          "type": "bytes"
        }
      ],
      "name": "relay",
      "outputs": [],
      "stateMutability": "payable",
      "type": "function"
    },
    {
      "inputs": [
        {
          "internalType": "uint256",
          "name": "newProposalThreshold",
          "type": "uint256"
        }
      ],
      "name": "setProposalThreshold",
      "outputs": [],
      "stateMutability": "nonpayable",
      "type": "function"
    },
    {
      "inputs": [
        {
          "internalType": "uint48",
          "name": "newVotingDelay",
          "type": "uint48"
        }
      ],
      "name": "setVotingDelay",
      "outputs": [],
      "stateMutability": "nonpayable",
      "type": "function"
    },
    {
      "inputs": [
        {
          "internalType": "uint32",
          "name": "newVotingPeriod",
          "type": "uint32"
        }
      ],
      "name": "setVotingPeriod",
      "outputs": [],
      "stateMutability": "nonpayable",
      "type": "function"
    },
    {
      "inputs": [
        {
          "internalType": "uint256",
          "name": "proposalId",
          "type": "uint256"
        }
      ],
      "name": "state",
      "outputs": [
        {
          "internalType": "enum IGovernor.ProposalState",
          "name": "",
          "type": "uint8"
        }
      ],
      "stateMutability": "view",
      "type": "function"
    },
    {
      "inputs": [
        {
          "internalType": "bytes4",
          "name": "interfaceId",
          "type": "bytes4"
        }
      ],
      "name": "supportsInterface",
      "outputs": [
        {
          "internalType": "bool",
          "name": "",
          "type": "bool"
        }
      ],
      "stateMutability": "view",
      "type": "function"
    },
    {
      "inputs": [],
      "name": "timelock",
      "outputs": [
        {
          "internalType": "address",
          "name": "",
          "type": "address"
        }
      ],
      "stateMutability": "view",
      "type": "function"
    },
    {
      "inputs": [],
      "name": "token",
      "outputs": [
        {
          "internalType": "contract IERC5805",
          "name": "",
          "type": "address"
        }
      ],
      "stateMutability": "view",
      "type": "function"
    },
    {
      "inputs": [
        {
          "internalType": "uint256",
          "name": "newQuorumNumerator",
          "type": "uint256"
        }
      ],
      "name": "updateQuorumNumerator",
      "outputs": [],
      "stateMutability": "nonpayable",
      "type": "function"
    },
    {
      "inputs": [
        {
          "internalType": "contract TimelockController",
          "name": "newTimelock",
          "type": "address"
        }
      ],
      "name": "updateTimelock",
      "outputs": [],
      "stateMutability": "nonpayable",
      "type": "function"
    },
    {
      "inputs": [],
      "name": "version",
      "outputs": [
        {
          "internalType": "string",
          "name": "",
          "type": "string"
        }
      ],
      "stateMutability": "view",
      "type": "function"
    },
    {
      "inputs": [],
      "name": "votingDelay",
      "outputs": [
        {
          "internalType": "uint256",
          "name": "",
          "type": "uint256"
        }
      ],
      "stateMutability": "view",
      "type": "function"
    },
    {
      "inputs": [],
      "name": "votingPeriod",
      "outputs": [
        {
          "internalType": "uint256",
          "name": "",
          "type": "uint256"
        }
      ],
      "stateMutability": "view",
      "type": "function"
    },
    {
      "stateMutability": "payable",
      "type": "receive"
    }
  ],
  "bytecode": "0x61018060405234620000b457620000206200001962000154565b90620001c8565b604051613c34908162000c68823960805181612efc015260a05181612fb1015260c05181612ec6015260e05181612f4b01526101005181612f71015261012051816113b9015261014051816113e501526101605181818161163b01528181611aef01528181611c2601528181611cc901528181611dcf015281816120f40152818161291201528181612a050152613a0c0152f35b600080fd5b634e487b7160e01b600052604160045260246000fd5b604081019081106001600160401b03821117620000eb57604052565b620000b9565b60c081019081106001600160401b03821117620000eb57604052565b601f909101601f19168101906001600160401b03821190821017620000eb57604052565b604051906200014082620000cf565b565b6001600160a01b03811603620000b457565b620048dc906040823803928382519485926200017182856200010d565b833981010312620000b45760208251926200018c8462000142565b0151916200019a8362000142565b9190565b60405190620001ad82620000cf565b60108252565b60405190620001c282620000cf565b60018252565b90620002c590620002a1620001dc6200019e565b602081016f25b0b630a5b93aba23b7bb32b93737b960811b815262000200620001b3565b906020820190603160f81b8252620002188462000711565b61012052620002278362000820565b6101405283519020918260e05251902080610100524660a0526040519060208201927f8b73c3c69bb8fe3d512ecc4cf759cc79239f7b179b0ffacaa9a75d522b39400f8452604083015260608201524660808201523060a082015260a081526200029181620000f1565b5190206080523060c0526200042d565b620002ab62000638565b620002b562000681565b620002bf620006d7565b620005d0565b6001600160a01b0316610160526200014062000528565b90600182811c921680156200030e575b6020831014620002f857565b634e487b7160e01b600052602260045260246000fd5b91607f1691620002ec565b601f811162000326575050565b60009060036000526020600020906020601f850160051c8301941062000369575b601f0160051c01915b8281106200035d57505050565b81815560010162000350565b909250829062000347565b601f811162000381575050565b600090600080526020600020906020601f850160051c83019410620003c3575b601f0160051c01915b828110620003b757505050565b818155600101620003aa565b9092508290620003a1565b90601f8211620003dc575050565b60019160009060016000526020600020906020601f850160051c8301941062000422575b601f0160051c01915b828110620004175750505050565b818155830162000409565b909250829062000400565b80519091906001600160401b038111620000eb57620004598162000453600354620002dc565b62000319565b602080601f8311600114620004a0575081906200048f939460009262000494575b50508160011b916000199060031b1c19161790565b600355565b0151905038806200047a565b6003600052601f198316949091907fc2575a0e9e593c00f959f8c92f12db2869c3395a3b0502d05e2516446f71f85b926000905b8782106200050f575050836001959610620004f5575b505050811b01600355565b015160001960f88460031b161c19169055388080620004ea565b80600185968294968601518155019501930190620004d4565b600a54600090806200057a575050600080516020620048bc833981519152604060005b6200055f620005596200090c565b62000b06565b505081516001600160d01b03909116815260046020820152a1565b600019918183810111620005bc57600a9052016000805160206200489c8339815191520154600080516020620048bc8339815191529060409060301c6200054b565b634e487b7160e01b81526011600452602490fd5b600854907f08f74ea46ef7894f65eabfb5e6e695de773a000b47c529ab559178069b226401604060018060a01b03815190808660501c16825284166020820152a1600160501b600160f01b031990911660509190911b600160501b600160f01b031617600855565b6008547fc565b045403dc03c2eea82b81a0465edad9e2e7fc4d97e11421c209da93d7a936040805165ffffffffffff8416815260006020820152a165ffffffffffff1916600855565b679d800000000000006008547f7e3f7f0708a84de9203036abaa450dccc85ad5ff52f78c170f3edb55cf5e88286040805163ffffffff8460301c168152619d806020820152a163ffffffff60301b191617600855565b7fccb45da8d5717e6c4544694297c4ba5cf151d455c9bb0ed4fc7a38411bc054616040600754815190815260646020820152a16064600755565b9081516020906020811060001462000734575050906200073190620009c4565b90565b6001600160401b038111620000eb576000916200075d82620007578554620002dc565b62000374565b602090601f83116001146200079957508190839495620007929492620004945750508160011b916000199060031b1c19161790565b905560ff90565b60008052601f198316957f290decd9548b62a8d60345a988386fc84ba6bc95484008f6362f93160ef3e563929185905b8882106200080757505083600195969710620007ed575b505050811b01905560ff90565b015160001960f88460031b161c19169055388080620007e0565b80600185968294968601518155019501930190620007c9565b9081516020906020811060001462000840575050906200073190620009c4565b6001600160401b038111620000eb576001916200086982620008638554620002dc565b620003ce565b602090601f83116001146200089f5750819062000792939495600092620004945750508160011b916000199060031b1c19161790565b6001600052601f198316959091907fb10e2d527612073b26eecdfd717e6a320cf44b4afac2b0732d9fcbe2b7fa0cf6926000905b888210620008f45750508385969710620007ed57505050811b01905560ff90565b808785968294968601518155019501930190620008d3565b610160516040516324776b7d60e21b815290602090829060049082906001600160a01b03165afa809160009162000951575b5090620007315750620007314362000c34565b6020813d60201162000997575b816200096d602093836200010d565b810103126200099357519065ffffffffffff82168203620009905750386200093e565b80fd5b5080fd5b3d91506200095e565b602081519101519060208110620009b5575090565b6000199060200360031b1b1690565b601f815111620009df57620009d981620009a0565b90511790565b6040519063305a27a960e01b82528160208060048301528251908160248401526000935b82851062000a27575050604492506000838284010152601f80199101168101030190fd5b848101820151868601604401529381019385935062000a03565b60001981019190821162000a5157565b634e487b7160e01b600052601160045260246000fd5b600a5468010000000000000000811015620000eb576001810180600a5581101562000ab957600a6000526020600020019065ffffffffffff81511690602065ffffffffffff1991015160301b16179055565b634e487b7160e01b600052603260045260246000fd5b604080519192919081016001600160401b03811182821017620000eb57604052915465ffffffffffff8116835260301c6020830152565b600a54801562000c0b5762000b4262000b3c62000b238362000a41565b600a6000526000805160206200489c8339815191520190565b62000acf565b805165ffffffffffff848116939116831062000bf95762000bbf9360209362000b8062000b75855165ffffffffffff1690565b65ffffffffffff1690565b0362000bc5575062000b9a62000b2362000bb19262000a41565b660400000000000065ffffffffffff825416179055565b01516001600160d01b031690565b90600490565b62000bf3915062000be762000bd962000131565b65ffffffffffff9092168252565b60048185015262000a67565b62000bb1565b604051632520601d60e01b8152600490fd5b5062000c2c9062000c1f62000bd962000131565b6004602082015262000a67565b600090600490565b65ffffffffffff9081811162000c48571690565b604490604051906306dfcc6560e41b8252603060048301526024820152fdfe60806040526004361015610023575b361561001957600080fd5b6100216122f3565b005b60003560e01c806301ffc9a71461032357806302a251a31461031e57806306f3f9e61461031957806306fdde0314610314578063143489d01461030f578063150b7a021461030a578063160cbed7146103055780632656227d146103005780632d63f693146102fb5780632fe3e261146102f65780633932abb1146102f15780633e4f49e6146102ec57806343859632146102e7578063452115d6146102e25780634bf5d7e9146102dd578063544ffc9c146102d857806354fd4d50146102d357806356781388146102ce5780635b8d0e0d146102c95780635f398a14146102c457806360c4247f146102bf57806379051887146102ba5780637b3c71d3146102b55780637d5e81e2146102b05780637ecebe00146102ab57806384b0196e146102a65780638ff262e3146102a157806391ddadf41461029c57806397c3d334146102975780639a802a6d14610292578063a7713a701461028d578063a890c91014610288578063a9a9529414610283578063ab58fb8e1461027e578063b58131b014610279578063bc197c8114610274578063c01f9e371461026f578063c28bc2fa1461026a578063c59057e414610265578063d33219b414610260578063dd4e2ba51461025b578063deaaa7cc14610256578063e540d01d14610251578063eb9019d41461024c578063ece40cc114610247578063f23a6e6114610242578063f8ce560a1461023d5763fc0c546a0361000e57611cb3565b611bf6565b611b88565b611b33565b611a93565b6119ea565b6119af565b611951565b611924565b611908565b61189c565b61187e565b6117de565b6117c0565b611789565b61176d565b6116cb565b61169f565b6115cd565b6115b1565b611586565b61146a565b6113a0565b61132f565b611296565b611241565b6111cf565b6111a1565b611132565b6110aa565b61102d565b610fdb565b610f8e565b610f5e565b610ea0565b610e47565b610e1a565b610dc2565b610d87565b610d50565b610be4565b610994565b610752565b6105d5565b6104ec565b6103c8565b6103a1565b346103915760203660031901126103915760043563ffffffff60e01b8116809103610391576020906332a2ad4360e11b8114908115610380575b811561036f575b506040519015158152f35b6301ffc9a760e01b14905038610364565b630271189760e51b8114915061035d565b600080fd5b600091031261039157565b3461039157600036600319011261039157602063ffffffff60085460301c16604051908152f35b34610391576020366003190112610391576004356103e461230a565b60648111610471576001600160d01b0390816103fe612a52565b166104076120df565b92808311610451577f0553476bf02ef2726e8ce5ced78d63e26e602e4a2257b1f559418e24b46339979361043d918416906138c0565b5050604080519182526020820192909252a1005b6040516306dfcc6560e41b815260d0600482015260248101849052604490fd5b6044906040519063243e544560e01b8252600482015260646024820152fd5b60005b8381106104a35750506000910152565b8181015183820152602001610493565b906020916104cc81518092818552858086019101610490565b601f01601f1916010190565b9060206104e99281815201906104b3565b90565b34610391576000806003193601126105d25760405190806003549061051082611cf8565b808552916020916001918281169081156105a5575060011461054d575b6105498661053d818803826106b5565b604051918291826104d8565b0390f35b9350600384527fc2575a0e9e593c00f959f8c92f12db2869c3395a3b0502d05e2516446f71f85b5b8385106105925750505050810160200161053d826105493861052d565b8054868601840152938201938101610575565b90508695506105499693506020925061053d94915060ff191682840152151560051b82010192933861052d565b80fd5b34610391576020366003190112610391576004356000526004602052602060018060a01b0360406000205416604051908152f35b6001600160a01b0381160361039157565b634e487b7160e01b600052604160045260246000fd5b6001600160401b03811161064357604052565b61061a565b604081019081106001600160401b0382111761064357604052565b602081019081106001600160401b0382111761064357604052565b60c081019081106001600160401b0382111761064357604052565b61010081019081106001600160401b0382111761064357604052565b90601f801991011681019081106001600160401b0382111761064357604052565b604051906106e382610648565b565b6001600160401b03811161064357601f01601f191660200190565b92919261070c826106e5565b9161071a60405193846106b5565b829481845281830111610391578281602093846000960137010152565b9080601f83011215610391578160206104e993359101610700565b346103915760803660031901126103915761076e600435610609565b610779602435610609565b6064356001600160401b03811161039157610798903690600401610737565b5060085460501c6001600160a01b031630036107c057604051630a85bd0160e11b8152602090f35b604051637485328f60e11b8152600490fd5b6001600160401b0381116106435760051b60200190565b9080601f83011215610391576020908235610803816107d2565b9361081160405195866106b5565b81855260208086019260051b82010192831161039157602001905b82821061083a575050505090565b838091833561084881610609565b81520191019061082c565b9080601f8301121561039157602090823561086d816107d2565b9361087b60405195866106b5565b81855260208086019260051b82010192831161039157602001905b8282106108a4575050505090565b81358152908301908301610896565b81601f82011215610391578035916020916108cd846107d2565b936108db60405195866106b5565b808552838086019160051b8301019280841161039157848301915b8483106109065750505050505090565b82356001600160401b03811161039157869161092784848094890101610737565b8152019201916108f6565b6080600319820112610391576001600160401b0391600435838111610391578261095e916004016107e9565b92602435818111610391578361097691600401610853565b926044359182116103915761098d916004016108b3565b9060643590565b34610391576109a236610932565b6109b081838587969761228f565b926109ba846123a1565b506008546109db9060501c6001600160a01b03165b6001600160a01b031690565b9260409586519363793d064960e11b855260209081866004818a5afa958615610b9357600096610bc5575b506bffffffffffffffffffffffff193060601b161895818951809263b1c5f42760e01b82528180610a3d8c8a8a8d60048601612b39565b03915afa918215610b9357600092610b98575b5050610a66876000526009602052604060002090565b55600854610a7f9060501c6001600160a01b03166109cf565b90813b156103915760008094610aab878b51998a97889687956308f2a0bb60e41b875260048701612b7f565b03925af1908115610b9357610acf92610aca92610b7a575b50426128a2565b612862565b65ffffffffffff811615610b6957917f9a2e42fd6722813d69113e7d0079d3d940171428df7373df9c7f7617cfda2892610b5884610b3a610549966001610b20886000526004602052604060002090565b019065ffffffffffff1665ffffffffffff19825416179055565b835185815265ffffffffffff90911660208201529081906040820190565b0390a1519081529081906020820190565b8251634844252360e11b8152600490fd5b80610b87610b8d92610630565b80610396565b38610ac3565b611d61565b610bb79250803d10610bbe575b610baf81836106b5565b8101906129c5565b3880610a50565b503d610ba5565b610bdd919650823d8411610bbe57610baf81836106b5565b9438610a06565b610bed36610932565b610bfb81838587959761228f565b92610c05846123f3565b50610c30610c1d856000526004602052604060002090565b805460ff60f01b1916600160f01b179055565b6008546001600160a01b0393903060509190911c851603610cea575b94610c5c92916105499686612bcd565b60085460501c166001600160a01b031630141580610cc5575b610cb6575b6040518181527f712ae1383f79ac853f8d882153778e0260ef8f03b504e2866e0593e04d2b291f90602090a16040519081529081906020820190565b610cc06000600555565b610c7a565b50610ce5610ce16005546001600160801b0381169060801c1490565b1590565b610c75565b9290939160005b8451811015610d465760019030610d1b6109cf610d0e848a611d48565b516001600160a01b031690565b14610d27575b01610cf1565b610d41610d34828a611d48565b5160208151910120612445565b610d21565b5091939092610c4c565b34610391576020366003190112610391576004356000526004602052602065ffffffffffff60406000205460a01c16604051908152f35b346103915760003660031901126103915760206040517f3e83946653575f9a39005e1545185629e92736b7528ab20ca3816f315424a8118152f35b3461039157600036600319011261039157602065ffffffffffff60085416604051908152f35b634e487b7160e01b600052602160045260246000fd5b60081115610e0857565b610de8565b906008821015610e085752565b34610391576020366003190112610391576020610e386004356124b7565b610e456040518092610e0d565bf35b3461039157604036600319011261039157602060ff610e94602435610e6b81610609565b600435600052600b845260036040600020019060018060a01b0316600052602052604060002090565b54166040519015158152f35b3461039157610eae36610932565b90610ebd82828587969761228f565b610ec6816124b7565b6008811015610e085760018060ff83161b1615610f3157506000908152600460205260409020546001600160a01b03163303610f195761054993610f0993612d7f565b6040519081529081906020820190565b60405163233d98e360e01b8152336004820152602490fd5b90610f55606492604051926331b75e4d60e01b845260048401526024830190610e0d565b60016044820152fd5b3461039157600036600319011261039157610549610f7a611db9565b6040519182916020835260208301906104b3565b3461039157602036600319011261039157600435600052600b6020526040600020805461054960026001840154930154604051938493846040919493926060820195825260208201520152565b3461039157600036600319011261039157610549604051610ffb81610648565b60018152603160f81b60208201526040519182916020835260208301906104b3565b6024359060ff8216820361039157565b3461039157604036600319011261039157602061107561104b61101d565b60405161105781610663565b600081526040519161106883610663565b6000835233600435612746565b604051908152f35b9181601f84011215610391578235916001600160401b038311610391576020838186019501011161039157565b346103915760c0366003190112610391576110c361101d565b604435906110d082610609565b6001600160401b0390606435828111610391576110f190369060040161107d565b60843584811161039157611109903690600401610737565b9160a4359485116103915761054995611129610f09963690600401610737565b94600435611e98565b346103915760803660031901126103915761114b61101d565b6001600160401b03906044358281116103915761116c90369060040161107d565b9091606435938411610391576111976110759361118f6020963690600401610737565b933691610700565b9033600435612746565b34610391576020366003190112610391576020611075600435611fc2565b65ffffffffffff81160361039157565b34610391576020366003190112610391576004356111ec816111bf565b6111f461230a565b6008547fc565b045403dc03c2eea82b81a0465edad9e2e7fc4d97e11421c209da93d7a93604065ffffffffffff81519481851686521693846020820152a165ffffffffffff191617600855005b346103915760603660031901126103915761125a61101d565b6044356001600160401b0381116103915760209161128961128261107593369060040161107d565b3691610700565b6040519161106883610663565b34610391576080366003190112610391576001600160401b03600435818111610391576112c79036906004016107e9565b90602435818111610391576112e0903690600401610853565b91604435828111610391576112f99036906004016108b3565b60643592831161039157366023840112156103915761054993611329610f09943690602481600401359101610700565b926128af565b346103915760203660031901126103915760043561134c81610609565b60018060a01b031660005260026020526020604060002054604051908152f35b90815180825260208080930193019160005b82811061138c575050505090565b83518552938101939281019260010161137e565b346103915760003660031901126103915761143b6113dd7f0000000000000000000000000000000000000000000000000000000000000000613643565b6105496114097f0000000000000000000000000000000000000000000000000000000000000000613744565b6114496040519161141983610663565b60008352604051958695600f60f81b875260e0602088015260e08701906104b3565b9085820360408701526104b3565b90466060850152306080850152600060a085015283820360c085015261136c565b346103915760803660031901126103915760043561148661101d565b906044359161149483610609565b6064356001600160401b03811161039157610ce16114b9611546923690600401610737565b6001600160a01b03861660009081526002602052604090208054600181019091556115409060405160208101917ff2aad550cf55f045cb27e9c559f9889fdfb6e6cdaa032301d6ea397784ae51d7835288604083015260ff8816606083015260018060a01b038a16608083015260a082015260a081526115388161067e565b5190206125e8565b8661260e565b6115615790610f09916105499361155b611d6d565b926125cc565b6040516394ab6c0760e01b81526001600160a01b0384166004820152602490fd5b0390fd5b346103915760003660031901126103915760206115a16120df565b65ffffffffffff60405191168152f35b3461039157600036600319011261039157602060405160648152f35b34610391576060366003190112610391576004356115ea81610609565b6044356001600160401b0381116103915760449161160e6020923690600401610737565b50604051630748d63560e31b81526001600160a01b039182166004820152602480359082015292839182907f0000000000000000000000000000000000000000000000000000000000000000165afa8015610b935761054991600091611680575b506040519081529081906020820190565b611699915060203d602011610bbe57610baf81836106b5565b3861166f565b346103915760003660031901126103915760206001600160d01b036116c2612a52565b16604051908152f35b34610391576020366003190112610391576004356116e881610609565b6116f061230a565b600854907f08f74ea46ef7894f65eabfb5e6e695de773a000b47c529ab559178069b226401604060018060a01b03815190808660501c16825284166020820152a17fffff0000000000000000000000000000000000000000ffffffffffffffffffff90911660509190911b600160501b600160f01b031617600855005b3461039157602036600319011261039157602060405160018152f35b34610391576020366003190112610391576004356000526004602052602065ffffffffffff60016040600020015416604051908152f35b34610391576000366003190112610391576020600754604051908152f35b346103915760a0366003190112610391576117fa600435610609565b611805602435610609565b6001600160401b0360443581811161039157611825903690600401610853565b506064358181116103915761183e903690600401610853565b5060843590811161039157611857903690600401610737565b50610549611863612173565b6040516001600160e01b031990911681529081906020820190565b34610391576020366003190112610391576020611075600435612193565b6060366003190112610391576004356118b481610609565b604435906001600160401b03821161039157600080916118db61002194369060040161107d565b906118e461230a565b81604051928392833781018481520391602435905af16119026121c5565b90612a99565b3461039157602061107561191b36610932565b9291909161228f565b346103915760003660031901126103915760085460405160509190911c6001600160a01b03168152602090f35b346103915760003660031901126103915761054960405161197181610648565b602081527f737570706f72743d627261766f2671756f72756d3d666f722c6162737461696e60208201526040519182916020835260208301906104b3565b346103915760003660031901126103915760206040517ff2aad550cf55f045cb27e9c559f9889fdfb6e6cdaa032301d6ea397784ae51d78152f35b346103915760203660031901126103915760043563ffffffff8082169182810361039157611a1661230a565b8215611a7a577f7e3f7f0708a84de9203036abaa450dccc85ad5ff52f78c170f3edb55cf5e8828604069ffffffff00000000000093600854958251918760301c1682526020820152a160301b169069ffffffff000000000000191617600855600080f35b60405163f1cfbf0560e01b815260006004820152602490fd5b346103915760403660031901126103915760446020600435611ab481610609565b6000604051611ac281610663565b52604051630748d63560e31b81526001600160a01b039182166004820152602480359082015292839182907f0000000000000000000000000000000000000000000000000000000000000000165afa8015610b93576105499160009161168057506040519081529081906020820190565b3461039157602036600319011261039157600435611b4f61230a565b60075460408051918252602082018390527fccb45da8d5717e6c4544694297c4ba5cf151d455c9bb0ed4fc7a38411bc0546191a1600755005b346103915760a036600319011261039157611ba4600435610609565b611baf602435610609565b6084356001600160401b03811161039157611bce903690600401610737565b5060085460501c6001600160a01b031630036107c05760405163f23a6e6160e01b8152602090f35b3461039157602036600319011261039157604051632394e7a360e21b8152600480359082018190526020826024817f00000000000000000000000000000000000000000000000000000000000000006001600160a01b03165afa918215610b9357600092611c8e575b50611c6990611fc2565b90818102918183041490151715611c895760405160649091048152602090f35b611f8e565b611c69919250611cac9060203d602011610bbe57610baf81836106b5565b9190611c5f565b34610391576000366003190112610391576040517f00000000000000000000000000000000000000000000000000000000000000006001600160a01b03168152602090f35b90600182811c92168015611d28575b6020831014611d1257565b634e487b7160e01b600052602260045260246000fd5b91607f1691611d07565b634e487b7160e01b600052603260045260246000fd5b8051821015611d5c5760209160051b010190565b611d32565b6040513d6000823e3d90fd5b60405190611d7a82610663565b60008252565b60405190611d8d82610648565b601d82527f6d6f64653d626c6f636b6e756d6265722666726f6d3d64656661756c740000006020830152565b604051634bf5d7e960e01b8152600080826004817f00000000000000000000000000000000000000000000000000000000000000006001600160a01b03165afa90918282611e11575b50506104e957506104e9611d80565b909192503d8082843e611e2481846106b5565b820191602081840312611e90578051906001600160401b038211611e94570182601f82011215611e9057805191611e5a836106e5565b93611e6860405195866106b5565b838552602084840101116105d2575090611e889160208085019101610490565b903880611e02565b5080fd5b8280fd5b939092919695610ce1611f5291611f4c8a611ece8160018060a01b03166000526002602052604060002080549060018201905590565b611ed936888a610700565b602081519101208b5160208d0120906040519260208401947f3e83946653575f9a39005e1545185629e92736b7528ab20ca3816f315424a81186528d604086015260ff8d16606086015260018060a01b0316608085015260a084015260c083015260e082015260e0815261153881610699565b8a61260e565b611f6d576104e9959691611f67913691610700565b92612746565b6040516394ab6c0760e01b81526001600160a01b0388166004820152602490fd5b634e487b7160e01b600052601160045260246000fd5b600019810191908211611c8957565b602719810191908211611c8957565b600a546000198101818111611c8957811115611d5c57600a6000527fc65a7bb8d6351c1cf70c95a316cc6a92839c986682d98bc35f958f4883f9d2a78101549165ffffffffffff928184821611156120d5575061201e90612862565b600090826005811161207e575b506120369350613240565b8061204b575060005b6001600160d01b031690565b61207261205a61207992611fa4565b600a600052600080516020613bdf8339815191520190565b5460301c90565b61203f565b909261208982613100565b8203918211611c895761203694600a6000528083600080516020613bdf833981519152015416908516106000146120c35750915b3861202b565b9291506120cf90612894565b906120bd565b9250505060301c90565b6040516324776b7d60e21b81526020816004817f00000000000000000000000000000000000000000000000000000000000000006001600160a01b03165afa60009181612136575b506104e957506104e943612862565b9091506020813d60201161216b575b81612152602093836106b5565b810103126103915751612164816111bf565b9038612127565b3d9150612145565b60085460501c6001600160a01b031630036107c05763bc197c8160e01b90565b600052600460205260406000205465ffffffffffff908163ffffffff8260d01c169160a01c1601818111611c89571690565b3d156121f0573d906121d6826106e5565b916121e460405193846106b5565b82523d6000602084013e565b606090565b90815180825260208080930193019160005b828110612215575050505090565b83516001600160a01b031685529381019392810192600101612207565b90808251908181526020809101926020808460051b8301019501936000915b8483106122615750505050505090565b909192939495848061227f600193601f198682030187528a516104b3565b9801930193019194939290612251565b92906122db926122ed926040519485926122cb6122b8602086019960808b5260a08701906121f5565b601f19968787830301604088015261136c565b9085858303016060860152612232565b906080830152039081018352826106b5565b51902090565b60085460501c6001600160a01b031630036107c057565b60085460501c6001600160a01b031633810361236957300361232857565b612331366106e5565b61233e60405191826106b5565b368152602081019036600083376000602036830101525190205b80612361612ae2565b036123585750565b6040516347096e4760e01b8152336004820152602490fd5b60409061239d6000939594606083019683526020830190610e0d565b0152565b6123aa816124b7565b906008821015610e08576010600160ff84161b16156123c7575090565b6123ea606492604051926331b75e4d60e01b845260048401526024830190610e0d565b60106044820152fd5b6123fc816124b7565b906008821015610e08576030600160ff84161b1615612419575090565b61243c606492604051926331b75e4d60e01b845260048401526024830190610e0d565b60306044820152fd5b6005548060801c9160018301926001600160801b038093168385161461248d576000526006602052604060002055600554916001600160801b03199060801b16911617600555565b604051638acb5f2760e01b8152600490fd5b90816020910312610391575180151581036103915790565b6124c081612c5b565b906124ca82610dfe565b600582036125c8576124e791506000526009602052604060002090565b546008546125009060501c6001600160a01b03166109cf565b604051632c258a9f60e11b81526004810183905260209291908381602481855afa908115610b93576000916125ab575b501561253e57505050600590565b604051632ab0f52960e01b815260048101929092528290829060249082905afa918215610b935760009261257e575b50501561257957600790565b600290565b61259d9250803d106125a4575b61259581836106b5565b81019061249f565b388061256d565b503d61258b565b6125c29150843d86116125a45761259581836106b5565b38612530565b5090565b916104e99391604051936125df85610663565b60008552612746565b6042906125f3612ec3565b906040519161190160f01b8352600283015260228201522090565b6126188383612fd7565b506004819592951015610e08571593846126d0575b50831561263b575b50505090565b6000929350908291604051612682816126746020820194630b135d3f60e11b998a875260248401526040604484015260648301906104b3565b03601f1981018352826106b5565b51915afa9061268f6121c5565b826126c2575b826126a5575b5050388080612635565b6126ba919250602080825183010191016129c5565b14388061269b565b915060208251101591612695565b6001600160a01b0383811691161493503861262d565b93909260ff612712936104e997958752166020860152604085015260a0606085015260a08401906104b3565b9160808184039101526104b3565b909260ff6080936104e996958452166020830152604082015281606082015201906104b3565b929190612752846124b7565b6008811015610e08576002600160ff83161b161561283457508360005260046020526127a361279d612792604060002065ffffffffffff905460a01c1690565b65ffffffffffff1690565b826129d4565b946127b086848488613013565b80516127f857506127f27fb8e138887d0aa13bab447e82de9d5c1777041ecd21ca36ba824ff1e6c07ddda4938660405194859460018060a01b03169785612720565b0390a290565b6127f2907fe2babfbac5889a709b63bb7f598b324e08bc5a4fb9ec647fb3cbc9ec07eb8712948760405195869560018060a01b031698866126e6565b6040516331b75e4d60e01b815260048101869052606491612859906024830190610e0d565b60026044820152fd5b65ffffffffffff90818111612875571690565b604490604051906306dfcc6560e41b8252603060048301526024820152fd5b9060018201809211611c8957565b91908201809211611c8957565b91939290936128be82336132ba565b156129ad5765ffffffffffff94600019866128d76120df565b160195808711611c895760006040516128ef81610663565b52604051630748d63560e31b8152336004820152961660248701526020866044817f00000000000000000000000000000000000000000000000000000000000000006001600160a01b03165afa958615610b935760009661298c575b506007549586811061296557506104e9949550339361348c565b604051636121770b60e11b8152336004820152602481019190915260448101879052606490fd5b6129a691965060203d602011610bbe57610baf81836106b5565b943861294b565b60405163d9b3955760e01b8152336004820152602490fd5b90816020910312610391575190565b604051630748d63560e31b81526001600160a01b0391821660048201526024810192909252602090829060449082907f0000000000000000000000000000000000000000000000000000000000000000165afa908115610b9357600091612a39575090565b6104e9915060203d602011610bbe57610baf81836106b5565b600a5480612a605750600090565b80600019810111611c8957600a6000527fc65a7bb8d6351c1cf70c95a316cc6a92839c986682d98bc35f958f4883f9d2a7015460301c90565b9091906106e35750805115612ab057805190602001fd5b604051630a12f52160e11b8152600490fd5b8115612acc570490565b634e487b7160e01b600052601260045260246000fd5b600554906001600160801b038083169260801c8314612b2757826000526006602052600160406000209360008554955501166001600160801b03196005541617600555565b6040516375e52f4f60e01b8152600490fd5b949392612b65608093612b57612b739460a08a5260a08a01906121f5565b9088820360208a015261136c565b908682036040880152612232565b93600060608201520152565b9192612bae60a094612ba0612bbc949998979960c0875260c08701906121f5565b90858203602087015261136c565b908382036040850152612232565b946000606083015260808201520152565b9290939160018060a01b0360085460501c1690813b1561039157600093612c1f6040519788958694859463e38335e560e01b86526bffffffffffffffffffffffff193060601b16189260048601612b39565b039134905af1908115610b9357600092612c4992612c4c575b506000526009602052604060002090565b55565b612c5590610630565b38612c38565b612c6f816000526004602052604060002090565b5460ff8160f01c16612d785760f81c612d7257612cab612792612c9c836000526004602052604060002090565b5460a01c65ffffffffffff1690565b8015612d5957612cbc6127926120df565b80911015612d5257612ccd82612193565b10612cd85750600190565b612ce4610ce1826139c5565b8015612d2d575b15612cf65750600390565b6127926001612d12612d1f936000526004602052604060002090565b015465ffffffffffff1690565b612d2857600490565b600590565b50612d4d610ce182600052600b6020526040600020600181015490541090565b612ceb565b5050600090565b604051636ad0607560e01b815260048101839052602490fd5b50600290565b5050600790565b90612d8b93929161228f565b612d94816124b7565b6008811015610e0857603b600160ff83161b1615612e965750612dd9612dc4826000526004602052604060002090565b80546001600160f81b0316600160f81b179055565b6040518181527f789cf55be980739dad1d0699b93b58e806b51c9d96619bfa8fe0a28abaa7b30c90602090a1612e19816000526009602052604060002090565b5480612e23575090565b600854612e3b9060501c6001600160a01b03166109cf565b803b156103915760405163c4d252f560e01b815260048101929092526000908290602490829084905af18015610b9357612e83575b5060008181526009602052604081205590565b80610b87612e9092610630565b38612e70565b90612eba606492604051926331b75e4d60e01b845260048401526024830190610e0d565b603b6044820152fd5b307f00000000000000000000000000000000000000000000000000000000000000006001600160a01b03161480612fae575b15612f1e577f000000000000000000000000000000000000000000000000000000000000000090565b60405160208101907f8b73c3c69bb8fe3d512ecc4cf759cc79239f7b179b0ffacaa9a75d522b39400f82527f000000000000000000000000000000000000000000000000000000000000000060408201527f000000000000000000000000000000000000000000000000000000000000000060608201524660808201523060a082015260a081526122ed8161067e565b507f00000000000000000000000000000000000000000000000000000000000000004614612ef5565b81519190604183036130085761300192506020820151906060604084015193015160001a90613a9a565b9192909190565b505060009160029190565b61302a90929192600052600b602052604060002090565b916003830161305561304e83839060018060a01b0316600052602052604060002090565b5460ff1690565b6130df5761307b60ff9392613088929060018060a01b0316600052602052604060002090565b805460ff19166001179055565b168061309f57509061309b9082546128a2565b9055565b600181036130b75750600161309b91019182546128a2565b6002036130cd57600261309b91019182546128a2565b6040516303599be160e11b8152600490fd5b6040516371c6af4960e01b81526001600160a01b0383166004820152602490fd5b801561323a57806131d36131cc6131c26131b86131ae6131a461319a61319060016104e99a6000908b60801c8061322e575b508060401c80613221575b508060201c80613214575b508060101c80613207575b508060081c806131fa575b508060041c806131ed575b508060021c806131e0575b50821c6131d9575b811c1b613189818b612ac2565b0160011c90565b613189818a612ac2565b6131898189612ac2565b6131898188612ac2565b6131898187612ac2565b6131898186612ac2565b6131898185612ac2565b8092612ac2565b90613b1e565b810161317c565b6002915091019038613174565b6004915091019038613169565b600891509101903861315e565b6010915091019038613153565b6020915091019038613148565b604091509101903861313d565b91505060809038613132565b50600090565b905b82811061324e57505090565b90918082169080831860011c8201809211611c8957600a60005265ffffffffffff8083600080516020613bdf833981519152015416908516106000146132975750915b90613242565b9291506132a390612894565b90613291565b908151811015611d5c570160200190565b81516034811061336b5760131981840101516001600160a01b0319166b1b91f1b211f2119351b859f160a31b0161336b57916000926132f881611fb3565b915b818310613315575050506001600160a01b0391821691161490565b90919361333b61333661332887856132a9565b516001600160f81b03191690565b613b30565b9190156133605760041b6010600160a01b031660ff91909116179360010191906132fa565b505050505050600190565b505050600190565b9061337d826107d2565b61338a60405191826106b5565b828152809261339b601f19916107d2565b019060005b8281106133ac57505050565b8060606020809385010152016133a0565b95926133f1906133ff939b9a989996959261012090895260209c60018060a01b03168d8a01528060408a01528801906121f5565b90868203606088015261136c565b9784890360808601528251808a52818a019180808360051b8d01019501926000905b83821061345e5750505050506104e9969750906134459184820360a0860152612232565b9360c083015260e08201526101008184039101526104b3565b9091929395838061347d8f93600194601f199082030186528a516104b3565b98019201920190939291613421565b9194939092946134a48651602088012082868661228f565b958351855190818114801590613638575b8015613630575b61360757505065ffffffffffff94856134e2612c9c8a6000526004602052604060002090565b166135e0577f7d84a6263ae0d98d3329bd7b46bb4e8d6f98cd35a7adb45c274c8b7fd5ebd5e0956135db9363ffffffff61352b61351d6120df565b6008549480861691166128a2565b9260301c166135b96135478c6000526004602052604060002090565b80546001600160a01b0319166001600160a01b038a1617815561359061356c86612862565b825465ffffffffffff60a01b191660a09190911b65ffffffffffff60a01b16178255565b61359983613bae565b815463ffffffff60d01b191660d09190911b63ffffffff60d01b16179055565b6135cd6135c68951613373565b91846128a2565b936040519889988d8a6133bd565b0390a1565b876135ea816124b7565b6040516331b75e4d60e01b81529182916115829160048401612381565b8351604051630447b05d60e41b8152600481019290925260248201526044810191909152606490fd5b5080156134bc565b5083518114156134b5565b60ff81146136815760ff811690601f821161366f576040519161366583610648565b8252602082015290565b604051632cd44ac360e21b8152600490fd5b506040516000816000549161369583611cf8565b8083529260209060019081811690811561372057506001146136c0575b50506104e9925003826106b5565b915092600080527f290decd9548b62a8d60345a988386fc84ba6bc95484008f6362f93160ef3e563936000925b82841061370857506104e994505050810160200138806136b2565b855487850183015294850194869450928101926136ed565b915050602092506104e994915060ff191682840152151560051b82010138806136b2565b60ff81146137665760ff811690601f821161366f576040519161366583610648565b5060405160008160019160015461377c81611cf8565b808452936020916001811690811561372057506001146137a45750506104e9925003826106b5565b91509260016000527fb10e2d527612073b26eecdfd717e6a320cf44b4afac2b0732d9fcbe2b7fa0cf6936000925b8284106137ed57506104e994505050810160200138806136b2565b855487850183015294850194869450928101926137d2565b600a549068010000000000000000821015610643576001820180600a55821015611d5c576106e391600a600052600080516020613bdf833981519152019061386a65ffffffffffff825116839065ffffffffffff1665ffffffffffff19825416179055565b60200151815465ffffffffffff1660309190911b65ffffffffffff1916179055565b90604051604081018181106001600160401b0382111761064357604052915465ffffffffffff8116835260301c6020830152565b600a5491929190811561399b576138e16138dc61205a84611fa4565b61388c565b805165ffffffffffff8381169491168410613989578560209361394d95613911612792865165ffffffffffff1690565b03613951575061392661205a61393f93611fa4565b9065ffffffffffff82549181199060301b169116179055565b01516001600160d01b031690565b9190565b905061398491506139716139636106d6565b65ffffffffffff9092168252565b6001600160d01b03871681850152613805565b61393f565b604051632520601d60e01b8152600490fd5b6139bf91506139ab6139636106d6565b6001600160d01b0384166020820152613805565b60009190565b600052600b6020526040600020600460205265ffffffffffff60406000205460a01c169060405191632394e7a360e21b835280600484015260208360248160018060a01b037f0000000000000000000000000000000000000000000000000000000000000000165afa928315610b9357600093613a75575b50613a4790611fc2565b91828102928184041490151715611c8957613a6e81600260016064940154910154906128a2565b9104111590565b613a47919350613a939060203d602011610bbe57610baf81836106b5565b9290613a3d565b91907f7fffffffffffffffffffffffffffffff5d576e7357a4501ddfe92f46681b20a08411613b1257926020929160ff608095604051948552168484015260408301526060820152600092839182805260015afa15610b935780516001600160a01b03811615613b0957918190565b50809160019190565b50505060009160039190565b9080821015613b2b575090565b905090565b60f81c9081602f1080613ba4575b15613b5057600191602f190160ff1690565b8160401080613b9a575b15613b6c576001916036190160ff1690565b8160601080613b90575b15613b88576001916056190160ff1690565b600091508190565b5060678210613b76565b5060478210613b5a565b50603a8210613b3e565b63ffffffff90818111613bbf571690565b604490604051906306dfcc6560e41b8252602060048301526024820152fdfec65a7bb8d6351c1cf70c95a316cc6a92839c986682d98bc35f958f4883f9d2a8a2646970667358221220f855570143106709d027d62131e0cbe97de1d3079ddfd625cc212bdb91584d9564736f6c63430008180033c65a7bb8d6351c1cf70c95a316cc6a92839c986682d98bc35f958f4883f9d2a80553476bf02ef2726e8ce5ced78d63e26e602e4a2257b1f559418e24b4633997",
  "linkReferences": {},
  "deployedLinkReferences": {}
}