{
  "_format": "hh-sol-artifact-1",
  "contractName": "ContractFactory",
  "sourceName": "contracts/ContractFactory.sol",
  "abi": [
    {
      "anonymous": false,
      "inputs": [
        {
          "indexed": true,
          "internalType": "address",
          "name": "owner",
          "type": "address"
        },
        {
          "indexed": false,
          "internalType": "address",
          "name": "governor",
          "type": "address"
        },
        {
          "indexed": false,
          "internalType": "address",
          "name": "timelock",
          "type": "address"
        },
        {
          "indexed": false,
          "internalType": "address",
          "name": "token",
          "type": "address"
        },
        {
          "indexed": false,
          "internalType": "address",
          "name": "treasury",
          "type": "address"
        }
      ],
      "name": "DAOCreated",
      "type": "event"
    },
    {
      "anonymous": false,
      "inputs": [
        {
          "indexed": true,
          "internalType": "address",
          "name": "payer",
          "type": "address"
        },
        {
          "indexed": true,
          "internalType": "address",
          "name": "payee",
          "type": "address"
        },
        {
          "indexed": true,
          "internalType": "address",
          "name": "escrowAddress",
          "type": "address"
        }
      ],
      "name": "EscrowCreated",
      "type": "event"
    },
    {
      "anonymous": false,
      "inputs": [
        {
          "indexed": true,
          "internalType": "address",
          "name": "owner",
          "type": "address"
        },
        {
          "indexed": true,
          "internalType": "address",
          "name": "ticketAddress",
          "type": "address"
        }
      ],
      "name": "EventTicketCreated",
      "type": "event"
    },
    {
      "anonymous": false,
      "inputs": [
        {
          "indexed": true,
          "internalType": "address",
          "name": "owner",
          "type": "address"
        },
        {
          "indexed": true,
          "internalType": "address",
          "name": "fractionalizerAddress",
          "type": "address"
        }
      ],
      "name": "FractionalizerCreated",
      "type": "event"
    },
    {
      "anonymous": false,
      "inputs": [
        {
          "indexed": true,
          "internalType": "address",
          "name": "owner",
          "type": "address"
        },
        {
          "indexed": true,
          "internalType": "address",
          "name": "nftAddress",
          "type": "address"
        }
      ],
      "name": "NFTCollectionCreated",
      "type": "event"
    },
    {
      "inputs": [
        {
          "internalType": "uint256",
          "name": "minTimelockDelay",
          "type": "uint256"
        }
      ],
      "name": "createDAO",
      "outputs": [],
      "stateMutability": "nonpayable",
      "type": "function"
    },
    {
      "inputs": [
        {
          "internalType": "address",
          "name": "payee",
          "type": "address"
        }
      ],
      "name": "createEscrow",
      "outputs": [],
      "stateMutability": "nonpayable",
      "type": "function"
    },
    {
      "inputs": [
        {
          "internalType": "string",
          "name": "uri",
          "type": "string"
        }
      ],
      "name": "createEventTicket",
      "outputs": [],
      "stateMutability": "nonpayable",
      "type": "function"
    },
    {
      "inputs": [
        {
          "internalType": "string",
          "name": "name",
          "type": "string"
        },
        {
          "internalType": "string",
          "name": "symbol",
          "type": "string"
        },
        {
          "internalType": "address",
          "name": "nftAddress",
          "type": "address"
        },
        {
          "internalType": "uint256",
          "name": "nftId",
          "type": "uint256"
        },
        {
          "internalType": "uint256",
          "name": "totalSupply",
          "type": "uint256"
        }
      ],
      "name": "createFractionalizer",
      "outputs": [],
      "stateMutability": "nonpayable",
      "type": "function"
    },
    {
      "inputs": [
        {
          "internalType": "string",
          "name": "name",
          "type": "string"
        },
        {
          "internalType": "string",
          "name": "symbol",
          "type": "string"
        }
      ],
      "name": "createNFTCollection",
      "outputs": [],
      "stateMutability": "nonpayable",
      "type": "function"
    }
  ],
  "bytecode": "0x6080604052348015600e575f80fd5b5061e2d38061001c5f395ff3fe608060405234801561000f575f80fd5b5060043610610055575f3560e01c806366223a18146100595780638c4ae92c1461006e5780638ca3dbe314610081578063ac0bdc0714610094578063f6a8419e146100a7575b5f80fd5b61006c6100673660046107d2565b6100ba565b005b61006c61007c36600461084c565b61012d565b61006c61008f3660046108cb565b6101a8565b61006c6100a23660046108e2565b6105c4565b61006c6100b536600461091b565b610634565b5f3383836040516100ca906106ce565b6100d693929190610969565b604051809103905ff0801580156100ef573d5f803e3d5ffd5b506040519091506001600160a01b0382169033907f3fae07dc12cbcda9b511751519c44c4a152a6027e77d9d68d1d2dcae86bf3460905f90a3505050565b5f338686868686604051610140906106db565b61014f969594939291906109a8565b604051809103905ff080158015610168573d5f803e3d5ffd5b506040519091506001600160a01b0382169033907ee554440e7a639311b9a57d1274550530ea2c008afae3d14aa3d1f1406370dd905f90a3505050505050565b5f336040516101b6906106e8565b6101c091906109f9565b604051809103905ff0801580156101d9573d5f803e3d5ffd5b506040805160018082528183019092529192505f91906020808301908036833750506040805160018082528183019092529293505f929150602080830190803683370190505090505f815f8151811061023457610234610a0d565b60200260200101906001600160a01b031690816001600160a01b0316815250505f84838333604051610265906106f5565b6102729493929190610a64565b604051809103905ff08015801561028b573d5f803e3d5ffd5b5090505f848260405161029d90610702565b6001600160a01b03928316815291166020820152604001604051809103905ff0801580156102cd573d5f803e3d5ffd5b5090505f816040516102de9061070f565b6102e891906109f9565b604051809103905ff080158015610301573d5f803e3d5ffd5b50905081855f8151811061031757610317610a0d565b60200260200101906001600160a01b031690816001600160a01b031681525050826001600160a01b0316632f2ff15d846001600160a01b0316638f61f4f56040518163ffffffff1660e01b8152600401602060405180830381865afa158015610382573d5f803e3d5ffd5b505050506040513d601f19601f820116820180604052508101906103a69190610aa8565b846040518363ffffffff1660e01b81526004016103c4929190610abf565b5f604051808303815f87803b1580156103db575f80fd5b505af11580156103ed573d5f803e3d5ffd5b50505050826001600160a01b0316632f2ff15d846001600160a01b031663b08e51c06040518163ffffffff1660e01b8152600401602060405180830381865afa15801561043c573d5f803e3d5ffd5b505050506040513d601f19601f820116820180604052508101906104609190610aa8565b846040518363ffffffff1660e01b815260040161047e929190610abf565b5f604051808303815f87803b158015610495575f80fd5b505af11580156104a7573d5f803e3d5ffd5b50505050826001600160a01b03166336568abe846001600160a01b031663a217fddf6040518163ffffffff1660e01b8152600401602060405180830381865afa1580156104f6573d5f803e3d5ffd5b505050506040513d601f19601f8201168201806040525081019061051a9190610aa8565b336040518363ffffffff1660e01b8152600401610538929190610abf565b5f604051808303815f87803b15801561054f575f80fd5b505af1158015610561573d5f803e3d5ffd5b5050604080516001600160a01b03868116825287811660208301528a8116828401528516606082015290513393507f3851883759d281f82bac6f4cc9e0f6e27725a746d95709339910127855bcec8792509081900360800190a250505050505050565b5f33826040516105d39061071c565b6105de929190610ad6565b604051809103905ff0801580156105f7573d5f803e3d5ffd5b506040519091506001600160a01b0382169033907fedfadc802cafcadc52b050f0251ff1c7887e52396de462bb153eaf784dc12715905f90a35050565b5f33823360405161064490610729565b6001600160a01b03938416815291831660208301529091166040820152606001604051809103905ff08015801561067d573d5f803e3d5ffd5b509050806001600160a01b0316826001600160a01b0316336001600160a01b03167f4743c0c2884de4f19f280dbd2cc93bc24491cdf876ed107046fe8194183c09e960405160405180910390a45050565b6116ae80610afa83390190565b610f5e806121a883390190565b6122988061310683390190565b611c508061539e83390190565b614c8c80616fee83390190565b6103558061bc7a83390190565b611a0b8061bfcf83390190565b6108c48061d9da83390190565b634e487b7160e01b5f52604160045260245ffd5b5f82601f830112610759575f80fd5b81356001600160401b038082111561077357610773610736565b604051601f8301601f19908116603f0116810190828211818310171561079b5761079b610736565b816040528381528660208588010111156107b3575f80fd5b836020870160208301375f602085830101528094505050505092915050565b5f80604083850312156107e3575f80fd5b82356001600160401b03808211156107f9575f80fd5b6108058683870161074a565b9350602085013591508082111561081a575f80fd5b506108278582860161074a565b9150509250929050565b80356001600160a01b0381168114610847575f80fd5b919050565b5f805f805f60a08688031215610860575f80fd5b85356001600160401b0380821115610876575f80fd5b61088289838a0161074a565b96506020880135915080821115610897575f80fd5b506108a48882890161074a565b9450506108b360408701610831565b94979396509394606081013594506080013592915050565b5f602082840312156108db575f80fd5b5035919050565b5f602082840312156108f2575f80fd5b81356001600160401b03811115610907575f80fd5b6109138482850161074a565b949350505050565b5f6020828403121561092b575f80fd5b61093482610831565b9392505050565b5f81518084528060208401602086015e5f602082860101526020601f19601f83011685010191505092915050565b6001600160a01b03841681526060602082018190525f9061098c9083018561093b565b828103604084015261099e818561093b565b9695505050505050565b5f60018060a01b03808916835260c060208401526109c960c084018961093b565b83810360408501526109db818961093b565b91909616606084015260808301949094525060a00152949350505050565b6001600160a01b0391909116815260200190565b634e487b7160e01b5f52603260045260245ffd5b5f815180845260208085019450602084015f5b83811015610a595781516001600160a01b031687529582019590820190600101610a34565b509495945050505050565b848152608060208201525f610a7c6080830186610a21565b8281036040840152610a8e8186610a21565b91505060018060a01b038316606083015295945050505050565b5f60208284031215610ab8575f80fd5b5051919050565b9182526001600160a01b0316602082015260400190565b6001600160a01b03831681526040602082018190525f906109139083018461093b56fe608060405234801561000f575f80fd5b506040516116ae3803806116ae83398101604081905261002e91610178565b8282825f61003c8382610278565b5060016100498282610278565b5050506001600160a01b03811661007957604051631e4fbdf760e01b81525f600482015260240160405180910390fd5b6100828161008b565b50505050610337565b600780546001600160a01b038381166001600160a01b0319831681179093556040519116919082907f8be0079c531659141344cd1fd0a4f28419497f9722a3daafe3b4186f6b6457e0905f90a35050565b634e487b7160e01b5f52604160045260245ffd5b5f82601f8301126100ff575f80fd5b81516001600160401b0380821115610119576101196100dc565b604051601f8301601f19908116603f01168101908282118183101715610141576101416100dc565b81604052838152866020858801011115610159575f80fd5b8360208701602083015e5f602085830101528094505050505092915050565b5f805f6060848603121561018a575f80fd5b83516001600160a01b03811681146101a0575f80fd5b60208501519093506001600160401b03808211156101bc575f80fd5b6101c8878388016100f0565b935060408601519150808211156101dd575f80fd5b506101ea868287016100f0565b9150509250925092565b600181811c9082168061020857607f821691505b60208210810361022657634e487b7160e01b5f52602260045260245ffd5b50919050565b601f82111561027357805f5260205f20601f840160051c810160208510156102515750805b601f840160051c820191505b81811015610270575f815560010161025d565b50505b505050565b81516001600160401b03811115610291576102916100dc565b6102a58161029f84546101f4565b8461022c565b602080601f8311600181146102d8575f84156102c15750858301515b5f19600386901b1c1916600185901b17855561032f565b5f85815260208120601f198616915b82811015610306578886015182559484019460019091019084016102e7565b508582101561032357878501515f19600388901b60f8161c191681555b505060018460011b0185555b505050505050565b61136a806103445f395ff3fe608060405234801561000f575f80fd5b50600436106100d9575f3560e01c806301ffc9a7146100dd57806306fdde0314610105578063081812fc1461011a578063095ea7b31461013a57806323b872dd1461014f57806342842e0e146101625780636352211e1461017557806370a0823114610188578063715018a6146101a95780638da5cb5b146101b157806395d89b41146101b9578063a22cb465146101c1578063b88d4fde146101d4578063c87b56dd146101e7578063d204c45e146101fa578063e985e9c51461020d578063f2fde38b14610220575b5f80fd5b6100f06100eb366004610e79565b610233565b60405190151581526020015b60405180910390f35b61010d61025d565b6040516100fc9190610ec2565b61012d610128366004610ed4565b6102ec565b6040516100fc9190610eeb565b61014d610148366004610f1a565b610300565b005b61014d61015d366004610f42565b61030f565b61014d610170366004610f42565b6103a1565b61012d610183366004610ed4565b6103c0565b61019b610196366004610f7b565b6103ca565b6040519081526020016100fc565b61014d61040f565b61012d610422565b61010d610431565b61014d6101cf366004610f94565b610440565b61014d6101e2366004611053565b61044b565b61010d6101f5366004610ed4565b610463565b61014d6102083660046110c9565b61056e565b6100f061021b366004611126565b6105a0565b61014d61022e366004610f7b565b6105cd565b5f6001600160e01b03198216632483248360e11b148061025757506102578261060a565b92915050565b60605f805461026b90611157565b80601f016020809104026020016040519081016040528092919081815260200182805461029790611157565b80156102e25780601f106102b9576101008083540402835291602001916102e2565b820191905f5260205f20905b8154815290600101906020018083116102c557829003601f168201915b5050505050905090565b5f6102f682610659565b5061025782610690565b61030b8282336106aa565b5050565b6001600160a01b038216610341575f604051633250574960e11b81526004016103389190610eeb565b60405180910390fd5b5f61034d8383336106b7565b9050836001600160a01b0316816001600160a01b03161461039b576040516364283d7b60e01b81526001600160a01b0380861660048301526024820184905282166044820152606401610338565b50505050565b6103bb83838360405180602001604052805f81525061044b565b505050565b5f61025782610659565b5f6001600160a01b0382166103f4575f6040516322718ad960e21b81526004016103389190610eeb565b506001600160a01b03165f9081526003602052604090205490565b6104176107a4565b6104205f6107d6565b565b6007546001600160a01b031690565b60606001805461026b90611157565b61030b338383610827565b61045684848461030f565b61039b33858585856108bc565b606061046e82610659565b505f828152600660205260408120805461048790611157565b80601f01602080910402602001604051908101604052809291908181526020018280546104b390611157565b80156104fe5780601f106104d5576101008083540402835291602001916104fe565b820191905f5260205f20905b8154815290600101906020018083116104e157829003601f168201915b505050505090505f61051a60408051602081019091525f815290565b905080515f0361052b575092915050565b81511561055d5780826040516020016105459291906111a6565b60405160208183030381529060405292505050919050565b610566846109d2565b949350505050565b6105766107a4565b600880545f9182610586836111ba565b9190505590506105968382610a43565b6103bb8183610a5c565b6001600160a01b039182165f90815260056020908152604080832093909416825291909152205460ff1690565b6105d56107a4565b6001600160a01b0381166105fe575f604051631e4fbdf760e01b81526004016103389190610eeb565b610607816107d6565b50565b5f6001600160e01b031982166380ac58cd60e01b148061063a57506001600160e01b03198216635b5e139f60e01b145b8061025757506301ffc9a760e01b6001600160e01b0319831614610257565b5f8061066483610aab565b90506001600160a01b03811661025757604051637e27328960e01b815260048101849052602401610338565b5f908152600460205260409020546001600160a01b031690565b6103bb8383836001610ac5565b5f806106c284610aab565b90506001600160a01b038316156106de576106de818486610bc0565b6001600160a01b03811615610718576106f95f855f80610ac5565b6001600160a01b0381165f90815260036020526040902080545f190190555b6001600160a01b03851615610746576001600160a01b0385165f908152600360205260409020805460010190555b5f8481526002602052604080822080546001600160a01b0319166001600160a01b0389811691821790925591518793918516917fddf252ad1be2c89b69c2b068fc378daa952ba7f163c4a11628f55a4df523b3ef91a4949350505050565b336107ad610422565b6001600160a01b031614610420573360405163118cdaa760e01b81526004016103389190610eeb565b600780546001600160a01b038381166001600160a01b0319831681179093556040519116919082907f8be0079c531659141344cd1fd0a4f28419497f9722a3daafe3b4186f6b6457e0905f90a35050565b6001600160a01b0382166108505781604051630b61174360e31b81526004016103389190610eeb565b6001600160a01b038381165f81815260056020908152604080832094871680845294825291829020805460ff191686151590811790915591519182527f17307eab39ab6107e8899845ad3d59bd9653f200f220920489ca2b5937696c31910160405180910390a3505050565b6001600160a01b0383163b156109cb57604051630a85bd0160e11b81526001600160a01b0384169063150b7a02906108fe9088908890879087906004016111de565b6020604051808303815f875af1925050508015610938575060408051601f3d908101601f191682019092526109359181019061121a565b60015b610996573d808015610965576040519150601f19603f3d011682016040523d82523d5f602084013e61096a565b606091505b5080515f0361098e5783604051633250574960e11b81526004016103389190610eeb565b805160208201fd5b6001600160e01b03198116630a85bd0160e11b146109c95783604051633250574960e11b81526004016103389190610eeb565b505b5050505050565b60606109dd82610659565b505f6109f360408051602081019091525f815290565b90505f815111610a115760405180602001604052805f815250610a3c565b80610a1b84610c24565b604051602001610a2c9291906111a6565b6040516020818303038152906040525b9392505050565b61030b828260405180602001604052805f815250610cb3565b5f828152600660205260409020610a738282611279565b506040518281527ff8e1a15aba9398e019f0b49df1a4fde98ee17ae345cb5f6b5e2c27f5033e8ce79060200160405180910390a15050565b5f908152600260205260409020546001600160a01b031690565b8080610ad957506001600160a01b03821615155b15610b91575f610ae884610659565b90506001600160a01b03831615801590610b145750826001600160a01b0316816001600160a01b031614155b8015610b275750610b2581846105a0565b155b15610b47578260405163a9fbf51f60e01b81526004016103389190610eeb565b8115610b8f5783856001600160a01b0316826001600160a01b03167f8c5be1e5ebec7d5bd14f71427d1e84f3dd0314c0f7b2291e5b200ac8c7c3b92560405160405180910390a45b505b50505f90815260046020526040902080546001600160a01b0319166001600160a01b0392909216919091179055565b610bcb838383610cca565b6103bb576001600160a01b038316610bf957604051637e27328960e01b815260048101829052602401610338565b60405163177e802f60e01b81526001600160a01b038316600482015260248101829052604401610338565b60605f610c3083610d2e565b60010190505f816001600160401b03811115610c4e57610c4e610fcd565b6040519080825280601f01601f191660200182016040528015610c78576020820181803683370190505b5090508181016020015b5f19016f181899199a1a9b1b9c1cb0b131b232b360811b600a86061a8153600a8504945084610c8257509392505050565b610cbd8383610e03565b6103bb335f8585856108bc565b5f6001600160a01b038316158015906105665750826001600160a01b0316846001600160a01b03161480610d035750610d0384846105a0565b806105665750826001600160a01b0316610d1c83610690565b6001600160a01b031614949350505050565b5f8072184f03e93ff9f4daa797ed6e38ed64bf6a1f0160401b8310610d6c5772184f03e93ff9f4daa797ed6e38ed64bf6a1f0160401b830492506040015b6904ee2d6d415b85acef8160201b8310610d96576904ee2d6d415b85acef8160201b830492506020015b662386f26fc100008310610db457662386f26fc10000830492506010015b6305f5e1008310610dcc576305f5e100830492506008015b6127108310610de057612710830492506004015b60648310610df2576064830492506002015b600a83106102575760010192915050565b6001600160a01b038216610e2c575f604051633250574960e11b81526004016103389190610eeb565b5f610e3883835f6106b7565b90506001600160a01b038116156103bb575f6040516339e3563760e11b81526004016103389190610eeb565b6001600160e01b031981168114610607575f80fd5b5f60208284031215610e89575f80fd5b8135610a3c81610e64565b5f81518084528060208401602086015e5f602082860101526020601f19601f83011685010191505092915050565b602081525f610a3c6020830184610e94565b5f60208284031215610ee4575f80fd5b5035919050565b6001600160a01b0391909116815260200190565b80356001600160a01b0381168114610f15575f80fd5b919050565b5f8060408385031215610f2b575f80fd5b610f3483610eff565b946020939093013593505050565b5f805f60608486031215610f54575f80fd5b610f5d84610eff565b9250610f6b60208501610eff565b9150604084013590509250925092565b5f60208284031215610f8b575f80fd5b610a3c82610eff565b5f8060408385031215610fa5575f80fd5b610fae83610eff565b915060208301358015158114610fc2575f80fd5b809150509250929050565b634e487b7160e01b5f52604160045260245ffd5b5f6001600160401b0380841115610ffa57610ffa610fcd565b604051601f8501601f19908116603f0116810190828211818310171561102257611022610fcd565b8160405280935085815286868601111561103a575f80fd5b858560208301375f602087830101525050509392505050565b5f805f8060808587031215611066575f80fd5b61106f85610eff565b935061107d60208601610eff565b92506040850135915060608501356001600160401b0381111561109e575f80fd5b8501601f810187136110ae575f80fd5b6110bd87823560208401610fe1565b91505092959194509250565b5f80604083850312156110da575f80fd5b6110e383610eff565b915060208301356001600160401b038111156110fd575f80fd5b8301601f8101851361110d575f80fd5b61111c85823560208401610fe1565b9150509250929050565b5f8060408385031215611137575f80fd5b61114083610eff565b915061114e60208401610eff565b90509250929050565b600181811c9082168061116b57607f821691505b60208210810361118957634e487b7160e01b5f52602260045260245ffd5b50919050565b5f81518060208401855e5f93019283525090919050565b5f6105666111b4838661118f565b8461118f565b5f600182016111d757634e487b7160e01b5f52601160045260245ffd5b5060010190565b6001600160a01b03858116825284166020820152604081018390526080606082018190525f9061121090830184610e94565b9695505050505050565b5f6020828403121561122a575f80fd5b8151610a3c81610e64565b601f8211156103bb57805f5260205f20601f840160051c8101602085101561125a5750805b601f840160051c820191505b818110156109cb575f8155600101611266565b81516001600160401b0381111561129257611292610fcd565b6112a6816112a08454611157565b84611235565b602080601f8311600181146112d9575f84156112c25750858301515b5f19600386901b1c1916600185901b1785556109c9565b5f85815260208120601f198616915b82811015611307578886015182559484019460019091019084016112e8565b508582101561132457878501515f19600388901b60f8161c191681555b5050505050600190811b0190555056fea264697066735822122077beba2bbdb539cffa85478fa34dad961a26078ff4e4be9c6a4d52b3eac891d864736f6c63430008190033608060405234801561000f575f80fd5b50604051610f5e380380610f5e83398101604081905261002e91610390565b858585600361003d83826104a5565b50600461004a82826104a5565b5050506001600160a01b03811661007f575f604051631e4fbdf760e01b81526004016100769190610564565b60405180910390fd5b6100888161012a565b506001600655600780546001600160a01b0319166001600160a01b03851617905560088290556100b8868261017b565b6007546040516323b872dd60e01b81526001600160a01b03888116600483015230602483015260448201859052909116906323b872dd906064015f604051808303815f87803b158015610109575f80fd5b505af115801561011b573d5f803e3d5ffd5b5050505050505050505061059d565b600580546001600160a01b038381166001600160a01b0319831681179093556040519116919082907f8be0079c531659141344cd1fd0a4f28419497f9722a3daafe3b4186f6b6457e0905f90a35050565b6001600160a01b0382166101a4575f60405163ec442f0560e01b81526004016100769190610564565b6101af5f83836101b3565b5050565b6001600160a01b0383166101dd578060025f8282546101d29190610578565b9091555061024d9050565b6001600160a01b0383165f908152602081905260409020548181101561022f5760405163391434e360e21b81526001600160a01b03851660048201526024810182905260448101839052606401610076565b6001600160a01b0384165f9081526020819052604090209082900390555b6001600160a01b03821661026957600280548290039055610287565b6001600160a01b0382165f9081526020819052604090208054820190555b816001600160a01b0316836001600160a01b03167fddf252ad1be2c89b69c2b068fc378daa952ba7f163c4a11628f55a4df523b3ef836040516102cc91815260200190565b60405180910390a3505050565b80516001600160a01b03811681146102ef575f80fd5b919050565b634e487b7160e01b5f52604160045260245ffd5b5f82601f830112610317575f80fd5b81516001600160401b0380821115610331576103316102f4565b604051601f8301601f19908116603f01168101908282118183101715610359576103596102f4565b81604052838152866020858801011115610371575f80fd5b8360208701602083015e5f602085830101528094505050505092915050565b5f805f805f8060c087890312156103a5575f80fd5b6103ae876102d9565b60208801519096506001600160401b03808211156103ca575f80fd5b6103d68a838b01610308565b965060408901519150808211156103eb575f80fd5b506103f889828a01610308565b945050610407606088016102d9565b92506080870151915060a087015190509295509295509295565b600181811c9082168061043557607f821691505b60208210810361045357634e487b7160e01b5f52602260045260245ffd5b50919050565b601f8211156104a057805f5260205f20601f840160051c8101602085101561047e5750805b601f840160051c820191505b8181101561049d575f815560010161048a565b50505b505050565b81516001600160401b038111156104be576104be6102f4565b6104d2816104cc8454610421565b84610459565b602080601f831160018114610505575f84156104ee5750858301515b5f19600386901b1c1916600185901b17855561055c565b5f85815260208120601f198616915b8281101561053357888601518255948401946001909101908401610514565b508582101561055057878501515f19600388901b60f8161c191681555b505060018460011b0185555b505050505050565b6001600160a01b0391909116815260200190565b8082018082111561059757634e487b7160e01b5f52601160045260245ffd5b92915050565b6109b4806105aa5f395ff3fe608060405234801561000f575f80fd5b50600436106100c3575f3560e01c806306fdde03146100c7578063095ea7b3146100e557806318160ddd1461010857806323b872dd1461011a578063313ce5671461012d57806347ccca021461013c57806370a082311461015c578063715018a61461016f5780638da5cb5b1461017957806395d89b4114610181578063a9059cbb14610189578063be040fb01461019c578063c6bc5182146101a4578063dd62ed3e146101ad578063f2fde38b146101c0575b5f80fd5b6100cf6101d3565b6040516100dc91906107f0565b60405180910390f35b6100f86100f3366004610840565b610263565b60405190151581526020016100dc565b6002545b6040519081526020016100dc565b6100f8610128366004610868565b61027c565b604051601281526020016100dc565b60075461014f906001600160a01b031681565b6040516100dc91906108a1565b61010c61016a3660046108b5565b61029f565b6101776102b9565b005b61014f6102cc565b6100cf6102db565b6100f8610197366004610840565b6102ea565b6101776102f7565b61010c60085481565b61010c6101bb3660046108d5565b6103ff565b6101776101ce3660046108b5565b610429565b6060600380546101e290610906565b80601f016020809104026020016040519081016040528092919081815260200182805461020e90610906565b80156102595780601f1061023057610100808354040283529160200191610259565b820191905f5260205f20905b81548152906001019060200180831161023c57829003601f168201915b5050505050905090565b5f33610270818585610466565b60019150505b92915050565b5f33610289858285610478565b6102948585856104c9565b506001949350505050565b6001600160a01b03165f9081526020819052604090205490565b6102c1610526565b6102ca5f610558565b565b6005546001600160a01b031690565b6060600480546101e290610906565b5f336102708185856104c9565b6102ff6105a9565b60025461030b3361029f565b1461037a5760405162461bcd60e51b815260206004820152603460248201527f596f75206d757374206f776e20616c6c206672616374696f6e616c2073686172604482015273195cc81d1bc81c995919595b481d1a194813919560621b60648201526084015b60405180910390fd5b61038c3361038760025490565b6105d3565b6007546008546040516323b872dd60e01b815230600482015233602482015260448101919091526001600160a01b03909116906323b872dd906064015f604051808303815f87803b1580156103df575f80fd5b505af11580156103f1573d5f803e3d5ffd5b505050506102ca6001600655565b6001600160a01b039182165f90815260016020908152604080832093909416825291909152205490565b610431610526565b6001600160a01b03811661045a575f604051631e4fbdf760e01b815260040161037191906108a1565b61046381610558565b50565b610473838383600161060b565b505050565b5f61048384846103ff565b90505f198110156104c357818110156104b557828183604051637dc7a0d960e11b81526004016103719392919061093e565b6104c384848484035f61060b565b50505050565b6001600160a01b0383166104f2575f604051634b637e8f60e11b815260040161037191906108a1565b6001600160a01b03821661051b575f60405163ec442f0560e01b815260040161037191906108a1565b6104738383836106dd565b3361052f6102cc565b6001600160a01b0316146102ca573360405163118cdaa760e01b815260040161037191906108a1565b600580546001600160a01b038381166001600160a01b0319831681179093556040519116919082907f8be0079c531659141344cd1fd0a4f28419497f9722a3daafe3b4186f6b6457e0905f90a35050565b6002600654036105cc57604051633ee5aeb560e01b815260040160405180910390fd5b6002600655565b6001600160a01b0382166105fc575f604051634b637e8f60e11b815260040161037191906108a1565b610607825f836106dd565b5050565b6001600160a01b038416610634575f60405163e602df0560e01b815260040161037191906108a1565b6001600160a01b03831661065d575f604051634a1406b160e11b815260040161037191906108a1565b6001600160a01b038085165f90815260016020908152604080832093871683529290522082905580156104c357826001600160a01b0316846001600160a01b03167f8c5be1e5ebec7d5bd14f71427d1e84f3dd0314c0f7b2291e5b200ac8c7c3b925846040516106cf91815260200190565b60405180910390a350505050565b6001600160a01b038316610707578060025f8282546106fc919061095f565b909155506107649050565b6001600160a01b0383165f90815260208190526040902054818110156107465783818360405163391434e360e21b81526004016103719392919061093e565b6001600160a01b0384165f9081526020819052604090209082900390555b6001600160a01b0382166107805760028054829003905561079e565b6001600160a01b0382165f9081526020819052604090208054820190555b816001600160a01b0316836001600160a01b03167fddf252ad1be2c89b69c2b068fc378daa952ba7f163c4a11628f55a4df523b3ef836040516107e391815260200190565b60405180910390a3505050565b602081525f82518060208401528060208501604085015e5f604082850101526040601f19601f83011684010191505092915050565b80356001600160a01b038116811461083b575f80fd5b919050565b5f8060408385031215610851575f80fd5b61085a83610825565b946020939093013593505050565b5f805f6060848603121561087a575f80fd5b61088384610825565b925061089160208501610825565b9150604084013590509250925092565b6001600160a01b0391909116815260200190565b5f602082840312156108c5575f80fd5b6108ce82610825565b9392505050565b5f80604083850312156108e6575f80fd5b6108ef83610825565b91506108fd60208401610825565b90509250929050565b600181811c9082168061091a57607f821691505b60208210810361093857634e487b7160e01b5f52602260045260245ffd5b50919050565b6001600160a01b039390931683526020830191909152604082015260600190565b8082018082111561027657634e487b7160e01b5f52601160045260245ffdfea26469706673582212209a290c597a672795dedbd93333fe4b9adda0ca1c93f351f3a0e38ffde5cc79fd64736f6c63430008190033610160604052348015610010575f80fd5b5060405161229838038061229883398101604081905261002f91610283565b6040518060400160405280600e81526020016d25b0b630a5b93aba102a37b5b2b760911b81525080604051806040016040528060018152602001603160f81b815250836040518060400160405280600e81526020016d25b0b630a5b93aba102a37b5b2b760911b8152506040518060400160405280600381526020016212d2d560ea1b81525081600390816100c49190610348565b5060046100d18282610348565b5050506001600160a01b03811661010257604051631e4fbdf760e01b81525f60048201526024015b60405180910390fd5b61010b816101c3565b50610117826006610214565b61012052610126816007610214565b61014052815160208084019190912060e052815190820120610100524660a0526101b260e05161010051604080517f8b73c3c69bb8fe3d512ecc4cf759cc79239f7b179b0ffacaa9a75d522b39400f60208201529081019290925260608201524660808201523060a08201525f9060c00160405160208183030381529060405280519060200120905090565b60805250503060c0525061045f9050565b600580546001600160a01b038381166001600160a01b0319831681179093556040519116919082907f8be0079c531659141344cd1fd0a4f28419497f9722a3daafe3b4186f6b6457e0905f90a35050565b5f60208351101561022f5761022883610246565b9050610240565b8161023a8482610348565b5060ff90505b92915050565b5f80829050601f81511115610270578260405163305a27a960e01b81526004016100f99190610407565b805161027b8261043c565b179392505050565b5f60208284031215610293575f80fd5b81516001600160a01b03811681146102a9575f80fd5b9392505050565b634e487b7160e01b5f52604160045260245ffd5b600181811c908216806102d857607f821691505b6020821081036102f657634e487b7160e01b5f52602260045260245ffd5b50919050565b601f82111561034357805f5260205f20601f840160051c810160208510156103215750805b601f840160051c820191505b81811015610340575f815560010161032d565b50505b505050565b81516001600160401b03811115610361576103616102b0565b6103758161036f84546102c4565b846102fc565b602080601f8311600181146103a8575f84156103915750858301515b5f19600386901b1c1916600185901b1785556103ff565b5f85815260208120601f198616915b828110156103d6578886015182559484019460019091019084016103b7565b50858210156103f357878501515f19600388901b60f8161c191681555b505060018460011b0185555b505050505050565b602081525f82518060208401528060208501604085015e5f604082850101526040601f19601f83011684010191505092915050565b805160208083015191908110156102f6575f1960209190910360031b1b16919050565b60805160a05160c05160e051610100516101205161014051611de86104b05f395f610d4101525f610d1401525f610a4701525f610a1f01525f61097a01525f6109a401525f6109ce0152611de85ff3fe608060405234801561000f575f80fd5b5060043610610147575f3560e01c806306fdde031461014b578063095ea7b31461016957806318160ddd1461018c57806323b872dd1461019e578063313ce567146101b15780633644e515146101c05780633a46b1a8146101c857806340c10f19146101db5780634bf5d7e9146101f0578063587cde1e146101f85780635c19a95c146102185780636fcfff451461022b57806370a0823114610253578063715018a6146102665780637ecebe001461026e57806384b0196e146102815780638da5cb5b1461029c5780638e539e8c146102a457806391ddadf4146102b757806395d89b41146102d65780639ab24eb0146102de578063a9059cbb146102f1578063c3cda52014610304578063d505accf14610317578063dd62ed3e1461032a578063f1127ed81461033d578063f2fde38b1461037c575b5f80fd5b61015361038f565b60405161016091906119aa565b60405180910390f35b61017c6101773660046119d7565b61041f565b6040519015158152602001610160565b6002545b604051908152602001610160565b61017c6101ac3660046119ff565b610438565b60405160128152602001610160565b61019061045b565b6101906101d63660046119d7565b610469565b6101ee6101e93660046119d7565b6104a3565b005b6101536104b9565b61020b610206366004611a38565b610531565b6040516101609190611a51565b6101ee610226366004611a38565b61054e565b61023e610239366004611a38565b610559565b60405163ffffffff9091168152602001610160565b610190610261366004611a38565b610563565b6101ee61057d565b61019061027c366004611a38565b610590565b61028961059a565b6040516101609796959493929190611a65565b61020b6105dc565b6101906102b2366004611afc565b6105eb565b6102bf61060f565b60405165ffffffffffff9091168152602001610160565b610153610618565b6101906102ec366004611a38565b610627565b61017c6102ff3660046119d7565b610647565b6101ee610312366004611b23565b610654565b6101ee610325366004611b77565b610715565b610190610338366004611bdc565b61082e565b61035061034b366004611c0d565b610858565b60408051825165ffffffffffff1681526020928301516001600160d01b03169281019290925201610160565b6101ee61038a366004611a38565b610871565b60606003805461039e90611c4a565b80601f01602080910402602001604051908101604052809291908181526020018280546103ca90611c4a565b80156104155780601f106103ec57610100808354040283529160200191610415565b820191905f5260205f20905b8154815290600101906020018083116103f857829003601f168201915b5050505050905090565b5f3361042c8185856108ae565b60019150505b92915050565b5f336104458582856108c0565b610450858585610911565b506001949350505050565b5f61046461096e565b905090565b5f61049361047683610a97565b6001600160a01b0385165f908152600a6020526040902090610ae5565b6001600160d01b03169392505050565b6104ab610b95565b6104b58282610bc7565b5050565b60606104c3610bfb565b65ffffffffffff166104d361060f565b65ffffffffffff16146104f9576040516301bfc1c560e61b815260040160405180910390fd5b5060408051808201909152601d81527f6d6f64653d626c6f636b6e756d6265722666726f6d3d64656661756c74000000602082015290565b6001600160a01b039081165f908152600960205260409020541690565b336104b58183610c05565b5f61043282610c7e565b6001600160a01b03165f9081526020819052604090205490565b610585610b95565b61058e5f610c9f565b565b5f61043282610cf0565b5f6060805f805f60606105ab610d0d565b6105b3610d3a565b604080515f80825260208201909252600f60f81b9b939a50919850469750309650945092509050565b6005546001600160a01b031690565b5f6106006105f883610a97565b600b90610ae5565b6001600160d01b031692915050565b5f610464610bfb565b60606004805461039e90611c4a565b6001600160a01b0381165f908152600a6020526040812061060090610d67565b5f3361042c818585610911565b8342111561067d57604051632341d78760e11b8152600481018590526024015b60405180910390fd5b604080517fe48329057bfd03d55e49b547132e39cffd9c1820ad7b9d4c5307691425d15adf60208201526001600160a01b0388169181019190915260608101869052608081018590525f906106f6906106ee9060a00160405160208183030381529060405280519060200120610d9e565b858585610dca565b90506107028187610df6565b61070c8188610c05565b50505050505050565b834211156107395760405163313c898160e11b815260048101859052602401610674565b5f7f6e71edae12b1b97f4d1f60370fef10105fa2faae0126114a169c64845d6126c98888886107678c610e34565b6040805160208101969096526001600160a01b0394851690860152929091166060840152608083015260a082015260c0810186905260e0016040516020818303038152906040528051906020012090505f6107c182610d9e565b90505f6107d082878787610dca565b9050896001600160a01b0316816001600160a01b031614610817576040516325c0072360e11b81526001600160a01b0380831660048301528b166024820152604401610674565b6108228a8a8a6108ae565b50505050505050505050565b6001600160a01b039182165f90815260016020908152604080832093909416825291909152205490565b610860611966565b61086a8383610e56565b9392505050565b610879610b95565b6001600160a01b0381166108a2575f604051631e4fbdf760e01b81526004016106749190611a51565b6108ab81610c9f565b50565b6108bb8383836001610e7f565b505050565b5f6108cb848461082e565b90505f1981101561090b57818110156108fd57828183604051637dc7a0d960e11b815260040161067493929190611c82565b61090b84848484035f610e7f565b50505050565b6001600160a01b03831661093a575f604051634b637e8f60e11b81526004016106749190611a51565b6001600160a01b038216610963575f60405163ec442f0560e01b81526004016106749190611a51565b6108bb838383610f51565b5f306001600160a01b037f0000000000000000000000000000000000000000000000000000000000000000161480156109c657507f000000000000000000000000000000000000000000000000000000000000000046145b156109f057507f000000000000000000000000000000000000000000000000000000000000000090565b610464604080517f8b73c3c69bb8fe3d512ecc4cf759cc79239f7b179b0ffacaa9a75d522b39400f60208201527f0000000000000000000000000000000000000000000000000000000000000000918101919091527f000000000000000000000000000000000000000000000000000000000000000060608201524660808201523060a08201525f9060c00160405160208183030381529060405280519060200120905090565b5f80610aa161060f565b90508065ffffffffffff168310610adc57604051637669fc0f60e11b81526004810184905265ffffffffffff82166024820152604401610674565b61086a83610f5c565b81545f9081816005811115610b41575f610afe84610f8d565b610b089085611cb7565b5f8881526020902090915081015465ffffffffffff9081169087161015610b3157809150610b3f565b610b3c816001611cca565b92505b505b5f610b4e878785856110df565b90508015610b8857610b7287610b65600184611cb7565b5f91825260209091200190565b54600160301b90046001600160d01b0316610b8a565b5f5b979650505050505050565b33610b9e6105dc565b6001600160a01b03161461058e573360405163118cdaa760e01b81526004016106749190611a51565b6001600160a01b038216610bf0575f60405163ec442f0560e01b81526004016106749190611a51565b6104b55f8383610f51565b5f61046443610f5c565b5f610c0f83610531565b6001600160a01b038481165f8181526009602052604080822080546001600160a01b031916888616908117909155905194955093928516927f3134e8a2e6d97e929a7e54011ea5485d7d196dd5f0ba4d4ef95803e8e3fc257f9190a46108bb8183610c798661113e565b611148565b6001600160a01b0381165f908152600a60205260408120546104329061128b565b600580546001600160a01b038381166001600160a01b0319831681179093556040519116919082907f8be0079c531659141344cd1fd0a4f28419497f9722a3daafe3b4186f6b6457e0905f90a35050565b6001600160a01b0381165f90815260086020526040812054610432565b60606104647f000000000000000000000000000000000000000000000000000000000000000060066112b6565b60606104647f000000000000000000000000000000000000000000000000000000000000000060076112b6565b80545f908015610d9657610d8083610b65600184611cb7565b54600160301b90046001600160d01b031661086a565b5f9392505050565b5f610432610daa61096e565b8360405161190160f01b8152600281019290925260228201526042902090565b5f805f80610dda8888888861135f565b925092509250610dea828261141d565b50909695505050505050565b5f610e0083610e34565b90508082146108bb576040516301d4b62360e61b81526001600160a01b038416600482015260248101829052604401610674565b6001600160a01b03165f90815260086020526040902080546001810190915590565b610e5e611966565b6001600160a01b0383165f908152600a6020526040902061086a90836114d5565b6001600160a01b038416610ea8575f60405163e602df0560e01b81526004016106749190611a51565b6001600160a01b038316610ed1575f604051634a1406b160e11b81526004016106749190611a51565b6001600160a01b038085165f908152600160209081526040808320938716835292905220829055801561090b57826001600160a01b0316846001600160a01b03167f8c5be1e5ebec7d5bd14f71427d1e84f3dd0314c0f7b2291e5b200ac8c7c3b92584604051610f4391815260200190565b60405180910390a350505050565b6108bb838383611537565b5f65ffffffffffff821115610f89576030826040516306dfcc6560e41b8152600401610674929190611cdd565b5090565b5f60018211610f9a575090565b816001600160801b8210610fb35760809190911c9060401b5b600160401b8210610fc95760409190911c9060201b5b600160201b8210610fdf5760209190911c9060101b5b620100008210610ff45760109190911c9060081b5b61010082106110085760089190911c9060041b5b6010821061101b5760049190911c9060021b5b600482106110275760011b5b600302600190811c9081858161103f5761103f611cf0565b048201901c9050600181858161105757611057611cf0565b048201901c9050600181858161106f5761106f611cf0565b048201901c9050600181858161108757611087611cf0565b048201901c9050600181858161109f5761109f611cf0565b048201901c905060018185816110b7576110b7611cf0565b048201901c90506110d68185816110d0576110d0611cf0565b04821190565b90039392505050565b5f5b81831015611136575f6110f4848461159d565b5f8781526020902090915065ffffffffffff86169082015465ffffffffffff16111561112257809250611130565b61112d816001611cca565b93505b506110e1565b509392505050565b5f61043282610563565b816001600160a01b0316836001600160a01b03161415801561116957505f81115b156108bb576001600160a01b038316156111fd576001600160a01b0383165f908152600a6020526040812081906111ab906115b76111a6866115c2565b6115f0565b6001600160d01b031691506001600160d01b03169150846001600160a01b03165f80516020611d9383398151915283836040516111f2929190918252602082015260400190565b60405180910390a250505b6001600160a01b038216156108bb576001600160a01b0382165f908152600a602052604081208190611235906116286111a6866115c2565b6001600160d01b031691506001600160d01b03169150836001600160a01b03165f80516020611d93833981519152838360405161127c929190918252602082015260400190565b60405180910390a25050505050565b5f63ffffffff821115610f89576020826040516306dfcc6560e41b8152600401610674929190611cdd565b606060ff83146112d0576112c983611633565b9050610432565b8180546112dc90611c4a565b80601f016020809104026020016040519081016040528092919081815260200182805461130890611c4a565b80156113535780601f1061132a57610100808354040283529160200191611353565b820191905f5260205f20905b81548152906001019060200180831161133657829003601f168201915b50505050509050610432565b5f80806fa2a8918ca85bafe22016d0b997e4df60600160ff1b0384111561138e57505f91506003905082611413565b604080515f808252602082018084528a905260ff891692820192909252606081018790526080810186905260019060a0016020604051602081039080840390855afa1580156113df573d5f803e3d5ffd5b5050604051601f1901519150506001600160a01b03811661140a57505f925060019150829050611413565b92505f91508190505b9450945094915050565b5f82600381111561143057611430611d04565b03611439575050565b600182600381111561144d5761144d611d04565b0361146b5760405163f645eedf60e01b815260040160405180910390fd5b600282600381111561147f5761147f611d04565b036114a05760405163fce698f760e01b815260048101829052602401610674565b60038260038111156114b4576114b4611d04565b036104b5576040516335e2f38360e21b815260048101829052602401610674565b6114dd611966565b825f018263ffffffff16815481106114f7576114f7611d18565b5f9182526020918290206040805180820190915291015465ffffffffffff81168252600160301b90046001600160d01b0316918101919091529392505050565b611542838383611670565b6001600160a01b038316611592575f61155a60025490565b90506001600160d01b038082111561158f57604051630e58ae9360e11b81526004810183905260248101829052604401610674565b50505b6108bb838383611783565b5f6115ab6002848418611d2c565b61086a90848416611cca565b5f61086a8284611d4b565b5f6001600160d01b03821115610f895760d0826040516306dfcc6560e41b8152600401610674929190611cdd565b5f8061161b6115fd61060f565b61161361160988610d67565b868863ffffffff16565b8791906117e2565b915091505b935093915050565b5f61086a8284611d72565b60605f61163f836117ef565b6040805160208082528183019092529192505f91906020820181803683375050509182525060208101929092525090565b6001600160a01b03831661169a578060025f82825461168f9190611cca565b909155506116f79050565b6001600160a01b0383165f90815260208190526040902054818110156116d95783818360405163391434e360e21b815260040161067493929190611c82565b6001600160a01b0384165f9081526020819052604090209082900390555b6001600160a01b03821661171357600280548290039055611731565b6001600160a01b0382165f9081526020819052604090208054820190555b816001600160a01b0316836001600160a01b03167fddf252ad1be2c89b69c2b068fc378daa952ba7f163c4a11628f55a4df523b3ef8360405161177691815260200190565b60405180910390a3505050565b6001600160a01b0383166117a5576117a2600b6116286111a6846115c2565b50505b6001600160a01b0382166117c7576117c4600b6115b76111a6846115c2565b50505b6108bb6117d384610531565b6117dc84610531565b83611148565b5f8061161b858585611816565b5f60ff8216601f81111561043257604051632cd44ac360e21b815260040160405180910390fd5b82545f908190801561190c575f61183287610b65600185611cb7565b805490915065ffffffffffff80821691600160301b90046001600160d01b031690881682111561187557604051632520601d60e01b815260040160405180910390fd5b8765ffffffffffff168265ffffffffffff16036118ae57825465ffffffffffff16600160301b6001600160d01b038916021783556118fe565b6040805180820190915265ffffffffffff808a1682526001600160d01b03808a1660208085019182528d54600181018f555f8f81529190912094519151909216600160301b029216919091179101555b945085935061162092505050565b50506040805180820190915265ffffffffffff80851682526001600160d01b0380851660208085019182528854600181018a555f8a815291822095519251909316600160301b029190931617920191909155905081611620565b604080518082019091525f808252602082015290565b5f81518084528060208401602086015e5f602082860101526020601f19601f83011685010191505092915050565b602081525f61086a602083018461197c565b80356001600160a01b03811681146119d2575f80fd5b919050565b5f80604083850312156119e8575f80fd5b6119f1836119bc565b946020939093013593505050565b5f805f60608486031215611a11575f80fd5b611a1a846119bc565b9250611a28602085016119bc565b9150604084013590509250925092565b5f60208284031215611a48575f80fd5b61086a826119bc565b6001600160a01b0391909116815260200190565b60ff60f81b881681525f602060e06020840152611a8560e084018a61197c565b8381036040850152611a97818a61197c565b606085018990526001600160a01b038816608086015260a0850187905284810360c0860152855180825260208088019350909101905f5b81811015611aea57835183529284019291840191600101611ace565b50909c9b505050505050505050505050565b5f60208284031215611b0c575f80fd5b5035919050565b803560ff811681146119d2575f80fd5b5f805f805f8060c08789031215611b38575f80fd5b611b41876119bc565b95506020870135945060408701359350611b5d60608801611b13565b92506080870135915060a087013590509295509295509295565b5f805f805f805f60e0888a031215611b8d575f80fd5b611b96886119bc565b9650611ba4602089016119bc565b95506040880135945060608801359350611bc060808901611b13565b925060a0880135915060c0880135905092959891949750929550565b5f8060408385031215611bed575f80fd5b611bf6836119bc565b9150611c04602084016119bc565b90509250929050565b5f8060408385031215611c1e575f80fd5b611c27836119bc565b9150602083013563ffffffff81168114611c3f575f80fd5b809150509250929050565b600181811c90821680611c5e57607f821691505b602082108103611c7c57634e487b7160e01b5f52602260045260245ffd5b50919050565b6001600160a01b039390931683526020830191909152604082015260600190565b634e487b7160e01b5f52601160045260245ffd5b8181038181111561043257610432611ca3565b8082018082111561043257610432611ca3565b60ff929092168252602082015260400190565b634e487b7160e01b5f52601260045260245ffd5b634e487b7160e01b5f52602160045260245ffd5b634e487b7160e01b5f52603260045260245ffd5b5f82611d4657634e487b7160e01b5f52601260045260245ffd5b500490565b6001600160d01b03828116828216039080821115611d6b57611d6b611ca3565b5092915050565b6001600160d01b03818116838216019080821115611d6b57611d6b611ca356fedec2bacdd2f05b59de34da9b523dff8be42e5e38e818c82fdb0bae774387a724a264697066735822122058e70785badc5ceaf1a5e8ccd2de6e890861aec7a246b3162213ba06cbb3e59164736f6c63430008190033608060405234801561000f575f80fd5b50604051611c50380380611c5083398101604081905261002e916102f4565b6100385f3061017b565b506001600160a01b03811615610054576100525f8261017b565b505b5f5b83518110156100e8576100a87fb09aa5aeb3702cfd50b6b62bc4532604938f21248a27a1d5ca736082b6819cc18583815181106100955761009561036d565b602002602001015161017b60201b60201c565b506100df7ffd643c72710c63c0180259aba6b2d05451e3591a24e58b62239378085726f7838583815181106100955761009561036d565b50600101610056565b505f5b82518110156101335761012a7fd8aa0f3194971a2a116679f7c2090f6939c8d4e01a2a8d7e41d55e5351469e638483815181106100955761009561036d565b506001016100eb565b506002849055604080515f8152602081018690527f11c24f4ead16507c69ac467fbd5e4eed5fb5c699626d2cc6d66421df253886d5910160405180910390a150505050610381565b5f828152602081815260408083206001600160a01b038516845290915281205460ff1661021b575f838152602081815260408083206001600160a01b03861684529091529020805460ff191660011790556101d33390565b6001600160a01b0316826001600160a01b0316847f2f8788117e7eff1d82e926ec794901d17c78024a50270940304540a733656f0d60405160405180910390a450600161021e565b505f5b92915050565b634e487b7160e01b5f52604160045260245ffd5b80516001600160a01b038116811461024e575f80fd5b919050565b5f82601f830112610262575f80fd5b815160206001600160401b038083111561027e5761027e610224565b8260051b604051601f19603f830116810181811084821117156102a3576102a3610224565b60405293845260208187018101949081019250878511156102c2575f80fd5b6020870191505b848210156102e9576102da82610238565b835291830191908301906102c9565b979650505050505050565b5f805f8060808587031215610307575f80fd5b845160208601519094506001600160401b0380821115610325575f80fd5b61033188838901610253565b94506040870151915080821115610346575f80fd5b5061035387828801610253565b92505061036260608601610238565b905092959194509250565b634e487b7160e01b5f52603260045260245ffd5b6118c28061038e5f395ff3fe608060405260043610610149575f3560e01c806301d5062a1461015457806301ffc9a71461017557806307bd0265146101a9578063134008d3146101d757806313bc9f20146101ea578063150b7a0214610209578063248a9ca31461024c5780632ab0f5291461026b5780632f2ff15d1461028a57806331d50750146102a957806336568abe146102c8578063584b153e146102e757806364d62353146103065780637958004c146103255780638065657f146103515780638f2a0bb0146103705780638f61f4f51461038f57806391d14854146103af578063a217fddf146103ce578063b08e51c0146103e1578063b1c5f42714610401578063bc197c8114610420578063c4d252f51461044b578063d45c44351461046a578063d547741f14610495578063e38335e5146104b4578063f23a6e61146104c7578063f27a0c92146104f2575f80fd5b3661015057005b5f80fd5b34801561015f575f80fd5b5061017361016e366004610fb9565b610506565b005b348015610180575f80fd5b5061019461018f366004611027565b6105a1565b60405190151581526020015b60405180910390f35b3480156101b4575f80fd5b506101c95f8051602061180d83398151915281565b6040519081526020016101a0565b6101736101e536600461104e565b6105b1565b3480156101f5575f80fd5b506101946102043660046110b4565b61063d565b348015610214575f80fd5b5061023361022336600461117a565b630a85bd0160e11b949350505050565b6040516001600160e01b031990911681526020016101a0565b348015610257575f80fd5b506101c96102663660046110b4565b610662565b348015610276575f80fd5b506101946102853660046110b4565b610676565b348015610295575f80fd5b506101736102a43660046111dd565b61067e565b3480156102b4575f80fd5b506101946102c33660046110b4565b6106a0565b3480156102d3575f80fd5b506101736102e23660046111dd565b6106c4565b3480156102f2575f80fd5b506101946103013660046110b4565b6106fc565b348015610311575f80fd5b506101736103203660046110b4565b610741565b348015610330575f80fd5b5061034461033f3660046110b4565b6107b3565b6040516101a0919061121b565b34801561035c575f80fd5b506101c961036b36600461104e565b6107fb565b34801561037b575f80fd5b5061017361038a366004611281565b610839565b34801561039a575f80fd5b506101c95f805160206117ed83398151915281565b3480156103ba575f80fd5b506101946103c93660046111dd565b610981565b3480156103d9575f80fd5b506101c95f81565b3480156103ec575f80fd5b506101c95f8051602061184d83398151915281565b34801561040c575f80fd5b506101c961041b366004611329565b6109a9565b34801561042b575f80fd5b5061023361043a366004611445565b63bc197c8160e01b95945050505050565b348015610456575f80fd5b506101736104653660046110b4565b6109ed565b348015610475575f80fd5b506101c96104843660046110b4565b5f9081526001602052604090205490565b3480156104a0575f80fd5b506101736104af3660046111dd565b610a7d565b6101736104c2366004611329565b610a99565b3480156104d2575f80fd5b506102336104e13660046114e7565b63f23a6e6160e01b95945050505050565b3480156104fd575f80fd5b506002546101c9565b5f805160206117ed83398151915261051d81610be9565b5f61052c8989898989896107fb565b90506105388184610bf6565b5f815f8051602061182d8339815191528b8b8b8b8b8a6040516105609695949392919061156e565b60405180910390a3831561059657805f8051602061186d8339815191528560405161058d91815260200190565b60405180910390a25b505050505050505050565b5f6105ab82610c7a565b92915050565b5f8051602061180d8339815191526105c9815f610981565b6105d7576105d78133610c9e565b5f6105e68888888888886107fb565b90506105f28185610cdb565b6105fe88888888610d29565b5f815f805160206117cd8339815191528a8a8a8a60405161062294939291906115aa565b60405180910390a361063381610d9d565b5050505050505050565b5f60025b61064a836107b3565b600381111561065b5761065b611207565b1492915050565b5f9081526020819052604090206001015490565b5f6003610641565b61068782610662565b61069081610be9565b61069a8383610dc8565b50505050565b5f806106ab836107b3565b60038111156106bc576106bc611207565b141592915050565b6001600160a01b03811633146106ed5760405163334bd91960e11b815260040160405180910390fd5b6106f78282610e57565b505050565b5f80610707836107b3565b9050600181600381111561071d5761071d611207565b148061073a5750600281600381111561073857610738611207565b145b9392505050565b333081146107725760405163e2850c5960e01b81526001600160a01b03821660048201526024015b60405180910390fd5b7f11c24f4ead16507c69ac467fbd5e4eed5fb5c699626d2cc6d66421df253886d5600254836040516107a59291906115db565b60405180910390a150600255565b5f81815260016020526040812054805f036107d057505f92915050565b600181036107e15750600392915050565b428111156107f25750600192915050565b50600292915050565b5f8686868686866040516020016108179695949392919061156e565b6040516020818303038152906040528051906020012090509695505050505050565b5f805160206117ed83398151915261085081610be9565b888714158061085f5750888514155b15610886576040516001624fcdef60e01b03198152610769908a9087908a906004016115e9565b5f6108978b8b8b8b8b8b8b8b6109a9565b90506108a38184610bf6565b5f5b8a8110156109455780825f8051602061182d8339815191528e8e858181106108cf576108cf6115ff565b90506020020160208101906108e49190611613565b8d8d868181106108f6576108f66115ff565b905060200201358c8c8781811061090f5761090f6115ff565b9050602002810190610921919061162c565b8c8b6040516109359695949392919061156e565b60405180910390a36001016108a5565b50831561097457805f8051602061186d8339815191528560405161096b91815260200190565b60405180910390a25b5050505050505050505050565b5f918252602082815260408084206001600160a01b0393909316845291905290205460ff1690565b5f88888888888888886040516020016109c99897969594939291906116ff565b60405160208183030381529060405280519060200120905098975050505050505050565b5f8051602061184d833981519152610a0481610be9565b610a0d826106fc565b610a425781610a1c6002610ec0565b610a266001610ec0565b17604051635ead8eb560e01b81526004016107699291906115db565b5f828152600160205260408082208290555183917fbaa1eb22f2a492ba1a5fea61b8df4d27c6c8b5f3971e63bb58fa14ff72eedb7091a25050565b610a8682610662565b610a8f81610be9565b61069a8383610e57565b5f8051602061180d833981519152610ab1815f610981565b610abf57610abf8133610c9e565b8786141580610ace5750878414155b15610af5576040516001624fcdef60e01b03198152610769908990869089906004016115e9565b5f610b068a8a8a8a8a8a8a8a6109a9565b9050610b128185610cdb565b5f5b89811015610bd3575f8b8b83818110610b2f57610b2f6115ff565b9050602002016020810190610b449190611613565b90505f8a8a84818110610b5957610b596115ff565b905060200201359050365f8a8a86818110610b7657610b766115ff565b9050602002810190610b88919061162c565b91509150610b9884848484610d29565b84865f805160206117cd83398151915286868686604051610bbc94939291906115aa565b60405180910390a350505050806001019050610b14565b50610bdd81610d9d565b50505050505050505050565b610bf38133610c9e565b50565b610bff826106a0565b15610c295781610c0e5f610ec0565b604051635ead8eb560e01b81526004016107699291906115db565b5f610c3360025490565b905080821015610c5a578181604051635433660960e01b81526004016107699291906115db565b610c64824261179e565b5f93845260016020526040909320929092555050565b5f6001600160e01b03198216630271189760e51b14806105ab57506105ab82610ee2565b610ca88282610981565b610cd75760405163e2517d3f60e01b81526001600160a01b038216600482015260248101839052604401610769565b5050565b610ce48261063d565b610cf35781610c0e6002610ec0565b8015801590610d085750610d0681610676565b155b15610cd75760405163121534c360e31b815260048101829052602401610769565b5f80856001600160a01b0316858585604051610d469291906117bd565b5f6040518083038185875af1925050503d805f8114610d80576040519150601f19603f3d011682016040523d82523d5f602084013e610d85565b606091505b5091509150610d948282610f16565b50505050505050565b610da68161063d565b610db55780610c0e6002610ec0565b5f90815260016020819052604090912055565b5f610dd38383610981565b610e50575f838152602081815260408083206001600160a01b03861684529091529020805460ff19166001179055610e083390565b6001600160a01b0316826001600160a01b0316847f2f8788117e7eff1d82e926ec794901d17c78024a50270940304540a733656f0d60405160405180910390a45060016105ab565b505f6105ab565b5f610e628383610981565b15610e50575f838152602081815260408083206001600160a01b0386168085529252808320805460ff1916905551339286917ff6391f5c32d9c69d2a47ea670b442974b53935d1edc7fd64eb21e047a839171b9190a45060016105ab565b5f816003811115610ed357610ed3611207565b600160ff919091161b92915050565b5f6001600160e01b03198216637965db0b60e01b14806105ab57506301ffc9a760e01b6001600160e01b03198316146105ab565b606082610f2b57610f2682610f32565b6105ab565b50806105ab565b805115610f4157805160208201fd5b60405163d6bda27560e01b815260040160405180910390fd5b80356001600160a01b0381168114610f70575f80fd5b919050565b5f8083601f840112610f85575f80fd5b5081356001600160401b03811115610f9b575f80fd5b602083019150836020828501011115610fb2575f80fd5b9250929050565b5f805f805f805f60c0888a031215610fcf575f80fd5b610fd888610f5a565b96506020880135955060408801356001600160401b03811115610ff9575f80fd5b6110058a828b01610f75565b989b979a50986060810135976080820135975060a09091013595509350505050565b5f60208284031215611037575f80fd5b81356001600160e01b03198116811461073a575f80fd5b5f805f805f8060a08789031215611063575f80fd5b61106c87610f5a565b95506020870135945060408701356001600160401b0381111561108d575f80fd5b61109989828a01610f75565b979a9699509760608101359660809091013595509350505050565b5f602082840312156110c4575f80fd5b5035919050565b634e487b7160e01b5f52604160045260245ffd5b604051601f8201601f191681016001600160401b0381118282101715611107576111076110cb565b604052919050565b5f82601f83011261111e575f80fd5b81356001600160401b03811115611137576111376110cb565b61114a601f8201601f19166020016110df565b81815284602083860101111561115e575f80fd5b816020850160208301375f918101602001919091529392505050565b5f805f806080858703121561118d575f80fd5b61119685610f5a565b93506111a460208601610f5a565b92506040850135915060608501356001600160401b038111156111c5575f80fd5b6111d18782880161110f565b91505092959194509250565b5f80604083850312156111ee575f80fd5b823591506111fe60208401610f5a565b90509250929050565b634e487b7160e01b5f52602160045260245ffd5b602081016004831061123b57634e487b7160e01b5f52602160045260245ffd5b91905290565b5f8083601f840112611251575f80fd5b5081356001600160401b03811115611267575f80fd5b6020830191508360208260051b8501011115610fb2575f80fd5b5f805f805f805f805f60c08a8c031215611299575f80fd5b89356001600160401b03808211156112af575f80fd5b6112bb8d838e01611241565b909b50995060208c01359150808211156112d3575f80fd5b6112df8d838e01611241565b909950975060408c01359150808211156112f7575f80fd5b506113048c828d01611241565b9a9d999c50979a969997986060880135976080810135975060a0013595509350505050565b5f805f805f805f8060a0898b031215611340575f80fd5b88356001600160401b0380821115611356575f80fd5b6113628c838d01611241565b909a50985060208b013591508082111561137a575f80fd5b6113868c838d01611241565b909850965060408b013591508082111561139e575f80fd5b506113ab8b828c01611241565b999c989b509699959896976060870135966080013595509350505050565b5f82601f8301126113d8575f80fd5b813560206001600160401b038211156113f3576113f36110cb565b8160051b6114028282016110df565b928352848101820192828101908785111561141b575f80fd5b83870192505b8483101561143a57823582529183019190830190611421565b979650505050505050565b5f805f805f60a08688031215611459575f80fd5b61146286610f5a565b945061147060208701610f5a565b935060408601356001600160401b038082111561148b575f80fd5b61149789838a016113c9565b945060608801359150808211156114ac575f80fd5b6114b889838a016113c9565b935060808801359150808211156114cd575f80fd5b506114da8882890161110f565b9150509295509295909350565b5f805f805f60a086880312156114fb575f80fd5b61150486610f5a565b945061151260208701610f5a565b9350604086013592506060860135915060808601356001600160401b0381111561153a575f80fd5b6114da8882890161110f565b81835281816020850137505f828201602090810191909152601f909101601f19169091010190565b60018060a01b038716815285602082015260a060408201525f61159560a083018688611546565b60608301949094525060800152949350505050565b60018060a01b0385168152836020820152606060408201525f6115d1606083018486611546565b9695505050505050565b918252602082015260400190565b9283526020830191909152604082015260600190565b634e487b7160e01b5f52603260045260245ffd5b5f60208284031215611623575f80fd5b61073a82610f5a565b5f808335601e19843603018112611641575f80fd5b8301803591506001600160401b0382111561165a575f80fd5b602001915036819003821315610fb2575f80fd5b5f838385526020808601955060208560051b830101845f5b878110156116f257848303601f19018952813536889003601e190181126116ab575f80fd5b870184810190356001600160401b038111156116c5575f80fd5b8036038213156116d3575f80fd5b6116de858284611546565b9a86019a9450505090830190600101611686565b5090979650505050505050565b60a080825281018890525f8960c08301825b8b81101561173f576001600160a01b0361172a84610f5a565b16825260209283019290910190600101611711565b5083810360208501528881526001600160fb1b0389111561175e575f80fd5b8860051b9150818a60208301370182810360209081016040850152611786908201878961166e565b60608401959095525050608001529695505050505050565b808201808211156105ab57634e487b7160e01b5f52601160045260245ffd5b818382375f910190815291905056fec2617efa69bab66782fa219543714338489c4e9e178271560a91b82c3f612b58b09aa5aeb3702cfd50b6b62bc4532604938f21248a27a1d5ca736082b6819cc1d8aa0f3194971a2a116679f7c2090f6939c8d4e01a2a8d7e41d55e5351469e634cf4410cc57040e44862ef0f45f3dd5a5e02db8eb8add648d4b0e236f1d07dcafd643c72710c63c0180259aba6b2d05451e3591a24e58b62239378085726f78320fda5fd27a1ea7bf5b9567f143ac5470bb059374a27e8f67cb44f946f6d0387a26469706673582212204c473c9f3376b1832fe356b26eeab93083607cdb6979c4dbe3cc33fd47f04f0764736f6c63430008190033610180604052348015610010575f80fd5b50604051614c8c380380614c8c83398101604081905261002f91610746565b600482825f600460646040518060400160405280601081526020016f25b0b630a5b93aba23b7bb32b93737b960811b8152508061007061017960201b60201c565b61007a825f610194565b61012052610089816001610194565b61014052815160208084019190912060e052815190820120610100524660a05261011560e05161010051604080517f8b73c3c69bb8fe3d512ecc4cf759cc79239f7b179b0ffacaa9a75d522b39400f60208201529081019290925260608201524660808201523060a08201525f9060c00160405160208183030381529060405280519060200120905090565b60805250503060c052600361012a8282610816565b506101369050836101c6565b61013f8261022c565b610148816102d0565b50505061015a8161031160201b60201c565b506001600160a01b03166101605261017181610399565b505050610971565b6040805180820190915260018152603160f81b602082015290565b5f6020835110156101af576101a88361042e565b90506101c0565b816101ba8482610816565b5060ff90505b92915050565b6008546040805165ffffffffffff928316815291831660208301527fc565b045403dc03c2eea82b81a0465edad9e2e7fc4d97e11421c209da93d7a93910160405180910390a16008805465ffffffffffff191665ffffffffffff92909216919091179055565b8063ffffffff165f036102595760405163f1cfbf0560e01b81525f60048201526024015b60405180910390fd5b6008546040805163ffffffff66010000000000009093048316815291831660208301527f7e3f7f0708a84de9203036abaa450dccc85ad5ff52f78c170f3edb55cf5e8828910160405180910390a16008805463ffffffff90921666010000000000000263ffffffff60301b19909216919091179055565b60075460408051918252602082018390527fccb45da8d5717e6c4544694297c4ba5cf151d455c9bb0ed4fc7a38411bc05461910160405180910390a1600755565b600854604080516001600160a01b036a01000000000000000000009093048316815291831660208301527f08f74ea46ef7894f65eabfb5e6e695de773a000b47c529ab559178069b226401910160405180910390a1600880546001600160a01b039092166a010000000000000000000002600160501b600160f01b0319909216919091179055565b6064808211156103c65760405163243e544560e01b81526004810183905260248101829052604401610250565b5f6103cf61046b565b90506103ee6103dc610484565b6103e5856104fe565b600a9190610535565b505060408051828152602081018590527f0553476bf02ef2726e8ce5ced78d63e26e602e4a2257b1f559418e24b4633997910160405180910390a1505050565b5f80829050601f81511115610458578260405163305a27a960e01b815260040161025091906108d5565b80516104638261090a565b179392505050565b5f610476600a61054f565b6001600160d01b0316905090565b5f61048f6101605190565b6001600160a01b03166391ddadf46040518163ffffffff1660e01b8152600401602060405180830381865afa9250505080156104e8575060408051601f3d908101601f191682019092526104e59181019061092d565b60015b6104f9576104f4610597565b905090565b919050565b5f6001600160d01b03821115610531576040516306dfcc6560e41b815260d0600482015260248101839052604401610250565b5090565b5f806105428585856105a1565b915091505b935093915050565b80545f90801561058e5761057583610568600184610952565b5f91825260209091200190565b54660100000000000090046001600160d01b0316610590565b5f5b9392505050565b5f6104f4436106fd565b82545f90819080156106a0575f6105bd87610568600185610952565b805490915065ffffffffffff80821691660100000000000090046001600160d01b031690881682111561060357604051632520601d60e01b815260040160405180910390fd5b8765ffffffffffff168265ffffffffffff160361063f57825465ffffffffffff1666010000000000006001600160d01b03891602178355610692565b6040805180820190915265ffffffffffff808a1682526001600160d01b03808a1660208085019182528d54600181018f555f8f815291909120945191519092166601000000000000029216919091179101555b945085935061054792505050565b50506040805180820190915265ffffffffffff80851682526001600160d01b0380851660208085019182528854600181018a555f8a8152918220955192519093166601000000000000029190931617920191909155905081610547565b5f65ffffffffffff821115610531576040516306dfcc6560e41b81526030600482015260248101839052604401610250565b6001600160a01b0381168114610743575f80fd5b50565b5f8060408385031215610757575f80fd5b82516107628161072f565b60208401519092506107738161072f565b809150509250929050565b634e487b7160e01b5f52604160045260245ffd5b600181811c908216806107a657607f821691505b6020821081036107c457634e487b7160e01b5f52602260045260245ffd5b50919050565b601f82111561081157805f5260205f20601f840160051c810160208510156107ef5750805b601f840160051c820191505b8181101561080e575f81556001016107fb565b50505b505050565b81516001600160401b0381111561082f5761082f61077e565b6108438161083d8454610792565b846107ca565b602080601f831160018114610876575f841561085f5750858301515b5f19600386901b1c1916600185901b1785556108cd565b5f85815260208120601f198616915b828110156108a457888601518255948401946001909101908401610885565b50858210156108c157878501515f19600388901b60f8161c191681555b505060018460011b0185555b505050505050565b602081525f82518060208401528060208501604085015e5f604082850101526040601f19601f83011684010191505092915050565b805160208083015191908110156107c4575f1960209190910360031b1b16919050565b5f6020828403121561093d575f80fd5b815165ffffffffffff81168114610590575f80fd5b818103818111156101c057634e487b7160e01b5f52601160045260245ffd5b60805160a05160c05160e051610100516101205161014051610160516142c06109cc5f395f6112fa01525f6119d701525f6119ab01525f612bbc01525f612b9401525f612aef01525f612b1901525f612b4301526142c05ff3fe608060405260043610610230575f3560e01c806301ffc9a71461026b57806302a251a31461029f57806306f3f9e6146102c157806306fdde03146102e0578063143489d014610301578063150b7a021461032d578063160cbed7146103655780632656227d146103845780632d63f693146103975780632fe3e261146103b65780633932abb1146103d65780633e4f49e6146103ea5780634385963214610416578063452115d61461045e5780634bf5d7e91461047d578063544ffc9c1461049157806354fd4d50146104bf57806356781388146104e85780635b8d0e0d146105075780635f398a141461052657806360c4247f1461054557806379051887146105645780637b3c71d3146105835780637d5e81e2146105a25780637ecebe00146105c157806384b0196e146105f55780638ff262e31461061c57806391ddadf41461063b57806397c3d334146106665780639a802a6d14610679578063a7713a7014610698578063a890c910146106ac578063a8f8a668146106cb578063a9a95294146106ea578063ab58fb8e14610709578063b58131b014610728578063bc197c811461073c578063c01f9e371461075b578063c28bc2fa1461077a578063c59057e41461078d578063d33219b4146107ac578063dd4e2ba5146107c0578063deaaa7cc14610805578063e540d01d14610825578063eb9019d414610844578063ece40cc114610863578063f23a6e6114610882578063f8ce560a146108a1578063fc0c546a146108c0575f80fd5b36610267573061023e6108d4565b6001600160a01b03161461026557604051637485328f60e11b815260040160405180910390fd5b005b5f80fd5b348015610276575f80fd5b5061028a610285366004613241565b6108e2565b60405190151581526020015b60405180910390f35b3480156102aa575f80fd5b506102b361094e565b604051908152602001610296565b3480156102cc575f80fd5b506102656102db366004613268565b610961565b3480156102eb575f80fd5b506102f4610975565b60405161029691906132ad565b34801561030c575f80fd5b5061032061031b366004613268565b610a05565b60405161029691906132bf565b348015610338575f80fd5b5061034c6103473660046133aa565b610a1f565b6040516001600160e01b03199091168152602001610296565b348015610370575f80fd5b506102b361037f366004613579565b610a61565b6102b3610392366004613579565b610b2d565b3480156103a2575f80fd5b506102b36103b1366004613268565b610c95565b3480156103c1575f80fd5b506102b35f8051602061426b83398151915281565b3480156103e1575f80fd5b506102b3610cb5565b3480156103f5575f80fd5b50610409610404366004613268565b610cc7565b6040516102969190613636565b348015610421575f80fd5b5061028a610430366004613644565b5f828152600b602090815260408083206001600160a01b038516845260030190915290205460ff1692915050565b348015610469575f80fd5b506102b3610478366004613579565b610cd1565b348015610488575f80fd5b506102f4610d37565b34801561049c575f80fd5b506104b06104ab366004613268565b610dde565b60405161029693929190613672565b3480156104ca575f80fd5b506040805180820190915260018152603160f81b60208201526102f4565b3480156104f3575f80fd5b506102b3610502366004613698565b610e03565b348015610512575f80fd5b506102b3610521366004613706565b610e2a565b348015610531575f80fd5b506102b36105403660046137b8565b610ede565b348015610550575f80fd5b506102b361055f366004613268565b610f26565b34801561056f575f80fd5b5061026561057e366004613848565b610f32565b34801561058e575f80fd5b506102b361059d366004613863565b610f43565b3480156105ad575f80fd5b506102b36105bc3660046138b8565b610f93565b3480156105cc575f80fd5b506102b36105db366004613964565b6001600160a01b03165f9081526002602052604090205490565b348015610600575f80fd5b50610609610fa9565b60405161029697969594939291906139b9565b348015610627575f80fd5b506102b3610636366004613a28565b610feb565b348015610646575f80fd5b5061064f611031565b60405165ffffffffffff9091168152602001610296565b348015610671575f80fd5b5060646102b3565b348015610684575f80fd5b506102b3610693366004613a75565b61109f565b3480156106a3575f80fd5b506102b36110b5565b3480156106b7575f80fd5b506102656106c6366004613964565b6110ce565b3480156106d6575f80fd5b506102b36106e5366004613579565b6110df565b3480156106f5575f80fd5b5061028a610704366004613268565b6110ec565b348015610714575f80fd5b506102b3610723366004613268565b6110f4565b348015610733575f80fd5b506102b3611110565b348015610747575f80fd5b5061034c610756366004613ac9565b61111a565b348015610766575f80fd5b506102b3610775366004613268565b61115d565b610265610788366004613b55565b61119f565b348015610798575f80fd5b506102b36107a7366004613579565b61121b565b3480156107b7575f80fd5b50610320611254565b3480156107cb575f80fd5b506040805180820190915260208082527f737570706f72743d627261766f2671756f72756d3d666f722c6162737461696e908201526102f4565b348015610810575f80fd5b506102b35f8051602061424b83398151915281565b348015610830575f80fd5b5061026561083f366004613b94565b61126a565b34801561084f575f80fd5b506102b361085e366004613bb7565b61127b565b34801561086e575f80fd5b5061026561087d366004613268565b61129a565b34801561088d575f80fd5b5061034c61089c366004613be1565b6112ab565b3480156108ac575f80fd5b506102b36108bb366004613268565b6112ee565b3480156108cb575f80fd5b506103206112f8565b5f6108dd611254565b905090565b5f6001600160e01b031982166366defe7760e11b148061091257506001600160e01b031982166332a2ad4360e11b145b8061092d57506001600160e01b03198216630271189760e51b145b8061094857506301ffc9a760e01b6001600160e01b03198316145b92915050565b600854600160301b900463ffffffff1690565b61096961131c565b61097281611395565b50565b60606003805461098490613c44565b80601f01602080910402602001604051908101604052809291908181526020018280546109b090613c44565b80156109fb5780601f106109d2576101008083540402835291602001916109fb565b820191905f5260205f20905b8154815290600101906020018083116109de57829003601f168201915b5050505050905090565b5f908152600460205260409020546001600160a01b031690565b5f30610a296108d4565b6001600160a01b031614610a5057604051637485328f60e11b815260040160405180910390fd5b50630a85bd0160e11b949350505050565b5f80610a6f868686866110df565b9050610a8481610a7f600461142a565b61144c565b505f610a938288888888611489565b905065ffffffffffff811615610b0a575f82815260046020908152604091829020600101805465ffffffffffff191665ffffffffffff85169081179091558251858152918201527f9a2e42fd6722813d69113e7d0079d3d940171428df7373df9c7f7617cfda2892910160405180910390a1610b23565b604051634844252360e11b815260040160405180910390fd5b5095945050505050565b5f80610b3b868686866110df565b9050610b5b81610b4b600561142a565b610b55600461142a565b1761144c565b505f818152600460205260409020805460ff60f01b1916600160f01b17905530610b836108d4565b6001600160a01b031614610c0c575f5b8651811015610c0a57306001600160a01b0316878281518110610bb857610bb8613c7c565b60200260200101516001600160a01b031603610c0257610c02858281518110610be357610be3613c7c565b602002602001015180519060200120600561149790919063ffffffff16565b600101610b93565b505b610c1981878787876114f8565b30610c226108d4565b6001600160a01b031614158015610c4e57506005546001600160801b03808216600160801b9092041614155b15610c58575f6005555b6040518181527f712ae1383f79ac853f8d882153778e0260ef8f03b504e2866e0593e04d2b291f906020015b60405180910390a195945050505050565b5f90815260046020526040902054600160a01b900465ffffffffffff1690565b5f6108dd60085465ffffffffffff1690565b5f6109488261150c565b5f80610cdf868686866110df565b905033610cec8282611652565b610d2057604051638fe5d8a960e01b8152600481018390526001600160a01b03821660248201526044015b60405180910390fd5b610d2c8787878761169b565b979650505050505050565b6060610d416112f8565b6001600160a01b0316634bf5d7e96040518163ffffffff1660e01b81526004015f60405180830381865afa925050508015610d9d57506040513d5f823e601f3d908101601f19168201604052610d9a9190810190613c90565b60015b610dd9575060408051808201909152601d81527f6d6f64653d626c6f636b6e756d6265722666726f6d3d64656661756c74000000602082015290565b919050565b5f818152600b60205260409020805460018201546002909201549091905b9193909250565b5f80339050610e2284828560405180602001604052805f8152506116a8565b949350505050565b5f610e7088888888888080601f0160208091040260200160405190810160405280939291908181526020018383808284375f920191909152508a92508991506116c99050565b610e8f57856040516394ab6c0760e01b8152600401610d1791906132bf565b610ed288878988888080601f0160208091040260200160405190810160405280939291908181526020018383808284375f920191909152508a9250611766915050565b98975050505050505050565b5f80339050610d2c87828888888080601f0160208091040260200160405190810160405280939291908181526020018383808284375f920191909152508a9250611766915050565b5f610948600a83611844565b610f3a61131c565b61097281611891565b5f80339050610f8986828787878080601f0160208091040260200160405190810160405280939291908181526020018383808284375f920191909152506116a892505050565b9695505050505050565b5f610fa0858585856118f7565b95945050505050565b5f6060805f805f6060610fba6119a4565b610fc26119d0565b604080515f80825260208201909252600f60f81b9b939a50919850469750309650945092509050565b5f610ff8858585856119fd565b61101757826040516394ab6c0760e01b8152600401610d1791906132bf565b610fa085848660405180602001604052805f8152506116a8565b5f61103a6112f8565b6001600160a01b03166391ddadf46040518163ffffffff1660e01b8152600401602060405180830381865afa925050508015611093575060408051601f3d908101601f1916820190925261109091810190613d04565b60015b610dd9576108dd611a56565b5f6110ab848484611a60565b90505b9392505050565b5f6110c0600a611ada565b6001600160d01b0316905090565b6110d661131c565b61097281611b1e565b5f610fa08585858561121b565b5f6001610948565b5f9081526004602052604090206001015465ffffffffffff1690565b5f6108dd60075490565b5f306111246108d4565b6001600160a01b03161461114b57604051637485328f60e11b815260040160405180910390fd5b5063bc197c8160e01b95945050505050565b5f8181526004602052604081205461119190600160d01b810463ffffffff1690600160a01b900465ffffffffffff16613d33565b65ffffffffffff1692915050565b6111a761131c565b5f80856001600160a01b03168585856040516111c4929190613d59565b5f6040518083038185875af1925050503d805f81146111fe576040519150601f19603f3d011682016040523d82523d5f602084013e611203565b606091505b50915091506112128282611b98565b50505050505050565b5f848484846040516020016112339493929190613df8565b60408051601f19818403018152919052805160209091012095945050505050565b600854600160501b90046001600160a01b031690565b61127261131c565b61097281611bb4565b5f6110ae838361129560408051602081019091525f815290565b611a60565b6112a261131c565b61097281611c4d565b5f306112b56108d4565b6001600160a01b0316146112dc57604051637485328f60e11b815260040160405180910390fd5b5063f23a6e6160e01b95945050505050565b5f61094882611c8e565b7f000000000000000000000000000000000000000000000000000000000000000090565b336113256108d4565b6001600160a01b03161461134e57336040516347096e4760e01b8152600401610d1791906132bf565b306113576108d4565b6001600160a01b031614611393575f8036604051611376929190613d59565b604051809103902090505b8061138c6005611d16565b0361138157505b565b6064808211156113c25760405163243e544560e01b81526004810183905260248101829052604401610d17565b5f6113cb6110b5565b90506113ea6113d8611031565b6113e185611d7a565b600a9190611dac565b505060408051828152602081018590527f0553476bf02ef2726e8ce5ced78d63e26e602e4a2257b1f559418e24b4633997910160405180910390a1505050565b5f81600781111561143d5761143d613602565b600160ff919091161b92915050565b5f8061145784610cc7565b90505f836114648361142a565b16036110ae578381846040516331b75e4d60e01b8152600401610d1793929190613e42565b5f610f898686868686611dc6565b81546001600160801b03600160801b8204811691811660018301909116036114c3576114c36041611f59565b6001600160801b038082165f90815260018086016020526040909120939093558354919092018216600160801b029116179055565b6115058585858585611f6a565b5050505050565b5f8061151783611ff5565b9050600581600781111561152d5761152d613602565b146115385792915050565b5f8381526009602052604090819020546008549151632c258a9f60e11b8152600481018290529091600160501b90046001600160a01b03169063584b153e90602401602060405180830381865afa158015611595573d5f803e3d5ffd5b505050506040513d601f19601f820116820180604052508101906115b99190613e64565b156115c8575060059392505050565b600854604051632ab0f52960e01b815260048101839052600160501b9091046001600160a01b031690632ab0f52990602401602060405180830381865afa158015611615573d5f803e3d5ffd5b505050506040513d601f19601f820116820180604052508101906116399190613e64565b15611648575060079392505050565b5060029392505050565b5f8061165d84610cc7565b600781111561166e5761166e613602565b1480156110ae575061167f83610a05565b6001600160a01b0316826001600160a01b031614905092915050565b5f610fa085858585612109565b5f610fa0858585856116c460408051602081019091525f815290565b611766565b5f610d2c856117605f8051602061426b8339815191528a8a8a6116eb8c6121a6565b8b516020808e01919091208c518d83012060405161174598979695949301968752602087019590955260ff9390931660408601526001600160a01b03919091166060850152608084015260a083015260c082015260e00190565b604051602081830303815290604052805190602001206121c8565b846121f4565b5f61177586610a7f600161142a565b505f61178a8661178489610c95565b85611a60565b90505f61179a8888888588612264565b905083515f036117f057866001600160a01b03167fb8e138887d0aa13bab447e82de9d5c1777041ecd21ca36ba824ff1e6c07ddda4898884896040516117e39493929190613e83565b60405180910390a2610d2c565b866001600160a01b03167fe2babfbac5889a709b63bb7f598b324e08bc5a4fb9ec647fb3cbc9ec07eb87128988848989604051611831959493929190613eaa565b60405180910390a2979650505050505050565b5f805f61185085612357565b9250925050838265ffffffffffff16111561187d57611878611871856123af565b86906123dc565b61187f565b805b6001600160d01b031695945050505050565b6008546040805165ffffffffffff928316815291831660208301527fc565b045403dc03c2eea82b81a0465edad9e2e7fc4d97e11421c209da93d7a93910160405180910390a16008805465ffffffffffff191665ffffffffffff92909216919091179055565b5f33611903818461247e565b611922578060405163d9b3955760e01b8152600401610d1791906132bf565b5f61192b611110565b90508015611997575f611959836001611942611031565b61194c9190613ee3565b65ffffffffffff1661127b565b90508181101561199557604051636121770b60e11b81526001600160a01b03841660048201526024810182905260448101839052606401610d17565b505b610d2c8787878786612503565b60606108dd7f00000000000000000000000000000000000000000000000000000000000000005f612700565b60606108dd7f00000000000000000000000000000000000000000000000000000000000000006001612700565b5f610fa0836117605f8051602061424b833981519152888888611a1f8a6121a6565b60408051602081019690965285019390935260ff90911660608401526001600160a01b0316608083015260a082015260c001611745565b5f6108dd436123af565b5f611a696112f8565b604051630748d63560e31b81526001600160a01b038681166004830152602482018690529190911690633a46b1a890604401602060405180830381865afa158015611ab6573d5f803e3d5ffd5b505050506040513d601f19601f820116820180604052508101906110ab9190613f02565b80545f908015611b1657611b0083611af3600184613f19565b5f91825260209091200190565b54600160301b90046001600160d01b03166110ae565b5f9392505050565b600854604080516001600160a01b03600160501b9093048316815291831660208301527f08f74ea46ef7894f65eabfb5e6e695de773a000b47c529ab559178069b226401910160405180910390a1600880546001600160a01b03909216600160501b02600160501b600160f01b0319909216919091179055565b606082611bad57611ba8826127a9565b610948565b5080610948565b8063ffffffff165f03611bdc5760405163f1cfbf0560e01b81525f6004820152602401610d17565b6008546040805163ffffffff600160301b9093048316815291831660208301527f7e3f7f0708a84de9203036abaa450dccc85ad5ff52f78c170f3edb55cf5e8828910160405180910390a16008805463ffffffff909216600160301b0263ffffffff60301b19909216919091179055565b60075460408051918252602082018390527fccb45da8d5717e6c4544694297c4ba5cf151d455c9bb0ed4fc7a38411bc05461910160405180910390a1600755565b5f610948611c9a6112f8565b6001600160a01b0316638e539e8c846040518263ffffffff1660e01b8152600401611cc791815260200190565b602060405180830381865afa158015611ce2573d5f803e3d5ffd5b505050506040513d601f19601f82011682018060405250810190611d069190613f02565b611d0f84610f26565b60646127d1565b80545f906001600160801b0380821691600160801b9004168103611d3e57611d3e6031611f59565b6001600160801b038181165f908152600185810160205260408220805492905585546001600160801b0319169301909116919091179092555090565b5f6001600160d01b03821115611da85760d0826040516306dfcc6560e41b8152600401610d17929190613f2c565b5090565b5f80611db9858585612881565b915091505b935093915050565b5f806008600a9054906101000a90046001600160a01b03166001600160a01b031663f27a0c926040518163ffffffff1660e01b8152600401602060405180830381865afa158015611e19573d5f803e3d5ffd5b505050506040513d601f19601f82011682018060405250810190611e3d9190613f02565b90505f611e49846129d1565b60085460405163b1c5f42760e01b8152919250600160501b90046001600160a01b03169063b1c5f42790611e89908a908a908a905f908890600401613f3f565b602060405180830381865afa158015611ea4573d5f803e3d5ffd5b505050506040513d601f19601f82011682018060405250810190611ec89190613f02565b5f898152600960205260408082209290925560085491516308f2a0bb60e41b8152600160501b9092046001600160a01b031691638f2a0bb091611f18918b918b918b919088908a90600401613f8c565b5f604051808303815f87803b158015611f2f575f80fd5b505af1158015611f41573d5f803e3d5ffd5b50505050610ed28242611f549190613fe3565b6123af565b634e487b715f52806020526024601cfd5b600854600160501b90046001600160a01b031663e38335e5348686865f611f90886129d1565b6040518763ffffffff1660e01b8152600401611fb0959493929190613f3f565b5f604051808303818588803b158015611fc7575f80fd5b505af1158015611fd9573d5f803e3d5ffd5b5050505f96875250506009602052505060408320929092555050565b5f818152600460205260408120805460ff600160f01b8204811691600160f81b900416811561202957506007949350505050565b801561203a57506002949350505050565b5f61204486610c95565b9050805f0361206957604051636ad0607560e01b815260048101879052602401610d17565b5f612072611031565b65ffffffffffff16905080821061208f57505f9695505050505050565b5f6120998861115d565b90508181106120b057506001979650505050505050565b6120b9886129e3565b15806120cb57506120c988612a19565b155b156120de57506003979650505050505050565b6120e7886110f4565b5f036120fb57506004979650505050505050565b506005979650505050505050565b5f8061211786868686612a34565b5f818152600960205260409020549091508015610b235760085460405163c4d252f560e01b815260048101839052600160501b9091046001600160a01b03169063c4d252f5906024015f604051808303815f87803b158015612177575f80fd5b505af1158015612189573d5f803e3d5ffd5b5050505f8381526009602052604081205550509050949350505050565b6001600160a01b03165f90815260026020526040902080546001810190915590565b5f6109486121d4612ae3565b8360405161190160f01b8152600281019290925260228201526042902090565b5f836001600160a01b03163b5f03612252575f806122128585612c0c565b5090925090505f81600381111561222b5761222b613602565b1480156122495750856001600160a01b0316826001600160a01b0316145b925050506110ae565b61225d848484612c55565b90506110ae565b5f858152600b602090815260408083206001600160a01b03881684526003810190925282205460ff16156122ad57856040516371c6af4960e01b8152600401610d1791906132bf565b6001600160a01b0386165f9081526003820160205260409020805460ff1916600117905560ff85166122f65783815f015f8282546122eb9190613fe3565b9091555061234c9050565b5f1960ff8616016123145783816001015f8282546122eb9190613fe3565b60011960ff8616016123335783816002015f8282546122eb9190613fe3565b6040516303599be160e11b815260040160405180910390fd5b509195945050505050565b80545f9081908190808203612375575f805f93509350935050610dfc565b5f61238586611af3600185613f19565b546001955065ffffffffffff81169450600160301b90046001600160d01b03169250610dfc915050565b5f65ffffffffffff821115611da8576030826040516306dfcc6560e41b8152600401610d17929190613f2c565b81545f9081816005811115612438575f6123f584612d2b565b6123ff9085613f19565b5f8881526020902090915081015465ffffffffffff908116908716101561242857809150612436565b612433816001613fe3565b92505b505b5f61244587878585612e7d565b905080156124725761245c87611af3600184613f19565b54600160301b90046001600160d01b0316610d2c565b5f979650505050505050565b80515f906034811015612495576001915050610948565b60131981840101516001600160b01b03198116692370726f706f7365723d60b01b146124c657600192505050610948565b5f806124d686602a860386612edc565b91509150811580610d2c5750866001600160a01b0316816001600160a01b03161494505050505092915050565b5f61251786868686805190602001206110df565b90508451865114158061252c57508351865114155b8061253657508551155b1561255d57855184518651604051630447b05d60e41b8152600401610d1793929190613672565b5f81815260046020526040902054600160a01b900465ffffffffffff16156125a6578061258982610cc7565b6040516331b75e4d60e01b8152610d179291905f90600401613e42565b5f6125af610cb5565b6125b7611031565b65ffffffffffff166125c99190613fe3565b90505f6125d461094e565b5f84815260046020526040902080546001600160a01b0319166001600160a01b038716178155909150612606836123af565b815465ffffffffffff91909116600160a01b0265ffffffffffff60a01b1990911617815561263382612f85565b815463ffffffff91909116600160d01b0263ffffffff60d01b1990911617815588517f7d84a6263ae0d98d3329bd7b46bb4e8d6f98cd35a7adb45c274c8b7fd5ebd5e090859087908c908c906001600160401b03811115612696576126966132e7565b6040519080825280602002602001820160405280156126c957816020015b60608152602001906001900390816126b45790505b508c896126d68a82613fe3565b8e6040516126ec99989796959493929190613ff6565b60405180910390a150505095945050505050565b606060ff831461271a5761271383612fb0565b9050610948565b81805461272690613c44565b80601f016020809104026020016040519081016040528092919081815260200182805461275290613c44565b801561279d5780601f106127745761010080835404028352916020019161279d565b820191905f5260205f20905b81548152906001019060200180831161278057829003601f168201915b50505050509050610948565b8051156127b857805160208201fd5b60405163d6bda27560e01b815260040160405180910390fd5b5f805f6127de8686612fed565b91509150815f03612802578381816127f8576127f86140cb565b04925050506110ae565b818411612819576128196003851502601118611f59565b5f848688095f868103871696879004966002600389028118808a02820302808a02820302808a02820302808a02820302808a02820302808a02909103029181900381900460010185841190960395909502919093039390930492909217029150509392505050565b82545f9081908015612977575f61289d87611af3600185613f19565b805490915065ffffffffffff80821691600160301b90046001600160d01b03169088168211156128e057604051632520601d60e01b815260040160405180910390fd5b8765ffffffffffff168265ffffffffffff160361291957825465ffffffffffff16600160301b6001600160d01b03891602178355612969565b6040805180820190915265ffffffffffff808a1682526001600160d01b03808a1660208085019182528d54600181018f555f8f81529190912094519151909216600160301b029216919091179101555b9450859350611dbe92505050565b50506040805180820190915265ffffffffffff80851682526001600160d01b0380851660208085019182528854600181018a555f8a815291822095519251909316600160301b029190931617920191909155905081611dbe565b6001600160601b03193060601b161890565b5f818152600b6020526040812060028101546001820154612a049190613fe3565b612a106108bb85610c95565b11159392505050565b5f818152600b60205260408120805460019091015411610948565b5f80612a42868686866110df565b9050612a9081612a52600761142a565b612a5c600661142a565b612a66600261142a565b6001612a736007826140df565b612a7e9060026141d8565b612a889190613f19565b18181861144c565b505f818152600460205260409081902080546001600160f81b0316600160f81b179055517f789cf55be980739dad1d0699b93b58e806b51c9d96619bfa8fe0a28abaa7b30c90610c849083815260200190565b5f306001600160a01b037f000000000000000000000000000000000000000000000000000000000000000016148015612b3b57507f000000000000000000000000000000000000000000000000000000000000000046145b15612b6557507f000000000000000000000000000000000000000000000000000000000000000090565b6108dd604080517f8b73c3c69bb8fe3d512ecc4cf759cc79239f7b179b0ffacaa9a75d522b39400f60208201527f0000000000000000000000000000000000000000000000000000000000000000918101919091527f000000000000000000000000000000000000000000000000000000000000000060608201524660808201523060a08201525f9060c00160405160208183030381529060405280519060200120905090565b5f805f8351604103612c43576020840151604085015160608601515f1a612c3588828585613009565b955095509550505050612c4e565b505081515f91506002905b9250925092565b5f805f856001600160a01b03168585604051602401612c759291906141e6565b60408051601f198184030181529181526020820180516001600160e01b0316630b135d3f60e11b17905251612caa91906141fe565b5f60405180830381855afa9150503d805f8114612ce2576040519150601f19603f3d011682016040523d82523d5f602084013e612ce7565b606091505b5091509150818015612cfb57506020815110155b8015610f8957508051630b135d3f60e11b90612d209083016020908101908401613f02565b149695505050505050565b5f60018211612d38575090565b816001600160801b8210612d515760809190911c9060401b5b600160401b8210612d675760409190911c9060201b5b600160201b8210612d7d5760209190911c9060101b5b620100008210612d925760109190911c9060081b5b6101008210612da65760089190911c9060041b5b60108210612db95760049190911c9060021b5b60048210612dc55760011b5b600302600190811c90818581612ddd57612ddd6140cb565b048201901c90506001818581612df557612df56140cb565b048201901c90506001818581612e0d57612e0d6140cb565b048201901c90506001818581612e2557612e256140cb565b048201901c90506001818581612e3d57612e3d6140cb565b048201901c90506001818581612e5557612e556140cb565b048201901c9050612e74818581612e6e57612e6e6140cb565b04821190565b90039392505050565b5f5b81831015612ed4575f612e9284846130c7565b5f8781526020902090915065ffffffffffff86169082015465ffffffffffff161115612ec057809250612ece565b612ecb816001613fe3565b93505b50612e7f565b509392505050565b5f808451831180612eec57508284115b15612efb57505f905080611dbe565b5f612f07856001613fe3565b84118015612f2f575061060f60f31b612f238787016020015190565b6001600160f01b031916145b90505f612f3f8215156002614214565b612f4a906028613fe3565b905080612f578787613f19565b03612f78575f80612f698989896130e1565b9096509450611dbe9350505050565b5f80935093505050611dbe565b5f63ffffffff821115611da8576020826040516306dfcc6560e41b8152600401610d17929190613f2c565b60605f612fbc836131a2565b6040805160208082528183019092529192505f91906020820181803683375050509182525060208101929092525090565b5f805f1983850993909202808410938190039390930393915050565b5f80806fa2a8918ca85bafe22016d0b997e4df60600160ff1b0384111561303857505f915060039050826130bd565b604080515f808252602082018084528a905260ff891692820192909252606081018790526080810186905260019060a0016020604051602081039080840390855afa158015613089573d5f803e3d5ffd5b5050604051601f1901519150506001600160a01b0381166130b457505f9250600191508290506130bd565b92505f91508190505b9450945094915050565b5f6130d5600284841861422b565b6110ae90848416613fe3565b5f8084816130f0866001613fe3565b85118015613118575061060f60f31b61310c8388016020015190565b6001600160f01b031916145b90505f6131288215156002614214565b90505f80613136838a613fe3565b90505b87811015613191575f6131576131528784016020015190565b6131c9565b9050600f8160ff161115613176575f8097509750505050505050611dbe565b613181601084614214565b60ff909116019150600101613139565b506001999098509650505050505050565b5f60ff8216601f81111561094857604051632cd44ac360e21b815260040160405180910390fd5b5f60f882901c602f811180156131e25750603a8160ff16105b156131f057602f1901610948565b60608160ff16118015613206575060678160ff16105b156132145760561901610948565b60408160ff1611801561322a575060478160ff16105b156132385760361901610948565b5060ff92915050565b5f60208284031215613251575f80fd5b81356001600160e01b0319811681146110ae575f80fd5b5f60208284031215613278575f80fd5b5035919050565b5f81518084528060208401602086015e5f602082860101526020601f19601f83011685010191505092915050565b602081525f6110ae602083018461327f565b6001600160a01b0391909116815260200190565b6001600160a01b0381168114610972575f80fd5b634e487b7160e01b5f52604160045260245ffd5b604051601f8201601f191681016001600160401b0381118282101715613323576133236132e7565b604052919050565b5f6001600160401b03821115613343576133436132e7565b50601f01601f191660200190565b5f61336361335e8461332b565b6132fb565b9050828152838383011115613376575f80fd5b828260208301375f602084830101529392505050565b5f82601f83011261339b575f80fd5b6110ae83833560208501613351565b5f805f80608085870312156133bd575f80fd5b84356133c8816132d3565b935060208501356133d8816132d3565b92506040850135915060608501356001600160401b038111156133f9575f80fd5b6134058782880161338c565b91505092959194509250565b5f6001600160401b03821115613429576134296132e7565b5060051b60200190565b5f82601f830112613442575f80fd5b8135602061345261335e83613411565b8083825260208201915060208460051b870101935086841115613473575f80fd5b602086015b8481101561349857803561348b816132d3565b8352918301918301613478565b509695505050505050565b5f82601f8301126134b2575f80fd5b813560206134c261335e83613411565b8083825260208201915060208460051b8701019350868411156134e3575f80fd5b602086015b8481101561349857803583529183019183016134e8565b5f82601f83011261350e575f80fd5b8135602061351e61335e83613411565b82815260059290921b8401810191818101908684111561353c575f80fd5b8286015b848110156134985780356001600160401b0381111561355d575f80fd5b61356b8986838b010161338c565b845250918301918301613540565b5f805f806080858703121561358c575f80fd5b84356001600160401b03808211156135a2575f80fd5b6135ae88838901613433565b955060208701359150808211156135c3575f80fd5b6135cf888389016134a3565b945060408701359150808211156135e4575f80fd5b506135f1878288016134ff565b949793965093946060013593505050565b634e487b7160e01b5f52602160045260245ffd5b6008811061363257634e487b7160e01b5f52602160045260245ffd5b9052565b602081016109488284613616565b5f8060408385031215613655575f80fd5b823591506020830135613667816132d3565b809150509250929050565b9283526020830191909152604082015260600190565b803560ff81168114610dd9575f80fd5b5f80604083850312156136a9575f80fd5b823591506136b960208401613688565b90509250929050565b5f8083601f8401126136d2575f80fd5b5081356001600160401b038111156136e8575f80fd5b6020830191508360208285010111156136ff575f80fd5b9250929050565b5f805f805f805f60c0888a03121561371c575f80fd5b8735965061372c60208901613688565b9550604088013561373c816132d3565b945060608801356001600160401b0380821115613757575f80fd5b6137638b838c016136c2565b909650945060808a013591508082111561377b575f80fd5b6137878b838c0161338c565b935060a08a013591508082111561379c575f80fd5b506137a98a828b0161338c565b91505092959891949750929550565b5f805f805f608086880312156137cc575f80fd5b853594506137dc60208701613688565b935060408601356001600160401b03808211156137f7575f80fd5b61380389838a016136c2565b9095509350606088013591508082111561381b575f80fd5b506138288882890161338c565b9150509295509295909350565b65ffffffffffff81168114610972575f80fd5b5f60208284031215613858575f80fd5b81356110ae81613835565b5f805f8060608587031215613876575f80fd5b8435935061388660208601613688565b925060408501356001600160401b038111156138a0575f80fd5b6138ac878288016136c2565b95989497509550505050565b5f805f80608085870312156138cb575f80fd5b84356001600160401b03808211156138e1575f80fd5b6138ed88838901613433565b95506020870135915080821115613902575f80fd5b61390e888389016134a3565b94506040870135915080821115613923575f80fd5b61392f888389016134ff565b93506060870135915080821115613944575f80fd5b508501601f81018713613955575f80fd5b61340587823560208401613351565b5f60208284031215613974575f80fd5b81356110ae816132d3565b5f815180845260208085019450602084015f5b838110156139ae57815187529582019590820190600101613992565b509495945050505050565b60ff60f81b8816815260e060208201525f6139d760e083018961327f565b82810360408401526139e9818961327f565b606084018890526001600160a01b038716608085015260a0840186905283810360c08501529050613a1a818561397f565b9a9950505050505050505050565b5f805f8060808587031215613a3b575f80fd5b84359350613a4b60208601613688565b92506040850135613a5b816132d3565b915060608501356001600160401b038111156133f9575f80fd5b5f805f60608486031215613a87575f80fd5b8335613a92816132d3565b92506020840135915060408401356001600160401b03811115613ab3575f80fd5b613abf8682870161338c565b9150509250925092565b5f805f805f60a08688031215613add575f80fd5b8535613ae8816132d3565b94506020860135613af8816132d3565b935060408601356001600160401b0380821115613b13575f80fd5b613b1f89838a016134a3565b94506060880135915080821115613b34575f80fd5b613b4089838a016134a3565b9350608088013591508082111561381b575f80fd5b5f805f8060608587031215613b68575f80fd5b8435613b73816132d3565b93506020850135925060408501356001600160401b038111156138a0575f80fd5b5f60208284031215613ba4575f80fd5b813563ffffffff811681146110ae575f80fd5b5f8060408385031215613bc8575f80fd5b8235613bd3816132d3565b946020939093013593505050565b5f805f805f60a08688031215613bf5575f80fd5b8535613c00816132d3565b94506020860135613c10816132d3565b9350604086013592506060860135915060808601356001600160401b03811115613c38575f80fd5b6138288882890161338c565b600181811c90821680613c5857607f821691505b602082108103613c7657634e487b7160e01b5f52602260045260245ffd5b50919050565b634e487b7160e01b5f52603260045260245ffd5b5f60208284031215613ca0575f80fd5b81516001600160401b03811115613cb5575f80fd5b8201601f81018413613cc5575f80fd5b8051613cd361335e8261332b565b818152856020838501011115613ce7575f80fd5b8160208401602083015e5f91810160200191909152949350505050565b5f60208284031215613d14575f80fd5b81516110ae81613835565b634e487b7160e01b5f52601160045260245ffd5b65ffffffffffff818116838216019080821115613d5257613d52613d1f565b5092915050565b818382375f9101908152919050565b5f815180845260208085019450602084015f5b838110156139ae5781516001600160a01b031687529582019590820190600101613d7b565b5f8282518085526020808601955060208260051b840101602086015f5b84811015613deb57601f19868403018952613dd983835161327f565b98840198925090830190600101613dbd565b5090979650505050505050565b608081525f613e0a6080830187613d68565b8281036020840152613e1c818761397f565b90508281036040840152613e308186613da0565b91505082606083015295945050505050565b83815260608101613e566020830185613616565b826040830152949350505050565b5f60208284031215613e74575f80fd5b815180151581146110ae575f80fd5b84815260ff84166020820152826040820152608060608201525f610f89608083018461327f565b85815260ff8516602082015283604082015260a060608201525f613ed160a083018561327f565b8281036080840152610ed2818561327f565b65ffffffffffff828116828216039080821115613d5257613d52613d1f565b5f60208284031215613f12575f80fd5b5051919050565b8181038181111561094857610948613d1f565b60ff929092168252602082015260400190565b60a081525f613f5160a0830188613d68565b8281036020840152613f63818861397f565b90508281036040840152613f778187613da0565b60608401959095525050608001529392505050565b60c081525f613f9e60c0830189613d68565b8281036020840152613fb0818961397f565b90508281036040840152613fc48188613da0565b60608401969096525050608081019290925260a0909101529392505050565b8082018082111561094857610948613d1f565b5f6101208b8352602060018060a01b038c168185015281604085015261401e8285018c613d68565b91508382036060850152614032828b61397f565b915083820360808501528189518084528284019150828160051b850101838c015f5b8381101561408257601f1987840301855261407083835161327f565b94860194925090850190600101614054565b505086810360a0880152614096818c613da0565b9450505050508560c08401528460e08401528281036101008401526140bb818561327f565b9c9b505050505050505050505050565b634e487b7160e01b5f52601260045260245ffd5b60ff818116838216019081111561094857610948613d1f565b600181815b8085111561413257815f190482111561411857614118613d1f565b8085161561412557918102915b93841c93908002906140fd565b509250929050565b5f8261414857506001610948565b8161415457505f610948565b816001811461416a576002811461417457614190565b6001915050610948565b60ff84111561418557614185613d1f565b50506001821b610948565b5060208310610133831016604e8410600b84101617156141b3575081810a610948565b6141bd83836140f8565b805f19048211156141d0576141d0613d1f565b029392505050565b5f6110ae60ff84168361413a565b828152604060208201525f6110ab604083018461327f565b5f82518060208501845e5f920191825250919050565b808202811582820484141761094857610948613d1f565b5f8261424557634e487b7160e01b5f52601260045260245ffd5b50049056fef2aad550cf55f045cb27e9c559f9889fdfb6e6cdaa032301d6ea397784ae51d73e83946653575f9a39005e1545185629e92736b7528ab20ca3816f315424a811a26469706673582212201a361af12b4ba10c236228f96c66faab568e966e89ea31335eb3abede5e5a2a864736f6c634300081900336080604052348015600e575f80fd5b50604051610355380380610355833981016040819052602b91604e565b5f80546001600160a01b0319166001600160a01b03929092169190911790556079565b5f60208284031215605d575f80fd5b81516001600160a01b03811681146072575f80fd5b9392505050565b6102cf806100865f395ff3fe60806040526004361061002b575f3560e01c80638da5cb5b1461006f578063f3fef3a3146100a9575f80fd5b3661006b577f543ba50a5eec5e6178218e364b1d0f396157b3c8fa278522c2cb7fd99407d474333460405161006192919061024b565b60405180910390a1005b5f80fd5b34801561007a575f80fd5b505f5461008d906001600160a01b031681565b6040516001600160a01b03909116815260200160405180910390f35b3480156100b4575f80fd5b506100c86100c3366004610264565b6100ca565b005b5f546001600160a01b031633146101365760405162461bcd60e51b815260206004820152602560248201527f4f6e6c7920746865206f776e65722063616e2063616c6c20746869732066756e60448201526431ba34b7b760d91b60648201526084015b60405180910390fd5b4781111561017b5760405162461bcd60e51b8152602060048201526012602482015271496e73756666696369656e742066756e647360701b604482015260640161012d565b5f826001600160a01b0316826040515f6040518083038185875af1925050503d805f81146101c4576040519150601f19603f3d011682016040523d82523d5f602084013e6101c9565b606091505b505090508061020d5760405162461bcd60e51b815260206004820152601060248201526f2a3930b739b332b9103330b4b632b21760811b604482015260640161012d565b7feaff4b37086828766ad3268786972c0cd24259d4c87a80f9d3963a3c3d999b0d838360405161023e92919061024b565b60405180910390a1505050565b6001600160a01b03929092168252602082015260400190565b5f8060408385031215610275575f80fd5b82356001600160a01b038116811461028b575f80fd5b94602093909301359350505056fea26469706673582212209a3a88d8b5bcc6d12866e15e3d8127354952c10bf4f9b5335802fd28e19b144464736f6c63430008190033608060405234801561000f575f80fd5b50604051611a0b380380611a0b83398101604081905261002e916100ed565b818161003981610078565b506001600160a01b03811661006757604051631e4fbdf760e01b81525f600482015260240160405180910390fd5b61007081610088565b5050506102f9565b6002610084828261023a565b5050565b600380546001600160a01b038381166001600160a01b0319831681179093556040519116919082907f8be0079c531659141344cd1fd0a4f28419497f9722a3daafe3b4186f6b6457e0905f90a35050565b634e487b7160e01b5f52604160045260245ffd5b5f80604083850312156100fe575f80fd5b82516001600160a01b0381168114610114575f80fd5b60208401519092506001600160401b0380821115610130575f80fd5b818501915085601f830112610143575f80fd5b815181811115610155576101556100d9565b604051601f8201601f19908116603f0116810190838211818310171561017d5761017d6100d9565b81604052828152886020848701011115610195575f80fd5b8260208601602083015e5f6020848301015280955050505050509250929050565b600181811c908216806101ca57607f821691505b6020821081036101e857634e487b7160e01b5f52602260045260245ffd5b50919050565b601f82111561023557805f5260205f20601f840160051c810160208510156102135750805b601f840160051c820191505b81811015610232575f815560010161021f565b50505b505050565b81516001600160401b03811115610253576102536100d9565b6102678161026184546101b6565b846101ee565b602080601f83116001811461029a575f84156102835750858301515b5f19600386901b1c1916600185901b1785556102f1565b5f85815260208120601f198616915b828110156102c8578886015182559484019460019091019084016102a9565b50858210156102e557878501515f19600388901b60f8161c191681555b505060018460011b0185555b505050505050565b611705806103065f395ff3fe608060405234801561000f575f80fd5b50600436106100d8575f3560e01c8062fdd58e146100dc57806301ffc9a71461010257806302fe530514610125578063088bcc301461013a5780630e89341c14610167578063156e29f6146101875780632eb2c2d61461019a5780634e1273f4146101ad578063715018a6146101cd5780638da5cb5b146101d5578063a22cb465146101ea578063c19d981c146101fd578063d81d0a1514610210578063e985e9c514610223578063f242432a14610236578063f2fde38b14610249578063f60f206c1461025c575b5f80fd5b6100ef6100ea366004610ebb565b61027b565b6040519081526020015b60405180910390f35b610115610110366004610ef8565b6102a2565b60405190151581526020016100f9565b610138610133366004610fb2565b6102f1565b005b610115610148366004610ffe565b600560209081525f928352604080842090915290825290205460ff1681565b61017a610175366004611028565b610305565b6040516100f9919061106d565b61013861019536600461107f565b610397565b6101386101a836600461115b565b6103e0565b6101c06101bb3660046111fd565b610441565b6040516100f991906112f0565b610138610507565b6101dd61051a565b6040516100f99190611302565b6101386101f8366004611316565b610529565b61013861020b366004610ebb565b610538565b61013861021e36600461134f565b610634565b6101156102313660046113bd565b6106c6565b6101386102443660046113e5565b6106f3565b610138610257366004611444565b610743565b6100ef61026a366004611028565b60046020525f908152604090205481565b5f818152602081815260408083206001600160a01b03861684529091529020545b92915050565b5f6001600160e01b03198216636cdb3d1360e11b14806102d257506001600160e01b031982166303a24d0760e21b145b8061029c57506301ffc9a760e01b6001600160e01b031983161461029c565b6102f961077d565b610302816107af565b50565b6060600280546103149061145d565b80601f01602080910402602001604051908101604052809291908181526020018280546103409061145d565b801561038b5780601f106103625761010080835404028352916020019161038b565b820191905f5260205f20905b81548152906001019060200180831161036e57829003601f168201915b50505050509050919050565b61039f61077d565b6103b983838360405180602001604052805f8152506107bb565b5f82815260046020526040812080548392906103d6908490611495565b9091555050505050565b336001600160a01b038616811480159061040157506103ff86826106c6565b155b1561042c57808660405163711bec9160e11b81526004016104239291906114b4565b60405180910390fd5b6104398686868686610801565b505050505050565b606081518351146104725781518351604051635b05999160e01b815260048101929092526024820152604401610423565b5f83516001600160401b0381111561048c5761048c610f1a565b6040519080825280602002602001820160405280156104b5578160200160208202803683370190505b5090505f5b84518110156104ff576104da6104d08683610866565b6100ea8684610866565b8282815181106104ec576104ec6114ce565b60209081029190910101526001016104ba565b509392505050565b61050f61077d565b6105185f610874565b565b6003546001600160a01b031690565b6105343383836108c5565b5050565b61054061077d565b5f61054b838361027b565b116105985760405162461bcd60e51b815260206004820152601f60248201527f486f6c64657220646f6573206e6f74206f776e2074686973207469636b6574006044820152606401610423565b5f8181526005602090815260408083206001600160a01b038616845290915290205460ff16156106065760405162461bcd60e51b81526020600482015260196024820152782a34b1b5b2ba1030b63932b0b23c9031b432b1b5b2b21034b760391b6044820152606401610423565b5f9081526005602090815260408083206001600160a01b03909416835292905220805460ff19166001179055565b61063c61077d565b61065683838360405180602001604052805f815250610959565b5f5b82518110156106c057818181518110610673576106736114ce565b602002602001015160045f858481518110610690576106906114ce565b602002602001015181526020019081526020015f205f8282546106b39190611495565b9091555050600101610658565b50505050565b6001600160a01b039182165f90815260016020908152604080832093909416825291909152205460ff1690565b336001600160a01b0386168114801590610714575061071286826106c6565b155b1561073657808660405163711bec9160e11b81526004016104239291906114b4565b610439868686868661098f565b61074b61077d565b6001600160a01b038116610774575f604051631e4fbdf760e01b81526004016104239190611302565b61030281610874565b3361078661051a565b6001600160a01b031614610518573360405163118cdaa760e01b81526004016104239190611302565b6002610534828261152b565b6001600160a01b0384166107e4575f604051632bfa23e760e11b81526004016104239190611302565b5f806107f08585610a06565b915091506104395f87848487610a2e565b6001600160a01b03841661082a575f604051632bfa23e760e11b81526004016104239190611302565b6001600160a01b038516610852575f604051626a0d4560e21b81526004016104239190611302565b61085f8585858585610a2e565b5050505050565b602090810291909101015190565b600380546001600160a01b038381166001600160a01b0319831681179093556040519116919082907f8be0079c531659141344cd1fd0a4f28419497f9722a3daafe3b4186f6b6457e0905f90a35050565b6001600160a01b0382166108ed575f60405162ced3e160e81b81526004016104239190611302565b6001600160a01b038381165f81815260016020908152604080832094871680845294825291829020805460ff191686151590811790915591519182527f17307eab39ab6107e8899845ad3d59bd9653f200f220920489ca2b5937696c31910160405180910390a3505050565b6001600160a01b038416610982575f604051632bfa23e760e11b81526004016104239190611302565b6106c05f85858585610a2e565b6001600160a01b0384166109b8575f604051632bfa23e760e11b81526004016104239190611302565b6001600160a01b0385166109e0575f604051626a0d4560e21b81526004016104239190611302565b5f806109ec8585610a06565b915091506109fd8787848487610a2e565b50505050505050565b6040805160018082526020820194909452808201938452606081019290925260808201905291565b610a3a85858585610a91565b6001600160a01b0384161561085f5782513390600103610a83575f610a5f8582610866565b90505f610a6c8582610866565b9050610a7c838989858589610cb3565b5050610439565b610439818787878787610dc2565b8051825114610ac05781518151604051635b05999160e01b815260048101929092526024820152604401610423565b335f5b8351811015610bca575f610ad78583610866565b90505f610ae48584610866565b90506001600160a01b03881615610b7c575f828152602081815260408083206001600160a01b038c16845290915290205481811015610b56576040516303dee4c560e01b81526001600160a01b038a166004820152602481018290526044810183905260648101849052608401610423565b5f838152602081815260408083206001600160a01b038d16845290915290209082900390555b6001600160a01b03871615610bc0575f828152602081815260408083206001600160a01b038b16845290915281208054839290610bba908490611495565b90915550505b5050600101610ac3565b508251600103610c55575f610bdf8482610866565b90505f610bec8482610866565b9050856001600160a01b0316876001600160a01b0316846001600160a01b03167fc3d58168c5ae7397731d063d5bbf3d657854427343f4c083240f7aacaa2d0f628585604051610c46929190918252602082015260400190565b60405180910390a4505061085f565b836001600160a01b0316856001600160a01b0316826001600160a01b03167f4a39dc06d4c0dbc64b70af90fd698a233a518aa5d07e595d983b8c0526c8f7fb8686604051610ca49291906115e6565b60405180910390a45050505050565b6001600160a01b0384163b156104395760405163f23a6e6160e01b81526001600160a01b0385169063f23a6e6190610cf79089908990889088908890600401611613565b6020604051808303815f875af1925050508015610d31575060408051601f3d908101601f19168201909252610d2e91810190611657565b60015b610d8f573d808015610d5e576040519150601f19603f3d011682016040523d82523d5f602084013e610d63565b606091505b5080515f03610d875784604051632bfa23e760e11b81526004016104239190611302565b805160208201fd5b6001600160e01b0319811663f23a6e6160e01b146109fd5784604051632bfa23e760e11b81526004016104239190611302565b6001600160a01b0384163b156104395760405163bc197c8160e01b81526001600160a01b0385169063bc197c8190610e069089908990889088908890600401611672565b6020604051808303815f875af1925050508015610e40575060408051601f3d908101601f19168201909252610e3d91810190611657565b60015b610e6d573d808015610d5e576040519150601f19603f3d011682016040523d82523d5f602084013e610d63565b6001600160e01b0319811663bc197c8160e01b146109fd5784604051632bfa23e760e11b81526004016104239190611302565b80356001600160a01b0381168114610eb6575f80fd5b919050565b5f8060408385031215610ecc575f80fd5b610ed583610ea0565b946020939093013593505050565b6001600160e01b031981168114610302575f80fd5b5f60208284031215610f08575f80fd5b8135610f1381610ee3565b9392505050565b634e487b7160e01b5f52604160045260245ffd5b604051601f8201601f191681016001600160401b0381118282101715610f5657610f56610f1a565b604052919050565b5f6001600160401b03831115610f7657610f76610f1a565b610f89601f8401601f1916602001610f2e565b9050828152838383011115610f9c575f80fd5b828260208301375f602084830101529392505050565b5f60208284031215610fc2575f80fd5b81356001600160401b03811115610fd7575f80fd5b8201601f81018413610fe7575f80fd5b610ff684823560208401610f5e565b949350505050565b5f806040838503121561100f575f80fd5b8235915061101f60208401610ea0565b90509250929050565b5f60208284031215611038575f80fd5b5035919050565b5f81518084528060208401602086015e5f602082860101526020601f19601f83011685010191505092915050565b602081525f610f13602083018461103f565b5f805f60608486031215611091575f80fd5b61109a84610ea0565b95602085013595506040909401359392505050565b5f6001600160401b038211156110c7576110c7610f1a565b5060051b60200190565b5f82601f8301126110e0575f80fd5b813560206110f56110f0836110af565b610f2e565b8083825260208201915060208460051b870101935086841115611116575f80fd5b602086015b84811015611132578035835291830191830161111b565b509695505050505050565b5f82601f83011261114c575f80fd5b610f1383833560208501610f5e565b5f805f805f60a0868803121561116f575f80fd5b61117886610ea0565b945061118660208701610ea0565b935060408601356001600160401b03808211156111a1575f80fd5b6111ad89838a016110d1565b945060608801359150808211156111c2575f80fd5b6111ce89838a016110d1565b935060808801359150808211156111e3575f80fd5b506111f08882890161113d565b9150509295509295909350565b5f806040838503121561120e575f80fd5b82356001600160401b0380821115611224575f80fd5b818501915085601f830112611237575f80fd5b813560206112476110f0836110af565b82815260059290921b84018101918181019089841115611265575f80fd5b948201945b8386101561128a5761127b86610ea0565b8252948201949082019061126a565b9650508601359250508082111561129f575f80fd5b506112ac858286016110d1565b9150509250929050565b5f815180845260208085019450602084015f5b838110156112e5578151875295820195908201906001016112c9565b509495945050505050565b602081525f610f1360208301846112b6565b6001600160a01b0391909116815260200190565b5f8060408385031215611327575f80fd5b61133083610ea0565b915060208301358015158114611344575f80fd5b809150509250929050565b5f805f60608486031215611361575f80fd5b61136a84610ea0565b925060208401356001600160401b0380821115611385575f80fd5b611391878388016110d1565b935060408601359150808211156113a6575f80fd5b506113b3868287016110d1565b9150509250925092565b5f80604083850312156113ce575f80fd5b6113d783610ea0565b915061101f60208401610ea0565b5f805f805f60a086880312156113f9575f80fd5b61140286610ea0565b945061141060208701610ea0565b9350604086013592506060860135915060808601356001600160401b03811115611438575f80fd5b6111f08882890161113d565b5f60208284031215611454575f80fd5b610f1382610ea0565b600181811c9082168061147157607f821691505b60208210810361148f57634e487b7160e01b5f52602260045260245ffd5b50919050565b8082018082111561029c57634e487b7160e01b5f52601160045260245ffd5b6001600160a01b0392831681529116602082015260400190565b634e487b7160e01b5f52603260045260245ffd5b601f82111561152657805f5260205f20601f840160051c810160208510156115075750805b601f840160051c820191505b8181101561085f575f8155600101611513565b505050565b81516001600160401b0381111561154457611544610f1a565b61155881611552845461145d565b846114e2565b602080601f83116001811461158b575f84156115745750858301515b5f19600386901b1c1916600185901b178555610439565b5f85815260208120601f198616915b828110156115b95788860151825594840194600190910190840161159a565b50858210156115d657878501515f19600388901b60f8161c191681555b5050505050600190811b01905550565b604081525f6115f860408301856112b6565b828103602084015261160a81856112b6565b95945050505050565b6001600160a01b03868116825285166020820152604081018490526060810183905260a0608082018190525f9061164c9083018461103f565b979650505050505050565b5f60208284031215611667575f80fd5b8151610f1381610ee3565b6001600160a01b0386811682528516602082015260a0604082018190525f9061169d908301866112b6565b82810360608401526116af81866112b6565b905082810360808401526116c3818561103f565b9897505050505050505056fea26469706673582212209bdfd0e3d5d0de8a23d64f75cd32ae728058984347b27ebe6286990433237a4c64736f6c63430008190033608060405234801561000f575f80fd5b506040516108c43803806108c483398101604081905261002e91610110565b806001600160a01b03811661005c57604051631e4fbdf760e01b81525f600482015260240160405180910390fd5b610065816100a6565b505060018055600280546001600160a01b039384166001600160a01b031991821617909155600380549290931691161790556005805460ff19169055610150565b5f80546001600160a01b038381166001600160a01b0319831681178455604051919092169283917f8be0079c531659141344cd1fd0a4f28419497f9722a3daafe3b4186f6b6457e09190a35050565b80516001600160a01b038116811461010b575f80fd5b919050565b5f805f60608486031215610122575f80fd5b61012b846100f5565b9250610139602085016100f5565b9150610147604085016100f5565b90509250925092565b6107678061015d5f395ff3fe608060405260043610610080575f3560e01c80630c3f6acf14610084578063123119cd146100b3578063715018a6146100df57806386d1a69f146100f55780638da5cb5b14610109578063aa8c217c1461011d578063ae90b21314610140578063d0e30db01461015f578063ea8a1af014610167578063f2fde38b1461017b575b5f80fd5b34801561008f575f80fd5b5060055461009d9060ff1681565b6040516100aa9190610685565b60405180910390f35b3480156100be575f80fd5b506002546100d2906001600160a01b031681565b6040516100aa91906106ab565b3480156100ea575f80fd5b506100f361019a565b005b348015610100575f80fd5b506100f36101ad565b348015610114575f80fd5b506100d2610343565b348015610128575f80fd5b5061013260045481565b6040519081526020016100aa565b34801561014b575f80fd5b506003546100d2906001600160a01b031681565b6100f3610351565b348015610172575f80fd5b506100f361041f565b348015610186575f80fd5b506100f36101953660046106bf565b610589565b6101a26105c6565b6101ab5f6105f8565b565b6002546001600160a01b031633146101e05760405162461bcd60e51b81526004016101d7906106ec565b60405180910390fd5b6101e8610647565b600160055460ff16600381111561020157610201610671565b1461025c5760405162461bcd60e51b815260206004820152602560248201527f43616e6e6f742072656c656173652066756e647320696e2063757272656e7420604482015264737461746560d81b60648201526084016101d7565b6005805460ff191660021790556003546004546040515f926001600160a01b031691908381818185875af1925050503d805f81146102b5576040519150601f19603f3d011682016040523d82523d5f602084013e6102ba565b606091505b50509050806102fe5760405162461bcd60e51b815260206004820152601060248201526f2a3930b739b332b9103330b4b632b21760811b60448201526064016101d7565b7ffb81f9b30d73d830c3544b34d827c08142579ee75710b490bab0b3995468c56560045460405161033191815260200190565b60405180910390a1506101ab60018055565b5f546001600160a01b031690565b6002546001600160a01b0316331461037b5760405162461bcd60e51b81526004016101d7906106ec565b5f60055460ff16600381111561039357610393610671565b146103d75760405162461bcd60e51b81526020600482015260146024820152734465706f73697420616c7265616479206d61646560601b60448201526064016101d7565b3460048190556005805460ff191660011790556040519081527f2a89b2e3d580398d6dc2db5e0f336b52602bbaa51afa9bb5cdf59239cf0d2bea9060200160405180910390a1565b6002546001600160a01b031633146104495760405162461bcd60e51b81526004016101d7906106ec565b610451610647565b600160055460ff16600381111561046a5761046a610671565b146104b75760405162461bcd60e51b815260206004820152601e60248201527f43616e6e6f742063616e63656c20696e2063757272656e74207374617465000060448201526064016101d7565b6005805460ff191660031790556002546004546040515f926001600160a01b031691908381818185875af1925050503d805f8114610510576040519150601f19603f3d011682016040523d82523d5f602084013e610515565b606091505b50509050806105575760405162461bcd60e51b815260206004820152600e60248201526d2932b33ab732103330b4b632b21760911b60448201526064016101d7565b6040517f63b958841f79ab97cb5456da181454b9932c0e15a3b17f1cbd27e2a8bc610437905f90a1506101ab60018055565b6105916105c6565b6001600160a01b0381166105ba575f604051631e4fbdf760e01b81526004016101d791906106ab565b6105c3816105f8565b50565b336105cf610343565b6001600160a01b0316146101ab573360405163118cdaa760e01b81526004016101d791906106ab565b5f80546001600160a01b038381166001600160a01b0319831681178455604051919092169283917f8be0079c531659141344cd1fd0a4f28419497f9722a3daafe3b4186f6b6457e09190a35050565b60026001540361066a57604051633ee5aeb560e01b815260040160405180910390fd5b6002600155565b634e487b7160e01b5f52602160045260245ffd5b60208101600483106106a557634e487b7160e01b5f52602160045260245ffd5b91905290565b6001600160a01b0391909116815260200190565b5f602082840312156106cf575f80fd5b81356001600160a01b03811681146106e5575f80fd5b9392505050565b60208082526025908201527f4f6e6c79207468652070617965722063616e2063616c6c20746869732066756e60408201526431ba34b7b760d91b60608201526080019056fea264697066735822122088119af4907ee6507fe516bcdf45e350cfc6081add48909fd37bef01625c080f64736f6c63430008190033a264697066735822122046cb8c5d52be53ff4c5ad988365e847a02f50a1943cbedc44eb964c7b0c5c2c164736f6c63430008190033",
  "linkReferences": {},
  "deployedLinkReferences": {}
}