{
  "_format": "hh-sol-artifact-1",
  "contractName": "ContractFactory",
  "sourceName": "contracts/ContractFactory.sol",
  "abi": [
    {
      "inputs": [
        {
          "internalType": "address",
          "name": "initialAdmin",
          "type": "address"
        }
      ],
      "stateMutability": "nonpayable",
      "type": "constructor"
    },
    {
      "inputs": [],
      "name": "AccessControlBadConfirmation",
      "type": "error"
    },
    {
      "inputs": [
        {
          "internalType": "address",
          "name": "account",
          "type": "address"
        },
        {
          "internalType": "bytes32",
          "name": "neededRole",
          "type": "bytes32"
        }
      ],
      "name": "AccessControlUnauthorizedAccount",
      "type": "error"
    },
    {
      "anonymous": false,
      "inputs": [
        {
          "indexed": true,
          "internalType": "address",
          "name": "contractAddress",
          "type": "address"
        },
        {
          "indexed": true,
          "internalType": "address",
          "name": "creator",
          "type": "address"
        },
        {
          "indexed": false,
          "internalType": "string",
          "name": "contractType",
          "type": "string"
        },
        {
          "indexed": false,
          "internalType": "uint256",
          "name": "timestamp",
          "type": "uint256"
        }
      ],
      "name": "ContractCreated",
      "type": "event"
    },
    {
      "anonymous": false,
      "inputs": [
        {
          "indexed": true,
          "internalType": "bytes32",
          "name": "role",
          "type": "bytes32"
        },
        {
          "indexed": true,
          "internalType": "bytes32",
          "name": "previousAdminRole",
          "type": "bytes32"
        },
        {
          "indexed": true,
          "internalType": "bytes32",
          "name": "newAdminRole",
          "type": "bytes32"
        }
      ],
      "name": "RoleAdminChanged",
      "type": "event"
    },
    {
      "anonymous": false,
      "inputs": [
        {
          "indexed": true,
          "internalType": "bytes32",
          "name": "role",
          "type": "bytes32"
        },
        {
          "indexed": true,
          "internalType": "address",
          "name": "account",
          "type": "address"
        },
        {
          "indexed": true,
          "internalType": "address",
          "name": "sender",
          "type": "address"
        }
      ],
      "name": "RoleGranted",
      "type": "event"
    },
    {
      "anonymous": false,
      "inputs": [
        {
          "indexed": true,
          "internalType": "bytes32",
          "name": "role",
          "type": "bytes32"
        },
        {
          "indexed": true,
          "internalType": "address",
          "name": "account",
          "type": "address"
        },
        {
          "indexed": true,
          "internalType": "address",
          "name": "sender",
          "type": "address"
        }
      ],
      "name": "RoleRevoked",
      "type": "event"
    },
    {
      "inputs": [],
      "name": "CREATOR_ROLE",
      "outputs": [
        {
          "internalType": "bytes32",
          "name": "",
          "type": "bytes32"
        }
      ],
      "stateMutability": "view",
      "type": "function"
    },
    {
      "inputs": [],
      "name": "DEFAULT_ADMIN_ROLE",
      "outputs": [
        {
          "internalType": "bytes32",
          "name": "",
          "type": "bytes32"
        }
      ],
      "stateMutability": "view",
      "type": "function"
    },
    {
      "inputs": [
        {
          "internalType": "address payable",
          "name": "_beneficiary",
          "type": "address"
        },
        {
          "internalType": "address",
          "name": "_arbiter",
          "type": "address"
        }
      ],
      "name": "createEscrow",
      "outputs": [
        {
          "internalType": "address",
          "name": "",
          "type": "address"
        }
      ],
      "stateMutability": "nonpayable",
      "type": "function"
    },
    {
      "inputs": [
        {
          "internalType": "string",
          "name": "_uri",
          "type": "string"
        }
      ],
      "name": "createEventTicket",
      "outputs": [
        {
          "internalType": "address",
          "name": "",
          "type": "address"
        }
      ],
      "stateMutability": "nonpayable",
      "type": "function"
    },
    {
      "inputs": [
        {
          "internalType": "string",
          "name": "name",
          "type": "string"
        },
        {
          "internalType": "string",
          "name": "symbol",
          "type": "string"
        },
        {
          "internalType": "address",
          "name": "_nftAddress",
          "type": "address"
        },
        {
          "internalType": "uint256",
          "name": "_nftId",
          "type": "uint256"
        },
        {
          "internalType": "uint256",
          "name": "_totalSupply",
          "type": "uint256"
        }
      ],
      "name": "createFractionalizer",
      "outputs": [
        {
          "internalType": "address",
          "name": "",
          "type": "address"
        }
      ],
      "stateMutability": "nonpayable",
      "type": "function"
    },
    {
      "inputs": [
        {
          "internalType": "address",
          "name": "_token",
          "type": "address"
        },
        {
          "internalType": "address payable",
          "name": "_timelock",
          "type": "address"
        }
      ],
      "name": "createGovernor",
      "outputs": [
        {
          "internalType": "address",
          "name": "",
          "type": "address"
        }
      ],
      "stateMutability": "nonpayable",
      "type": "function"
    },
    {
      "inputs": [
        {
          "internalType": "string",
          "name": "_name",
          "type": "string"
        },
        {
          "internalType": "string",
          "name": "_symbol",
          "type": "string"
        }
      ],
      "name": "createKalaKrutNFT",
      "outputs": [
        {
          "internalType": "address",
          "name": "",
          "type": "address"
        }
      ],
      "stateMutability": "nonpayable",
      "type": "function"
    },
    {
      "inputs": [],
      "name": "createKalaKrutToken",
      "outputs": [
        {
          "internalType": "address",
          "name": "",
          "type": "address"
        }
      ],
      "stateMutability": "nonpayable",
      "type": "function"
    },
    {
      "inputs": [
        {
          "internalType": "uint256",
          "name": "minDelay",
          "type": "uint256"
        },
        {
          "internalType": "address[]",
          "name": "proposers",
          "type": "address[]"
        },
        {
          "internalType": "address[]",
          "name": "executors",
          "type": "address[]"
        }
      ],
      "name": "createTimelockController",
      "outputs": [
        {
          "internalType": "address",
          "name": "",
          "type": "address"
        }
      ],
      "stateMutability": "nonpayable",
      "type": "function"
    },
    {
      "inputs": [],
      "name": "createTreasury",
      "outputs": [
        {
          "internalType": "address",
          "name": "",
          "type": "address"
        }
      ],
      "stateMutability": "nonpayable",
      "type": "function"
    },
    {
      "inputs": [
        {
          "internalType": "bytes32",
          "name": "role",
          "type": "bytes32"
        }
      ],
      "name": "getRoleAdmin",
      "outputs": [
        {
          "internalType": "bytes32",
          "name": "",
          "type": "bytes32"
        }
      ],
      "stateMutability": "view",
      "type": "function"
    },
    {
      "inputs": [
        {
          "internalType": "bytes32",
          "name": "role",
          "type": "bytes32"
        },
        {
          "internalType": "address",
          "name": "account",
          "type": "address"
        }
      ],
      "name": "grantRole",
      "outputs": [],
      "stateMutability": "nonpayable",
      "type": "function"
    },
    {
      "inputs": [
        {
          "internalType": "bytes32",
          "name": "role",
          "type": "bytes32"
        },
        {
          "internalType": "address",
          "name": "account",
          "type": "address"
        }
      ],
      "name": "hasRole",
      "outputs": [
        {
          "internalType": "bool",
          "name": "",
          "type": "bool"
        }
      ],
      "stateMutability": "view",
      "type": "function"
    },
    {
      "inputs": [
        {
          "internalType": "bytes32",
          "name": "role",
          "type": "bytes32"
        },
        {
          "internalType": "address",
          "name": "callerConfirmation",
          "type": "address"
        }
      ],
      "name": "renounceRole",
      "outputs": [],
      "stateMutability": "nonpayable",
      "type": "function"
    },
    {
      "inputs": [
        {
          "internalType": "bytes32",
          "name": "role",
          "type": "bytes32"
        },
        {
          "internalType": "address",
          "name": "account",
          "type": "address"
        }
      ],
      "name": "revokeRole",
      "outputs": [],
      "stateMutability": "nonpayable",
      "type": "function"
    },
    {
      "inputs": [
        {
          "internalType": "bytes4",
          "name": "interfaceId",
          "type": "bytes4"
        }
      ],
      "name": "supportsInterface",
      "outputs": [
        {
          "internalType": "bool",
          "name": "",
          "type": "bool"
        }
      ],
      "stateMutability": "view",
      "type": "function"
    }
  ],
  "bytecode": "0x60803461007e57601f6200e8dc38819003918201601f19168301916001600160401b038311848410176100835780849260209460405283398101031261007e57516001600160a01b038116810361007e576100639061005d33610099565b50610118565b5061006d33610118565b5060405161e7029081620001ba8239f35b600080fd5b634e487b7160e01b600052604160045260246000fd5b6001600160a01b031660008181527fad3228b676f7d3cd4284a5443f17f1962b36e491b30a40b2405849e597ba5fb5602052604081205490919060ff1661011457818052816020526040822081835260205260408220600160ff1982541617905533916000805160206200e8bc8339815191528180a4600190565b5090565b6001600160a01b031660008181527ffb6cfbf0a6e77dfd309859bf4bad2c7342bd2b734e42c01cbc85d3e6dd74f95e60205260408120549091907f828634d95e775031b9ff576b159a8509d3053581a8c9c4d7d86899e0afcd882f9060ff166101b457808352826020526040832082845260205260408320600160ff198254161790556000805160206200e8bc833981519152339380a4600190565b50509056fe60806040818152600490813610156200001757600080fd5b600092833560e01c90816301ffc9a714620009fb575080631002372d1462000955578063248a9ca314620009295780632f2ff15d14620008fa57806336568abe14620008ac5780634298c60314620007a7578063834cc6fc14620006cf57806384c1eac614620005f25780638aeda25a14620005b55780638c4ae92c14620004675780638fd56c8f14620003b357806391d148541462000369578063a217fddf146200034c578063ac0bdc071462000267578063bf5064ce146200012d5763d547741f14620000e557600080fd5b3462000129578060031936011262000129576200012591356200011f60016200010d62000a54565b93838752866020528620015462000c93565b62000d39565b5080f35b8280fd5b5082903462000263576060366003190112620002635767ffffffffffffffff6024358181116200025f5762000166903690860162000b1c565b906044358181116200025b5762000181903690870162000b1c565b6200018b62000c18565b835192611a3780850193841185851017620002485791620001c9620001d7928987969562000db0883935855260806020860152608085019062000bd9565b908382038785015262000bd9565b90606033910152039083f080156200023d576020925060018060a01b0316908051818152601282820152712a34b6b2b637b1b5a1b7b73a3937b63632b960711b60608201524284820152826000805160206200e6ad83398151915260803393a351908152f35b5051903d90823e3d90fd5b634e487b7160e01b875260418852602487fd5b8480fd5b8380fd5b5080fd5b50903462000129576020366003190112620001295767ffffffffffffffff81358181116200025b576200029e903690840162000ac4565b90620002a962000c18565b835192611a1d9081850192858410908411176200033957509184620002e192859462002fca8639338152816020820152019062000b97565b039083f080156200023d576020925060018060a01b0316908051818152600b828201526a115d995b9d151a58dad95d60aa1b60608201524284820152826000805160206200e6ad83398151915260803393a351908152f35b634e487b7160e01b875260419052602486fd5b838234620002635781600319360112620002635751908152602090f35b50903462000129578160031936011262000129578160209360ff926200038e62000a54565b903582528186528282206001600160a01b039091168252855220549151911615158152f35b5090346200012957826003193601126200012957620003d162000c18565b8151906103038083019183831067ffffffffffffffff84111762000454575060209183916200e3aa833933815203019083f080156200023d576020925060018060a01b031690805181815260088282015267547265617375727960c01b60608201524284820152826000805160206200e6ad83398151915260803393a351908152f35b634e487b7160e01b865260419052602485fd5b50829034620002635760a0366003190112620002635767ffffffffffffffff83358181116200025f576200049f903690860162000ac4565b6024358281116200025b57620004b9903690870162000ac4565b6001600160a01b03926044358481169290839003620005b157620004dc62000c18565b855193610fdf808601938411868510176200059e57916200051a620005289287969594620049e7883933855260c0602086015260c085019062000b97565b908382038985015262000b97565b916060820152606435608082015260a0608435910152039084f0801562000592576020935016908051818152600e828201526d233930b1ba34b7b730b634bd32b960911b60608201524284820152826000805160206200e6ad83398151915260803393a351908152f35b505051903d90823e3d90fd5b634e487b7160e01b895260418a52602489fd5b8680fd5b8382346200026357816003193601126200026357602090517f828634d95e775031b9ff576b159a8509d3053581a8c9c4d7d86899e0afcd882f8152f35b50903462000129578160031936011262000129576200061062000a70565b6200061a62000a54565b916200062562000c18565b83516001600160a01b039390926148dc8085019367ffffffffffffffff851186861017620006bc57508492868895938193620059c6873916835216602082015203019084f08015620005925760209350169080518181526010828201526f25b0b630a5b93aba23b7bb32b93737b960811b60608201524284820152826000805160206200e6ad83398151915260803393a351908152f35b634e487b7160e01b895260419052602488fd5b5090346200012957816003193601126200012957620006ed62000a70565b620006f762000a54565b916200070262000c18565b8351916107e38084019284841067ffffffffffffffff851117620007945750918391606093620027e784393382526001600160a01b0390811660208301529485168682015203019084f080156200059257602093501690805181815260068282015265457363726f7760d01b60608201524284820152826000805160206200e6ad83398151915260803393a351908152f35b634e487b7160e01b885260419052602487fd5b509034620001295781600319360112620001295767ffffffffffffffff81358181116200025b57620007dd903690840162000ac4565b602435828111620008a857620007f7903690850162000ac4565b906200080262000c18565b84519361167b908186019486861090861117620007945750916200084285949262000850946200a2a2873933845260606020850152606084019062000b97565b918681840391015262000b97565b039083f080156200023d576020925060018060a01b0316908051818152600b828201526a12d85b1852dc9d5d13919560aa1b60608201524284820152826000805160206200e6ad83398151915260803393a351908152f35b8580fd5b508290346200026357806003193601126200026357620008cb62000a54565b90336001600160a01b03831603620008eb57506200012591923562000d39565b5163334bd91960e11b81528390fd5b503462000129578060031936011262000129576200012591356200092360016200010d62000a54565b62000cba565b509034620001295760203660031901126200012957816020936001923581528085522001549051908152f35b50903462000129578260031936011262000129576200097362000c18565b815190612a8d8083019183831067ffffffffffffffff84111762000454575060209183916200b91d833933815203019083f080156200023d576020925060018060a01b0316908051818152600d828201526c25b0b630a5b93aba2a37b5b2b760991b60608201524284820152826000805160206200e6ad83398151915260803393a351908152f35b849084346200012957602036600319011262000129573563ffffffff60e01b8116809103620001295760209250637965db0b60e01b811490811562000a42575b5015158152f35b6301ffc9a760e01b1490508362000a3b565b602435906001600160a01b038216820362000a6b57565b600080fd5b600435906001600160a01b038216820362000a6b57565b6040519190601f01601f1916820167ffffffffffffffff81118382101762000aae57604052565b634e487b7160e01b600052604160045260246000fd5b81601f8201121562000a6b5780359067ffffffffffffffff821162000aae5762000af8601f8301601f191660200162000a87565b928284526020838301011162000a6b57816000926020809301838601378301015290565b81601f8201121562000a6b5780359160209167ffffffffffffffff841162000aae578360051b90838062000b5281850162000a87565b80978152019282010192831162000a6b578301905b82821062000b76575050505090565b81356001600160a01b038116810362000a6b57815290830190830162000b67565b919082519283825260005b84811062000bc4575050826000602080949584010152601f8019910116010190565b60208183018101518483018201520162000ba2565b90815180825260208080930193019160005b82811062000bfa575050505090565b83516001600160a01b03168552938101939281019260010162000beb565b3360009081527ffb6cfbf0a6e77dfd309859bf4bad2c7342bd2b734e42c01cbc85d3e6dd74f95e60205260409020547f828634d95e775031b9ff576b159a8509d3053581a8c9c4d7d86899e0afcd882f9060ff161562000c755750565b6044906040519063e2517d3f60e01b82523360048301526024820152fd5b80600052600060205260406000203360005260205260ff604060002054161562000c755750565b9060009180835282602052604083209160018060a01b03169182845260205260ff6040842054161560001462000d3457808352826020526040832082845260205260408320600160ff198254161790557f2f8788117e7eff1d82e926ec794901d17c78024a50270940304540a733656f0d339380a4600190565b505090565b9060009180835282602052604083209160018060a01b03169182845260205260ff60408420541660001462000d345780835282602052604083208284526020526040832060ff1981541690557ff6391f5c32d9c69d2a47ea670b442974b53935d1edc7fd64eb21e047a839171b339380a460019056fe608060405234620001755762001a37803803806200001d816200017a565b9283398101906080818303126200017557805160208201516001600160401b039081811162000175578462000054918501620001cb565b9360408401519182116200017557620000766060916200007e938601620001cb565b9301620001b6565b906200008a3062000269565b506001600160a01b039180831662000162575b5060005b8451811015620000e95780620000c784620000bf600194896200023e565b5116620002e9565b50620000e184620000d983896200023e565b51166200038b565b5001620000a1565b50925060005b82518110156200011d578062000115836200010d600194876200023e565b511662000428565b5001620000ef565b7f11c24f4ead16507c69ac467fbd5e4eed5fb5c699626d2cc6d66421df253886d560408580600255815190600082526020820152a16040516115519081620004c68239f35b6200016d9062000269565b50386200009d565b600080fd5b6040519190601f01601f191682016001600160401b03811183821017620001a057604052565b634e487b7160e01b600052604160045260246000fd5b51906001600160a01b03821682036200017557565b81601f8201121562000175578051916020916001600160401b038411620001a0578360051b908380620002008185016200017a565b80978152019282010192831162000175578301905b82821062000224575050505090565b8380916200023284620001b6565b81520191019062000215565b8051821015620002535760209160051b010190565b634e487b7160e01b600052603260045260246000fd5b6001600160a01b031660008181527fad3228b676f7d3cd4284a5443f17f1962b36e491b30a40b2405849e597ba5fb5602052604081205490919060ff16620002e557818052816020526040822081835260205260408220600160ff19825416179055339160008051602062001a178339815191528180a4600190565b5090565b6001600160a01b031660008181527f3412d5605ac6cd444957cedb533e5dacad6378b4bc819ebe3652188a665066d560205260408120549091907fb09aa5aeb3702cfd50b6b62bc4532604938f21248a27a1d5ca736082b6819cc19060ff166200038657808352826020526040832082845260205260408320600160ff1982541617905560008051602062001a17833981519152339380a4600190565b505090565b6001600160a01b031660008181527fc3ad33e20b0c56a223ad5104fff154aa010f8715b9c981fd38fdc60a4d1a52fb60205260408120549091907ffd643c72710c63c0180259aba6b2d05451e3591a24e58b62239378085726f7839060ff166200038657808352826020526040832082845260205260408320600160ff1982541617905560008051602062001a17833981519152339380a4600190565b6001600160a01b031660008181527fdae2aa361dfd1ca020a396615627d436107c35eff9fe7738a3512819782d706960205260408120549091907fd8aa0f3194971a2a116679f7c2090f6939c8d4e01a2a8d7e41d55e5351469e639060ff166200038657808352826020526040832082845260205260408320600160ff1982541617905560008051602062001a17833981519152339380a460019056fe60406080815260049081361015610020575b5050361561001e57600080fd5b005b600091823560e01c90816301d5062a14610b0a57816301ffc9a714610a9757816307bd026514610a6e57838263134008d3146109c45750816313bc9f20146109a4578163150b7a021461094f578163248a9ca3146109255781632ab0f529146109055781632f2ff15d146108db57816331d50750146108bb57816336568abe14610875578163584b153e1461084c57816364d62353146107e05781637958004c1461079d5781638065657f1461077b5781638f2a0bb0146105db5781638f61f4f5146105a057816391d148541461055a578163a217fddf1461053f578163b08e51c014610504578163b1c5f427146104d8578163bc197c8114610452578163c4d252f514610383578163d45c44351461035b578163d547741f14610316578163e38335e5146101d8578163f23a6e6114610180575063f27a0c9203610011573461017c578160031936011261017c576020906002549051908152f35b5080fd5b8284346101d55760a03660031901126101d55761019b610be8565b506101a4610c03565b50608435906001600160401b0382116101d557506020926101c791369101610ce6565b505163f23a6e6160e01b8152f35b80fd5b90506101e336610d5d565b9098949591939296976000805160206114fc8339815191528b528a602052858b208b805260205260ff868c20541615610308575b8383148015906102fe575b6102d0575061023a610241918a868a878b888f611036565b9889611302565b885b81811061025757896102548a6113bd565b80f35b80808a7fc2617efa69bab66782fa219543714338489c4e9e178271560a91b82c3f612b588a8a6102c76102af8f988c6102a8828e6102a28f60019f61029d918591610fbb565b610fe1565b97610fbb565b3595610ff5565b906102bc82828787611368565b8d5194859485610e7d565b0390a301610243565b85516001624fcdef60e01b031981529081019283526020830185905260408301849052918291506060010390fd5b5084831415610222565b6103113361127e565b610217565b91905034610357578060031936011261035757610353913561034e600161033b610c03565b93838752866020528620015433906112d1565b61145b565b5080f35b8280fd5b9050346103575760203660031901126103575760209282913581526001845220549051908152f35b91905034610357576020366003190112610357578135917ffd643c72710c63c0180259aba6b2d05451e3591a24e58b62239378085726f7838085528460205282852033865260205260ff83862054161561043757506103e183610f01565b1561041b5750829082825260016020528120557fbaa1eb22f2a492ba1a5fea61b8df4d27c6c8b5f3971e63bb58fa14ff72eedb708280a280f35b826044925191635ead8eb560e01b835282015260066024820152fd5b604492519163e2517d3f60e01b835233908301526024820152fd5b8284346101d55760a03660031901126101d55761046d610be8565b50610476610c03565b506001600160401b039060443582811161017c576104979036908601610dbe565b5060643582811161017c576104af9036908601610dbe565b506084359182116101d557506020926104ca91369101610ce6565b505163bc197c8160e01b8152f35b50503461017c576020906104fd6104ee36610d5d565b96959095949194939293611036565b9051908152f35b50503461017c578160031936011261017c57602090517ffd643c72710c63c0180259aba6b2d05451e3591a24e58b62239378085726f7838152f35b50503461017c578160031936011261017c5751908152602090f35b9050346103575781600319360112610357578160209360ff9261057b610c03565b903582528186528282206001600160a01b039091168252855220549151911615158152f35b50503461017c578160031936011261017c57602090517fb09aa5aeb3702cfd50b6b62bc4532604938f21248a27a1d5ca736082b6819cc18152f35b919050346103575760c0366003190112610357576001600160401b039082358281116107775761060e9036908501610d2d565b93602435848111610773576106269036908301610d2d565b9460443590811161076f5761063e9036908401610d2d565b606493919335906084359760a43593610656336111fb565b818b14801590610765575b610737575061067789848489858f8b908e611036565b99610682858c611174565b8a8c5b8a8382106106cb578e838e838161069a578380f35b7f20fda5fd27a1ea7bf5b9567f143ac5470bb059374a27e8f67cb44f946f6d03879160209151908152a28180808380f35b6001927f4cf4410cc57040e44862ef0f45f3dd5a5e02db8eb8add648d4b0e236f1d07dca8b8b61072c8f8c88978f92898f8f8f61071a9161071461029d86809461072199610fbb565b9a610fbb565b3598610ff5565b915196879687610e45565b0390a3018b90610685565b88516001624fcdef60e01b031981529081018b81526020810184905260408101929092529081906060010390fd5b50828b1415610661565b8780fd5b8680fd5b8480fd5b50503461017c576020906104fd61079136610c46565b94939093929192610f66565b83833461017c57602036600319011261017c576107ba8335610f2a565b905191838210156107cd57602083838152f35b634e487b7160e01b815260218452602490fd5b919050346103575760203660031901126103575781359130330361083657507f11c24f4ead16507c69ac467fbd5e4eed5fb5c699626d2cc6d66421df253886d5906002548151908152836020820152a160025580f35b602491519063e2850c5960e01b82523390820152fd5b8284346101d55760203660031901126101d5575061086c60209235610f01565b90519015158152f35b83833461017c578060031936011261017c5761088f610c03565b90336001600160a01b038316036108ac575061035391923561145b565b5163334bd91960e11b81528390fd5b8284346101d55760203660031901126101d5575061086c60209235610eea565b919050346103575780600319360112610357576103539135610900600161033b610c03565b6113dd565b8284346101d55760203660031901126101d5575061086c60209235610ed2565b90503461035757602036600319011261035757816020936001923581528085522001549051908152f35b8284346101d55760803660031901126101d55761096a610be8565b50610973610c03565b50606435906001600160401b0382116101d5575060209261099691369101610ce6565b5051630a85bd0160e11b8152f35b8284346101d55760203660031901126101d5575061086c60209235610ea4565b610254610a4282610a587fc2617efa69bab66782fa219543714338489c4e9e178271560a91b82c3f612b58610a39896109fc36610c46565b6000805160206114fc8339815191528b9a9697939598929a528a602052828b208b805260205260ff838c20541615610a60575b8985858a8a610f66565b998a9889611302565b610a4e83838888611368565b5194859485610e7d565b0390a36113bd565b610a693361127e565b610a2f565b50503461017c578160031936011261017c57602090516000805160206114fc8339815191528152f35b90503461035757602036600319011261035757359063ffffffff60e01b82168092036103575760209250630271189760e51b8214918215610adc575b50519015158152f35b909150637965db0b60e01b8114908115610af9575b509038610ad3565b6301ffc9a760e01b14905038610af1565b919050346103575760c036600319011261035757610b26610be8565b90836024356044356001600160401b038111610357577f4cf4410cc57040e44862ef0f45f3dd5a5e02db8eb8add648d4b0e236f1d07dca95610b6a91369101610c19565b95909160643595610bab6084359760a43590610b85336111fb565b610b938a828d8a8989610f66565b9a8b97610ba0848a611174565b8a5196879687610e45565b0390a381610bb7578380f35b7f20fda5fd27a1ea7bf5b9567f143ac5470bb059374a27e8f67cb44f946f6d03879160209151908152a23880808380f35b600435906001600160a01b0382168203610bfe57565b600080fd5b602435906001600160a01b0382168203610bfe57565b9181601f84011215610bfe578235916001600160401b038311610bfe5760208381860195010111610bfe57565b60a0600319820112610bfe576004356001600160a01b0381168103610bfe579160243591604435906001600160401b038211610bfe57610c8891600401610c19565b90916064359060843590565b90601f801991011681019081106001600160401b03821117610cb557604052565b634e487b7160e01b600052604160045260246000fd5b6001600160401b038111610cb557601f01601f191660200190565b81601f82011215610bfe57803590610cfd82610ccb565b92610d0b6040519485610c94565b82845260208383010111610bfe57816000926020809301838601378301015290565b9181601f84011215610bfe578235916001600160401b038311610bfe576020808501948460051b010111610bfe57565b9060a0600319830112610bfe576001600160401b03600435818111610bfe5783610d8991600401610d2d565b93909392602435838111610bfe5782610da491600401610d2d565b93909392604435918211610bfe57610c8891600401610d2d565b81601f82011215610bfe578035916020916001600160401b038411610cb5578360051b9060405194610df285840187610c94565b85528380860192820101928311610bfe578301905b828210610e15575050505090565b81358152908301908301610e07565b908060209392818452848401376000828201840152601f01601f1916010190565b929093610e73926080959897969860018060a01b03168552602085015260a0604085015260a0840191610e24565b9460608201520152565b610ea1949260609260018060a01b0316825260208201528160408201520191610e24565b90565b610ead90610f2a565b6004811015610ebc5760021490565b634e487b7160e01b600052602160045260246000fd5b610edb90610f2a565b6004811015610ebc5760031490565b610ef390610f2a565b6004811015610ebc57151590565b610f0a90610f2a565b6004811015610ebc5760018114908115610f22575090565b600291501490565b60005260016020526040600020548015600014610f475750600090565b60018103610f555750600390565b421015610f6157600190565b600290565b94610f9c610fb594959293604051968795602087019960018060a01b03168a52604087015260a0606087015260c0860191610e24565b91608084015260a083015203601f198101835282610c94565b51902090565b9190811015610fcb5760051b0190565b634e487b7160e01b600052603260045260246000fd5b356001600160a01b0381168103610bfe5790565b9190811015610fcb5760051b81013590601e1981360301821215610bfe5701908135916001600160401b038311610bfe576020018236038113610bfe579190565b969294909695919560405196602091828901998060c08b0160a08d525260e08a01919060005b81811061114c57505050601f19898203810160408b0152888252976001600160fb1b038111610bfe579089969495939897929160051b80928a830137019380888601878703606089015252604085019460408260051b82010195836000925b8484106110e357505050505050610fb59550608084015260a083015203908101835282610c94565b9193969850919398999496603f198282030184528935601e1984360301811215610bfe5783018681019190356001600160401b038111610bfe578036038313610bfe5761113588928392600195610e24565b9b0194019401918b98969394919a9997959a6110bb565b90919283359060018060a01b038216809203610bfe579081528501928501919060010161105c565b9061117e82610eea565b6111db576002548082106111bd57504201908142116111a7576000526001602052604060002055565b634e487b7160e01b600052601160045260246000fd5b6044925060405191635433660960e01b835260048301526024820152fd5b604051635ead8eb560e01b81526004810183905260016024820152604490fd5b6001600160a01b031660008181527f3412d5605ac6cd444957cedb533e5dacad6378b4bc819ebe3652188a665066d560205260409020547fb09aa5aeb3702cfd50b6b62bc4532604938f21248a27a1d5ca736082b6819cc19060ff1615611260575050565b604492506040519163e2517d3f60e01b835260048301526024820152fd5b6001600160a01b031660008181527fdae2aa361dfd1ca020a396615627d436107c35eff9fe7738a3512819782d706960205260409020546000805160206114fc8339815191529060ff1615611260575050565b80600052600060205260406000209160018060a01b0316918260005260205260ff6040600020541615611260575050565b61130b81610ea4565b15611349575080151580611339575b6113215750565b6024906040519063121534c360e31b82526004820152fd5b5061134381610ed2565b1561131a565b60449060405190635ead8eb560e01b8252600482015260046024820152fd5b6113b293600093928493826040519384928337810185815203925af13d156113b5573d9061139582610ccb565b916113a36040519384610c94565b82523d6000602084013e6114d0565b50565b6060906114d0565b6113c681610ea4565b156113495760005260016020526001604060002055565b9060009180835282602052604083209160018060a01b03169182845260205260ff6040842054161560001461145657808352826020526040832082845260205260408320600160ff198254161790557f2f8788117e7eff1d82e926ec794901d17c78024a50270940304540a733656f0d339380a4600190565b505090565b9060009180835282602052604083209160018060a01b03169182845260205260ff6040842054166000146114565780835282602052604083208284526020526040832060ff1981541690557ff6391f5c32d9c69d2a47ea670b442974b53935d1edc7fd64eb21e047a839171b339380a4600190565b9091906114f957508051156114e757805190602001fd5b604051630a12f52160e11b8152600490fd5b56fed8aa0f3194971a2a116679f7c2090f6939c8d4e01a2a8d7e41d55e5351469e63a264697066735822122097eb4ccb3d8211da1c5459da59d23b67ecc5171bf9e7a20ffa28562e82080ff164736f6c634300081800332f8788117e7eff1d82e926ec794901d17c78024a50270940304540a733656f0d6080346100fc57601f6107e338819003918201601f19168301916001600160401b03831184841017610101578084926060946040528339810103126100fc5761004781610117565b90604061005660208301610117565b916001600160a01b0391829161006c9101610117565b169182156100e357816000549460018060a01b03199480868816176000558260405197167f8be0079c531659141344cd1fd0a4f28419497f9722a3daafe3b4186f6b6457e0600080a360018055168360025416176002551690600354161760035560ff19600554166005556106b7908161012c8239f35b604051631e4fbdf760e01b815260006004820152602490fd5b600080fd5b634e487b7160e01b600052604160045260246000fd5b51906001600160a01b03821682036100fc5756fe608060408181526004908136101561001657600080fd5b600092833560e01c9081630c3f6acf1461053a57508063123119cd14610511578063715018a6146104b457806386d1a69f146103785780638da5cb5b14610350578063aa8c217c14610332578063ae90b21314610305578063d0e30db014610247578063ea8a1af0146101225763f2fde38b1461009257600080fd5b3461011e57602036600319011261011e576001600160a01b0382358181169391929084900361011a576100c3610632565b831561010457505082546001600160a01b0319811683178455167f8be0079c531659141344cd1fd0a4f28419497f9722a3daafe3b4186f6b6457e08380a380f35b51631e4fbdf760e01b8152908101849052602490fd5b8480fd5b8280fd5b503461011e578260031936011261011e576002546001600160a01b039061014c9082163314610577565b61015461065e565b60055460ff811684811015610234576001036101f157848080936003829460ff191617600555600254168654905af161018b6105d1565b50156101bd57827f63b958841f79ab97cb5456da181454b9932c0e15a3b17f1cbd27e2a8bc6104378180a16001805580f35b906020606492519162461bcd60e51b8352820152600e60248201526d2932b33ab732103330b4b632b21760911b6044820152fd5b825162461bcd60e51b8152602081860152601e60248201527f43616e6e6f742063616e63656c20696e2063757272656e7420737461746500006044820152606490fd5b634e487b7160e01b865260218552602486fd5b50908260031936011261011e5761026960018060a01b03600254163314610577565b6005549060ff8216818110156102f2576102b8579160016020927f2a89b2e3d580398d6dc2db5e0f336b52602bbaa51afa9bb5cdf59239cf0d2bea9434905560ff19161760055551348152a180f35b606490602084519162461bcd60e51b835282015260146024820152734465706f73697420616c7265616479206d61646560601b6044820152fd5b634e487b7160e01b855260218252602485fd5b83823461032e578160031936011261032e5760035490516001600160a01b039091168152602090f35b5080fd5b50903461011e578260031936011261011e5760209250549051908152f35b83823461032e578160031936011261032e57905490516001600160a01b039091168152602090f35b50903461011e578260031936011261011e576002546001600160a01b03906103a39082163314610577565b6103ab61065e565b60055460ff8116838110156104a15760010361045057848080936002829460ff191617600555600354168554905af16103e26105d1565b501561041b577ffb81f9b30d73d830c3544b34d827c08142579ee75710b490bab0b3995468c56591602091549051908152a16001805580f35b6020606492519162461bcd60e51b8352820152601060248201526f2a3930b739b332b9103330b4b632b21760811b6044820152fd5b835162461bcd60e51b8152602081850152602560248201527f43616e6e6f742072656c656173652066756e647320696e2063757272656e7420604482015264737461746560d81b6064820152608490fd5b634e487b7160e01b865260218452602486fd5b833461050e578060031936011261050e576104cd610632565b80546001600160a01b03198116825581906001600160a01b03167f8be0079c531659141344cd1fd0a4f28419497f9722a3daafe3b4186f6b6457e08280a380f35b80fd5b83823461032e578160031936011261032e5760025490516001600160a01b039091168152602090f35b8390853461050e578060031936011261050e5760ff60055416908382101561056457602083838152f35b634e487b7160e01b815260218452602490fd5b1561057e57565b60405162461bcd60e51b815260206004820152602560248201527f4f6e6c79207468652070617965722063616e2063616c6c20746869732066756e60448201526431ba34b7b760d91b6064820152608490fd5b3d1561062d5767ffffffffffffffff903d8281116106175760405192601f8201601f19908116603f01168401908111848210176106175760405282523d6000602084013e565b634e487b7160e01b600052604160045260246000fd5b606090565b6000546001600160a01b0316330361064657565b60405163118cdaa760e01b8152336004820152602490fd5b60026001541461066f576002600155565b604051633ee5aeb560e01b8152600490fdfea2646970667358221220e45fe3907bcd98c14a6a186d531f961be7311efe5f909ee37318f229aa35bb8864736f6c634300081800336080604052346200028c5762001a1d803803806200001d8162000291565b92833981016040828203126200028c5781516001600160a01b039283821692918390036200028c576020818101516001600160401b03928382116200028c570192601f908082860112156200028c5784518481116200026157601f19956200008b8285018816860162000291565b928284528583830101116200028c57849060005b838110620002775750506000918301015280519384116200026157600254926001938481811c9116801562000256575b828210146200024057838111620001f4575b5080928511600114620001895750839450908392916000946200017d575b50501b916000199060031b1c1916176002555b80156200016457600380546001600160a01b03198116831790915560405192167f8be0079c531659141344cd1fd0a4f28419497f9722a3daafe3b4186f6b6457e0600080a36117659081620002b88239f35b604051631e4fbdf760e01b815260006004820152602490fd5b015192503880620000ff565b929484908116600260005284600020946000905b88838310620001d95750505010620001bf575b505050811b0160025562000112565b015160001960f88460031b161c19169055388080620001b0565b8587015188559096019594850194879350908101906200019d565b6002600052816000208480880160051c82019284891062000236575b0160051c019085905b82811062000229575050620000e1565b6000815501859062000219565b9250819262000210565b634e487b7160e01b600052602260045260246000fd5b90607f1690620000cf565b634e487b7160e01b600052604160045260246000fd5b8181018301518582018401528692016200009f565b600080fd5b6040519190601f01601f191682016001600160401b03811183821017620002615760405256fe6080604052600436101561001257600080fd5b60003560e01c8062fdd58e1461012657806301ffc9a71461012157806302fe53051461011c578063088bcc30146101175780630e89341c14610112578063156e29f61461010d5780632eb2c2d6146101085780634e1273f414610103578063715018a6146100fe5780638da5cb5b146100f9578063a22cb465146100f4578063c19d981c146100ef578063d81d0a15146100ea578063e985e9c5146100e5578063f242432a146100e0578063f2fde38b146100db5763f60f206c146100d657600080fd5b610e31565b610da3565b610c9e565b610c4d565b610b63565b610a4e565b610992565b610969565b610908565b61084d565b6106df565b61059b565b6104c2565b61041c565b6102e9565b6101cf565b610170565b600435906001600160a01b038216820361014157565b600080fd5b602435906001600160a01b038216820361014157565b35906001600160a01b038216820361014157565b346101415760403660031901126101415760206101b461018e61012b565b6024356000526000835260406000209060018060a01b0316600052602052604060002090565b54604051908152f35b6001600160e01b031981160361014157565b346101415760203660031901126101415760206004356101ee816101bd565b63ffffffff60e01b16636cdb3d1360e11b811490811561022c575b811561021b575b506040519015158152f35b6301ffc9a760e01b14905038610210565b6303a24d0760e21b81149150610209565b634e487b7160e01b600052604160045260246000fd5b6020810190811067ffffffffffffffff82111761026f57604052565b61023d565b90601f8019910116810190811067ffffffffffffffff82111761026f57604052565b67ffffffffffffffff811161026f57601f01601f191660200190565b9291926102be82610296565b916102cc6040519384610274565b829481845281830111610141578281602093846000960137010152565b34610141576020806003193601126101415767ffffffffffffffff60043581811161014157366023820112156101415761032d9036906024816004013591016102b2565b91610336610fef565b825191821161026f576103538261034e600254610e5d565b61101b565b602090601f8311600114610395575081906103859360009261038a575b50508160011b916000199060031b1c19161790565b600255005b015190503880610370565b90601f198316936103c860026000527f405787fa12a823e0f2b7631cc41b3ba8828b3321ca811111fa75cd3aa3bb5ace90565b926000905b86821061040457505083600195106103eb575b505050811b01600255005b015160001960f88460031b161c191690553880806103e0565b806001859682949686015181550195019301906103cd565b3461014157604036600319011261014157602060ff61046261043c610146565b6004356000526005845260406000209060018060a01b0316600052602052604060002090565b54166040519015158152f35b919082519283825260005b84811061049a575050826000602080949584010152601f8019910116010190565b602081830181015184830182015201610479565b9060206104bf92818152019061046e565b90565b3461014157602080600319360112610141576040516000916002546104e681610e5d565b8084529060019081811690811561057b5750600114610520575b61051c8461051081880382610274565b604051918291826104ae565b0390f35b600260009081529294507f405787fa12a823e0f2b7631cc41b3ba8828b3321ca811111fa75cd3aa3bb5ace5b828410610568575050508161051c936105109282010193610500565b805485850187015292850192810161054c565b60ff1916858501525050151560051b82010191506105108161051c610500565b34610141576060366003190112610141576105b461012b565b6044356024356105c2610fef565b6040516105ce81610253565b6000808252936001600160a01b0381161561063357906106189161061285859160405192600184526020840152604083019160018352606084015260808301604052565b9161108d565b8252600460205261062e60408320918254610e97565b905580f35b604051632bfa23e760e11b815260048101869052602490fd5b67ffffffffffffffff811161026f5760051b60200190565b9080601f8301121561014157602090823561067e8161064c565b9361068c6040519586610274565b81855260208086019260051b82010192831161014157602001905b8282106106b5575050505090565b813581529083019083016106a7565b9080601f83011215610141578160206104bf933591016102b2565b346101415760a0366003190112610141576106f861012b565b610700610146565b906044359167ffffffffffffffff908184116101415761072560049436908601610664565b906064358381116101415761073d9036908701610664565b926084359081116101415761075590369087016106c4565b936001600160a01b038082169033821415806107e4575b6107b75783161561079f57156107885761078695506111e9565b005b604051626a0d4560e21b8152600081880152602490fd5b604051632bfa23e760e11b8152600081890152602490fd5b6040805163711bec9160e11b815233818b019081526001600160a01b038616602082015290918291010390fd5b50600082815260016020908152604080832033845290915290205460ff161561076c565b90815180825260208080930193019160005b828110610828575050505090565b83518552938101939281019260010161081a565b9060206104bf928181520190610808565b346101415760403660031901126101415760043567ffffffffffffffff808211610141573660238301121561014157816004013561088a8161064c565b926108986040519485610274565b8184526020916024602086019160051b8301019136831161014157602401905b8282106108f157856024358681116101415761051c916108df6108e5923690600401610664565b90610ee4565b6040519182918261083c565b8380916108fd8461015c565b8152019101906108b8565b346101415760008060031936011261096657610922610fef565b600380546001600160a01b0319811690915581906001600160a01b03167f8be0079c531659141344cd1fd0a4f28419497f9722a3daafe3b4186f6b6457e08280a380f35b80fd5b34610141576000366003190112610141576003546040516001600160a01b039091168152602090f35b34610141576040366003190112610141576109ab61012b565b6024359081151590818303610141576001600160a01b038116928315610a36576109f7610a089233600052600160205260406000209060018060a01b0316600052602052604060002090565b9060ff801983541691151516179055565b6040519081527f17307eab39ab6107e8899845ad3d59bd9653f200f220920489ca2b5937696c3160203392a3005b60405162ced3e160e81b815260006004820152602490fd5b3461014157604036600319011261014157610a6761012b565b60243590610a73610fef565b6000828152602081815260408083206001600160a01b038516845290915281209092905415610b1e57610b1b91610af782610b0e9386526005602052610ae7610ae2610ade610ad78660408b209060018060a01b0316600052602052604060002090565b5460ff1690565b1590565b610fa3565b6000526005602052604060002090565b9060018060a01b0316600052602052604060002090565b805460ff19166001179055565b80f35b60405162461bcd60e51b815260206004820152601f60248201527f486f6c64657220646f6573206e6f74206f776e2074686973207469636b6574006044820152606490fd5b3461014157606036600319011261014157610b7c61012b565b67ffffffffffffffff60243581811161014157610b9d903690600401610664565b9060443590811161014157610bb6903690600401610664565b91610bbf610fef565b604051610bcb81610253565b600081526001600160a01b03821615610c34578383610be99361108d565b60005b81518110156107865780610c0260019285610eba565b51610c2c610c24610c138487610eba565b516000526004602052604060002090565b918254610e97565b905501610bec565b604051632bfa23e760e11b815260006004820152602490fd5b3461014157604036600319011261014157602060ff610462610c6d61012b565b610c75610146565b6001600160a01b0391821660009081526001865260408082209290931681526020919091522090565b346101415760a036600319011261014157610cb761012b565b610cbf610146565b60843567ffffffffffffffff811161014157610cdf9036906004016106c4565b906001600160a01b03838116903382141580610d7f575b610d5857821615610c345715610d405761078692610d386064356044359160405192600184526020840152604083019160018352606084015260808301604052565b9290916111e9565b604051626a0d4560e21b815260006004820152602490fd5b60405163711bec9160e11b81523360048201526001600160a01b0386166024820152604490fd5b50600082815260016020908152604080832033845290915290205460ff1615610cf6565b3461014157602036600319011261014157610dbc61012b565b610dc4610fef565b6001600160a01b03908116908115610e1857600354826bffffffffffffffffffffffff60a01b821617600355167f8be0079c531659141344cd1fd0a4f28419497f9722a3daafe3b4186f6b6457e0600080a3005b604051631e4fbdf760e01b815260006004820152602490fd5b346101415760203660031901126101415760043560005260046020526020604060002054604051908152f35b90600182811c92168015610e8d575b6020831014610e7757565b634e487b7160e01b600052602260045260246000fd5b91607f1691610e6c565b91908201809211610ea457565b634e487b7160e01b600052601160045260246000fd5b8051821015610ece5760209160051b010190565b634e487b7160e01b600052603260045260246000fd5b91909180518351808203610f81575050805190610f19610f038361064c565b92610f116040519485610274565b80845261064c565b60209190601f1901368484013760005b8151811015610f7957600581901b8281018401519087018401516000908152602081815260408083206001600160a01b039094168352929052205460019190610f728287610eba565b5201610f29565b509193505050565b604051635b05999160e01b815260048101919091526024810191909152604490fd5b15610faa57565b60405162461bcd60e51b815260206004820152601960248201527f5469636b657420616c726561647920636865636b656420696e000000000000006044820152606490fd5b6003546001600160a01b0316330361100357565b60405163118cdaa760e01b8152336004820152602490fd5b601f8111611027575050565b60009060026000527f405787fa12a823e0f2b7631cc41b3ba8828b3321ca811111fa75cd3aa3bb5ace906020601f850160051c83019410611083575b601f0160051c01915b82811061107857505050565b81815560010161106c565b9092508290611063565b908051835190818103610f8157505060005b81518110156110fe57600581901b82810160209081015191860101516001929185906001600160a01b0382166110d9575b5050500161109f565b6110f491610af7610c24926000526000602052604060002090565b90553884816110d0565b508051919392916001036111a0576020818101518382015160408051928352928201526001600160a01b0386169160009133917fc3d58168c5ae7397731d063d5bbf3d657854427343f4c083240f7aacaa2d0f6291a45b6001600160a01b03841661116a575b50505050565b805160010361119157906020806111889593015191015191336116c3565b38808080611164565b61119b93336114c9565b611188565b6040516001600160a01b0385169060009033907f4a39dc06d4c0dbc64b70af90fd698a233a518aa5d07e595d983b8c0526c8f7fb90806111e18888836113e2565b0390a4611155565b949190918151845190818103610f8157505060005b82518110156112ec57600581901b83810160209081015191870101516001600160a01b03929186908a8516611266575b6001948216611241575b505050016111fe565b61125c91610af7610c24926000526000602052604060002090565b9055388581611238565b91929390506112838a610af7846000526000602052604060002090565b548381106112b557918791846001969594036112ad8d610af7856000526000602052604060002090565b55945061122e565b6040516303dee4c560e01b81526001600160a01b038c16600482015260248101919091526044810184905260648101839052608490fd5b509491939290936001855114600014611397576020858101518382015160408051928352928201526001600160a01b03838116929086169133917fc3d58168c5ae7397731d063d5bbf3d657854427343f4c083240f7aacaa2d0f6291a45b6001600160a01b038116611360575b5050505050565b84516001036113865760208061137c96015192015192336116f8565b3880808080611359565b611392949192336115c4565b61137c565b6040516001600160a01b03828116919085169033907f4a39dc06d4c0dbc64b70af90fd698a233a518aa5d07e595d983b8c0526c8f7fb90806113da888c836113e2565b0390a461134a565b90916113f96104bf93604084526040840190610808565b916020818403910152610808565b9081602091031261014157516104bf816101bd565b9261144b6104bf95936114599360018060a01b031686526000602087015260a0604087015260a0860190610808565b908482036060860152610808565b91608081840391015261046e565b93906104bf959361144b916114599460018060a01b03809216885216602087015260a0604087015260a0860190610808565b3d156114c4573d906114aa82610296565b916114b86040519384610274565b82523d6000602084013e565b606090565b9293919093843b6114db575050505050565b6020916114fe604051948593849363bc197c8160e01b988986526004860161141c565b038160006001600160a01b0388165af160009181611593575b506115565782611525611499565b805191908261154f57604051632bfa23e760e11b81526001600160a01b0383166004820152602490fd5b9050602001fd5b6001600160e01b0319160361157057503880808080611359565b604051632bfa23e760e11b81526001600160a01b03919091166004820152602490fd5b6115b691925060203d6020116115bd575b6115ae8183610274565b810190611407565b9038611517565b503d6115a4565b939290949194853b6115d9575b505050505050565b6115fc602093604051958694859463bc197c8160e01b998a875260048701611467565b038160006001600160a01b0388165af16000918161163e575b506116235782611525611499565b6001600160e01b0319160361157057503880808080806115d1565b61165891925060203d6020116115bd576115ae8183610274565b9038611615565b909260a0926104bf9594600180861b031683526000602084015260408301526060820152816080820152019061046e565b91926104bf95949160a094600180871b03809216855216602084015260408301526060820152816080820152019061046e565b9293919093843b6116d5575050505050565b6020916114fe604051948593849363f23a6e6160e01b988986526004860161165f565b939290949194853b61170c57505050505050565b6115fc602093604051958694859463f23a6e6160e01b998a87526004870161169056fea264697066735822122026a7e018d465551a0c2b9ce53be6710d0b135dd38baa00473cf7c186fc6a29ed64736f6c63430008180033608060409080825234620002905762000fdf8038038091620000228285620004b2565b8339810160c08282031262000290576200003c82620004d6565b60208381015190926001600160401b0392909183811162000290578262000065918701620004eb565b918686015190848211620002905762000080918701620004eb565b936200008f60608701620004d6565b9260a06080880151970151908051868111620003b25760038054916001938484811c94168015620004a7575b8785101462000491578190601f948581116200043b575b508790858311600114620003d457600092620003c8575b505060001982841b1c191690841b1781555b885191888311620003b2576004998a548581811c91168015620003a7575b888210146200039257908183869594931162000338575b5087918411600114620002cd57600093620002c1575b505082841b92600019911b1c19161787555b6001600160a01b03938416948515620002aa57600580546001600160a01b031980821689179092559092869291889084167f8be0079c531659141344cd1fd0a4f28419497f9722a3daafe3b4186f6b6457e0600080a36006551690600754161760075586600855600254818101809111620002955784926000927fddf252ad1be2c89b69c2b068fc378daa952ba7f163c4a11628f55a4df523b3ef926002558484528382528a84208181540190558a51908152a36007541693843b156200029057606460009283885197889485936323b872dd60e01b85528985015230602485015260448401525af1801562000285576200025d575b8351610a7d9081620005628239f35b821162000270575081523880806200024e565b604190634e487b7160e01b6000525260246000fd5b84513d6000823e3d90fd5b600080fd5b601187634e487b7160e01b6000525260246000fd5b8951631e4fbdf760e01b81526000818a0152602490fd5b01519150388062000146565b9190859450601f198416928c600052886000209360005b8a82821062000321575050851162000306575b50505050811b01875562000158565b01519060f884600019921b161c1916905538808080620002f7565b8385015187558998909601959384019301620002e4565b90919293508b600052876000208380870160051c8201928a881062000388575b9188918897969594930160051c01915b8281106200037857505062000130565b6000815587965088910162000368565b9250819262000358565b60228c634e487b7160e01b6000525260246000fd5b90607f169062000119565b634e487b7160e01b600052604160045260246000fd5b015190503880620000e9565b90869350601f1983169185600052896000209260005b8b8282106200042457505084116200040b575b505050811b018155620000fb565b015160001983861b60f8161c19169055388080620003fd565b8385015186558a97909501949384019301620003ea565b90915083600052876000208580850160051c8201928a861062000487575b918891869594930160051c01915b82811062000477575050620000d2565b6000815585945088910162000467565b9250819262000459565b634e487b7160e01b600052602260045260246000fd5b93607f1693620000bb565b601f909101601f19168101906001600160401b03821190821017620003b257604052565b51906001600160a01b03821682036200029057565b919080601f84011215620002905782516001600160401b038111620003b257602090604051926200052683601f19601f8501160185620004b2565b818452828287010111620002905760005b8181106200054d57508260009394955001015290565b85810183015184820184015282016200053756fe6080604081815260048036101561001557600080fd5b600092833560e01c90816306fdde031461079557508063095ea7b3146106ec57806318160ddd146106cd57806323b872dd146105da578063313ce567146105be57806347ccca021461059557806370a082311461055e578063715018a6146104fe5780638da5cb5b146104d557806395d89b41146103cf578063a9059cbb1461039e578063be040fb0146101cc578063c6bc5182146101ad578063dd62ed3e1461015b5763f2fde38b146100c857600080fd5b34610157576020366003190112610157576100e16108d4565b906100ea610a1b565b6001600160a01b03918216928315610141575050600554826bffffffffffffffffffffffff60a01b821617600555167f8be0079c531659141344cd1fd0a4f28419497f9722a3daafe3b4186f6b6457e0600080a380f35b51631e4fbdf760e01b8152908101849052602490fd5b8280fd5b5050346101a957806003193601126101a9576020916101786108d4565b826101816108ef565b6001600160a01b03928316845260018652922091166000908152908352819020549051908152f35b5080fd5b5050346101a957816003193601126101a9576020906008549051908152f35b509190346101a957816003193601126101a95760026006541461038f576002600655338252816020528082205460025480910361032f5733156103185733835282602052818320548181106102ec57818495928592338452836020520384832055806002540360025583519081527fddf252ad1be2c89b69c2b068fc378daa952ba7f163c4a11628f55a4df523b3ef60203392a3600754600854906001600160a01b0316803b156102e85760648592855196879384926323b872dd60e01b8452308885015233602485015260448401525af180156102de576102b2575b83600160065580f35b67ffffffffffffffff83116102cb5750523880806102a9565b634e487b7160e01b845260419052602483fd5b82513d86823e3d90fd5b8480fd5b825163391434e360e21b8152338187019081526020810192909252604082018390529081906060010390fd5b8151634b637e8f60e11b8152808501849052602490fd5b815162461bcd60e51b8152602081860152603460248201527f596f75206d757374206f776e20616c6c206672616374696f6e616c2073686172604482015273195cc81d1bc81c995919595b481d1a194813919560621b6064820152608490fd5b51633ee5aeb560e01b81529050fd5b5050346101a957806003193601126101a9576020906103c86103be6108d4565b602435903361093d565b5160018152f35b509190346101a957816003193601126101a95780519180938054916001908360011c92600185169485156104cb575b60209586861081146104b857858952908115610494575060011461043c575b610438878761042e828c0383610905565b519182918261088b565b0390f35b81529295507f8a35acfbc15ff81a39ae7d344fd709f28e8600b4aa8c65c6b64bfe7fe36bd19b5b82841061048157505050826104389461042e9282010194388061041d565b8054868501880152928601928101610463565b60ff19168887015250505050151560051b830101925061042e82610438388061041d565b634e487b7160e01b845260228352602484fd5b93607f16936103fe565b5050346101a957816003193601126101a95760055490516001600160a01b039091168152602090f35b833461055b578060031936011261055b57610517610a1b565b600580546001600160a01b0319811690915581906001600160a01b03167f8be0079c531659141344cd1fd0a4f28419497f9722a3daafe3b4186f6b6457e08280a380f35b80fd5b5050346101a95760203660031901126101a95760209181906001600160a01b036105866108d4565b16815280845220549051908152f35b5050346101a957816003193601126101a95760075490516001600160a01b039091168152602090f35b5050346101a957816003193601126101a9576020905160128152f35b50823461055b57606036600319011261055b576105f56108d4565b6105fd6108ef565b916044359360018060a01b038316808352600160205286832033845260205286832054916000198303610639575b6020886103c889898961093d565b8683106106a157811561068a573315610673575082526001602090815286832033845281529186902090859003905582906103c88761062b565b8751634a1406b160e11b8152908101849052602490fd5b875163e602df0560e01b8152908101849052602490fd5b8751637dc7a0d960e11b8152339181019182526020820193909352604081018790528291506060010390fd5b5050346101a957816003193601126101a9576020906002549051908152f35b50346101575781600319360112610157576107056108d4565b60243590331561077e576001600160a01b031691821561076757508083602095338152600187528181208582528752205582519081527f8c5be1e5ebec7d5bd14f71427d1e84f3dd0314c0f7b2291e5b200ac8c7c3b925843392a35160018152f35b8351634a1406b160e11b8152908101859052602490fd5b835163e602df0560e01b8152808401869052602490fd5b9291905034610887578360031936011261088757600354600181811c918690828116801561087d575b602095868610821461086a575084885290811561084857506001146107ef575b610438868661042e828b0383610905565b929550600383527fc2575a0e9e593c00f959f8c92f12db2869c3395a3b0502d05e2516446f71f85b5b82841061083557505050826104389461042e9282010194386107de565b8054868501880152928601928101610818565b60ff191687860152505050151560051b830101925061042e82610438386107de565b634e487b7160e01b845260229052602483fd5b93607f16936107be565b8380fd5b6020808252825181830181905290939260005b8281106108c057505060409293506000838284010152601f8019910116010190565b81810186015184820160400152850161089e565b600435906001600160a01b03821682036108ea57565b600080fd5b602435906001600160a01b03821682036108ea57565b90601f8019910116810190811067ffffffffffffffff82111761092757604052565b634e487b7160e01b600052604160045260246000fd5b916001600160a01b03808416928315610a0257169283156109e957600090838252816020526040822054908382106109b7575091604082827fddf252ad1be2c89b69c2b068fc378daa952ba7f163c4a11628f55a4df523b3ef958760209652828652038282205586815220818154019055604051908152a3565b60405163391434e360e21b81526001600160a01b03919091166004820152602481019190915260448101839052606490fd5b60405163ec442f0560e01b815260006004820152602490fd5b604051634b637e8f60e11b815260006004820152602490fd5b6005546001600160a01b03163303610a2f57565b60405163118cdaa760e01b8152336004820152602490fdfea26469706673582212207dfe5c3ffa4a8258daab82e88371abfd7422d144d2c3a405ea463df7fcdea9e364736f6c6343000818003361018060405234620000b457620000206200001962000154565b90620001c8565b604051613c34908162000c68823960805181612efc015260a05181612fb1015260c05181612ec6015260e05181612f4b01526101005181612f71015261012051816113b9015261014051816113e501526101605181818161163b01528181611aef01528181611c2601528181611cc901528181611dcf015281816120f40152818161291201528181612a050152613a0c0152f35b600080fd5b634e487b7160e01b600052604160045260246000fd5b604081019081106001600160401b03821117620000eb57604052565b620000b9565b60c081019081106001600160401b03821117620000eb57604052565b601f909101601f19168101906001600160401b03821190821017620000eb57604052565b604051906200014082620000cf565b565b6001600160a01b03811603620000b457565b620048dc906040823803928382519485926200017182856200010d565b833981010312620000b45760208251926200018c8462000142565b0151916200019a8362000142565b9190565b60405190620001ad82620000cf565b60108252565b60405190620001c282620000cf565b60018252565b90620002c590620002a1620001dc6200019e565b602081016f25b0b630a5b93aba23b7bb32b93737b960811b815262000200620001b3565b906020820190603160f81b8252620002188462000711565b61012052620002278362000820565b6101405283519020918260e05251902080610100524660a0526040519060208201927f8b73c3c69bb8fe3d512ecc4cf759cc79239f7b179b0ffacaa9a75d522b39400f8452604083015260608201524660808201523060a082015260a081526200029181620000f1565b5190206080523060c0526200042d565b620002ab62000638565b620002b562000681565b620002bf620006d7565b620005d0565b6001600160a01b0316610160526200014062000528565b90600182811c921680156200030e575b6020831014620002f857565b634e487b7160e01b600052602260045260246000fd5b91607f1691620002ec565b601f811162000326575050565b60009060036000526020600020906020601f850160051c8301941062000369575b601f0160051c01915b8281106200035d57505050565b81815560010162000350565b909250829062000347565b601f811162000381575050565b600090600080526020600020906020601f850160051c83019410620003c3575b601f0160051c01915b828110620003b757505050565b818155600101620003aa565b9092508290620003a1565b90601f8211620003dc575050565b60019160009060016000526020600020906020601f850160051c8301941062000422575b601f0160051c01915b828110620004175750505050565b818155830162000409565b909250829062000400565b80519091906001600160401b038111620000eb57620004598162000453600354620002dc565b62000319565b602080601f8311600114620004a0575081906200048f939460009262000494575b50508160011b916000199060031b1c19161790565b600355565b0151905038806200047a565b6003600052601f198316949091907fc2575a0e9e593c00f959f8c92f12db2869c3395a3b0502d05e2516446f71f85b926000905b8782106200050f575050836001959610620004f5575b505050811b01600355565b015160001960f88460031b161c19169055388080620004ea565b80600185968294968601518155019501930190620004d4565b600a54600090806200057a575050600080516020620048bc833981519152604060005b6200055f620005596200090c565b62000b06565b505081516001600160d01b03909116815260046020820152a1565b600019918183810111620005bc57600a9052016000805160206200489c8339815191520154600080516020620048bc8339815191529060409060301c6200054b565b634e487b7160e01b81526011600452602490fd5b600854907f08f74ea46ef7894f65eabfb5e6e695de773a000b47c529ab559178069b226401604060018060a01b03815190808660501c16825284166020820152a1600160501b600160f01b031990911660509190911b600160501b600160f01b031617600855565b6008547fc565b045403dc03c2eea82b81a0465edad9e2e7fc4d97e11421c209da93d7a936040805165ffffffffffff8416815260006020820152a165ffffffffffff1916600855565b679d800000000000006008547f7e3f7f0708a84de9203036abaa450dccc85ad5ff52f78c170f3edb55cf5e88286040805163ffffffff8460301c168152619d806020820152a163ffffffff60301b191617600855565b7fccb45da8d5717e6c4544694297c4ba5cf151d455c9bb0ed4fc7a38411bc054616040600754815190815260646020820152a16064600755565b9081516020906020811060001462000734575050906200073190620009c4565b90565b6001600160401b038111620000eb576000916200075d82620007578554620002dc565b62000374565b602090601f83116001146200079957508190839495620007929492620004945750508160011b916000199060031b1c19161790565b905560ff90565b60008052601f198316957f290decd9548b62a8d60345a988386fc84ba6bc95484008f6362f93160ef3e563929185905b8882106200080757505083600195969710620007ed575b505050811b01905560ff90565b015160001960f88460031b161c19169055388080620007e0565b80600185968294968601518155019501930190620007c9565b9081516020906020811060001462000840575050906200073190620009c4565b6001600160401b038111620000eb576001916200086982620008638554620002dc565b620003ce565b602090601f83116001146200089f5750819062000792939495600092620004945750508160011b916000199060031b1c19161790565b6001600052601f198316959091907fb10e2d527612073b26eecdfd717e6a320cf44b4afac2b0732d9fcbe2b7fa0cf6926000905b888210620008f45750508385969710620007ed57505050811b01905560ff90565b808785968294968601518155019501930190620008d3565b610160516040516324776b7d60e21b815290602090829060049082906001600160a01b03165afa809160009162000951575b5090620007315750620007314362000c34565b6020813d60201162000997575b816200096d602093836200010d565b810103126200099357519065ffffffffffff82168203620009905750386200093e565b80fd5b5080fd5b3d91506200095e565b602081519101519060208110620009b5575090565b6000199060200360031b1b1690565b601f815111620009df57620009d981620009a0565b90511790565b6040519063305a27a960e01b82528160208060048301528251908160248401526000935b82851062000a27575050604492506000838284010152601f80199101168101030190fd5b848101820151868601604401529381019385935062000a03565b60001981019190821162000a5157565b634e487b7160e01b600052601160045260246000fd5b600a5468010000000000000000811015620000eb576001810180600a5581101562000ab957600a6000526020600020019065ffffffffffff81511690602065ffffffffffff1991015160301b16179055565b634e487b7160e01b600052603260045260246000fd5b604080519192919081016001600160401b03811182821017620000eb57604052915465ffffffffffff8116835260301c6020830152565b600a54801562000c0b5762000b4262000b3c62000b238362000a41565b600a6000526000805160206200489c8339815191520190565b62000acf565b805165ffffffffffff848116939116831062000bf95762000bbf9360209362000b8062000b75855165ffffffffffff1690565b65ffffffffffff1690565b0362000bc5575062000b9a62000b2362000bb19262000a41565b660400000000000065ffffffffffff825416179055565b01516001600160d01b031690565b90600490565b62000bf3915062000be762000bd962000131565b65ffffffffffff9092168252565b60048185015262000a67565b62000bb1565b604051632520601d60e01b8152600490fd5b5062000c2c9062000c1f62000bd962000131565b6004602082015262000a67565b600090600490565b65ffffffffffff9081811162000c48571690565b604490604051906306dfcc6560e41b8252603060048301526024820152fdfe60806040526004361015610023575b361561001957600080fd5b6100216122f3565b005b60003560e01c806301ffc9a71461032357806302a251a31461031e57806306f3f9e61461031957806306fdde0314610314578063143489d01461030f578063150b7a021461030a578063160cbed7146103055780632656227d146103005780632d63f693146102fb5780632fe3e261146102f65780633932abb1146102f15780633e4f49e6146102ec57806343859632146102e7578063452115d6146102e25780634bf5d7e9146102dd578063544ffc9c146102d857806354fd4d50146102d357806356781388146102ce5780635b8d0e0d146102c95780635f398a14146102c457806360c4247f146102bf57806379051887146102ba5780637b3c71d3146102b55780637d5e81e2146102b05780637ecebe00146102ab57806384b0196e146102a65780638ff262e3146102a157806391ddadf41461029c57806397c3d334146102975780639a802a6d14610292578063a7713a701461028d578063a890c91014610288578063a9a9529414610283578063ab58fb8e1461027e578063b58131b014610279578063bc197c8114610274578063c01f9e371461026f578063c28bc2fa1461026a578063c59057e414610265578063d33219b414610260578063dd4e2ba51461025b578063deaaa7cc14610256578063e540d01d14610251578063eb9019d41461024c578063ece40cc114610247578063f23a6e6114610242578063f8ce560a1461023d5763fc0c546a0361000e57611cb3565b611bf6565b611b88565b611b33565b611a93565b6119ea565b6119af565b611951565b611924565b611908565b61189c565b61187e565b6117de565b6117c0565b611789565b61176d565b6116cb565b61169f565b6115cd565b6115b1565b611586565b61146a565b6113a0565b61132f565b611296565b611241565b6111cf565b6111a1565b611132565b6110aa565b61102d565b610fdb565b610f8e565b610f5e565b610ea0565b610e47565b610e1a565b610dc2565b610d87565b610d50565b610be4565b610994565b610752565b6105d5565b6104ec565b6103c8565b6103a1565b346103915760203660031901126103915760043563ffffffff60e01b8116809103610391576020906332a2ad4360e11b8114908115610380575b811561036f575b506040519015158152f35b6301ffc9a760e01b14905038610364565b630271189760e51b8114915061035d565b600080fd5b600091031261039157565b3461039157600036600319011261039157602063ffffffff60085460301c16604051908152f35b34610391576020366003190112610391576004356103e461230a565b60648111610471576001600160d01b0390816103fe612a52565b166104076120df565b92808311610451577f0553476bf02ef2726e8ce5ced78d63e26e602e4a2257b1f559418e24b46339979361043d918416906138c0565b5050604080519182526020820192909252a1005b6040516306dfcc6560e41b815260d0600482015260248101849052604490fd5b6044906040519063243e544560e01b8252600482015260646024820152fd5b60005b8381106104a35750506000910152565b8181015183820152602001610493565b906020916104cc81518092818552858086019101610490565b601f01601f1916010190565b9060206104e99281815201906104b3565b90565b34610391576000806003193601126105d25760405190806003549061051082611cf8565b808552916020916001918281169081156105a5575060011461054d575b6105498661053d818803826106b5565b604051918291826104d8565b0390f35b9350600384527fc2575a0e9e593c00f959f8c92f12db2869c3395a3b0502d05e2516446f71f85b5b8385106105925750505050810160200161053d826105493861052d565b8054868601840152938201938101610575565b90508695506105499693506020925061053d94915060ff191682840152151560051b82010192933861052d565b80fd5b34610391576020366003190112610391576004356000526004602052602060018060a01b0360406000205416604051908152f35b6001600160a01b0381160361039157565b634e487b7160e01b600052604160045260246000fd5b6001600160401b03811161064357604052565b61061a565b604081019081106001600160401b0382111761064357604052565b602081019081106001600160401b0382111761064357604052565b60c081019081106001600160401b0382111761064357604052565b61010081019081106001600160401b0382111761064357604052565b90601f801991011681019081106001600160401b0382111761064357604052565b604051906106e382610648565b565b6001600160401b03811161064357601f01601f191660200190565b92919261070c826106e5565b9161071a60405193846106b5565b829481845281830111610391578281602093846000960137010152565b9080601f83011215610391578160206104e993359101610700565b346103915760803660031901126103915761076e600435610609565b610779602435610609565b6064356001600160401b03811161039157610798903690600401610737565b5060085460501c6001600160a01b031630036107c057604051630a85bd0160e11b8152602090f35b604051637485328f60e11b8152600490fd5b6001600160401b0381116106435760051b60200190565b9080601f83011215610391576020908235610803816107d2565b9361081160405195866106b5565b81855260208086019260051b82010192831161039157602001905b82821061083a575050505090565b838091833561084881610609565b81520191019061082c565b9080601f8301121561039157602090823561086d816107d2565b9361087b60405195866106b5565b81855260208086019260051b82010192831161039157602001905b8282106108a4575050505090565b81358152908301908301610896565b81601f82011215610391578035916020916108cd846107d2565b936108db60405195866106b5565b808552838086019160051b8301019280841161039157848301915b8483106109065750505050505090565b82356001600160401b03811161039157869161092784848094890101610737565b8152019201916108f6565b6080600319820112610391576001600160401b0391600435838111610391578261095e916004016107e9565b92602435818111610391578361097691600401610853565b926044359182116103915761098d916004016108b3565b9060643590565b34610391576109a236610932565b6109b081838587969761228f565b926109ba846123a1565b506008546109db9060501c6001600160a01b03165b6001600160a01b031690565b9260409586519363793d064960e11b855260209081866004818a5afa958615610b9357600096610bc5575b506bffffffffffffffffffffffff193060601b161895818951809263b1c5f42760e01b82528180610a3d8c8a8a8d60048601612b39565b03915afa918215610b9357600092610b98575b5050610a66876000526009602052604060002090565b55600854610a7f9060501c6001600160a01b03166109cf565b90813b156103915760008094610aab878b51998a97889687956308f2a0bb60e41b875260048701612b7f565b03925af1908115610b9357610acf92610aca92610b7a575b50426128a2565b612862565b65ffffffffffff811615610b6957917f9a2e42fd6722813d69113e7d0079d3d940171428df7373df9c7f7617cfda2892610b5884610b3a610549966001610b20886000526004602052604060002090565b019065ffffffffffff1665ffffffffffff19825416179055565b835185815265ffffffffffff90911660208201529081906040820190565b0390a1519081529081906020820190565b8251634844252360e11b8152600490fd5b80610b87610b8d92610630565b80610396565b38610ac3565b611d61565b610bb79250803d10610bbe575b610baf81836106b5565b8101906129c5565b3880610a50565b503d610ba5565b610bdd919650823d8411610bbe57610baf81836106b5565b9438610a06565b610bed36610932565b610bfb81838587959761228f565b92610c05846123f3565b50610c30610c1d856000526004602052604060002090565b805460ff60f01b1916600160f01b179055565b6008546001600160a01b0393903060509190911c851603610cea575b94610c5c92916105499686612bcd565b60085460501c166001600160a01b031630141580610cc5575b610cb6575b6040518181527f712ae1383f79ac853f8d882153778e0260ef8f03b504e2866e0593e04d2b291f90602090a16040519081529081906020820190565b610cc06000600555565b610c7a565b50610ce5610ce16005546001600160801b0381169060801c1490565b1590565b610c75565b9290939160005b8451811015610d465760019030610d1b6109cf610d0e848a611d48565b516001600160a01b031690565b14610d27575b01610cf1565b610d41610d34828a611d48565b5160208151910120612445565b610d21565b5091939092610c4c565b34610391576020366003190112610391576004356000526004602052602065ffffffffffff60406000205460a01c16604051908152f35b346103915760003660031901126103915760206040517f3e83946653575f9a39005e1545185629e92736b7528ab20ca3816f315424a8118152f35b3461039157600036600319011261039157602065ffffffffffff60085416604051908152f35b634e487b7160e01b600052602160045260246000fd5b60081115610e0857565b610de8565b906008821015610e085752565b34610391576020366003190112610391576020610e386004356124b7565b610e456040518092610e0d565bf35b3461039157604036600319011261039157602060ff610e94602435610e6b81610609565b600435600052600b845260036040600020019060018060a01b0316600052602052604060002090565b54166040519015158152f35b3461039157610eae36610932565b90610ebd82828587969761228f565b610ec6816124b7565b6008811015610e085760018060ff83161b1615610f3157506000908152600460205260409020546001600160a01b03163303610f195761054993610f0993612d7f565b6040519081529081906020820190565b60405163233d98e360e01b8152336004820152602490fd5b90610f55606492604051926331b75e4d60e01b845260048401526024830190610e0d565b60016044820152fd5b3461039157600036600319011261039157610549610f7a611db9565b6040519182916020835260208301906104b3565b3461039157602036600319011261039157600435600052600b6020526040600020805461054960026001840154930154604051938493846040919493926060820195825260208201520152565b3461039157600036600319011261039157610549604051610ffb81610648565b60018152603160f81b60208201526040519182916020835260208301906104b3565b6024359060ff8216820361039157565b3461039157604036600319011261039157602061107561104b61101d565b60405161105781610663565b600081526040519161106883610663565b6000835233600435612746565b604051908152f35b9181601f84011215610391578235916001600160401b038311610391576020838186019501011161039157565b346103915760c0366003190112610391576110c361101d565b604435906110d082610609565b6001600160401b0390606435828111610391576110f190369060040161107d565b60843584811161039157611109903690600401610737565b9160a4359485116103915761054995611129610f09963690600401610737565b94600435611e98565b346103915760803660031901126103915761114b61101d565b6001600160401b03906044358281116103915761116c90369060040161107d565b9091606435938411610391576111976110759361118f6020963690600401610737565b933691610700565b9033600435612746565b34610391576020366003190112610391576020611075600435611fc2565b65ffffffffffff81160361039157565b34610391576020366003190112610391576004356111ec816111bf565b6111f461230a565b6008547fc565b045403dc03c2eea82b81a0465edad9e2e7fc4d97e11421c209da93d7a93604065ffffffffffff81519481851686521693846020820152a165ffffffffffff191617600855005b346103915760603660031901126103915761125a61101d565b6044356001600160401b0381116103915760209161128961128261107593369060040161107d565b3691610700565b6040519161106883610663565b34610391576080366003190112610391576001600160401b03600435818111610391576112c79036906004016107e9565b90602435818111610391576112e0903690600401610853565b91604435828111610391576112f99036906004016108b3565b60643592831161039157366023840112156103915761054993611329610f09943690602481600401359101610700565b926128af565b346103915760203660031901126103915760043561134c81610609565b60018060a01b031660005260026020526020604060002054604051908152f35b90815180825260208080930193019160005b82811061138c575050505090565b83518552938101939281019260010161137e565b346103915760003660031901126103915761143b6113dd7f0000000000000000000000000000000000000000000000000000000000000000613643565b6105496114097f0000000000000000000000000000000000000000000000000000000000000000613744565b6114496040519161141983610663565b60008352604051958695600f60f81b875260e0602088015260e08701906104b3565b9085820360408701526104b3565b90466060850152306080850152600060a085015283820360c085015261136c565b346103915760803660031901126103915760043561148661101d565b906044359161149483610609565b6064356001600160401b03811161039157610ce16114b9611546923690600401610737565b6001600160a01b03861660009081526002602052604090208054600181019091556115409060405160208101917ff2aad550cf55f045cb27e9c559f9889fdfb6e6cdaa032301d6ea397784ae51d7835288604083015260ff8816606083015260018060a01b038a16608083015260a082015260a081526115388161067e565b5190206125e8565b8661260e565b6115615790610f09916105499361155b611d6d565b926125cc565b6040516394ab6c0760e01b81526001600160a01b0384166004820152602490fd5b0390fd5b346103915760003660031901126103915760206115a16120df565b65ffffffffffff60405191168152f35b3461039157600036600319011261039157602060405160648152f35b34610391576060366003190112610391576004356115ea81610609565b6044356001600160401b0381116103915760449161160e6020923690600401610737565b50604051630748d63560e31b81526001600160a01b039182166004820152602480359082015292839182907f0000000000000000000000000000000000000000000000000000000000000000165afa8015610b935761054991600091611680575b506040519081529081906020820190565b611699915060203d602011610bbe57610baf81836106b5565b3861166f565b346103915760003660031901126103915760206001600160d01b036116c2612a52565b16604051908152f35b34610391576020366003190112610391576004356116e881610609565b6116f061230a565b600854907f08f74ea46ef7894f65eabfb5e6e695de773a000b47c529ab559178069b226401604060018060a01b03815190808660501c16825284166020820152a17fffff0000000000000000000000000000000000000000ffffffffffffffffffff90911660509190911b600160501b600160f01b031617600855005b3461039157602036600319011261039157602060405160018152f35b34610391576020366003190112610391576004356000526004602052602065ffffffffffff60016040600020015416604051908152f35b34610391576000366003190112610391576020600754604051908152f35b346103915760a0366003190112610391576117fa600435610609565b611805602435610609565b6001600160401b0360443581811161039157611825903690600401610853565b506064358181116103915761183e903690600401610853565b5060843590811161039157611857903690600401610737565b50610549611863612173565b6040516001600160e01b031990911681529081906020820190565b34610391576020366003190112610391576020611075600435612193565b6060366003190112610391576004356118b481610609565b604435906001600160401b03821161039157600080916118db61002194369060040161107d565b906118e461230a565b81604051928392833781018481520391602435905af16119026121c5565b90612a99565b3461039157602061107561191b36610932565b9291909161228f565b346103915760003660031901126103915760085460405160509190911c6001600160a01b03168152602090f35b346103915760003660031901126103915761054960405161197181610648565b602081527f737570706f72743d627261766f2671756f72756d3d666f722c6162737461696e60208201526040519182916020835260208301906104b3565b346103915760003660031901126103915760206040517ff2aad550cf55f045cb27e9c559f9889fdfb6e6cdaa032301d6ea397784ae51d78152f35b346103915760203660031901126103915760043563ffffffff8082169182810361039157611a1661230a565b8215611a7a577f7e3f7f0708a84de9203036abaa450dccc85ad5ff52f78c170f3edb55cf5e8828604069ffffffff00000000000093600854958251918760301c1682526020820152a160301b169069ffffffff000000000000191617600855600080f35b60405163f1cfbf0560e01b815260006004820152602490fd5b346103915760403660031901126103915760446020600435611ab481610609565b6000604051611ac281610663565b52604051630748d63560e31b81526001600160a01b039182166004820152602480359082015292839182907f0000000000000000000000000000000000000000000000000000000000000000165afa8015610b93576105499160009161168057506040519081529081906020820190565b3461039157602036600319011261039157600435611b4f61230a565b60075460408051918252602082018390527fccb45da8d5717e6c4544694297c4ba5cf151d455c9bb0ed4fc7a38411bc0546191a1600755005b346103915760a036600319011261039157611ba4600435610609565b611baf602435610609565b6084356001600160401b03811161039157611bce903690600401610737565b5060085460501c6001600160a01b031630036107c05760405163f23a6e6160e01b8152602090f35b3461039157602036600319011261039157604051632394e7a360e21b8152600480359082018190526020826024817f00000000000000000000000000000000000000000000000000000000000000006001600160a01b03165afa918215610b9357600092611c8e575b50611c6990611fc2565b90818102918183041490151715611c895760405160649091048152602090f35b611f8e565b611c69919250611cac9060203d602011610bbe57610baf81836106b5565b9190611c5f565b34610391576000366003190112610391576040517f00000000000000000000000000000000000000000000000000000000000000006001600160a01b03168152602090f35b90600182811c92168015611d28575b6020831014611d1257565b634e487b7160e01b600052602260045260246000fd5b91607f1691611d07565b634e487b7160e01b600052603260045260246000fd5b8051821015611d5c5760209160051b010190565b611d32565b6040513d6000823e3d90fd5b60405190611d7a82610663565b60008252565b60405190611d8d82610648565b601d82527f6d6f64653d626c6f636b6e756d6265722666726f6d3d64656661756c740000006020830152565b604051634bf5d7e960e01b8152600080826004817f00000000000000000000000000000000000000000000000000000000000000006001600160a01b03165afa90918282611e11575b50506104e957506104e9611d80565b909192503d8082843e611e2481846106b5565b820191602081840312611e90578051906001600160401b038211611e94570182601f82011215611e9057805191611e5a836106e5565b93611e6860405195866106b5565b838552602084840101116105d2575090611e889160208085019101610490565b903880611e02565b5080fd5b8280fd5b939092919695610ce1611f5291611f4c8a611ece8160018060a01b03166000526002602052604060002080549060018201905590565b611ed936888a610700565b602081519101208b5160208d0120906040519260208401947f3e83946653575f9a39005e1545185629e92736b7528ab20ca3816f315424a81186528d604086015260ff8d16606086015260018060a01b0316608085015260a084015260c083015260e082015260e0815261153881610699565b8a61260e565b611f6d576104e9959691611f67913691610700565b92612746565b6040516394ab6c0760e01b81526001600160a01b0388166004820152602490fd5b634e487b7160e01b600052601160045260246000fd5b600019810191908211611c8957565b602719810191908211611c8957565b600a546000198101818111611c8957811115611d5c57600a6000527fc65a7bb8d6351c1cf70c95a316cc6a92839c986682d98bc35f958f4883f9d2a78101549165ffffffffffff928184821611156120d5575061201e90612862565b600090826005811161207e575b506120369350613240565b8061204b575060005b6001600160d01b031690565b61207261205a61207992611fa4565b600a600052600080516020613bdf8339815191520190565b5460301c90565b61203f565b909261208982613100565b8203918211611c895761203694600a6000528083600080516020613bdf833981519152015416908516106000146120c35750915b3861202b565b9291506120cf90612894565b906120bd565b9250505060301c90565b6040516324776b7d60e21b81526020816004817f00000000000000000000000000000000000000000000000000000000000000006001600160a01b03165afa60009181612136575b506104e957506104e943612862565b9091506020813d60201161216b575b81612152602093836106b5565b810103126103915751612164816111bf565b9038612127565b3d9150612145565b60085460501c6001600160a01b031630036107c05763bc197c8160e01b90565b600052600460205260406000205465ffffffffffff908163ffffffff8260d01c169160a01c1601818111611c89571690565b3d156121f0573d906121d6826106e5565b916121e460405193846106b5565b82523d6000602084013e565b606090565b90815180825260208080930193019160005b828110612215575050505090565b83516001600160a01b031685529381019392810192600101612207565b90808251908181526020809101926020808460051b8301019501936000915b8483106122615750505050505090565b909192939495848061227f600193601f198682030187528a516104b3565b9801930193019194939290612251565b92906122db926122ed926040519485926122cb6122b8602086019960808b5260a08701906121f5565b601f19968787830301604088015261136c565b9085858303016060860152612232565b906080830152039081018352826106b5565b51902090565b60085460501c6001600160a01b031630036107c057565b60085460501c6001600160a01b031633810361236957300361232857565b612331366106e5565b61233e60405191826106b5565b368152602081019036600083376000602036830101525190205b80612361612ae2565b036123585750565b6040516347096e4760e01b8152336004820152602490fd5b60409061239d6000939594606083019683526020830190610e0d565b0152565b6123aa816124b7565b906008821015610e08576010600160ff84161b16156123c7575090565b6123ea606492604051926331b75e4d60e01b845260048401526024830190610e0d565b60106044820152fd5b6123fc816124b7565b906008821015610e08576030600160ff84161b1615612419575090565b61243c606492604051926331b75e4d60e01b845260048401526024830190610e0d565b60306044820152fd5b6005548060801c9160018301926001600160801b038093168385161461248d576000526006602052604060002055600554916001600160801b03199060801b16911617600555565b604051638acb5f2760e01b8152600490fd5b90816020910312610391575180151581036103915790565b6124c081612c5b565b906124ca82610dfe565b600582036125c8576124e791506000526009602052604060002090565b546008546125009060501c6001600160a01b03166109cf565b604051632c258a9f60e11b81526004810183905260209291908381602481855afa908115610b93576000916125ab575b501561253e57505050600590565b604051632ab0f52960e01b815260048101929092528290829060249082905afa918215610b935760009261257e575b50501561257957600790565b600290565b61259d9250803d106125a4575b61259581836106b5565b81019061249f565b388061256d565b503d61258b565b6125c29150843d86116125a45761259581836106b5565b38612530565b5090565b916104e99391604051936125df85610663565b60008552612746565b6042906125f3612ec3565b906040519161190160f01b8352600283015260228201522090565b6126188383612fd7565b506004819592951015610e08571593846126d0575b50831561263b575b50505090565b6000929350908291604051612682816126746020820194630b135d3f60e11b998a875260248401526040604484015260648301906104b3565b03601f1981018352826106b5565b51915afa9061268f6121c5565b826126c2575b826126a5575b5050388080612635565b6126ba919250602080825183010191016129c5565b14388061269b565b915060208251101591612695565b6001600160a01b0383811691161493503861262d565b93909260ff612712936104e997958752166020860152604085015260a0606085015260a08401906104b3565b9160808184039101526104b3565b909260ff6080936104e996958452166020830152604082015281606082015201906104b3565b929190612752846124b7565b6008811015610e08576002600160ff83161b161561283457508360005260046020526127a361279d612792604060002065ffffffffffff905460a01c1690565b65ffffffffffff1690565b826129d4565b946127b086848488613013565b80516127f857506127f27fb8e138887d0aa13bab447e82de9d5c1777041ecd21ca36ba824ff1e6c07ddda4938660405194859460018060a01b03169785612720565b0390a290565b6127f2907fe2babfbac5889a709b63bb7f598b324e08bc5a4fb9ec647fb3cbc9ec07eb8712948760405195869560018060a01b031698866126e6565b6040516331b75e4d60e01b815260048101869052606491612859906024830190610e0d565b60026044820152fd5b65ffffffffffff90818111612875571690565b604490604051906306dfcc6560e41b8252603060048301526024820152fd5b9060018201809211611c8957565b91908201809211611c8957565b91939290936128be82336132ba565b156129ad5765ffffffffffff94600019866128d76120df565b160195808711611c895760006040516128ef81610663565b52604051630748d63560e31b8152336004820152961660248701526020866044817f00000000000000000000000000000000000000000000000000000000000000006001600160a01b03165afa958615610b935760009661298c575b506007549586811061296557506104e9949550339361348c565b604051636121770b60e11b8152336004820152602481019190915260448101879052606490fd5b6129a691965060203d602011610bbe57610baf81836106b5565b943861294b565b60405163d9b3955760e01b8152336004820152602490fd5b90816020910312610391575190565b604051630748d63560e31b81526001600160a01b0391821660048201526024810192909252602090829060449082907f0000000000000000000000000000000000000000000000000000000000000000165afa908115610b9357600091612a39575090565b6104e9915060203d602011610bbe57610baf81836106b5565b600a5480612a605750600090565b80600019810111611c8957600a6000527fc65a7bb8d6351c1cf70c95a316cc6a92839c986682d98bc35f958f4883f9d2a7015460301c90565b9091906106e35750805115612ab057805190602001fd5b604051630a12f52160e11b8152600490fd5b8115612acc570490565b634e487b7160e01b600052601260045260246000fd5b600554906001600160801b038083169260801c8314612b2757826000526006602052600160406000209360008554955501166001600160801b03196005541617600555565b6040516375e52f4f60e01b8152600490fd5b949392612b65608093612b57612b739460a08a5260a08a01906121f5565b9088820360208a015261136c565b908682036040880152612232565b93600060608201520152565b9192612bae60a094612ba0612bbc949998979960c0875260c08701906121f5565b90858203602087015261136c565b908382036040850152612232565b946000606083015260808201520152565b9290939160018060a01b0360085460501c1690813b1561039157600093612c1f6040519788958694859463e38335e560e01b86526bffffffffffffffffffffffff193060601b16189260048601612b39565b039134905af1908115610b9357600092612c4992612c4c575b506000526009602052604060002090565b55565b612c5590610630565b38612c38565b612c6f816000526004602052604060002090565b5460ff8160f01c16612d785760f81c612d7257612cab612792612c9c836000526004602052604060002090565b5460a01c65ffffffffffff1690565b8015612d5957612cbc6127926120df565b80911015612d5257612ccd82612193565b10612cd85750600190565b612ce4610ce1826139c5565b8015612d2d575b15612cf65750600390565b6127926001612d12612d1f936000526004602052604060002090565b015465ffffffffffff1690565b612d2857600490565b600590565b50612d4d610ce182600052600b6020526040600020600181015490541090565b612ceb565b5050600090565b604051636ad0607560e01b815260048101839052602490fd5b50600290565b5050600790565b90612d8b93929161228f565b612d94816124b7565b6008811015610e0857603b600160ff83161b1615612e965750612dd9612dc4826000526004602052604060002090565b80546001600160f81b0316600160f81b179055565b6040518181527f789cf55be980739dad1d0699b93b58e806b51c9d96619bfa8fe0a28abaa7b30c90602090a1612e19816000526009602052604060002090565b5480612e23575090565b600854612e3b9060501c6001600160a01b03166109cf565b803b156103915760405163c4d252f560e01b815260048101929092526000908290602490829084905af18015610b9357612e83575b5060008181526009602052604081205590565b80610b87612e9092610630565b38612e70565b90612eba606492604051926331b75e4d60e01b845260048401526024830190610e0d565b603b6044820152fd5b307f00000000000000000000000000000000000000000000000000000000000000006001600160a01b03161480612fae575b15612f1e577f000000000000000000000000000000000000000000000000000000000000000090565b60405160208101907f8b73c3c69bb8fe3d512ecc4cf759cc79239f7b179b0ffacaa9a75d522b39400f82527f000000000000000000000000000000000000000000000000000000000000000060408201527f000000000000000000000000000000000000000000000000000000000000000060608201524660808201523060a082015260a081526122ed8161067e565b507f00000000000000000000000000000000000000000000000000000000000000004614612ef5565b81519190604183036130085761300192506020820151906060604084015193015160001a90613a9a565b9192909190565b505060009160029190565b61302a90929192600052600b602052604060002090565b916003830161305561304e83839060018060a01b0316600052602052604060002090565b5460ff1690565b6130df5761307b60ff9392613088929060018060a01b0316600052602052604060002090565b805460ff19166001179055565b168061309f57509061309b9082546128a2565b9055565b600181036130b75750600161309b91019182546128a2565b6002036130cd57600261309b91019182546128a2565b6040516303599be160e11b8152600490fd5b6040516371c6af4960e01b81526001600160a01b0383166004820152602490fd5b801561323a57806131d36131cc6131c26131b86131ae6131a461319a61319060016104e99a6000908b60801c8061322e575b508060401c80613221575b508060201c80613214575b508060101c80613207575b508060081c806131fa575b508060041c806131ed575b508060021c806131e0575b50821c6131d9575b811c1b613189818b612ac2565b0160011c90565b613189818a612ac2565b6131898189612ac2565b6131898188612ac2565b6131898187612ac2565b6131898186612ac2565b6131898185612ac2565b8092612ac2565b90613b1e565b810161317c565b6002915091019038613174565b6004915091019038613169565b600891509101903861315e565b6010915091019038613153565b6020915091019038613148565b604091509101903861313d565b91505060809038613132565b50600090565b905b82811061324e57505090565b90918082169080831860011c8201809211611c8957600a60005265ffffffffffff8083600080516020613bdf833981519152015416908516106000146132975750915b90613242565b9291506132a390612894565b90613291565b908151811015611d5c570160200190565b81516034811061336b5760131981840101516001600160a01b0319166b1b91f1b211f2119351b859f160a31b0161336b57916000926132f881611fb3565b915b818310613315575050506001600160a01b0391821691161490565b90919361333b61333661332887856132a9565b516001600160f81b03191690565b613b30565b9190156133605760041b6010600160a01b031660ff91909116179360010191906132fa565b505050505050600190565b505050600190565b9061337d826107d2565b61338a60405191826106b5565b828152809261339b601f19916107d2565b019060005b8281106133ac57505050565b8060606020809385010152016133a0565b95926133f1906133ff939b9a989996959261012090895260209c60018060a01b03168d8a01528060408a01528801906121f5565b90868203606088015261136c565b9784890360808601528251808a52818a019180808360051b8d01019501926000905b83821061345e5750505050506104e9969750906134459184820360a0860152612232565b9360c083015260e08201526101008184039101526104b3565b9091929395838061347d8f93600194601f199082030186528a516104b3565b98019201920190939291613421565b9194939092946134a48651602088012082868661228f565b958351855190818114801590613638575b8015613630575b61360757505065ffffffffffff94856134e2612c9c8a6000526004602052604060002090565b166135e0577f7d84a6263ae0d98d3329bd7b46bb4e8d6f98cd35a7adb45c274c8b7fd5ebd5e0956135db9363ffffffff61352b61351d6120df565b6008549480861691166128a2565b9260301c166135b96135478c6000526004602052604060002090565b80546001600160a01b0319166001600160a01b038a1617815561359061356c86612862565b825465ffffffffffff60a01b191660a09190911b65ffffffffffff60a01b16178255565b61359983613bae565b815463ffffffff60d01b191660d09190911b63ffffffff60d01b16179055565b6135cd6135c68951613373565b91846128a2565b936040519889988d8a6133bd565b0390a1565b876135ea816124b7565b6040516331b75e4d60e01b81529182916115829160048401612381565b8351604051630447b05d60e41b8152600481019290925260248201526044810191909152606490fd5b5080156134bc565b5083518114156134b5565b60ff81146136815760ff811690601f821161366f576040519161366583610648565b8252602082015290565b604051632cd44ac360e21b8152600490fd5b506040516000816000549161369583611cf8565b8083529260209060019081811690811561372057506001146136c0575b50506104e9925003826106b5565b915092600080527f290decd9548b62a8d60345a988386fc84ba6bc95484008f6362f93160ef3e563936000925b82841061370857506104e994505050810160200138806136b2565b855487850183015294850194869450928101926136ed565b915050602092506104e994915060ff191682840152151560051b82010138806136b2565b60ff81146137665760ff811690601f821161366f576040519161366583610648565b5060405160008160019160015461377c81611cf8565b808452936020916001811690811561372057506001146137a45750506104e9925003826106b5565b91509260016000527fb10e2d527612073b26eecdfd717e6a320cf44b4afac2b0732d9fcbe2b7fa0cf6936000925b8284106137ed57506104e994505050810160200138806136b2565b855487850183015294850194869450928101926137d2565b600a549068010000000000000000821015610643576001820180600a55821015611d5c576106e391600a600052600080516020613bdf833981519152019061386a65ffffffffffff825116839065ffffffffffff1665ffffffffffff19825416179055565b60200151815465ffffffffffff1660309190911b65ffffffffffff1916179055565b90604051604081018181106001600160401b0382111761064357604052915465ffffffffffff8116835260301c6020830152565b600a5491929190811561399b576138e16138dc61205a84611fa4565b61388c565b805165ffffffffffff8381169491168410613989578560209361394d95613911612792865165ffffffffffff1690565b03613951575061392661205a61393f93611fa4565b9065ffffffffffff82549181199060301b169116179055565b01516001600160d01b031690565b9190565b905061398491506139716139636106d6565b65ffffffffffff9092168252565b6001600160d01b03871681850152613805565b61393f565b604051632520601d60e01b8152600490fd5b6139bf91506139ab6139636106d6565b6001600160d01b0384166020820152613805565b60009190565b600052600b6020526040600020600460205265ffffffffffff60406000205460a01c169060405191632394e7a360e21b835280600484015260208360248160018060a01b037f0000000000000000000000000000000000000000000000000000000000000000165afa928315610b9357600093613a75575b50613a4790611fc2565b91828102928184041490151715611c8957613a6e81600260016064940154910154906128a2565b9104111590565b613a47919350613a939060203d602011610bbe57610baf81836106b5565b9290613a3d565b91907f7fffffffffffffffffffffffffffffff5d576e7357a4501ddfe92f46681b20a08411613b1257926020929160ff608095604051948552168484015260408301526060820152600092839182805260015afa15610b935780516001600160a01b03811615613b0957918190565b50809160019190565b50505060009160039190565b9080821015613b2b575090565b905090565b60f81c9081602f1080613ba4575b15613b5057600191602f190160ff1690565b8160401080613b9a575b15613b6c576001916036190160ff1690565b8160601080613b90575b15613b88576001916056190160ff1690565b600091508190565b5060678210613b76565b5060478210613b5a565b50603a8210613b3e565b63ffffffff90818111613bbf571690565b604490604051906306dfcc6560e41b8252602060048301526024820152fdfec65a7bb8d6351c1cf70c95a316cc6a92839c986682d98bc35f958f4883f9d2a8a2646970667358221220f855570143106709d027d62131e0cbe97de1d3079ddfd625cc212bdb91584d9564736f6c63430008180033c65a7bb8d6351c1cf70c95a316cc6a92839c986682d98bc35f958f4883f9d2a80553476bf02ef2726e8ce5ced78d63e26e602e4a2257b1f559418e24b4633997608060405234620003a5576200167b803803806200001d81620003aa565b928339810190606081830312620003a55780516001600160a01b03928382169291839003620003a55760208281015190926001600160401b0391828111620003a557836200006d918301620003d0565b926040820151838111620003a557620000879201620003d0565b8251908282116200038f576000948554926001958685811c9516801562000384575b8386101462000370578190601f958681116200031d575b508390868311600114620002b9578992620002ad575b5050600019600383901b1c191690861b1786555b8151938411620002995784548581811c911680156200028e575b828210146200027a57908184869594931162000223575b5080928411600114620001bb57508592620001af575b5050600019600383901b1c191690821b1790555b81156200019757600780546001600160a01b0319811684179091556040519316907f8be0079c531659141344cd1fd0a4f28419497f9722a3daafe3b4186f6b6457e09080a36112389081620004438239f35b60249060405190631e4fbdf760e01b82526004820152fd5b01519050388062000131565b9190859450601f1984168588528388209388905b828210620002095750508411620001ef575b505050811b01905562000145565b015160001960f88460031b161c19169055388080620001e1565b8484015186558897909501949384019390810190620001cf565b90919293508587528187208480870160051c82019284881062000270575b9187968992969594930160051c01915b828110620002615750506200011b565b89815587965088910162000251565b9250819262000241565b634e487b7160e01b87526022600452602487fd5b90607f169062000104565b634e487b7160e01b86526041600452602486fd5b015190503880620000d6565b898052848a208994509190601f1984168b5b87828210620003065750508411620002ec575b505050811b018655620000ea565b015160001960f88460031b161c19169055388080620002de565b8385015186558c97909501949384019301620002cb565b9091508880528389208680850160051c82019286861062000366575b918a91869594930160051c01915b82811062000357575050620000c0565b8b81558594508a910162000347565b9250819262000339565b634e487b7160e01b88526022600452602488fd5b94607f1694620000a9565b634e487b7160e01b600052604160045260246000fd5b600080fd5b6040519190601f01601f191682016001600160401b038111838210176200038f57604052565b919080601f84011215620003a55782516001600160401b0381116200038f5760209062000406601f8201601f19168301620003aa565b92818452828287010111620003a55760005b8181106200042e57508260009394955001015290565b85810183015184820184015282016200041856fe610120604060805280608051526004908136101561001c57600080fd5b600060e05260e0513560e01c90816301ffc9a714610ca95750806306fdde0314610bf9578063081812fc14610bb9578063095ea7b314610abe57806323b872dd14610aa757806342842e0e14610a775780636352211e14610a4657806370a08231146109e4578063715018a6146109815780638da5cb5b1461095657806395d89b411461086d578063a22cb465146107ba578063b88d4fde1461074a578063c87b56dd1461064b578063d204c45e146101e0578063e985e9c5146101825763f2fde38b146100e957600080fd5b3461017c57602036600319011261017c57610102610d6d565b61010a61108e565b6001600160a01b039081169182156101615750600754826001600160601b0360a01b821617600755167f8be0079c531659141344cd1fd0a4f28419497f9722a3daafe3b4186f6b6457e060e05160e051a360e05180f35b6024906080515190631e4fbdf760e01b825260e05190820152fd5b60e05180fd5b3461017c5760805136600319011261017c5761019c610d6d565b6101a4610d88565b9060018060a01b0380911660e05152600560205260805160e05120911660e05152602052602060ff60805160e051205416608051519015158152f35b503461017c5760805136600319011261017c576101fb610d6d565b9067ffffffffffffffff6024803582811161017c573660238201121561017c5761022d90369083818701359101610e43565b9361023661108e565b60085460a08190526000196101008190521461063557600160a051016008556080515161026281610dd3565b60e05181526001600160a01b038281169290831561061c5760a05160e05152602060c052600260c0515260805160e05120541680151590816105d7575b8460e05152600360c0515260805160e051206001815401905560a05160e05152600260c0515260805160e05120856001600160601b0360a01b8254161790558460a051917fddf252ad1be2c89b69c2b068fc378daa952ba7f163c4a11628f55a4df523b3ef60e05160e051a46105be573b610489575b505060a05160e05152600660c0515260805160e051209284519283116104745750506103418254610e7a565b601f8111610427575b5060c051926001601f8311146103bd579281929360e051926103b2575b50508160011b91610100519060031b1c19161790555b7ff8e1a15aba9398e019f0b49df1a4fde98ee17ae345cb5f6b5e2c27f5033e8ce76080515160a051815260c05190a160e05180f35b015190503880610367565b601f198216938360e0515260c05160e051209160e0515b86811061040e57508360019596106103f4575b505050811b01905561037d565b01516101005160f88460031b161c191690553880806103e7565b81830151845560c05160019094019392830192016103d4565b8260e0515260c05160e05120601f830160051c81019160c051841061046a575b601f0160051c01905b81811061045d575061034a565b60e0518155600101610450565b9091508190610447565b604190634e487b7160e01b60e051525260e051fd5b60809592959391935151630a85bd0160e11b91828252338783015260e0518883015260a05160448301526080606483015281806104cd60c051936084830190610d2d565b038160e051895af160e0519181610577575b506105435750503d15915061053c9050573d6104fa81610e27565b90610509608051519283610e05565b8152803d9060e0519060c051013e5b8051908161053657505060805151633250574960e11b815291820152fd5b60c05101fd5b6060610518565b9295919391926001600160e01b0319160361056057503880610315565b60805151633250574960e11b815280850191909152fd5b90915060c0513d60c051116105b7575b6105918183610e05565b8160c051918101031261017c57516001600160e01b03198116810361017c5790386104df565b503d610587565b608051516339e3563760e11b815260e051818801528490fd5b6105fc60a051600052600460205260406000206001600160601b0360a01b8154169055565b8060e05152600360c0515260805160e0512061010051815401905561029f565b60805151633250574960e11b815260e051818901528590fd5b5060e08051634e487b7160e01b90526011845251fd5b503461017c576020908160031936011261017c573561066981611053565b5060e051526006815260805160e051209060805151918260e051825461068e81610e7a565b93848452600191866001821691826000146107285750506001146106e6575b50506106bb92500383610e05565b608051516106c881610dd3565b60e05190526106e260805151928284938452830190610d2d565b0390f35b85925060e051528160e051209060e051915b8583106107105750506106bb935082010138806106ad565b805483890185015287945086939092019181016106f8565b92509350506106bb94915060ff191682840152151560051b82010138806106ad565b503461017c57608036600319011261017c57610764610d6d565b61076c610d88565b6044359060643567ffffffffffffffff811161017c573660238201121561017c576107b4948160246107a393369301359101610e43565b926107af838383610eb4565b6110ba565b60e05180f35b503461017c5760805136600319011261017c576107d5610d6d565b6024359081151580920361017c576001600160a01b031691821561085457503360e05152600560205260805160e051208260e0515260205260805160e0512060ff1981541660ff8316179055608051519081527f17307eab39ab6107e8899845ad3d59bd9653f200f220920489ca2b5937696c3160203392a360e05180f35b60805151630b61174360e31b8152908101839052602490fd5b3461017c5760e05136600319011261017c576080515160e0516001826001549261089684610e7a565b92838352602094856001821691826000146109365750506001146108d7575b506108c292500383610e05565b6106e260805151928284938452830190610d2d565b849150600160e051527fb10e2d527612073b26eecdfd717e6a320cf44b4afac2b0732d9fcbe2b7fa0cf69060e051915b85831061091e5750506108c29350820101856108b5565b80548389018501528794508693909201918101610907565b60ff1916858201526108c295151560051b85010192508791506108b59050565b3461017c5760e05136600319011261017c57600754608051516001600160a01b039091168152602090f35b3461017c5760e05136600319011261017c5761099b61108e565b600780546001600160a01b0319811690915560e051906001600160a01b03167f8be0079c531659141344cd1fd0a4f28419497f9722a3daafe3b4186f6b6457e08280a360e05180f35b503461017c57602036600319011261017c576001600160a01b03610a06610d6d565b16908115610a2b575060e051526003602052602060805160e051205460805151908152f35b60249060805151906322718ad960e21b825260e05190820152fd5b503461017c57602036600319011261017c57610a6460209135611053565b608051516001600160a01b039091168152f35b3461017c576107b4610a8836610d9e565b906080515192610a9784610dd3565b60e05184526107af838383610eb4565b3461017c576107b4610ab836610d9e565b91610eb4565b503461017c5760805136600319011261017c57610ad9610d6d565b90602435610ae681611053565b33151580610ba6575b80610b73575b610b5b5760e0516001600160a01b0394851694839286929116907f8c5be1e5ebec7d5bd14f71427d1e84f3dd0314c0f7b2291e5b200ac8c7c3b9259080a460e0515260205260805160e05120906001600160601b0360a01b82541617905560e05160e051f35b6080515163a9fbf51f60e01b81523381850152602490fd5b5060018060a01b03811660e05152600560205260805160e051203360e0515260205260ff60805160e05120541615610af5565b506001600160a01b038116331415610aef565b503461017c57602036600319011261017c578035610bd681611053565b5060e05152602052602060018060a01b0360805160e05120541660805151908152f35b3461017c5760e05136600319011261017c576080515160e05180549082610c1f83610e7a565b9182825260209360019085600182169182600014610936575050600114610c4d57506108c292500383610e05565b60e08051805251859250907f290decd9548b62a8d60345a988386fc84ba6bc95484008f6362f93160ef3e5635b858310610c915750506108c29350820101856108b5565b80548389018501528794508693909201918101610c7a565b823461017c57602036600319011261017c57359063ffffffff60e01b821680920361017c57602091632483248360e11b8114908115610cea575b5015158152f35b6380ac58cd60e01b811491508115610d1c575b8115610d0b575b5083610ce3565b6301ffc9a760e01b14905083610d04565b635b5e139f60e01b81149150610cfd565b919082519283825260005b848110610d59575050826000602080949584010152601f8019910116010190565b602081830181015184830182015201610d38565b600435906001600160a01b0382168203610d8357565b600080fd5b602435906001600160a01b0382168203610d8357565b6060906003190112610d83576001600160a01b03906004358281168103610d8357916024359081168103610d83579060443590565b6020810190811067ffffffffffffffff821117610def57604052565b634e487b7160e01b600052604160045260246000fd5b90601f8019910116810190811067ffffffffffffffff821117610def57604052565b67ffffffffffffffff8111610def57601f01601f191660200190565b929192610e4f82610e27565b91610e5d6040519384610e05565b829481845281830111610d83578281602093846000960137010152565b90600182811c92168015610eaa575b6020831014610e9457565b634e487b7160e01b600052602260045260246000fd5b91607f1691610e89565b6001600160a01b03918216929091831561103a57600092828452826020956002875260409684888820541696879133151580610fa4575b509060027fddf252ad1be2c89b69c2b068fc378daa952ba7f163c4a11628f55a4df523b3ef9284610f71575b858352600381528b8320805460010190558683525289812080546001600160a01b0319168517905580a41692838303610f505750505050565b6064945051926364283d7b60e01b8452600484015260248301526044820152fd5b600087815260046020526040902080546001600160a01b0319169055848352600381528b83208054600019019055610f17565b91939450915080610ff9575b15610fc057859291879138610eeb565b878688610fdd576024915190637e27328960e01b82526004820152fd5b604491519063177e802f60e01b82523360048301526024820152fd5b50338714801561101e575b80610fb05750858252600481523385898420541614610fb0565b5086825260058152878220338352815260ff8883205416611004565b604051633250574960e11b815260006004820152602490fd5b6000818152600260205260409020546001600160a01b0316908115611076575090565b60249060405190637e27328960e01b82526004820152fd5b6007546001600160a01b031633036110a257565b60405163118cdaa760e01b8152336004820152602490fd5b813b6110c7575b50505050565b604051630a85bd0160e11b8082523360048301526001600160a01b03928316602483015260448201949094526080606482015260209592909116939092908390611115906084830190610d2d565b039285816000958187895af18491816111be575b50611189575050503d600014611181573d61114381610e27565b906111516040519283610e05565b81528091843d92013e5b8051928361117c57604051633250574960e11b815260048101849052602490fd5b019050fd5b50606061115b565b919450915063ffffffff60e01b16036111a65750388080806110c1565b60249060405190633250574960e11b82526004820152fd5b9091508681813d83116111fb575b6111d68183610e05565b810103126111f757516001600160e01b0319811681036111f7579038611129565b8480fd5b503d6111cc56fea264697066735822122073ebd81bbacde6502f8df0de8a91bc06f1d1d53c35c31409a52309cc8b14bd0864736f6c63430008180033610160346200053b57601f62002a8d38819003918201601f19168301916001600160401b03831184841017620002f5578084926020946040528339810103126200053b57516001600160a01b03811681036200053b57604051620000638162000540565b600e81526d25b0b630a5b93aba102a37b5b2b760911b90816020820152604051916200008f8362000540565b600e8352602083015260405192620000a78462000540565b600384526212d2d560ea1b602085015260405192620000c68462000540565b60018452603160f81b60208501528051906001600160401b038211620002f55760035490600182811c9216801562000530575b6020831014620004035781601f849311620004bb575b50602090601f8311600114620004305760009262000424575b50508160011b916000199060031b1c1916176003555b83516001600160401b038111620002f557600454600181811c9116801562000419575b60208210146200040357601f81116200039d575b50602094601f8211600114620003305794819293949560009262000324575b50508160011b916000199060031b1c1916176004555b6001600160a01b038116156200030b57600580546001600160a01b039283166001600160a01b0319821681179092559091167f8be0079c531659141344cd1fd0a4f28419497f9722a3daafe3b4186f6b6457e0600080a36200020c816200055c565b906101209182526200021e8362000723565b9061014091825260208151910120928360e0526020815191012091610100938385524660a0526040519360208501917f8b73c3c69bb8fe3d512ecc4cf759cc79239f7b179b0ffacaa9a75d522b39400f8352604086015260608501524660808501523060a085015260a0845260c084019380851060018060401b03861117620002f557846040525190206080523060c0526121b19384620008dc853960805184611192015260a0518461124d015260c0518461115c015260e051846111e1015251836112070152518261084e015251816108780152f35b634e487b7160e01b600052604160045260246000fd5b604051631e4fbdf760e01b815260006004820152602490fd5b01519050388062000194565b601f19821695600460005260206000209160005b88811062000384575083600195969798106200036a575b505050811b01600455620001aa565b015160001960f88460031b161c191690553880806200035b565b9192602060018192868501518155019401920162000344565b60046000527f8a35acfbc15ff81a39ae7d344fd709f28e8600b4aa8c65c6b64bfe7fe36bd19b601f830160051c810160208410620003fb575b601f830160051c82018110620003ee57505062000175565b60008155600101620003d6565b5080620003d6565b634e487b7160e01b600052602260045260246000fd5b90607f169062000161565b01519050388062000128565b600360009081527fc2575a0e9e593c00f959f8c92f12db2869c3395a3b0502d05e2516446f71f85b9350601f198516905b818110620004a2575090846001959493921062000488575b505050811b016003556200013e565b015160001960f88460031b161c1916905538808062000479565b9293602060018192878601518155019501930162000461565b60036000529091507fc2575a0e9e593c00f959f8c92f12db2869c3395a3b0502d05e2516446f71f85b601f840160051c8101916020851062000525575b90601f859493920160051c01905b8181106200051557506200010f565b6000815584935060010162000506565b9091508190620004f8565b91607f1691620000f9565b600080fd5b604081019081106001600160401b03821117620002f557604052565b805160209081811015620005f95750601f8251116200059857808251920151908083106200058957501790565b82600019910360031b1b161790565b90604051809263305a27a960e01b82528060048301528251908160248401526000935b828510620005df575050604492506000838284010152601f80199101168101030190fd5b8481018201518686016044015293810193859350620005bb565b906001600160401b038211620002f557600654926001938481811c9116801562000718575b838210146200040357601f8111620006de575b5081601f841160011462000672575092829391839260009462000666575b50501b916000199060031b1c19161760065560ff90565b0151925038806200064f565b919083601f198116600660005284600020946000905b88838310620006c35750505010620006a9575b505050811b0160065560ff90565b015160001960f88460031b161c191690553880806200069b565b85870151885590960195948501948793509081019062000688565b600660005284601f84600020920160051c820191601f860160051c015b8281106200070b57505062000631565b60008155018590620006fb565b90607f16906200061e565b805160209081811015620007b15750601f8251116200075057808251920151908083106200058957501790565b90604051809263305a27a960e01b82528060048301528251908160248401526000935b82851062000797575050604492506000838284010152601f80199101168101030190fd5b848101820151868601604401529381019385935062000773565b906001600160401b038211620002f557600754926001938481811c91168015620008d0575b838210146200040357601f811162000896575b5081601f84116001146200082a57509282939183926000946200081e575b50501b916000199060031b1c19161760075560ff90565b01519250388062000807565b919083601f198116600760005284600020946000905b888383106200087b575050501062000861575b505050811b0160075560ff90565b015160001960f88460031b161c1916905538808062000853565b85870151885590960195948501948793509081019062000840565b600760005284601f84600020920160051c820191601f860160051c015b828110620008c3575050620007e9565b60008155018590620008b3565b90607f1690620007d656fe6080604052600436101561001257600080fd5b60003560e01c806306fdde03146101c7578063095ea7b3146101c257806318160ddd146101bd57806323b872dd146101b8578063313ce567146101b35780633644e515146101ae5780633a46b1a8146101a957806340c10f19146101a45780634bf5d7e91461019f578063587cde1e1461019a5780635c19a95c146101955780636fcfff451461019057806370a082311461018b578063715018a6146101865780637ecebe001461018157806384b0196e1461017c5780638da5cb5b146101775780638e539e8c1461017257806391ddadf41461016d57806395d89b41146101685780639ab24eb014610163578063a9059cbb1461015e578063c3cda52014610159578063d505accf14610154578063dd62ed3e1461014f578063f1127ed81461014a5763f2fde38b1461014557600080fd5b610ec3565b610e2e565b610dd6565b610ca2565b610bd9565b610b93565b610b4a565b610aa2565b610a76565b610957565b61092e565b610833565b6107f9565b61079b565b610762565b6106fa565b6106d8565b61069d565b61060b565b61051f565b610474565b610451565b610435565b610389565b61036b565b61033a565b610220565b919082519283825260005b8481106101f8575050826000602080949584010152601f8019910116010190565b6020818301810151848301820152016101d7565b90602061021d9281815201906101cc565b90565b34610309576000806003193601126103065760405190806003549061024482610f51565b808552916020916001918281169081156102d95750600114610281575b61027d8661027181880382611016565b6040519182918261020c565b0390f35b9350600384527fc2575a0e9e593c00f959f8c92f12db2869c3395a3b0502d05e2516446f71f85b5b8385106102c6575050505081016020016102718261027d38610261565b80548686018401529382019381016102a9565b905086955061027d9693506020925061027194915060ff191682840152151560051b820101929338610261565b80fd5b600080fd5b600435906001600160a01b038216820361030957565b602435906001600160a01b038216820361030957565b346103095760403660031901126103095761036061035661030e565b602435903361157a565b602060405160018152f35b34610309576000366003190112610309576020600254604051908152f35b34610309576060366003190112610309576103a261030e565b6103aa610324565b6001600160a01b0382166000908152600160209081526040808320338452909152902060443591905492600184016103f3575b6103e79350611060565b60405160018152602090f35b82841061040f5761040a836103e79503338361162e565b6103dd565b604051637dc7a0d960e11b81523360048201526024810185905260448101849052606490fd5b3461030957600036600319011261030957602060405160128152f35b3461030957600036600319011261030957602061046c611159565b604051908152f35b346103095760403660031901126103095761048d61030e565b60243561049943611273565b9165ffffffffffff83168210156104f4576001600160a01b03166000908152600a6020526040902061027d92506001600160d01b03916104e391906104dd90611273565b906112e5565b604051911681529081906020820190565b50604051637669fc0f60e11b8152600481019190915265ffffffffffff919091166024820152604490fd5b346103095760403660031901126103095761053861030e565b6024356105436113c4565b6001600160a01b03821680156105f257610567610562836002546112d8565b600255565b6001600160a01b038316600090815260208181526040808320805486019055518481527fddf252ad1be2c89b69c2b068fc378daa952ba7f163c4a11628f55a4df523b3ef9190a3600254916001600160d01b0383116105cc576105ca9250611db1565b005b604051630e58ae9360e11b8152600481018490526001600160d01b036024820152604490fd5b60405163ec442f0560e01b815260006004820152602490fd5b346103095760003660031901126103095761062543611273565b65ffffffffffff8061063643611273565b1691160361068b5761027d60405161064d81610fa1565b601d81527f6d6f64653d626c6f636b6e756d6265722666726f6d3d64656661756c7400000060208201526040519182916020835260208301906101cc565b6040516301bfc1c560e61b8152600490fd5b346103095760203660031901126103095760206001600160a01b03806106c161030e565b166000526009825260406000205416604051908152f35b34610309576020366003190112610309576105ca6106f461030e565b336113f0565b34610309576020366003190112610309576001600160a01b0361071b61030e565b16600052600a60205260406000205463ffffffff908181116107435760209160405191168152f35b604490604051906306dfcc6560e41b8252602060048301526024820152fd5b3461030957602036600319011261030957602061046c61078061030e565b6001600160a01b031660009081526020819052604090205490565b3461030957600080600319360112610306576107b56113c4565b600580546001600160a01b0319811690915581906001600160a01b03167f8be0079c531659141344cd1fd0a4f28419497f9722a3daafe3b4186f6b6457e08280a380f35b34610309576020366003190112610309576001600160a01b0361081a61030e565b1660005260086020526020604060002054604051908152f35b3461030957600080600319360112610306576108d1906108727f0000000000000000000000000000000000000000000000000000000000000000611983565b9061089c7f0000000000000000000000000000000000000000000000000000000000000000611a84565b90604051916108aa83610fc2565b8183526108df602091604051968796600f60f81b885260e0602089015260e08801906101cc565b9086820360408801526101cc565b904660608601523060808601528260a086015284820360c0860152602080855193848152019401925b82811061091757505050500390f35b835185528695509381019392810192600101610908565b34610309576000366003190112610309576005546040516001600160a01b039091168152602090f35b346103095760203660031901126103095760043561097443611273565b9065ffffffffffff91828116821015610a4f575061099190611273565b600b549060009082600581116109f3575b506109ad93506117c8565b806109ca5750602060005b6040516001600160d01b039091168152f35b6109d56020916112bb565b600b60005260008051602061215c833981519152015460301c6109b8565b90926109fe82611688565b8203918211610a4a576109ad94600b600052808360008051602061215c83398151915201541690851610600014610a385750915b386109a2565b929150610a44906112ca565b90610a32565b6112a5565b604051637669fc0f60e11b8152600481019290925265ffffffffffff166024820152604490fd5b34610309576000366003190112610309576020610a9243611273565b65ffffffffffff60405191168152f35b346103095760008060031936011261030657604051908060045490610ac682610f51565b808552916020916001918281169081156102d95750600114610af25761027d8661027181880382611016565b9350600484527f8a35acfbc15ff81a39ae7d344fd709f28e8600b4aa8c65c6b64bfe7fe36bd19b5b838510610b37575050505081016020016102718261027d38610261565b8054868601840152938201938101610b1a565b34610309576020366003190112610309576001600160a01b03610b6b61030e565b16600052600a602052602060018060d01b03610b8a60406000206114ba565b16604051908152f35b3461030957604036600319011261030957610360610baf61030e565b6024359033611060565b6064359060ff8216820361030957565b6084359060ff8216820361030957565b346103095760c036600319011261030957610bf261030e565b60443590602435610c01610bb9565b834211610c8957610c7d6105ca94610c84926040519060208201927fe48329057bfd03d55e49b547132e39cffd9c1820ad7b9d4c5307691425d15adf845260018060a01b0388166040840152866060840152608083015260808252610c6582610fde565b610c7860a43593608435935190206114e6565b61150c565b9182611524565b6113f0565b604051632341d78760e11b815260048101859052602490fd5b346103095760e036600319011261030957610cbb61030e565b610cc3610324565b60443590606435610cd2610bc9565b814211610dbd576001600160a01b0385811660008181526008602090815260409182902080546001810190915582517f6e71edae12b1b97f4d1f60370fef10105fa2faae0126114a169c64845d6126c99281019283529283019390935292861660608201526080810187905260a081019190915260c080820194909452928352610d76929091610d6360e083611016565b610c7860c4359360a435935190206114e6565b6001600160a01b0384811690821603610d9357506105ca9261157a565b6040516325c0072360e11b81526001600160a01b0391821660048201529084166024820152604490fd5b60405163313c898160e11b815260048101839052602490fd5b34610309576040366003190112610309576020610e25610df461030e565b610dfc610324565b6001600160a01b0391821660009081526001855260408082209290931681526020919091522090565b54604051908152f35b3461030957604036600319011261030957610e4761030e565b60243563ffffffff8116810361030957610e97610e9d91604093610e69611047565b50610e72611047565b506001600160a01b03166000908152600a602052849020610e91611047565b50611c81565b50611caf565b8151815165ffffffffffff1681526020918201516001600160d01b031691810191909152f35b3461030957602036600319011261030957610edc61030e565b610ee46113c4565b6001600160a01b03908116908115610f3857600554826bffffffffffffffffffffffff60a01b821617600555167f8be0079c531659141344cd1fd0a4f28419497f9722a3daafe3b4186f6b6457e0600080a3005b604051631e4fbdf760e01b815260006004820152602490fd5b90600182811c92168015610f81575b6020831014610f6b57565b634e487b7160e01b600052602260045260246000fd5b91607f1691610f60565b634e487b7160e01b600052604160045260246000fd5b6040810190811067ffffffffffffffff821117610fbd57604052565b610f8b565b6020810190811067ffffffffffffffff821117610fbd57604052565b60a0810190811067ffffffffffffffff821117610fbd57604052565b60c0810190811067ffffffffffffffff821117610fbd57604052565b90601f8019910116810190811067ffffffffffffffff821117610fbd57604052565b6040519061104582610fa1565b565b6040519061105482610fa1565b60006020838281520152565b6001600160a01b038082169493929190851561114057821680156105f2576001600160a01b0382166000908152602081905260409020549584871061111157846110459697036110c28460018060a01b03166000526000602052604060002090565b556001600160a01b0384166000908152602081815260409182902080548801905590518681527fddf252ad1be2c89b69c2b068fc378daa952ba7f163c4a11628f55a4df523b3ef9190a3611e2f565b60405163391434e360e21b81526001600160a01b03841660048201526024810188905260448101869052606490fd5b604051634b637e8f60e11b815260006004820152602490fd5b307f00000000000000000000000000000000000000000000000000000000000000006001600160a01b0316148061124a575b156111b4577f000000000000000000000000000000000000000000000000000000000000000090565b60405160208101907f8b73c3c69bb8fe3d512ecc4cf759cc79239f7b179b0ffacaa9a75d522b39400f82527f000000000000000000000000000000000000000000000000000000000000000060408201527f000000000000000000000000000000000000000000000000000000000000000060608201524660808201523060a082015260a0815261124481610ffa565b51902090565b507f0000000000000000000000000000000000000000000000000000000000000000461461118b565b65ffffffffffff90818111611286571690565b604490604051906306dfcc6560e41b8252603060048301526024820152fd5b634e487b7160e01b600052601160045260246000fd5b600019810191908211610a4a57565b9060018201809211610a4a57565b91908201809211610a4a57565b908154906000918060058111611378575b50915b8281106113285750508061130e575050600090565b611317906112bb565b906000526020600020015460301c90565b90918082169080831860011c8201809211610a4a578460005265ffffffffffff80836020600020015416908516106000146113665750915b906112f9565b929150611372906112ca565b90611360565b9061138282611688565b8203918211610a4a578460005265ffffffffffff80836020600020015416908416106000146113b357505b386112f6565b92506113be906112ca565b916113ad565b6005546001600160a01b031633036113d857565b60405163118cdaa760e01b8152336004820152602490fd5b6001600160a01b03818116600081815260096020526040812080548685166001600160a01b0319821681179092556110459694169461146d9390928691907f3134e8a2e6d97e929a7e54011ea5485d7d196dd5f0ba4d4ef95803e8e3fc257f9080a46001600160a01b031660009081526020819052604090205490565b91611831565b600b54806114815750600090565b80600019810111610a4a57600b6000527f0175b7a638427703f0dbe7bb9bbf987a2551717b34e79f33b5b1008d1fa01db8015460301c90565b8054806114c8575050600090565b600019918183810111610a4a57600052602060002001015460301c90565b6042906114f1611159565b906040519161190160f01b8352600283015260228201522090565b9161021d939161151b93611b44565b90929192611bf4565b6001600160a01b03811660009081526008602052604090208054600181019091559091819003611552575050565b6040516301d4b62360e61b81526001600160a01b039092166004830152602482015260449150fd5b6001600160a01b0380821692919083156116155782169384156115fc57806115f27f8c5be1e5ebec7d5bd14f71427d1e84f3dd0314c0f7b2291e5b200ac8c7c3b925946115db60209560018060a01b03166000526001602052604060002090565b9060018060a01b0316600052602052604060002090565b55604051908152a3565b604051634a1406b160e11b815260006004820152602490fd5b60405163e602df0560e01b815260006004820152602490fd5b906001600160a01b0380831615611615578116156115fc576115db6116659260018060a01b03166000526001602052604060002090565b55565b8115611672570490565b634e487b7160e01b600052601260045260246000fd5b80156117c2578061175b61175461174a61174061173661172c611722611718600161021d9a6000908b60801c806117b6575b508060401c806117a9575b508060201c8061179c575b508060101c8061178f575b508060081c80611782575b508060041c80611775575b508060021c80611768575b50821c611761575b811c1b611711818b611668565b0160011c90565b611711818a611668565b6117118189611668565b6117118188611668565b6117118187611668565b6117118186611668565b6117118185611668565b8092611668565b90611cd3565b8101611704565b60029150910190386116fc565b60049150910190386116f1565b60089150910190386116e6565b60109150910190386116db565b60209150910190386116d0565b60409150910190386116c5565b915050608090386116ba565b50600090565b905b8281106117d657505090565b90918082169080831860011c8201809211610a4a57600b60005265ffffffffffff808360008051602061215c8339815191520154169085161060001461181f5750915b906117ca565b92915061182b906112ca565b90611819565b6001600160a01b0380831693929190811690818514158061197a575b611859575b5050505050565b816118de575b50508261186e575b8080611852565b6001600160a01b03166000908152600a602052604090207fdec2bacdd2f05b59de34da9b523dff8be42e5e38e818c82fdb0bae774387a724916118bb916118b59091611ce5565b90611d18565b604080516001600160d01b039384168152919092166020820152a2388080611867565b6001600160a01b03166000908152600a602052604090206118fe84611ce5565b61190743611273565b6001600160d01b0391828061191b866114ba565b169116900392828411610a4a577fdec2bacdd2f05b59de34da9b523dff8be42e5e38e818c82fdb0bae774387a724936119709261195792612079565b6040805192851683529316602082015291829190820190565b0390a2388061185f565b5083151561184d565b60ff81146119c15760ff811690601f82116119af57604051916119a583610fa1565b8252602082015290565b604051632cd44ac360e21b8152600490fd5b506040516006548160006119d483610f51565b80835292602090600190818116908115611a6057506001146119ff575b505061021d92500382611016565b91509260066000527ff652222313e28459528d920b65115c16c04f3efc82aaedc97be59f3f377c0d3f936000925b828410611a48575061021d94505050810160200138806119f1565b85548785018301529485019486945092810192611a2d565b9150506020925061021d94915060ff191682840152151560051b82010138806119f1565b60ff8114611aa65760ff811690601f82116119af57604051916119a583610fa1565b50604051600754816000611ab983610f51565b80835292602090600190818116908115611a605750600114611ae357505061021d92500382611016565b91509260076000527fa66cc928b5edb82af9bd49922954155ab7b0942694bea4ce44661d9a8736c688936000925b828410611b2c575061021d94505050810160200138806119f1565b85548785018301529485019486945092810192611b11565b91907f7fffffffffffffffffffffffffffffff5d576e7357a4501ddfe92f46681b20a08411611bc857926020929160ff608095604051948552168484015260408301526060820152600092839182805260015afa15611bbc5780516001600160a01b03811615611bb357918190565b50809160019190565b604051903d90823e3d90fd5b50505060009160039190565b60041115611bde57565b634e487b7160e01b600052602160045260246000fd5b611bfd81611bd4565b80611c06575050565b611c0f81611bd4565b60018103611c295760405163f645eedf60e01b8152600490fd5b611c3281611bd4565b60028103611c535760405163fce698f760e01b815260048101839052602490fd5b80611c5f600392611bd4565b14611c675750565b6040516335e2f38360e21b81526004810191909152602490fd5b8054821015611c995760005260206000200190600090565b634e487b7160e01b600052603260045260246000fd5b90604051611cbc81610fa1565b915465ffffffffffff8116835260301c6020830152565b9080821015611ce0575090565b905090565b6001600160d01b0390818111611cf9571690565b604490604051906306dfcc6560e41b825260d060048301526024820152fd5b90611d2243611273565b6001600160d01b03918280611d36866114ba565b16911601918211610a4a57611d4a92612079565b9091565b611d5743611273565b906001600160d01b03908180611d6b611473565b16911601908111610a4a57611d4a91611f51565b611d8843611273565b906001600160d01b03908180611d9c611473565b1691169003908111610a4a57611d4a91611f51565b9061104591611dc7611dc283611ce5565b611d4e565b50506001600160a01b03908116908115611e17575b60096020527fec8156718a8372b1db44bb411437d0870f3e3790d4a08526d024ce1b0b668f6b54600092835260409092205481169116611831565b611e28611e2384611ce5565b611d7f565b5050611ddc565b61104592916001600160a01b03918216919081908315611e87575b16918215611e74575b60005260096020528060406000205416916000526040600020541690611831565b611e80611e2385611ce5565b5050611e53565b611e93611dc286611ce5565b5050611e4a565b600b5490600160401b821015610fbd576001820180600b55821015611c9957600b600052805160209091015160301b65ffffffffffff191665ffffffffffff919091161760008051602061215c83398151915290910155565b8054600160401b811015610fbd57611f1091600182018155611c81565b611f3b57815160209092015160301b65ffffffffffff191665ffffffffffff92909216919091179055565b634e487b7160e01b600052600060045260246000fd5b600b5491929190811561204f57611f8a611f85611f6d846112bb565b600b60005260008051602061215c8339815191520190565b611caf565b805165ffffffffffff838116949116841061203d578560209361200195611fc5611fba865165ffffffffffff1690565b65ffffffffffff1690565b036120055750611fda611f6d611ff3936112bb565b9065ffffffffffff82549181199060301b169116179055565b01516001600160d01b031690565b9190565b90506120389150612025612017611038565b65ffffffffffff9092168252565b6001600160d01b03871681850152611e9a565b611ff3565b604051632520601d60e01b8152600490fd5b612073915061205f612017611038565b6001600160d01b0384166020820152611e9a565b60009190565b805492939291908215612137576120a2611f85612095856112bb565b8360005260206000200190565b906120b3825165ffffffffffff1690565b65ffffffffffff8481169116811061203d576120019460209488926120e1611fba875165ffffffffffff1690565b036121045750611ff3926120f7611fda926112bb565b9060005260206000200190565b91505061203891612124612116611038565b65ffffffffffff9093168352565b6001600160d01b03881682860152611ef3565b6120739250612147612116611038565b6001600160d01b0385166020830152611ef356fe0175b7a638427703f0dbe7bb9bbf987a2551717b34e79f33b5b1008d1fa01db9a2646970667358221220f2c8420ecf8b349ba88a443b8e4255d61712f4f815ee50d6ab26398ec4bdfb4264736f6c6343000818003360803461007457601f61030338819003918201601f19168301916001600160401b038311848410176100795780849260209460405283398101031261007457516001600160a01b0381169081900361007457600080546001600160a01b03191691909117905560405161027390816100908239f35b600080fd5b634e487b7160e01b600052604160045260246000fdfe608060409080825260049081361015610050575b5050361561002057600080fd5b807f543ba50a5eec5e6178218e364b1d0f396157b3c8fa278522c2cb7fd99407d4749151338152346020820152a1005b600090813560e01c9081638da5cb5b14610219575063f3fef3a30361001357823461021557806003193601126102155782356001600160a01b03818116918290036102115760249485359185541633036101c15747821161018a578480808085875af13d156101855767ffffffffffffffff3d81811161017357865191601f8201601f19908116603f011683019081118382101761016157875281528660203d92013e5b1561012c57507feaff4b37086828766ad3268786972c0cd24259d4c87a80f9d3963a3c3d999b0d93945082519182526020820152a180f35b606490601087602087519362461bcd60e51b85528401528201526f2a3930b739b332b9103330b4b632b21760811b6044820152fd5b634e487b7160e01b8952604185528989fd5b634e487b7160e01b8852604184528888fd5b6100f4565b606490601287602087519362461bcd60e51b855284015282015271496e73756666696369656e742066756e647360701b6044820152fd5b608490602587602087519362461bcd60e51b85528401528201527f4f6e6c7920746865206f776e65722063616e2063616c6c20746869732066756e60448201526431ba34b7b760d91b6064820152fd5b8380fd5b5080fd5b90503461021557816003193601126102155790546001600160a01b03168152602090f3fea264697066735822122015856968d1072154680b9ab6b60ac5d4e2dba3b51b52a7b99d45fc6a2c4c5eac64736f6c63430008180033047022b3cc521ffe0fff1979a955247c2d74a09be474ae7028658940721b313ca26469706673582212201dcef900c246d45634c20d8557e020910ce3368b836d85358d73e899ead4f43e64736f6c634300081800332f8788117e7eff1d82e926ec794901d17c78024a50270940304540a733656f0d",
  "linkReferences": {},
  "deployedLinkReferences": {}
}