{
  "_format": "hh-sol-artifact-1",
  "contractName": "ContractFactory",
  "sourceName": "contracts/ContractFactory.sol",
  "abi": [
    {
      "inputs": [
        {
          "internalType": "address",
          "name": "initialAdmin",
          "type": "address"
        }
      ],
      "stateMutability": "nonpayable",
      "type": "constructor"
    },
    {
      "inputs": [],
      "name": "AccessControlBadConfirmation",
      "type": "error"
    },
    {
      "inputs": [
        {
          "internalType": "address",
          "name": "account",
          "type": "address"
        },
        {
          "internalType": "bytes32",
          "name": "neededRole",
          "type": "bytes32"
        }
      ],
      "name": "AccessControlUnauthorizedAccount",
      "type": "error"
    },
    {
      "anonymous": false,
      "inputs": [
        {
          "indexed": true,
          "internalType": "address",
          "name": "contractAddress",
          "type": "address"
        },
        {
          "indexed": true,
          "internalType": "address",
          "name": "creator",
          "type": "address"
        },
        {
          "indexed": false,
          "internalType": "string",
          "name": "contractType",
          "type": "string"
        },
        {
          "indexed": false,
          "internalType": "uint256",
          "name": "timestamp",
          "type": "uint256"
        }
      ],
      "name": "ContractCreated",
      "type": "event"
    },
    {
      "anonymous": false,
      "inputs": [
        {
          "indexed": true,
          "internalType": "bytes32",
          "name": "role",
          "type": "bytes32"
        },
        {
          "indexed": true,
          "internalType": "bytes32",
          "name": "previousAdminRole",
          "type": "bytes32"
        },
        {
          "indexed": true,
          "internalType": "bytes32",
          "name": "newAdminRole",
          "type": "bytes32"
        }
      ],
      "name": "RoleAdminChanged",
      "type": "event"
    },
    {
      "anonymous": false,
      "inputs": [
        {
          "indexed": true,
          "internalType": "bytes32",
          "name": "role",
          "type": "bytes32"
        },
        {
          "indexed": true,
          "internalType": "address",
          "name": "account",
          "type": "address"
        },
        {
          "indexed": true,
          "internalType": "address",
          "name": "sender",
          "type": "address"
        }
      ],
      "name": "RoleGranted",
      "type": "event"
    },
    {
      "anonymous": false,
      "inputs": [
        {
          "indexed": true,
          "internalType": "bytes32",
          "name": "role",
          "type": "bytes32"
        },
        {
          "indexed": true,
          "internalType": "address",
          "name": "account",
          "type": "address"
        },
        {
          "indexed": true,
          "internalType": "address",
          "name": "sender",
          "type": "address"
        }
      ],
      "name": "RoleRevoked",
      "type": "event"
    },
    {
      "inputs": [],
      "name": "CREATOR_ROLE",
      "outputs": [
        {
          "internalType": "bytes32",
          "name": "",
          "type": "bytes32"
        }
      ],
      "stateMutability": "view",
      "type": "function"
    },
    {
      "inputs": [],
      "name": "DEFAULT_ADMIN_ROLE",
      "outputs": [
        {
          "internalType": "bytes32",
          "name": "",
          "type": "bytes32"
        }
      ],
      "stateMutability": "view",
      "type": "function"
    },
    {
      "inputs": [
        {
          "internalType": "address payable",
          "name": "_beneficiary",
          "type": "address"
        },
        {
          "internalType": "address",
          "name": "_arbiter",
          "type": "address"
        }
      ],
      "name": "createEscrow",
      "outputs": [
        {
          "internalType": "address",
          "name": "",
          "type": "address"
        }
      ],
      "stateMutability": "nonpayable",
      "type": "function"
    },
    {
      "inputs": [
        {
          "internalType": "string",
          "name": "_uri",
          "type": "string"
        }
      ],
      "name": "createEventTicket",
      "outputs": [
        {
          "internalType": "address",
          "name": "",
          "type": "address"
        }
      ],
      "stateMutability": "nonpayable",
      "type": "function"
    },
    {
      "inputs": [
        {
          "internalType": "string",
          "name": "name",
          "type": "string"
        },
        {
          "internalType": "string",
          "name": "symbol",
          "type": "string"
        },
        {
          "internalType": "address",
          "name": "_nftAddress",
          "type": "address"
        },
        {
          "internalType": "uint256",
          "name": "_nftId",
          "type": "uint256"
        },
        {
          "internalType": "uint256",
          "name": "_totalSupply",
          "type": "uint256"
        }
      ],
      "name": "createFractionalizer",
      "outputs": [
        {
          "internalType": "address",
          "name": "",
          "type": "address"
        }
      ],
      "stateMutability": "nonpayable",
      "type": "function"
    },
    {
      "inputs": [
        {
          "internalType": "address",
          "name": "_token",
          "type": "address"
        },
        {
          "internalType": "address payable",
          "name": "_timelock",
          "type": "address"
        }
      ],
      "name": "createGovernor",
      "outputs": [
        {
          "internalType": "address",
          "name": "",
          "type": "address"
        }
      ],
      "stateMutability": "nonpayable",
      "type": "function"
    },
    {
      "inputs": [
        {
          "internalType": "string",
          "name": "_name",
          "type": "string"
        },
        {
          "internalType": "string",
          "name": "_symbol",
          "type": "string"
        }
      ],
      "name": "createKalaKrutNFT",
      "outputs": [
        {
          "internalType": "address",
          "name": "",
          "type": "address"
        }
      ],
      "stateMutability": "nonpayable",
      "type": "function"
    },
    {
      "inputs": [],
      "name": "createKalaKrutToken",
      "outputs": [
        {
          "internalType": "address",
          "name": "",
          "type": "address"
        }
      ],
      "stateMutability": "nonpayable",
      "type": "function"
    },
    {
      "inputs": [
        {
          "internalType": "address",
          "name": "provider",
          "type": "address"
        },
        {
          "internalType": "address",
          "name": "client",
          "type": "address"
        },
        {
          "internalType": "address",
          "name": "arbiter",
          "type": "address"
        },
        {
          "internalType": "string",
          "name": "terms",
          "type": "string"
        }
      ],
      "name": "createServiceAgreement",
      "outputs": [
        {
          "internalType": "address",
          "name": "",
          "type": "address"
        }
      ],
      "stateMutability": "payable",
      "type": "function"
    },
    {
      "inputs": [
        {
          "internalType": "uint256",
          "name": "minDelay",
          "type": "uint256"
        },
        {
          "internalType": "address[]",
          "name": "proposers",
          "type": "address[]"
        },
        {
          "internalType": "address[]",
          "name": "executors",
          "type": "address[]"
        }
      ],
      "name": "createTimelockController",
      "outputs": [
        {
          "internalType": "address",
          "name": "",
          "type": "address"
        }
      ],
      "stateMutability": "nonpayable",
      "type": "function"
    },
    {
      "inputs": [],
      "name": "createTreasury",
      "outputs": [
        {
          "internalType": "address",
          "name": "",
          "type": "address"
        }
      ],
      "stateMutability": "nonpayable",
      "type": "function"
    },
    {
      "inputs": [
        {
          "internalType": "bytes32",
          "name": "role",
          "type": "bytes32"
        }
      ],
      "name": "getRoleAdmin",
      "outputs": [
        {
          "internalType": "bytes32",
          "name": "",
          "type": "bytes32"
        }
      ],
      "stateMutability": "view",
      "type": "function"
    },
    {
      "inputs": [
        {
          "internalType": "bytes32",
          "name": "role",
          "type": "bytes32"
        },
        {
          "internalType": "address",
          "name": "account",
          "type": "address"
        }
      ],
      "name": "grantRole",
      "outputs": [],
      "stateMutability": "nonpayable",
      "type": "function"
    },
    {
      "inputs": [
        {
          "internalType": "bytes32",
          "name": "role",
          "type": "bytes32"
        },
        {
          "internalType": "address",
          "name": "account",
          "type": "address"
        }
      ],
      "name": "hasRole",
      "outputs": [
        {
          "internalType": "bool",
          "name": "",
          "type": "bool"
        }
      ],
      "stateMutability": "view",
      "type": "function"
    },
    {
      "inputs": [
        {
          "internalType": "bytes32",
          "name": "role",
          "type": "bytes32"
        },
        {
          "internalType": "address",
          "name": "callerConfirmation",
          "type": "address"
        }
      ],
      "name": "renounceRole",
      "outputs": [],
      "stateMutability": "nonpayable",
      "type": "function"
    },
    {
      "inputs": [
        {
          "internalType": "bytes32",
          "name": "role",
          "type": "bytes32"
        },
        {
          "internalType": "address",
          "name": "account",
          "type": "address"
        }
      ],
      "name": "revokeRole",
      "outputs": [],
      "stateMutability": "nonpayable",
      "type": "function"
    },
    {
      "inputs": [
        {
          "internalType": "bytes4",
          "name": "interfaceId",
          "type": "bytes4"
        }
      ],
      "name": "supportsInterface",
      "outputs": [
        {
          "internalType": "bool",
          "name": "",
          "type": "bool"
        }
      ],
      "stateMutability": "view",
      "type": "function"
    }
  ],
  "bytecode": "0x608060405234801562000010575f80fd5b50604051620101fd380380620101fd833981016040819052620000339162000129565b6200003f5f336200007d565b506200005a5f80516020620101dd833981519152826200007d565b50620000755f80516020620101dd833981519152336200007d565b505062000158565b5f828152602081815260408083206001600160a01b038516845290915281205460ff1662000120575f838152602081815260408083206001600160a01b03861684529091529020805460ff19166001179055620000d73390565b6001600160a01b0316826001600160a01b0316847f2f8788117e7eff1d82e926ec794901d17c78024a50270940304540a733656f0d60405160405180910390a450600162000123565b505f5b92915050565b5f602082840312156200013a575f80fd5b81516001600160a01b038116811462000151575f80fd5b9392505050565b6201007680620001675f395ff3fe6080604052600436106200010f575f3560e01c80638aeda25a116200009e578063a217fddf116200006a578063a217fddf14620002f5578063ac0bdc07146200030a578063bf5064ce146200032e578063d547741f1462000352578063e67d1f711462000376575f80fd5b80638aeda25a14620002735780638c4ae92c14620002965780638fd56c8f14620002ba57806391d1485414620002d1575f80fd5b806336568abe11620000de57806336568abe14620001e35780634298c6031462000207578063834cc6fc146200022b57806384c1eac6146200024f575f80fd5b806301ffc9a714620001135780631002372d146200014c578063248a9ca3146200017c5780632f2ff15d14620001bd575b5f80fd5b3480156200011f575f80fd5b50620001376200013136600462000ca9565b6200038d565b60405190151581526020015b60405180910390f35b34801562000158575f80fd5b5062000163620003c4565b6040516001600160a01b03909116815260200162000143565b34801562000188575f80fd5b50620001ae6200019a36600462000cd9565b5f9081526020819052604090206001015490565b60405190815260200162000143565b348015620001c9575f80fd5b50620001e1620001db36600462000d06565b62000478565b005b348015620001ef575f80fd5b50620001e16200020136600462000d06565b620004a6565b34801562000213575f80fd5b50620001636200022536600462000df2565b620004e1565b34801562000237575f80fd5b50620001636200024936600462000e59565b62000595565b3480156200025b575f80fd5b50620001636200026d36600462000e59565b6200064b565b3480156200027f575f80fd5b50620001ae5f805160206201000183398151915281565b348015620002a2575f80fd5b5062000163620002b436600462000e8a565b62000701565b348015620002c6575f80fd5b5062000163620007bd565b348015620002dd575f80fd5b5062000137620002ef36600462000d06565b62000863565b34801562000301575f80fd5b50620001ae5f81565b34801562000316575f80fd5b50620001636200032836600462000f15565b6200088b565b3480156200033a575f80fd5b50620001636200034c36600462000fe4565b62000938565b3480156200035e575f80fd5b50620001e16200037036600462000d06565b620009f2565b620001636200038736600462001053565b62000a1a565b5f6001600160e01b03198216637965db0b60e01b1480620003be57506301ffc9a760e01b6001600160e01b03198316145b92915050565b5f5f8051602062010001833981519152620003df8162000ad6565b5f33604051620003ef9062000c2b565b6001600160a01b039091168152602001604051809103905ff08015801562000419573d5f803e3d5ffd5b5060408051818152600d918101919091526c25b0b630a5b93aba2a37b5b2b760991b606082015242602082015290915033906001600160a01b038316905f8051602062010021833981519152906080015b60405180910390a391505090565b5f82815260208190526040902060010154620004948162000ad6565b620004a0838362000ae5565b50505050565b6001600160a01b0381163314620004d05760405163334bd91960e11b815260040160405180910390fd5b620004dc828262000b7a565b505050565b5f5f8051602062010001833981519152620004fc8162000ad6565b5f3385856040516200050e9062000c39565b6200051c9392919062001113565b604051809103905ff08015801562000536573d5f803e3d5ffd5b5060408051818152600b918101919091526a12d85b1852dc9d5d13919560aa1b606082015242602082015290915033906001600160a01b038316905f8051602062010021833981519152906080015b60405180910390a3949350505050565b5f5f8051602062010001833981519152620005b08162000ad6565b5f338585604051620005c29062000c47565b6001600160a01b03938416815291831660208301529091166040820152606001604051809103905ff080158015620005fc573d5f803e3d5ffd5b506040805181815260069181019190915265457363726f7760d01b606082015242602082015290915033906001600160a01b038316905f80516020620100218339815191529060800162000585565b5f5f8051602062010001833981519152620006668162000ad6565b5f8484604051620006779062000c55565b6001600160a01b03928316815291166020820152604001604051809103905ff080158015620006a8573d5f803e3d5ffd5b50604080518181526010918101919091526f25b0b630a5b93aba23b7bb32b93737b960811b606082015242602082015290915033906001600160a01b038316905f80516020620100218339815191529060800162000585565b5f5f80516020620100018339815191526200071c8162000ad6565b5f338888888888604051620007319062000c63565b620007429695949392919062001156565b604051809103905ff0801580156200075c573d5f803e3d5ffd5b5060408051818152600e818301526d233930b1ba34b7b730b634bd32b960911b6060820152426020820152905191925033916001600160a01b038416915f8051602062010021833981519152919081900360800190a3979650505050505050565b5f5f8051602062010001833981519152620007d88162000ad6565b5f33604051620007e89062000c71565b6001600160a01b039091168152602001604051809103905ff08015801562000812573d5f803e3d5ffd5b506040805181815260089181019190915267547265617375727960c01b606082015242602082015290915033906001600160a01b038316905f8051602062010021833981519152906080016200046a565b5f918252602082815260408084206001600160a01b0393909316845291905290205460ff1690565b5f5f8051602062010001833981519152620008a68162000ad6565b5f3384604051620008b79062000c7f565b620008c4929190620011ab565b604051809103905ff080158015620008de573d5f803e3d5ffd5b5060408051818152600b818301526a115d995b9d151a58dad95d60aa1b6060820152426020820152905191925033916001600160a01b038416915f8051602062010021833981519152919081900360800190a39392505050565b5f5f8051602062010001833981519152620009538162000ad6565b5f85858533604051620009669062000c8d565b62000975949392919062001215565b604051809103905ff0801580156200098f573d5f803e3d5ffd5b5060408051818152601281830152712a34b6b2b637b1b5a1b7b73a3937b63632b960711b6060820152426020820152905191925033916001600160a01b038416915f8051602062010021833981519152919081900360800190a395945050505050565b5f8281526020819052604090206001015462000a0e8162000ad6565b620004a0838362000b7a565b5f5f805160206201000183398151915262000a358162000ad6565b5f348787878760405162000a499062000c9b565b62000a5894939291906200125d565b6040518091039082f090508015801562000a74573d5f803e3d5ffd5b50604080518181526010818301526f14d95c9d9a58d95059dc99595b595b9d60821b6060820152426020820152905191925033916001600160a01b038416915f8051602062010021833981519152919081900360800190a39695505050505050565b62000ae2813362000be7565b50565b5f62000af2838362000863565b62000b72575f838152602081815260408083206001600160a01b03861684529091529020805460ff1916600117905562000b293390565b6001600160a01b0316826001600160a01b0316847f2f8788117e7eff1d82e926ec794901d17c78024a50270940304540a733656f0d60405160405180910390a4506001620003be565b505f620003be565b5f62000b87838362000863565b1562000b72575f838152602081815260408083206001600160a01b0386168085529252808320805460ff1916905551339286917ff6391f5c32d9c69d2a47ea670b442974b53935d1edc7fd64eb21e047a839171b9190a4506001620003be565b62000bf3828262000863565b62000c275760405163e2517d3f60e01b81526001600160a01b03821660048201526024810183905260440160405180910390fd5b5050565b61239b806200129383390190565b611740806200362e83390190565b6108be8062004d6e83390190565b614e9c806200562c83390190565b610ff3806200a4c883390190565b61034a806200b4bb83390190565b611a6f806200b80583390190565b611d4b806200d27483390190565b611042806200efbf83390190565b5f6020828403121562000cba575f80fd5b81356001600160e01b03198116811462000cd2575f80fd5b9392505050565b5f6020828403121562000cea575f80fd5b5035919050565b6001600160a01b038116811462000ae2575f80fd5b5f806040838503121562000d18575f80fd5b82359150602083013562000d2c8162000cf1565b809150509250929050565b634e487b7160e01b5f52604160045260245ffd5b604051601f8201601f1916810167ffffffffffffffff8111828210171562000d775762000d7762000d37565b604052919050565b5f82601f83011262000d8f575f80fd5b813567ffffffffffffffff81111562000dac5762000dac62000d37565b62000dc1601f8201601f191660200162000d4b565b81815284602083860101111562000dd6575f80fd5b816020850160208301375f918101602001919091529392505050565b5f806040838503121562000e04575f80fd5b823567ffffffffffffffff8082111562000e1c575f80fd5b62000e2a8683870162000d7f565b9350602085013591508082111562000e40575f80fd5b5062000e4f8582860162000d7f565b9150509250929050565b5f806040838503121562000e6b575f80fd5b823562000e788162000cf1565b9150602083013562000d2c8162000cf1565b5f805f805f60a0868803121562000e9f575f80fd5b853567ffffffffffffffff8082111562000eb7575f80fd5b62000ec589838a0162000d7f565b9650602088013591508082111562000edb575f80fd5b5062000eea8882890162000d7f565b945050604086013562000efd8162000cf1565b94979396509394606081013594506080013592915050565b5f6020828403121562000f26575f80fd5b813567ffffffffffffffff81111562000f3d575f80fd5b62000f4b8482850162000d7f565b949350505050565b5f82601f83011262000f63575f80fd5b8135602067ffffffffffffffff82111562000f825762000f8262000d37565b8160051b62000f9382820162000d4b565b928352848101820192828101908785111562000fad575f80fd5b83870192505b8483101562000fd957823562000fc98162000cf1565b8252918301919083019062000fb3565b979650505050505050565b5f805f6060848603121562000ff7575f80fd5b83359250602084013567ffffffffffffffff8082111562001016575f80fd5b620010248783880162000f53565b935060408601359150808211156200103a575f80fd5b50620010498682870162000f53565b9150509250925092565b5f805f806080858703121562001067575f80fd5b8435620010748162000cf1565b93506020850135620010868162000cf1565b92506040850135620010988162000cf1565b9150606085013567ffffffffffffffff811115620010b4575f80fd5b620010c28782880162000d7f565b91505092959194509250565b5f81518084525f5b81811015620010f457602081850181015186830182015201620010d6565b505f602082860101526020601f19601f83011685010191505092915050565b6001600160a01b03841681526060602082018190525f906200113890830185620010ce565b82810360408401526200114c8185620010ce565b9695505050505050565b5f60018060a01b03808916835260c060208401526200117960c0840189620010ce565b83810360408501526200118d8189620010ce565b91909616606084015260808301949094525060a00152949350505050565b6001600160a01b03831681526040602082018190525f9062000f4b90830184620010ce565b5f815180845260208085019450602084015f5b838110156200120a5781516001600160a01b031687529582019590820190600101620011e3565b509495945050505050565b848152608060208201525f6200122f6080830186620011d0565b8281036040840152620012438186620011d0565b91505060018060a01b038316606083015295945050505050565b6001600160a01b0385811682528481166020830152831660408201526080606082018190525f906200114c90830184620010ce56fe61016060405234801562000011575f80fd5b506040516200239b3803806200239b8339810160408190526200003491620002a0565b6040518060400160405280600e81526020016d25b0b630a5b93aba102a37b5b2b760911b81525080604051806040016040528060018152602001603160f81b815250836040518060400160405280600e81526020016d25b0b630a5b93aba102a37b5b2b760911b8152506040518060400160405280600381526020016212d2d560ea1b8152508160039081620000cb91906200036d565b506004620000da82826200036d565b5050506001600160a01b0381166200010c57604051631e4fbdf760e01b81525f60048201526024015b60405180910390fd5b6200011781620001d5565b506200012582600662000226565b610120526200013681600762000226565b61014052815160208084019190912060e052815190820120610100524660a052620001c360e05161010051604080517f8b73c3c69bb8fe3d512ecc4cf759cc79239f7b179b0ffacaa9a75d522b39400f60208201529081019290925260608201524660808201523060a08201525f9060c00160405160208183030381529060405280519060200120905090565b60805250503060c05250620004ab9050565b600580546001600160a01b038381166001600160a01b0319831681179093556040519116919082907f8be0079c531659141344cd1fd0a4f28419497f9722a3daafe3b4186f6b6457e0905f90a35050565b5f60208351101562000245576200023d836200025e565b905062000258565b816200025284826200036d565b5060ff90505b92915050565b5f80829050601f815111156200028b578260405163305a27a960e01b815260040162000103919062000439565b8051620002988262000487565b179392505050565b5f60208284031215620002b1575f80fd5b81516001600160a01b0381168114620002c8575f80fd5b9392505050565b634e487b7160e01b5f52604160045260245ffd5b600181811c90821680620002f857607f821691505b6020821081036200031757634e487b7160e01b5f52602260045260245ffd5b50919050565b601f8211156200036857805f5260205f20601f840160051c81016020851015620003445750805b601f840160051c820191505b8181101562000365575f815560010162000350565b50505b505050565b81516001600160401b03811115620003895762000389620002cf565b620003a1816200039a8454620002e3565b846200031d565b602080601f831160018114620003d7575f8415620003bf5750858301515b5f19600386901b1c1916600185901b17855562000431565b5f85815260208120601f198616915b828110156200040757888601518255948401946001909101908401620003e6565b50858210156200042557878501515f19600388901b60f8161c191681555b505060018460011b0185555b505050505050565b5f602080835283518060208501525f5b81811015620004675785810183015185820160400152820162000449565b505f604082860101526040601f19601f8301168501019250505092915050565b8051602080830151919081101562000317575f1960209190910360031b1b16919050565b60805160a05160c05160e051610100516101205161014051611e9e620004fd5f395f610dd701525f610daa01525f610aea01525f610ac201525f610a1d01525f610a4701525f610a710152611e9e5ff3fe608060405234801561000f575f80fd5b50600436106101a1575f3560e01c8063715018a6116100f35780639ab24eb011610093578063d505accf1161006e578063d505accf146103b2578063dd62ed3e146103c5578063f1127ed8146103fd578063f2fde38b1461043c575f80fd5b80639ab24eb014610379578063a9059cbb1461038c578063c3cda5201461039f575f80fd5b80638da5cb5b116100ce5780638da5cb5b1461032e5780638e539e8c1461033f57806391ddadf41461035257806395d89b4114610371575f80fd5b8063715018a6146102f85780637ecebe001461030057806384b0196e14610313575f80fd5b80633a46b1a81161015e578063587cde1e11610139578063587cde1e146102525780635c19a95c146102955780636fcfff45146102a857806370a08231146102d0575f80fd5b80633a46b1a81461022257806340c10f19146102355780634bf5d7e91461024a575f80fd5b806306fdde03146101a5578063095ea7b3146101c357806318160ddd146101e657806323b872dd146101f8578063313ce5671461020b5780633644e5151461021a575b5f80fd5b6101ad61044f565b6040516101ba9190611ac8565b60405180910390f35b6101d66101d1366004611af5565b6104df565b60405190151581526020016101ba565b6002545b6040519081526020016101ba565b6101d6610206366004611b1d565b6104f8565b604051601281526020016101ba565b6101ea61051b565b6101ea610230366004611af5565b610529565b610248610243366004611af5565b610563565b005b6101ad610579565b61027d610260366004611b56565b6001600160a01b039081165f908152600960205260409020541690565b6040516001600160a01b0390911681526020016101ba565b6102486102a3366004611b56565b6105f1565b6102bb6102b6366004611b56565b6105fc565b60405163ffffffff90911681526020016101ba565b6101ea6102de366004611b56565b6001600160a01b03165f9081526020819052604090205490565b610248610606565b6101ea61030e366004611b56565b610619565b61031b610623565b6040516101ba9796959493929190611b6f565b6005546001600160a01b031661027d565b6101ea61034d366004611c06565b610665565b61035a610689565b60405165ffffffffffff90911681526020016101ba565b6101ad610692565b6101ea610387366004611b56565b6106a1565b6101d661039a366004611af5565b6106c1565b6102486103ad366004611c2d565b6106ce565b6102486103c0366004611c81565b61078f565b6101ea6103d3366004611ce6565b6001600160a01b039182165f90815260016020908152604080832093909416825291909152205490565b61041061040b366004611d17565b6108c5565b60408051825165ffffffffffff1681526020928301516001600160d01b031692810192909252016101ba565b61024861044a366004611b56565b6108e9565b60606003805461045e90611d54565b80601f016020809104026020016040519081016040528092919081815260200182805461048a90611d54565b80156104d55780601f106104ac576101008083540402835291602001916104d5565b820191905f5260205f20905b8154815290600101906020018083116104b857829003601f168201915b5050505050905090565b5f336104ec818585610926565b60019150505b92915050565b5f33610505858285610938565b6105108585856109b4565b506001949350505050565b5f610524610a11565b905090565b5f61055361053683610b3a565b6001600160a01b0385165f908152600a6020526040902090610b88565b6001600160d01b03169392505050565b61056b610c38565b6105758282610c65565b5050565b6060610583610c99565b65ffffffffffff16610593610689565b65ffffffffffff16146105b9576040516301bfc1c560e61b815260040160405180910390fd5b5060408051808201909152601d81527f6d6f64653d626c6f636b6e756d6265722666726f6d3d64656661756c74000000602082015290565b336105758183610ca3565b5f6104f282610d14565b61060e610c38565b6106175f610d35565b565b5f6104f282610d86565b5f6060805f805f6060610634610da3565b61063c610dd0565b604080515f80825260208201909252600f60f81b9b939a50919850469750309650945092509050565b5f61067a61067283610b3a565b600b90610b88565b6001600160d01b031692915050565b5f610524610c99565b60606004805461045e90611d54565b6001600160a01b0381165f908152600a6020526040812061067a90610dfd565b5f336104ec8185856109b4565b834211156106f757604051632341d78760e11b8152600481018590526024015b60405180910390fd5b604080517fe48329057bfd03d55e49b547132e39cffd9c1820ad7b9d4c5307691425d15adf60208201526001600160a01b0388169181019190915260608101869052608081018590525f90610770906107689060a00160405160208183030381529060405280519060200120610e34565b858585610e60565b905061077c8187610e8c565b6107868188610ca3565b50505050505050565b834211156107b35760405163313c898160e11b8152600481018590526024016106ee565b5f7f6e71edae12b1b97f4d1f60370fef10105fa2faae0126114a169c64845d6126c98888886107fe8c6001600160a01b03165f90815260086020526040902080546001810190915590565b6040805160208101969096526001600160a01b0394851690860152929091166060840152608083015260a082015260c0810186905260e0016040516020818303038152906040528051906020012090505f61085882610e34565b90505f61086782878787610e60565b9050896001600160a01b0316816001600160a01b0316146108ae576040516325c0072360e11b81526001600160a01b0380831660048301528b1660248201526044016106ee565b6108b98a8a8a610926565b50505050505050505050565b604080518082019091525f80825260208201526108e28383610ede565b9392505050565b6108f1610c38565b6001600160a01b03811661091a57604051631e4fbdf760e01b81525f60048201526024016106ee565b61092381610d35565b50565b6109338383836001610f12565b505050565b6001600160a01b038381165f908152600160209081526040808320938616835292905220545f198110156109ae57818110156109a057604051637dc7a0d960e11b81526001600160a01b038416600482015260248101829052604481018390526064016106ee565b6109ae84848484035f610f12565b50505050565b6001600160a01b0383166109dd57604051634b637e8f60e11b81525f60048201526024016106ee565b6001600160a01b038216610a065760405163ec442f0560e01b81525f60048201526024016106ee565b610933838383610fe4565b5f306001600160a01b037f000000000000000000000000000000000000000000000000000000000000000016148015610a6957507f000000000000000000000000000000000000000000000000000000000000000046145b15610a9357507f000000000000000000000000000000000000000000000000000000000000000090565b610524604080517f8b73c3c69bb8fe3d512ecc4cf759cc79239f7b179b0ffacaa9a75d522b39400f60208201527f0000000000000000000000000000000000000000000000000000000000000000918101919091527f000000000000000000000000000000000000000000000000000000000000000060608201524660808201523060a08201525f9060c00160405160208183030381529060405280519060200120905090565b5f80610b44610689565b90508065ffffffffffff168310610b7f57604051637669fc0f60e11b81526004810184905265ffffffffffff821660248201526044016106ee565b6108e283610fef565b81545f9081816005811115610be4575f610ba184611025565b610bab9085611da0565b5f8881526020902090915081015465ffffffffffff9081169087161015610bd457809150610be2565b610bdf816001611db3565b92505b505b5f610bf18787858561117d565b90508015610c2b57610c1587610c08600184611da0565b5f91825260209091200190565b54600160301b90046001600160d01b0316610c2d565b5f5b979650505050505050565b6005546001600160a01b031633146106175760405163118cdaa760e01b81523360048201526024016106ee565b6001600160a01b038216610c8e5760405163ec442f0560e01b81525f60048201526024016106ee565b6105755f8383610fe4565b5f61052443610fef565b6001600160a01b038281165f8181526009602052604080822080548686166001600160a01b0319821681179092559151919094169392849290917f3134e8a2e6d97e929a7e54011ea5485d7d196dd5f0ba4d4ef95803e8e3fc257f9190a46109338183610d0f866111dc565b6111f9565b6001600160a01b0381165f908152600a60205260408120546104f290611362565b600580546001600160a01b038381166001600160a01b0319831681179093556040519116919082907f8be0079c531659141344cd1fd0a4f28419497f9722a3daafe3b4186f6b6457e0905f90a35050565b6001600160a01b0381165f908152600860205260408120546104f2565b60606105247f00000000000000000000000000000000000000000000000000000000000000006006611392565b60606105247f00000000000000000000000000000000000000000000000000000000000000006007611392565b80545f908015610e2c57610e1683610c08600184611da0565b54600160301b90046001600160d01b03166108e2565b5f9392505050565b5f6104f2610e40610a11565b8360405161190160f01b8152600281019290925260228201526042902090565b5f805f80610e708888888861143b565b925092509250610e808282611503565b50909695505050505050565b6001600160a01b0382165f908152600860205260409020805460018101909155818114610933576040516301d4b62360e61b81526001600160a01b0384166004820152602481018290526044016106ee565b604080518082019091525f80825260208201526001600160a01b0383165f908152600a602052604090206108e290836115bb565b6001600160a01b038416610f3b5760405163e602df0560e01b81525f60048201526024016106ee565b6001600160a01b038316610f6457604051634a1406b160e11b81525f60048201526024016106ee565b6001600160a01b038085165f90815260016020908152604080832093871683529290522082905580156109ae57826001600160a01b0316846001600160a01b03167f8c5be1e5ebec7d5bd14f71427d1e84f3dd0314c0f7b2291e5b200ac8c7c3b92584604051610fd691815260200190565b60405180910390a350505050565b610933838383611628565b5f65ffffffffffff821115611021576040516306dfcc6560e41b815260306004820152602481018390526044016106ee565b5090565b5f60018211611032575090565b816001600160801b821061104b5760809190911c9060401b5b6801000000000000000082106110665760409190911c9060201b5b640100000000821061107d5760209190911c9060101b5b6201000082106110925760109190911c9060081b5b61010082106110a65760089190911c9060041b5b601082106110b95760049190911c9060021b5b600482106110c55760011b5b600302600190811c908185816110dd576110dd611dc6565b048201901c905060018185816110f5576110f5611dc6565b048201901c9050600181858161110d5761110d611dc6565b048201901c9050600181858161112557611125611dc6565b048201901c9050600181858161113d5761113d611dc6565b048201901c9050600181858161115557611155611dc6565b048201901c905061117481858161116e5761116e611dc6565b04821190565b90039392505050565b5f5b818310156111d4575f611192848461168e565b5f8781526020902090915065ffffffffffff86169082015465ffffffffffff1611156111c0578092506111ce565b6111cb816001611db3565b93505b5061117f565b509392505050565b6001600160a01b0381165f908152602081905260408120546104f2565b816001600160a01b0316836001600160a01b03161415801561121a57505f81115b15610933576001600160a01b038316156112c1576001600160a01b0383165f908152600a60205260408120819061125c906116a8611257866116b3565b6116e6565b6001600160d01b031691506001600160d01b03169150846001600160a01b03167fdec2bacdd2f05b59de34da9b523dff8be42e5e38e818c82fdb0bae774387a72483836040516112b6929190918252602082015260400190565b60405180910390a250505b6001600160a01b03821615610933576001600160a01b0382165f908152600a6020526040812081906112f99061171e611257866116b3565b6001600160d01b031691506001600160d01b03169150836001600160a01b03167fdec2bacdd2f05b59de34da9b523dff8be42e5e38e818c82fdb0bae774387a7248383604051611353929190918252602082015260400190565b60405180910390a25050505050565b5f63ffffffff821115611021576040516306dfcc6560e41b815260206004820152602481018390526044016106ee565b606060ff83146113ac576113a583611729565b90506104f2565b8180546113b890611d54565b80601f01602080910402602001604051908101604052809291908181526020018280546113e490611d54565b801561142f5780601f106114065761010080835404028352916020019161142f565b820191905f5260205f20905b81548152906001019060200180831161141257829003601f168201915b505050505090506104f2565b5f80807f7fffffffffffffffffffffffffffffff5d576e7357a4501ddfe92f46681b20a084111561147457505f915060039050826114f9565b604080515f808252602082018084528a905260ff891692820192909252606081018790526080810186905260019060a0016020604051602081039080840390855afa1580156114c5573d5f803e3d5ffd5b5050604051601f1901519150506001600160a01b0381166114f057505f9250600191508290506114f9565b92505f91508190505b9450945094915050565b5f82600381111561151657611516611dda565b0361151f575050565b600182600381111561153357611533611dda565b036115515760405163f645eedf60e01b815260040160405180910390fd5b600282600381111561156557611565611dda565b036115865760405163fce698f760e01b8152600481018290526024016106ee565b600382600381111561159a5761159a611dda565b03610575576040516335e2f38360e21b8152600481018290526024016106ee565b604080518082019091525f8082526020820152825f018263ffffffff16815481106115e8576115e8611dee565b5f9182526020918290206040805180820190915291015465ffffffffffff81168252600160301b90046001600160d01b0316918101919091529392505050565b611633838383611766565b6001600160a01b038316611683575f61164b60025490565b90506001600160d01b038082111561168057604051630e58ae9360e11b815260048101839052602481018290526044016106ee565b50505b61093383838361188c565b5f61169c6002848418611e02565b6108e290848416611db3565b5f6108e28284611e21565b5f6001600160d01b03821115611021576040516306dfcc6560e41b815260d06004820152602481018390526044016106ee565b5f806117116116f3610689565b6117096116ff88610dfd565b868863ffffffff16565b879190611901565b915091505b935093915050565b5f6108e28284611e48565b60605f6117358361190e565b6040805160208082528183019092529192505f91906020820181803683375050509182525060208101929092525090565b6001600160a01b038316611790578060025f8282546117859190611db3565b909155506118009050565b6001600160a01b0383165f90815260208190526040902054818110156117e25760405163391434e360e21b81526001600160a01b038516600482015260248101829052604481018390526064016106ee565b6001600160a01b0384165f9081526020819052604090209082900390555b6001600160a01b03821661181c5760028054829003905561183a565b6001600160a01b0382165f9081526020819052604090208054820190555b816001600160a01b0316836001600160a01b03167fddf252ad1be2c89b69c2b068fc378daa952ba7f163c4a11628f55a4df523b3ef8360405161187f91815260200190565b60405180910390a3505050565b6001600160a01b0383166118ae576118ab600b61171e611257846116b3565b50505b6001600160a01b0382166118d0576118cd600b6116a8611257846116b3565b50505b6001600160a01b038381165f90815260096020526040808220548584168352912054610933929182169116836111f9565b5f80611711858585611935565b5f60ff8216601f8111156104f257604051632cd44ac360e21b815260040160405180910390fd5b82545f9081908015611a2b575f61195187610c08600185611da0565b805490915065ffffffffffff80821691600160301b90046001600160d01b031690881682111561199457604051632520601d60e01b815260040160405180910390fd5b8765ffffffffffff168265ffffffffffff16036119cd57825465ffffffffffff16600160301b6001600160d01b03891602178355611a1d565b6040805180820190915265ffffffffffff808a1682526001600160d01b03808a1660208085019182528d54600181018f555f8f81529190912094519151909216600160301b029216919091179101555b945085935061171692505050565b50506040805180820190915265ffffffffffff80851682526001600160d01b0380851660208085019182528854600181018a555f8a815291822095519251909316600160301b029190931617920191909155905081611716565b5f81518084525f5b81811015611aa957602081850181015186830182015201611a8d565b505f602082860101526020601f19601f83011685010191505092915050565b602081525f6108e26020830184611a85565b80356001600160a01b0381168114611af0575f80fd5b919050565b5f8060408385031215611b06575f80fd5b611b0f83611ada565b946020939093013593505050565b5f805f60608486031215611b2f575f80fd5b611b3884611ada565b9250611b4660208501611ada565b9150604084013590509250925092565b5f60208284031215611b66575f80fd5b6108e282611ada565b60ff60f81b881681525f602060e06020840152611b8f60e084018a611a85565b8381036040850152611ba1818a611a85565b606085018990526001600160a01b038816608086015260a0850187905284810360c0860152855180825260208088019350909101905f5b81811015611bf457835183529284019291840191600101611bd8565b50909c9b505050505050505050505050565b5f60208284031215611c16575f80fd5b5035919050565b803560ff81168114611af0575f80fd5b5f805f805f8060c08789031215611c42575f80fd5b611c4b87611ada565b95506020870135945060408701359350611c6760608801611c1d565b92506080870135915060a087013590509295509295509295565b5f805f805f805f60e0888a031215611c97575f80fd5b611ca088611ada565b9650611cae60208901611ada565b95506040880135945060608801359350611cca60808901611c1d565b925060a0880135915060c0880135905092959891949750929550565b5f8060408385031215611cf7575f80fd5b611d0083611ada565b9150611d0e60208401611ada565b90509250929050565b5f8060408385031215611d28575f80fd5b611d3183611ada565b9150602083013563ffffffff81168114611d49575f80fd5b809150509250929050565b600181811c90821680611d6857607f821691505b602082108103611d8657634e487b7160e01b5f52602260045260245ffd5b50919050565b634e487b7160e01b5f52601160045260245ffd5b818103818111156104f2576104f2611d8c565b808201808211156104f2576104f2611d8c565b634e487b7160e01b5f52601260045260245ffd5b634e487b7160e01b5f52602160045260245ffd5b634e487b7160e01b5f52603260045260245ffd5b5f82611e1c57634e487b7160e01b5f52601260045260245ffd5b500490565b6001600160d01b03828116828216039080821115611e4157611e41611d8c565b5092915050565b6001600160d01b03818116838216019080821115611e4157611e41611d8c56fea2646970667358221220c6ad0cc4ade1c330e0d8795824da53d3b8bddec827a27bc67ec4dac6a97fa2ce64736f6c63430008180033608060405234801562000010575f80fd5b5060405162001740380380620017408339810160408190526200003391620001aa565b8282825f620000438382620002b8565b506001620000528282620002b8565b5050506001600160a01b0381166200008357604051631e4fbdf760e01b81525f600482015260240160405180910390fd5b6200008e8162000098565b5050505062000384565b600780546001600160a01b038381166001600160a01b0319831681179093556040519116919082907f8be0079c531659141344cd1fd0a4f28419497f9722a3daafe3b4186f6b6457e0905f90a35050565b634e487b7160e01b5f52604160045260245ffd5b5f82601f8301126200010d575f80fd5b81516001600160401b03808211156200012a576200012a620000e9565b604051601f8301601f19908116603f01168101908282118183101715620001555762000155620000e9565b816040528381526020925086602085880101111562000172575f80fd5b5f91505b8382101562000195578582018301518183018401529082019062000176565b5f602085830101528094505050505092915050565b5f805f60608486031215620001bd575f80fd5b83516001600160a01b0381168114620001d4575f80fd5b60208501519093506001600160401b0380821115620001f1575f80fd5b620001ff87838801620000fd565b9350604086015191508082111562000215575f80fd5b506200022486828701620000fd565b9150509250925092565b600181811c908216806200024357607f821691505b6020821081036200026257634e487b7160e01b5f52602260045260245ffd5b50919050565b601f821115620002b357805f5260205f20601f840160051c810160208510156200028f5750805b601f840160051c820191505b81811015620002b0575f81556001016200029b565b50505b505050565b81516001600160401b03811115620002d457620002d4620000e9565b620002ec81620002e584546200022e565b8462000268565b602080601f83116001811462000322575f84156200030a5750858301515b5f19600386901b1c1916600185901b1785556200037c565b5f85815260208120601f198616915b82811015620003525788860151825594840194600190910190840162000331565b50858210156200037057878501515f19600388901b60f8161c191681555b505060018460011b0185555b505050505050565b6113ae80620003925f395ff3fe608060405234801561000f575f80fd5b5060043610610106575f3560e01c8063715018a61161009e578063b88d4fde1161006e578063b88d4fde14610215578063c87b56dd14610228578063d204c45e1461023b578063e985e9c51461024e578063f2fde38b14610261575f80fd5b8063715018a6146101e15780638da5cb5b146101e957806395d89b41146101fa578063a22cb46514610202575f80fd5b806323b872dd116100d957806323b872dd1461018757806342842e0e1461019a5780636352211e146101ad57806370a08231146101c0575f80fd5b806301ffc9a71461010a57806306fdde0314610132578063081812fc14610147578063095ea7b314610172575b5f80fd5b61011d610118366004610eab565b610274565b60405190151581526020015b60405180910390f35b61013a61029e565b6040516101299190610f13565b61015a610155366004610f25565b61032d565b6040516001600160a01b039091168152602001610129565b610185610180366004610f57565b610354565b005b610185610195366004610f7f565b610363565b6101856101a8366004610f7f565b6103f1565b61015a6101bb366004610f25565b610410565b6101d36101ce366004610fb8565b61041a565b604051908152602001610129565b61018561045f565b6007546001600160a01b031661015a565b61013a610472565b610185610210366004610fd1565b610481565b610185610223366004611091565b61048c565b61013a610236366004610f25565b6104a4565b610185610249366004611108565b6105af565b61011d61025c366004611166565b6105e1565b61018561026f366004610fb8565b61060e565b5f6001600160e01b03198216632483248360e11b148061029857506102988261064b565b92915050565b60605f80546102ac90611197565b80601f01602080910402602001604051908101604052809291908181526020018280546102d890611197565b80156103235780601f106102fa57610100808354040283529160200191610323565b820191905f5260205f20905b81548152906001019060200180831161030657829003601f168201915b5050505050905090565b5f6103378261069a565b505f828152600460205260409020546001600160a01b0316610298565b61035f8282336106d2565b5050565b6001600160a01b03821661039157604051633250574960e11b81525f60048201526024015b60405180910390fd5b5f61039d8383336106df565b9050836001600160a01b0316816001600160a01b0316146103eb576040516364283d7b60e01b81526001600160a01b0380861660048301526024820184905282166044820152606401610388565b50505050565b61040b83838360405180602001604052805f81525061048c565b505050565b5f6102988261069a565b5f6001600160a01b038216610444576040516322718ad960e21b81525f6004820152602401610388565b506001600160a01b03165f9081526003602052604090205490565b6104676107d1565b6104705f6107fe565b565b6060600180546102ac90611197565b61035f33838361084f565b610497848484610363565b6103eb33858585856108ed565b60606104af8261069a565b505f82815260066020526040812080546104c890611197565b80601f01602080910402602001604051908101604052809291908181526020018280546104f490611197565b801561053f5780601f106105165761010080835404028352916020019161053f565b820191905f5260205f20905b81548152906001019060200180831161052257829003601f168201915b505050505090505f61055b60408051602081019091525f815290565b905080515f0361056c575092915050565b81511561059e5780826040516020016105869291906111cf565b60405160208183030381529060405292505050919050565b6105a784610a15565b949350505050565b6105b76107d1565b600880545f91826105c7836111fd565b9190505590506105d78382610a86565b61040b8183610a9f565b6001600160a01b039182165f90815260056020908152604080832093909416825291909152205460ff1690565b6106166107d1565b6001600160a01b03811661063f57604051631e4fbdf760e01b81525f6004820152602401610388565b610648816107fe565b50565b5f6001600160e01b031982166380ac58cd60e01b148061067b57506001600160e01b03198216635b5e139f60e01b145b8061029857506301ffc9a760e01b6001600160e01b0319831614610298565b5f818152600260205260408120546001600160a01b03168061029857604051637e27328960e01b815260048101849052602401610388565b61040b8383836001610aee565b5f828152600260205260408120546001600160a01b039081169083161561070b5761070b818486610bf2565b6001600160a01b03811615610745576107265f855f80610aee565b6001600160a01b0381165f90815260036020526040902080545f190190555b6001600160a01b03851615610773576001600160a01b0385165f908152600360205260409020805460010190555b5f8481526002602052604080822080546001600160a01b0319166001600160a01b0389811691821790925591518793918516917fddf252ad1be2c89b69c2b068fc378daa952ba7f163c4a11628f55a4df523b3ef91a4949350505050565b6007546001600160a01b031633146104705760405163118cdaa760e01b8152336004820152602401610388565b600780546001600160a01b038381166001600160a01b0319831681179093556040519116919082907f8be0079c531659141344cd1fd0a4f28419497f9722a3daafe3b4186f6b6457e0905f90a35050565b6001600160a01b03821661088157604051630b61174360e31b81526001600160a01b0383166004820152602401610388565b6001600160a01b038381165f81815260056020908152604080832094871680845294825291829020805460ff191686151590811790915591519182527f17307eab39ab6107e8899845ad3d59bd9653f200f220920489ca2b5937696c31910160405180910390a3505050565b6001600160a01b0383163b15610a0e57604051630a85bd0160e11b81526001600160a01b0384169063150b7a029061092f908890889087908790600401611221565b6020604051808303815f875af1925050508015610969575060408051601f3d908101601f191682019092526109669181019061125d565b60015b6109d0573d808015610996576040519150601f19603f3d011682016040523d82523d5f602084013e61099b565b606091505b5080515f036109c857604051633250574960e11b81526001600160a01b0385166004820152602401610388565b805160208201fd5b6001600160e01b03198116630a85bd0160e11b14610a0c57604051633250574960e11b81526001600160a01b0385166004820152602401610388565b505b5050505050565b6060610a208261069a565b505f610a3660408051602081019091525f815290565b90505f815111610a545760405180602001604052805f815250610a7f565b80610a5e84610c56565b604051602001610a6f9291906111cf565b6040516020818303038152906040525b9392505050565b61035f828260405180602001604052805f815250610ce6565b5f828152600660205260409020610ab682826112bc565b506040518281527ff8e1a15aba9398e019f0b49df1a4fde98ee17ae345cb5f6b5e2c27f5033e8ce79060200160405180910390a15050565b8080610b0257506001600160a01b03821615155b15610bc3575f610b118461069a565b90506001600160a01b03831615801590610b3d5750826001600160a01b0316816001600160a01b031614155b8015610b505750610b4e81846105e1565b155b15610b795760405163a9fbf51f60e01b81526001600160a01b0384166004820152602401610388565b8115610bc15783856001600160a01b0316826001600160a01b03167f8c5be1e5ebec7d5bd14f71427d1e84f3dd0314c0f7b2291e5b200ac8c7c3b92560405160405180910390a45b505b50505f90815260046020526040902080546001600160a01b0319166001600160a01b0392909216919091179055565b610bfd838383610cfd565b61040b576001600160a01b038316610c2b57604051637e27328960e01b815260048101829052602401610388565b60405163177e802f60e01b81526001600160a01b038316600482015260248101829052604401610388565b60605f610c6283610d5e565b60010190505f8167ffffffffffffffff811115610c8157610c8161100a565b6040519080825280601f01601f191660200182016040528015610cab576020820181803683370190505b5090508181016020015b5f19016f181899199a1a9b1b9c1cb0b131b232b360811b600a86061a8153600a8504945084610cb557509392505050565b610cf08383610e35565b61040b335f8585856108ed565b5f6001600160a01b038316158015906105a75750826001600160a01b0316846001600160a01b03161480610d365750610d3684846105e1565b806105a75750505f908152600460205260409020546001600160a01b03908116911614919050565b5f8072184f03e93ff9f4daa797ed6e38ed64bf6a1f0160401b8310610d9c5772184f03e93ff9f4daa797ed6e38ed64bf6a1f0160401b830492506040015b6d04ee2d6d415b85acef81000000008310610dc8576d04ee2d6d415b85acef8100000000830492506020015b662386f26fc100008310610de657662386f26fc10000830492506010015b6305f5e1008310610dfe576305f5e100830492506008015b6127108310610e1257612710830492506004015b60648310610e24576064830492506002015b600a83106102985760010192915050565b6001600160a01b038216610e5e57604051633250574960e11b81525f6004820152602401610388565b5f610e6a83835f6106df565b90506001600160a01b0381161561040b576040516339e3563760e11b81525f6004820152602401610388565b6001600160e01b031981168114610648575f80fd5b5f60208284031215610ebb575f80fd5b8135610a7f81610e96565b5f5b83811015610ee0578181015183820152602001610ec8565b50505f910152565b5f8151808452610eff816020860160208601610ec6565b601f01601f19169290920160200192915050565b602081525f610a7f6020830184610ee8565b5f60208284031215610f35575f80fd5b5035919050565b80356001600160a01b0381168114610f52575f80fd5b919050565b5f8060408385031215610f68575f80fd5b610f7183610f3c565b946020939093013593505050565b5f805f60608486031215610f91575f80fd5b610f9a84610f3c565b9250610fa860208501610f3c565b9150604084013590509250925092565b5f60208284031215610fc8575f80fd5b610a7f82610f3c565b5f8060408385031215610fe2575f80fd5b610feb83610f3c565b915060208301358015158114610fff575f80fd5b809150509250929050565b634e487b7160e01b5f52604160045260245ffd5b5f67ffffffffffffffff808411156110385761103861100a565b604051601f8501601f19908116603f011681019082821181831017156110605761106061100a565b81604052809350858152868686011115611078575f80fd5b858560208301375f602087830101525050509392505050565b5f805f80608085870312156110a4575f80fd5b6110ad85610f3c565b93506110bb60208601610f3c565b925060408501359150606085013567ffffffffffffffff8111156110dd575f80fd5b8501601f810187136110ed575f80fd5b6110fc8782356020840161101e565b91505092959194509250565b5f8060408385031215611119575f80fd5b61112283610f3c565b9150602083013567ffffffffffffffff81111561113d575f80fd5b8301601f8101851361114d575f80fd5b61115c8582356020840161101e565b9150509250929050565b5f8060408385031215611177575f80fd5b61118083610f3c565b915061118e60208401610f3c565b90509250929050565b600181811c908216806111ab57607f821691505b6020821081036111c957634e487b7160e01b5f52602260045260245ffd5b50919050565b5f83516111e0818460208801610ec6565b8351908301906111f4818360208801610ec6565b01949350505050565b5f6001820161121a57634e487b7160e01b5f52601160045260245ffd5b5060010190565b6001600160a01b03858116825284166020820152604081018390526080606082018190525f9061125390830184610ee8565b9695505050505050565b5f6020828403121561126d575f80fd5b8151610a7f81610e96565b601f82111561040b57805f5260205f20601f840160051c8101602085101561129d5750805b601f840160051c820191505b81811015610a0e575f81556001016112a9565b815167ffffffffffffffff8111156112d6576112d661100a565b6112ea816112e48454611197565b84611278565b602080601f83116001811461131d575f84156113065750858301515b5f19600386901b1c1916600185901b178555610a0c565b5f85815260208120601f198616915b8281101561134b5788860151825594840194600190910190840161132c565b508582101561136857878501515f19600388901b60f8161c191681555b5050505050600190811b0190555056fea26469706673582212206d7ccd683820fd7be60e7748dd1b82c7162ea162ba3db37c8c2728f83ecec93964736f6c63430008180033608060405234801561000f575f80fd5b506040516108be3803806108be83398101604081905261002e91610110565b806001600160a01b03811661005c57604051631e4fbdf760e01b81525f600482015260240160405180910390fd5b610065816100a6565b505060018055600280546001600160a01b039384166001600160a01b031991821617909155600380549290931691161790556005805460ff19169055610150565b5f80546001600160a01b038381166001600160a01b0319831681178455604051919092169283917f8be0079c531659141344cd1fd0a4f28419497f9722a3daafe3b4186f6b6457e09190a35050565b80516001600160a01b038116811461010b575f80fd5b919050565b5f805f60608486031215610122575f80fd5b61012b846100f5565b9250610139602085016100f5565b9150610147604085016100f5565b90509250925092565b6107618061015d5f395ff3fe60806040526004361061008f575f3560e01c8063aa8c217c11610057578063aa8c217c1461013f578063ae90b21314610162578063d0e30db014610181578063ea8a1af014610189578063f2fde38b1461019d575f80fd5b80630c3f6acf14610093578063123119cd146100c2578063715018a6146100f957806386d1a69f1461010f5780638da5cb5b14610123575b5f80fd5b34801561009e575f80fd5b506005546100ac9060ff1681565b6040516100b99190610693565b60405180910390f35b3480156100cd575f80fd5b506002546100e1906001600160a01b031681565b6040516001600160a01b0390911681526020016100b9565b348015610104575f80fd5b5061010d6101bc565b005b34801561011a575f80fd5b5061010d6101cf565b34801561012e575f80fd5b505f546001600160a01b03166100e1565b34801561014a575f80fd5b5061015460045481565b6040519081526020016100b9565b34801561016d575f80fd5b506003546100e1906001600160a01b031681565b61010d610365565b348015610194575f80fd5b5061010d610433565b3480156101a8575f80fd5b5061010d6101b73660046106b9565b61059d565b6101c46105da565b6101cd5f610606565b565b6002546001600160a01b031633146102025760405162461bcd60e51b81526004016101f9906106e6565b60405180910390fd5b61020a610655565b600160055460ff1660038111156102235761022361067f565b1461027e5760405162461bcd60e51b815260206004820152602560248201527f43616e6e6f742072656c656173652066756e647320696e2063757272656e7420604482015264737461746560d81b60648201526084016101f9565b6005805460ff191660021790556003546004546040515f926001600160a01b031691908381818185875af1925050503d805f81146102d7576040519150601f19603f3d011682016040523d82523d5f602084013e6102dc565b606091505b50509050806103205760405162461bcd60e51b815260206004820152601060248201526f2a3930b739b332b9103330b4b632b21760811b60448201526064016101f9565b7ffb81f9b30d73d830c3544b34d827c08142579ee75710b490bab0b3995468c56560045460405161035391815260200190565b60405180910390a1506101cd60018055565b6002546001600160a01b0316331461038f5760405162461bcd60e51b81526004016101f9906106e6565b5f60055460ff1660038111156103a7576103a761067f565b146103eb5760405162461bcd60e51b81526020600482015260146024820152734465706f73697420616c7265616479206d61646560601b60448201526064016101f9565b3460048190556005805460ff191660011790556040519081527f2a89b2e3d580398d6dc2db5e0f336b52602bbaa51afa9bb5cdf59239cf0d2bea9060200160405180910390a1565b6002546001600160a01b0316331461045d5760405162461bcd60e51b81526004016101f9906106e6565b610465610655565b600160055460ff16600381111561047e5761047e61067f565b146104cb5760405162461bcd60e51b815260206004820152601e60248201527f43616e6e6f742063616e63656c20696e2063757272656e74207374617465000060448201526064016101f9565b6005805460ff191660031790556002546004546040515f926001600160a01b031691908381818185875af1925050503d805f8114610524576040519150601f19603f3d011682016040523d82523d5f602084013e610529565b606091505b505090508061056b5760405162461bcd60e51b815260206004820152600e60248201526d2932b33ab732103330b4b632b21760911b60448201526064016101f9565b6040517f63b958841f79ab97cb5456da181454b9932c0e15a3b17f1cbd27e2a8bc610437905f90a1506101cd60018055565b6105a56105da565b6001600160a01b0381166105ce57604051631e4fbdf760e01b81525f60048201526024016101f9565b6105d781610606565b50565b5f546001600160a01b031633146101cd5760405163118cdaa760e01b81523360048201526024016101f9565b5f80546001600160a01b038381166001600160a01b0319831681178455604051919092169283917f8be0079c531659141344cd1fd0a4f28419497f9722a3daafe3b4186f6b6457e09190a35050565b60026001540361067857604051633ee5aeb560e01b815260040160405180910390fd5b6002600155565b634e487b7160e01b5f52602160045260245ffd5b60208101600483106106b357634e487b7160e01b5f52602160045260245ffd5b91905290565b5f602082840312156106c9575f80fd5b81356001600160a01b03811681146106df575f80fd5b9392505050565b60208082526025908201527f4f6e6c79207468652070617965722063616e2063616c6c20746869732066756e60408201526431ba34b7b760d91b60608201526080019056fea2646970667358221220af0ea40baeafa85330f1aed8def63b808c335bc3cf7e79ab924bb3d9f92f7ebd64736f6c6343000818003361018060405234801562000011575f80fd5b5060405162004e9c38038062004e9c833981016040819052620000349162000796565b600482825f619d8060646040518060400160405280601081526020016f25b0b630a5b93aba23b7bb32b93737b960811b81525080620000786200019360201b60201c565b62000084825f620001ae565b6101205262000095816001620001ae565b61014052815160208084019190912060e052815190820120610100524660a0526200012260e05161010051604080517f8b73c3c69bb8fe3d512ecc4cf759cc79239f7b179b0ffacaa9a75d522b39400f60208201529081019290925260608201524660808201523060a08201525f9060c00160405160208183030381529060405280519060200120905090565b60805250503060c052600362000139828262000871565b5062000147905083620001e6565b62000152826200024c565b6200015d81620002f1565b50505062000171816200033260201b60201c565b506001600160a01b0316610160526200018a81620003ba565b505050620009f6565b6040805180820190915260018152603160f81b602082015290565b5f602083511015620001cd57620001c58362000459565b9050620001e0565b81620001da848262000871565b5060ff90505b92915050565b6008546040805165ffffffffffff928316815291831660208301527fc565b045403dc03c2eea82b81a0465edad9e2e7fc4d97e11421c209da93d7a93910160405180910390a16008805465ffffffffffff191665ffffffffffff92909216919091179055565b8063ffffffff165f036200027a5760405163f1cfbf0560e01b81525f60048201526024015b60405180910390fd5b6008546040805163ffffffff66010000000000009093048316815291831660208301527f7e3f7f0708a84de9203036abaa450dccc85ad5ff52f78c170f3edb55cf5e8828910160405180910390a16008805463ffffffff90921666010000000000000263ffffffff60301b19909216919091179055565b60075460408051918252602082018390527fccb45da8d5717e6c4544694297c4ba5cf151d455c9bb0ed4fc7a38411bc05461910160405180910390a1600755565b600854604080516001600160a01b036a01000000000000000000009093048316815291831660208301527f08f74ea46ef7894f65eabfb5e6e695de773a000b47c529ab559178069b226401910160405180910390a1600880546001600160a01b039092166a010000000000000000000002600160501b600160f01b0319909216919091179055565b606480821115620003e95760405163243e544560e01b8152600481018390526024810182905260440162000271565b5f620003f46200049b565b90506200041962000404620004b6565b6200040f8562000537565b600a919062000570565b505060408051828152602081018590527f0553476bf02ef2726e8ce5ced78d63e26e602e4a2257b1f559418e24b4633997910160405180910390a1505050565b5f80829050601f8151111562000486578260405163305a27a960e01b81526004016200027191906200093d565b805162000493826200098b565b179392505050565b5f620004a8600a6200058c565b6001600160d01b0316905090565b5f620004c26101605190565b6001600160a01b03166391ddadf46040518163ffffffff1660e01b8152600401602060405180830381865afa9250505080156200051e575060408051601f3d908101601f191682019092526200051b91810190620009af565b60015b62000532576200052d620005d9565b905090565b919050565b5f6001600160d01b038211156200056c576040516306dfcc6560e41b815260d060048201526024810183905260440162000271565b5090565b5f806200057f858585620005e5565b915091505b935093915050565b80545f908015620005d057620005b683620005a9600184620009d6565b5f91825260209091200190565b54660100000000000090046001600160d01b0316620005d2565b5f5b9392505050565b5f6200052d436200074a565b82545f9081908015620006ec575f6200060587620005a9600185620009d6565b805490915065ffffffffffff80821691660100000000000090046001600160d01b03169088168211156200064c57604051632520601d60e01b815260040160405180910390fd5b8765ffffffffffff168265ffffffffffff16036200068a57825465ffffffffffff1666010000000000006001600160d01b03891602178355620006dd565b6040805180820190915265ffffffffffff808a1682526001600160d01b03808a1660208085019182528d54600181018f555f8f815291909120945191519092166601000000000000029216919091179101555b94508593506200058492505050565b50506040805180820190915265ffffffffffff80851682526001600160d01b0380851660208085019182528854600181018a555f8a815291822095519251909316660100000000000002919093161792019190915590508162000584565b5f65ffffffffffff8211156200056c576040516306dfcc6560e41b8152603060048201526024810183905260440162000271565b6001600160a01b038116811462000793575f80fd5b50565b5f8060408385031215620007a8575f80fd5b8251620007b5816200077e565b6020840151909250620007c8816200077e565b809150509250929050565b634e487b7160e01b5f52604160045260245ffd5b600181811c90821680620007fc57607f821691505b6020821081036200081b57634e487b7160e01b5f52602260045260245ffd5b50919050565b601f8211156200086c57805f5260205f20601f840160051c81016020851015620008485750805b601f840160051c820191505b8181101562000869575f815560010162000854565b50505b505050565b81516001600160401b038111156200088d576200088d620007d3565b620008a5816200089e8454620007e7565b8462000821565b602080601f831160018114620008db575f8415620008c35750858301515b5f19600386901b1c1916600185901b17855562000935565b5f85815260208120601f198616915b828110156200090b57888601518255948401946001909101908401620008ea565b50858210156200092957878501515f19600388901b60f8161c191681555b505060018460011b0185555b505050505050565b5f602080835283518060208501525f5b818110156200096b578581018301518582016040015282016200094d565b505f604082860101526040601f19601f8301168501019250505092915050565b805160208083015191908110156200081b575f1960209190910360031b1b16919050565b5f60208284031215620009c0575f80fd5b815165ffffffffffff81168114620005d2575f80fd5b81810381811115620001e057634e487b7160e01b5f52601160045260245ffd5b60805160a05160c05160e0516101005161012051610140516101605161442e62000a6e5f395f81816109c801528181610e330152818161115701528181611bae0152611e2e01525f611af201525f611ac601525f612d7a01525f612d5201525f612cad01525f612cd701525f612d01015261442e5ff3fe6080604052600436106102a8575f3560e01c80637ecebe001161016f578063bc197c81116100d8578063deaaa7cc11610092578063ece40cc11161006d578063ece40cc11461095d578063f23a6e611461097c578063f8ce560a1461099b578063fc0c546a146109ba575f80fd5b8063deaaa7cc146108ec578063e540d01d1461091f578063eb9019d41461093e575f80fd5b8063bc197c8114610813578063c01f9e3714610832578063c28bc2fa14610851578063c59057e414610864578063d33219b414610883578063dd4e2ba5146108a7575f80fd5b8063a7713a7011610129578063a7713a7014610758578063a890c9101461076c578063a8f8a6681461078b578063a9a95294146107aa578063ab58fb8e146107c9578063b58131b0146107ff575f80fd5b80637ecebe001461068157806384b0196e146106b55780638ff262e3146106dc57806391ddadf4146106fb57806397c3d334146107265780639a802a6d14610739575f80fd5b806343859632116102115780635b8d0e0d116101cb5780635b8d0e0d146105c75780635f398a14146105e657806360c4247f1461060557806379051887146106245780637b3c71d3146106435780637d5e81e214610662575f80fd5b806343859632146104ca578063452115d6146105125780634bf5d7e914610531578063544ffc9c1461054557806354fd4d501461057f57806356781388146105a8575f80fd5b8063160cbed711610262578063160cbed7146104065780632656227d146104255780632d63f693146104385780632fe3e261146104575780633932abb11461048a5780633e4f49e61461049e575f80fd5b806301ffc9a7146102e357806302a251a31461031757806306f3f9e61461034257806306fdde0314610361578063143489d014610382578063150b7a02146103ce575f80fd5b366102df57306102b66109ec565b6001600160a01b0316146102dd57604051637485328f60e11b815260040160405180910390fd5b005b5f80fd5b3480156102ee575f80fd5b506103026102fd366004613414565b610a07565b60405190151581526020015b60405180910390f35b348015610322575f80fd5b50600854600160301b900463ffffffff165b60405190815260200161030e565b34801561034d575f80fd5b506102dd61035c36600461343b565b610a73565b34801561036c575f80fd5b50610375610a87565b60405161030e919061349f565b34801561038d575f80fd5b506103b661039c36600461343b565b5f908152600460205260409020546001600160a01b031690565b6040516001600160a01b03909116815260200161030e565b3480156103d9575f80fd5b506103ed6103e8366004613588565b610b17565b6040516001600160e01b0319909116815260200161030e565b348015610411575f80fd5b50610334610420366004613757565b610b59565b610334610433366004613757565b610c25565b348015610443575f80fd5b5061033461045236600461343b565b610d8d565b348015610462575f80fd5b506103347f3e83946653575f9a39005e1545185629e92736b7528ab20ca3816f315424a81181565b348015610495575f80fd5b50610334610dad565b3480156104a9575f80fd5b506104bd6104b836600461343b565b610dbf565b60405161030e9190613814565b3480156104d5575f80fd5b506103026104e4366004613822565b5f828152600b602090815260408083206001600160a01b038516845260030190915290205460ff1692915050565b34801561051d575f80fd5b5061033461052c366004613757565b610dc9565b34801561053c575f80fd5b50610375610e2f565b348015610550575f80fd5b5061056461055f36600461343b565b610eef565b6040805193845260208401929092529082015260600161030e565b34801561058a575f80fd5b506040805180820190915260018152603160f81b6020820152610375565b3480156105b3575f80fd5b506103346105c2366004613860565b610f14565b3480156105d2575f80fd5b506103346105e13660046138ce565b610f3b565b3480156105f1575f80fd5b50610334610600366004613980565b610ff8565b348015610610575f80fd5b5061033461061f36600461343b565b611040565b34801561062f575f80fd5b506102dd61063e366004613a10565b61104c565b34801561064e575f80fd5b5061033461065d366004613a2b565b61105d565b34801561066d575f80fd5b5061033461067c366004613a80565b6110ad565b34801561068c575f80fd5b5061033461069b366004613b2c565b6001600160a01b03165f9081526002602052604090205490565b3480156106c0575f80fd5b506106c96110c3565b60405161030e9796959493929190613b81565b3480156106e7575f80fd5b506103346106f6366004613bf0565b611105565b348015610706575f80fd5b5061070f611154565b60405165ffffffffffff909116815260200161030e565b348015610731575f80fd5b506064610334565b348015610744575f80fd5b50610334610753366004613c3d565b6111db565b348015610763575f80fd5b506103346111f1565b348015610777575f80fd5b506102dd610786366004613b2c565b61120a565b348015610796575f80fd5b506103346107a5366004613757565b61121b565b3480156107b5575f80fd5b506103026107c436600461343b565b611228565b3480156107d4575f80fd5b506103346107e336600461343b565b5f9081526004602052604090206001015465ffffffffffff1690565b34801561080a575f80fd5b50610334611230565b34801561081e575f80fd5b506103ed61082d366004613c91565b61123a565b34801561083d575f80fd5b5061033461084c36600461343b565b61127d565b6102dd61085f366004613d1d565b6112bf565b34801561086f575f80fd5b5061033461087e366004613757565b61133b565b34801561088e575f80fd5b50600854600160501b90046001600160a01b03166103b6565b3480156108b2575f80fd5b506040805180820190915260208082527f737570706f72743d627261766f2671756f72756d3d666f722c6162737461696e90820152610375565b3480156108f7575f80fd5b506103347ff2aad550cf55f045cb27e9c559f9889fdfb6e6cdaa032301d6ea397784ae51d781565b34801561092a575f80fd5b506102dd610939366004613d5c565b611374565b348015610949575f80fd5b50610334610958366004613d7f565b611385565b348015610968575f80fd5b506102dd61097736600461343b565b6113a4565b348015610987575f80fd5b506103ed610996366004613da9565b6113b5565b3480156109a6575f80fd5b506103346109b536600461343b565b6113f8565b3480156109c5575f80fd5b507f00000000000000000000000000000000000000000000000000000000000000006103b6565b600854600160501b90046001600160a01b031690565b905090565b5f6001600160e01b031982166366defe7760e11b1480610a3757506001600160e01b031982166332a2ad4360e11b145b80610a5257506001600160e01b03198216630271189760e51b145b80610a6d57506301ffc9a760e01b6001600160e01b03198316145b92915050565b610a7b611402565b610a848161147b565b50565b606060038054610a9690613e0c565b80601f0160208091040260200160405190810160405280929190818152602001828054610ac290613e0c565b8015610b0d5780601f10610ae457610100808354040283529160200191610b0d565b820191905f5260205f20905b815481529060010190602001808311610af057829003601f168201915b5050505050905090565b5f30610b216109ec565b6001600160a01b031614610b4857604051637485328f60e11b815260040160405180910390fd5b50630a85bd0160e11b949350505050565b5f80610b678686868661121b565b9050610b7c81610b776004611510565b611532565b505f610b8b828888888861156f565b905065ffffffffffff811615610c02575f82815260046020908152604091829020600101805465ffffffffffff191665ffffffffffff85169081179091558251858152918201527f9a2e42fd6722813d69113e7d0079d3d940171428df7373df9c7f7617cfda2892910160405180910390a1610c1b565b604051634844252360e11b815260040160405180910390fd5b5095945050505050565b5f80610c338686868661121b565b9050610c5381610c436005611510565b610c4d6004611510565b17611532565b505f818152600460205260409020805460ff60f01b1916600160f01b17905530610c7b6109ec565b6001600160a01b031614610d04575f5b8651811015610d0257306001600160a01b0316878281518110610cb057610cb0613e44565b60200260200101516001600160a01b031603610cfa57610cfa858281518110610cdb57610cdb613e44565b602002602001015180519060200120600561157d90919063ffffffff16565b600101610c8b565b505b610d1181878787876115de565b30610d1a6109ec565b6001600160a01b031614158015610d4657506005546001600160801b03808216600160801b9092041614155b15610d50575f6005555b6040518181527f712ae1383f79ac853f8d882153778e0260ef8f03b504e2866e0593e04d2b291f906020015b60405180910390a195945050505050565b5f90815260046020526040902054600160a01b900465ffffffffffff1690565b5f610a0260085465ffffffffffff1690565b5f610a6d826115f2565b5f80610dd78686868661121b565b905033610de48282611738565b610e1857604051638fe5d8a960e01b8152600481018390526001600160a01b03821660248201526044015b60405180910390fd5b610e248787878761177d565b979650505050505050565b60607f00000000000000000000000000000000000000000000000000000000000000006001600160a01b0316634bf5d7e96040518163ffffffff1660e01b81526004015f60405180830381865afa925050508015610eae57506040513d5f823e601f3d908101601f19168201604052610eab9190810190613e58565b60015b610eea575060408051808201909152601d81527f6d6f64653d626c6f636b6e756d6265722666726f6d3d64656661756c74000000602082015290565b919050565b5f818152600b60205260409020805460018201546002909201549091905b9193909250565b5f80339050610f3384828560405180602001604052805f81525061178a565b949350505050565b5f610f8188888888888080601f0160208091040260200160405190810160405280939291908181526020018383808284375f920191909152508a92508991506117ab9050565b610fa9576040516394ab6c0760e01b81526001600160a01b0387166004820152602401610e0f565b610fec88878988888080601f0160208091040260200160405190810160405280939291908181526020018383808284375f920191909152508a9250611878915050565b98975050505050505050565b5f80339050610e2487828888888080601f0160208091040260200160405190810160405280939291908181526020018383808284375f920191909152508a9250611878915050565b5f610a6d600a83611956565b611054611402565b610a84816119a3565b5f803390506110a386828787878080601f0160208091040260200160405190810160405280939291908181526020018383808284375f9201919091525061178a92505050565b9695505050505050565b5f6110ba85858585611a09565b95945050505050565b5f6060805f805f60606110d4611abf565b6110dc611aeb565b604080515f80825260208201909252600f60f81b9b939a50919850469750309650945092509050565b5f61111285858585611b18565b61113a576040516394ab6c0760e01b81526001600160a01b0384166004820152602401610e0f565b6110ba85848660405180602001604052805f81525061178a565b5f7f00000000000000000000000000000000000000000000000000000000000000006001600160a01b03166391ddadf46040518163ffffffff1660e01b8152600401602060405180830381865afa9250505080156111cf575060408051601f3d908101601f191682019092526111cc91810190613ec0565b60015b610eea57610a02611ba1565b5f6111e7848484611bab565b90505b9392505050565b5f6111fc600a611c3e565b6001600160d01b0316905090565b611212611402565b610a8481611c82565b5f6110ba8585858561133b565b5f6001610a6d565b5f610a0260075490565b5f306112446109ec565b6001600160a01b03161461126b57604051637485328f60e11b815260040160405180910390fd5b5063bc197c8160e01b95945050505050565b5f818152600460205260408120546112b190600160d01b810463ffffffff1690600160a01b900465ffffffffffff16613eef565b65ffffffffffff1692915050565b6112c7611402565b5f80856001600160a01b03168585856040516112e4929190613f15565b5f6040518083038185875af1925050503d805f811461131e576040519150601f19603f3d011682016040523d82523d5f602084013e611323565b606091505b50915091506113328282611d11565b50505050505050565b5f848484846040516020016113539493929190613fb4565b60408051601f19818403018152919052805160209091012095945050505050565b61137c611402565b610a8481611d2d565b5f6111ea838361139f60408051602081019091525f815290565b611bab565b6113ac611402565b610a8481611dc9565b5f306113bf6109ec565b6001600160a01b0316146113e657604051637485328f60e11b815260040160405180910390fd5b5063f23a6e6160e01b95945050505050565b5f610a6d82611e0a565b3361140b6109ec565b6001600160a01b031614611434576040516347096e4760e01b8152336004820152602401610e0f565b3061143d6109ec565b6001600160a01b031614611479575f803660405161145c929190613f15565b604051809103902090505b806114726005611ea7565b0361146757505b565b6064808211156114a85760405163243e544560e01b81526004810183905260248101829052604401610e0f565b5f6114b16111f1565b90506114d06114be611154565b6114c785611f14565b600a9190611f4b565b505060408051828152602081018590527f0553476bf02ef2726e8ce5ced78d63e26e602e4a2257b1f559418e24b4633997910160405180910390a1505050565b5f816007811115611523576115236137e0565b600160ff919091161b92915050565b5f8061153d84610dbf565b90505f8361154a83611510565b16036111ea578381846040516331b75e4d60e01b8152600401610e0f93929190613ffe565b5f6110a38686868686611f65565b81546001600160801b03600160801b8204811691811660018301909116036115a9576115a96041612104565b6001600160801b038082165f90815260018086016020526040909120939093558354919092018216600160801b029116179055565b6115eb8585858585612115565b5050505050565b5f806115fd836121ac565b90506005816007811115611613576116136137e0565b1461161e5792915050565b5f8381526009602052604090819020546008549151632c258a9f60e11b8152600481018290529091600160501b90046001600160a01b03169063584b153e90602401602060405180830381865afa15801561167b573d5f803e3d5ffd5b505050506040513d601f19601f8201168201806040525081019061169f9190614020565b156116ae575060059392505050565b600854604051632ab0f52960e01b815260048101839052600160501b9091046001600160a01b031690632ab0f52990602401602060405180830381865afa1580156116fb573d5f803e3d5ffd5b505050506040513d601f19601f8201168201806040525081019061171f9190614020565b1561172e575060079392505050565b5060029392505050565b5f8061174384610dbf565b6007811115611754576117546137e0565b1480156111ea5750505f91825260046020526040909120546001600160a01b0391821691161490565b5f6110ba858585856122d0565b5f6110ba858585856117a660408051602081019091525f815290565b611878565b5f610e24856118727f3e83946653575f9a39005e1545185629e92736b7528ab20ca3816f315424a8118a8a8a6117fd8c6001600160a01b03165f90815260026020526040902080546001810190915590565b8b516020808e01919091208c518d83012060405161185798979695949301968752602087019590955260ff9390931660408601526001600160a01b03919091166060850152608084015260a083015260c082015260e00190565b6040516020818303038152906040528051906020012061236d565b84612399565b5f61188786610b776001611510565b505f61189c8661189689610d8d565b85611bab565b90505f6118ac8888888588612409565b905083515f0361190257866001600160a01b03167fb8e138887d0aa13bab447e82de9d5c1777041ecd21ca36ba824ff1e6c07ddda4898884896040516118f5949392919061403f565b60405180910390a2610e24565b866001600160a01b03167fe2babfbac5889a709b63bb7f598b324e08bc5a4fb9ec647fb3cbc9ec07eb87128988848989604051611943959493929190614066565b60405180910390a2979650505050505050565b5f805f61196285612505565b9250925050838265ffffffffffff16111561198f5761198a6119838561255d565b869061258f565b611991565b805b6001600160d01b031695945050505050565b6008546040805165ffffffffffff928316815291831660208301527fc565b045403dc03c2eea82b81a0465edad9e2e7fc4d97e11421c209da93d7a93910160405180910390a16008805465ffffffffffff191665ffffffffffff92909216919091179055565b5f33611a158184612631565b611a3d5760405163d9b3955760e01b81526001600160a01b0382166004820152602401610e0f565b5f611a46611230565b90508015611ab2575f611a74836001611a5d611154565b611a67919061409f565b65ffffffffffff16611385565b905081811015611ab057604051636121770b60e11b81526001600160a01b03841660048201526024810182905260448101839052606401610e0f565b505b610e2487878787866126b6565b6060610a027f00000000000000000000000000000000000000000000000000000000000000005f6128d0565b6060610a027f000000000000000000000000000000000000000000000000000000000000000060016128d0565b5f6110ba836118727ff2aad550cf55f045cb27e9c559f9889fdfb6e6cdaa032301d6ea397784ae51d7888888611b6a8a6001600160a01b03165f90815260026020526040902080546001810190915590565b60408051602081019690965285019390935260ff90911660608401526001600160a01b0316608083015260a082015260c001611857565b5f610a024361255d565b5f7f0000000000000000000000000000000000000000000000000000000000000000604051630748d63560e31b81526001600160a01b038681166004830152602482018690529190911690633a46b1a890604401602060405180830381865afa158015611c1a573d5f803e3d5ffd5b505050506040513d601f19601f820116820180604052508101906111e791906140be565b80545f908015611c7a57611c6483611c576001846140d5565b5f91825260209091200190565b54600160301b90046001600160d01b03166111ea565b5f9392505050565b600854604080516001600160a01b03600160501b9093048316815291831660208301527f08f74ea46ef7894f65eabfb5e6e695de773a000b47c529ab559178069b226401910160405180910390a1600880546001600160a01b03909216600160501b027fffff0000000000000000000000000000000000000000ffffffffffffffffffff909216919091179055565b606082611d2657611d2182612979565b610a6d565b5080610a6d565b8063ffffffff165f03611d555760405163f1cfbf0560e01b81525f6004820152602401610e0f565b6008546040805163ffffffff600160301b9093048316815291831660208301527f7e3f7f0708a84de9203036abaa450dccc85ad5ff52f78c170f3edb55cf5e8828910160405180910390a16008805463ffffffff909216600160301b0269ffffffff00000000000019909216919091179055565b60075460408051918252602082018390527fccb45da8d5717e6c4544694297c4ba5cf151d455c9bb0ed4fc7a38411bc05461910160405180910390a1600755565b604051632394e7a360e21b8152600481018290525f90610a6d906001600160a01b037f00000000000000000000000000000000000000000000000000000000000000001690638e539e8c90602401602060405180830381865afa158015611e73573d5f803e3d5ffd5b505050506040513d601f19601f82011682018060405250810190611e9791906140be565b611ea084611040565b60646129a1565b80545f906001600160801b0380821691600160801b9004168103611ecf57611ecf6031612104565b6001600160801b038181165f908152600185810160205260408220805492905585546fffffffffffffffffffffffffffffffff19169301909116919091179092555090565b5f6001600160d01b03821115611f47576040516306dfcc6560e41b815260d0600482015260248101839052604401610e0f565b5090565b5f80611f58858585612a51565b915091505b935093915050565b5f806008600a9054906101000a90046001600160a01b03166001600160a01b031663f27a0c926040518163ffffffff1660e01b8152600401602060405180830381865afa158015611fb8573d5f803e3d5ffd5b505050506040513d601f19601f82011682018060405250810190611fdc91906140be565b90505f3060601b6bffffffffffffffffffffffff1916841860085460405163b1c5f42760e01b8152919250600160501b90046001600160a01b03169063b1c5f42790612034908a908a908a905f9088906004016140e8565b602060405180830381865afa15801561204f573d5f803e3d5ffd5b505050506040513d601f19601f8201168201806040525081019061207391906140be565b5f898152600960205260408082209290925560085491516308f2a0bb60e41b8152600160501b9092046001600160a01b031691638f2a0bb0916120c3918b918b918b919088908a90600401614135565b5f604051808303815f87803b1580156120da575f80fd5b505af11580156120ec573d5f803e3d5ffd5b50505050610fec82426120ff919061418c565b61255d565b634e487b715f52806020526024601cfd5b600854600160501b90046001600160a01b031663e38335e5348686865f3060601b6bffffffffffffffffffffffff191688186040518763ffffffff1660e01b81526004016121679594939291906140e8565b5f604051808303818588803b15801561217e575f80fd5b505af1158015612190573d5f803e3d5ffd5b5050505f96875250506009602052505060408320929092555050565b5f818152600460205260408120805460ff600160f01b8204811691600160f81b90041681156121e057506007949350505050565b80156121f157506002949350505050565b5f6121fb86610d8d565b9050805f0361222057604051636ad0607560e01b815260048101879052602401610e0f565b5f612229611154565b65ffffffffffff16905080821061224657505f9695505050505050565b5f6122508861127d565b905081811061226757506001979650505050505050565b61227088612ba1565b1580612282575061228088612bd7565b155b1561229557506003979650505050505050565b5f8881526004602052604090206001015465ffffffffffff165f036122c257506004979650505050505050565b506005979650505050505050565b5f806122de86868686612bf2565b5f818152600960205260409020549091508015610c1b5760085460405163c4d252f560e01b815260048101839052600160501b9091046001600160a01b03169063c4d252f5906024015f604051808303815f87803b15801561233e575f80fd5b505af1158015612350573d5f803e3d5ffd5b5050505f8381526009602052604081205550509050949350505050565b5f610a6d612379612ca1565b8360405161190160f01b8152600281019290925260228201526042902090565b5f836001600160a01b03163b5f036123f7575f806123b78585612dca565b5090925090505f8160038111156123d0576123d06137e0565b1480156123ee5750856001600160a01b0316826001600160a01b0316145b925050506111ea565b612402848484612e13565b90506111ea565b5f858152600b602090815260408083206001600160a01b03881684526003810190925282205460ff161561245b576040516371c6af4960e01b81526001600160a01b0387166004820152602401610e0f565b6001600160a01b0386165f9081526003820160205260409020805460ff1916600117905560ff85166124a45783815f015f828254612499919061418c565b909155506124fa9050565b5f1960ff8616016124c25783816001015f828254612499919061418c565b60011960ff8616016124e15783816002015f828254612499919061418c565b6040516303599be160e11b815260040160405180910390fd5b509195945050505050565b80545f9081908190808203612523575f805f93509350935050610f0d565b5f61253386611c576001856140d5565b546001955065ffffffffffff81169450600160301b90046001600160d01b03169250610f0d915050565b5f65ffffffffffff821115611f47576040516306dfcc6560e41b81526030600482015260248101839052604401610e0f565b81545f90818160058111156125eb575f6125a884612ee9565b6125b290856140d5565b5f8881526020902090915081015465ffffffffffff90811690871610156125db578091506125e9565b6125e681600161418c565b92505b505b5f6125f887878585613041565b905080156126255761260f87611c576001846140d5565b54600160301b90046001600160d01b0316610e24565b5f979650505050505050565b80515f906034811015612648576001915050610a6d565b60131981840101516001600160b01b03198116692370726f706f7365723d60b01b1461267957600192505050610a6d565b5f8061268986602a8603866130a0565b91509150811580610e245750866001600160a01b0316816001600160a01b03161494505050505092915050565b5f6126ca868686868051906020012061121b565b9050845186511415806126df57508351865114155b806126e957508551155b1561271e57855184518651604051630447b05d60e41b8152600481019390935260248301919091526044820152606401610e0f565b5f81815260046020526040902054600160a01b900465ffffffffffff1615612767578061274a82610dbf565b6040516331b75e4d60e01b8152610e0f9291905f90600401613ffe565b5f612770610dad565b612778611154565b65ffffffffffff1661278a919061418c565b90505f6127a460085463ffffffff600160301b9091041690565b5f84815260046020526040902080546001600160a01b0319166001600160a01b0387161781559091506127d68361255d565b815465ffffffffffff91909116600160a01b0265ffffffffffff60a01b1990911617815561280382613149565b815463ffffffff91909116600160d01b0263ffffffff60d01b1990911617815588517f7d84a6263ae0d98d3329bd7b46bb4e8d6f98cd35a7adb45c274c8b7fd5ebd5e090859087908c908c906001600160401b03811115612866576128666134c5565b60405190808252806020026020018201604052801561289957816020015b60608152602001906001900390816128845790505b508c896128a68a8261418c565b8e6040516128bc9998979695949392919061419f565b60405180910390a150505095945050505050565b606060ff83146128ea576128e383613179565b9050610a6d565b8180546128f690613e0c565b80601f016020809104026020016040519081016040528092919081815260200182805461292290613e0c565b801561296d5780601f106129445761010080835404028352916020019161296d565b820191905f5260205f20905b81548152906001019060200180831161295057829003601f168201915b50505050509050610a6d565b80511561298857805160208201fd5b60405163d6bda27560e01b815260040160405180910390fd5b5f805f6129ae86866131b6565b91509150815f036129d2578381816129c8576129c8614274565b04925050506111ea565b8184116129e9576129e96003851502601118612104565b5f848688095f868103871696879004966002600389028118808a02820302808a02820302808a02820302808a02820302808a02820302808a02909103029181900381900460010185841190960395909502919093039390930492909217029150509392505050565b82545f9081908015612b47575f612a6d87611c576001856140d5565b805490915065ffffffffffff80821691600160301b90046001600160d01b0316908816821115612ab057604051632520601d60e01b815260040160405180910390fd5b8765ffffffffffff168265ffffffffffff1603612ae957825465ffffffffffff16600160301b6001600160d01b03891602178355612b39565b6040805180820190915265ffffffffffff808a1682526001600160d01b03808a1660208085019182528d54600181018f555f8f81529190912094519151909216600160301b029216919091179101555b9450859350611f5d92505050565b50506040805180820190915265ffffffffffff80851682526001600160d01b0380851660208085019182528854600181018a555f8a815291822095519251909316600160301b029190931617920191909155905081611f5d565b5f818152600b6020526040812060028101546001820154612bc2919061418c565b612bce6109b585610d8d565b11159392505050565b5f818152600b60205260408120805460019091015411610a6d565b5f80612c008686868661121b565b9050612c4e81612c106007611510565b612c1a6006611510565b612c246002611510565b6001612c31600782614288565b612c3c906002614381565b612c4691906140d5565b181818611532565b505f818152600460205260409081902080546001600160f81b0316600160f81b179055517f789cf55be980739dad1d0699b93b58e806b51c9d96619bfa8fe0a28abaa7b30c90610d7c9083815260200190565b5f306001600160a01b037f000000000000000000000000000000000000000000000000000000000000000016148015612cf957507f000000000000000000000000000000000000000000000000000000000000000046145b15612d2357507f000000000000000000000000000000000000000000000000000000000000000090565b610a02604080517f8b73c3c69bb8fe3d512ecc4cf759cc79239f7b179b0ffacaa9a75d522b39400f60208201527f0000000000000000000000000000000000000000000000000000000000000000918101919091527f000000000000000000000000000000000000000000000000000000000000000060608201524660808201523060a08201525f9060c00160405160208183030381529060405280519060200120905090565b5f805f8351604103612e01576020840151604085015160608601515f1a612df3888285856131d2565b955095509550505050612e0c565b505081515f91506002905b9250925092565b5f805f856001600160a01b03168585604051602401612e3392919061438f565b60408051601f198184030181529181526020820180516001600160e01b0316630b135d3f60e11b17905251612e6891906143a7565b5f60405180830381855afa9150503d805f8114612ea0576040519150601f19603f3d011682016040523d82523d5f602084013e612ea5565b606091505b5091509150818015612eb957506020815110155b80156110a357508051630b135d3f60e11b90612ede90830160209081019084016140be565b149695505050505050565b5f60018211612ef6575090565b816001600160801b8210612f0f5760809190911c9060401b5b680100000000000000008210612f2a5760409190911c9060201b5b6401000000008210612f415760209190911c9060101b5b620100008210612f565760109190911c9060081b5b6101008210612f6a5760089190911c9060041b5b60108210612f7d5760049190911c9060021b5b60048210612f895760011b5b600302600190811c90818581612fa157612fa1614274565b048201901c90506001818581612fb957612fb9614274565b048201901c90506001818581612fd157612fd1614274565b048201901c90506001818581612fe957612fe9614274565b048201901c9050600181858161300157613001614274565b048201901c9050600181858161301957613019614274565b048201901c905061303881858161303257613032614274565b04821190565b90039392505050565b5f5b81831015613098575f613056848461329a565b5f8781526020902090915065ffffffffffff86169082015465ffffffffffff16111561308457809250613092565b61308f81600161418c565b93505b50613043565b509392505050565b5f8084518311806130b057508284115b156130bf57505f905080611f5d565b5f6130cb85600161418c565b841180156130f3575061060f60f31b6130e78787016020015190565b6001600160f01b031916145b90505f61310382151560026143c2565b61310e90602861418c565b90508061311b87876140d5565b0361313c575f8061312d8989896132b4565b9096509450611f5d9350505050565b5f80935093505050611f5d565b5f63ffffffff821115611f47576040516306dfcc6560e41b81526020600482015260248101839052604401610e0f565b60605f61318583613375565b6040805160208082528183019092529192505f91906020820181803683375050509182525060208101929092525090565b5f805f1983850993909202808410938190039390930393915050565b5f80807f7fffffffffffffffffffffffffffffff5d576e7357a4501ddfe92f46681b20a084111561320b57505f91506003905082613290565b604080515f808252602082018084528a905260ff891692820192909252606081018790526080810186905260019060a0016020604051602081039080840390855afa15801561325c573d5f803e3d5ffd5b5050604051601f1901519150506001600160a01b03811661328757505f925060019150829050613290565b92505f91508190505b9450945094915050565b5f6132a860028484186143d9565b6111ea9084841661418c565b5f8084816132c386600161418c565b851180156132eb575061060f60f31b6132df8388016020015190565b6001600160f01b031916145b90505f6132fb82151560026143c2565b90505f80613309838a61418c565b90505b87811015613364575f61332a6133258784016020015190565b61339c565b9050600f8160ff161115613349575f8097509750505050505050611f5d565b6133546010846143c2565b60ff90911601915060010161330c565b506001999098509650505050505050565b5f60ff8216601f811115610a6d57604051632cd44ac360e21b815260040160405180910390fd5b5f60f882901c602f811180156133b55750603a8160ff16105b156133c357602f1901610a6d565b60608160ff161180156133d9575060678160ff16105b156133e75760561901610a6d565b60408160ff161180156133fd575060478160ff16105b1561340b5760361901610a6d565b5060ff92915050565b5f60208284031215613424575f80fd5b81356001600160e01b0319811681146111ea575f80fd5b5f6020828403121561344b575f80fd5b5035919050565b5f5b8381101561346c578181015183820152602001613454565b50505f910152565b5f815180845261348b816020860160208601613452565b601f01601f19169290920160200192915050565b602081525f6111ea6020830184613474565b6001600160a01b0381168114610a84575f80fd5b634e487b7160e01b5f52604160045260245ffd5b604051601f8201601f191681016001600160401b0381118282101715613501576135016134c5565b604052919050565b5f6001600160401b03821115613521576135216134c5565b50601f01601f191660200190565b5f61354161353c84613509565b6134d9565b9050828152838383011115613554575f80fd5b828260208301375f602084830101529392505050565b5f82601f830112613579575f80fd5b6111ea8383356020850161352f565b5f805f806080858703121561359b575f80fd5b84356135a6816134b1565b935060208501356135b6816134b1565b92506040850135915060608501356001600160401b038111156135d7575f80fd5b6135e38782880161356a565b91505092959194509250565b5f6001600160401b03821115613607576136076134c5565b5060051b60200190565b5f82601f830112613620575f80fd5b8135602061363061353c836135ef565b8083825260208201915060208460051b870101935086841115613651575f80fd5b602086015b84811015613676578035613669816134b1565b8352918301918301613656565b509695505050505050565b5f82601f830112613690575f80fd5b813560206136a061353c836135ef565b8083825260208201915060208460051b8701019350868411156136c1575f80fd5b602086015b8481101561367657803583529183019183016136c6565b5f82601f8301126136ec575f80fd5b813560206136fc61353c836135ef565b82815260059290921b8401810191818101908684111561371a575f80fd5b8286015b848110156136765780356001600160401b0381111561373b575f80fd5b6137498986838b010161356a565b84525091830191830161371e565b5f805f806080858703121561376a575f80fd5b84356001600160401b0380821115613780575f80fd5b61378c88838901613611565b955060208701359150808211156137a1575f80fd5b6137ad88838901613681565b945060408701359150808211156137c2575f80fd5b506137cf878288016136dd565b949793965093946060013593505050565b634e487b7160e01b5f52602160045260245ffd5b6008811061381057634e487b7160e01b5f52602160045260245ffd5b9052565b60208101610a6d82846137f4565b5f8060408385031215613833575f80fd5b823591506020830135613845816134b1565b809150509250929050565b803560ff81168114610eea575f80fd5b5f8060408385031215613871575f80fd5b8235915061388160208401613850565b90509250929050565b5f8083601f84011261389a575f80fd5b5081356001600160401b038111156138b0575f80fd5b6020830191508360208285010111156138c7575f80fd5b9250929050565b5f805f805f805f60c0888a0312156138e4575f80fd5b873596506138f460208901613850565b95506040880135613904816134b1565b945060608801356001600160401b038082111561391f575f80fd5b61392b8b838c0161388a565b909650945060808a0135915080821115613943575f80fd5b61394f8b838c0161356a565b935060a08a0135915080821115613964575f80fd5b506139718a828b0161356a565b91505092959891949750929550565b5f805f805f60808688031215613994575f80fd5b853594506139a460208701613850565b935060408601356001600160401b03808211156139bf575f80fd5b6139cb89838a0161388a565b909550935060608801359150808211156139e3575f80fd5b506139f08882890161356a565b9150509295509295909350565b65ffffffffffff81168114610a84575f80fd5b5f60208284031215613a20575f80fd5b81356111ea816139fd565b5f805f8060608587031215613a3e575f80fd5b84359350613a4e60208601613850565b925060408501356001600160401b03811115613a68575f80fd5b613a748782880161388a565b95989497509550505050565b5f805f8060808587031215613a93575f80fd5b84356001600160401b0380821115613aa9575f80fd5b613ab588838901613611565b95506020870135915080821115613aca575f80fd5b613ad688838901613681565b94506040870135915080821115613aeb575f80fd5b613af7888389016136dd565b93506060870135915080821115613b0c575f80fd5b508501601f81018713613b1d575f80fd5b6135e38782356020840161352f565b5f60208284031215613b3c575f80fd5b81356111ea816134b1565b5f815180845260208085019450602084015f5b83811015613b7657815187529582019590820190600101613b5a565b509495945050505050565b60ff60f81b8816815260e060208201525f613b9f60e0830189613474565b8281036040840152613bb18189613474565b606084018890526001600160a01b038716608085015260a0840186905283810360c08501529050613be28185613b47565b9a9950505050505050505050565b5f805f8060808587031215613c03575f80fd5b84359350613c1360208601613850565b92506040850135613c23816134b1565b915060608501356001600160401b038111156135d7575f80fd5b5f805f60608486031215613c4f575f80fd5b8335613c5a816134b1565b92506020840135915060408401356001600160401b03811115613c7b575f80fd5b613c878682870161356a565b9150509250925092565b5f805f805f60a08688031215613ca5575f80fd5b8535613cb0816134b1565b94506020860135613cc0816134b1565b935060408601356001600160401b0380821115613cdb575f80fd5b613ce789838a01613681565b94506060880135915080821115613cfc575f80fd5b613d0889838a01613681565b935060808801359150808211156139e3575f80fd5b5f805f8060608587031215613d30575f80fd5b8435613d3b816134b1565b93506020850135925060408501356001600160401b03811115613a68575f80fd5b5f60208284031215613d6c575f80fd5b813563ffffffff811681146111ea575f80fd5b5f8060408385031215613d90575f80fd5b8235613d9b816134b1565b946020939093013593505050565b5f805f805f60a08688031215613dbd575f80fd5b8535613dc8816134b1565b94506020860135613dd8816134b1565b9350604086013592506060860135915060808601356001600160401b03811115613e00575f80fd5b6139f08882890161356a565b600181811c90821680613e2057607f821691505b602082108103613e3e57634e487b7160e01b5f52602260045260245ffd5b50919050565b634e487b7160e01b5f52603260045260245ffd5b5f60208284031215613e68575f80fd5b81516001600160401b03811115613e7d575f80fd5b8201601f81018413613e8d575f80fd5b8051613e9b61353c82613509565b818152856020838501011115613eaf575f80fd5b6110ba826020830160208601613452565b5f60208284031215613ed0575f80fd5b81516111ea816139fd565b634e487b7160e01b5f52601160045260245ffd5b65ffffffffffff818116838216019080821115613f0e57613f0e613edb565b5092915050565b818382375f9101908152919050565b5f815180845260208085019450602084015f5b83811015613b765781516001600160a01b031687529582019590820190600101613f37565b5f8282518085526020808601955060208260051b840101602086015f5b84811015613fa757601f19868403018952613f95838351613474565b98840198925090830190600101613f79565b5090979650505050505050565b608081525f613fc66080830187613f24565b8281036020840152613fd88187613b47565b90508281036040840152613fec8186613f5c565b91505082606083015295945050505050565b8381526060810161401260208301856137f4565b826040830152949350505050565b5f60208284031215614030575f80fd5b815180151581146111ea575f80fd5b84815260ff84166020820152826040820152608060608201525f6110a36080830184613474565b85815260ff8516602082015283604082015260a060608201525f61408d60a0830185613474565b8281036080840152610fec8185613474565b65ffffffffffff828116828216039080821115613f0e57613f0e613edb565b5f602082840312156140ce575f80fd5b5051919050565b81810381811115610a6d57610a6d613edb565b60a081525f6140fa60a0830188613f24565b828103602084015261410c8188613b47565b905082810360408401526141208187613f5c565b60608401959095525050608001529392505050565b60c081525f61414760c0830189613f24565b82810360208401526141598189613b47565b9050828103604084015261416d8188613f5c565b60608401969096525050608081019290925260a0909101529392505050565b80820180821115610a6d57610a6d613edb565b5f6101208b8352602060018060a01b038c16818501528160408501526141c78285018c613f24565b915083820360608501526141db828b613b47565b915083820360808501528189518084528284019150828160051b850101838c015f5b8381101561422b57601f19878403018552614219838351613474565b948601949250908501906001016141fd565b505086810360a088015261423f818c613f5c565b9450505050508560c08401528460e08401528281036101008401526142648185613474565b9c9b505050505050505050505050565b634e487b7160e01b5f52601260045260245ffd5b60ff8181168382160190811115610a6d57610a6d613edb565b600181815b808511156142db57815f19048211156142c1576142c1613edb565b808516156142ce57918102915b93841c93908002906142a6565b509250929050565b5f826142f157506001610a6d565b816142fd57505f610a6d565b8160018114614313576002811461431d57614339565b6001915050610a6d565b60ff84111561432e5761432e613edb565b50506001821b610a6d565b5060208310610133831016604e8410600b841016171561435c575081810a610a6d565b61436683836142a1565b805f190482111561437957614379613edb565b029392505050565b5f6111ea60ff8416836142e3565b828152604060208201525f6111e76040830184613474565b5f82516143b8818460208701613452565b9190910192915050565b8082028115828204841417610a6d57610a6d613edb565b5f826143f357634e487b7160e01b5f52601260045260245ffd5b50049056fea264697066735822122067856450b15508ebfffc09d8f06da920a384ae97f6c90697330ea61a3c882b8264736f6c63430008180033608060405234801562000010575f80fd5b5060405162000ff338038062000ff38339810160408190526200003391620003d0565b8585856003620000448382620004f6565b506004620000538282620004f6565b5050506001600160a01b0381166200008557604051631e4fbdf760e01b81525f60048201526024015b60405180910390fd5b620000908162000137565b506001600655600780546001600160a01b0319166001600160a01b0385161790556008829055620000c2868262000188565b6007546040516323b872dd60e01b81526001600160a01b03888116600483015230602483015260448201859052909116906323b872dd906064015f604051808303815f87803b15801562000114575f80fd5b505af115801562000127573d5f803e3d5ffd5b50505050505050505050620005e8565b600580546001600160a01b038381166001600160a01b0319831681179093556040519116919082907f8be0079c531659141344cd1fd0a4f28419497f9722a3daafe3b4186f6b6457e0905f90a35050565b6001600160a01b038216620001b35760405163ec442f0560e01b81525f60048201526024016200007c565b620001c05f8383620001c4565b5050565b6001600160a01b038316620001f2578060025f828254620001e69190620005c2565b90915550620002649050565b6001600160a01b0383165f9081526020819052604090205481811015620002465760405163391434e360e21b81526001600160a01b038516600482015260248101829052604481018390526064016200007c565b6001600160a01b0384165f9081526020819052604090209082900390555b6001600160a01b0382166200028257600280548290039055620002a0565b6001600160a01b0382165f9081526020819052604090208054820190555b816001600160a01b0316836001600160a01b03167fddf252ad1be2c89b69c2b068fc378daa952ba7f163c4a11628f55a4df523b3ef83604051620002e691815260200190565b60405180910390a3505050565b80516001600160a01b03811681146200030a575f80fd5b919050565b634e487b7160e01b5f52604160045260245ffd5b5f82601f83011262000333575f80fd5b81516001600160401b03808211156200035057620003506200030f565b604051601f8301601f19908116603f011681019082821181831017156200037b576200037b6200030f565b816040528381526020925086602085880101111562000398575f80fd5b5f91505b83821015620003bb57858201830151818301840152908201906200039c565b5f602085830101528094505050505092915050565b5f805f805f8060c08789031215620003e6575f80fd5b620003f187620002f3565b60208801519096506001600160401b03808211156200040e575f80fd5b6200041c8a838b0162000323565b9650604089015191508082111562000432575f80fd5b506200044189828a0162000323565b9450506200045260608801620002f3565b92506080870151915060a087015190509295509295509295565b600181811c908216806200048157607f821691505b602082108103620004a057634e487b7160e01b5f52602260045260245ffd5b50919050565b601f821115620004f157805f5260205f20601f840160051c81016020851015620004cd5750805b601f840160051c820191505b81811015620004ee575f8155600101620004d9565b50505b505050565b81516001600160401b038111156200051257620005126200030f565b6200052a816200052384546200046c565b84620004a6565b602080601f83116001811462000560575f8415620005485750858301515b5f19600386901b1c1916600185901b178555620005ba565b5f85815260208120601f198616915b8281101562000590578886015182559484019460019091019084016200056f565b5085821015620005ae57878501515f19600388901b60f8161c191681555b505060018460011b0185555b505050505050565b80820180821115620005e257634e487b7160e01b5f52601160045260245ffd5b92915050565b6109fd80620005f65f395ff3fe608060405234801561000f575f80fd5b50600436106100f0575f3560e01c8063715018a611610093578063be040fb011610063578063be040fb0146101f2578063c6bc5182146101fa578063dd62ed3e14610203578063f2fde38b1461023b575f80fd5b8063715018a6146101bc5780638da5cb5b146101c657806395d89b41146101d7578063a9059cbb146101df575f80fd5b806323b872dd116100ce57806323b872dd14610147578063313ce5671461015a57806347ccca021461016957806370a0823114610194575f80fd5b806306fdde03146100f4578063095ea7b31461011257806318160ddd14610135575b5f80fd5b6100fc61024e565b6040516101099190610857565b60405180910390f35b6101256101203660046108be565b6102de565b6040519015158152602001610109565b6002545b604051908152602001610109565b6101256101553660046108e6565b6102f7565b60405160128152602001610109565b60075461017c906001600160a01b031681565b6040516001600160a01b039091168152602001610109565b6101396101a236600461091f565b6001600160a01b03165f9081526020819052604090205490565b6101c461031a565b005b6005546001600160a01b031661017c565b6100fc61032d565b6101256101ed3660046108be565b61033c565b6101c4610349565b61013960085481565b61013961021136600461093f565b6001600160a01b039182165f90815260016020908152604080832093909416825291909152205490565b6101c461024936600461091f565b610457565b60606003805461025d90610970565b80601f016020809104026020016040519081016040528092919081815260200182805461028990610970565b80156102d45780601f106102ab576101008083540402835291602001916102d4565b820191905f5260205f20905b8154815290600101906020018083116102b757829003601f168201915b5050505050905090565b5f336102eb818585610494565b60019150505b92915050565b5f336103048582856104a6565b61030f858585610522565b506001949350505050565b61032261057f565b61032b5f6105ac565b565b60606004805461025d90610970565b5f336102eb818585610522565b6103516105fd565b600254335f90815260208190526040902054146103d25760405162461bcd60e51b815260206004820152603460248201527f596f75206d757374206f776e20616c6c206672616374696f6e616c2073686172604482015273195cc81d1bc81c995919595b481d1a194813919560621b60648201526084015b60405180910390fd5b6103e4336103df60025490565b610627565b6007546008546040516323b872dd60e01b815230600482015233602482015260448101919091526001600160a01b03909116906323b872dd906064015f604051808303815f87803b158015610437575f80fd5b505af1158015610449573d5f803e3d5ffd5b5050505061032b6001600655565b61045f61057f565b6001600160a01b03811661048857604051631e4fbdf760e01b81525f60048201526024016103c9565b610491816105ac565b50565b6104a1838383600161065f565b505050565b6001600160a01b038381165f908152600160209081526040808320938616835292905220545f1981101561051c578181101561050e57604051637dc7a0d960e11b81526001600160a01b038416600482015260248101829052604481018390526064016103c9565b61051c84848484035f61065f565b50505050565b6001600160a01b03831661054b57604051634b637e8f60e11b81525f60048201526024016103c9565b6001600160a01b0382166105745760405163ec442f0560e01b81525f60048201526024016103c9565b6104a1838383610731565b6005546001600160a01b0316331461032b5760405163118cdaa760e01b81523360048201526024016103c9565b600580546001600160a01b038381166001600160a01b0319831681179093556040519116919082907f8be0079c531659141344cd1fd0a4f28419497f9722a3daafe3b4186f6b6457e0905f90a35050565b60026006540361062057604051633ee5aeb560e01b815260040160405180910390fd5b6002600655565b6001600160a01b03821661065057604051634b637e8f60e11b81525f60048201526024016103c9565b61065b825f83610731565b5050565b6001600160a01b0384166106885760405163e602df0560e01b81525f60048201526024016103c9565b6001600160a01b0383166106b157604051634a1406b160e11b81525f60048201526024016103c9565b6001600160a01b038085165f908152600160209081526040808320938716835292905220829055801561051c57826001600160a01b0316846001600160a01b03167f8c5be1e5ebec7d5bd14f71427d1e84f3dd0314c0f7b2291e5b200ac8c7c3b9258460405161072391815260200190565b60405180910390a350505050565b6001600160a01b03831661075b578060025f82825461075091906109a8565b909155506107cb9050565b6001600160a01b0383165f90815260208190526040902054818110156107ad5760405163391434e360e21b81526001600160a01b038516600482015260248101829052604481018390526064016103c9565b6001600160a01b0384165f9081526020819052604090209082900390555b6001600160a01b0382166107e757600280548290039055610805565b6001600160a01b0382165f9081526020819052604090208054820190555b816001600160a01b0316836001600160a01b03167fddf252ad1be2c89b69c2b068fc378daa952ba7f163c4a11628f55a4df523b3ef8360405161084a91815260200190565b60405180910390a3505050565b5f602080835283518060208501525f5b8181101561088357858101830151858201604001528201610867565b505f604082860101526040601f19601f8301168501019250505092915050565b80356001600160a01b03811681146108b9575f80fd5b919050565b5f80604083850312156108cf575f80fd5b6108d8836108a3565b946020939093013593505050565b5f805f606084860312156108f8575f80fd5b610901846108a3565b925061090f602085016108a3565b9150604084013590509250925092565b5f6020828403121561092f575f80fd5b610938826108a3565b9392505050565b5f8060408385031215610950575f80fd5b610959836108a3565b9150610967602084016108a3565b90509250929050565b600181811c9082168061098457607f821691505b6020821081036109a257634e487b7160e01b5f52602260045260245ffd5b50919050565b808201808211156102f157634e487b7160e01b5f52601160045260245ffdfea2646970667358221220477c3aaf6fd19f302abf3e3ee1b2c2443e3f76711cfb0ef1284bad6d627e518664736f6c63430008180033608060405234801561000f575f80fd5b5060405161034a38038061034a83398101604081905261002e91610052565b5f80546001600160a01b0319166001600160a01b039290921691909117905561007f565b5f60208284031215610062575f80fd5b81516001600160a01b0381168114610078575f80fd5b9392505050565b6102be8061008c5f395ff3fe60806040526004361061002b575f3560e01c80638da5cb5b1461006e578063f3fef3a3146100a8575f80fd5b3661006a57604080513381523460208201527f543ba50a5eec5e6178218e364b1d0f396157b3c8fa278522c2cb7fd99407d474910160405180910390a1005b5f80fd5b348015610079575f80fd5b505f5461008c906001600160a01b031681565b6040516001600160a01b03909116815260200160405180910390f35b3480156100b3575f80fd5b506100c76100c2366004610253565b6100c9565b005b5f546001600160a01b031633146101355760405162461bcd60e51b815260206004820152602560248201527f4f6e6c7920746865206f776e65722063616e2063616c6c20746869732066756e60448201526431ba34b7b760d91b60648201526084015b60405180910390fd5b4781111561017a5760405162461bcd60e51b8152602060048201526012602482015271496e73756666696369656e742066756e647360701b604482015260640161012c565b5f826001600160a01b0316826040515f6040518083038185875af1925050503d805f81146101c3576040519150601f19603f3d011682016040523d82523d5f602084013e6101c8565b606091505b505090508061020c5760405162461bcd60e51b815260206004820152601060248201526f2a3930b739b332b9103330b4b632b21760811b604482015260640161012c565b604080516001600160a01b0385168152602081018490527feaff4b37086828766ad3268786972c0cd24259d4c87a80f9d3963a3c3d999b0d910160405180910390a1505050565b5f8060408385031215610264575f80fd5b82356001600160a01b038116811461027a575f80fd5b94602093909301359350505056fea26469706673582212209df1bd93bf094f95678ed8429c68bc3306ffbd6115bf84a29996db4c23a6f2d364736f6c63430008180033608060405234801562000010575f80fd5b5060405162001a6f38038062001a6f8339810160408190526200003391620000fa565b8181620000408162000083565b506001600160a01b0381166200006f57604051631e4fbdf760e01b81525f600482015260240160405180910390fd5b6200007a8162000095565b5050506200033e565b600262000091828262000272565b5050565b600380546001600160a01b038381166001600160a01b0319831681179093556040519116919082907f8be0079c531659141344cd1fd0a4f28419497f9722a3daafe3b4186f6b6457e0905f90a35050565b634e487b7160e01b5f52604160045260245ffd5b5f80604083850312156200010c575f80fd5b82516001600160a01b038116811462000123575f80fd5b602084810151919350906001600160401b038082111562000142575f80fd5b818601915086601f83011262000156575f80fd5b8151818111156200016b576200016b620000e6565b604051601f8201601f19908116603f01168101908382118183101715620001965762000196620000e6565b816040528281528986848701011115620001ae575f80fd5b5f93505b82841015620001d15784840186015181850187015292850192620001b2565b5f8684830101528096505050505050509250929050565b600181811c90821680620001fd57607f821691505b6020821081036200021c57634e487b7160e01b5f52602260045260245ffd5b50919050565b601f8211156200026d57805f5260205f20601f840160051c81016020851015620002495750805b601f840160051c820191505b818110156200026a575f815560010162000255565b50505b505050565b81516001600160401b038111156200028e576200028e620000e6565b620002a6816200029f8454620001e8565b8462000222565b602080601f831160018114620002dc575f8415620002c45750858301515b5f19600386901b1c1916600185901b17855562000336565b5f85815260208120601f198616915b828110156200030c57888601518255948401946001909101908401620002eb565b50858210156200032a57878501515f19600388901b60f8161c191681555b505060018460011b0185555b505050505050565b611723806200034c5f395ff3fe608060405234801561000f575f80fd5b5060043610610105575f3560e01c8063715018a61161009e578063d81d0a151161006e578063d81d0a1514610243578063e985e9c514610256578063f242432a14610269578063f2fde38b1461027c578063f60f206c1461028f575f80fd5b8063715018a6146101fa5780638da5cb5b14610202578063a22cb4651461021d578063c19d981c14610230575f80fd5b80630e89341c116100d95780630e89341c14610194578063156e29f6146101b45780632eb2c2d6146101c75780634e1273f4146101da575f80fd5b8062fdd58e1461010957806301ffc9a71461012f57806302fe530514610152578063088bcc3014610167575b5f80fd5b61011c610117366004610ee9565b6102ae565b6040519081526020015b60405180910390f35b61014261013d366004610f26565b6102d5565b6040519015158152602001610126565b610165610160366004610fe2565b610324565b005b61014261017536600461102f565b600560209081525f928352604080842090915290825290205460ff1681565b6101a76101a2366004611059565b610338565b60405161012691906110b3565b6101656101c23660046110c5565b6103ca565b6101656101d53660046111a2565b610413565b6101ed6101e8366004611245565b61047f565b6040516101269190611339565b61016561054a565b6003546040516001600160a01b039091168152602001610126565b61016561022b36600461134b565b61055d565b61016561023e366004610ee9565b61056c565b610165610251366004611384565b61066c565b6101426102643660046113f3565b6106fe565b61016561027736600461141b565b61072b565b61016561028a36600461147b565b61078a565b61011c61029d366004611059565b60046020525f908152604090205481565b5f818152602081815260408083206001600160a01b03861684529091529020545b92915050565b5f6001600160e01b03198216636cdb3d1360e11b148061030557506001600160e01b031982166303a24d0760e21b145b806102cf57506301ffc9a760e01b6001600160e01b03198316146102cf565b61032c6107c4565b610335816107f1565b50565b60606002805461034790611494565b80601f016020809104026020016040519081016040528092919081815260200182805461037390611494565b80156103be5780601f10610395576101008083540402835291602001916103be565b820191905f5260205f20905b8154815290600101906020018083116103a157829003601f168201915b50505050509050919050565b6103d26107c4565b6103ec83838360405180602001604052805f8152506107fd565b5f82815260046020526040812080548392906104099084906114cc565b9091555050505050565b336001600160a01b0386168114801590610434575061043286826106fe565b155b1561046a5760405163711bec9160e11b81526001600160a01b038083166004830152871660248201526044015b60405180910390fd5b6104778686868686610858565b505050505050565b606081518351146104b05781518351604051635b05999160e01b815260048101929092526024820152604401610461565b5f835167ffffffffffffffff8111156104cb576104cb610f48565b6040519080825280602002602001820160405280156104f4578160200160208202803683370190505b5090505f5b84518110156105425760208082028601015161051d906020808402870101516102ae565b82828151811061052f5761052f6114eb565b60209081029190910101526001016104f9565b509392505050565b6105526107c4565b61055b5f6108bd565b565b61056833838361090e565b5050565b6105746107c4565b5f61057f83836102ae565b116105cc5760405162461bcd60e51b815260206004820152601f60248201527f486f6c64657220646f6573206e6f74206f776e2074686973207469636b6574006044820152606401610461565b5f8181526005602090815260408083206001600160a01b038616845290915290205460ff161561063e5760405162461bcd60e51b815260206004820152601960248201527f5469636b657420616c726561647920636865636b656420696e000000000000006044820152606401610461565b5f9081526005602090815260408083206001600160a01b03909416835292905220805460ff19166001179055565b6106746107c4565b61068e83838360405180602001604052805f8152506109a2565b5f5b82518110156106f8578181815181106106ab576106ab6114eb565b602002602001015160045f8584815181106106c8576106c86114eb565b602002602001015181526020019081526020015f205f8282546106eb91906114cc565b9091555050600101610690565b50505050565b6001600160a01b039182165f90815260016020908152604080832093909416825291909152205460ff1690565b336001600160a01b038616811480159061074c575061074a86826106fe565b155b1561077d5760405163711bec9160e11b81526001600160a01b03808316600483015287166024820152604401610461565b61047786868686866109d8565b6107926107c4565b6001600160a01b0381166107bb57604051631e4fbdf760e01b81525f6004820152602401610461565b610335816108bd565b6003546001600160a01b0316331461055b5760405163118cdaa760e01b8152336004820152602401610461565b60026105688282611548565b6001600160a01b03841661082657604051632bfa23e760e11b81525f6004820152602401610461565b604080516001808252602082018690528183019081526060820185905260808201909252906104775f87848487610a64565b6001600160a01b03841661088157604051632bfa23e760e11b81525f6004820152602401610461565b6001600160a01b0385166108a957604051626a0d4560e21b81525f6004820152602401610461565b6108b68585858585610a64565b5050505050565b600380546001600160a01b038381166001600160a01b0319831681179093556040519116919082907f8be0079c531659141344cd1fd0a4f28419497f9722a3daafe3b4186f6b6457e0905f90a35050565b6001600160a01b0382166109365760405162ced3e160e81b81525f6004820152602401610461565b6001600160a01b038381165f81815260016020908152604080832094871680845294825291829020805460ff191686151590811790915591519182527f17307eab39ab6107e8899845ad3d59bd9653f200f220920489ca2b5937696c31910160405180910390a3505050565b6001600160a01b0384166109cb57604051632bfa23e760e11b81525f6004820152602401610461565b6106f85f85858585610a64565b6001600160a01b038416610a0157604051632bfa23e760e11b81525f6004820152602401610461565b6001600160a01b038516610a2957604051626a0d4560e21b81525f6004820152602401610461565b60408051600180825260208201869052818301908152606082018590526080820190925290610a5b8787848487610a64565b50505050505050565b610a7085858585610ab7565b6001600160a01b038416156108b65782513390600103610aa95760208481015190840151610aa2838989858589610cc6565b5050610477565b610477818787878787610de7565b8051825114610ae65781518151604051635b05999160e01b815260048101929092526024820152604401610461565b335f5b8351811015610be8576020818102858101820151908501909101516001600160a01b03881615610b9a575f828152602081815260408083206001600160a01b038c16845290915290205481811015610b74576040516303dee4c560e01b81526001600160a01b038a166004820152602481018290526044810183905260648101849052608401610461565b5f838152602081815260408083206001600160a01b038d16845290915290209082900390555b6001600160a01b03871615610bde575f828152602081815260408083206001600160a01b038b16845290915281208054839290610bd89084906114cc565b90915550505b5050600101610ae9565b508251600103610c685760208301515f906020840151909150856001600160a01b0316876001600160a01b0316846001600160a01b03167fc3d58168c5ae7397731d063d5bbf3d657854427343f4c083240f7aacaa2d0f628585604051610c59929190918252602082015260400190565b60405180910390a450506108b6565b836001600160a01b0316856001600160a01b0316826001600160a01b03167f4a39dc06d4c0dbc64b70af90fd698a233a518aa5d07e595d983b8c0526c8f7fb8686604051610cb7929190611604565b60405180910390a45050505050565b6001600160a01b0384163b156104775760405163f23a6e6160e01b81526001600160a01b0385169063f23a6e6190610d0a9089908990889088908890600401611631565b6020604051808303815f875af1925050508015610d44575060408051601f3d908101601f19168201909252610d4191810190611675565b60015b610dab573d808015610d71576040519150601f19603f3d011682016040523d82523d5f602084013e610d76565b606091505b5080515f03610da357604051632bfa23e760e11b81526001600160a01b0386166004820152602401610461565b805160208201fd5b6001600160e01b0319811663f23a6e6160e01b14610a5b57604051632bfa23e760e11b81526001600160a01b0386166004820152602401610461565b6001600160a01b0384163b156104775760405163bc197c8160e01b81526001600160a01b0385169063bc197c8190610e2b9089908990889088908890600401611690565b6020604051808303815f875af1925050508015610e65575060408051601f3d908101601f19168201909252610e6291810190611675565b60015b610e92573d808015610d71576040519150601f19603f3d011682016040523d82523d5f602084013e610d76565b6001600160e01b0319811663bc197c8160e01b14610a5b57604051632bfa23e760e11b81526001600160a01b0386166004820152602401610461565b80356001600160a01b0381168114610ee4575f80fd5b919050565b5f8060408385031215610efa575f80fd5b610f0383610ece565b946020939093013593505050565b6001600160e01b031981168114610335575f80fd5b5f60208284031215610f36575f80fd5b8135610f4181610f11565b9392505050565b634e487b7160e01b5f52604160045260245ffd5b604051601f8201601f1916810167ffffffffffffffff81118282101715610f8557610f85610f48565b604052919050565b5f67ffffffffffffffff831115610fa657610fa6610f48565b610fb9601f8401601f1916602001610f5c565b9050828152838383011115610fcc575f80fd5b828260208301375f602084830101529392505050565b5f60208284031215610ff2575f80fd5b813567ffffffffffffffff811115611008575f80fd5b8201601f81018413611018575f80fd5b61102784823560208401610f8d565b949350505050565b5f8060408385031215611040575f80fd5b8235915061105060208401610ece565b90509250929050565b5f60208284031215611069575f80fd5b5035919050565b5f81518084525f5b8181101561109457602081850181015186830182015201611078565b505f602082860101526020601f19601f83011685010191505092915050565b602081525f610f416020830184611070565b5f805f606084860312156110d7575f80fd5b6110e084610ece565b95602085013595506040909401359392505050565b5f67ffffffffffffffff82111561110e5761110e610f48565b5060051b60200190565b5f82601f830112611127575f80fd5b8135602061113c611137836110f5565b610f5c565b8083825260208201915060208460051b87010193508684111561115d575f80fd5b602086015b848110156111795780358352918301918301611162565b509695505050505050565b5f82601f830112611193575f80fd5b610f4183833560208501610f8d565b5f805f805f60a086880312156111b6575f80fd5b6111bf86610ece565b94506111cd60208701610ece565b9350604086013567ffffffffffffffff808211156111e9575f80fd5b6111f589838a01611118565b9450606088013591508082111561120a575f80fd5b61121689838a01611118565b9350608088013591508082111561122b575f80fd5b5061123888828901611184565b9150509295509295909350565b5f8060408385031215611256575f80fd5b823567ffffffffffffffff8082111561126d575f80fd5b818501915085601f830112611280575f80fd5b81356020611290611137836110f5565b82815260059290921b840181019181810190898411156112ae575f80fd5b948201945b838610156112d3576112c486610ece565b825294820194908201906112b3565b965050860135925050808211156112e8575f80fd5b506112f585828601611118565b9150509250929050565b5f815180845260208085019450602084015f5b8381101561132e57815187529582019590820190600101611312565b509495945050505050565b602081525f610f4160208301846112ff565b5f806040838503121561135c575f80fd5b61136583610ece565b915060208301358015158114611379575f80fd5b809150509250929050565b5f805f60608486031215611396575f80fd5b61139f84610ece565b9250602084013567ffffffffffffffff808211156113bb575f80fd5b6113c787838801611118565b935060408601359150808211156113dc575f80fd5b506113e986828701611118565b9150509250925092565b5f8060408385031215611404575f80fd5b61140d83610ece565b915061105060208401610ece565b5f805f805f60a0868803121561142f575f80fd5b61143886610ece565b945061144660208701610ece565b93506040860135925060608601359150608086013567ffffffffffffffff81111561146f575f80fd5b61123888828901611184565b5f6020828403121561148b575f80fd5b610f4182610ece565b600181811c908216806114a857607f821691505b6020821081036114c657634e487b7160e01b5f52602260045260245ffd5b50919050565b808201808211156102cf57634e487b7160e01b5f52601160045260245ffd5b634e487b7160e01b5f52603260045260245ffd5b601f82111561154357805f5260205f20601f840160051c810160208510156115245750805b601f840160051c820191505b818110156108b6575f8155600101611530565b505050565b815167ffffffffffffffff81111561156257611562610f48565b611576816115708454611494565b846114ff565b602080601f8311600181146115a9575f84156115925750858301515b5f19600386901b1c1916600185901b178555610477565b5f85815260208120601f198616915b828110156115d7578886015182559484019460019091019084016115b8565b50858210156115f457878501515f19600388901b60f8161c191681555b5050505050600190811b01905550565b604081525f61161660408301856112ff565b828103602084015261162881856112ff565b95945050505050565b6001600160a01b03868116825285166020820152604081018490526060810183905260a0608082018190525f9061166a90830184611070565b979650505050505050565b5f60208284031215611685575f80fd5b8151610f4181610f11565b6001600160a01b0386811682528516602082015260a0604082018190525f906116bb908301866112ff565b82810360608401526116cd81866112ff565b905082810360808401526116e18185611070565b9897505050505050505056fea26469706673582212201fe2364ace1299b8ad0dfc43992760c9883538ce2068decb6e6aea8bd6f5bbde64736f6c63430008180033608060405234801562000010575f80fd5b5060405162001d4b38038062001d4b833981016040819052620000339162000320565b6200003f5f3062000197565b506001600160a01b038116156200005e576200005c5f8262000197565b505b5f5b8351811015620000fd57620000b87fb09aa5aeb3702cfd50b6b62bc4532604938f21248a27a1d5ca736082b6819cc1858381518110620000a457620000a4620003a2565b60200260200101516200019760201b60201c565b50620000f37ffd643c72710c63c0180259aba6b2d05451e3591a24e58b62239378085726f783858381518110620000a457620000a4620003a2565b5060010162000060565b505f5b82518110156200014e57620001447fd8aa0f3194971a2a116679f7c2090f6939c8d4e01a2a8d7e41d55e5351469e63848381518110620000a457620000a4620003a2565b5060010162000100565b506002849055604080515f8152602081018690527f11c24f4ead16507c69ac467fbd5e4eed5fb5c699626d2cc6d66421df253886d5910160405180910390a150505050620003b6565b5f828152602081815260408083206001600160a01b038516845290915281205460ff166200023a575f838152602081815260408083206001600160a01b03861684529091529020805460ff19166001179055620001f13390565b6001600160a01b0316826001600160a01b0316847f2f8788117e7eff1d82e926ec794901d17c78024a50270940304540a733656f0d60405160405180910390a45060016200023d565b505f5b92915050565b634e487b7160e01b5f52604160045260245ffd5b80516001600160a01b03811681146200026e575f80fd5b919050565b5f82601f83011262000283575f80fd5b815160206001600160401b0380831115620002a257620002a262000243565b8260051b604051601f19603f83011681018181108482111715620002ca57620002ca62000243565b6040529384526020818701810194908101925087851115620002ea575f80fd5b6020870191505b848210156200031557620003058262000257565b83529183019190830190620002f1565b979650505050505050565b5f805f806080858703121562000334575f80fd5b845160208601519094506001600160401b038082111562000353575f80fd5b620003618883890162000273565b9450604087015191508082111562000377575f80fd5b50620003868782880162000273565b925050620003976060860162000257565b905092959194509250565b634e487b7160e01b5f52603260045260245ffd5b61198780620003c45f395ff3fe6080604052600436106101b2575f3560e01c80638065657f116100e7578063bc197c8111610087578063d547741f11610062578063d547741f14610546578063e38335e514610565578063f23a6e6114610578578063f27a0c92146105a3575f80fd5b8063bc197c81146104d1578063c4d252f5146104fc578063d45c44351461051b575f80fd5b806391d14854116100c257806391d148541461044d578063a217fddf1461046c578063b08e51c01461047f578063b1c5f427146104b2575f80fd5b80638065657f146103dc5780638f2a0bb0146103fb5780638f61f4f51461041a575f80fd5b80632ab0f5291161015257806336568abe1161012d57806336568abe14610353578063584b153e1461037257806364d62353146103915780637958004c146103b0575f80fd5b80632ab0f529146102f65780632f2ff15d1461031557806331d5075014610334575f80fd5b8063134008d31161018d578063134008d31461025357806313bc9f2014610266578063150b7a0214610285578063248a9ca3146102c8575f80fd5b806301d5062a146101bd57806301ffc9a7146101de57806307bd026514610212575f80fd5b366101b957005b5f80fd5b3480156101c8575f80fd5b506101dc6101d7366004611162565b6105b7565b005b3480156101e9575f80fd5b506101fd6101f83660046111d0565b61068b565b60405190151581526020015b60405180910390f35b34801561021d575f80fd5b506102457fd8aa0f3194971a2a116679f7c2090f6939c8d4e01a2a8d7e41d55e5351469e6381565b604051908152602001610209565b6101dc6102613660046111f7565b61069b565b348015610271575f80fd5b506101fd61028036600461125d565b61074d565b348015610290575f80fd5b506102af61029f366004611323565b630a85bd0160e11b949350505050565b6040516001600160e01b03199091168152602001610209565b3480156102d3575f80fd5b506102456102e236600461125d565b5f9081526020819052604090206001015490565b348015610301575f80fd5b506101fd61031036600461125d565b610772565b348015610320575f80fd5b506101dc61032f366004611386565b61077a565b34801561033f575f80fd5b506101fd61034e36600461125d565b6107a4565b34801561035e575f80fd5b506101dc61036d366004611386565b6107c8565b34801561037d575f80fd5b506101fd61038c36600461125d565b610800565b34801561039c575f80fd5b506101dc6103ab36600461125d565b610845565b3480156103bb575f80fd5b506103cf6103ca36600461125d565b6108b8565b60405161020991906113c4565b3480156103e7575f80fd5b506102456103f63660046111f7565b610900565b348015610406575f80fd5b506101dc61041536600461142a565b61093e565b348015610425575f80fd5b506102457fb09aa5aeb3702cfd50b6b62bc4532604938f21248a27a1d5ca736082b6819cc181565b348015610458575f80fd5b506101fd610467366004611386565b610aca565b348015610477575f80fd5b506102455f81565b34801561048a575f80fd5b506102457ffd643c72710c63c0180259aba6b2d05451e3591a24e58b62239378085726f78381565b3480156104bd575f80fd5b506102456104cc3660046114d2565b610af2565b3480156104dc575f80fd5b506102af6104eb3660046115ee565b63bc197c8160e01b95945050505050565b348015610507575f80fd5b506101dc61051636600461125d565b610b36565b348015610526575f80fd5b5061024561053536600461125d565b5f9081526001602052604090205490565b348015610551575f80fd5b506101dc610560366004611386565b610be0565b6101dc6105733660046114d2565b610c04565b348015610583575f80fd5b506102af610592366004611690565b63f23a6e6160e01b95945050505050565b3480156105ae575f80fd5b50600254610245565b7fb09aa5aeb3702cfd50b6b62bc4532604938f21248a27a1d5ca736082b6819cc16105e181610d85565b5f6105f0898989898989610900565b90506105fc8184610d92565b5f817f4cf4410cc57040e44862ef0f45f3dd5a5e02db8eb8add648d4b0e236f1d07dca8b8b8b8b8b8a60405161063796959493929190611717565b60405180910390a3831561068057807f20fda5fd27a1ea7bf5b9567f143ac5470bb059374a27e8f67cb44f946f6d03878560405161067791815260200190565b60405180910390a25b505050505050505050565b5f61069582610e23565b92915050565b7fd8aa0f3194971a2a116679f7c2090f6939c8d4e01a2a8d7e41d55e5351469e636106c6815f610aca565b6106d4576106d48133610e47565b5f6106e3888888888888610900565b90506106ef8185610e84565b6106fb88888888610ed2565b5f817fc2617efa69bab66782fa219543714338489c4e9e178271560a91b82c3f612b588a8a8a8a6040516107329493929190611753565b60405180910390a361074381610f46565b5050505050505050565b5f60025b61075a836108b8565b600381111561076b5761076b6113b0565b1492915050565b5f6003610751565b5f8281526020819052604090206001015461079481610d85565b61079e8383610f71565b50505050565b5f806107af836108b8565b60038111156107c0576107c06113b0565b141592915050565b6001600160a01b03811633146107f15760405163334bd91960e11b815260040160405180910390fd5b6107fb8282611000565b505050565b5f8061080b836108b8565b90506001816003811115610821576108216113b0565b148061083e5750600281600381111561083c5761083c6113b0565b145b9392505050565b333081146108765760405163e2850c5960e01b81526001600160a01b03821660048201526024015b60405180910390fd5b60025460408051918252602082018490527f11c24f4ead16507c69ac467fbd5e4eed5fb5c699626d2cc6d66421df253886d5910160405180910390a150600255565b5f81815260016020526040812054805f036108d557505f92915050565b600181036108e65750600392915050565b428111156108f75750600192915050565b50600292915050565b5f86868686868660405160200161091c96959493929190611717565b6040516020818303038152906040528051906020012090509695505050505050565b7fb09aa5aeb3702cfd50b6b62bc4532604938f21248a27a1d5ca736082b6819cc161096881610d85565b88871415806109775750888514155b156109a9576040516001624fcdef60e01b03198152600481018a9052602481018690526044810188905260640161086d565b5f6109ba8b8b8b8b8b8b8b8b610af2565b90506109c68184610d92565b5f5b8a811015610a7b5780827f4cf4410cc57040e44862ef0f45f3dd5a5e02db8eb8add648d4b0e236f1d07dca8e8e85818110610a0557610a05611784565b9050602002016020810190610a1a9190611798565b8d8d86818110610a2c57610a2c611784565b905060200201358c8c87818110610a4557610a45611784565b9050602002810190610a5791906117b1565b8c8b604051610a6b96959493929190611717565b60405180910390a36001016109c8565b508315610abd57807f20fda5fd27a1ea7bf5b9567f143ac5470bb059374a27e8f67cb44f946f6d038785604051610ab491815260200190565b60405180910390a25b5050505050505050505050565b5f918252602082815260408084206001600160a01b0393909316845291905290205460ff1690565b5f8888888888888888604051602001610b12989796959493929190611884565b60405160208183030381529060405280519060200120905098975050505050505050565b7ffd643c72710c63c0180259aba6b2d05451e3591a24e58b62239378085726f783610b6081610d85565b610b6982610800565b610ba55781610b786002611069565b610b826001611069565b604051635ead8eb560e01b8152600481019390935217602482015260440161086d565b5f828152600160205260408082208290555183917fbaa1eb22f2a492ba1a5fea61b8df4d27c6c8b5f3971e63bb58fa14ff72eedb7091a25050565b5f82815260208190526040902060010154610bfa81610d85565b61079e8383611000565b7fd8aa0f3194971a2a116679f7c2090f6939c8d4e01a2a8d7e41d55e5351469e63610c2f815f610aca565b610c3d57610c3d8133610e47565b8786141580610c4c5750878414155b15610c7e576040516001624fcdef60e01b0319815260048101899052602481018590526044810187905260640161086d565b5f610c8f8a8a8a8a8a8a8a8a610af2565b9050610c9b8185610e84565b5f5b89811015610d6f575f8b8b83818110610cb857610cb8611784565b9050602002016020810190610ccd9190611798565b90505f8a8a84818110610ce257610ce2611784565b905060200201359050365f8a8a86818110610cff57610cff611784565b9050602002810190610d1191906117b1565b91509150610d2184848484610ed2565b84867fc2617efa69bab66782fa219543714338489c4e9e178271560a91b82c3f612b5886868686604051610d589493929190611753565b60405180910390a350505050806001019050610c9d565b50610d7981610f46565b50505050505050505050565b610d8f8133610e47565b50565b610d9b826107a4565b15610dcc5781610daa5f611069565b604051635ead8eb560e01b81526004810192909252602482015260440161086d565b5f610dd660025490565b905080821015610e0357604051635433660960e01b8152600481018390526024810182905260440161086d565b610e0d8242611923565b5f93845260016020526040909320929092555050565b5f6001600160e01b03198216630271189760e51b148061069557506106958261108b565b610e518282610aca565b610e805760405163e2517d3f60e01b81526001600160a01b03821660048201526024810183905260440161086d565b5050565b610e8d8261074d565b610e9c5781610daa6002611069565b8015801590610eb15750610eaf81610772565b155b15610e805760405163121534c360e31b81526004810182905260240161086d565b5f80856001600160a01b0316858585604051610eef929190611942565b5f6040518083038185875af1925050503d805f8114610f29576040519150601f19603f3d011682016040523d82523d5f602084013e610f2e565b606091505b5091509150610f3d82826110bf565b50505050505050565b610f4f8161074d565b610f5e5780610daa6002611069565b5f90815260016020819052604090912055565b5f610f7c8383610aca565b610ff9575f838152602081815260408083206001600160a01b03861684529091529020805460ff19166001179055610fb13390565b6001600160a01b0316826001600160a01b0316847f2f8788117e7eff1d82e926ec794901d17c78024a50270940304540a733656f0d60405160405180910390a4506001610695565b505f610695565b5f61100b8383610aca565b15610ff9575f838152602081815260408083206001600160a01b0386168085529252808320805460ff1916905551339286917ff6391f5c32d9c69d2a47ea670b442974b53935d1edc7fd64eb21e047a839171b9190a4506001610695565b5f81600381111561107c5761107c6113b0565b600160ff919091161b92915050565b5f6001600160e01b03198216637965db0b60e01b148061069557506301ffc9a760e01b6001600160e01b0319831614610695565b6060826110d4576110cf826110db565b610695565b5080610695565b8051156110ea57805160208201fd5b60405163d6bda27560e01b815260040160405180910390fd5b80356001600160a01b0381168114611119575f80fd5b919050565b5f8083601f84011261112e575f80fd5b5081356001600160401b03811115611144575f80fd5b60208301915083602082850101111561115b575f80fd5b9250929050565b5f805f805f805f60c0888a031215611178575f80fd5b61118188611103565b96506020880135955060408801356001600160401b038111156111a2575f80fd5b6111ae8a828b0161111e565b989b979a50986060810135976080820135975060a09091013595509350505050565b5f602082840312156111e0575f80fd5b81356001600160e01b03198116811461083e575f80fd5b5f805f805f8060a0878903121561120c575f80fd5b61121587611103565b95506020870135945060408701356001600160401b03811115611236575f80fd5b61124289828a0161111e565b979a9699509760608101359660809091013595509350505050565b5f6020828403121561126d575f80fd5b5035919050565b634e487b7160e01b5f52604160045260245ffd5b604051601f8201601f191681016001600160401b03811182821017156112b0576112b0611274565b604052919050565b5f82601f8301126112c7575f80fd5b81356001600160401b038111156112e0576112e0611274565b6112f3601f8201601f1916602001611288565b818152846020838601011115611307575f80fd5b816020850160208301375f918101602001919091529392505050565b5f805f8060808587031215611336575f80fd5b61133f85611103565b935061134d60208601611103565b92506040850135915060608501356001600160401b0381111561136e575f80fd5b61137a878288016112b8565b91505092959194509250565b5f8060408385031215611397575f80fd5b823591506113a760208401611103565b90509250929050565b634e487b7160e01b5f52602160045260245ffd5b60208101600483106113e457634e487b7160e01b5f52602160045260245ffd5b91905290565b5f8083601f8401126113fa575f80fd5b5081356001600160401b03811115611410575f80fd5b6020830191508360208260051b850101111561115b575f80fd5b5f805f805f805f805f60c08a8c031215611442575f80fd5b89356001600160401b0380821115611458575f80fd5b6114648d838e016113ea565b909b50995060208c013591508082111561147c575f80fd5b6114888d838e016113ea565b909950975060408c01359150808211156114a0575f80fd5b506114ad8c828d016113ea565b9a9d999c50979a969997986060880135976080810135975060a0013595509350505050565b5f805f805f805f8060a0898b0312156114e9575f80fd5b88356001600160401b03808211156114ff575f80fd5b61150b8c838d016113ea565b909a50985060208b0135915080821115611523575f80fd5b61152f8c838d016113ea565b909850965060408b0135915080821115611547575f80fd5b506115548b828c016113ea565b999c989b509699959896976060870135966080013595509350505050565b5f82601f830112611581575f80fd5b813560206001600160401b0382111561159c5761159c611274565b8160051b6115ab828201611288565b92835284810182019282810190878511156115c4575f80fd5b83870192505b848310156115e3578235825291830191908301906115ca565b979650505050505050565b5f805f805f60a08688031215611602575f80fd5b61160b86611103565b945061161960208701611103565b935060408601356001600160401b0380821115611634575f80fd5b61164089838a01611572565b94506060880135915080821115611655575f80fd5b61166189838a01611572565b93506080880135915080821115611676575f80fd5b50611683888289016112b8565b9150509295509295909350565b5f805f805f60a086880312156116a4575f80fd5b6116ad86611103565b94506116bb60208701611103565b9350604086013592506060860135915060808601356001600160401b038111156116e3575f80fd5b611683888289016112b8565b81835281816020850137505f828201602090810191909152601f909101601f19169091010190565b60018060a01b038716815285602082015260a060408201525f61173e60a0830186886116ef565b60608301949094525060800152949350505050565b60018060a01b0385168152836020820152606060408201525f61177a6060830184866116ef565b9695505050505050565b634e487b7160e01b5f52603260045260245ffd5b5f602082840312156117a8575f80fd5b61083e82611103565b5f808335601e198436030181126117c6575f80fd5b8301803591506001600160401b038211156117df575f80fd5b60200191503681900382131561115b575f80fd5b5f838385526020808601955060208560051b830101845f5b8781101561187757848303601f19018952813536889003601e19018112611830575f80fd5b870184810190356001600160401b0381111561184a575f80fd5b803603821315611858575f80fd5b6118638582846116ef565b9a86019a945050509083019060010161180b565b5090979650505050505050565b60a080825281018890525f8960c08301825b8b8110156118c4576001600160a01b036118af84611103565b16825260209283019290910190600101611896565b5083810360208501528881526001600160fb1b038911156118e3575f80fd5b8860051b9150818a6020830137018281036020908101604085015261190b90820187896117f3565b60608401959095525050608001529695505050505050565b8082018082111561069557634e487b7160e01b5f52601160045260245ffd5b818382375f910190815291905056fea2646970667358221220e5738c8adf535e9ac872c5d55eb6cf95cadd0f6d1cca6f45dc6594195b8a290064736f6c634300081800336080604052604051620010423803806200104283398101604081905262000026916200010a565b60015f81905580546001600160a01b038087166001600160a01b031992831617909255600280548684169083161790556003805492851692909116919091179055600562000075828262000299565b503460048190556006805460ff1916905515620000d0576006805460ff191660011790556004546040519081527fdedbe31fcfd8842a2ccb1ab927ec0ccbd3ea30eda90fa7bc43b1d3a511963cb29060200160405180910390a15b5050505062000365565b80516001600160a01b0381168114620000f1575f80fd5b919050565b634e487b7160e01b5f52604160045260245ffd5b5f805f80608085870312156200011e575f80fd5b6200012985620000da565b935060206200013a818701620000da565b93506200014a60408701620000da565b60608701519093506001600160401b038082111562000167575f80fd5b818801915088601f8301126200017b575f80fd5b815181811115620001905762000190620000f6565b604051601f8201601f19908116603f01168101908382118183101715620001bb57620001bb620000f6565b816040528281528b86848701011115620001d3575f80fd5b5f93505b82841015620001f65784840186015181850187015292850192620001d7565b5f86848301015280965050505050505092959194509250565b600181811c908216806200022457607f821691505b6020821081036200024357634e487b7160e01b5f52602260045260245ffd5b50919050565b601f8211156200029457805f5260205f20601f840160051c81016020851015620002705750805b601f840160051c820191505b8181101562000291575f81556001016200027c565b50505b505050565b81516001600160401b03811115620002b557620002b5620000f6565b620002cd81620002c684546200020f565b8462000249565b602080601f83116001811462000303575f8415620002eb5750858301515b5f19600386901b1c1916600185901b1785556200035d565b5f85815260208120601f198616915b82811015620003335788860151825594840194600190910190840162000312565b50858210156200035157878501515f19600388901b60f8161c191681555b505060018460011b0185555b505050505050565b610ccf80620003735f395ff3fe60806040526004361061009d575f3560e01c806389e1e82a1161006257806389e1e82a14610147578063a06aa1ab14610166578063c35905c61461017a578063cf6ad8761461019d578063d5025625146101b1578063fe25e00a146101d2575f80fd5b8063085d4883146100a85780630c3f6acf146100e4578063109e94cf1461010a578063135f85a6146101295780636daa2d4414610133575f80fd5b366100a457005b5f80fd5b3480156100b3575f80fd5b506001546100c7906001600160a01b031681565b6040516001600160a01b0390911681526020015b60405180910390f35b3480156100ef575f80fd5b506006546100fd9060ff1681565b6040516100db9190610b40565b348015610115575f80fd5b506002546100c7906001600160a01b031681565b6101316101f1565b005b34801561013e575f80fd5b5061013161033f565b348015610152575f80fd5b50610131610161366004610b66565b610459565b348015610171575f80fd5b5061013161070e565b348015610185575f80fd5b5061018f60045481565b6040519081526020016100db565b3480156101a8575f80fd5b5061013161087e565b3480156101bc575f80fd5b506101c5610a78565b6040516100db9190610b8c565b3480156101dd575f80fd5b506003546100c7906001600160a01b031681565b6002546001600160a01b031633146102245760405162461bcd60e51b815260040161021b90610bd8565b60405180910390fd5b61022c610b04565b5f60065460ff16600481111561024457610244610b2c565b146102a75760405162461bcd60e51b815260206004820152602d60248201527f41677265656d656e7420697320616c72656164792066756e646564206f72206860448201526c185cc81c1c9bd9dc995cdcd959609a1b606482015260840161021b565b5f34116102ee5760405162461bcd60e51b8152602060048201526015602482015274135d5cdd081cd95b9908115512081d1bc8199d5b99605a1b604482015260640161021b565b3460048190556006805460ff191660011790556040519081527fdedbe31fcfd8842a2ccb1ab927ec0ccbd3ea30eda90fa7bc43b1d3a511963cb29060200160405180910390a161033d60015f55565b565b6002546001600160a01b031633148061036257506001546001600160a01b031633145b6103ae5760405162461bcd60e51b815260206004820181905260248201527f4f6e6c7920706172746965732063616e20726169736520612064697370757465604482015260640161021b565b600160065460ff1660048111156103c7576103c7610b2c565b146104205760405162461bcd60e51b8152602060048201526024808201527f43616e206f6e6c7920726169736520612064697370757465207768656e2066756044820152631b99195960e21b606482015260840161021b565b6006805460ff1916600417905560405133907f0b3cd97b16a08a5c77357c276d248827ad32dfd56060f7c55d6255537ba3d962905f90a2565b6003546001600160a01b031633146104c45760405162461bcd60e51b815260206004820152602860248201527f4f6e6c792074686520617262697465722063616e20706572666f726d20746869604482015267399030b1ba34b7b760c11b606482015260840161021b565b6104cc610b04565b600460065460ff1660048111156104e5576104e5610b2c565b1461052a5760405162461bcd60e51b81526020600482015260156024820152744e6f206469737075746520746f207265736f6c766560581b604482015260640161021b565b80156105f5576006805460ff191660021790556001546040515f916001600160a01b03169047908381818185875af1925050503d805f8114610587576040519150601f19603f3d011682016040523d82523d5f602084013e61058c565b606091505b50509050806105ad5760405162461bcd60e51b815260040161021b90610c1f565b6001546040514781526001600160a01b03909116907fcef18548c703cafca45ac8a5a4f701d242e688abd402fa54b3e8fdac943f242c9060200160405180910390a2506106cb565b6006805460ff191660031790556002546040515f916001600160a01b03169047908381818185875af1925050503d805f811461064c576040519150601f19603f3d011682016040523d82523d5f602084013e610651565b606091505b50509050806106a25760405162461bcd60e51b815260206004820181905260248201527f4661696c656420746f2072657475726e2066756e647320746f20636c69656e74604482015260640161021b565b6040517e9e14b4e6c0626affef44c92ec47bc57df5dd6fc94b5abc5f6b9e8ada44edde905f90a1505b604051811515815233907fcea2bc33eef9c2bacf266c2b7b17f8f2db3c22582cb56c00467843e85d98021e9060200160405180910390a261070b60015f55565b50565b6002546001600160a01b031633146107385760405162461bcd60e51b815260040161021b90610bd8565b610740610b04565b600160065460ff16600481111561075957610759610b2c565b146107b05760405162461bcd60e51b815260206004820152602160248201527f41677265656d656e74206e6f7420696e20612066756e6461626c6520737461746044820152606560f81b606482015260840161021b565b6006805460ff191660021790556001546004546040515f926001600160a01b031691908381818185875af1925050503d805f8114610809576040519150601f19603f3d011682016040523d82523d5f602084013e61080e565b606091505b505090508061082f5760405162461bcd60e51b815260040161021b90610c1f565b6001546004546040519081526001600160a01b03909116907fcef18548c703cafca45ac8a5a4f701d242e688abd402fa54b3e8fdac943f242c9060200160405180910390a25061033d60015f55565b610886610b04565b6002546001600160a01b03163314806108a957506001546001600160a01b031633145b6108f55760405162461bcd60e51b815260206004820152601760248201527f4f6e6c7920706172746965732063616e2063616e63656c000000000000000000604482015260640161021b565b5f60065460ff16600481111561090d5761090d610b2c565b148061092f5750600160065460ff16600481111561092d5761092d610b2c565b145b6109935760405162461bcd60e51b815260206004820152602f60248201527f43616e6e6f742063616e63656c206120636f6d706c65746564206f722064697360448201526e1c1d5d1959081859dc99595b595b9d608a1b606482015260840161021b565b6006805460ff191660031790554715610a48576002546040515f916001600160a01b03169047908381818185875af1925050503d805f81146109f0576040519150601f19603f3d011682016040523d82523d5f602084013e6109f5565b606091505b5050905080610a465760405162461bcd60e51b815260206004820181905260248201527f4661696c656420746f2072657475726e2066756e647320746f20636c69656e74604482015260640161021b565b505b6040517e9e14b4e6c0626affef44c92ec47bc57df5dd6fc94b5abc5f6b9e8ada44edde905f90a161033d60015f55565b60058054610a8590610c61565b80601f0160208091040260200160405190810160405280929190818152602001828054610ab190610c61565b8015610afc5780601f10610ad357610100808354040283529160200191610afc565b820191905f5260205f20905b815481529060010190602001808311610adf57829003601f168201915b505050505081565b60025f5403610b2657604051633ee5aeb560e01b815260040160405180910390fd5b60025f55565b634e487b7160e01b5f52602160045260245ffd5b6020810160058310610b6057634e487b7160e01b5f52602160045260245ffd5b91905290565b5f60208284031215610b76575f80fd5b81358015158114610b85575f80fd5b9392505050565b5f602080835283518060208501525f5b81811015610bb857858101830151858201604001528201610b9c565b505f604082860101526040601f19601f8301168501019250505092915050565b60208082526027908201527f4f6e6c792074686520636c69656e742063616e20706572666f726d20746869736040820152661030b1ba34b7b760c91b606082015260800190565b60208082526022908201527f4661696c656420746f2073656e64207061796d656e7420746f2070726f76696460408201526132b960f11b606082015260800190565b600181811c90821680610c7557607f821691505b602082108103610c9357634e487b7160e01b5f52602260045260245ffd5b5091905056fea26469706673582212207b011a1d3d9ab8a02c32901328a755a067a4bb89418bf7c370feb06ac4aa839064736f6c63430008180033828634d95e775031b9ff576b159a8509d3053581a8c9c4d7d86899e0afcd882f047022b3cc521ffe0fff1979a955247c2d74a09be474ae7028658940721b313ca26469706673582212200fc2609523789309861c4c6f637adac4443ee1cb7748b8a14ee5c68ff02a96c764736f6c63430008180033828634d95e775031b9ff576b159a8509d3053581a8c9c4d7d86899e0afcd882f",
  "linkReferences": {},
  "deployedLinkReferences": {}
}