{
  "_format": "hh-sol-artifact-1",
  "contractName": "ServiceAgreement",
  "sourceName": "contracts/ServiceAgreement.sol",
  "abi": [
    {
      "inputs": [
        {
          "internalType": "address",
          "name": "_provider",
          "type": "address"
        },
        {
          "internalType": "address",
          "name": "_client",
          "type": "address"
        },
        {
          "internalType": "address",
          "name": "_arbiter",
          "type": "address"
        },
        {
          "internalType": "string",
          "name": "_terms",
          "type": "string"
        }
      ],
      "stateMutability": "payable",
      "type": "constructor"
    },
    {
      "inputs": [],
      "name": "ReentrancyGuardReentrantCall",
      "type": "error"
    },
    {
      "anonymous": false,
      "inputs": [],
      "name": "AgreementCancelled",
      "type": "event"
    },
    {
      "anonymous": false,
      "inputs": [
        {
          "indexed": true,
          "internalType": "address",
          "name": "provider",
          "type": "address"
        },
        {
          "indexed": false,
          "internalType": "uint256",
          "name": "amount",
          "type": "uint256"
        }
      ],
      "name": "AgreementCompleted",
      "type": "event"
    },
    {
      "anonymous": false,
      "inputs": [
        {
          "indexed": false,
          "internalType": "uint256",
          "name": "amount",
          "type": "uint256"
        }
      ],
      "name": "AgreementFunded",
      "type": "event"
    },
    {
      "anonymous": false,
      "inputs": [
        {
          "indexed": true,
          "internalType": "address",
          "name": "by",
          "type": "address"
        }
      ],
      "name": "DisputeRaised",
      "type": "event"
    },
    {
      "anonymous": false,
      "inputs": [
        {
          "indexed": true,
          "internalType": "address",
          "name": "by",
          "type": "address"
        },
        {
          "indexed": false,
          "internalType": "bool",
          "name": "releasePayment",
          "type": "bool"
        }
      ],
      "name": "DisputeResolved",
      "type": "event"
    },
    {
      "inputs": [],
      "name": "arbiter",
      "outputs": [
        {
          "internalType": "address",
          "name": "",
          "type": "address"
        }
      ],
      "stateMutability": "view",
      "type": "function"
    },
    {
      "inputs": [],
      "name": "cancelAgreement",
      "outputs": [],
      "stateMutability": "nonpayable",
      "type": "function"
    },
    {
      "inputs": [],
      "name": "client",
      "outputs": [
        {
          "internalType": "address",
          "name": "",
          "type": "address"
        }
      ],
      "stateMutability": "view",
      "type": "function"
    },
    {
      "inputs": [],
      "name": "confirmCompletion",
      "outputs": [],
      "stateMutability": "nonpayable",
      "type": "function"
    },
    {
      "inputs": [],
      "name": "currentState",
      "outputs": [
        {
          "internalType": "enum ServiceAgreement.State",
          "name": "",
          "type": "uint8"
        }
      ],
      "stateMutability": "view",
      "type": "function"
    },
    {
      "inputs": [],
      "name": "fundAgreement",
      "outputs": [],
      "stateMutability": "payable",
      "type": "function"
    },
    {
      "inputs": [],
      "name": "paymentAmount",
      "outputs": [
        {
          "internalType": "uint256",
          "name": "",
          "type": "uint256"
        }
      ],
      "stateMutability": "view",
      "type": "function"
    },
    {
      "inputs": [],
      "name": "provider",
      "outputs": [
        {
          "internalType": "address",
          "name": "",
          "type": "address"
        }
      ],
      "stateMutability": "view",
      "type": "function"
    },
    {
      "inputs": [],
      "name": "raiseDispute",
      "outputs": [],
      "stateMutability": "nonpayable",
      "type": "function"
    },
    {
      "inputs": [
        {
          "internalType": "bool",
          "name": "releasePayment",
          "type": "bool"
        }
      ],
      "name": "resolveDispute",
      "outputs": [],
      "stateMutability": "nonpayable",
      "type": "function"
    },
    {
      "inputs": [],
      "name": "terms",
      "outputs": [
        {
          "internalType": "string",
          "name": "",
          "type": "string"
        }
      ],
      "stateMutability": "view",
      "type": "function"
    },
    {
      "stateMutability": "payable",
      "type": "receive"
    }
  ],
  "bytecode": "0x6080604052604051620010423803806200104283398101604081905262000026916200010a565b60015f81905580546001600160a01b038087166001600160a01b031992831617909255600280548684169083161790556003805492851692909116919091179055600562000075828262000299565b503460048190556006805460ff1916905515620000d0576006805460ff191660011790556004546040519081527fdedbe31fcfd8842a2ccb1ab927ec0ccbd3ea30eda90fa7bc43b1d3a511963cb29060200160405180910390a15b5050505062000365565b80516001600160a01b0381168114620000f1575f80fd5b919050565b634e487b7160e01b5f52604160045260245ffd5b5f805f80608085870312156200011e575f80fd5b6200012985620000da565b935060206200013a818701620000da565b93506200014a60408701620000da565b60608701519093506001600160401b038082111562000167575f80fd5b818801915088601f8301126200017b575f80fd5b815181811115620001905762000190620000f6565b604051601f8201601f19908116603f01168101908382118183101715620001bb57620001bb620000f6565b816040528281528b86848701011115620001d3575f80fd5b5f93505b82841015620001f65784840186015181850187015292850192620001d7565b5f86848301015280965050505050505092959194509250565b600181811c908216806200022457607f821691505b6020821081036200024357634e487b7160e01b5f52602260045260245ffd5b50919050565b601f8211156200029457805f5260205f20601f840160051c81016020851015620002705750805b601f840160051c820191505b8181101562000291575f81556001016200027c565b50505b505050565b81516001600160401b03811115620002b557620002b5620000f6565b620002cd81620002c684546200020f565b8462000249565b602080601f83116001811462000303575f8415620002eb5750858301515b5f19600386901b1c1916600185901b1785556200035d565b5f85815260208120601f198616915b82811015620003335788860151825594840194600190910190840162000312565b50858210156200035157878501515f19600388901b60f8161c191681555b505060018460011b0185555b505050505050565b610ccf80620003735f395ff3fe60806040526004361061009d575f3560e01c806389e1e82a1161006257806389e1e82a14610147578063a06aa1ab14610166578063c35905c61461017a578063cf6ad8761461019d578063d5025625146101b1578063fe25e00a146101d2575f80fd5b8063085d4883146100a85780630c3f6acf146100e4578063109e94cf1461010a578063135f85a6146101295780636daa2d4414610133575f80fd5b366100a457005b5f80fd5b3480156100b3575f80fd5b506001546100c7906001600160a01b031681565b6040516001600160a01b0390911681526020015b60405180910390f35b3480156100ef575f80fd5b506006546100fd9060ff1681565b6040516100db9190610b40565b348015610115575f80fd5b506002546100c7906001600160a01b031681565b6101316101f1565b005b34801561013e575f80fd5b5061013161033f565b348015610152575f80fd5b50610131610161366004610b66565b610459565b348015610171575f80fd5b5061013161070e565b348015610185575f80fd5b5061018f60045481565b6040519081526020016100db565b3480156101a8575f80fd5b5061013161087e565b3480156101bc575f80fd5b506101c5610a78565b6040516100db9190610b8c565b3480156101dd575f80fd5b506003546100c7906001600160a01b031681565b6002546001600160a01b031633146102245760405162461bcd60e51b815260040161021b90610bd8565b60405180910390fd5b61022c610b04565b5f60065460ff16600481111561024457610244610b2c565b146102a75760405162461bcd60e51b815260206004820152602d60248201527f41677265656d656e7420697320616c72656164792066756e646564206f72206860448201526c185cc81c1c9bd9dc995cdcd959609a1b606482015260840161021b565b5f34116102ee5760405162461bcd60e51b8152602060048201526015602482015274135d5cdd081cd95b9908115512081d1bc8199d5b99605a1b604482015260640161021b565b3460048190556006805460ff191660011790556040519081527fdedbe31fcfd8842a2ccb1ab927ec0ccbd3ea30eda90fa7bc43b1d3a511963cb29060200160405180910390a161033d60015f55565b565b6002546001600160a01b031633148061036257506001546001600160a01b031633145b6103ae5760405162461bcd60e51b815260206004820181905260248201527f4f6e6c7920706172746965732063616e20726169736520612064697370757465604482015260640161021b565b600160065460ff1660048111156103c7576103c7610b2c565b146104205760405162461bcd60e51b8152602060048201526024808201527f43616e206f6e6c7920726169736520612064697370757465207768656e2066756044820152631b99195960e21b606482015260840161021b565b6006805460ff1916600417905560405133907f0b3cd97b16a08a5c77357c276d248827ad32dfd56060f7c55d6255537ba3d962905f90a2565b6003546001600160a01b031633146104c45760405162461bcd60e51b815260206004820152602860248201527f4f6e6c792074686520617262697465722063616e20706572666f726d20746869604482015267399030b1ba34b7b760c11b606482015260840161021b565b6104cc610b04565b600460065460ff1660048111156104e5576104e5610b2c565b1461052a5760405162461bcd60e51b81526020600482015260156024820152744e6f206469737075746520746f207265736f6c766560581b604482015260640161021b565b80156105f5576006805460ff191660021790556001546040515f916001600160a01b03169047908381818185875af1925050503d805f8114610587576040519150601f19603f3d011682016040523d82523d5f602084013e61058c565b606091505b50509050806105ad5760405162461bcd60e51b815260040161021b90610c1f565b6001546040514781526001600160a01b03909116907fcef18548c703cafca45ac8a5a4f701d242e688abd402fa54b3e8fdac943f242c9060200160405180910390a2506106cb565b6006805460ff191660031790556002546040515f916001600160a01b03169047908381818185875af1925050503d805f811461064c576040519150601f19603f3d011682016040523d82523d5f602084013e610651565b606091505b50509050806106a25760405162461bcd60e51b815260206004820181905260248201527f4661696c656420746f2072657475726e2066756e647320746f20636c69656e74604482015260640161021b565b6040517e9e14b4e6c0626affef44c92ec47bc57df5dd6fc94b5abc5f6b9e8ada44edde905f90a1505b604051811515815233907fcea2bc33eef9c2bacf266c2b7b17f8f2db3c22582cb56c00467843e85d98021e9060200160405180910390a261070b60015f55565b50565b6002546001600160a01b031633146107385760405162461bcd60e51b815260040161021b90610bd8565b610740610b04565b600160065460ff16600481111561075957610759610b2c565b146107b05760405162461bcd60e51b815260206004820152602160248201527f41677265656d656e74206e6f7420696e20612066756e6461626c6520737461746044820152606560f81b606482015260840161021b565b6006805460ff191660021790556001546004546040515f926001600160a01b031691908381818185875af1925050503d805f8114610809576040519150601f19603f3d011682016040523d82523d5f602084013e61080e565b606091505b505090508061082f5760405162461bcd60e51b815260040161021b90610c1f565b6001546004546040519081526001600160a01b03909116907fcef18548c703cafca45ac8a5a4f701d242e688abd402fa54b3e8fdac943f242c9060200160405180910390a25061033d60015f55565b610886610b04565b6002546001600160a01b03163314806108a957506001546001600160a01b031633145b6108f55760405162461bcd60e51b815260206004820152601760248201527f4f6e6c7920706172746965732063616e2063616e63656c000000000000000000604482015260640161021b565b5f60065460ff16600481111561090d5761090d610b2c565b148061092f5750600160065460ff16600481111561092d5761092d610b2c565b145b6109935760405162461bcd60e51b815260206004820152602f60248201527f43616e6e6f742063616e63656c206120636f6d706c65746564206f722064697360448201526e1c1d5d1959081859dc99595b595b9d608a1b606482015260840161021b565b6006805460ff191660031790554715610a48576002546040515f916001600160a01b03169047908381818185875af1925050503d805f81146109f0576040519150601f19603f3d011682016040523d82523d5f602084013e6109f5565b606091505b5050905080610a465760405162461bcd60e51b815260206004820181905260248201527f4661696c656420746f2072657475726e2066756e647320746f20636c69656e74604482015260640161021b565b505b6040517e9e14b4e6c0626affef44c92ec47bc57df5dd6fc94b5abc5f6b9e8ada44edde905f90a161033d60015f55565b60058054610a8590610c61565b80601f0160208091040260200160405190810160405280929190818152602001828054610ab190610c61565b8015610afc5780601f10610ad357610100808354040283529160200191610afc565b820191905f5260205f20905b815481529060010190602001808311610adf57829003601f168201915b505050505081565b60025f5403610b2657604051633ee5aeb560e01b815260040160405180910390fd5b60025f55565b634e487b7160e01b5f52602160045260245ffd5b6020810160058310610b6057634e487b7160e01b5f52602160045260245ffd5b91905290565b5f60208284031215610b76575f80fd5b81358015158114610b85575f80fd5b9392505050565b5f602080835283518060208501525f5b81811015610bb857858101830151858201604001528201610b9c565b505f604082860101526040601f19601f8301168501019250505092915050565b60208082526027908201527f4f6e6c792074686520636c69656e742063616e20706572666f726d20746869736040820152661030b1ba34b7b760c91b606082015260800190565b60208082526022908201527f4661696c656420746f2073656e64207061796d656e7420746f2070726f76696460408201526132b960f11b606082015260800190565b600181811c90821680610c7557607f821691505b602082108103610c9357634e487b7160e01b5f52602260045260245ffd5b5091905056fea26469706673582212207b011a1d3d9ab8a02c32901328a755a067a4bb89418bf7c370feb06ac4aa839064736f6c63430008180033",
  "linkReferences": {},
  "deployedLinkReferences": {}
}