{
  "_format": "hh-sol-artifact-1",
  "contractName": "KalaKrutToken",
  "sourceName": "contracts/KalaKrutToken.sol",
  "abi": [
    {
      "inputs": [
        {
          "internalType": "address",
          "name": "initialOwner",
          "type": "address"
        }
      ],
      "stateMutability": "nonpayable",
      "type": "constructor"
    },
    {
      "inputs": [],
      "name": "CheckpointUnorderedInsertion",
      "type": "error"
    },
    {
      "inputs": [],
      "name": "ECDSAInvalidSignature",
      "type": "error"
    },
    {
      "inputs": [
        {
          "internalType": "uint256",
          "name": "length",
          "type": "uint256"
        }
      ],
      "name": "ECDSAInvalidSignatureLength",
      "type": "error"
    },
    {
      "inputs": [
        {
          "internalType": "bytes32",
          "name": "s",
          "type": "bytes32"
        }
      ],
      "name": "ECDSAInvalidSignatureS",
      "type": "error"
    },
    {
      "inputs": [
        {
          "internalType": "uint256",
          "name": "increasedSupply",
          "type": "uint256"
        },
        {
          "internalType": "uint256",
          "name": "cap",
          "type": "uint256"
        }
      ],
      "name": "ERC20ExceededSafeSupply",
      "type": "error"
    },
    {
      "inputs": [
        {
          "internalType": "address",
          "name": "spender",
          "type": "address"
        },
        {
          "internalType": "uint256",
          "name": "allowance",
          "type": "uint256"
        },
        {
          "internalType": "uint256",
          "name": "needed",
          "type": "uint256"
        }
      ],
      "name": "ERC20InsufficientAllowance",
      "type": "error"
    },
    {
      "inputs": [
        {
          "internalType": "address",
          "name": "sender",
          "type": "address"
        },
        {
          "internalType": "uint256",
          "name": "balance",
          "type": "uint256"
        },
        {
          "internalType": "uint256",
          "name": "needed",
          "type": "uint256"
        }
      ],
      "name": "ERC20InsufficientBalance",
      "type": "error"
    },
    {
      "inputs": [
        {
          "internalType": "address",
          "name": "approver",
          "type": "address"
        }
      ],
      "name": "ERC20InvalidApprover",
      "type": "error"
    },
    {
      "inputs": [
        {
          "internalType": "address",
          "name": "receiver",
          "type": "address"
        }
      ],
      "name": "ERC20InvalidReceiver",
      "type": "error"
    },
    {
      "inputs": [
        {
          "internalType": "address",
          "name": "sender",
          "type": "address"
        }
      ],
      "name": "ERC20InvalidSender",
      "type": "error"
    },
    {
      "inputs": [
        {
          "internalType": "address",
          "name": "spender",
          "type": "address"
        }
      ],
      "name": "ERC20InvalidSpender",
      "type": "error"
    },
    {
      "inputs": [
        {
          "internalType": "uint256",
          "name": "deadline",
          "type": "uint256"
        }
      ],
      "name": "ERC2612ExpiredSignature",
      "type": "error"
    },
    {
      "inputs": [
        {
          "internalType": "address",
          "name": "signer",
          "type": "address"
        },
        {
          "internalType": "address",
          "name": "owner",
          "type": "address"
        }
      ],
      "name": "ERC2612InvalidSigner",
      "type": "error"
    },
    {
      "inputs": [
        {
          "internalType": "uint256",
          "name": "timepoint",
          "type": "uint256"
        },
        {
          "internalType": "uint48",
          "name": "clock",
          "type": "uint48"
        }
      ],
      "name": "ERC5805FutureLookup",
      "type": "error"
    },
    {
      "inputs": [],
      "name": "ERC6372InconsistentClock",
      "type": "error"
    },
    {
      "inputs": [
        {
          "internalType": "address",
          "name": "account",
          "type": "address"
        },
        {
          "internalType": "uint256",
          "name": "currentNonce",
          "type": "uint256"
        }
      ],
      "name": "InvalidAccountNonce",
      "type": "error"
    },
    {
      "inputs": [],
      "name": "InvalidShortString",
      "type": "error"
    },
    {
      "inputs": [
        {
          "internalType": "address",
          "name": "owner",
          "type": "address"
        }
      ],
      "name": "OwnableInvalidOwner",
      "type": "error"
    },
    {
      "inputs": [
        {
          "internalType": "address",
          "name": "account",
          "type": "address"
        }
      ],
      "name": "OwnableUnauthorizedAccount",
      "type": "error"
    },
    {
      "inputs": [
        {
          "internalType": "uint8",
          "name": "bits",
          "type": "uint8"
        },
        {
          "internalType": "uint256",
          "name": "value",
          "type": "uint256"
        }
      ],
      "name": "SafeCastOverflowedUintDowncast",
      "type": "error"
    },
    {
      "inputs": [
        {
          "internalType": "string",
          "name": "str",
          "type": "string"
        }
      ],
      "name": "StringTooLong",
      "type": "error"
    },
    {
      "inputs": [
        {
          "internalType": "uint256",
          "name": "expiry",
          "type": "uint256"
        }
      ],
      "name": "VotesExpiredSignature",
      "type": "error"
    },
    {
      "anonymous": false,
      "inputs": [
        {
          "indexed": true,
          "internalType": "address",
          "name": "owner",
          "type": "address"
        },
        {
          "indexed": true,
          "internalType": "address",
          "name": "spender",
          "type": "address"
        },
        {
          "indexed": false,
          "internalType": "uint256",
          "name": "value",
          "type": "uint256"
        }
      ],
      "name": "Approval",
      "type": "event"
    },
    {
      "anonymous": false,
      "inputs": [
        {
          "indexed": true,
          "internalType": "address",
          "name": "delegator",
          "type": "address"
        },
        {
          "indexed": true,
          "internalType": "address",
          "name": "fromDelegate",
          "type": "address"
        },
        {
          "indexed": true,
          "internalType": "address",
          "name": "toDelegate",
          "type": "address"
        }
      ],
      "name": "DelegateChanged",
      "type": "event"
    },
    {
      "anonymous": false,
      "inputs": [
        {
          "indexed": true,
          "internalType": "address",
          "name": "delegate",
          "type": "address"
        },
        {
          "indexed": false,
          "internalType": "uint256",
          "name": "previousVotes",
          "type": "uint256"
        },
        {
          "indexed": false,
          "internalType": "uint256",
          "name": "newVotes",
          "type": "uint256"
        }
      ],
      "name": "DelegateVotesChanged",
      "type": "event"
    },
    {
      "anonymous": false,
      "inputs": [],
      "name": "EIP712DomainChanged",
      "type": "event"
    },
    {
      "anonymous": false,
      "inputs": [
        {
          "indexed": true,
          "internalType": "address",
          "name": "previousOwner",
          "type": "address"
        },
        {
          "indexed": true,
          "internalType": "address",
          "name": "newOwner",
          "type": "address"
        }
      ],
      "name": "OwnershipTransferred",
      "type": "event"
    },
    {
      "anonymous": false,
      "inputs": [
        {
          "indexed": true,
          "internalType": "address",
          "name": "from",
          "type": "address"
        },
        {
          "indexed": true,
          "internalType": "address",
          "name": "to",
          "type": "address"
        },
        {
          "indexed": false,
          "internalType": "uint256",
          "name": "value",
          "type": "uint256"
        }
      ],
      "name": "Transfer",
      "type": "event"
    },
    {
      "inputs": [],
      "name": "CLOCK_MODE",
      "outputs": [
        {
          "internalType": "string",
          "name": "",
          "type": "string"
        }
      ],
      "stateMutability": "view",
      "type": "function"
    },
    {
      "inputs": [],
      "name": "DOMAIN_SEPARATOR",
      "outputs": [
        {
          "internalType": "bytes32",
          "name": "",
          "type": "bytes32"
        }
      ],
      "stateMutability": "view",
      "type": "function"
    },
    {
      "inputs": [
        {
          "internalType": "address",
          "name": "owner",
          "type": "address"
        },
        {
          "internalType": "address",
          "name": "spender",
          "type": "address"
        }
      ],
      "name": "allowance",
      "outputs": [
        {
          "internalType": "uint256",
          "name": "",
          "type": "uint256"
        }
      ],
      "stateMutability": "view",
      "type": "function"
    },
    {
      "inputs": [
        {
          "internalType": "address",
          "name": "spender",
          "type": "address"
        },
        {
          "internalType": "uint256",
          "name": "value",
          "type": "uint256"
        }
      ],
      "name": "approve",
      "outputs": [
        {
          "internalType": "bool",
          "name": "",
          "type": "bool"
        }
      ],
      "stateMutability": "nonpayable",
      "type": "function"
    },
    {
      "inputs": [
        {
          "internalType": "address",
          "name": "account",
          "type": "address"
        }
      ],
      "name": "balanceOf",
      "outputs": [
        {
          "internalType": "uint256",
          "name": "",
          "type": "uint256"
        }
      ],
      "stateMutability": "view",
      "type": "function"
    },
    {
      "inputs": [
        {
          "internalType": "address",
          "name": "account",
          "type": "address"
        },
        {
          "internalType": "uint32",
          "name": "pos",
          "type": "uint32"
        }
      ],
      "name": "checkpoints",
      "outputs": [
        {
          "components": [
            {
              "internalType": "uint48",
              "name": "_key",
              "type": "uint48"
            },
            {
              "internalType": "uint208",
              "name": "_value",
              "type": "uint208"
            }
          ],
          "internalType": "struct Checkpoints.Checkpoint208",
          "name": "",
          "type": "tuple"
        }
      ],
      "stateMutability": "view",
      "type": "function"
    },
    {
      "inputs": [],
      "name": "clock",
      "outputs": [
        {
          "internalType": "uint48",
          "name": "",
          "type": "uint48"
        }
      ],
      "stateMutability": "view",
      "type": "function"
    },
    {
      "inputs": [],
      "name": "decimals",
      "outputs": [
        {
          "internalType": "uint8",
          "name": "",
          "type": "uint8"
        }
      ],
      "stateMutability": "view",
      "type": "function"
    },
    {
      "inputs": [
        {
          "internalType": "address",
          "name": "delegatee",
          "type": "address"
        }
      ],
      "name": "delegate",
      "outputs": [],
      "stateMutability": "nonpayable",
      "type": "function"
    },
    {
      "inputs": [
        {
          "internalType": "address",
          "name": "delegatee",
          "type": "address"
        },
        {
          "internalType": "uint256",
          "name": "nonce",
          "type": "uint256"
        },
        {
          "internalType": "uint256",
          "name": "expiry",
          "type": "uint256"
        },
        {
          "internalType": "uint8",
          "name": "v",
          "type": "uint8"
        },
        {
          "internalType": "bytes32",
          "name": "r",
          "type": "bytes32"
        },
        {
          "internalType": "bytes32",
          "name": "s",
          "type": "bytes32"
        }
      ],
      "name": "delegateBySig",
      "outputs": [],
      "stateMutability": "nonpayable",
      "type": "function"
    },
    {
      "inputs": [
        {
          "internalType": "address",
          "name": "account",
          "type": "address"
        }
      ],
      "name": "delegates",
      "outputs": [
        {
          "internalType": "address",
          "name": "",
          "type": "address"
        }
      ],
      "stateMutability": "view",
      "type": "function"
    },
    {
      "inputs": [],
      "name": "eip712Domain",
      "outputs": [
        {
          "internalType": "bytes1",
          "name": "fields",
          "type": "bytes1"
        },
        {
          "internalType": "string",
          "name": "name",
          "type": "string"
        },
        {
          "internalType": "string",
          "name": "version",
          "type": "string"
        },
        {
          "internalType": "uint256",
          "name": "chainId",
          "type": "uint256"
        },
        {
          "internalType": "address",
          "name": "verifyingContract",
          "type": "address"
        },
        {
          "internalType": "bytes32",
          "name": "salt",
          "type": "bytes32"
        },
        {
          "internalType": "uint256[]",
          "name": "extensions",
          "type": "uint256[]"
        }
      ],
      "stateMutability": "view",
      "type": "function"
    },
    {
      "inputs": [
        {
          "internalType": "uint256",
          "name": "timepoint",
          "type": "uint256"
        }
      ],
      "name": "getPastTotalSupply",
      "outputs": [
        {
          "internalType": "uint256",
          "name": "",
          "type": "uint256"
        }
      ],
      "stateMutability": "view",
      "type": "function"
    },
    {
      "inputs": [
        {
          "internalType": "address",
          "name": "account",
          "type": "address"
        },
        {
          "internalType": "uint256",
          "name": "timepoint",
          "type": "uint256"
        }
      ],
      "name": "getPastVotes",
      "outputs": [
        {
          "internalType": "uint256",
          "name": "",
          "type": "uint256"
        }
      ],
      "stateMutability": "view",
      "type": "function"
    },
    {
      "inputs": [
        {
          "internalType": "address",
          "name": "account",
          "type": "address"
        }
      ],
      "name": "getVotes",
      "outputs": [
        {
          "internalType": "uint256",
          "name": "",
          "type": "uint256"
        }
      ],
      "stateMutability": "view",
      "type": "function"
    },
    {
      "inputs": [
        {
          "internalType": "address",
          "name": "to",
          "type": "address"
        },
        {
          "internalType": "uint256",
          "name": "amount",
          "type": "uint256"
        }
      ],
      "name": "mint",
      "outputs": [],
      "stateMutability": "nonpayable",
      "type": "function"
    },
    {
      "inputs": [],
      "name": "name",
      "outputs": [
        {
          "internalType": "string",
          "name": "",
          "type": "string"
        }
      ],
      "stateMutability": "view",
      "type": "function"
    },
    {
      "inputs": [
        {
          "internalType": "address",
          "name": "owner",
          "type": "address"
        }
      ],
      "name": "nonces",
      "outputs": [
        {
          "internalType": "uint256",
          "name": "",
          "type": "uint256"
        }
      ],
      "stateMutability": "view",
      "type": "function"
    },
    {
      "inputs": [
        {
          "internalType": "address",
          "name": "account",
          "type": "address"
        }
      ],
      "name": "numCheckpoints",
      "outputs": [
        {
          "internalType": "uint32",
          "name": "",
          "type": "uint32"
        }
      ],
      "stateMutability": "view",
      "type": "function"
    },
    {
      "inputs": [],
      "name": "owner",
      "outputs": [
        {
          "internalType": "address",
          "name": "",
          "type": "address"
        }
      ],
      "stateMutability": "view",
      "type": "function"
    },
    {
      "inputs": [
        {
          "internalType": "address",
          "name": "owner",
          "type": "address"
        },
        {
          "internalType": "address",
          "name": "spender",
          "type": "address"
        },
        {
          "internalType": "uint256",
          "name": "value",
          "type": "uint256"
        },
        {
          "internalType": "uint256",
          "name": "deadline",
          "type": "uint256"
        },
        {
          "internalType": "uint8",
          "name": "v",
          "type": "uint8"
        },
        {
          "internalType": "bytes32",
          "name": "r",
          "type": "bytes32"
        },
        {
          "internalType": "bytes32",
          "name": "s",
          "type": "bytes32"
        }
      ],
      "name": "permit",
      "outputs": [],
      "stateMutability": "nonpayable",
      "type": "function"
    },
    {
      "inputs": [],
      "name": "renounceOwnership",
      "outputs": [],
      "stateMutability": "nonpayable",
      "type": "function"
    },
    {
      "inputs": [],
      "name": "symbol",
      "outputs": [
        {
          "internalType": "string",
          "name": "",
          "type": "string"
        }
      ],
      "stateMutability": "view",
      "type": "function"
    },
    {
      "inputs": [],
      "name": "totalSupply",
      "outputs": [
        {
          "internalType": "uint256",
          "name": "",
          "type": "uint256"
        }
      ],
      "stateMutability": "view",
      "type": "function"
    },
    {
      "inputs": [
        {
          "internalType": "address",
          "name": "to",
          "type": "address"
        },
        {
          "internalType": "uint256",
          "name": "value",
          "type": "uint256"
        }
      ],
      "name": "transfer",
      "outputs": [
        {
          "internalType": "bool",
          "name": "",
          "type": "bool"
        }
      ],
      "stateMutability": "nonpayable",
      "type": "function"
    },
    {
      "inputs": [
        {
          "internalType": "address",
          "name": "from",
          "type": "address"
        },
        {
          "internalType": "address",
          "name": "to",
          "type": "address"
        },
        {
          "internalType": "uint256",
          "name": "value",
          "type": "uint256"
        }
      ],
      "name": "transferFrom",
      "outputs": [
        {
          "internalType": "bool",
          "name": "",
          "type": "bool"
        }
      ],
      "stateMutability": "nonpayable",
      "type": "function"
    },
    {
      "inputs": [
        {
          "internalType": "address",
          "name": "newOwner",
          "type": "address"
        }
      ],
      "name": "transferOwnership",
      "outputs": [],
      "stateMutability": "nonpayable",
      "type": "function"
    }
  ],
  "bytecode": "0x610160346200053b57601f62002a8d38819003918201601f19168301916001600160401b03831184841017620002f5578084926020946040528339810103126200053b57516001600160a01b03811681036200053b57604051620000638162000540565b600e81526d25b0b630a5b93aba102a37b5b2b760911b90816020820152604051916200008f8362000540565b600e8352602083015260405192620000a78462000540565b600384526212d2d560ea1b602085015260405192620000c68462000540565b60018452603160f81b60208501528051906001600160401b038211620002f55760035490600182811c9216801562000530575b6020831014620004035781601f849311620004bb575b50602090601f8311600114620004305760009262000424575b50508160011b916000199060031b1c1916176003555b83516001600160401b038111620002f557600454600181811c9116801562000419575b60208210146200040357601f81116200039d575b50602094601f8211600114620003305794819293949560009262000324575b50508160011b916000199060031b1c1916176004555b6001600160a01b038116156200030b57600580546001600160a01b039283166001600160a01b0319821681179092559091167f8be0079c531659141344cd1fd0a4f28419497f9722a3daafe3b4186f6b6457e0600080a36200020c816200055c565b906101209182526200021e8362000723565b9061014091825260208151910120928360e0526020815191012091610100938385524660a0526040519360208501917f8b73c3c69bb8fe3d512ecc4cf759cc79239f7b179b0ffacaa9a75d522b39400f8352604086015260608501524660808501523060a085015260a0845260c084019380851060018060401b03861117620002f557846040525190206080523060c0526121b19384620008dc853960805184611192015260a0518461124d015260c0518461115c015260e051846111e1015251836112070152518261084e015251816108780152f35b634e487b7160e01b600052604160045260246000fd5b604051631e4fbdf760e01b815260006004820152602490fd5b01519050388062000194565b601f19821695600460005260206000209160005b88811062000384575083600195969798106200036a575b505050811b01600455620001aa565b015160001960f88460031b161c191690553880806200035b565b9192602060018192868501518155019401920162000344565b60046000527f8a35acfbc15ff81a39ae7d344fd709f28e8600b4aa8c65c6b64bfe7fe36bd19b601f830160051c810160208410620003fb575b601f830160051c82018110620003ee57505062000175565b60008155600101620003d6565b5080620003d6565b634e487b7160e01b600052602260045260246000fd5b90607f169062000161565b01519050388062000128565b600360009081527fc2575a0e9e593c00f959f8c92f12db2869c3395a3b0502d05e2516446f71f85b9350601f198516905b818110620004a2575090846001959493921062000488575b505050811b016003556200013e565b015160001960f88460031b161c1916905538808062000479565b9293602060018192878601518155019501930162000461565b60036000529091507fc2575a0e9e593c00f959f8c92f12db2869c3395a3b0502d05e2516446f71f85b601f840160051c8101916020851062000525575b90601f859493920160051c01905b8181106200051557506200010f565b6000815584935060010162000506565b9091508190620004f8565b91607f1691620000f9565b600080fd5b604081019081106001600160401b03821117620002f557604052565b805160209081811015620005f95750601f8251116200059857808251920151908083106200058957501790565b82600019910360031b1b161790565b90604051809263305a27a960e01b82528060048301528251908160248401526000935b828510620005df575050604492506000838284010152601f80199101168101030190fd5b8481018201518686016044015293810193859350620005bb565b906001600160401b038211620002f557600654926001938481811c9116801562000718575b838210146200040357601f8111620006de575b5081601f841160011462000672575092829391839260009462000666575b50501b916000199060031b1c19161760065560ff90565b0151925038806200064f565b919083601f198116600660005284600020946000905b88838310620006c35750505010620006a9575b505050811b0160065560ff90565b015160001960f88460031b161c191690553880806200069b565b85870151885590960195948501948793509081019062000688565b600660005284601f84600020920160051c820191601f860160051c015b8281106200070b57505062000631565b60008155018590620006fb565b90607f16906200061e565b805160209081811015620007b15750601f8251116200075057808251920151908083106200058957501790565b90604051809263305a27a960e01b82528060048301528251908160248401526000935b82851062000797575050604492506000838284010152601f80199101168101030190fd5b848101820151868601604401529381019385935062000773565b906001600160401b038211620002f557600754926001938481811c91168015620008d0575b838210146200040357601f811162000896575b5081601f84116001146200082a57509282939183926000946200081e575b50501b916000199060031b1c19161760075560ff90565b01519250388062000807565b919083601f198116600760005284600020946000905b888383106200087b575050501062000861575b505050811b0160075560ff90565b015160001960f88460031b161c1916905538808062000853565b85870151885590960195948501948793509081019062000840565b600760005284601f84600020920160051c820191601f860160051c015b828110620008c3575050620007e9565b60008155018590620008b3565b90607f1690620007d656fe6080604052600436101561001257600080fd5b60003560e01c806306fdde03146101c7578063095ea7b3146101c257806318160ddd146101bd57806323b872dd146101b8578063313ce567146101b35780633644e515146101ae5780633a46b1a8146101a957806340c10f19146101a45780634bf5d7e91461019f578063587cde1e1461019a5780635c19a95c146101955780636fcfff451461019057806370a082311461018b578063715018a6146101865780637ecebe001461018157806384b0196e1461017c5780638da5cb5b146101775780638e539e8c1461017257806391ddadf41461016d57806395d89b41146101685780639ab24eb014610163578063a9059cbb1461015e578063c3cda52014610159578063d505accf14610154578063dd62ed3e1461014f578063f1127ed81461014a5763f2fde38b1461014557600080fd5b610ec3565b610e2e565b610dd6565b610ca2565b610bd9565b610b93565b610b4a565b610aa2565b610a76565b610957565b61092e565b610833565b6107f9565b61079b565b610762565b6106fa565b6106d8565b61069d565b61060b565b61051f565b610474565b610451565b610435565b610389565b61036b565b61033a565b610220565b919082519283825260005b8481106101f8575050826000602080949584010152601f8019910116010190565b6020818301810151848301820152016101d7565b90602061021d9281815201906101cc565b90565b34610309576000806003193601126103065760405190806003549061024482610f51565b808552916020916001918281169081156102d95750600114610281575b61027d8661027181880382611016565b6040519182918261020c565b0390f35b9350600384527fc2575a0e9e593c00f959f8c92f12db2869c3395a3b0502d05e2516446f71f85b5b8385106102c6575050505081016020016102718261027d38610261565b80548686018401529382019381016102a9565b905086955061027d9693506020925061027194915060ff191682840152151560051b820101929338610261565b80fd5b600080fd5b600435906001600160a01b038216820361030957565b602435906001600160a01b038216820361030957565b346103095760403660031901126103095761036061035661030e565b602435903361157a565b602060405160018152f35b34610309576000366003190112610309576020600254604051908152f35b34610309576060366003190112610309576103a261030e565b6103aa610324565b6001600160a01b0382166000908152600160209081526040808320338452909152902060443591905492600184016103f3575b6103e79350611060565b60405160018152602090f35b82841061040f5761040a836103e79503338361162e565b6103dd565b604051637dc7a0d960e11b81523360048201526024810185905260448101849052606490fd5b3461030957600036600319011261030957602060405160128152f35b3461030957600036600319011261030957602061046c611159565b604051908152f35b346103095760403660031901126103095761048d61030e565b60243561049943611273565b9165ffffffffffff83168210156104f4576001600160a01b03166000908152600a6020526040902061027d92506001600160d01b03916104e391906104dd90611273565b906112e5565b604051911681529081906020820190565b50604051637669fc0f60e11b8152600481019190915265ffffffffffff919091166024820152604490fd5b346103095760403660031901126103095761053861030e565b6024356105436113c4565b6001600160a01b03821680156105f257610567610562836002546112d8565b600255565b6001600160a01b038316600090815260208181526040808320805486019055518481527fddf252ad1be2c89b69c2b068fc378daa952ba7f163c4a11628f55a4df523b3ef9190a3600254916001600160d01b0383116105cc576105ca9250611db1565b005b604051630e58ae9360e11b8152600481018490526001600160d01b036024820152604490fd5b60405163ec442f0560e01b815260006004820152602490fd5b346103095760003660031901126103095761062543611273565b65ffffffffffff8061063643611273565b1691160361068b5761027d60405161064d81610fa1565b601d81527f6d6f64653d626c6f636b6e756d6265722666726f6d3d64656661756c7400000060208201526040519182916020835260208301906101cc565b6040516301bfc1c560e61b8152600490fd5b346103095760203660031901126103095760206001600160a01b03806106c161030e565b166000526009825260406000205416604051908152f35b34610309576020366003190112610309576105ca6106f461030e565b336113f0565b34610309576020366003190112610309576001600160a01b0361071b61030e565b16600052600a60205260406000205463ffffffff908181116107435760209160405191168152f35b604490604051906306dfcc6560e41b8252602060048301526024820152fd5b3461030957602036600319011261030957602061046c61078061030e565b6001600160a01b031660009081526020819052604090205490565b3461030957600080600319360112610306576107b56113c4565b600580546001600160a01b0319811690915581906001600160a01b03167f8be0079c531659141344cd1fd0a4f28419497f9722a3daafe3b4186f6b6457e08280a380f35b34610309576020366003190112610309576001600160a01b0361081a61030e565b1660005260086020526020604060002054604051908152f35b3461030957600080600319360112610306576108d1906108727f0000000000000000000000000000000000000000000000000000000000000000611983565b9061089c7f0000000000000000000000000000000000000000000000000000000000000000611a84565b90604051916108aa83610fc2565b8183526108df602091604051968796600f60f81b885260e0602089015260e08801906101cc565b9086820360408801526101cc565b904660608601523060808601528260a086015284820360c0860152602080855193848152019401925b82811061091757505050500390f35b835185528695509381019392810192600101610908565b34610309576000366003190112610309576005546040516001600160a01b039091168152602090f35b346103095760203660031901126103095760043561097443611273565b9065ffffffffffff91828116821015610a4f575061099190611273565b600b549060009082600581116109f3575b506109ad93506117c8565b806109ca5750602060005b6040516001600160d01b039091168152f35b6109d56020916112bb565b600b60005260008051602061215c833981519152015460301c6109b8565b90926109fe82611688565b8203918211610a4a576109ad94600b600052808360008051602061215c83398151915201541690851610600014610a385750915b386109a2565b929150610a44906112ca565b90610a32565b6112a5565b604051637669fc0f60e11b8152600481019290925265ffffffffffff166024820152604490fd5b34610309576000366003190112610309576020610a9243611273565b65ffffffffffff60405191168152f35b346103095760008060031936011261030657604051908060045490610ac682610f51565b808552916020916001918281169081156102d95750600114610af25761027d8661027181880382611016565b9350600484527f8a35acfbc15ff81a39ae7d344fd709f28e8600b4aa8c65c6b64bfe7fe36bd19b5b838510610b37575050505081016020016102718261027d38610261565b8054868601840152938201938101610b1a565b34610309576020366003190112610309576001600160a01b03610b6b61030e565b16600052600a602052602060018060d01b03610b8a60406000206114ba565b16604051908152f35b3461030957604036600319011261030957610360610baf61030e565b6024359033611060565b6064359060ff8216820361030957565b6084359060ff8216820361030957565b346103095760c036600319011261030957610bf261030e565b60443590602435610c01610bb9565b834211610c8957610c7d6105ca94610c84926040519060208201927fe48329057bfd03d55e49b547132e39cffd9c1820ad7b9d4c5307691425d15adf845260018060a01b0388166040840152866060840152608083015260808252610c6582610fde565b610c7860a43593608435935190206114e6565b61150c565b9182611524565b6113f0565b604051632341d78760e11b815260048101859052602490fd5b346103095760e036600319011261030957610cbb61030e565b610cc3610324565b60443590606435610cd2610bc9565b814211610dbd576001600160a01b0385811660008181526008602090815260409182902080546001810190915582517f6e71edae12b1b97f4d1f60370fef10105fa2faae0126114a169c64845d6126c99281019283529283019390935292861660608201526080810187905260a081019190915260c080820194909452928352610d76929091610d6360e083611016565b610c7860c4359360a435935190206114e6565b6001600160a01b0384811690821603610d9357506105ca9261157a565b6040516325c0072360e11b81526001600160a01b0391821660048201529084166024820152604490fd5b60405163313c898160e11b815260048101839052602490fd5b34610309576040366003190112610309576020610e25610df461030e565b610dfc610324565b6001600160a01b0391821660009081526001855260408082209290931681526020919091522090565b54604051908152f35b3461030957604036600319011261030957610e4761030e565b60243563ffffffff8116810361030957610e97610e9d91604093610e69611047565b50610e72611047565b506001600160a01b03166000908152600a602052849020610e91611047565b50611c81565b50611caf565b8151815165ffffffffffff1681526020918201516001600160d01b031691810191909152f35b3461030957602036600319011261030957610edc61030e565b610ee46113c4565b6001600160a01b03908116908115610f3857600554826bffffffffffffffffffffffff60a01b821617600555167f8be0079c531659141344cd1fd0a4f28419497f9722a3daafe3b4186f6b6457e0600080a3005b604051631e4fbdf760e01b815260006004820152602490fd5b90600182811c92168015610f81575b6020831014610f6b57565b634e487b7160e01b600052602260045260246000fd5b91607f1691610f60565b634e487b7160e01b600052604160045260246000fd5b6040810190811067ffffffffffffffff821117610fbd57604052565b610f8b565b6020810190811067ffffffffffffffff821117610fbd57604052565b60a0810190811067ffffffffffffffff821117610fbd57604052565b60c0810190811067ffffffffffffffff821117610fbd57604052565b90601f8019910116810190811067ffffffffffffffff821117610fbd57604052565b6040519061104582610fa1565b565b6040519061105482610fa1565b60006020838281520152565b6001600160a01b038082169493929190851561114057821680156105f2576001600160a01b0382166000908152602081905260409020549584871061111157846110459697036110c28460018060a01b03166000526000602052604060002090565b556001600160a01b0384166000908152602081815260409182902080548801905590518681527fddf252ad1be2c89b69c2b068fc378daa952ba7f163c4a11628f55a4df523b3ef9190a3611e2f565b60405163391434e360e21b81526001600160a01b03841660048201526024810188905260448101869052606490fd5b604051634b637e8f60e11b815260006004820152602490fd5b307f00000000000000000000000000000000000000000000000000000000000000006001600160a01b0316148061124a575b156111b4577f000000000000000000000000000000000000000000000000000000000000000090565b60405160208101907f8b73c3c69bb8fe3d512ecc4cf759cc79239f7b179b0ffacaa9a75d522b39400f82527f000000000000000000000000000000000000000000000000000000000000000060408201527f000000000000000000000000000000000000000000000000000000000000000060608201524660808201523060a082015260a0815261124481610ffa565b51902090565b507f0000000000000000000000000000000000000000000000000000000000000000461461118b565b65ffffffffffff90818111611286571690565b604490604051906306dfcc6560e41b8252603060048301526024820152fd5b634e487b7160e01b600052601160045260246000fd5b600019810191908211610a4a57565b9060018201809211610a4a57565b91908201809211610a4a57565b908154906000918060058111611378575b50915b8281106113285750508061130e575050600090565b611317906112bb565b906000526020600020015460301c90565b90918082169080831860011c8201809211610a4a578460005265ffffffffffff80836020600020015416908516106000146113665750915b906112f9565b929150611372906112ca565b90611360565b9061138282611688565b8203918211610a4a578460005265ffffffffffff80836020600020015416908416106000146113b357505b386112f6565b92506113be906112ca565b916113ad565b6005546001600160a01b031633036113d857565b60405163118cdaa760e01b8152336004820152602490fd5b6001600160a01b03818116600081815260096020526040812080548685166001600160a01b0319821681179092556110459694169461146d9390928691907f3134e8a2e6d97e929a7e54011ea5485d7d196dd5f0ba4d4ef95803e8e3fc257f9080a46001600160a01b031660009081526020819052604090205490565b91611831565b600b54806114815750600090565b80600019810111610a4a57600b6000527f0175b7a638427703f0dbe7bb9bbf987a2551717b34e79f33b5b1008d1fa01db8015460301c90565b8054806114c8575050600090565b600019918183810111610a4a57600052602060002001015460301c90565b6042906114f1611159565b906040519161190160f01b8352600283015260228201522090565b9161021d939161151b93611b44565b90929192611bf4565b6001600160a01b03811660009081526008602052604090208054600181019091559091819003611552575050565b6040516301d4b62360e61b81526001600160a01b039092166004830152602482015260449150fd5b6001600160a01b0380821692919083156116155782169384156115fc57806115f27f8c5be1e5ebec7d5bd14f71427d1e84f3dd0314c0f7b2291e5b200ac8c7c3b925946115db60209560018060a01b03166000526001602052604060002090565b9060018060a01b0316600052602052604060002090565b55604051908152a3565b604051634a1406b160e11b815260006004820152602490fd5b60405163e602df0560e01b815260006004820152602490fd5b906001600160a01b0380831615611615578116156115fc576115db6116659260018060a01b03166000526001602052604060002090565b55565b8115611672570490565b634e487b7160e01b600052601260045260246000fd5b80156117c2578061175b61175461174a61174061173661172c611722611718600161021d9a6000908b60801c806117b6575b508060401c806117a9575b508060201c8061179c575b508060101c8061178f575b508060081c80611782575b508060041c80611775575b508060021c80611768575b50821c611761575b811c1b611711818b611668565b0160011c90565b611711818a611668565b6117118189611668565b6117118188611668565b6117118187611668565b6117118186611668565b6117118185611668565b8092611668565b90611cd3565b8101611704565b60029150910190386116fc565b60049150910190386116f1565b60089150910190386116e6565b60109150910190386116db565b60209150910190386116d0565b60409150910190386116c5565b915050608090386116ba565b50600090565b905b8281106117d657505090565b90918082169080831860011c8201809211610a4a57600b60005265ffffffffffff808360008051602061215c8339815191520154169085161060001461181f5750915b906117ca565b92915061182b906112ca565b90611819565b6001600160a01b0380831693929190811690818514158061197a575b611859575b5050505050565b816118de575b50508261186e575b8080611852565b6001600160a01b03166000908152600a602052604090207fdec2bacdd2f05b59de34da9b523dff8be42e5e38e818c82fdb0bae774387a724916118bb916118b59091611ce5565b90611d18565b604080516001600160d01b039384168152919092166020820152a2388080611867565b6001600160a01b03166000908152600a602052604090206118fe84611ce5565b61190743611273565b6001600160d01b0391828061191b866114ba565b169116900392828411610a4a577fdec2bacdd2f05b59de34da9b523dff8be42e5e38e818c82fdb0bae774387a724936119709261195792612079565b6040805192851683529316602082015291829190820190565b0390a2388061185f565b5083151561184d565b60ff81146119c15760ff811690601f82116119af57604051916119a583610fa1565b8252602082015290565b604051632cd44ac360e21b8152600490fd5b506040516006548160006119d483610f51565b80835292602090600190818116908115611a6057506001146119ff575b505061021d92500382611016565b91509260066000527ff652222313e28459528d920b65115c16c04f3efc82aaedc97be59f3f377c0d3f936000925b828410611a48575061021d94505050810160200138806119f1565b85548785018301529485019486945092810192611a2d565b9150506020925061021d94915060ff191682840152151560051b82010138806119f1565b60ff8114611aa65760ff811690601f82116119af57604051916119a583610fa1565b50604051600754816000611ab983610f51565b80835292602090600190818116908115611a605750600114611ae357505061021d92500382611016565b91509260076000527fa66cc928b5edb82af9bd49922954155ab7b0942694bea4ce44661d9a8736c688936000925b828410611b2c575061021d94505050810160200138806119f1565b85548785018301529485019486945092810192611b11565b91907f7fffffffffffffffffffffffffffffff5d576e7357a4501ddfe92f46681b20a08411611bc857926020929160ff608095604051948552168484015260408301526060820152600092839182805260015afa15611bbc5780516001600160a01b03811615611bb357918190565b50809160019190565b604051903d90823e3d90fd5b50505060009160039190565b60041115611bde57565b634e487b7160e01b600052602160045260246000fd5b611bfd81611bd4565b80611c06575050565b611c0f81611bd4565b60018103611c295760405163f645eedf60e01b8152600490fd5b611c3281611bd4565b60028103611c535760405163fce698f760e01b815260048101839052602490fd5b80611c5f600392611bd4565b14611c675750565b6040516335e2f38360e21b81526004810191909152602490fd5b8054821015611c995760005260206000200190600090565b634e487b7160e01b600052603260045260246000fd5b90604051611cbc81610fa1565b915465ffffffffffff8116835260301c6020830152565b9080821015611ce0575090565b905090565b6001600160d01b0390818111611cf9571690565b604490604051906306dfcc6560e41b825260d060048301526024820152fd5b90611d2243611273565b6001600160d01b03918280611d36866114ba565b16911601918211610a4a57611d4a92612079565b9091565b611d5743611273565b906001600160d01b03908180611d6b611473565b16911601908111610a4a57611d4a91611f51565b611d8843611273565b906001600160d01b03908180611d9c611473565b1691169003908111610a4a57611d4a91611f51565b9061104591611dc7611dc283611ce5565b611d4e565b50506001600160a01b03908116908115611e17575b60096020527fec8156718a8372b1db44bb411437d0870f3e3790d4a08526d024ce1b0b668f6b54600092835260409092205481169116611831565b611e28611e2384611ce5565b611d7f565b5050611ddc565b61104592916001600160a01b03918216919081908315611e87575b16918215611e74575b60005260096020528060406000205416916000526040600020541690611831565b611e80611e2385611ce5565b5050611e53565b611e93611dc286611ce5565b5050611e4a565b600b5490600160401b821015610fbd576001820180600b55821015611c9957600b600052805160209091015160301b65ffffffffffff191665ffffffffffff919091161760008051602061215c83398151915290910155565b8054600160401b811015610fbd57611f1091600182018155611c81565b611f3b57815160209092015160301b65ffffffffffff191665ffffffffffff92909216919091179055565b634e487b7160e01b600052600060045260246000fd5b600b5491929190811561204f57611f8a611f85611f6d846112bb565b600b60005260008051602061215c8339815191520190565b611caf565b805165ffffffffffff838116949116841061203d578560209361200195611fc5611fba865165ffffffffffff1690565b65ffffffffffff1690565b036120055750611fda611f6d611ff3936112bb565b9065ffffffffffff82549181199060301b169116179055565b01516001600160d01b031690565b9190565b90506120389150612025612017611038565b65ffffffffffff9092168252565b6001600160d01b03871681850152611e9a565b611ff3565b604051632520601d60e01b8152600490fd5b612073915061205f612017611038565b6001600160d01b0384166020820152611e9a565b60009190565b805492939291908215612137576120a2611f85612095856112bb565b8360005260206000200190565b906120b3825165ffffffffffff1690565b65ffffffffffff8481169116811061203d576120019460209488926120e1611fba875165ffffffffffff1690565b036121045750611ff3926120f7611fda926112bb565b9060005260206000200190565b91505061203891612124612116611038565b65ffffffffffff9093168352565b6001600160d01b03881682860152611ef3565b6120739250612147612116611038565b6001600160d01b0385166020830152611ef356fe0175b7a638427703f0dbe7bb9bbf987a2551717b34e79f33b5b1008d1fa01db9a2646970667358221220f2c8420ecf8b349ba88a443b8e4255d61712f4f815ee50d6ab26398ec4bdfb4264736f6c63430008180033",
  "linkReferences": {},
  "deployedLinkReferences": {}
}